{
    "contractName": "UserManager",
    "abi": [
        {
            "inputs": [],
            "stateMutability": "nonpayable",
            "type": "constructor"
        },
        {
            "anonymous": false,
            "inputs": [
                {
                    "indexed": true,
                    "internalType": "address",
                    "name": "previousOwner",
                    "type": "address"
                },
                {
                    "indexed": true,
                    "internalType": "address",
                    "name": "newOwner",
                    "type": "address"
                }
            ],
            "name": "OwnershipTransferred",
            "type": "event"
        },
        {
            "inputs": [
                {
                    "internalType": "address",
                    "name": "_appAddress",
                    "type": "address"
                }
            ],
            "name": "createNewApp",
            "outputs": [],
            "stateMutability": "nonpayable",
            "type": "function"
        },
        {
            "inputs": [
                {
                    "internalType": "string",
                    "name": "key",
                    "type": "string"
                }
            ],
            "name": "createUser",
            "outputs": [],
            "stateMutability": "nonpayable",
            "type": "function"
        },
        {
            "inputs": [],
            "name": "getPublishedApps",
            "outputs": [
                {
                    "components": [
                        {
                            "internalType": "uint256",
                            "name": "id",
                            "type": "uint256"
                        },
                        {
                            "internalType": "string",
                            "name": "name",
                            "type": "string"
                        },
                        {
                            "internalType": "string",
                            "name": "description",
                            "type": "string"
                        },
                        {
                            "internalType": "string",
                            "name": "imgUrl",
                            "type": "string"
                        },
                        {
                            "internalType": "string",
                            "name": "company",
                            "type": "string"
                        },
                        {
                            "internalType": "uint256",
                            "name": "price",
                            "type": "uint256"
                        },
                        {
                            "internalType": "uint256",
                            "name": "numRatings",
                            "type": "uint256"
                        },
                        {
                            "internalType": "uint256",
                            "name": "ratingInt",
                            "type": "uint256"
                        },
                        {
                            "internalType": "uint256",
                            "name": "ratingModulu",
                            "type": "uint256"
                        },
                        {
                            "internalType": "uint256",
                            "name": "userRating",
                            "type": "uint256"
                        },
                        {
                            "internalType": "string",
                            "name": "fileSha256",
                            "type": "string"
                        },
                        {
                            "internalType": "bool",
                            "name": "owned",
                            "type": "bool"
                        },
                        {
                            "internalType": "string",
                            "name": "magnetLink",
                            "type": "string"
                        },
                        {
                            "internalType": "string",
                            "name": "category",
                            "type": "string"
                        },
                        {
                            "internalType": "uint256",
                            "name": "publishTime",
                            "type": "uint256"
                        }
                    ],
                    "internalType": "struct AppInfoLibrary.AppInfo[]",
                    "name": "",
                    "type": "tuple[]"
                }
            ],
            "stateMutability": "view",
            "type": "function"
        },
        {
            "inputs": [],
            "name": "getPurchasedAppsInfo",
            "outputs": [
                {
                    "components": [
                        {
                            "internalType": "uint256",
                            "name": "id",
                            "type": "uint256"
                        },
                        {
                            "internalType": "string",
                            "name": "name",
                            "type": "string"
                        },
                        {
                            "internalType": "string",
                            "name": "description",
                            "type": "string"
                        },
                        {
                            "internalType": "string",
                            "name": "imgUrl",
                            "type": "string"
                        },
                        {
                            "internalType": "string",
                            "name": "company",
                            "type": "string"
                        },
                        {
                            "internalType": "uint256",
                            "name": "price",
                            "type": "uint256"
                        },
                        {
                            "internalType": "uint256",
                            "name": "numRatings",
                            "type": "uint256"
                        },
                        {
                            "internalType": "uint256",
                            "name": "ratingInt",
                            "type": "uint256"
                        },
                        {
                            "internalType": "uint256",
                            "name": "ratingModulu",
                            "type": "uint256"
                        },
                        {
                            "internalType": "uint256",
                            "name": "userRating",
                            "type": "uint256"
                        },
                        {
                            "internalType": "string",
                            "name": "fileSha256",
                            "type": "string"
                        },
                        {
                            "internalType": "bool",
                            "name": "owned",
                            "type": "bool"
                        },
                        {
                            "internalType": "string",
                            "name": "magnetLink",
                            "type": "string"
                        },
                        {
                            "internalType": "string",
                            "name": "category",
                            "type": "string"
                        },
                        {
                            "internalType": "uint256",
                            "name": "publishTime",
                            "type": "uint256"
                        }
                    ],
                    "internalType": "struct AppInfoLibrary.AppInfo[]",
                    "name": "",
                    "type": "tuple[]"
                }
            ],
            "stateMutability": "view",
            "type": "function"
        },
        {
            "inputs": [],
            "name": "getRatedApps",
            "outputs": [
                {
                    "components": [
                        {
                            "internalType": "uint256",
                            "name": "id",
                            "type": "uint256"
                        },
                        {
                            "internalType": "string",
                            "name": "name",
                            "type": "string"
                        },
                        {
                            "internalType": "string",
                            "name": "description",
                            "type": "string"
                        },
                        {
                            "internalType": "string",
                            "name": "imgUrl",
                            "type": "string"
                        },
                        {
                            "internalType": "string",
                            "name": "company",
                            "type": "string"
                        },
                        {
                            "internalType": "uint256",
                            "name": "price",
                            "type": "uint256"
                        },
                        {
                            "internalType": "uint256",
                            "name": "numRatings",
                            "type": "uint256"
                        },
                        {
                            "internalType": "uint256",
                            "name": "ratingInt",
                            "type": "uint256"
                        },
                        {
                            "internalType": "uint256",
                            "name": "ratingModulu",
                            "type": "uint256"
                        },
                        {
                            "internalType": "uint256",
                            "name": "userRating",
                            "type": "uint256"
                        },
                        {
                            "internalType": "string",
                            "name": "fileSha256",
                            "type": "string"
                        },
                        {
                            "internalType": "bool",
                            "name": "owned",
                            "type": "bool"
                        },
                        {
                            "internalType": "string",
                            "name": "magnetLink",
                            "type": "string"
                        },
                        {
                            "internalType": "string",
                            "name": "category",
                            "type": "string"
                        },
                        {
                            "internalType": "uint256",
                            "name": "publishTime",
                            "type": "uint256"
                        }
                    ],
                    "internalType": "struct AppInfoLibrary.AppInfo[]",
                    "name": "",
                    "type": "tuple[]"
                }
            ],
            "stateMutability": "view",
            "type": "function"
        },
        {
            "inputs": [
                {
                    "internalType": "address",
                    "name": "_appAddrress",
                    "type": "address"
                }
            ],
            "name": "getUserRating",
            "outputs": [
                {
                    "internalType": "uint256",
                    "name": "_rating",
                    "type": "uint256"
                }
            ],
            "stateMutability": "view",
            "type": "function"
        },
        {
            "inputs": [
                {
                    "internalType": "address",
                    "name": "_appAddress",
                    "type": "address"
                }
            ],
            "name": "markAppAsPurchased",
            "outputs": [],
            "stateMutability": "nonpayable",
            "type": "function"
        },
        {
            "inputs": [
                {
                    "internalType": "address",
                    "name": "_appAddress",
                    "type": "address"
                },
                {
                    "internalType": "uint256",
                    "name": "_rating",
                    "type": "uint256"
                }
            ],
            "name": "markAppAsRated",
            "outputs": [],
            "stateMutability": "nonpayable",
            "type": "function"
        },
        {
            "inputs": [],
            "name": "owner",
            "outputs": [
                {
                    "internalType": "address",
                    "name": "",
                    "type": "address"
                }
            ],
            "stateMutability": "view",
            "type": "function"
        },
        {
            "inputs": [],
            "name": "renounceOwnership",
            "outputs": [],
            "stateMutability": "nonpayable",
            "type": "function"
        },
        {
            "inputs": [
                {
                    "internalType": "address",
                    "name": "newOwner",
                    "type": "address"
                }
            ],
            "name": "transferOwnership",
            "outputs": [],
            "stateMutability": "nonpayable",
            "type": "function"
        },
        {
            "inputs": [
                {
                    "internalType": "address",
                    "name": "_app_address",
                    "type": "address"
                }
            ],
            "name": "userCreatedApp",
            "outputs": [
                {
                    "internalType": "bool",
                    "name": "",
                    "type": "bool"
                }
            ],
            "stateMutability": "view",
            "type": "function"
        },
        {
            "inputs": [],
            "name": "userExists",
            "outputs": [
                {
                    "internalType": "bool",
                    "name": "",
                    "type": "bool"
                }
            ],
            "stateMutability": "view",
            "type": "function"
        },
        {
            "inputs": [
                {
                    "internalType": "address",
                    "name": "_app_address",
                    "type": "address"
                }
            ],
            "name": "userOwnsApp",
            "outputs": [
                {
                    "internalType": "bool",
                    "name": "",
                    "type": "bool"
                }
            ],
            "stateMutability": "view",
            "type": "function"
        }
    ],
    "bytecode": "608060405234801561001057600080fd5b5061001a3361001f565b61006f565b600080546001600160a01b038381166001600160a01b0319831681178455604051919092169283917f8be0079c531659141344cd1fd0a4f28419497f9722a3daafe3b4186f6b6457e09190a35050565b6131988061007e6000396000f3fe60806040523480156200001157600080fd5b5060043610620000fd5760003560e01c80638da5cb5b1162000097578063bd0d9fac116200006e578063bd0d9fac14620001ee578063e3f75d1e1462000205578063eae6d4da146200021c578063f2fde38b146200022657600080fd5b80638da5cb5b14620001b15780638f89b46a14620001cd57806391de1ba314620001d757600080fd5b8063460168c311620000d8578063460168c31462000151578063507ffba51462000177578063715018a61462000190578063738ead46146200019a57600080fd5b80630acb6bbe1462000102578063139334af146200012e578063253a219f1462000147575b600080fd5b620001196200011336600462001733565b6200023d565b60405190151581526020015b60405180910390f35b620001386200041d565b604051620001259190620017b2565b62000138620005fa565b620001686200016236600462001733565b620007a6565b60405190815260200162000125565b6200018e6200018836600462001938565b62000983565b005b6200018e62000c1d565b62000119620001ab36600462001733565b62000c35565b6000546040516001600160a01b03909116815260200162000125565b6200013862000dc5565b6200018e620001e836600462001733565b62000f71565b6200018e620001ff366004620019af565b6200113a565b6200018e6200021636600462001733565b6200130a565b62000119620014a0565b6200018e6200023736600462001733565b620015dd565b6040516386bd3f9160e01b8152336004820181905260009173__$0fa02d6a67b7b0d0756a7e3fbaa86f03ef$__906386bd3f9190602401602060405180830381865af415801562000292573d6000803e3d6000fd5b505050506040513d601f19601f82011682018060405250810190620002b89190620019ed565b15620002e15760405162461bcd60e51b8152600401620002d89062001a0b565b60405180910390fd5b6001600160a01b03818116600090815260016020526040908190205490516386bd3f9160e01b81529116600482015273__$0fa02d6a67b7b0d0756a7e3fbaa86f03ef$__906386bd3f9190602401602060405180830381865af41580156200034d573d6000803e3d6000fd5b505050506040513d601f19601f82011682018060405250810190620003739190620019ed565b15620003935760405162461bcd60e51b8152600401620002d89062001a39565b336000908152600160205260409081902054905163012935c160e21b81526001600160a01b0385811660048301529091169081906304a4d704906024015b602060405180830381865afa158015620003ef573d6000803e3d6000fd5b505050506040513d601f19601f82011682018060405250810190620004159190620019ed565b949350505050565b6060620004296200165c565b6040516386bd3f9160e01b815233600482018190529073__$0fa02d6a67b7b0d0756a7e3fbaa86f03ef$__906386bd3f9190602401602060405180830381865af41580156200047c573d6000803e3d6000fd5b505050506040513d601f19601f82011682018060405250810190620004a29190620019ed565b15620004c25760405162461bcd60e51b8152600401620002d89062001a0b565b6001600160a01b03818116600090815260016020526040908190205490516386bd3f9160e01b81529116600482015273__$0fa02d6a67b7b0d0756a7e3fbaa86f03ef$__906386bd3f9190602401602060405180830381865af41580156200052e573d6000803e3d6000fd5b505050506040513d601f19601f82011682018060405250810190620005549190620019ed565b15620005745760405162461bcd60e51b8152600401620002d89062001a39565b3360009081526001602052604080822054815163139334af60e01b815291516001600160a01b039091169163139334af91600480830192869291908290030181865afa158015620005c9573d6000803e3d6000fd5b505050506040513d6000823e601f3d908101601f19168201604052620005f3919081019062001b45565b9250505090565b6060620006066200165c565b6040516386bd3f9160e01b815233600482018190529073__$0fa02d6a67b7b0d0756a7e3fbaa86f03ef$__906386bd3f9190602401602060405180830381865af415801562000659573d6000803e3d6000fd5b505050506040513d601f19601f820116820180604052508101906200067f9190620019ed565b156200069f5760405162461bcd60e51b8152600401620002d89062001a0b565b6001600160a01b03818116600090815260016020526040908190205490516386bd3f9160e01b81529116600482015273__$0fa02d6a67b7b0d0756a7e3fbaa86f03ef$__906386bd3f9190602401602060405180830381865af41580156200070b573d6000803e3d6000fd5b505050506040513d601f19601f82011682018060405250810190620007319190620019ed565b15620007515760405162461bcd60e51b8152600401620002d89062001a39565b3360009081526001602052604080822054815163253a219f60e01b815291516001600160a01b039091169163253a219f91600480830192869291908290030181865afa158015620005c9573d6000803e3d6000fd5b6000620007b26200165c565b6040516386bd3f9160e01b815233600482018190529073__$0fa02d6a67b7b0d0756a7e3fbaa86f03ef$__906386bd3f9190602401602060405180830381865af415801562000805573d6000803e3d6000fd5b505050506040513d601f19601f820116820180604052508101906200082b9190620019ed565b156200084b5760405162461bcd60e51b8152600401620002d89062001a0b565b6001600160a01b03818116600090815260016020526040908190205490516386bd3f9160e01b81529116600482015273__$0fa02d6a67b7b0d0756a7e3fbaa86f03ef$__906386bd3f9190602401602060405180830381865af4158015620008b7573d6000803e3d6000fd5b505050506040513d601f19601f82011682018060405250810190620008dd9190620019ed565b15620008fd5760405162461bcd60e51b8152600401620002d89062001a39565b3360009081526001602052604090819020549051639f9f7f8560e01b81526001600160a01b03858116600483015290911690639f9f7f8590602401602060405180830381865afa15801562000956573d6000803e3d6000fd5b505050506040513d601f19601f820116820180604052508101906200097c919062001daf565b9392505050565b6200098d6200165c565b6040516386bd3f9160e01b815233600482018190529073__$0fa02d6a67b7b0d0756a7e3fbaa86f03ef$__906386bd3f9190602401602060405180830381865af4158015620009e0573d6000803e3d6000fd5b505050506040513d601f19601f8201168201806040525081019062000a069190620019ed565b1562000a265760405162461bcd60e51b8152600401620002d89062001a0b565b6001600160a01b03818116600090815260016020526040908190205490516386bd3f9160e01b81529116600482015273__$0fa02d6a67b7b0d0756a7e3fbaa86f03ef$__906386bd3f9190602401602060405180830381865af415801562000a92573d6000803e3d6000fd5b505050506040513d601f19601f8201168201806040525081019062000ab89190620019ed565b1562000ad85760405162461bcd60e51b8152600401620002d89062001a39565b33600090815260016020526040908190205490516386bd3f9160e01b81526001600160a01b03909116600482015273__$0fa02d6a67b7b0d0756a7e3fbaa86f03ef$__906386bd3f9190602401602060405180830381865af415801562000b43573d6000803e3d6000fd5b505050506040513d601f19601f8201168201806040525081019062000b699190620019ed565b1562000bae5760405162461bcd60e51b81526020600482015260136024820152725573657220616c72656164792065786973747360681b6044820152606401620002d8565b33838360405162000bbf9062001708565b62000bcd9392919062001dc9565b604051809103906000f08015801562000bea573d6000803e3d6000fd5b5033600090815260016020526040902080546001600160a01b0319166001600160a01b0392909216919091179055505050565b62000c276200165c565b62000c336000620016b8565b565b6040516386bd3f9160e01b8152336004820181905260009173__$0fa02d6a67b7b0d0756a7e3fbaa86f03ef$__906386bd3f9190602401602060405180830381865af415801562000c8a573d6000803e3d6000fd5b505050506040513d601f19601f8201168201806040525081019062000cb09190620019ed565b1562000cd05760405162461bcd60e51b8152600401620002d89062001a0b565b6001600160a01b03818116600090815260016020526040908190205490516386bd3f9160e01b81529116600482015273__$0fa02d6a67b7b0d0756a7e3fbaa86f03ef$__906386bd3f9190602401602060405180830381865af415801562000d3c573d6000803e3d6000fd5b505050506040513d601f19601f8201168201806040525081019062000d629190620019ed565b1562000d825760405162461bcd60e51b8152600401620002d89062001a39565b336000908152600160205260409081902054905163efd4606560e01b81526001600160a01b03858116600483015290911690819063efd4606590602401620003d1565b606062000dd16200165c565b6040516386bd3f9160e01b815233600482018190529073__$0fa02d6a67b7b0d0756a7e3fbaa86f03ef$__906386bd3f9190602401602060405180830381865af415801562000e24573d6000803e3d6000fd5b505050506040513d601f19601f8201168201806040525081019062000e4a9190620019ed565b1562000e6a5760405162461bcd60e51b8152600401620002d89062001a0b565b6001600160a01b03818116600090815260016020526040908190205490516386bd3f9160e01b81529116600482015273__$0fa02d6a67b7b0d0756a7e3fbaa86f03ef$__906386bd3f9190602401602060405180830381865af415801562000ed6573d6000803e3d6000fd5b505050506040513d601f19601f8201168201806040525081019062000efc9190620019ed565b1562000f1c5760405162461bcd60e51b8152600401620002d89062001a39565b3360009081526001602052604080822054815163b8c3773f60e01b815291516001600160a01b039091169163b8c3773f91600480830192869291908290030181865afa158015620005c9573d6000803e3d6000fd5b62000f7b6200165c565b6040516386bd3f9160e01b815233600482018190529073__$0fa02d6a67b7b0d0756a7e3fbaa86f03ef$__906386bd3f9190602401602060405180830381865af415801562000fce573d6000803e3d6000fd5b505050506040513d601f19601f8201168201806040525081019062000ff49190620019ed565b15620010145760405162461bcd60e51b8152600401620002d89062001a0b565b6001600160a01b03818116600090815260016020526040908190205490516386bd3f9160e01b81529116600482015273__$0fa02d6a67b7b0d0756a7e3fbaa86f03ef$__906386bd3f9190602401602060405180830381865af415801562001080573d6000803e3d6000fd5b505050506040513d601f19601f82011682018060405250810190620010a69190620019ed565b15620010c65760405162461bcd60e51b8152600401620002d89062001a39565b33600090815260016020526040908190205490516391de1ba360e01b81526001600160a01b038481166004830152909116906391de1ba3906024015b600060405180830381600087803b1580156200111d57600080fd5b505af115801562001132573d6000803e3d6000fd5b505050505050565b620011446200165c565b6040516386bd3f9160e01b815233600482018190529073__$0fa02d6a67b7b0d0756a7e3fbaa86f03ef$__906386bd3f9190602401602060405180830381865af415801562001197573d6000803e3d6000fd5b505050506040513d601f19601f82011682018060405250810190620011bd9190620019ed565b15620011dd5760405162461bcd60e51b8152600401620002d89062001a0b565b6001600160a01b03818116600090815260016020526040908190205490516386bd3f9160e01b81529116600482015273__$0fa02d6a67b7b0d0756a7e3fbaa86f03ef$__906386bd3f9190602401602060405180830381865af415801562001249573d6000803e3d6000fd5b505050506040513d601f19601f820116820180604052508101906200126f9190620019ed565b156200128f5760405162461bcd60e51b8152600401620002d89062001a39565b336000908152600160205260409081902054905163983c0a5b60e01b81526001600160a01b038581166004830152602482018590529091169063983c0a5b90604401600060405180830381600087803b158015620012ec57600080fd5b505af115801562001301573d6000803e3d6000fd5b50505050505050565b620013146200165c565b6040516386bd3f9160e01b815233600482018190529073__$0fa02d6a67b7b0d0756a7e3fbaa86f03ef$__906386bd3f9190602401602060405180830381865af415801562001367573d6000803e3d6000fd5b505050506040513d601f19601f820116820180604052508101906200138d9190620019ed565b15620013ad5760405162461bcd60e51b8152600401620002d89062001a0b565b6001600160a01b03818116600090815260016020526040908190205490516386bd3f9160e01b81529116600482015273__$0fa02d6a67b7b0d0756a7e3fbaa86f03ef$__906386bd3f9190602401602060405180830381865af415801562001419573d6000803e3d6000fd5b505050506040513d601f19601f820116820180604052508101906200143f9190620019ed565b156200145f5760405162461bcd60e51b8152600401620002d89062001a39565b33600090815260016020526040908190205490516371fbae8f60e11b81526001600160a01b0384811660048301529091169063e3f75d1e9060240162001102565b6000620014ac6200165c565b6040516386bd3f9160e01b815233600482018190529073__$0fa02d6a67b7b0d0756a7e3fbaa86f03ef$__906386bd3f9190602401602060405180830381865af4158015620014ff573d6000803e3d6000fd5b505050506040513d601f19601f82011682018060405250810190620015259190620019ed565b15620015455760405162461bcd60e51b8152600401620002d89062001a0b565b33600090815260016020526040908190205490516386bd3f9160e01b81526001600160a01b03909116600482015273__$0fa02d6a67b7b0d0756a7e3fbaa86f03ef$__906386bd3f9190602401602060405180830381865af4158015620015b0573d6000803e3d6000fd5b505050506040513d601f19601f82011682018060405250810190620015d69190620019ed565b1591505090565b620015e76200165c565b6001600160a01b0381166200164e5760405162461bcd60e51b815260206004820152602660248201527f4f776e61626c653a206e6577206f776e657220697320746865207a65726f206160448201526564647265737360d01b6064820152608401620002d8565b6200165981620016b8565b50565b6000546001600160a01b0316331462000c335760405162461bcd60e51b815260206004820181905260248201527f4f776e61626c653a2063616c6c6572206973206e6f7420746865206f776e65726044820152606401620002d8565b600080546001600160a01b038381166001600160a01b0319831681178455604051919092169283917f8be0079c531659141344cd1fd0a4f28419497f9722a3daafe3b4186f6b6457e09190a35050565b6113598062001e0a83390190565b80356001600160a01b03811681146200172e57600080fd5b919050565b6000602082840312156200174657600080fd5b6200097c8262001716565b60005b838110156200176e57818101518382015260200162001754565b838111156200177e576000848401525b50505050565b600081518084526200179e81602086016020860162001751565b601f01601f19169290920160200192915050565b60006020808301818452808551808352604092508286019150828160051b87010184880160005b838110156200192a57603f1989840301855281516101e08151855288820151818a8701526200180b8287018262001784565b915050878201518582038987015262001825828262001784565b9150506060808301518683038288015262001841838262001784565b92505050608080830151868303828801526200185e838262001784565b60a0858101519089015260c0808601519089015260e080860151908901526101008086015190890152610120808601519089015261014080860151898303828b015291945092509050620018b3838262001784565b9250505061016080830151620018cc8288018215159052565b50506101808083015186830382880152620018e8838262001784565b925050506101a0808301518683038288015262001906838262001784565b6101c0948501519790940196909652505094870194925090860190600101620017d9565b509098975050505050505050565b600080602083850312156200194c57600080fd5b823567ffffffffffffffff808211156200196557600080fd5b818501915085601f8301126200197a57600080fd5b8135818111156200198a57600080fd5b8660208285010111156200199d57600080fd5b60209290920196919550909350505050565b60008060408385031215620019c357600080fd5b620019ce8362001716565b946020939093013593505050565b805180151581146200172e57600080fd5b60006020828403121562001a0057600080fd5b6200097c82620019dc565b602080825260149082015273496e76616c69642075736572206164647265737360601b604082015260600190565b6020808252600e908201526d155cd95c881b9bdd08199bdd5b9960921b604082015260600190565b634e487b7160e01b600052604160045260246000fd5b6040516101e0810167ffffffffffffffff8111828210171562001a9e5762001a9e62001a61565b60405290565b604051601f8201601f1916810167ffffffffffffffff8111828210171562001ad05762001ad062001a61565b604052919050565b600082601f83011262001aea57600080fd5b815167ffffffffffffffff81111562001b075762001b0762001a61565b62001b1c601f8201601f191660200162001aa4565b81815284602083860101111562001b3257600080fd5b6200041582602083016020870162001751565b6000602080838503121562001b5957600080fd5b825167ffffffffffffffff8082111562001b7257600080fd5b818501915085601f83011262001b8757600080fd5b81518181111562001b9c5762001b9c62001a61565b8060051b62001bad85820162001aa4565b918252838101850191858101908984111562001bc857600080fd5b86860192505b8383101562001da25782518581111562001be757600080fd5b86016101e0818c03601f1901121562001bff57600080fd5b62001c0962001a77565b88820151815260408201518781111562001c2257600080fd5b62001c328d8b8386010162001ad8565b8a8301525060608201518781111562001c4a57600080fd5b62001c5a8d8b8386010162001ad8565b60408301525060808201518781111562001c7357600080fd5b62001c838d8b8386010162001ad8565b60608301525060a08201518781111562001c9c57600080fd5b62001cac8d8b8386010162001ad8565b60808301525060c082015160a082015260e082015160c08201526101008083015160e083015261012080840151828401526101409150818401518184015250610160808401518981111562001d0057600080fd5b62001d108f8d8388010162001ad8565b8385015250610180915062001d27828501620019dc565b908301526101a0838101518981111562001d4057600080fd5b62001d508f8d8388010162001ad8565b83850152506101c09150818401518981111562001d6c57600080fd5b62001d7c8f8d8388010162001ad8565b8285015250506101e0830151818301525080845250508682019150868301925062001bce565b9998505050505050505050565b60006020828403121562001dc257600080fd5b5051919050565b6001600160a01b03841681526040602082018190528101829052818360608301376000818301606090810191909152601f909201601f191601019291505056fe60806040523480156200001157600080fd5b5060405162001359380380620013598339810160408190526200003491620000ff565b6200003f3362000093565b600180546001600160a01b0319166001600160a01b03841617905560026200006882826200028e565b506003805460ff191690556200008b6009620000e3602090811b6200092317901c565b50506200035a565b600080546001600160a01b038381166001600160a01b0319831681178455604051919092169283917f8be0079c531659141344cd1fd0a4f28419497f9722a3daafe3b4186f6b6457e09190a35050565b60009055565b634e487b7160e01b600052604160045260246000fd5b600080604083850312156200011357600080fd5b82516001600160a01b03811681146200012b57600080fd5b602084810151919350906001600160401b03808211156200014b57600080fd5b818601915086601f8301126200016057600080fd5b815181811115620001755762000175620000e9565b604051601f8201601f19908116603f01168101908382118183101715620001a057620001a0620000e9565b816040528281528986848701011115620001b957600080fd5b600093505b82841015620001dd5784840186015181850187015292850192620001be565b82841115620001ef5760008684830101525b8096505050505050509250929050565b600181811c908216806200021457607f821691505b6020821081036200023557634e487b7160e01b600052602260045260246000fd5b50919050565b601f8211156200028957600081815260208120601f850160051c81016020861015620002645750805b601f850160051c820191505b81811015620002855782815560010162000270565b5050505b505050565b81516001600160401b03811115620002aa57620002aa620000e9565b620002c281620002bb8454620001ff565b846200023b565b602080601f831160018114620002fa5760008415620002e15750858301515b600019600386901b1c1916600185901b17855562000285565b600085815260208120601f198616915b828110156200032b578886015182559484019460019091019084016200030a565b50858210156200034a5787850151600019600388901b60f8161c191681555b5050505050600190811b01905550565b610fef806200036a6000396000f3fe608060405234801561001057600080fd5b50600436106100b45760003560e01c8063983c0a5b11610071578063983c0a5b146101365780639f9f7f8514610149578063b8c3773f1461016a578063e3f75d1e14610172578063efd4606514610185578063f2fde38b1461019857600080fd5b806304a4d704146100b9578063139334af146100e1578063253a219f146100f6578063715018a6146100fe5780638da5cb5b1461010857806391de1ba314610123575b600080fd5b6100cc6100c7366004610a62565b6101ab565b60405190151581526020015b60405180910390f35b6100e96101d8565b6040516100d89190610ae0565b6100e9610379565b6101066104de565b005b6000546040516001600160a01b0390911681526020016100d8565b610106610131366004610a62565b6104f2565b610106610144366004610c55565b610561565b61015c610157366004610a62565b6105cd565b6040519081526020016100d8565b6100e96105f3565b610106610180366004610a62565b610758565b6100cc610193366004610a62565b6107c4565b6101066101a6366004610a62565b6108a8565b60006101b5610929565b506001600160a01b03811660009081526006602052604090205460ff165b919050565b60606101e2610929565b60006101ed60095490565b905060008167ffffffffffffffff81111561020a5761020a610c7f565b60405190808252806020026020018201604052801561024357816020015b6102306109d3565b8152602001906001900390816102285790505b50905060005b828110156103725760006004828154811061026657610266610c95565b60009182526020808320909101546001600160a01b0316808352600790915260409091205490915081901561035d57806001600160a01b031663f22b012760016102d6600487815481106102bc576102bc610c95565b6000918252602090912001546001600160a01b03166105cd565b6040516001600160e01b031960e085901b16815291151560048301526024820152604401600060405180830381865afa158015610317573d6000803e3d6000fd5b505050506040513d6000823e601f3d908101601f1916820160405261033f9190810190610d6d565b84848151811061035157610351610c95565b60200260200101819052505b5050808061036a90610f1a565b915050610249565b5091505090565b6060610383610929565b60055460008167ffffffffffffffff8111156103a1576103a1610c7f565b6040519080825280602002602001820160405280156103da57816020015b6103c76109d3565b8152602001906001900390816103bf5790505b50905060005b82811015610372576000600582815481106103fd576103fd610c95565b9060005260206000200160009054906101000a90046001600160a01b03169050806001600160a01b031663f22b01276001610444600586815481106102bc576102bc610c95565b6040516001600160e01b031960e085901b16815291151560048301526024820152604401600060405180830381865afa158015610485573d6000803e3d6000fd5b505050506040513d6000823e601f3d908101601f191682016040526104ad9190810190610d6d565b8383815181106104bf576104bf610c95565b60200260200101819052505080806104d690610f1a565b9150506103e0565b6104e6610929565b6104f06000610983565b565b6104fa610929565b6004805460018181019092557f8a35acfbc15ff81a39ae7d344fd709f28e8600b4aa8c65c6b64bfe7fe36bd19b0180546001600160a01b039093166001600160a01b031990931683179055600091825260066020526040909120805460ff19169091179055565b610569610929565b6001811015801561057b575060058111155b61058457600080fd5b6001600160a01b03821660009081526007602052604081205490036105b1576105b1600980546001019055565b6001600160a01b03909116600090815260076020526040902055565b60006105d7610929565b506001600160a01b031660009081526007602052604090205490565b60606105fd610929565b60045460008167ffffffffffffffff81111561061b5761061b610c7f565b60405190808252806020026020018201604052801561065457816020015b6106416109d3565b8152602001906001900390816106395790505b50905060005b828110156103725760006004828154811061067757610677610c95565b9060005260206000200160009054906101000a90046001600160a01b03169050806001600160a01b031663f22b012760016106be600486815481106102bc576102bc610c95565b6040516001600160e01b031960e085901b16815291151560048301526024820152604401600060405180830381865afa1580156106ff573d6000803e3d6000fd5b505050506040513d6000823e601f3d908101601f191682016040526107279190810190610d6d565b83838151811061073957610739610c95565b602002602001018190525050808061075090610f1a565b91505061065a565b610760610929565b60038054600160ff1990911681179091556005805491820181556000527f036b6384b5eca791c62761152d0c79bb0604c104a5fb6f4eb0703f3154bb3db00180546001600160a01b0319166001600160a01b0383161790556107c1816104f2565b50565b60006107ce610929565b600580548060200260200160405190810160405280929190818152602001828054801561082457602002820191906000526020600020905b81546001600160a01b03168152600190910190602001808311610806575b5050604051631ed406b360e11b815273__$a9dcf1f7cdf35cad62cd6a0438ab5f9dad$__94633da80d669450610861935091508690600401610f41565b602060405180830381865af415801561087e573d6000803e3d6000fd5b505050506040513d601f19601f820116820180604052508101906108a29190610f9e565b92915050565b6108b0610929565b6001600160a01b03811661091a5760405162461bcd60e51b815260206004820152602660248201527f4f776e61626c653a206e6577206f776e657220697320746865207a65726f206160448201526564647265737360d01b60648201526084015b60405180910390fd5b6107c181610983565b60009055565b6000546001600160a01b031633146104f05760405162461bcd60e51b815260206004820181905260248201527f4f776e61626c653a2063616c6c6572206973206e6f7420746865206f776e65726044820152606401610911565b600080546001600160a01b038381166001600160a01b0319831681178455604051919092169283917f8be0079c531659141344cd1fd0a4f28419497f9722a3daafe3b4186f6b6457e09190a35050565b604051806101e0016040528060008152602001606081526020016060815260200160608152602001606081526020016000815260200160008152602001600081526020016000815260200160008152602001606081526020016000151581526020016060815260200160608152602001600081525090565b80356001600160a01b03811681146101d357600080fd5b600060208284031215610a7457600080fd5b610a7d82610a4b565b9392505050565b60005b83811015610a9f578181015183820152602001610a87565b83811115610aae576000848401525b50505050565b60008151808452610acc816020860160208601610a84565b601f01601f19169290920160200192915050565b60006020808301818452808551808352604092508286019150828160051b87010184880160005b83811015610c4757603f1989840301855281516101e08151855288820151818a870152610b3682870182610ab4565b9150508782015185820389870152610b4e8282610ab4565b91505060608083015186830382880152610b688382610ab4565b9250505060808083015186830382880152610b838382610ab4565b60a0858101519089015260c0808601519089015260e080860151908901526101008086015190890152610120808601519089015261014080860151898303828b015291945092509050610bd68382610ab4565b9250505061016080830151610bee8288018215159052565b50506101808083015186830382880152610c088382610ab4565b925050506101a08083015186830382880152610c248382610ab4565b6101c0948501519790940196909652505094870194925090860190600101610b07565b509098975050505050505050565b60008060408385031215610c6857600080fd5b610c7183610a4b565b946020939093013593505050565b634e487b7160e01b600052604160045260246000fd5b634e487b7160e01b600052603260045260246000fd5b6040516101e0810167ffffffffffffffff81118282101715610ccf57610ccf610c7f565b60405290565b600082601f830112610ce657600080fd5b815167ffffffffffffffff80821115610d0157610d01610c7f565b604051601f8301601f19908116603f01168101908282118183101715610d2957610d29610c7f565b81604052838152866020858801011115610d4257600080fd5b610d53846020830160208901610a84565b9695505050505050565b805180151581146101d357600080fd5b600060208284031215610d7f57600080fd5b815167ffffffffffffffff80821115610d9757600080fd5b908301906101e08286031215610dac57600080fd5b610db4610cab565b82518152602083015182811115610dca57600080fd5b610dd687828601610cd5565b602083015250604083015182811115610dee57600080fd5b610dfa87828601610cd5565b604083015250606083015182811115610e1257600080fd5b610e1e87828601610cd5565b606083015250608083015182811115610e3657600080fd5b610e4287828601610cd5565b60808301525060a083015160a082015260c083015160c082015260e083015160e08201526101008084015181830152506101208084015181830152506101408084015183811115610e9257600080fd5b610e9e88828701610cd5565b828401525050610160610eb2818501610d5d565b908201526101808381015183811115610eca57600080fd5b610ed688828701610cd5565b8284015250506101a08084015183811115610ef057600080fd5b610efc88828701610cd5565b91830191909152506101c09283015192810192909252509392505050565b600060018201610f3a57634e487b7160e01b600052601160045260246000fd5b5060010190565b604080825283519082018190526000906020906060840190828701845b82811015610f835781516001600160a01b031684529284019290840190600101610f5e565b5050506001600160a01b039490941692019190915250919050565b600060208284031215610fb057600080fd5b610a7d82610d5d56fea2646970667358221220296830e1f5adcefdcae267654383b1fb1901dcfd3d2f3bfa22c9fa1123b68ff564736f6c634300080f0033a264697066735822122027167b670b0d119d3fd2d8f5ed6b1833b9fd40af872826b963144678c17776a864736f6c634300080f0033",
    "sourcePath": "c:/Users/User/Documents/GitHub/Backend/SmartContracts/contracts/Users/UserManager.sol",
    "compiler": {
        "name": "solc",
        "version": "0.8.15+commit.e14f2714"
    },
    "functionHashes": {
        "createNewApp(address)": "e3f75d1e",
        "createUser(string)": "507ffba5",
        "getPublishedApps()": "253a219f",
        "getPurchasedAppsInfo()": "8f89b46a",
        "getRatedApps()": "139334af",
        "getUserRating(address)": "460168c3",
        "markAppAsPurchased(address)": "91de1ba3",
        "markAppAsRated(address,uint256)": "bd0d9fac",
        "owner()": "8da5cb5b",
        "renounceOwnership()": "715018a6",
        "transferOwnership(address)": "f2fde38b",
        "userCreatedApp(address)": "738ead46",
        "userExists()": "eae6d4da",
        "userOwnsApp(address)": "0acb6bbe"
    },
    "gasEstimates": {
        "creation": {
            "codeDepositCost": "2539200",
            "executionCost": "28581",
            "totalCost": "2567781"
        },
        "external": {
            "createNewApp(address)": "infinite",
            "createUser(string)": "infinite",
            "getPublishedApps()": "infinite",
            "getPurchasedAppsInfo()": "infinite",
            "getRatedApps()": "infinite",
            "getUserRating(address)": "infinite",
            "markAppAsPurchased(address)": "infinite",
            "markAppAsRated(address,uint256)": "infinite",
            "owner()": "2324",
            "renounceOwnership()": "infinite",
            "transferOwnership(address)": "28421",
            "userCreatedApp(address)": "infinite",
            "userExists()": "infinite",
            "userOwnsApp(address)": "infinite"
        },
        "internal": {
            "getUser(address)": "infinite"
        }
    }
}