{
    "contractName": "UserManager",
    "abi": [
        {
            "inputs": [],
            "stateMutability": "nonpayable",
            "type": "constructor"
        },
        {
            "anonymous": false,
            "inputs": [
                {
                    "indexed": true,
                    "internalType": "address",
                    "name": "previousOwner",
                    "type": "address"
                },
                {
                    "indexed": true,
                    "internalType": "address",
                    "name": "newOwner",
                    "type": "address"
                }
            ],
            "name": "OwnershipTransferred",
            "type": "event"
        },
        {
            "inputs": [
                {
                    "internalType": "address",
                    "name": "_userAddress",
                    "type": "address"
                },
                {
                    "internalType": "uint256",
                    "name": "_appId",
                    "type": "uint256"
                }
            ],
            "name": "createNewApp",
            "outputs": [
                {
                    "internalType": "bool",
                    "name": "_success",
                    "type": "bool"
                }
            ],
            "stateMutability": "nonpayable",
            "type": "function"
        },
        {
            "inputs": [
                {
                    "internalType": "address",
                    "name": "_userAddress",
                    "type": "address"
                }
            ],
            "name": "createUser",
            "outputs": [
                {
                    "internalType": "string",
                    "name": "",
                    "type": "string"
                }
            ],
            "stateMutability": "nonpayable",
            "type": "function"
        },
        {
            "inputs": [
                {
                    "internalType": "address",
                    "name": "_userAddress",
                    "type": "address"
                }
            ],
            "name": "getPublishedApps",
            "outputs": [
                {
                    "components": [
                        {
                            "internalType": "uint256",
                            "name": "id",
                            "type": "uint256"
                        },
                        {
                            "internalType": "string",
                            "name": "name",
                            "type": "string"
                        },
                        {
                            "internalType": "string",
                            "name": "description",
                            "type": "string"
                        },
                        {
                            "internalType": "string",
                            "name": "imgUrl",
                            "type": "string"
                        },
                        {
                            "internalType": "string",
                            "name": "company",
                            "type": "string"
                        },
                        {
                            "internalType": "uint256",
                            "name": "price",
                            "type": "uint256"
                        },
                        {
                            "internalType": "uint256",
                            "name": "numRatings",
                            "type": "uint256"
                        },
                        {
                            "internalType": "uint256",
                            "name": "ratingInt",
                            "type": "uint256"
                        },
                        {
                            "internalType": "uint256",
                            "name": "ratingModulu",
                            "type": "uint256"
                        },
                        {
                            "internalType": "uint256",
                            "name": "userRating",
                            "type": "uint256"
                        },
                        {
                            "internalType": "string",
                            "name": "fileSha256",
                            "type": "string"
                        },
                        {
                            "internalType": "bool",
                            "name": "owned",
                            "type": "bool"
                        },
                        {
                            "internalType": "string",
                            "name": "magnetLink",
                            "type": "string"
                        },
                        {
                            "internalType": "string",
                            "name": "category",
                            "type": "string"
                        },
                        {
                            "internalType": "uint256",
                            "name": "publishTime",
                            "type": "uint256"
                        }
                    ],
                    "internalType": "struct AppInfoLibrary.AppInfo[]",
                    "name": "",
                    "type": "tuple[]"
                }
            ],
            "stateMutability": "view",
            "type": "function"
        },
        {
            "inputs": [
                {
                    "internalType": "address",
                    "name": "_userAddress",
                    "type": "address"
                }
            ],
            "name": "getPurchasedApps",
            "outputs": [
                {
                    "components": [
                        {
                            "internalType": "uint256",
                            "name": "id",
                            "type": "uint256"
                        },
                        {
                            "internalType": "string",
                            "name": "name",
                            "type": "string"
                        },
                        {
                            "internalType": "string",
                            "name": "description",
                            "type": "string"
                        },
                        {
                            "internalType": "string",
                            "name": "imgUrl",
                            "type": "string"
                        },
                        {
                            "internalType": "string",
                            "name": "company",
                            "type": "string"
                        },
                        {
                            "internalType": "uint256",
                            "name": "price",
                            "type": "uint256"
                        },
                        {
                            "internalType": "uint256",
                            "name": "numRatings",
                            "type": "uint256"
                        },
                        {
                            "internalType": "uint256",
                            "name": "ratingInt",
                            "type": "uint256"
                        },
                        {
                            "internalType": "uint256",
                            "name": "ratingModulu",
                            "type": "uint256"
                        },
                        {
                            "internalType": "uint256",
                            "name": "userRating",
                            "type": "uint256"
                        },
                        {
                            "internalType": "string",
                            "name": "fileSha256",
                            "type": "string"
                        },
                        {
                            "internalType": "bool",
                            "name": "owned",
                            "type": "bool"
                        },
                        {
                            "internalType": "string",
                            "name": "magnetLink",
                            "type": "string"
                        },
                        {
                            "internalType": "string",
                            "name": "category",
                            "type": "string"
                        },
                        {
                            "internalType": "uint256",
                            "name": "publishTime",
                            "type": "uint256"
                        }
                    ],
                    "internalType": "struct AppInfoLibrary.AppInfo[]",
                    "name": "",
                    "type": "tuple[]"
                }
            ],
            "stateMutability": "view",
            "type": "function"
        },
        {
            "inputs": [
                {
                    "internalType": "address",
                    "name": "_userAddress",
                    "type": "address"
                }
            ],
            "name": "getRatedApps",
            "outputs": [
                {
                    "components": [
                        {
                            "internalType": "uint256",
                            "name": "id",
                            "type": "uint256"
                        },
                        {
                            "internalType": "string",
                            "name": "name",
                            "type": "string"
                        },
                        {
                            "internalType": "string",
                            "name": "description",
                            "type": "string"
                        },
                        {
                            "internalType": "string",
                            "name": "imgUrl",
                            "type": "string"
                        },
                        {
                            "internalType": "string",
                            "name": "company",
                            "type": "string"
                        },
                        {
                            "internalType": "uint256",
                            "name": "price",
                            "type": "uint256"
                        },
                        {
                            "internalType": "uint256",
                            "name": "numRatings",
                            "type": "uint256"
                        },
                        {
                            "internalType": "uint256",
                            "name": "ratingInt",
                            "type": "uint256"
                        },
                        {
                            "internalType": "uint256",
                            "name": "ratingModulu",
                            "type": "uint256"
                        },
                        {
                            "internalType": "uint256",
                            "name": "userRating",
                            "type": "uint256"
                        },
                        {
                            "internalType": "string",
                            "name": "fileSha256",
                            "type": "string"
                        },
                        {
                            "internalType": "bool",
                            "name": "owned",
                            "type": "bool"
                        },
                        {
                            "internalType": "string",
                            "name": "magnetLink",
                            "type": "string"
                        },
                        {
                            "internalType": "string",
                            "name": "category",
                            "type": "string"
                        },
                        {
                            "internalType": "uint256",
                            "name": "publishTime",
                            "type": "uint256"
                        }
                    ],
                    "internalType": "struct AppInfoLibrary.AppInfo[]",
                    "name": "",
                    "type": "tuple[]"
                }
            ],
            "stateMutability": "view",
            "type": "function"
        },
        {
            "inputs": [
                {
                    "internalType": "address",
                    "name": "_userAddress",
                    "type": "address"
                },
                {
                    "internalType": "uint256",
                    "name": "_appId",
                    "type": "uint256"
                }
            ],
            "name": "getUserRating",
            "outputs": [
                {
                    "internalType": "uint256",
                    "name": "_rating",
                    "type": "uint256"
                }
            ],
            "stateMutability": "view",
            "type": "function"
        },
        {
            "inputs": [
                {
                    "internalType": "address",
                    "name": "_userAddress",
                    "type": "address"
                },
                {
                    "internalType": "uint256",
                    "name": "_appId",
                    "type": "uint256"
                }
            ],
            "name": "markAppAsPurchased",
            "outputs": [
                {
                    "internalType": "bool",
                    "name": "_success",
                    "type": "bool"
                }
            ],
            "stateMutability": "nonpayable",
            "type": "function"
        },
        {
            "inputs": [],
            "name": "owner",
            "outputs": [
                {
                    "internalType": "address",
                    "name": "",
                    "type": "address"
                }
            ],
            "stateMutability": "view",
            "type": "function"
        },
        {
            "inputs": [],
            "name": "renounceOwnership",
            "outputs": [],
            "stateMutability": "nonpayable",
            "type": "function"
        },
        {
            "inputs": [
                {
                    "internalType": "address",
                    "name": "newOwner",
                    "type": "address"
                }
            ],
            "name": "transferOwnership",
            "outputs": [],
            "stateMutability": "nonpayable",
            "type": "function"
        }
    ],
    "bytecode": "608060405234801561001057600080fd5b5061001a3361001f565b61006f565b600080546001600160a01b038381166001600160a01b0319831681178455604051919092169283917f8be0079c531659141344cd1fd0a4f28419497f9722a3daafe3b4186f6b6457e09190a35050565b61050d8061007e6000396000f3fe608060405234801561001057600080fd5b506004361061009e5760003560e01c8063879a6ef211610066578063879a6ef2146100a35780638da5cb5b14610115578063cdd8761814610130578063d523e833146100ce578063f2fde38b1461014b57600080fd5b806316d84075146100a35780631b5aca54146100ce57806362fccb2f146100ce578063715018a6146100ef57806383148371146100f9575b600080fd5b6100b96100b13660046102b6565b600092915050565b60405190151581526020015b60405180910390f35b6100e26100dc3660046102e0565b50606090565b6040516100c5919061034f565b6100f761015e565b005b6101076100b13660046102b6565b6040519081526020016100c5565b6000546040516001600160a01b0390911681526020016100c5565b61013e6100dc3660046102e0565b6040516100c591906104c4565b6100f76101593660046102e0565b610172565b6101666101f0565b610170600061024a565b565b61017a6101f0565b6001600160a01b0381166101e45760405162461bcd60e51b815260206004820152602660248201527f4f776e61626c653a206e6577206f776e657220697320746865207a65726f206160448201526564647265737360d01b60648201526084015b60405180910390fd5b6101ed8161024a565b50565b6000546001600160a01b031633146101705760405162461bcd60e51b815260206004820181905260248201527f4f776e61626c653a2063616c6c6572206973206e6f7420746865206f776e657260448201526064016101db565b600080546001600160a01b038381166001600160a01b0319831681178455604051919092169283917f8be0079c531659141344cd1fd0a4f28419497f9722a3daafe3b4186f6b6457e09190a35050565b80356001600160a01b03811681146102b157600080fd5b919050565b600080604083850312156102c957600080fd5b6102d28361029a565b946020939093013593505050565b6000602082840312156102f257600080fd5b6102fb8261029a565b9392505050565b6000815180845260005b818110156103285760208185018101518683018201520161030c565b8181111561033a576000602083870101525b50601f01601f19169290920160200192915050565b60006020808301818452808551808352604092508286019150828160051b87010184880160005b838110156104b657603f1989840301855281516101e08151855288820151818a8701526103a582870182610302565b91505087820151858203898701526103bd8282610302565b915050606080830151868303828801526103d78382610302565b92505050608080830151868303828801526103f28382610302565b60a0858101519089015260c0808601519089015260e080860151908901526101008086015190890152610120808601519089015261014080860151898303828b0152919450925090506104458382610302565b925050506101608083015161045d8288018215159052565b505061018080830151868303828801526104778382610302565b925050506101a080830151868303828801526104938382610302565b6101c0948501519790940196909652505094870194925090860190600101610376565b509098975050505050505050565b6020815260006102fb602083018461030256fea26469706673582212205308ade0eafd149a43ce61fa00521137106b83087dad23aac0bb878a8fd5414d64736f6c634300080f0033",
    "sourcePath": "c:/Users/User/Documents/GitHub/Backend/SmartContracts/contracts/Users/UserManager.sol",
    "compiler": {
        "name": "solc",
        "version": "0.8.15+commit.e14f2714"
    },
    "functionHashes": {
        "createNewApp(address,uint256)": "879a6ef2",
        "createUser(address)": "cdd87618",
        "getPublishedApps(address)": "62fccb2f",
        "getPurchasedApps(address)": "1b5aca54",
        "getRatedApps(address)": "d523e833",
        "getUserRating(address,uint256)": "83148371",
        "markAppAsPurchased(address,uint256)": "16d84075",
        "owner()": "8da5cb5b",
        "renounceOwnership()": "715018a6",
        "transferOwnership(address)": "f2fde38b"
    },
    "gasEstimates": {
        "creation": {
            "codeDepositCost": "258600",
            "executionCost": "26141",
            "totalCost": "284741"
        },
        "external": {
            "createNewApp(address,uint256)": "376",
            "createUser(address)": "infinite",
            "getPublishedApps(address)": "infinite",
            "getPurchasedApps(address)": "infinite",
            "getRatedApps(address)": "infinite",
            "getUserRating(address,uint256)": "470",
            "markAppAsPurchased(address,uint256)": "377",
            "owner()": "2323",
            "renounceOwnership()": "infinite",
            "transferOwnership(address)": "28421"
        },
        "internal": {
            "getUser(address)": "infinite"
        }
    }
}