{
    "contractName": "UserManager",
    "abi": [
        {
            "inputs": [],
            "stateMutability": "nonpayable",
            "type": "constructor"
        },
        {
            "anonymous": false,
            "inputs": [
                {
                    "indexed": true,
                    "internalType": "address",
                    "name": "previousOwner",
                    "type": "address"
                },
                {
                    "indexed": true,
                    "internalType": "address",
                    "name": "newOwner",
                    "type": "address"
                }
            ],
            "name": "OwnershipTransferred",
            "type": "event"
        },
        {
            "inputs": [
                {
                    "internalType": "address",
                    "name": "_userAddress",
                    "type": "address"
                },
                {
                    "internalType": "address",
                    "name": "_appAddress",
                    "type": "address"
                }
            ],
            "name": "createNewApp",
            "outputs": [
                {
                    "internalType": "bool",
                    "name": "_success",
                    "type": "bool"
                }
            ],
            "stateMutability": "nonpayable",
            "type": "function"
        },
        {
            "inputs": [
                {
                    "internalType": "address payable",
                    "name": "_userAddress",
                    "type": "address"
                }
            ],
            "name": "createUser",
            "outputs": [
                {
                    "internalType": "string",
                    "name": "",
                    "type": "string"
                }
            ],
            "stateMutability": "nonpayable",
            "type": "function"
        },
        {
            "inputs": [
                {
                    "internalType": "address",
                    "name": "_userAddress",
                    "type": "address"
                }
            ],
            "name": "getPublishedApps",
            "outputs": [
                {
                    "components": [
                        {
                            "internalType": "uint256",
                            "name": "id",
                            "type": "uint256"
                        },
                        {
                            "internalType": "string",
                            "name": "name",
                            "type": "string"
                        },
                        {
                            "internalType": "string",
                            "name": "description",
                            "type": "string"
                        },
                        {
                            "internalType": "string",
                            "name": "imgUrl",
                            "type": "string"
                        },
                        {
                            "internalType": "string",
                            "name": "company",
                            "type": "string"
                        },
                        {
                            "internalType": "uint256",
                            "name": "price",
                            "type": "uint256"
                        },
                        {
                            "internalType": "uint256",
                            "name": "numRatings",
                            "type": "uint256"
                        },
                        {
                            "internalType": "uint256",
                            "name": "ratingInt",
                            "type": "uint256"
                        },
                        {
                            "internalType": "uint256",
                            "name": "ratingModulu",
                            "type": "uint256"
                        },
                        {
                            "internalType": "uint256",
                            "name": "userRating",
                            "type": "uint256"
                        },
                        {
                            "internalType": "string",
                            "name": "fileSha256",
                            "type": "string"
                        },
                        {
                            "internalType": "bool",
                            "name": "owned",
                            "type": "bool"
                        },
                        {
                            "internalType": "string",
                            "name": "magnetLink",
                            "type": "string"
                        },
                        {
                            "internalType": "string",
                            "name": "category",
                            "type": "string"
                        },
                        {
                            "internalType": "uint256",
                            "name": "publishTime",
                            "type": "uint256"
                        }
                    ],
                    "internalType": "struct AppInfoLibrary.AppInfo[]",
                    "name": "",
                    "type": "tuple[]"
                }
            ],
            "stateMutability": "view",
            "type": "function"
        },
        {
            "inputs": [],
            "name": "getPurchasedAppsInfo",
            "outputs": [
                {
                    "components": [
                        {
                            "internalType": "uint256",
                            "name": "id",
                            "type": "uint256"
                        },
                        {
                            "internalType": "string",
                            "name": "name",
                            "type": "string"
                        },
                        {
                            "internalType": "string",
                            "name": "description",
                            "type": "string"
                        },
                        {
                            "internalType": "string",
                            "name": "imgUrl",
                            "type": "string"
                        },
                        {
                            "internalType": "string",
                            "name": "company",
                            "type": "string"
                        },
                        {
                            "internalType": "uint256",
                            "name": "price",
                            "type": "uint256"
                        },
                        {
                            "internalType": "uint256",
                            "name": "numRatings",
                            "type": "uint256"
                        },
                        {
                            "internalType": "uint256",
                            "name": "ratingInt",
                            "type": "uint256"
                        },
                        {
                            "internalType": "uint256",
                            "name": "ratingModulu",
                            "type": "uint256"
                        },
                        {
                            "internalType": "uint256",
                            "name": "userRating",
                            "type": "uint256"
                        },
                        {
                            "internalType": "string",
                            "name": "fileSha256",
                            "type": "string"
                        },
                        {
                            "internalType": "bool",
                            "name": "owned",
                            "type": "bool"
                        },
                        {
                            "internalType": "string",
                            "name": "magnetLink",
                            "type": "string"
                        },
                        {
                            "internalType": "string",
                            "name": "category",
                            "type": "string"
                        },
                        {
                            "internalType": "uint256",
                            "name": "publishTime",
                            "type": "uint256"
                        }
                    ],
                    "internalType": "struct AppInfoLibrary.AppInfo[]",
                    "name": "",
                    "type": "tuple[]"
                }
            ],
            "stateMutability": "view",
            "type": "function"
        },
        {
            "inputs": [
                {
                    "internalType": "address",
                    "name": "_userAddress",
                    "type": "address"
                }
            ],
            "name": "getRatedApps",
            "outputs": [
                {
                    "components": [
                        {
                            "internalType": "uint256",
                            "name": "id",
                            "type": "uint256"
                        },
                        {
                            "internalType": "string",
                            "name": "name",
                            "type": "string"
                        },
                        {
                            "internalType": "string",
                            "name": "description",
                            "type": "string"
                        },
                        {
                            "internalType": "string",
                            "name": "imgUrl",
                            "type": "string"
                        },
                        {
                            "internalType": "string",
                            "name": "company",
                            "type": "string"
                        },
                        {
                            "internalType": "uint256",
                            "name": "price",
                            "type": "uint256"
                        },
                        {
                            "internalType": "uint256",
                            "name": "numRatings",
                            "type": "uint256"
                        },
                        {
                            "internalType": "uint256",
                            "name": "ratingInt",
                            "type": "uint256"
                        },
                        {
                            "internalType": "uint256",
                            "name": "ratingModulu",
                            "type": "uint256"
                        },
                        {
                            "internalType": "uint256",
                            "name": "userRating",
                            "type": "uint256"
                        },
                        {
                            "internalType": "string",
                            "name": "fileSha256",
                            "type": "string"
                        },
                        {
                            "internalType": "bool",
                            "name": "owned",
                            "type": "bool"
                        },
                        {
                            "internalType": "string",
                            "name": "magnetLink",
                            "type": "string"
                        },
                        {
                            "internalType": "string",
                            "name": "category",
                            "type": "string"
                        },
                        {
                            "internalType": "uint256",
                            "name": "publishTime",
                            "type": "uint256"
                        }
                    ],
                    "internalType": "struct AppInfoLibrary.AppInfo[]",
                    "name": "",
                    "type": "tuple[]"
                }
            ],
            "stateMutability": "view",
            "type": "function"
        },
        {
            "inputs": [
                {
                    "internalType": "address",
                    "name": "_userAddress",
                    "type": "address"
                },
                {
                    "internalType": "address",
                    "name": "_appAddrress",
                    "type": "address"
                }
            ],
            "name": "getUserRating",
            "outputs": [
                {
                    "internalType": "uint256",
                    "name": "_rating",
                    "type": "uint256"
                }
            ],
            "stateMutability": "view",
            "type": "function"
        },
        {
            "inputs": [
                {
                    "internalType": "address",
                    "name": "_userAddress",
                    "type": "address"
                },
                {
                    "internalType": "address",
                    "name": "_appAddress",
                    "type": "address"
                }
            ],
            "name": "markAppAsPurchased",
            "outputs": [
                {
                    "internalType": "bool",
                    "name": "_success",
                    "type": "bool"
                }
            ],
            "stateMutability": "nonpayable",
            "type": "function"
        },
        {
            "inputs": [],
            "name": "owner",
            "outputs": [
                {
                    "internalType": "address",
                    "name": "",
                    "type": "address"
                }
            ],
            "stateMutability": "view",
            "type": "function"
        },
        {
            "inputs": [],
            "name": "renounceOwnership",
            "outputs": [],
            "stateMutability": "nonpayable",
            "type": "function"
        },
        {
            "inputs": [
                {
                    "internalType": "address",
                    "name": "newOwner",
                    "type": "address"
                }
            ],
            "name": "transferOwnership",
            "outputs": [],
            "stateMutability": "nonpayable",
            "type": "function"
        }
    ],
    "bytecode": "608060405234801561001057600080fd5b5061001a3361001f565b61006f565b600080546001600160a01b038381166001600160a01b0319831681178455604051919092169283917f8be0079c531659141344cd1fd0a4f28419497f9722a3daafe3b4186f6b6457e09190a35050565b610bca8061007e6000396000f3fe608060405234801561001057600080fd5b506004361061009e5760003560e01c8063ac53ca5411610066578063ac53ca5414610116578063c3498c4a14610116578063cdd876181461013c578063d523e8331461015d578063f2fde38b1461017057600080fd5b8063488ede8b146100a357806362fccb2f146100c9578063715018a6146100e95780638da5cb5b146100f35780638f89b46a1461010e575b600080fd5b6100b66100b13660046105f0565b610183565b6040519081526020015b60405180910390f35b6100dc6100d7366004610629565b610207565b6040516100c091906106a2565b6100f161039c565b005b6000546040516001600160a01b0390911681526020016100c0565b6100dc6103b0565b61012c6101243660046105f0565b600092915050565b60405190151581526020016100c0565b61015061014a366004610629565b50606090565b6040516100c09190610817565b6100dc61016b366004610629565b610436565b6100f161017e366004610629565b6104b8565b6001600160a01b03828116600090815260016020526040808220549051639f9f7f8560e01b8152848416600482015291921690639f9f7f8590602401602060405180830381865afa1580156101dc573d6000803e3d6000fd5b505050506040513d601f19601f82011682018060405250810190610200919061082a565b9392505050565b6040516386bd3f9160e01b81526001600160a01b0382166004820152606090829073__$0fa02d6a67b7b0d0756a7e3fbaa86f03ef$__906386bd3f9190602401602060405180830381865af4158015610264573d6000803e3d6000fd5b505050506040513d601f19601f820116820180604052508101906102889190610858565b156102c95760405162461bcd60e51b815260206004820152600c60248201526b24b73b30b634b21030b2323960a11b60448201526064015b60405180910390fd5b6001600160a01b03818116600090815260016020526040908190205490516386bd3f9160e01b81529116600482015273__$0fa02d6a67b7b0d0756a7e3fbaa86f03ef$__906386bd3f9190602401602060405180830381865af4158015610334573d6000803e3d6000fd5b505050506040513d601f19601f820116820180604052508101906103589190610858565b156103965760405162461bcd60e51b815260206004820152600e60248201526d155cd95c881b9bdd08199bdd5b9960921b60448201526064016102c0565b50919050565b6103a4610531565b6103ae600061058b565b565b3360009081526001602052604080822054815163b8c3773f60e01b81529151606093926001600160a01b039092169163b8c3773f91600480830192869291908290030181865afa158015610408573d6000803e3d6000fd5b505050506040513d6000823e601f3d908101601f191682016040526104309190810190610950565b92915050565b6001600160a01b0380821660009081526001602052604080822054815163139334af60e01b81529151606094919091169163139334af91600480830192869291908290030181865afa158015610490573d6000803e3d6000fd5b505050506040513d6000823e601f3d908101601f191682016040526102009190810190610950565b6104c0610531565b6001600160a01b0381166105255760405162461bcd60e51b815260206004820152602660248201527f4f776e61626c653a206e6577206f776e657220697320746865207a65726f206160448201526564647265737360d01b60648201526084016102c0565b61052e8161058b565b50565b6000546001600160a01b031633146103ae5760405162461bcd60e51b815260206004820181905260248201527f4f776e61626c653a2063616c6c6572206973206e6f7420746865206f776e657260448201526064016102c0565b600080546001600160a01b038381166001600160a01b0319831681178455604051919092169283917f8be0079c531659141344cd1fd0a4f28419497f9722a3daafe3b4186f6b6457e09190a35050565b6001600160a01b038116811461052e57600080fd5b6000806040838503121561060357600080fd5b823561060e816105db565b9150602083013561061e816105db565b809150509250929050565b60006020828403121561063b57600080fd5b8135610200816105db565b60005b83811015610661578181015183820152602001610649565b83811115610670576000848401525b50505050565b6000815180845261068e816020860160208601610646565b601f01601f19169290920160200192915050565b60006020808301818452808551808352604092508286019150828160051b87010184880160005b8381101561080957603f1989840301855281516101e08151855288820151818a8701526106f882870182610676565b91505087820151858203898701526107108282610676565b9150506060808301518683038288015261072a8382610676565b92505050608080830151868303828801526107458382610676565b60a0858101519089015260c0808601519089015260e080860151908901526101008086015190890152610120808601519089015261014080860151898303828b0152919450925090506107988382610676565b92505050610160808301516107b08288018215159052565b505061018080830151868303828801526107ca8382610676565b925050506101a080830151868303828801526107e68382610676565b6101c09485015197909401969096525050948701949250908601906001016106c9565b509098975050505050505050565b6020815260006102006020830184610676565b60006020828403121561083c57600080fd5b5051919050565b8051801515811461085357600080fd5b919050565b60006020828403121561086a57600080fd5b61020082610843565b634e487b7160e01b600052604160045260246000fd5b6040516101e0810167ffffffffffffffff811182821017156108ad576108ad610873565b60405290565b604051601f8201601f1916810167ffffffffffffffff811182821017156108dc576108dc610873565b604052919050565b600082601f8301126108f557600080fd5b815167ffffffffffffffff81111561090f5761090f610873565b610922601f8201601f19166020016108b3565b81815284602083860101111561093757600080fd5b610948826020830160208701610646565b949350505050565b6000602080838503121561096357600080fd5b825167ffffffffffffffff8082111561097b57600080fd5b818501915085601f83011261098f57600080fd5b8151818111156109a1576109a1610873565b8060051b6109b08582016108b3565b91825283810185019185810190898411156109ca57600080fd5b86860192505b83831015610b87578251858111156109e757600080fd5b86016101e0818c03601f190112156109fe57600080fd5b610a06610889565b888201518152604082015187811115610a1e57600080fd5b610a2c8d8b838601016108e4565b8a83015250606082015187811115610a4357600080fd5b610a518d8b838601016108e4565b604083015250608082015187811115610a6957600080fd5b610a778d8b838601016108e4565b60608301525060a082015187811115610a8f57600080fd5b610a9d8d8b838601016108e4565b60808301525060c082015160a082015260e082015160c08201526101008083015160e0830152610120808401518284015261014091508184015181840152506101608084015189811115610af057600080fd5b610afe8f8d838801016108e4565b83850152506101809150610b13828501610843565b908301526101a08381015189811115610b2b57600080fd5b610b398f8d838801016108e4565b83850152506101c091508184015189811115610b5457600080fd5b610b628f8d838801016108e4565b8285015250506101e083015181830152508084525050868201915086830192506109d0565b999850505050505050505056fea26469706673582212205279e6b381bb1ec0936978fe842fbd21bb0ec2df57acc4d109190b7067cf39a364736f6c634300080f0033",
    "sourcePath": "c:/Users/User/Documents/GitHub/Backend/SmartContracts/contracts/Users/UserManager.sol",
    "compiler": {
        "name": "solc",
        "version": "0.8.15+commit.e14f2714"
    },
    "functionHashes": {
        "createNewApp(address,address)": "ac53ca54",
        "createUser(address)": "cdd87618",
        "getPublishedApps(address)": "62fccb2f",
        "getPurchasedAppsInfo()": "8f89b46a",
        "getRatedApps(address)": "d523e833",
        "getUserRating(address,address)": "488ede8b",
        "markAppAsPurchased(address,address)": "c3498c4a",
        "owner()": "8da5cb5b",
        "renounceOwnership()": "715018a6",
        "transferOwnership(address)": "f2fde38b"
    },
    "gasEstimates": {
        "creation": {
            "codeDepositCost": "603600",
            "executionCost": "26479",
            "totalCost": "630079"
        },
        "external": {
            "createNewApp(address,address)": "infinite",
            "createUser(address)": "infinite",
            "getPublishedApps(address)": "infinite",
            "getPurchasedAppsInfo()": "infinite",
            "getRatedApps(address)": "infinite",
            "getUserRating(address,address)": "infinite",
            "markAppAsPurchased(address,address)": "infinite",
            "owner()": "2368",
            "renounceOwnership()": "infinite",
            "transferOwnership(address)": "infinite"
        },
        "internal": {
            "getUser(address)": "infinite"
        }
    }
}