{
    "contractName": "App",
    "abi": [
        {
            "inputs": [
                {
                    "internalType": "uint256",
                    "name": "_id",
                    "type": "uint256"
                },
                {
                    "internalType": "address",
                    "name": "_creator",
                    "type": "address"
                },
                {
                    "internalType": "string",
                    "name": "_name",
                    "type": "string"
                },
                {
                    "internalType": "string",
                    "name": "_description",
                    "type": "string"
                },
                {
                    "internalType": "string",
                    "name": "_magnetLink",
                    "type": "string"
                },
                {
                    "internalType": "string",
                    "name": "_imgUrl",
                    "type": "string"
                },
                {
                    "internalType": "string",
                    "name": "_company",
                    "type": "string"
                },
                {
                    "internalType": "uint256",
                    "name": "_price",
                    "type": "uint256"
                },
                {
                    "internalType": "string",
                    "name": "_fileSha256",
                    "type": "string"
                }
            ],
            "stateMutability": "nonpayable",
            "type": "constructor"
        },
        {
            "anonymous": false,
            "inputs": [
                {
                    "indexed": true,
                    "internalType": "address",
                    "name": "previousOwner",
                    "type": "address"
                },
                {
                    "indexed": true,
                    "internalType": "address",
                    "name": "newOwner",
                    "type": "address"
                }
            ],
            "name": "OwnershipTransferred",
            "type": "event"
        },
        {
            "inputs": [],
            "name": "company",
            "outputs": [
                {
                    "internalType": "string",
                    "name": "",
                    "type": "string"
                }
            ],
            "stateMutability": "view",
            "type": "function"
        },
        {
            "inputs": [],
            "name": "creator",
            "outputs": [
                {
                    "internalType": "address payable",
                    "name": "",
                    "type": "address"
                }
            ],
            "stateMutability": "view",
            "type": "function"
        },
        {
            "inputs": [],
            "name": "description",
            "outputs": [
                {
                    "internalType": "string",
                    "name": "",
                    "type": "string"
                }
            ],
            "stateMutability": "view",
            "type": "function"
        },
        {
            "inputs": [
                {
                    "internalType": "bool",
                    "name": "owned",
                    "type": "bool"
                }
            ],
            "name": "getAppInfo",
            "outputs": [
                {
                    "components": [
                        {
                            "internalType": "uint256",
                            "name": "id",
                            "type": "uint256"
                        },
                        {
                            "internalType": "string",
                            "name": "name",
                            "type": "string"
                        },
                        {
                            "internalType": "string",
                            "name": "description",
                            "type": "string"
                        },
                        {
                            "internalType": "string",
                            "name": "imgUrl",
                            "type": "string"
                        },
                        {
                            "internalType": "string",
                            "name": "company",
                            "type": "string"
                        },
                        {
                            "internalType": "uint256",
                            "name": "price",
                            "type": "uint256"
                        },
                        {
                            "internalType": "uint256",
                            "name": "num_ratings",
                            "type": "uint256"
                        },
                        {
                            "internalType": "uint256",
                            "name": "rating",
                            "type": "uint256"
                        },
                        {
                            "internalType": "uint256",
                            "name": "rating_modulu",
                            "type": "uint256"
                        },
                        {
                            "internalType": "string",
                            "name": "fileSha256",
                            "type": "string"
                        },
                        {
                            "internalType": "bool",
                            "name": "owned",
                            "type": "bool"
                        },
                        {
                            "internalType": "string",
                            "name": "magnetLink",
                            "type": "string"
                        },
                        {
                            "internalType": "uint256",
                            "name": "publishTime",
                            "type": "uint256"
                        }
                    ],
                    "internalType": "struct AppInfoLibrary.AppInfo",
                    "name": "",
                    "type": "tuple"
                }
            ],
            "stateMutability": "view",
            "type": "function"
        },
        {
            "inputs": [],
            "name": "getAppRating",
            "outputs": [
                {
                    "internalType": "uint256",
                    "name": "",
                    "type": "uint256"
                },
                {
                    "internalType": "uint256",
                    "name": "",
                    "type": "uint256"
                }
            ],
            "stateMutability": "view",
            "type": "function"
        },
        {
            "inputs": [],
            "name": "getCurrentVersion",
            "outputs": [
                {
                    "internalType": "string",
                    "name": "",
                    "type": "string"
                }
            ],
            "stateMutability": "view",
            "type": "function"
        },
        {
            "inputs": [],
            "name": "id",
            "outputs": [
                {
                    "internalType": "uint256",
                    "name": "",
                    "type": "uint256"
                }
            ],
            "stateMutability": "view",
            "type": "function"
        },
        {
            "inputs": [],
            "name": "imgUrl",
            "outputs": [
                {
                    "internalType": "string",
                    "name": "",
                    "type": "string"
                }
            ],
            "stateMutability": "view",
            "type": "function"
        },
        {
            "inputs": [],
            "name": "magnetLink",
            "outputs": [
                {
                    "internalType": "string",
                    "name": "",
                    "type": "string"
                }
            ],
            "stateMutability": "view",
            "type": "function"
        },
        {
            "inputs": [],
            "name": "name",
            "outputs": [
                {
                    "internalType": "string",
                    "name": "",
                    "type": "string"
                }
            ],
            "stateMutability": "view",
            "type": "function"
        },
        {
            "inputs": [],
            "name": "num_purchases",
            "outputs": [
                {
                    "internalType": "uint256",
                    "name": "_value",
                    "type": "uint256"
                }
            ],
            "stateMutability": "view",
            "type": "function"
        },
        {
            "inputs": [],
            "name": "num_ratings",
            "outputs": [
                {
                    "internalType": "uint256",
                    "name": "_value",
                    "type": "uint256"
                }
            ],
            "stateMutability": "view",
            "type": "function"
        },
        {
            "inputs": [],
            "name": "owner",
            "outputs": [
                {
                    "internalType": "address",
                    "name": "",
                    "type": "address"
                }
            ],
            "stateMutability": "view",
            "type": "function"
        },
        {
            "inputs": [],
            "name": "price",
            "outputs": [
                {
                    "internalType": "uint256",
                    "name": "",
                    "type": "uint256"
                }
            ],
            "stateMutability": "view",
            "type": "function"
        },
        {
            "inputs": [
                {
                    "internalType": "uint256",
                    "name": "old_rating",
                    "type": "uint256"
                },
                {
                    "internalType": "uint256",
                    "name": "old_rating_modulu",
                    "type": "uint256"
                },
                {
                    "internalType": "uint256",
                    "name": "new_rating",
                    "type": "uint256"
                }
            ],
            "name": "rateApp",
            "outputs": [
                {
                    "internalType": "uint256",
                    "name": "",
                    "type": "uint256"
                },
                {
                    "internalType": "uint256",
                    "name": "",
                    "type": "uint256"
                }
            ],
            "stateMutability": "nonpayable",
            "type": "function"
        },
        {
            "inputs": [],
            "name": "renounceOwnership",
            "outputs": [],
            "stateMutability": "nonpayable",
            "type": "function"
        },
        {
            "inputs": [
                {
                    "internalType": "address",
                    "name": "newOwner",
                    "type": "address"
                }
            ],
            "name": "transferOwnership",
            "outputs": [],
            "stateMutability": "nonpayable",
            "type": "function"
        },
        {
            "inputs": [
                {
                    "internalType": "string",
                    "name": "new_company",
                    "type": "string"
                }
            ],
            "name": "updateAppCompany",
            "outputs": [],
            "stateMutability": "nonpayable",
            "type": "function"
        },
        {
            "inputs": [
                {
                    "internalType": "string",
                    "name": "new_description",
                    "type": "string"
                }
            ],
            "name": "updateAppDescription",
            "outputs": [],
            "stateMutability": "nonpayable",
            "type": "function"
        },
        {
            "inputs": [
                {
                    "internalType": "string",
                    "name": "new_filesha",
                    "type": "string"
                }
            ],
            "name": "updateAppFileSha",
            "outputs": [],
            "stateMutability": "nonpayable",
            "type": "function"
        },
        {
            "inputs": [
                {
                    "internalType": "string",
                    "name": "new_imgUrl",
                    "type": "string"
                }
            ],
            "name": "updateAppImgUrl",
            "outputs": [],
            "stateMutability": "nonpayable",
            "type": "function"
        },
        {
            "inputs": [
                {
                    "internalType": "string",
                    "name": "new_magnetLink",
                    "type": "string"
                }
            ],
            "name": "updateAppMagnetLink",
            "outputs": [],
            "stateMutability": "nonpayable",
            "type": "function"
        },
        {
            "inputs": [
                {
                    "internalType": "string",
                    "name": "new_name",
                    "type": "string"
                }
            ],
            "name": "updateAppName",
            "outputs": [],
            "stateMutability": "nonpayable",
            "type": "function"
        },
        {
            "inputs": [
                {
                    "internalType": "uint256",
                    "name": "new_price",
                    "type": "uint256"
                }
            ],
            "name": "updateAppPrice",
            "outputs": [],
            "stateMutability": "nonpayable",
            "type": "function"
        },
        {
            "inputs": [
                {
                    "internalType": "string",
                    "name": "new_sha",
                    "type": "string"
                }
            ],
            "name": "updateAppVersion",
            "outputs": [],
            "stateMutability": "nonpayable",
            "type": "function"
        }
    ],
    "bytecode": "60806040523480156200001157600080fd5b50604051620028ff380380620028ff833981016040819052620000349162000723565b6200003f3362000530565b886200004f565b60405180910390fd5b8260008111620000a25760405162461bcd60e51b815260206004820152601c60248201527f5072696365206d7573742062652067726561746572207468616e203000000000604482015260640162000046565b60405163139a0e4560e11b8152899073__$2ef198253e5209528d081d789aa7dfe759$__906327341c8a90620000dd90849060040162000853565b602060405180830381865af4158015620000fb573d6000803e3d6000fd5b505050506040513d601f19601f8201168201806040525081019062000121919062000888565b156200015f5760405162461bcd60e51b815260206004820152601860248201526000805160206200284a833981519152604482015260640162000046565b60405163139a0e4560e11b8152889073__$2ef198253e5209528d081d789aa7dfe759$__906327341c8a906200019a90849060040162000853565b602060405180830381865af4158015620001b8573d6000803e3d6000fd5b505050506040513d601f19601f82011682018060405250810190620001de919062000888565b156200021c5760405162461bcd60e51b815260206004820152601860248201526000805160206200284a833981519152604482015260640162000046565b60405163139a0e4560e11b8152859073__$2ef198253e5209528d081d789aa7dfe759$__906327341c8a906200025790849060040162000853565b602060405180830381865af415801562000275573d6000803e3d6000fd5b505050506040513d601f19601f820116820180604052508101906200029b919062000888565b15620002d95760405162461bcd60e51b815260206004820152601860248201526000805160206200284a833981519152604482015260640162000046565b600280546001600160a01b0319166001600160a01b038f1617905560018e90558b516200030e9060039060208f019062000586565b508a51620003249060049060208e019062000586565b5089516200033a9060069060208d019062000586565b508851620003509060079060208c019062000586565b5060405163139a0e4560e11b815273__$2ef198253e5209528d081d789aa7dfe759$__906327341c8a906200038a908c9060040162000853565b602060405180830381865af4158015620003a8573d6000803e3d6000fd5b505050506040513d601f19601f82011682018060405250810190620003ce919062000888565b1562000406576040518060c00160405280609581526020016200286a609591398051620004049160079160209091019062000586565b505b87516200041b9060089060208b019062000586565b5060006009819055600a819055600b88905560058054600181018255915286516200046e917f036b6384b5eca791c62761152d0c79bb0604c104a5fb6f4eb0703f3154bb3db00190602089019062000586565b5062000486600d6200058060201b6200162b1760201c565b6200049d600e6200058060201b6200162b1760201c565b42600c556002546001546040516001600160a01b0390921691620004c490600390620008ef565b6040519081900390207f4ebeeb573ab9892d0c9b8e2b088b43617667b3479dca07176f29ef21ba848bd1620005016000546001600160a01b031690565b6040516001600160a01b03909116815260200160405180910390a4505050505050505050505050505062000992565b600080546001600160a01b038381166001600160a01b0319831681178455604051919092169283917f8be0079c531659141344cd1fd0a4f28419497f9722a3daafe3b4186f6b6457e09190a35050565b60009055565b8280546200059490620008b3565b90600052602060002090601f016020900481019282620005b8576000855562000603565b82601f10620005d357805160ff191683800117855562000603565b8280016001018555821562000603579182015b8281111562000603578251825591602001919060010190620005e6565b506200061192915062000615565b5090565b5b8082111562000611576000815560010162000616565b80516001600160a01b03811681146200064457600080fd5b919050565b634e487b7160e01b600052604160045260246000fd5b60005b838110156200067c57818101518382015260200162000662565b838111156200068c576000848401525b50505050565b600082601f830112620006a457600080fd5b81516001600160401b0380821115620006c157620006c162000649565b604051601f8301601f19908116603f01168101908282118183101715620006ec57620006ec62000649565b816040528381528660208588010111156200070657600080fd5b620007198460208301602089016200065f565b9695505050505050565b60008060008060008060008060006101208a8c0312156200074357600080fd5b895198506200075560208b016200062c565b60408b01519098506001600160401b03808211156200077357600080fd5b620007818d838e0162000692565b985060608c01519150808211156200079857600080fd5b620007a68d838e0162000692565b975060808c0151915080821115620007bd57600080fd5b620007cb8d838e0162000692565b965060a08c0151915080821115620007e257600080fd5b620007f08d838e0162000692565b955060c08c01519150808211156200080757600080fd5b620008158d838e0162000692565b945060e08c015193506101008c01519150808211156200083457600080fd5b50620008438c828d0162000692565b9150509295985092959850929598565b6020815260008251806020840152620008748160408501602087016200065f565b601f01601f19169190910160400192915050565b6000602082840312156200089b57600080fd5b81518015158114620008ac57600080fd5b9392505050565b600181811c90821680620008c857607f821691505b602082108103620008e957634e487b7160e01b600052602260045260246000fd5b50919050565b600080835481600182811c9150808316806200090c57607f831692505b602080841082036200092c57634e487b7160e01b86526022600452602486fd5b818015620009435760018114620009555762000984565b60ff1986168952848901965062000984565b60008a81526020902060005b868110156200097c5781548b82015290850190830162000961565b505084890196505b509498975050505050505050565b611ea880620009a26000396000f3fe608060405234801561001057600080fd5b50600436106101735760003560e01c80638da5cb5b116100de578063d68387c711610097578063e9cd36d311610071578063e9cd36d3146102ee578063f2fde38b14610301578063fabec44a14610314578063fafb1b011461031c57600080fd5b8063d68387c7146102b3578063da0c57e9146102bb578063e73fd79a146102ce57600080fd5b80638da5cb5b1461026b57806399614c101461027c578063a035b1fe1461028f578063a512bd7914610298578063af640d0f146102a0578063d23fe7c7146102a957600080fd5b8063554ca36c11610130578063554ca36c146102105780636904c94d14610223578063715018a61461022b5780637284e4161461023357806373b8fc801461023b57806381ecdf451461025857600080fd5b806302d05d3f1461017857806306fdde03146101a8578063128a8f76146101bd57806334b1a7cc146101d257806342cbef95146101ea5780634ad3d57d146101fd575b600080fd5b60025461018b906001600160a01b031681565b6040516001600160a01b0390911681526020015b60405180910390f35b6101b061032f565b60405161019f91906118ef565b6101d06101cb366004611909565b6103bd565b005b600e546101dc9081565b60405190815260200161019f565b6101d06101f8366004611909565b61053e565b6101d061020b366004611909565b6106b7565b6101d061021e366004611909565b610828565b6101b06109f4565b6101d0610a01565b6101b0610a37565b610243610a44565b6040805192835260208301919091520161019f565b6101d0610266366004611909565b610a66565b6000546001600160a01b031661018b565b61024361028a36600461197b565b610bd5565b6101dc600b5481565b6101b0610cf2565b6101dc60015481565b600d546101dc9081565b6101b0610cff565b6101d06102c93660046119bd565b610d0c565b6102e16102dc366004611a7c565b610ea9565b60405161019f9190611a99565b6101d06102fc366004611bb5565b61125f565b6101d061030f366004611bce565b61135e565b6101b06113f9565b6101d061032a366004611909565b6114b5565b6003805461033c90611bf7565b80601f016020809104026020016040519081016040528092919081815260200182805461036890611bf7565b80156103b55780601f1061038a576101008083540402835291602001916103b5565b820191906000526020600020905b81548152906001019060200180831161039857829003601f168201915b505050505081565b6000546001600160a01b031633146103f05760405162461bcd60e51b81526004016103e790611c31565b60405180910390fd5b81818080601f0160208091040260200160405190810160405280939291908181526020018383808284376000920191909152505060405163139a0e4560e11b815273__$2ef198253e5209528d081d789aa7dfe759$__92506327341c8a915061045d9084906004016118ef565b602060405180830381865af415801561047a573d6000803e3d6000fd5b505050506040513d601f19601f8201168201806040525081019061049e9190611c66565b156104bb5760405162461bcd60e51b81526004016103e790611c83565b82826040516104cb929190611cba565b604051809103902060086040516104e29190611cca565b6040519081900381206e7570646174656420636f6d70616e7960881b825290600f0160405190819003812033825290600080516020611e538339815191529060200160405180910390a46105386008848461178a565b50505050565b6000546001600160a01b031633146105685760405162461bcd60e51b81526004016103e790611c31565b81818080601f0160208091040260200160405190810160405280939291908181526020018383808284376000920191909152505060405163139a0e4560e11b815273__$2ef198253e5209528d081d789aa7dfe759$__92506327341c8a91506105d59084906004016118ef565b602060405180830381865af41580156105f2573d6000803e3d6000fd5b505050506040513d601f19601f820116820180604052508101906106169190611c66565b156106335760405162461bcd60e51b81526004016103e790611c83565b8282604051610643929190611cba565b6040518091039020600660405161065a9190611cca565b6040519081900381207575706461746564206e65775f6d61676e65744c696e6b60501b82529060160160405190819003812033825290600080516020611e538339815191529060200160405180910390a46105386006848461178a565b6000546001600160a01b031633146106e15760405162461bcd60e51b81526004016103e790611c31565b81818080601f0160208091040260200160405190810160405280939291908181526020018383808284376000920191909152505060405163139a0e4560e11b815273__$2ef198253e5209528d081d789aa7dfe759$__92506327341c8a915061074e9084906004016118ef565b602060405180830381865af415801561076b573d6000803e3d6000fd5b505050506040513d601f19601f8201168201806040525081019061078f9190611c66565b156107ac5760405162461bcd60e51b81526004016103e790611c83565b82826040516107bc929190611cba565b604051809103902060076040516107d39190611cca565b6040519081900381206d1d5c19185d1959081a5b59d55c9b60921b825290600e0160405190819003812033825290600080516020611e538339815191529060200160405180910390a46105386007848461178a565b6000546001600160a01b031633146108525760405162461bcd60e51b81526004016103e790611c31565b81818080601f0160208091040260200160405190810160405280939291908181526020018383808284376000920191909152505060405163139a0e4560e11b815273__$2ef198253e5209528d081d789aa7dfe759$__92506327341c8a91506108bf9084906004016118ef565b602060405180830381865af41580156108dc573d6000803e3d6000fd5b505050506040513d601f19601f820116820180604052508101906109009190611c66565b1561091d5760405162461bcd60e51b81526004016103e790611c83565b828260405161092d929190611cba565b6040519081900390206005805461094690600190611d7b565b8154811061095657610956611d92565b9060005260206000200160405161096d9190611cca565b6040519081900381206e757064617465642066696c6573686160881b825290600f0160405190819003812033825290600080516020611e538339815191529060200160405180910390a460058054600181018255600091909152610538907f036b6384b5eca791c62761152d0c79bb0604c104a5fb6f4eb0703f3154bb3db001848461178a565b6008805461033c90611bf7565b6000546001600160a01b03163314610a2b5760405162461bcd60e51b81526004016103e790611c31565b610a356000611631565b565b6004805461033c90611bf7565b600080600060095411610a5a5750600091829150565b5050600954600a549091565b6000546001600160a01b03163314610a905760405162461bcd60e51b81526004016103e790611c31565b81818080601f0160208091040260200160405190810160405280939291908181526020018383808284376000920191909152505060405163139a0e4560e11b815273__$2ef198253e5209528d081d789aa7dfe759$__92506327341c8a9150610afd9084906004016118ef565b602060405180830381865af4158015610b1a573d6000803e3d6000fd5b505050506040513d601f19601f82011682018060405250810190610b3e9190611c66565b15610b5b5760405162461bcd60e51b81526004016103e790611c83565b8282604051610b6b929190611cba565b60405180910390206003604051610b829190611cca565b6040519081900381206b75706461746564206e616d6560a01b825290600c0160405190819003812033825290600080516020611e538339815191529060200160405180910390a46105386003848461178a565b6000805481906001600160a01b03163314610c025760405162461bcd60e51b81526004016103e790611c31565b846005811115610c1157600080fd5b836005811115610c2057600080fd5b6001851015610c665760405162461bcd60e51b815260206004820152601260248201527143616e27742067697665203020737461727360701b60448201526064016103e7565b6000600a54610c74600d5490565b600954610c819190611da8565b610c8b9190611dc7565b905087600003610ca357610ca3600d80546001019055565b610cad8887611d7b565b610cb79082611dc7565b9050610cc2600d5490565b610ccc9082611df5565b600955600d54610cdc9082611e09565b600a819055600954999098509650505050505050565b6006805461033c90611bf7565b6007805461033c90611bf7565b6000546001600160a01b03163314610d365760405162461bcd60e51b81526004016103e790611c31565b60405163139a0e4560e11b8152819073__$2ef198253e5209528d081d789aa7dfe759$__906327341c8a90610d6f9084906004016118ef565b602060405180830381865af4158015610d8c573d6000803e3d6000fd5b505050506040513d601f19601f82011682018060405250810190610db09190611c66565b15610dcd5760405162461bcd60e51b81526004016103e790611c83565b81604051610ddb9190611e1d565b60405190819003902060058054610df490600190611d7b565b81548110610e0457610e04611d92565b90600052602060002001604051610e1b9190611cca565b6040519081900381206a757064617465642073686160a81b825290600b0160405190819003812033825290600080516020611e538339815191529060200160405180910390a4600580546001810182556000919091528251610ea4917f036b6384b5eca791c62761152d0c79bb0604c104a5fb6f4eb0703f3154bb3db00190602085019061180e565b505050565b610f16604051806101a001604052806000815260200160608152602001606081526020016060815260200160608152602001600081526020016000815260200160008152602001600081526020016060815260200160001515815260200160608152602001600081525090565b6000604051806101a00160405280600154815260200160038054610f3990611bf7565b80601f0160208091040260200160405190810160405280929190818152602001828054610f6590611bf7565b8015610fb25780601f10610f8757610100808354040283529160200191610fb2565b820191906000526020600020905b815481529060010190602001808311610f9557829003601f168201915b5050505050815260200160048054610fc990611bf7565b80601f0160208091040260200160405190810160405280929190818152602001828054610ff590611bf7565b80156110425780601f1061101757610100808354040283529160200191611042565b820191906000526020600020905b81548152906001019060200180831161102557829003601f168201915b505050505081526020016007805461105990611bf7565b80601f016020809104026020016040519081016040528092919081815260200182805461108590611bf7565b80156110d25780601f106110a7576101008083540402835291602001916110d2565b820191906000526020600020905b8154815290600101906020018083116110b557829003601f168201915b50505050508152602001600880546110e990611bf7565b80601f016020809104026020016040519081016040528092919081815260200182805461111590611bf7565b80156111625780601f1061113757610100808354040283529160200191611162565b820191906000526020600020905b81548152906001019060200180831161114557829003601f168201915b50505050508152602001600b54815260200161117d600d5490565b81526020016009548152602001600a54815260200161119a6113f9565b81526020018415158152602001846111c1576040518060200160405280600081525061124d565b600680546111ce90611bf7565b80601f01602080910402602001604051908101604052809291908181526020018280546111fa90611bf7565b80156112475780601f1061121c57610100808354040283529160200191611247565b820191906000526020600020905b81548152906001019060200180831161122a57829003601f168201915b50505050505b8152600c546020909101529392505050565b6000546001600160a01b031633146112895760405162461bcd60e51b81526004016103e790611c31565b80600081116112da5760405162461bcd60e51b815260206004820152601c60248201527f5072696365206d7573742062652067726561746572207468616e20300000000060448201526064016103e7565b6112e382611681565b6040516112f09190611e1d565b6040518091039020611303600b54611681565b6040516113109190611e1d565b6040519081900381206c7570646174656420707269636560981b825290600d0160405190819003812033825290600080516020611e538339815191529060200160405180910390a450600b55565b6000546001600160a01b031633146113885760405162461bcd60e51b81526004016103e790611c31565b6001600160a01b0381166113ed5760405162461bcd60e51b815260206004820152602660248201527f4f776e61626c653a206e6577206f776e657220697320746865207a65726f206160448201526564647265737360d01b60648201526084016103e7565b6113f681611631565b50565b600580546060919061140d90600190611d7b565b8154811061141d5761141d611d92565b90600052602060002001805461143290611bf7565b80601f016020809104026020016040519081016040528092919081815260200182805461145e90611bf7565b80156114ab5780601f10611480576101008083540402835291602001916114ab565b820191906000526020600020905b81548152906001019060200180831161148e57829003601f168201915b5050505050905090565b6000546001600160a01b031633146114df5760405162461bcd60e51b81526004016103e790611c31565b81818080601f0160208091040260200160405190810160405280939291908181526020018383808284376000920191909152505060405163139a0e4560e11b815273__$2ef198253e5209528d081d789aa7dfe759$__92506327341c8a915061154c9084906004016118ef565b602060405180830381865af4158015611569573d6000803e3d6000fd5b505050506040513d601f19601f8201168201806040525081019061158d9190611c66565b156115aa5760405162461bcd60e51b81526004016103e790611c83565b82826040516115ba929190611cba565b604051809103902060046040516115d19190611cca565b604051908190038120723ab83230ba32b2103232b9b1b934b83a34b7b760691b82529060130160405190819003812033825290600080516020611e538339815191529060200160405180910390a46105386004848461178a565b60009055565b600080546001600160a01b038381166001600160a01b0319831681178455604051919092169283917f8be0079c531659141344cd1fd0a4f28419497f9722a3daafe3b4186f6b6457e09190a35050565b6060816000036116a85750506040805180820190915260018152600360fc1b602082015290565b8160005b81156116d257806116bc81611e39565b91506116cb9050600a83611df5565b91506116ac565b60008167ffffffffffffffff8111156116ed576116ed6119a7565b6040519080825280601f01601f191660200182016040528015611717576020820181803683370190505b5090505b84156117825761172c600183611d7b565b9150611739600a86611e09565b611744906030611dc7565b60f81b81838151811061175957611759611d92565b60200101906001600160f81b031916908160001a90535061177b600a86611df5565b945061171b565b949350505050565b82805461179690611bf7565b90600052602060002090601f0160209004810192826117b857600085556117fe565b82601f106117d15782800160ff198235161785556117fe565b828001600101855582156117fe579182015b828111156117fe5782358255916020019190600101906117e3565b5061180a929150611882565b5090565b82805461181a90611bf7565b90600052602060002090601f01602090048101928261183c57600085556117fe565b82601f1061185557805160ff19168380011785556117fe565b828001600101855582156117fe579182015b828111156117fe578251825591602001919060010190611867565b5b8082111561180a5760008155600101611883565b60005b838110156118b257818101518382015260200161189a565b838111156105385750506000910152565b600081518084526118db816020860160208601611897565b601f01601f19169290920160200192915050565b60208152600061190260208301846118c3565b9392505050565b6000806020838503121561191c57600080fd5b823567ffffffffffffffff8082111561193457600080fd5b818501915085601f83011261194857600080fd5b81358181111561195757600080fd5b86602082850101111561196957600080fd5b60209290920196919550909350505050565b60008060006060848603121561199057600080fd5b505081359360208301359350604090920135919050565b634e487b7160e01b600052604160045260246000fd5b6000602082840312156119cf57600080fd5b813567ffffffffffffffff808211156119e757600080fd5b818401915084601f8301126119fb57600080fd5b813581811115611a0d57611a0d6119a7565b604051601f8201601f19908116603f01168101908382118183101715611a3557611a356119a7565b81604052828152876020848701011115611a4e57600080fd5b826020860160208301376000928101602001929092525095945050505050565b80151581146113f657600080fd5b600060208284031215611a8e57600080fd5b813561190281611a6e565b6020815281516020820152600060208301516101a0806040850152611ac26101c08501836118c3565b91506040850151601f1980868503016060870152611ae084836118c3565b93506060870151915080868503016080870152611afd84836118c3565b935060808701519150808685030160a0870152611b1a84836118c3565b935060a087015160c087015260c087015160e087015260e08701519150610100828188015280880151925050610120828188015280880151925050610140818786030181880152611b6b85846118c3565b945080880151925050610160611b848188018415159052565b80880151925050610180818786030181880152611ba185846118c3565b970151959092019490945250929392505050565b600060208284031215611bc757600080fd5b5035919050565b600060208284031215611be057600080fd5b81356001600160a01b038116811461190257600080fd5b600181811c90821680611c0b57607f821691505b602082108103611c2b57634e487b7160e01b600052602260045260246000fd5b50919050565b6020808252818101527f4f776e61626c653a2063616c6c6572206973206e6f7420746865206f776e6572604082015260600190565b600060208284031215611c7857600080fd5b815161190281611a6e565b60208082526018908201527f537472696e67206d757374206e6f7420626520656d7074790000000000000000604082015260600190565b8183823760009101908152919050565b600080835481600182811c915080831680611ce657607f831692505b60208084108203611d0557634e487b7160e01b86526022600452602486fd5b818015611d195760018114611d2a57611d57565b60ff19861689528489019650611d57565b60008a81526020902060005b86811015611d4f5781548b820152908501908301611d36565b505084890196505b509498975050505050505050565b634e487b7160e01b600052601160045260246000fd5b600082821015611d8d57611d8d611d65565b500390565b634e487b7160e01b600052603260045260246000fd5b6000816000190483118215151615611dc257611dc2611d65565b500290565b60008219821115611dda57611dda611d65565b500190565b634e487b7160e01b600052601260045260246000fd5b600082611e0457611e04611ddf565b500490565b600082611e1857611e18611ddf565b500690565b60008251611e2f818460208701611897565b9190910192915050565b600060018201611e4b57611e4b611d65565b506001019056fe1f7eeccc90c93b6a65fbe0be0414ed24073262ce0f988484e24f275529193e6fa2646970667358221220a52d14f501907403d2df3cac5c0b93812ee5546de814001f727fc4d4c9b5ecca64736f6c634300080e0033537472696e67206d757374206e6f7420626520656d707479000000000000000068747470733a2f2f65787465726e616c2d636f6e74656e742e6475636b6475636b676f2e636f6d2f69752f3f753d6874747073253341253246253246692e70696e696d672e636f6d2532466f726967696e616c7325324632302532463065253246663825324632303065663832623331383266663735626630623264653534393665363163662e6a706726663d31266e6f66623d31",
    "sourcePath": "c:/Users/User/Documents/GitHub/SmartContracts/contracts/app.sol",
    "compiler": {
        "name": "solc",
        "version": "0.8.14+commit.80d49f37"
    },
    "functionHashes": {
        "company()": "6904c94d",
        "creator()": "02d05d3f",
        "description()": "7284e416",
        "getAppInfo(bool)": "e73fd79a",
        "getAppRating()": "73b8fc80",
        "getCurrentVersion()": "fabec44a",
        "id()": "af640d0f",
        "imgUrl()": "d68387c7",
        "magnetLink()": "a512bd79",
        "name()": "06fdde03",
        "num_purchases()": "34b1a7cc",
        "num_ratings()": "d23fe7c7",
        "owner()": "8da5cb5b",
        "price()": "a035b1fe",
        "rateApp(uint256,uint256,uint256)": "99614c10",
        "renounceOwnership()": "715018a6",
        "transferOwnership(address)": "f2fde38b",
        "updateAppCompany(string)": "128a8f76",
        "updateAppDescription(string)": "fafb1b01",
        "updateAppFileSha(string)": "554ca36c",
        "updateAppImgUrl(string)": "4ad3d57d",
        "updateAppMagnetLink(string)": "42cbef95",
        "updateAppName(string)": "81ecdf45",
        "updateAppPrice(uint256)": "e9cd36d3",
        "updateAppVersion(string)": "da0c57e9"
    },
    "gasEstimates": {
        "creation": {
            "codeDepositCost": "1569600",
            "executionCost": "infinite",
            "totalCost": "infinite"
        },
        "external": {
            "company()": "infinite",
            "creator()": "2350",
            "description()": "infinite",
            "getAppInfo(bool)": "infinite",
            "getAppRating()": "6681",
            "getCurrentVersion()": "infinite",
            "id()": "2406",
            "imgUrl()": "infinite",
            "magnetLink()": "infinite",
            "name()": "infinite",
            "num_purchases()": "2388",
            "num_ratings()": "2431",
            "owner()": "2343",
            "price()": "2362",
            "rateApp(uint256,uint256,uint256)": "infinite",
            "renounceOwnership()": "28181",
            "transferOwnership(address)": "28340",
            "updateAppCompany(string)": "infinite",
            "updateAppDescription(string)": "infinite",
            "updateAppFileSha(string)": "infinite",
            "updateAppImgUrl(string)": "infinite",
            "updateAppMagnetLink(string)": "infinite",
            "updateAppName(string)": "infinite",
            "updateAppPrice(uint256)": "infinite",
            "updateAppVersion(string)": "infinite"
        }
    }
}