{
    "contractName": "dAppstore",
    "abi": [
        {
            "inputs": [],
            "stateMutability": "nonpayable",
            "type": "constructor"
        },
        {
            "inputs": [
                {
                    "internalType": "string",
                    "name": "_name",
                    "type": "string"
                },
                {
                    "internalType": "string",
                    "name": "_description",
                    "type": "string"
                },
                {
                    "internalType": "string",
                    "name": "_magnetLink",
                    "type": "string"
                },
                {
                    "internalType": "string",
                    "name": "_imgUrl",
                    "type": "string"
                },
                {
                    "internalType": "string",
                    "name": "_company",
                    "type": "string"
                },
                {
                    "internalType": "uint256",
                    "name": "_price",
                    "type": "uint256"
                },
                {
                    "internalType": "string",
                    "name": "_category",
                    "type": "string"
                },
                {
                    "internalType": "string",
                    "name": "_fileSha256",
                    "type": "string"
                }
            ],
            "name": "createNewApp",
            "outputs": [],
            "stateMutability": "nonpayable",
            "type": "function"
        },
        {
            "inputs": [
                {
                    "internalType": "uint256",
                    "name": "start",
                    "type": "uint256"
                },
                {
                    "internalType": "uint256",
                    "name": "len",
                    "type": "uint256"
                }
            ],
            "name": "getAppBatch",
            "outputs": [
                {
                    "components": [
                        {
                            "internalType": "uint256",
                            "name": "id",
                            "type": "uint256"
                        },
                        {
                            "internalType": "string",
                            "name": "name",
                            "type": "string"
                        },
                        {
                            "internalType": "string",
                            "name": "description",
                            "type": "string"
                        },
                        {
                            "internalType": "string",
                            "name": "imgUrl",
                            "type": "string"
                        },
                        {
                            "internalType": "string",
                            "name": "company",
                            "type": "string"
                        },
                        {
                            "internalType": "uint256",
                            "name": "price",
                            "type": "uint256"
                        },
                        {
                            "internalType": "uint256",
                            "name": "numRatings",
                            "type": "uint256"
                        },
                        {
                            "internalType": "uint256",
                            "name": "ratingInt",
                            "type": "uint256"
                        },
                        {
                            "internalType": "uint256",
                            "name": "ratingModulu",
                            "type": "uint256"
                        },
                        {
                            "internalType": "uint256",
                            "name": "userRating",
                            "type": "uint256"
                        },
                        {
                            "internalType": "string",
                            "name": "fileSha256",
                            "type": "string"
                        },
                        {
                            "internalType": "bool",
                            "name": "owned",
                            "type": "bool"
                        },
                        {
                            "internalType": "string",
                            "name": "magnetLink",
                            "type": "string"
                        },
                        {
                            "internalType": "string",
                            "name": "category",
                            "type": "string"
                        },
                        {
                            "internalType": "uint256",
                            "name": "publishTime",
                            "type": "uint256"
                        }
                    ],
                    "internalType": "struct AppInfoLibrary.AppInfo[]",
                    "name": "",
                    "type": "tuple[]"
                }
            ],
            "stateMutability": "view",
            "type": "function"
        },
        {
            "inputs": [],
            "name": "getAppCount",
            "outputs": [
                {
                    "internalType": "uint256",
                    "name": "",
                    "type": "uint256"
                }
            ],
            "stateMutability": "view",
            "type": "function"
        },
        {
            "inputs": [],
            "name": "getPublishedAppsInfo",
            "outputs": [
                {
                    "components": [
                        {
                            "internalType": "uint256",
                            "name": "id",
                            "type": "uint256"
                        },
                        {
                            "internalType": "string",
                            "name": "name",
                            "type": "string"
                        },
                        {
                            "internalType": "string",
                            "name": "description",
                            "type": "string"
                        },
                        {
                            "internalType": "string",
                            "name": "imgUrl",
                            "type": "string"
                        },
                        {
                            "internalType": "string",
                            "name": "company",
                            "type": "string"
                        },
                        {
                            "internalType": "uint256",
                            "name": "price",
                            "type": "uint256"
                        },
                        {
                            "internalType": "uint256",
                            "name": "numRatings",
                            "type": "uint256"
                        },
                        {
                            "internalType": "uint256",
                            "name": "ratingInt",
                            "type": "uint256"
                        },
                        {
                            "internalType": "uint256",
                            "name": "ratingModulu",
                            "type": "uint256"
                        },
                        {
                            "internalType": "uint256",
                            "name": "userRating",
                            "type": "uint256"
                        },
                        {
                            "internalType": "string",
                            "name": "fileSha256",
                            "type": "string"
                        },
                        {
                            "internalType": "bool",
                            "name": "owned",
                            "type": "bool"
                        },
                        {
                            "internalType": "string",
                            "name": "magnetLink",
                            "type": "string"
                        },
                        {
                            "internalType": "string",
                            "name": "category",
                            "type": "string"
                        },
                        {
                            "internalType": "uint256",
                            "name": "publishTime",
                            "type": "uint256"
                        }
                    ],
                    "internalType": "struct AppInfoLibrary.AppInfo[]",
                    "name": "",
                    "type": "tuple[]"
                }
            ],
            "stateMutability": "view",
            "type": "function"
        },
        {
            "inputs": [],
            "name": "getPurchasedAppsInfo",
            "outputs": [
                {
                    "components": [
                        {
                            "internalType": "uint256",
                            "name": "id",
                            "type": "uint256"
                        },
                        {
                            "internalType": "string",
                            "name": "name",
                            "type": "string"
                        },
                        {
                            "internalType": "string",
                            "name": "description",
                            "type": "string"
                        },
                        {
                            "internalType": "string",
                            "name": "imgUrl",
                            "type": "string"
                        },
                        {
                            "internalType": "string",
                            "name": "company",
                            "type": "string"
                        },
                        {
                            "internalType": "uint256",
                            "name": "price",
                            "type": "uint256"
                        },
                        {
                            "internalType": "uint256",
                            "name": "numRatings",
                            "type": "uint256"
                        },
                        {
                            "internalType": "uint256",
                            "name": "ratingInt",
                            "type": "uint256"
                        },
                        {
                            "internalType": "uint256",
                            "name": "ratingModulu",
                            "type": "uint256"
                        },
                        {
                            "internalType": "uint256",
                            "name": "userRating",
                            "type": "uint256"
                        },
                        {
                            "internalType": "string",
                            "name": "fileSha256",
                            "type": "string"
                        },
                        {
                            "internalType": "bool",
                            "name": "owned",
                            "type": "bool"
                        },
                        {
                            "internalType": "string",
                            "name": "magnetLink",
                            "type": "string"
                        },
                        {
                            "internalType": "string",
                            "name": "category",
                            "type": "string"
                        },
                        {
                            "internalType": "uint256",
                            "name": "publishTime",
                            "type": "uint256"
                        }
                    ],
                    "internalType": "struct AppInfoLibrary.AppInfo[]",
                    "name": "",
                    "type": "tuple[]"
                }
            ],
            "stateMutability": "view",
            "type": "function"
        },
        {
            "inputs": [],
            "name": "getRatedAppsInfo",
            "outputs": [
                {
                    "components": [
                        {
                            "internalType": "uint256",
                            "name": "id",
                            "type": "uint256"
                        },
                        {
                            "internalType": "string",
                            "name": "name",
                            "type": "string"
                        },
                        {
                            "internalType": "string",
                            "name": "description",
                            "type": "string"
                        },
                        {
                            "internalType": "string",
                            "name": "imgUrl",
                            "type": "string"
                        },
                        {
                            "internalType": "string",
                            "name": "company",
                            "type": "string"
                        },
                        {
                            "internalType": "uint256",
                            "name": "price",
                            "type": "uint256"
                        },
                        {
                            "internalType": "uint256",
                            "name": "numRatings",
                            "type": "uint256"
                        },
                        {
                            "internalType": "uint256",
                            "name": "ratingInt",
                            "type": "uint256"
                        },
                        {
                            "internalType": "uint256",
                            "name": "ratingModulu",
                            "type": "uint256"
                        },
                        {
                            "internalType": "uint256",
                            "name": "userRating",
                            "type": "uint256"
                        },
                        {
                            "internalType": "string",
                            "name": "fileSha256",
                            "type": "string"
                        },
                        {
                            "internalType": "bool",
                            "name": "owned",
                            "type": "bool"
                        },
                        {
                            "internalType": "string",
                            "name": "magnetLink",
                            "type": "string"
                        },
                        {
                            "internalType": "string",
                            "name": "category",
                            "type": "string"
                        },
                        {
                            "internalType": "uint256",
                            "name": "publishTime",
                            "type": "uint256"
                        }
                    ],
                    "internalType": "struct AppInfoLibrary.AppInfo[]",
                    "name": "",
                    "type": "tuple[]"
                }
            ],
            "stateMutability": "view",
            "type": "function"
        },
        {
            "inputs": [
                {
                    "internalType": "uint256",
                    "name": "_app_id",
                    "type": "uint256"
                }
            ],
            "name": "getUserRatingForApp",
            "outputs": [
                {
                    "internalType": "uint256",
                    "name": "",
                    "type": "uint256"
                }
            ],
            "stateMutability": "view",
            "type": "function"
        },
        {
            "inputs": [
                {
                    "internalType": "uint256",
                    "name": "app_id",
                    "type": "uint256"
                }
            ],
            "name": "purchaseApp",
            "outputs": [],
            "stateMutability": "payable",
            "type": "function"
        },
        {
            "inputs": [
                {
                    "internalType": "uint256",
                    "name": "_app_id",
                    "type": "uint256"
                },
                {
                    "internalType": "uint256",
                    "name": "new_rating",
                    "type": "uint256"
                }
            ],
            "name": "rateApp",
            "outputs": [],
            "stateMutability": "nonpayable",
            "type": "function"
        },
        {
            "inputs": [
                {
                    "internalType": "uint256",
                    "name": "app_id",
                    "type": "uint256"
                },
                {
                    "internalType": "string",
                    "name": "_name",
                    "type": "string"
                },
                {
                    "internalType": "string",
                    "name": "_description",
                    "type": "string"
                },
                {
                    "internalType": "string",
                    "name": "_magnetLink",
                    "type": "string"
                },
                {
                    "internalType": "string",
                    "name": "_imgUrl",
                    "type": "string"
                },
                {
                    "internalType": "uint256",
                    "name": "_price",
                    "type": "uint256"
                },
                {
                    "internalType": "string",
                    "name": "_fileSha256",
                    "type": "string"
                }
            ],
            "name": "updateApp",
            "outputs": [],
            "stateMutability": "nonpayable",
            "type": "function"
        }
    ],
    "bytecode": "608060405234801561001057600080fd5b50610025600461002a60201b6117bc1760201c565b610030565b60009055565b615d2c80620000406000396000f3fe6080604052600436106200009d5760003560e01c806380109fea116200006057806380109fea14620001765780638f89b46a146200018e5780639a9d793c14620001a6578063e0b8f2ae14620001cb578063e9beca8e14620001e357600080fd5b80632b07ac4c14620000a257806333e067a614620000c957806370b8fd9214620000e05780637d6a24ab14620001055780637fc442db1462000142575b600080fd5b348015620000af57600080fd5b50620000c7620000c136600462001b05565b620001fb565b005b620000c7620000da36600462001c40565b620003d2565b348015620000ed57600080fd5b50620000c7620000ff36600462001c5a565b620007e3565b3480156200011257600080fd5b506200012a6200012436600462001c5a565b620009b9565b60405162000139919062001cde565b60405180910390f35b3480156200014f57600080fd5b50620001676200016136600462001c40565b62000dab565b60405190815260200162000139565b3480156200018357600080fd5b506200016762000fc7565b3480156200019b57600080fd5b506200012a62000fda565b348015620001b357600080fd5b50620000c7620001c536600462001e64565b620010ff565b348015620001d857600080fd5b506200012a620015ae565b348015620001f057600080fd5b506200012a620016ca565b33600090815260036020526040908190205490516386bd3f9160e01b81526001600160a01b03909116600482015273__$4abe93d8f421c97b6c3dfbe9b44c8344ba$__906386bd3f9190602401602060405180830381865af415801562000266573d6000803e3d6000fd5b505050506040513d601f19601f820116820180604052508101906200028c919062001f6f565b156200029d576200029d33620017c2565b6000620002ab600062001868565b9050600081338b8b8b8b8b8b8b8b604051620002c790620019eb565b620002dc9a9998979695949392919062001f8d565b604051809103906000f080158015620002f9573d6000803e3d6000fd5b5090506200030a6000838362001875565b5033600090815260036020526040908190205490516371fbae8f60e11b81526001600160a01b0383811660048301529091169063e3f75d1e90602401600060405180830381600087803b1580156200036157600080fd5b505af115801562000376573d6000803e3d6000fd5b50505050336001600160a01b0316827f28522faef084eaf14884ca4dfb443eec1792a46a067e8af55ada5cd7e1cd03728c89888a8f604051620003be95949392919062002057565b60405180910390a350505050505050505050565b80620003e060008262001895565b620004085760405162461bcd60e51b8152600401620003ff90620020be565b60405180910390fd5b62000415600082620018aa565b6040516386bd3f9160e01b81526001600160a01b03909116600482015273__$4abe93d8f421c97b6c3dfbe9b44c8344ba$__906386bd3f9190602401602060405180830381865af41580156200046f573d6000803e3d6000fd5b505050506040513d601f19601f8201168201806040525081019062000495919062001f6f565b15620004b55760405162461bcd60e51b8152600401620003ff90620020e5565b33600081815260036020526040908190205490516386bd3f9160e01b81526001600160a01b03909116600482015273__$4abe93d8f421c97b6c3dfbe9b44c8344ba$__906386bd3f9190602401602060405180830381865af415801562000520573d6000803e3d6000fd5b505050506040513d601f19601f8201168201806040525081019062000546919062001f6f565b1562000557576200055781620017c2565b6000620005658185620018aa565b6001600160a01b038381166000908152600360205260409081902054905163012935c160e21b8152838316600482015292935016906304a4d70490602401602060405180830381865afa158015620005c1573d6000803e3d6000fd5b505050506040513d601f19601f82011682018060405250810190620005e7919062001f6f565b156200062c5760405162461bcd60e51b815260206004820152601360248201527243616e2774206275792061707020747769636560681b6044820152606401620003ff565b60008190506000816001600160a01b03166302d05d3f6040518163ffffffff1660e01b8152600401602060405180830381865afa15801562000672573d6000803e3d6000fd5b505050506040513d601f19601f8201168201806040525081019062000698919062002111565b6001600160a01b03163460405160006040518083038185875af1925050503d8060008114620006e4576040519150601f19603f3d011682016040523d82523d6000602084013e620006e9565b606091505b5050905080620007335760405162461bcd60e51b81526020600482015260146024820152732330b4b632b2103a379039b2b7321022ba3432b960611b6044820152606401620003ff565b6001600160a01b03848116600090815260036020526040908190205490516391de1ba360e01b815285831660048201529116906391de1ba390602401600060405180830381600087803b1580156200078a57600080fd5b505af11580156200079f573d6000803e3d6000fd5b50506040516001600160a01b038087169350871691507fba9cb3f403a15fc11cbc07546f998c36867f843fa32a222ee76a41a9e6af7d0790600090a3505050505050565b336000908152600360205260408120546001600160a01b031690620008098185620018aa565b604051639f9f7f8560e01b81526001600160a01b038083166004830152919250829160009190851690639f9f7f8590602401602060405180830381865afa15801562000859573d6000803e3d6000fd5b505050506040513d601f19601f820116820180604052508101906200087f91906200213c565b60405163983c0a5b60e01b81526001600160a01b038581166004830152602482018890529192509085169063983c0a5b90604401600060405180830381600087803b158015620008ce57600080fd5b505af1158015620008e3573d6000803e3d6000fd5b505060405163385c7ec960e11b815260048101889052602481018490526000925082915081906001600160a01b038616906370b8fd92906044016060604051808303816000875af11580156200093d573d6000803e3d6000fd5b505050506040513d601f19601f8201168201806040525081019062000963919062002156565b6040805184815260208101849052908101829052929550909350915089907f4686fd5d77ea9a1984201e56edd878f506e82fdb6401d0bf70543d172ef37a739060600160405180910390a2505050505050505050565b606082826000811162000a005760405162461bcd60e51b815260206004820152600e60248201526d092dcecc2d8d2c840d8cadccee8d60931b6044820152606401620003ff565b80821062000a415760405162461bcd60e51b815260206004820152600d60248201526c092dcecc2d8d2c840d2dcc8caf609b1b6044820152606401620003ff565b336000908152600360205260408082205490516386bd3f9160e01b81526001600160a01b03909116600482015273__$4abe93d8f421c97b6c3dfbe9b44c8344ba$__906386bd3f9190602401602060405180830381865af415801562000aab573d6000803e3d6000fd5b505050506040513d601f19601f8201168201806040525081019062000ad1919062001f6f565b159050600062000ae2600062001868565b9050600081871062000af5578162000af7565b865b905060008167ffffffffffffffff81111562000b175762000b1762001a07565b60405190808252806020026020018201604052801562000bc657816020015b62000bb2604051806101e0016040528060008152602001606081526020016060815260200160608152602001606081526020016000815260200160008152602001600081526020016000815260200160008152602001606081526020016000151581526020016060815260200160608152602001600081525090565b81526020019060019003908162000b365790505b50905087821115801562000bda5750828211155b62000c195760405162461bcd60e51b815260206004820152600e60248201526d1b5a5b9a5b5d5b4819985a5b195960921b6044820152606401620003ff565b60005b8281101562000d9e5760008462000c34838d6200219b565b62000c409190620021b6565b9050600062000c508183620018aa565b9050600087801562000cdc5750336000908152600360205260409081902054905163012935c160e21b81526001600160a01b038481166004830152909116906304a4d70490602401602060405180830381865afa15801562000cb6573d6000803e3d6000fd5b505050506040513d601f19601f8201168201806040525081019062000cdc919062001f6f565b9050816001600160a01b031663f22b01278262000cf98662000dab565b6040516001600160e01b031960e085901b16815291151560048301526024820152604401600060405180830381865afa15801562000d3b573d6000803e3d6000fd5b505050506040513d6000823e601f3d908101601f1916820160405262000d659190810190620023d0565b85858151811062000d7a5762000d7a62002409565b6020026020010181905250505050808062000d95906200241f565b91505062000c1c565b5098975050505050505050565b60008162000dba828262001895565b62000dd95760405162461bcd60e51b8152600401620003ff90620020be565b62000de6600082620018aa565b6040516386bd3f9160e01b81526001600160a01b03909116600482015273__$4abe93d8f421c97b6c3dfbe9b44c8344ba$__906386bd3f9190602401602060405180830381865af415801562000e40573d6000803e3d6000fd5b505050506040513d601f19601f8201168201806040525081019062000e66919062001f6f565b1562000e865760405162461bcd60e51b8152600401620003ff90620020e5565b33600090815260036020526040908190205490516386bd3f9160e01b81526001600160a01b03909116600482015273__$4abe93d8f421c97b6c3dfbe9b44c8344ba$__906386bd3f9190602401602060405180830381865af415801562000ef1573d6000803e3d6000fd5b505050506040513d601f19601f8201168201806040525081019062000f17919062001f6f565b1562000f27576000915062000fc1565b336000908152600360205260408120546001600160a01b031690639f9f7f859062000f539086620018aa565b6040516001600160e01b031960e084901b1681526001600160a01b039091166004820152602401602060405180830381865afa15801562000f98573d6000803e3d6000fd5b505050506040513d601f19601f8201168201806040525081019062000fbe91906200213c565b91505b50919050565b600062000fd5600062001868565b905090565b33600090815260036020526040908190205490516386bd3f9160e01b81526001600160a01b03909116600482015260609073__$4abe93d8f421c97b6c3dfbe9b44c8344ba$__906386bd3f9190602401602060405180830381865af415801562001048573d6000803e3d6000fd5b505050506040513d601f19601f820116820180604052508101906200106e919062001f6f565b156200107a5750606090565b3360009081526003602052604080822054815163b8c3773f60e01b815291516001600160a01b039091169163b8c3773f91600480830192869291908290030181865afa158015620010cf573d6000803e3d6000fd5b505050506040513d6000823e601f3d908101601f19168201604052620010f991908101906200243b565b92915050565b6040516386bd3f9160e01b815233600482018190529073__$4abe93d8f421c97b6c3dfbe9b44c8344ba$__906386bd3f9190602401602060405180830381865af415801562001152573d6000803e3d6000fd5b505050506040513d601f19601f8201168201806040525081019062001178919062001f6f565b15620011b65760405162461bcd60e51b815260206004820152600c60248201526b24b73b30b634b21030b2323960a11b6044820152606401620003ff565b6001600160a01b03818116600090815260036020526040908190205490516386bd3f9160e01b81529116600482015273__$4abe93d8f421c97b6c3dfbe9b44c8344ba$__906386bd3f9190602401602060405180830381865af415801562001222573d6000803e3d6000fd5b505050506040513d601f19601f8201168201806040525081019062001248919062001f6f565b15620012885760405162461bcd60e51b815260206004820152600e60248201526d155cd95c881b9bdd08199bdd5b9960921b6044820152606401620003ff565b876200129660008262001895565b620012b55760405162461bcd60e51b8152600401620003ff90620020be565b620012c2600082620018aa565b6040516386bd3f9160e01b81526001600160a01b03909116600482015273__$4abe93d8f421c97b6c3dfbe9b44c8344ba$__906386bd3f9190602401602060405180830381865af41580156200131c573d6000803e3d6000fd5b505050506040513d601f19601f8201168201806040525081019062001342919062001f6f565b15620013625760405162461bcd60e51b8152600401620003ff90620020e5565b6040516386bd3f9160e01b815233600482018190528a9173__$4abe93d8f421c97b6c3dfbe9b44c8344ba$__906386bd3f9190602401602060405180830381865af4158015620013b6573d6000803e3d6000fd5b505050506040513d601f19601f82011682018060405250810190620013dc919062001f6f565b156200141a5760405162461bcd60e51b815260206004820152600c60248201526b24b73b30b634b21030b2323960a11b6044820152606401620003ff565b62001427600083620018aa565b6001600160a01b03166302d05d3f6040518163ffffffff1660e01b8152600401602060405180830381865afa15801562001465573d6000803e3d6000fd5b505050506040513d601f19601f820116820180604052508101906200148b919062002111565b6001600160a01b0316816001600160a01b031614620014e05760405162461bcd60e51b815260206004820152601060248201526f3737ba1031b932b0ba37b91030b2323960811b6044820152606401620003ff565b6000620014ee818d620018aa565b6001600160a01b0316634367d32e8c8c8c8c8c8c6040518763ffffffff1660e01b815260040162001525969594939291906200250c565b6020604051808303816000875af115801562001545573d6000803e3d6000fd5b505050506040513d601f19601f820116820180604052508101906200156b919062001f6f565b90508015620015a0576040518c907ff3814c1d792326703a86a099c4d66da2daf90ff42781dabace6b0ecb4510cca390600090a25b505050505050505050505050565b33600090815260036020526040908190205490516386bd3f9160e01b81526001600160a01b03909116600482015260609073__$4abe93d8f421c97b6c3dfbe9b44c8344ba$__906386bd3f9190602401602060405180830381865af41580156200161c573d6000803e3d6000fd5b505050506040513d601f19601f8201168201806040525081019062001642919062001f6f565b156200164e5750606090565b3360009081526003602052604080822054815163139334af60e01b815291516001600160a01b039091169263139334af92600480820193918290030181865afa158015620016a0573d6000803e3d6000fd5b505050506040513d6000823e601f3d908101601f1916820160405262000fd591908101906200243b565b33600090815260036020526040908190205490516386bd3f9160e01b81526001600160a01b03909116600482015260609073__$4abe93d8f421c97b6c3dfbe9b44c8344ba$__906386bd3f9190602401602060405180830381865af415801562001738573d6000803e3d6000fd5b505050506040513d601f19601f820116820180604052508101906200175e919062001f6f565b156200176a5750606090565b3360009081526003602052604080822054815163253a219f60e01b815291516001600160a01b039091169263253a219f92600480820193918290030181865afa158015620016a0573d6000803e3d6000fd5b60009055565b620017d1600480546001019055565b80604051620017e090620019f9565b6001600160a01b039091168152602001604051809103906000f0801580156200180d573d6000803e3d6000fd5b506001600160a01b0382811660008181526003602052604080822080546001600160a01b03191695909416948517909355915190917f263d398af3bd0e797da25e9dc29a23286e999826d13a16fca996d1ddd1eb528191a350565b6000620010f982620018b8565b60006200188d84846001600160a01b038516620018c5565b949350505050565b6000620018a38383620018e4565b9392505050565b6000620018a38383620018f2565b6000620010f98262001967565b600082815260028401602052604081208290556200188d848462001972565b6000620018a3838362001980565b600081815260028301602052604081205480151580620019195750620019198484620018e4565b620018a35760405162461bcd60e51b815260206004820152601e60248201527f456e756d657261626c654d61703a206e6f6e6578697374656e74206b657900006044820152606401620003ff565b6000620010f9825490565b6000620018a3838362001999565b60008181526001830160205260408120541515620018a3565b6000818152600183016020526040812054620019e257508154600181810184556000848152602080822090930184905584548482528286019093526040902091909155620010f9565b506000620010f9565b6126c7806200257e83390190565b6110b28062004c4583390190565b634e487b7160e01b600052604160045260246000fd5b6040516101e0810167ffffffffffffffff8111828210171562001a445762001a4462001a07565b60405290565b604051601f8201601f1916810167ffffffffffffffff8111828210171562001a765762001a7662001a07565b604052919050565b600067ffffffffffffffff82111562001a9b5762001a9b62001a07565b50601f01601f191660200190565b600082601f83011262001abb57600080fd5b813562001ad262001acc8262001a7e565b62001a4a565b81815284602083860101111562001ae857600080fd5b816020850160208301376000918101602001919091529392505050565b600080600080600080600080610100898b03121562001b2357600080fd5b883567ffffffffffffffff8082111562001b3c57600080fd5b62001b4a8c838d0162001aa9565b995060208b013591508082111562001b6157600080fd5b62001b6f8c838d0162001aa9565b985060408b013591508082111562001b8657600080fd5b62001b948c838d0162001aa9565b975060608b013591508082111562001bab57600080fd5b62001bb98c838d0162001aa9565b965060808b013591508082111562001bd057600080fd5b62001bde8c838d0162001aa9565b955060a08b0135945060c08b013591508082111562001bfc57600080fd5b62001c0a8c838d0162001aa9565b935060e08b013591508082111562001c2157600080fd5b5062001c308b828c0162001aa9565b9150509295985092959890939650565b60006020828403121562001c5357600080fd5b5035919050565b6000806040838503121562001c6e57600080fd5b50508035926020909101359150565b60005b8381101562001c9a57818101518382015260200162001c80565b8381111562001caa576000848401525b50505050565b6000815180845262001cca81602086016020860162001c7d565b601f01601f19169290920160200192915050565b60006020808301818452808551808352604092508286019150828160051b87010184880160005b8381101562001e5657603f1989840301855281516101e08151855288820151818a87015262001d378287018262001cb0565b915050878201518582038987015262001d51828262001cb0565b9150506060808301518683038288015262001d6d838262001cb0565b925050506080808301518683038288015262001d8a838262001cb0565b60a0858101519089015260c0808601519089015260e080860151908901526101008086015190890152610120808601519089015261014080860151898303828b01529194509250905062001ddf838262001cb0565b925050506101608083015162001df88288018215159052565b5050610180808301518683038288015262001e14838262001cb0565b925050506101a0808301518683038288015262001e32838262001cb0565b6101c094850151979094019690965250509487019492509086019060010162001d05565b509098975050505050505050565b600080600080600080600060e0888a03121562001e8057600080fd5b87359650602088013567ffffffffffffffff8082111562001ea057600080fd5b62001eae8b838c0162001aa9565b975060408a013591508082111562001ec557600080fd5b62001ed38b838c0162001aa9565b965060608a013591508082111562001eea57600080fd5b62001ef88b838c0162001aa9565b955060808a013591508082111562001f0f57600080fd5b62001f1d8b838c0162001aa9565b945060a08a0135935060c08a013591508082111562001f3b57600080fd5b5062001f4a8a828b0162001aa9565b91505092959891949750929550565b8051801515811462001f6a57600080fd5b919050565b60006020828403121562001f8257600080fd5b620018a38262001f59565b8a81526001600160a01b038a1660208201526101406040820181905260009062001fba8382018c62001cb0565b9050828103606084015262001fd0818b62001cb0565b9050828103608084015262001fe6818a62001cb0565b905082810360a084015262001ffc818962001cb0565b905082810360c084015262002012818862001cb0565b90508560e08401528281036101008401526200202f818662001cb0565b905082810361012084015262002046818562001cb0565b9d9c50505050505050505050505050565b60a0815260006200206c60a083018862001cb0565b828103602084015262002080818862001cb0565b9050828103604084015262002096818762001cb0565b90508460608401528281036080840152620020b2818562001cb0565b98975050505050505050565b6020808252600d908201526c105c1c081b9bdd08199bdd5b99609a1b604082015260600190565b60208082526012908201527141707020646f656e7327742065786973747360701b604082015260600190565b6000602082840312156200212457600080fd5b81516001600160a01b0381168114620018a357600080fd5b6000602082840312156200214f57600080fd5b5051919050565b6000806000606084860312156200216c57600080fd5b8351925060208401519150604084015190509250925092565b634e487b7160e01b600052601160045260246000fd5b60008219821115620021b157620021b162002185565b500190565b600082620021d457634e487b7160e01b600052601260045260246000fd5b500690565b600082601f830112620021eb57600080fd5b8151620021fc62001acc8262001a7e565b8181528460208386010111156200221257600080fd5b6200188d82602083016020870162001c7d565b60006101e082840312156200223957600080fd5b6200224362001a1d565b905081518152602082015167ffffffffffffffff808211156200226557600080fd5b6200227385838601620021d9565b602084015260408401519150808211156200228d57600080fd5b6200229b85838601620021d9565b60408401526060840151915080821115620022b557600080fd5b620022c385838601620021d9565b60608401526080840151915080821115620022dd57600080fd5b620022eb85838601620021d9565b608084015260a084015160a084015260c084015160c084015260e084015160e08401526101009150818401518284015261012091508184015182840152610140915081840151818111156200233f57600080fd5b6200234d86828701620021d9565b838501525061016091506200236482850162001f59565b82840152610180915081840151818111156200237f57600080fd5b6200238d86828701620021d9565b83850152506101a091508184015181811115620023a957600080fd5b620023b786828701620021d9565b838501525050506101c080830151818301525092915050565b600060208284031215620023e357600080fd5b815167ffffffffffffffff811115620023fb57600080fd5b6200188d8482850162002225565b634e487b7160e01b600052603260045260246000fd5b60006001820162002434576200243462002185565b5060010190565b600060208083850312156200244f57600080fd5b825167ffffffffffffffff808211156200246857600080fd5b818501915085601f8301126200247d57600080fd5b81518181111562002492576200249262001a07565b8060051b620024a385820162001a4a565b9182528381018501918581019089841115620024be57600080fd5b86860192505b83831015620024ff57825185811115620024de5760008081fd5b620024ee8b89838a010162002225565b8352509186019190860190620024c4565b9998505050505050505050565b60c0815260006200252160c083018962001cb0565b828103602084015262002535818962001cb0565b905082810360408401526200254b818862001cb0565b9050828103606084015262002561818762001cb0565b905084608084015282810360a0840152620024ff818562001cb056fe60806040523480156200001157600080fd5b50604051620026c7380380620026c78339810160408190526200003491620006b1565b6200003f3362000564565b896200004f565b60405180910390fd5b8360008111620000a25760405162461bcd60e51b815260206004820152601c60248201527f5072696365206d7573742062652067726561746572207468616e203000000000604482015260640162000046565b60405163139a0e4560e11b81528a9073__$2ef198253e5209528d081d789aa7dfe759$__906327341c8a90620000dd9084906004016200080a565b602060405180830381865af4158015620000fb573d6000803e3d6000fd5b505050506040513d601f19601f820116820180604052508101906200012191906200083f565b156200015f5760405162461bcd60e51b8152602060048201526018602482015260008051602062002612833981519152604482015260640162000046565b60405163139a0e4560e11b8152899073__$2ef198253e5209528d081d789aa7dfe759$__906327341c8a906200019a9084906004016200080a565b602060405180830381865af4158015620001b8573d6000803e3d6000fd5b505050506040513d601f19601f82011682018060405250810190620001de91906200083f565b156200021c5760405162461bcd60e51b8152602060048201526018602482015260008051602062002612833981519152604482015260640162000046565b60405163139a0e4560e11b8152869073__$2ef198253e5209528d081d789aa7dfe759$__906327341c8a90620002579084906004016200080a565b602060405180830381865af415801562000275573d6000803e3d6000fd5b505050506040513d601f19601f820116820180604052508101906200029b91906200083f565b15620002d95760405162461bcd60e51b8152602060048201526018602482015260008051602062002612833981519152604482015260640162000046565b60405163139a0e4560e11b8152869073__$2ef198253e5209528d081d789aa7dfe759$__906327341c8a90620003149084906004016200080a565b602060405180830381865af415801562000332573d6000803e3d6000fd5b505050506040513d601f19601f820116820180604052508101906200035891906200083f565b15620003965760405162461bcd60e51b8152602060048201526018602482015260008051602062002612833981519152604482015260640162000046565b8e600260006101000a8154816001600160a01b0302191690836001600160a01b031602179055508f6001819055508d60039081620003d59190620008f9565b506004620003e48e82620008f9565b506006620003f38d82620008f9565b506007620004028c82620008f9565b5060405163139a0e4560e11b815273__$2ef198253e5209528d081d789aa7dfe759$__906327341c8a906200043c908e906004016200080a565b602060405180830381865af41580156200045a573d6000803e3d6000fd5b505050506040513d601f19601f820116820180604052508101906200048091906200083f565b15620004b1576040518060c00160405280609581526020016200263260959139600790620004af9082620008f9565b505b6008620004bf8b82620008f9565b5060006009819055600a819055600b8a90556005805460018101825591527f036b6384b5eca791c62761152d0c79bb0604c104a5fb6f4eb0703f3154bb3db0016200050b8882620008f9565b5062000523600e620005b460201b620010401760201c565b6200053a600f620005b460201b620010401760201c565b600c620005488982620008f9565b505042600d5550620009c59d5050505050505050505050505050565b600080546001600160a01b038381166001600160a01b0319831681178455604051919092169283917f8be0079c531659141344cd1fd0a4f28419497f9722a3daafe3b4186f6b6457e09190a35050565b60009055565b80516001600160a01b0381168114620005d257600080fd5b919050565b634e487b7160e01b600052604160045260246000fd5b60005b838110156200060a578181015183820152602001620005f0565b838111156200061a576000848401525b50505050565b600082601f8301126200063257600080fd5b81516001600160401b03808211156200064f576200064f620005d7565b604051601f8301601f19908116603f011681019082821181831017156200067a576200067a620005d7565b816040528381528660208588010111156200069457600080fd5b620006a7846020830160208901620005ed565b9695505050505050565b6000806000806000806000806000806101408b8d031215620006d257600080fd5b8a519950620006e460208c01620005ba565b60408c01519099506001600160401b03808211156200070257600080fd5b620007108e838f0162000620565b995060608d01519150808211156200072757600080fd5b620007358e838f0162000620565b985060808d01519150808211156200074c57600080fd5b6200075a8e838f0162000620565b975060a08d01519150808211156200077157600080fd5b6200077f8e838f0162000620565b965060c08d01519150808211156200079657600080fd5b620007a48e838f0162000620565b955060e08d015194506101008d0151915080821115620007c357600080fd5b620007d18e838f0162000620565b93506101208d0151915080821115620007e957600080fd5b50620007f88d828e0162000620565b9150509295989b9194979a5092959850565b60208152600082518060208401526200082b816040850160208701620005ed565b601f01601f19169190910160400192915050565b6000602082840312156200085257600080fd5b815180151581146200086357600080fd5b9392505050565b600181811c908216806200087f57607f821691505b602082108103620008a057634e487b7160e01b600052602260045260246000fd5b50919050565b601f821115620008f457600081815260208120601f850160051c81016020861015620008cf5750805b601f850160051c820191505b81811015620008f057828155600101620008db565b5050505b505050565b81516001600160401b03811115620009155762000915620005d7565b6200092d816200092684546200086a565b84620008a6565b602080601f8311600181146200096557600084156200094c5750858301515b600019600386901b1c1916600185901b178555620008f0565b600085815260208120601f198616915b82811015620009965788860151825594840194600190910190840162000975565b5085821015620009b55787850151600019600388901b60f8161c191681555b5050505050600190811b01905550565b611c3d80620009d56000396000f3fe608060405234801561001057600080fd5b50600436106101165760003560e01c80638da5cb5b116100a2578063d23fe7c711610071578063d23fe7c71461022b578063d68387c714610235578063f22b01271461023d578063f2fde38b1461025d578063fabec44a1461027057600080fd5b80638da5cb5b14610200578063a035b1fe14610211578063a512bd791461021a578063af640d0f1461022257600080fd5b80636904c94d116100e95780636904c94d1461019b57806370b8fd92146101a3578063715018a6146101d15780637284e416146101db57806373b8fc80146101e357600080fd5b806302d05d3f1461011b57806306fdde031461014b57806334b1a7cc146101605780634367d32e14610178575b600080fd5b60025461012e906001600160a01b031681565b6040516001600160a01b0390911681526020015b60405180910390f35b610153610278565b6040516101429190611578565b600f5461016a9081565b604051908152602001610142565b61018b6101863660046115db565b610306565b6040519015158152602001610142565b610153610903565b6101b66101b13660046116d8565b610910565b60408051938452602084019290925290820152606001610142565b6101d9610a0e565b005b610153610a44565b6101eb610a51565b60408051928352602083019190915201610142565b6000546001600160a01b031661012e565b61016a600b5481565b610153610a73565b61016a60015481565b600e5461016a9081565b610153610a80565b61025061024b366004611708565b610a8d565b6040516101429190611734565b6101d961026b36600461187e565b610ee9565b610153610f84565b60038054610285906118a7565b80601f01602080910402602001604051908101604052809291908181526020018280546102b1906118a7565b80156102fe5780601f106102d3576101008083540402835291602001916102fe565b820191906000526020600020905b8154815290600101906020018083116102e157829003601f168201915b505050505081565b600080546001600160a01b0316331461033a5760405162461bcd60e51b8152600401610331906118e1565b60405180910390fd5b8b8b8080601f0160208091040260200160405190810160405280939291908181526020018383808284376000920191909152505060405163139a0e4560e11b815273__$2ef198253e5209528d081d789aa7dfe759$__936327341c8a93506103a6925090600401611578565b602060405180830381865af41580156103c3573d6000803e3d6000fd5b505050506040513d601f19601f820116820180604052508101906103e79190611916565b6103f5576103f58c8c611046565b89898080601f0160208091040260200160405190810160405280939291908181526020018383808284376000920191909152505060405163139a0e4560e11b815273__$2ef198253e5209528d081d789aa7dfe759$__936327341c8a9350610461925090600401611578565b602060405180830381865af415801561047e573d6000803e3d6000fd5b505050506040513d601f19601f820116820180604052508101906104a29190611916565b6104b0576104b08a8a611124565b87878080601f0160208091040260200160405190810160405280939291908181526020018383808284376000920191909152505060405163139a0e4560e11b815273__$2ef198253e5209528d081d789aa7dfe759$__936327341c8a935061051c925090600401611578565b602060405180830381865af4158015610539573d6000803e3d6000fd5b505050506040513d601f19601f8201168201806040525081019061055d9190611916565b1580610613575082828080601f0160208091040260200160405190810160405280939291908181526020018383808284376000920191909152505060405163139a0e4560e11b815273__$2ef198253e5209528d081d789aa7dfe759$__936327341c8a93506105d0925090600401611578565b602060405180830381865af41580156105ed573d6000803e3d6000fd5b505050506040513d601f19601f820116820180604052508101906106119190611916565b155b156108275787878080601f0160208091040260200160405190810160405280939291908181526020018383808284376000920191909152505060405163139a0e4560e11b815273__$2ef198253e5209528d081d789aa7dfe759$__936327341c8a9350610684925090600401611578565b602060405180830381865af41580156106a1573d6000803e3d6000fd5b505050506040513d601f19601f820116820180604052508101906106c59190611916565b15801561077c575082828080601f0160208091040260200160405190810160405280939291908181526020018383808284376000920191909152505060405163139a0e4560e11b815273__$2ef198253e5209528d081d789aa7dfe759$__936327341c8a9350610739925090600401611578565b602060405180830381865af4158015610756573d6000803e3d6000fd5b505050506040513d601f19601f8201168201806040525081019061077a9190611916565b155b6107de5760405162461bcd60e51b815260206004820152602d60248201527f4d7573742070726f7669646520626f7468206d61676e6574206c696e6b20616e60448201526c32103334b6329039b430991a9b60991b6064820152608401610331565b6107e888886111fc565b61082783838080601f0160208091040260200160405190810160405280939291908181526020018383808284376000920191909152506112d492505050565b85858080601f0160208091040260200160405190810160405280939291908181526020018383808284376000920191909152505060405163139a0e4560e11b815273__$2ef198253e5209528d081d789aa7dfe759$__936327341c8a9350610893925090600401611578565b602060405180830381865af41580156108b0573d6000803e3d6000fd5b505050506040513d601f19601f820116820180604052508101906108d49190611916565b6108e2576108e286866113ac565b83156108f1576108f184611484565b5060019b9a5050505050505050505050565b60088054610285906118a7565b60008080336001600160a01b03166109306000546001600160a01b031690565b6001600160a01b0316146109565760405162461bcd60e51b8152600401610331906118e1565b83600581111561096557600080fd5b85600581111561097457600080fd5b6000600a54610982600e5490565b60095461098f9190611949565b6109999190611968565b9050866000036109b1576109b1600e80546001019055565b6109bb8882611968565b90506109c78782611980565b90506109d2600e5490565b6109dc90826119ad565b600955600e546109ec90826119c1565b600a819055600954906109fe600e5490565b9550955095505050509250925092565b6000546001600160a01b03163314610a385760405162461bcd60e51b8152600401610331906118e1565b610a4260006114db565b565b60048054610285906118a7565b600080600060095411610a675750600091829150565b5050600954600a549091565b60068054610285906118a7565b60078054610285906118a7565b610b08604051806101e0016040528060008152602001606081526020016060815260200160608152602001606081526020016000815260200160008152602001600081526020016000815260200160008152602001606081526020016000151581526020016060815260200160608152602001600081525090565b6000604051806101e00160405280600154815260200160038054610b2b906118a7565b80601f0160208091040260200160405190810160405280929190818152602001828054610b57906118a7565b8015610ba45780601f10610b7957610100808354040283529160200191610ba4565b820191906000526020600020905b815481529060010190602001808311610b8757829003601f168201915b5050505050815260200160048054610bbb906118a7565b80601f0160208091040260200160405190810160405280929190818152602001828054610be7906118a7565b8015610c345780601f10610c0957610100808354040283529160200191610c34565b820191906000526020600020905b815481529060010190602001808311610c1757829003601f168201915b5050505050815260200160078054610c4b906118a7565b80601f0160208091040260200160405190810160405280929190818152602001828054610c77906118a7565b8015610cc45780601f10610c9957610100808354040283529160200191610cc4565b820191906000526020600020905b815481529060010190602001808311610ca757829003601f168201915b5050505050815260200160088054610cdb906118a7565b80601f0160208091040260200160405190810160405280929190818152602001828054610d07906118a7565b8015610d545780601f10610d2957610100808354040283529160200191610d54565b820191906000526020600020905b815481529060010190602001808311610d3757829003601f168201915b50505050508152602001600b548152602001610d6f600e5490565b81526020016009548152602001600a548152602001848152602001610d92610f84565b8152602001851515815260200185610db95760405180602001604052806000815250610e45565b60068054610dc6906118a7565b80601f0160208091040260200160405190810160405280929190818152602001828054610df2906118a7565b8015610e3f5780601f10610e1457610100808354040283529160200191610e3f565b820191906000526020600020905b815481529060010190602001808311610e2257829003601f168201915b50505050505b8152602001600c8054610e57906118a7565b80601f0160208091040260200160405190810160405280929190818152602001828054610e83906118a7565b8015610ed05780601f10610ea557610100808354040283529160200191610ed0565b820191906000526020600020905b815481529060010190602001808311610eb357829003601f168201915b5050509183525050600d54602090910152949350505050565b6000546001600160a01b03163314610f135760405162461bcd60e51b8152600401610331906118e1565b6001600160a01b038116610f785760405162461bcd60e51b815260206004820152602660248201527f4f776e61626c653a206e6577206f776e657220697320746865207a65726f206160448201526564647265737360d01b6064820152608401610331565b610f81816114db565b50565b6005805460609190610f9890600190611980565b81548110610fa857610fa86119d5565b906000526020600020018054610fbd906118a7565b80601f0160208091040260200160405190810160405280929190818152602001828054610fe9906118a7565b80156110365780601f1061100b57610100808354040283529160200191611036565b820191906000526020600020905b81548152906001019060200180831161101957829003601f168201915b5050505050905090565b60009055565b81818080601f0160208091040260200160405190810160405280939291908181526020018383808284376000920191909152505060405163139a0e4560e11b815273__$2ef198253e5209528d081d789aa7dfe759$__92506327341c8a91506110b3908490600401611578565b602060405180830381865af41580156110d0573d6000803e3d6000fd5b505050506040513d601f19601f820116820180604052508101906110f49190611916565b156111115760405162461bcd60e51b8152600401610331906119eb565b600361111e838583611a86565b50505050565b81818080601f0160208091040260200160405190810160405280939291908181526020018383808284376000920191909152505060405163139a0e4560e11b815273__$2ef198253e5209528d081d789aa7dfe759$__92506327341c8a9150611191908490600401611578565b602060405180830381865af41580156111ae573d6000803e3d6000fd5b505050506040513d601f19601f820116820180604052508101906111d29190611916565b156111ef5760405162461bcd60e51b8152600401610331906119eb565b600461111e838583611a86565b81818080601f0160208091040260200160405190810160405280939291908181526020018383808284376000920191909152505060405163139a0e4560e11b815273__$2ef198253e5209528d081d789aa7dfe759$__92506327341c8a9150611269908490600401611578565b602060405180830381865af4158015611286573d6000803e3d6000fd5b505050506040513d601f19601f820116820180604052508101906112aa9190611916565b156112c75760405162461bcd60e51b8152600401610331906119eb565b600661111e838583611a86565b60405163139a0e4560e11b8152819073__$2ef198253e5209528d081d789aa7dfe759$__906327341c8a9061130d908490600401611578565b602060405180830381865af415801561132a573d6000803e3d6000fd5b505050506040513d601f19601f8201168201806040525081019061134e9190611916565b1561136b5760405162461bcd60e51b8152600401610331906119eb565b600580546001810182556000919091527f036b6384b5eca791c62761152d0c79bb0604c104a5fb6f4eb0703f3154bb3db0016113a78382611b47565b505050565b81818080601f0160208091040260200160405190810160405280939291908181526020018383808284376000920191909152505060405163139a0e4560e11b815273__$2ef198253e5209528d081d789aa7dfe759$__92506327341c8a9150611419908490600401611578565b602060405180830381865af4158015611436573d6000803e3d6000fd5b505050506040513d601f19601f8201168201806040525081019061145a9190611916565b156114775760405162461bcd60e51b8152600401610331906119eb565b600761111e838583611a86565b80600081116114d55760405162461bcd60e51b815260206004820152601c60248201527f5072696365206d7573742062652067726561746572207468616e2030000000006044820152606401610331565b50600b55565b600080546001600160a01b038381166001600160a01b0319831681178455604051919092169283917f8be0079c531659141344cd1fd0a4f28419497f9722a3daafe3b4186f6b6457e09190a35050565b6000815180845260005b8181101561155157602081850181015186830182015201611535565b81811115611563576000602083870101525b50601f01601f19169290920160200192915050565b60208152600061158b602083018461152b565b9392505050565b60008083601f8401126115a457600080fd5b50813567ffffffffffffffff8111156115bc57600080fd5b6020830191508360208285010111156115d457600080fd5b9250929050565b600080600080600080600080600080600060c08c8e0312156115fc57600080fd5b67ffffffffffffffff808d35111561161357600080fd5b6116208e8e358f01611592565b909c509a5060208d013581101561163657600080fd5b6116468e60208f01358f01611592565b909a50985060408d013581101561165c57600080fd5b61166c8e60408f01358f01611592565b909850965060608d013581101561168257600080fd5b6116928e60608f01358f01611592565b909650945060808d0135935060a08d01358110156116af57600080fd5b506116c08d60a08e01358e01611592565b81935080925050509295989b509295989b9093969950565b600080604083850312156116eb57600080fd5b50508035926020909101359150565b8015158114610f8157600080fd5b6000806040838503121561171b57600080fd5b8235611726816116fa565b946020939093013593505050565b6020815281516020820152600060208301516101e080604085015261175d61020085018361152b565b91506040850151601f198086850301606087015261177b848361152b565b93506060870151915080868503016080870152611798848361152b565b935060808701519150808685030160a08701526117b5848361152b565b935060a087015160c087015260c087015160e087015260e08701519150610100828188015280880151925050610120828188015280880151925050610140828188015280880151925050610160818786030181880152611815858461152b565b94508088015192505061018061182e8188018415159052565b808801519250506101a081878603018188015261184b858461152b565b9450808801519250506101c081878603018188015261186a858461152b565b970151959092019490945250929392505050565b60006020828403121561189057600080fd5b81356001600160a01b038116811461158b57600080fd5b600181811c908216806118bb57607f821691505b6020821081036118db57634e487b7160e01b600052602260045260246000fd5b50919050565b6020808252818101527f4f776e61626c653a2063616c6c6572206973206e6f7420746865206f776e6572604082015260600190565b60006020828403121561192857600080fd5b815161158b816116fa565b634e487b7160e01b600052601160045260246000fd5b600081600019048311821515161561196357611963611933565b500290565b6000821982111561197b5761197b611933565b500190565b60008282101561199257611992611933565b500390565b634e487b7160e01b600052601260045260246000fd5b6000826119bc576119bc611997565b500490565b6000826119d0576119d0611997565b500690565b634e487b7160e01b600052603260045260246000fd5b60208082526018908201527f537472696e67206d757374206e6f7420626520656d7074790000000000000000604082015260600190565b634e487b7160e01b600052604160045260246000fd5b601f8211156113a757600081815260208120601f850160051c81016020861015611a5f5750805b601f850160051c820191505b81811015611a7e57828155600101611a6b565b505050505050565b67ffffffffffffffff831115611a9e57611a9e611a22565b611ab283611aac83546118a7565b83611a38565b6000601f841160018114611ae65760008515611ace5750838201355b600019600387901b1c1916600186901b178355611b40565b600083815260209020601f19861690835b82811015611b175786850135825560209485019460019092019101611af7565b5086821015611b345760001960f88860031b161c19848701351681555b505060018560011b0183555b5050505050565b815167ffffffffffffffff811115611b6157611b61611a22565b611b7581611b6f84546118a7565b84611a38565b602080601f831160018114611baa5760008415611b925750858301515b600019600386901b1c1916600185901b178555611a7e565b600085815260208120601f198616915b82811015611bd957888601518255948401946001909101908401611bba565b5085821015611bf75787850151600019600388901b60f8161c191681555b5050505050600190811b0190555056fea26469706673582212209d4d6fea2165ace90b1c3d1e447efa1892069d59ba89547cba77a790711ed3f564736f6c634300080f0033537472696e67206d757374206e6f7420626520656d707479000000000000000068747470733a2f2f65787465726e616c2d636f6e74656e742e6475636b6475636b676f2e636f6d2f69752f3f753d6874747073253341253246253246692e70696e696d672e636f6d2532466f726967696e616c7325324632302532463065253246663825324632303065663832623331383266663735626630623264653534393665363163662e6a706726663d31266e6f66623d31608060405234801561001057600080fd5b506040516110b23803806110b283398101604081905261002f916100c6565b61003833610070565b600180546001600160a01b0383166001600160a81b031990911617905561006a60076100c0602090811b61097e17901c565b506100f6565b600080546001600160a01b038381166001600160a01b0319831681178455604051919092169283917f8be0079c531659141344cd1fd0a4f28419497f9722a3daafe3b4186f6b6457e09190a35050565b60009055565b6000602082840312156100d857600080fd5b81516001600160a01b03811681146100ef57600080fd5b9392505050565b610fad806101056000396000f3fe608060405234801561001057600080fd5b50600436106100a95760003560e01c806391de1ba31161007157806391de1ba314610118578063983c0a5b1461012b5780639f9f7f851461013e578063b8c3773f1461015f578063e3f75d1e14610167578063f2fde38b1461017a57600080fd5b806304a4d704146100ae578063139334af146100d6578063253a219f146100eb578063715018a6146100f35780638da5cb5b146100fd575b600080fd5b6100c16100bc366004610a63565b61018d565b60405190151581526020015b60405180910390f35b6100de6101e4565b6040516100cd9190610ae1565b6100de6103a8565b6100fb610530565b005b6000546040516001600160a01b0390911681526020016100cd565b6100fb610126366004610a63565b610566565b6100fb610139366004610c56565b6105f7565b61015161014c366004610a63565b610685565b6040519081526020016100cd565b6100de6106cc565b6100fb610175366004610a63565b610854565b6100fb610188366004610a63565b6108e6565b600080546001600160a01b031633146101c15760405162461bcd60e51b81526004016101b890610c80565b60405180910390fd5b506001600160a01b03811660009081526004602052604090205460ff165b919050565b6000546060906001600160a01b031633146102115760405162461bcd60e51b81526004016101b890610c80565b600061021c60075490565b905060008167ffffffffffffffff81111561023957610239610cb5565b60405190808252806020026020018201604052801561027257816020015b61025f6109d4565b8152602001906001900390816102575790505b50905060005b828110156103a15760006002828154811061029557610295610ccb565b60009182526020808320909101546001600160a01b0316808352600590915260409091205490915081901561038c57806001600160a01b031663f22b01276001610305600287815481106102eb576102eb610ccb565b6000918252602090912001546001600160a01b0316610685565b6040516001600160e01b031960e085901b16815291151560048301526024820152604401600060405180830381865afa158015610346573d6000803e3d6000fd5b505050506040513d6000823e601f3d908101601f1916820160405261036e9190810190610da3565b84848151811061038057610380610ccb565b60200260200101819052505b5050808061039990610f50565b915050610278565b5091505090565b6000546060906001600160a01b031633146103d55760405162461bcd60e51b81526004016101b890610c80565b60035460008167ffffffffffffffff8111156103f3576103f3610cb5565b60405190808252806020026020018201604052801561042c57816020015b6104196109d4565b8152602001906001900390816104115790505b50905060005b828110156103a15760006003828154811061044f5761044f610ccb565b9060005260206000200160009054906101000a90046001600160a01b03169050806001600160a01b031663f22b01276001610496600386815481106102eb576102eb610ccb565b6040516001600160e01b031960e085901b16815291151560048301526024820152604401600060405180830381865afa1580156104d7573d6000803e3d6000fd5b505050506040513d6000823e601f3d908101601f191682016040526104ff9190810190610da3565b83838151811061051157610511610ccb565b602002602001018190525050808061052890610f50565b915050610432565b6000546001600160a01b0316331461055a5760405162461bcd60e51b81526004016101b890610c80565b6105646000610984565b565b6000546001600160a01b031633146105905760405162461bcd60e51b81526004016101b890610c80565b6002805460018181019092557f405787fa12a823e0f2b7631cc41b3ba8828b3321ca811111fa75cd3aa3bb5ace0180546001600160a01b039093166001600160a01b031990931683179055600091825260046020526040909120805460ff19169091179055565b6000546001600160a01b031633146106215760405162461bcd60e51b81526004016101b890610c80565b60018110158015610633575060058111155b61063c57600080fd5b6001600160a01b038216600090815260056020526040812054900361066957610669600780546001019055565b6001600160a01b03909116600090815260056020526040902055565b600080546001600160a01b031633146106b05760405162461bcd60e51b81526004016101b890610c80565b506001600160a01b031660009081526005602052604090205490565b6000546060906001600160a01b031633146106f95760405162461bcd60e51b81526004016101b890610c80565b60025460008167ffffffffffffffff81111561071757610717610cb5565b60405190808252806020026020018201604052801561075057816020015b61073d6109d4565b8152602001906001900390816107355790505b50905060005b828110156103a15760006002828154811061077357610773610ccb565b9060005260206000200160009054906101000a90046001600160a01b03169050806001600160a01b031663f22b012760016107ba600286815481106102eb576102eb610ccb565b6040516001600160e01b031960e085901b16815291151560048301526024820152604401600060405180830381865afa1580156107fb573d6000803e3d6000fd5b505050506040513d6000823e601f3d908101601f191682016040526108239190810190610da3565b83838151811061083557610835610ccb565b602002602001018190525050808061084c90610f50565b915050610756565b6000546001600160a01b0316331461087e5760405162461bcd60e51b81526004016101b890610c80565b6001805460ff60a01b1916600160a01b1781556003805491820181556000527fc2575a0e9e593c00f959f8c92f12db2869c3395a3b0502d05e2516446f71f85b0180546001600160a01b0383166001600160a01b03199091161790556108e381610566565b50565b6000546001600160a01b031633146109105760405162461bcd60e51b81526004016101b890610c80565b6001600160a01b0381166109755760405162461bcd60e51b815260206004820152602660248201527f4f776e61626c653a206e6577206f776e657220697320746865207a65726f206160448201526564647265737360d01b60648201526084016101b8565b6108e381610984565b60009055565b600080546001600160a01b038381166001600160a01b0319831681178455604051919092169283917f8be0079c531659141344cd1fd0a4f28419497f9722a3daafe3b4186f6b6457e09190a35050565b604051806101e0016040528060008152602001606081526020016060815260200160608152602001606081526020016000815260200160008152602001600081526020016000815260200160008152602001606081526020016000151581526020016060815260200160608152602001600081525090565b80356001600160a01b03811681146101df57600080fd5b600060208284031215610a7557600080fd5b610a7e82610a4c565b9392505050565b60005b83811015610aa0578181015183820152602001610a88565b83811115610aaf576000848401525b50505050565b60008151808452610acd816020860160208601610a85565b601f01601f19169290920160200192915050565b60006020808301818452808551808352604092508286019150828160051b87010184880160005b83811015610c4857603f1989840301855281516101e08151855288820151818a870152610b3782870182610ab5565b9150508782015185820389870152610b4f8282610ab5565b91505060608083015186830382880152610b698382610ab5565b9250505060808083015186830382880152610b848382610ab5565b60a0858101519089015260c0808601519089015260e080860151908901526101008086015190890152610120808601519089015261014080860151898303828b015291945092509050610bd78382610ab5565b9250505061016080830151610bef8288018215159052565b50506101808083015186830382880152610c098382610ab5565b925050506101a08083015186830382880152610c258382610ab5565b6101c0948501519790940196909652505094870194925090860190600101610b08565b509098975050505050505050565b60008060408385031215610c6957600080fd5b610c7283610a4c565b946020939093013593505050565b6020808252818101527f4f776e61626c653a2063616c6c6572206973206e6f7420746865206f776e6572604082015260600190565b634e487b7160e01b600052604160045260246000fd5b634e487b7160e01b600052603260045260246000fd5b6040516101e0810167ffffffffffffffff81118282101715610d0557610d05610cb5565b60405290565b600082601f830112610d1c57600080fd5b815167ffffffffffffffff80821115610d3757610d37610cb5565b604051601f8301601f19908116603f01168101908282118183101715610d5f57610d5f610cb5565b81604052838152866020858801011115610d7857600080fd5b610d89846020830160208901610a85565b9695505050505050565b805180151581146101df57600080fd5b600060208284031215610db557600080fd5b815167ffffffffffffffff80821115610dcd57600080fd5b908301906101e08286031215610de257600080fd5b610dea610ce1565b82518152602083015182811115610e0057600080fd5b610e0c87828601610d0b565b602083015250604083015182811115610e2457600080fd5b610e3087828601610d0b565b604083015250606083015182811115610e4857600080fd5b610e5487828601610d0b565b606083015250608083015182811115610e6c57600080fd5b610e7887828601610d0b565b60808301525060a083015160a082015260c083015160c082015260e083015160e08201526101008084015181830152506101208084015181830152506101408084015183811115610ec857600080fd5b610ed488828701610d0b565b828401525050610160610ee8818501610d93565b908201526101808381015183811115610f0057600080fd5b610f0c88828701610d0b565b8284015250506101a08084015183811115610f2657600080fd5b610f3288828701610d0b565b91830191909152506101c09283015192810192909252509392505050565b600060018201610f7057634e487b7160e01b600052601160045260246000fd5b506001019056fea264697066735822122005206d1a0fae0d1e4a09081ec91ea4b1128b03cef32890d9f76126a45be0573264736f6c634300080f0033a2646970667358221220fc9740fdfe4af1e0e808d59f45c872ce44d2d0a014346d934ddb37add8a0769964736f6c634300080f0033",
    "sourcePath": "c:/Users/User/Documents/GitHub/SmartContracts/contracts/dAppstore.sol",
    "compiler": {
        "name": "solc",
        "version": "0.8.15+commit.e14f2714"
    },
    "functionHashes": {
        "createNewApp(string,string,string,string,string,uint256,string,string)": "2b07ac4c",
        "getAppBatch(uint256,uint256)": "7d6a24ab",
        "getAppCount()": "80109fea",
        "getPublishedAppsInfo()": "e9beca8e",
        "getPurchasedAppsInfo()": "8f89b46a",
        "getRatedAppsInfo()": "e0b8f2ae",
        "getUserRatingForApp(uint256)": "7fc442db",
        "purchaseApp(uint256)": "33e067a6",
        "rateApp(uint256,uint256)": "70b8fd92",
        "updateApp(uint256,string,string,string,string,uint256,string)": "9a9d793c"
    },
    "gasEstimates": {
        "creation": {
            "codeDepositCost": "4770400",
            "executionCost": "infinite",
            "totalCost": "infinite"
        },
        "external": {
            "createNewApp(string,string,string,string,string,uint256,string,string)": "infinite",
            "getAppBatch(uint256,uint256)": "infinite",
            "getAppCount()": "infinite",
            "getPublishedAppsInfo()": "infinite",
            "getPurchasedAppsInfo()": "infinite",
            "getRatedAppsInfo()": "infinite",
            "getUserRatingForApp(uint256)": "infinite",
            "purchaseApp(uint256)": "infinite",
            "rateApp(uint256,uint256)": "infinite",
            "updateApp(uint256,string,string,string,string,uint256,string)": "infinite"
        },
        "internal": {
            "createNewUser(address)": "infinite"
        }
    }
}