{
    "contractName": "dAppstore",
    "abi": [
        {
            "inputs": [],
            "stateMutability": "nonpayable",
            "type": "constructor"
        },
        {
            "inputs": [
                {
                    "internalType": "string",
                    "name": "_name",
                    "type": "string"
                },
                {
                    "internalType": "string",
                    "name": "_description",
                    "type": "string"
                },
                {
                    "internalType": "string",
                    "name": "_magnetLink",
                    "type": "string"
                },
                {
                    "internalType": "string",
                    "name": "_imgUrl",
                    "type": "string"
                },
                {
                    "internalType": "string",
                    "name": "_company",
                    "type": "string"
                },
                {
                    "internalType": "uint256",
                    "name": "_price",
                    "type": "uint256"
                },
                {
                    "internalType": "string",
                    "name": "_category",
                    "type": "string"
                },
                {
                    "internalType": "string",
                    "name": "_fileSha256",
                    "type": "string"
                }
            ],
            "name": "createNewApp",
            "outputs": [],
            "stateMutability": "nonpayable",
            "type": "function"
        },
        {
            "inputs": [
                {
                    "internalType": "uint256",
                    "name": "start",
                    "type": "uint256"
                },
                {
                    "internalType": "uint256",
                    "name": "len",
                    "type": "uint256"
                }
            ],
            "name": "getAppBatch",
            "outputs": [
                {
                    "components": [
                        {
                            "internalType": "uint256",
                            "name": "id",
                            "type": "uint256"
                        },
                        {
                            "internalType": "string",
                            "name": "name",
                            "type": "string"
                        },
                        {
                            "internalType": "string",
                            "name": "description",
                            "type": "string"
                        },
                        {
                            "internalType": "string",
                            "name": "imgUrl",
                            "type": "string"
                        },
                        {
                            "internalType": "string",
                            "name": "company",
                            "type": "string"
                        },
                        {
                            "internalType": "uint256",
                            "name": "price",
                            "type": "uint256"
                        },
                        {
                            "internalType": "uint256",
                            "name": "numRatings",
                            "type": "uint256"
                        },
                        {
                            "internalType": "uint256",
                            "name": "ratingInt",
                            "type": "uint256"
                        },
                        {
                            "internalType": "uint256",
                            "name": "ratingModulu",
                            "type": "uint256"
                        },
                        {
                            "internalType": "uint256",
                            "name": "userRating",
                            "type": "uint256"
                        },
                        {
                            "internalType": "string",
                            "name": "fileSha256",
                            "type": "string"
                        },
                        {
                            "internalType": "bool",
                            "name": "owned",
                            "type": "bool"
                        },
                        {
                            "internalType": "string",
                            "name": "magnetLink",
                            "type": "string"
                        },
                        {
                            "internalType": "string",
                            "name": "category",
                            "type": "string"
                        },
                        {
                            "internalType": "uint256",
                            "name": "publishTime",
                            "type": "uint256"
                        }
                    ],
                    "internalType": "struct AppInfoLibrary.AppInfo[]",
                    "name": "",
                    "type": "tuple[]"
                }
            ],
            "stateMutability": "view",
            "type": "function"
        },
        {
            "inputs": [],
            "name": "getAppCount",
            "outputs": [
                {
                    "internalType": "uint256",
                    "name": "",
                    "type": "uint256"
                }
            ],
            "stateMutability": "view",
            "type": "function"
        },
        {
            "inputs": [
                {
                    "internalType": "uint256",
                    "name": "_app_id",
                    "type": "uint256"
                }
            ],
            "name": "getAppRating",
            "outputs": [
                {
                    "internalType": "uint256",
                    "name": "",
                    "type": "uint256"
                },
                {
                    "internalType": "uint256",
                    "name": "",
                    "type": "uint256"
                },
                {
                    "internalType": "uint256",
                    "name": "",
                    "type": "uint256"
                }
            ],
            "stateMutability": "view",
            "type": "function"
        },
        {
            "inputs": [],
            "name": "getPublishedAppsInfo",
            "outputs": [
                {
                    "components": [
                        {
                            "internalType": "uint256",
                            "name": "id",
                            "type": "uint256"
                        },
                        {
                            "internalType": "string",
                            "name": "name",
                            "type": "string"
                        },
                        {
                            "internalType": "string",
                            "name": "description",
                            "type": "string"
                        },
                        {
                            "internalType": "string",
                            "name": "imgUrl",
                            "type": "string"
                        },
                        {
                            "internalType": "string",
                            "name": "company",
                            "type": "string"
                        },
                        {
                            "internalType": "uint256",
                            "name": "price",
                            "type": "uint256"
                        },
                        {
                            "internalType": "uint256",
                            "name": "numRatings",
                            "type": "uint256"
                        },
                        {
                            "internalType": "uint256",
                            "name": "ratingInt",
                            "type": "uint256"
                        },
                        {
                            "internalType": "uint256",
                            "name": "ratingModulu",
                            "type": "uint256"
                        },
                        {
                            "internalType": "uint256",
                            "name": "userRating",
                            "type": "uint256"
                        },
                        {
                            "internalType": "string",
                            "name": "fileSha256",
                            "type": "string"
                        },
                        {
                            "internalType": "bool",
                            "name": "owned",
                            "type": "bool"
                        },
                        {
                            "internalType": "string",
                            "name": "magnetLink",
                            "type": "string"
                        },
                        {
                            "internalType": "string",
                            "name": "category",
                            "type": "string"
                        },
                        {
                            "internalType": "uint256",
                            "name": "publishTime",
                            "type": "uint256"
                        }
                    ],
                    "internalType": "struct AppInfoLibrary.AppInfo[]",
                    "name": "",
                    "type": "tuple[]"
                }
            ],
            "stateMutability": "view",
            "type": "function"
        },
        {
            "inputs": [],
            "name": "getPurchasedAppsInfo",
            "outputs": [
                {
                    "components": [
                        {
                            "internalType": "uint256",
                            "name": "id",
                            "type": "uint256"
                        },
                        {
                            "internalType": "string",
                            "name": "name",
                            "type": "string"
                        },
                        {
                            "internalType": "string",
                            "name": "description",
                            "type": "string"
                        },
                        {
                            "internalType": "string",
                            "name": "imgUrl",
                            "type": "string"
                        },
                        {
                            "internalType": "string",
                            "name": "company",
                            "type": "string"
                        },
                        {
                            "internalType": "uint256",
                            "name": "price",
                            "type": "uint256"
                        },
                        {
                            "internalType": "uint256",
                            "name": "numRatings",
                            "type": "uint256"
                        },
                        {
                            "internalType": "uint256",
                            "name": "ratingInt",
                            "type": "uint256"
                        },
                        {
                            "internalType": "uint256",
                            "name": "ratingModulu",
                            "type": "uint256"
                        },
                        {
                            "internalType": "uint256",
                            "name": "userRating",
                            "type": "uint256"
                        },
                        {
                            "internalType": "string",
                            "name": "fileSha256",
                            "type": "string"
                        },
                        {
                            "internalType": "bool",
                            "name": "owned",
                            "type": "bool"
                        },
                        {
                            "internalType": "string",
                            "name": "magnetLink",
                            "type": "string"
                        },
                        {
                            "internalType": "string",
                            "name": "category",
                            "type": "string"
                        },
                        {
                            "internalType": "uint256",
                            "name": "publishTime",
                            "type": "uint256"
                        }
                    ],
                    "internalType": "struct AppInfoLibrary.AppInfo[]",
                    "name": "",
                    "type": "tuple[]"
                }
            ],
            "stateMutability": "view",
            "type": "function"
        },
        {
            "inputs": [],
            "name": "getRatedAppsInfo",
            "outputs": [
                {
                    "components": [
                        {
                            "internalType": "uint256",
                            "name": "id",
                            "type": "uint256"
                        },
                        {
                            "internalType": "string",
                            "name": "name",
                            "type": "string"
                        },
                        {
                            "internalType": "string",
                            "name": "description",
                            "type": "string"
                        },
                        {
                            "internalType": "string",
                            "name": "imgUrl",
                            "type": "string"
                        },
                        {
                            "internalType": "string",
                            "name": "company",
                            "type": "string"
                        },
                        {
                            "internalType": "uint256",
                            "name": "price",
                            "type": "uint256"
                        },
                        {
                            "internalType": "uint256",
                            "name": "numRatings",
                            "type": "uint256"
                        },
                        {
                            "internalType": "uint256",
                            "name": "ratingInt",
                            "type": "uint256"
                        },
                        {
                            "internalType": "uint256",
                            "name": "ratingModulu",
                            "type": "uint256"
                        },
                        {
                            "internalType": "uint256",
                            "name": "userRating",
                            "type": "uint256"
                        },
                        {
                            "internalType": "string",
                            "name": "fileSha256",
                            "type": "string"
                        },
                        {
                            "internalType": "bool",
                            "name": "owned",
                            "type": "bool"
                        },
                        {
                            "internalType": "string",
                            "name": "magnetLink",
                            "type": "string"
                        },
                        {
                            "internalType": "string",
                            "name": "category",
                            "type": "string"
                        },
                        {
                            "internalType": "uint256",
                            "name": "publishTime",
                            "type": "uint256"
                        }
                    ],
                    "internalType": "struct AppInfoLibrary.AppInfo[]",
                    "name": "",
                    "type": "tuple[]"
                }
            ],
            "stateMutability": "view",
            "type": "function"
        },
        {
            "inputs": [
                {
                    "internalType": "uint256",
                    "name": "_app_id",
                    "type": "uint256"
                }
            ],
            "name": "getUserRatingForApp",
            "outputs": [
                {
                    "internalType": "uint256",
                    "name": "",
                    "type": "uint256"
                }
            ],
            "stateMutability": "view",
            "type": "function"
        },
        {
            "inputs": [
                {
                    "internalType": "uint256",
                    "name": "app_id",
                    "type": "uint256"
                }
            ],
            "name": "purchaseApp",
            "outputs": [],
            "stateMutability": "payable",
            "type": "function"
        },
        {
            "inputs": [
                {
                    "internalType": "uint256",
                    "name": "_app_id",
                    "type": "uint256"
                },
                {
                    "internalType": "uint256",
                    "name": "new_rating",
                    "type": "uint256"
                }
            ],
            "name": "rateApp",
            "outputs": [],
            "stateMutability": "nonpayable",
            "type": "function"
        },
        {
            "inputs": [
                {
                    "internalType": "uint256",
                    "name": "app_id",
                    "type": "uint256"
                },
                {
                    "internalType": "string",
                    "name": "_name",
                    "type": "string"
                },
                {
                    "internalType": "string",
                    "name": "_description",
                    "type": "string"
                },
                {
                    "internalType": "string",
                    "name": "_magnetLink",
                    "type": "string"
                },
                {
                    "internalType": "string",
                    "name": "_imgUrl",
                    "type": "string"
                },
                {
                    "internalType": "uint256",
                    "name": "_price",
                    "type": "uint256"
                },
                {
                    "internalType": "string",
                    "name": "_fileSha256",
                    "type": "string"
                }
            ],
            "name": "updateApp",
            "outputs": [],
            "stateMutability": "nonpayable",
            "type": "function"
        }
    ],
    "bytecode": "608060405234801561001057600080fd5b50610025600461002a60201b6119751760201c565b610030565b60009055565b615d2f80620000406000396000f3fe608060405260043610620000a95760003560e01c80637fc442db116200006c5780637fc442db146200018a57806380109fea14620001be5780638f89b46a14620001d65780639a9d793c14620001ee578063e0b8f2ae1462000213578063e9beca8e146200022b57600080fd5b80632b07ac4c14620000ae5780632ce9a25f14620000d557806333e067a6146200011a57806370b8fd9214620001315780637d6a24ab1462000156575b600080fd5b348015620000bb57600080fd5b50620000d3620000cd36600462001cbe565b62000243565b005b348015620000e257600080fd5b50620000fa620000f436600462001df9565b6200041a565b604080519384526020840192909252908201526060015b60405180910390f35b620000d36200012b36600462001df9565b620005f3565b3480156200013e57600080fd5b50620000d36200015036600462001e13565b620009fb565b3480156200016357600080fd5b506200017b6200017536600462001e13565b62000bd1565b60405162000111919062001e97565b3480156200019757600080fd5b50620001af620001a936600462001df9565b62000f82565b60405190815260200162000111565b348015620001cb57600080fd5b50620001af6200119e565b348015620001e357600080fd5b506200017b620011b1565b348015620001fb57600080fd5b50620000d36200020d3660046200201d565b620012d6565b3480156200022057600080fd5b506200017b62001767565b3480156200023857600080fd5b506200017b62001883565b33600090815260036020526040908190205490516386bd3f9160e01b81526001600160a01b03909116600482015273__$4abe93d8f421c97b6c3dfbe9b44c8344ba$__906386bd3f9190602401602060405180830381865af4158015620002ae573d6000803e3d6000fd5b505050506040513d601f19601f82011682018060405250810190620002d4919062002128565b15620002e557620002e5336200197b565b6000620002f3600062001a21565b9050600081338b8b8b8b8b8b8b8b6040516200030f9062001ba4565b620003249a9998979695949392919062002146565b604051809103906000f08015801562000341573d6000803e3d6000fd5b509050620003526000838362001a2e565b5033600090815260036020526040908190205490516371fbae8f60e11b81526001600160a01b0383811660048301529091169063e3f75d1e90602401600060405180830381600087803b158015620003a957600080fd5b505af1158015620003be573d6000803e3d6000fd5b50505050336001600160a01b0316827f28522faef084eaf14884ca4dfb443eec1792a46a067e8af55ada5cd7e1cd03728c89888a8f6040516200040695949392919062002210565b60405180910390a350505050505050505050565b60008080836200042b828262001a4e565b620004535760405162461bcd60e51b81526004016200044a9062002277565b60405180910390fd5b6200046060008262001a63565b6040516386bd3f9160e01b81526001600160a01b03909116600482015273__$4abe93d8f421c97b6c3dfbe9b44c8344ba$__906386bd3f9190602401602060405180830381865af4158015620004ba573d6000803e3d6000fd5b505050506040513d601f19601f82011682018060405250810190620004e0919062002128565b15620005005760405162461bcd60e51b81526004016200044a906200229e565b60006200050e818762001a63565b9050600080826001600160a01b03166373b8fc806040518163ffffffff1660e01b81526004016040805180830381865afa15801562000551573d6000803e3d6000fd5b505050506040513d601f19601f82011682018060405250810190620005779190620022ca565b915091508181846001600160a01b031663d23fe7c76040518163ffffffff1660e01b8152600401602060405180830381865afa158015620005bc573d6000803e3d6000fd5b505050506040513d601f19601f82011682018060405250810190620005e29190620022ef565b965096509650505050509193909250565b806200060160008262001a4e565b620006205760405162461bcd60e51b81526004016200044a9062002277565b6200062d60008262001a63565b6040516386bd3f9160e01b81526001600160a01b03909116600482015273__$4abe93d8f421c97b6c3dfbe9b44c8344ba$__906386bd3f9190602401602060405180830381865af415801562000687573d6000803e3d6000fd5b505050506040513d601f19601f82011682018060405250810190620006ad919062002128565b15620006cd5760405162461bcd60e51b81526004016200044a906200229e565b33600081815260036020526040908190205490516386bd3f9160e01b81526001600160a01b03909116600482015273__$4abe93d8f421c97b6c3dfbe9b44c8344ba$__906386bd3f9190602401602060405180830381865af415801562000738573d6000803e3d6000fd5b505050506040513d601f19601f820116820180604052508101906200075e919062002128565b156200076f576200076f816200197b565b60006200077d818562001a63565b6001600160a01b038381166000908152600360205260409081902054905163012935c160e21b8152838316600482015292935016906304a4d70490602401602060405180830381865afa158015620007d9573d6000803e3d6000fd5b505050506040513d601f19601f82011682018060405250810190620007ff919062002128565b15620008445760405162461bcd60e51b815260206004820152601360248201527243616e2774206275792061707020747769636560681b60448201526064016200044a565b60008190506000816001600160a01b03166302d05d3f6040518163ffffffff1660e01b8152600401602060405180830381865afa1580156200088a573d6000803e3d6000fd5b505050506040513d601f19601f82011682018060405250810190620008b0919062002309565b6001600160a01b03163460405160006040518083038185875af1925050503d8060008114620008fc576040519150601f19603f3d011682016040523d82523d6000602084013e62000901565b606091505b50509050806200094b5760405162461bcd60e51b81526020600482015260146024820152732330b4b632b2103a379039b2b7321022ba3432b960611b60448201526064016200044a565b6001600160a01b03848116600090815260036020526040908190205490516391de1ba360e01b815285831660048201529116906391de1ba390602401600060405180830381600087803b158015620009a257600080fd5b505af1158015620009b7573d6000803e3d6000fd5b50506040516001600160a01b038087169350871691507fba9cb3f403a15fc11cbc07546f998c36867f843fa32a222ee76a41a9e6af7d0790600090a3505050505050565b336000908152600360205260408120546001600160a01b03169062000a21818562001a63565b604051639f9f7f8560e01b81526001600160a01b038083166004830152919250829160009190851690639f9f7f8590602401602060405180830381865afa15801562000a71573d6000803e3d6000fd5b505050506040513d601f19601f8201168201806040525081019062000a979190620022ef565b60405163983c0a5b60e01b81526001600160a01b038581166004830152602482018890529192509085169063983c0a5b90604401600060405180830381600087803b15801562000ae657600080fd5b505af115801562000afb573d6000803e3d6000fd5b505060405163385c7ec960e11b815260048101889052602481018490526000925082915081906001600160a01b038616906370b8fd92906044016060604051808303816000875af115801562000b55573d6000803e3d6000fd5b505050506040513d601f19601f8201168201806040525081019062000b7b919062002334565b6040805184815260208101849052908101829052929550909350915089907f4686fd5d77ea9a1984201e56edd878f506e82fdb6401d0bf70543d172ef37a739060600160405180910390a2505050505050505050565b606082826000811162000c185760405162461bcd60e51b815260206004820152600e60248201526d092dcecc2d8d2c840d8cadccee8d60931b60448201526064016200044a565b336000908152600360205260408082205490516386bd3f9160e01b81526001600160a01b03909116600482015273__$4abe93d8f421c97b6c3dfbe9b44c8344ba$__906386bd3f9190602401602060405180830381865af415801562000c82573d6000803e3d6000fd5b505050506040513d601f19601f8201168201806040525081019062000ca8919062002128565b159050600062000cb9600062001a21565b9050600081871062000ccc578162000cce565b865b905060008167ffffffffffffffff81111562000cee5762000cee62001bc0565b60405190808252806020026020018201604052801562000d9d57816020015b62000d89604051806101e0016040528060008152602001606081526020016060815260200160608152602001606081526020016000815260200160008152602001600081526020016000815260200160008152602001606081526020016000151581526020016060815260200160608152602001600081525090565b81526020019060019003908162000d0d5790505b50905087821115801562000db15750828211155b62000df05760405162461bcd60e51b815260206004820152600e60248201526d1b5a5b9a5b5d5b4819985a5b195960921b60448201526064016200044a565b60005b8281101562000f755760008462000e0b838d62002379565b62000e17919062002394565b9050600062000e27818362001a63565b9050600087801562000eb35750336000908152600360205260409081902054905163012935c160e21b81526001600160a01b038481166004830152909116906304a4d70490602401602060405180830381865afa15801562000e8d573d6000803e3d6000fd5b505050506040513d601f19601f8201168201806040525081019062000eb3919062002128565b9050816001600160a01b031663f22b01278262000ed08662000f82565b6040516001600160e01b031960e085901b16815291151560048301526024820152604401600060405180830381865afa15801562000f12573d6000803e3d6000fd5b505050506040513d6000823e601f3d908101601f1916820160405262000f3c9190810190620025ae565b85858151811062000f515762000f51620025e7565b6020026020010181905250505050808062000f6c90620025fd565b91505062000df3565b5098975050505050505050565b60008162000f91828262001a4e565b62000fb05760405162461bcd60e51b81526004016200044a9062002277565b62000fbd60008262001a63565b6040516386bd3f9160e01b81526001600160a01b03909116600482015273__$4abe93d8f421c97b6c3dfbe9b44c8344ba$__906386bd3f9190602401602060405180830381865af415801562001017573d6000803e3d6000fd5b505050506040513d601f19601f820116820180604052508101906200103d919062002128565b156200105d5760405162461bcd60e51b81526004016200044a906200229e565b33600090815260036020526040908190205490516386bd3f9160e01b81526001600160a01b03909116600482015273__$4abe93d8f421c97b6c3dfbe9b44c8344ba$__906386bd3f9190602401602060405180830381865af4158015620010c8573d6000803e3d6000fd5b505050506040513d601f19601f82011682018060405250810190620010ee919062002128565b15620010fe576000915062001198565b336000908152600360205260408120546001600160a01b031690639f9f7f85906200112a908662001a63565b6040516001600160e01b031960e084901b1681526001600160a01b039091166004820152602401602060405180830381865afa1580156200116f573d6000803e3d6000fd5b505050506040513d601f19601f82011682018060405250810190620011959190620022ef565b91505b50919050565b6000620011ac600062001a21565b905090565b33600090815260036020526040908190205490516386bd3f9160e01b81526001600160a01b03909116600482015260609073__$4abe93d8f421c97b6c3dfbe9b44c8344ba$__906386bd3f9190602401602060405180830381865af41580156200121f573d6000803e3d6000fd5b505050506040513d601f19601f8201168201806040525081019062001245919062002128565b15620012515750606090565b3360009081526003602052604080822054815163b8c3773f60e01b815291516001600160a01b039091169163b8c3773f91600480830192869291908290030181865afa158015620012a6573d6000803e3d6000fd5b505050506040513d6000823e601f3d908101601f19168201604052620012d0919081019062002619565b92915050565b6040516386bd3f9160e01b815233600482018190529073__$4abe93d8f421c97b6c3dfbe9b44c8344ba$__906386bd3f9190602401602060405180830381865af415801562001329573d6000803e3d6000fd5b505050506040513d601f19601f820116820180604052508101906200134f919062002128565b156200138d5760405162461bcd60e51b815260206004820152600c60248201526b24b73b30b634b21030b2323960a11b60448201526064016200044a565b6001600160a01b03818116600090815260036020526040908190205490516386bd3f9160e01b81529116600482015273__$4abe93d8f421c97b6c3dfbe9b44c8344ba$__906386bd3f9190602401602060405180830381865af4158015620013f9573d6000803e3d6000fd5b505050506040513d601f19601f820116820180604052508101906200141f919062002128565b156200145f5760405162461bcd60e51b815260206004820152600e60248201526d155cd95c881b9bdd08199bdd5b9960921b60448201526064016200044a565b876200146d60008262001a4e565b6200148c5760405162461bcd60e51b81526004016200044a9062002277565b6200149960008262001a63565b6040516386bd3f9160e01b81526001600160a01b03909116600482015273__$4abe93d8f421c97b6c3dfbe9b44c8344ba$__906386bd3f9190602401602060405180830381865af4158015620014f3573d6000803e3d6000fd5b505050506040513d601f19601f8201168201806040525081019062001519919062002128565b15620015395760405162461bcd60e51b81526004016200044a906200229e565b6040516386bd3f9160e01b815233600482018190528a9173__$4abe93d8f421c97b6c3dfbe9b44c8344ba$__906386bd3f9190602401602060405180830381865af41580156200158d573d6000803e3d6000fd5b505050506040513d601f19601f82011682018060405250810190620015b3919062002128565b15620015f15760405162461bcd60e51b815260206004820152600c60248201526b24b73b30b634b21030b2323960a11b60448201526064016200044a565b620015fe60008362001a63565b6001600160a01b03166302d05d3f6040518163ffffffff1660e01b8152600401602060405180830381865afa1580156200163c573d6000803e3d6000fd5b505050506040513d601f19601f8201168201806040525081019062001662919062002309565b6001600160a01b0316816001600160a01b031614620016b75760405162461bcd60e51b815260206004820152601060248201526f3737ba1031b932b0ba37b91030b2323960811b60448201526064016200044a565b620016c460008c62001a63565b6001600160a01b0316634367d32e8b8b8b8b8b8b6040518763ffffffff1660e01b8152600401620016fb96959493929190620026ea565b600060405180830381600087803b1580156200171657600080fd5b505af11580156200172b573d6000803e3d6000fd5b50506040518d92507ff3814c1d792326703a86a099c4d66da2daf90ff42781dabace6b0ecb4510cca39150600090a25050505050505050505050565b33600090815260036020526040908190205490516386bd3f9160e01b81526001600160a01b03909116600482015260609073__$4abe93d8f421c97b6c3dfbe9b44c8344ba$__906386bd3f9190602401602060405180830381865af4158015620017d5573d6000803e3d6000fd5b505050506040513d601f19601f82011682018060405250810190620017fb919062002128565b15620018075750606090565b3360009081526003602052604080822054815163139334af60e01b815291516001600160a01b039091169263139334af92600480820193918290030181865afa15801562001859573d6000803e3d6000fd5b505050506040513d6000823e601f3d908101601f19168201604052620011ac919081019062002619565b33600090815260036020526040908190205490516386bd3f9160e01b81526001600160a01b03909116600482015260609073__$4abe93d8f421c97b6c3dfbe9b44c8344ba$__906386bd3f9190602401602060405180830381865af4158015620018f1573d6000803e3d6000fd5b505050506040513d601f19601f8201168201806040525081019062001917919062002128565b15620019235750606090565b3360009081526003602052604080822054815163253a219f60e01b815291516001600160a01b039091169263253a219f92600480820193918290030181865afa15801562001859573d6000803e3d6000fd5b60009055565b6200198a600480546001019055565b80604051620019999062001bb2565b6001600160a01b039091168152602001604051809103906000f080158015620019c6573d6000803e3d6000fd5b506001600160a01b0382811660008181526003602052604080822080546001600160a01b03191695909416948517909355915190917f263d398af3bd0e797da25e9dc29a23286e999826d13a16fca996d1ddd1eb528191a350565b6000620012d08262001a71565b600062001a4684846001600160a01b03851662001a7e565b949350505050565b600062001a5c838362001a9d565b9392505050565b600062001a5c838362001aab565b6000620012d08262001b20565b6000828152600284016020526040812082905562001a46848462001b2b565b600062001a5c838362001b39565b60008181526002830160205260408120548015158062001ad2575062001ad2848462001a9d565b62001a5c5760405162461bcd60e51b815260206004820152601e60248201527f456e756d657261626c654d61703a206e6f6e6578697374656e74206b6579000060448201526064016200044a565b6000620012d0825490565b600062001a5c838362001b52565b6000818152600183016020526040812054151562001a5c565b600081815260018301602052604081205462001b9b57508154600181810184556000848152602080822090930184905584548482528286019093526040902091909155620012d0565b506000620012d0565b6124ec806200275c83390190565b6110b28062004c4883390190565b634e487b7160e01b600052604160045260246000fd5b6040516101e0810167ffffffffffffffff8111828210171562001bfd5762001bfd62001bc0565b60405290565b604051601f8201601f1916810167ffffffffffffffff8111828210171562001c2f5762001c2f62001bc0565b604052919050565b600067ffffffffffffffff82111562001c545762001c5462001bc0565b50601f01601f191660200190565b600082601f83011262001c7457600080fd5b813562001c8b62001c858262001c37565b62001c03565b81815284602083860101111562001ca157600080fd5b816020850160208301376000918101602001919091529392505050565b600080600080600080600080610100898b03121562001cdc57600080fd5b883567ffffffffffffffff8082111562001cf557600080fd5b62001d038c838d0162001c62565b995060208b013591508082111562001d1a57600080fd5b62001d288c838d0162001c62565b985060408b013591508082111562001d3f57600080fd5b62001d4d8c838d0162001c62565b975060608b013591508082111562001d6457600080fd5b62001d728c838d0162001c62565b965060808b013591508082111562001d8957600080fd5b62001d978c838d0162001c62565b955060a08b0135945060c08b013591508082111562001db557600080fd5b62001dc38c838d0162001c62565b935060e08b013591508082111562001dda57600080fd5b5062001de98b828c0162001c62565b9150509295985092959890939650565b60006020828403121562001e0c57600080fd5b5035919050565b6000806040838503121562001e2757600080fd5b50508035926020909101359150565b60005b8381101562001e5357818101518382015260200162001e39565b8381111562001e63576000848401525b50505050565b6000815180845262001e8381602086016020860162001e36565b601f01601f19169290920160200192915050565b60006020808301818452808551808352604092508286019150828160051b87010184880160005b838110156200200f57603f1989840301855281516101e08151855288820151818a87015262001ef08287018262001e69565b915050878201518582038987015262001f0a828262001e69565b9150506060808301518683038288015262001f26838262001e69565b925050506080808301518683038288015262001f43838262001e69565b60a0858101519089015260c0808601519089015260e080860151908901526101008086015190890152610120808601519089015261014080860151898303828b01529194509250905062001f98838262001e69565b925050506101608083015162001fb18288018215159052565b5050610180808301518683038288015262001fcd838262001e69565b925050506101a0808301518683038288015262001feb838262001e69565b6101c094850151979094019690965250509487019492509086019060010162001ebe565b509098975050505050505050565b600080600080600080600060e0888a0312156200203957600080fd5b87359650602088013567ffffffffffffffff808211156200205957600080fd5b620020678b838c0162001c62565b975060408a01359150808211156200207e57600080fd5b6200208c8b838c0162001c62565b965060608a0135915080821115620020a357600080fd5b620020b18b838c0162001c62565b955060808a0135915080821115620020c857600080fd5b620020d68b838c0162001c62565b945060a08a0135935060c08a0135915080821115620020f457600080fd5b50620021038a828b0162001c62565b91505092959891949750929550565b805180151581146200212357600080fd5b919050565b6000602082840312156200213b57600080fd5b62001a5c8262002112565b8a81526001600160a01b038a16602082015261014060408201819052600090620021738382018c62001e69565b9050828103606084015262002189818b62001e69565b905082810360808401526200219f818a62001e69565b905082810360a0840152620021b5818962001e69565b905082810360c0840152620021cb818862001e69565b90508560e0840152828103610100840152620021e8818662001e69565b9050828103610120840152620021ff818562001e69565b9d9c50505050505050505050505050565b60a0815260006200222560a083018862001e69565b828103602084015262002239818862001e69565b905082810360408401526200224f818762001e69565b905084606084015282810360808401526200226b818562001e69565b98975050505050505050565b6020808252600d908201526c105c1c081b9bdd08199bdd5b99609a1b604082015260600190565b60208082526012908201527141707020646f656e7327742065786973747360701b604082015260600190565b60008060408385031215620022de57600080fd5b505080516020909101519092909150565b6000602082840312156200230257600080fd5b5051919050565b6000602082840312156200231c57600080fd5b81516001600160a01b038116811462001a5c57600080fd5b6000806000606084860312156200234a57600080fd5b8351925060208401519150604084015190509250925092565b634e487b7160e01b600052601160045260246000fd5b600082198211156200238f576200238f62002363565b500190565b600082620023b257634e487b7160e01b600052601260045260246000fd5b500690565b600082601f830112620023c957600080fd5b8151620023da62001c858262001c37565b818152846020838601011115620023f057600080fd5b62001a4682602083016020870162001e36565b60006101e082840312156200241757600080fd5b6200242162001bd6565b905081518152602082015167ffffffffffffffff808211156200244357600080fd5b6200245185838601620023b7565b602084015260408401519150808211156200246b57600080fd5b6200247985838601620023b7565b604084015260608401519150808211156200249357600080fd5b620024a185838601620023b7565b60608401526080840151915080821115620024bb57600080fd5b620024c985838601620023b7565b608084015260a084015160a084015260c084015160c084015260e084015160e08401526101009150818401518284015261012091508184015182840152610140915081840151818111156200251d57600080fd5b6200252b86828701620023b7565b838501525061016091506200254282850162002112565b82840152610180915081840151818111156200255d57600080fd5b6200256b86828701620023b7565b83850152506101a0915081840151818111156200258757600080fd5b6200259586828701620023b7565b838501525050506101c080830151818301525092915050565b600060208284031215620025c157600080fd5b815167ffffffffffffffff811115620025d957600080fd5b62001a468482850162002403565b634e487b7160e01b600052603260045260246000fd5b60006001820162002612576200261262002363565b5060010190565b600060208083850312156200262d57600080fd5b825167ffffffffffffffff808211156200264657600080fd5b818501915085601f8301126200265b57600080fd5b81518181111562002670576200267062001bc0565b8060051b6200268185820162001c03565b91825283810185019185810190898411156200269c57600080fd5b86860192505b83831015620026dd57825185811115620026bc5760008081fd5b620026cc8b89838a010162002403565b8352509186019190860190620026a2565b9998505050505050505050565b60c081526000620026ff60c083018962001e69565b828103602084015262002713818962001e69565b9050828103604084015262002729818862001e69565b905082810360608401526200273f818762001e69565b905084608084015282810360a0840152620026dd818562001e6956fe60806040523480156200001157600080fd5b50604051620024ec380380620024ec8339810160408190526200003491620006b1565b6200003f3362000564565b896200004f565b60405180910390fd5b8360008111620000a25760405162461bcd60e51b815260206004820152601c60248201527f5072696365206d7573742062652067726561746572207468616e203000000000604482015260640162000046565b60405163139a0e4560e11b81528a9073__$2ef198253e5209528d081d789aa7dfe759$__906327341c8a90620000dd9084906004016200080a565b602060405180830381865af4158015620000fb573d6000803e3d6000fd5b505050506040513d601f19601f820116820180604052508101906200012191906200083f565b156200015f5760405162461bcd60e51b8152602060048201526018602482015260008051602062002437833981519152604482015260640162000046565b60405163139a0e4560e11b8152899073__$2ef198253e5209528d081d789aa7dfe759$__906327341c8a906200019a9084906004016200080a565b602060405180830381865af4158015620001b8573d6000803e3d6000fd5b505050506040513d601f19601f82011682018060405250810190620001de91906200083f565b156200021c5760405162461bcd60e51b8152602060048201526018602482015260008051602062002437833981519152604482015260640162000046565b60405163139a0e4560e11b8152869073__$2ef198253e5209528d081d789aa7dfe759$__906327341c8a90620002579084906004016200080a565b602060405180830381865af415801562000275573d6000803e3d6000fd5b505050506040513d601f19601f820116820180604052508101906200029b91906200083f565b15620002d95760405162461bcd60e51b8152602060048201526018602482015260008051602062002437833981519152604482015260640162000046565b60405163139a0e4560e11b8152869073__$2ef198253e5209528d081d789aa7dfe759$__906327341c8a90620003149084906004016200080a565b602060405180830381865af415801562000332573d6000803e3d6000fd5b505050506040513d601f19601f820116820180604052508101906200035891906200083f565b15620003965760405162461bcd60e51b8152602060048201526018602482015260008051602062002437833981519152604482015260640162000046565b8e600260006101000a8154816001600160a01b0302191690836001600160a01b031602179055508f6001819055508d60039081620003d59190620008f9565b506004620003e48e82620008f9565b506006620003f38d82620008f9565b506007620004028c82620008f9565b5060405163139a0e4560e11b815273__$2ef198253e5209528d081d789aa7dfe759$__906327341c8a906200043c908e906004016200080a565b602060405180830381865af41580156200045a573d6000803e3d6000fd5b505050506040513d601f19601f820116820180604052508101906200048091906200083f565b15620004b1576040518060c00160405280609581526020016200245760959139600790620004af9082620008f9565b505b6008620004bf8b82620008f9565b5060006009819055600a819055600b8a90556005805460018101825591527f036b6384b5eca791c62761152d0c79bb0604c104a5fb6f4eb0703f3154bb3db0016200050b8882620008f9565b5062000523600e620005b460201b62000e651760201c565b6200053a600f620005b460201b62000e651760201c565b600c620005488982620008f9565b505042600d5550620009c59d5050505050505050505050505050565b600080546001600160a01b038381166001600160a01b0319831681178455604051919092169283917f8be0079c531659141344cd1fd0a4f28419497f9722a3daafe3b4186f6b6457e09190a35050565b60009055565b80516001600160a01b0381168114620005d257600080fd5b919050565b634e487b7160e01b600052604160045260246000fd5b60005b838110156200060a578181015183820152602001620005f0565b838111156200061a576000848401525b50505050565b600082601f8301126200063257600080fd5b81516001600160401b03808211156200064f576200064f620005d7565b604051601f8301601f19908116603f011681019082821181831017156200067a576200067a620005d7565b816040528381528660208588010111156200069457600080fd5b620006a7846020830160208901620005ed565b9695505050505050565b6000806000806000806000806000806101408b8d031215620006d257600080fd5b8a519950620006e460208c01620005ba565b60408c01519099506001600160401b03808211156200070257600080fd5b620007108e838f0162000620565b995060608d01519150808211156200072757600080fd5b620007358e838f0162000620565b985060808d01519150808211156200074c57600080fd5b6200075a8e838f0162000620565b975060a08d01519150808211156200077157600080fd5b6200077f8e838f0162000620565b965060c08d01519150808211156200079657600080fd5b620007a48e838f0162000620565b955060e08d015194506101008d0151915080821115620007c357600080fd5b620007d18e838f0162000620565b93506101208d0151915080821115620007e957600080fd5b50620007f88d828e0162000620565b9150509295989b9194979a5092959850565b60208152600082518060208401526200082b816040850160208701620005ed565b601f01601f19169190910160400192915050565b6000602082840312156200085257600080fd5b815180151581146200086357600080fd5b9392505050565b600181811c908216806200087f57607f821691505b602082108103620008a057634e487b7160e01b600052602260045260246000fd5b50919050565b601f821115620008f457600081815260208120601f850160051c81016020861015620008cf5750805b601f850160051c820191505b81811015620008f057828155600101620008db565b5050505b505050565b81516001600160401b03811115620009155762000915620005d7565b6200092d816200092684546200086a565b84620008a6565b602080601f8311600181146200096557600084156200094c5750858301515b600019600386901b1c1916600185901b178555620008f0565b600085815260208120601f198616915b82811015620009965788860151825594840194600190910190840162000975565b5085821015620009b55787850151600019600388901b60f8161c191681555b5050505050600190811b01905550565b611a6280620009d56000396000f3fe608060405234801561001057600080fd5b50600436106101165760003560e01c80638da5cb5b116100a2578063d23fe7c711610071578063d23fe7c71461021b578063d68387c714610225578063f22b01271461022d578063f2fde38b1461024d578063fabec44a1461026057600080fd5b80638da5cb5b146101f0578063a035b1fe14610201578063a512bd791461020a578063af640d0f1461021257600080fd5b80636904c94d116100e95780636904c94d1461018d57806370b8fd9214610195578063715018a6146101c35780637284e416146101cb57806373b8fc80146101d357600080fd5b806302d05d3f1461011b57806306fdde031461014b57806334b1a7cc146101605780634367d32e14610178575b600080fd5b60025461012e906001600160a01b031681565b6040516001600160a01b0390911681526020015b60405180910390f35b610153610268565b604051610142919061139d565b600f5461016a9081565b604051908152602001610142565b61018b610186366004611400565b6102f6565b005b610153610728565b6101a86101a33660046114fd565b610735565b60408051938452602084019290925290820152606001610142565b61018b610833565b610153610869565b6101db610876565b60408051928352602083019190915201610142565b6000546001600160a01b031661012e565b61016a600b5481565b610153610898565b61016a60015481565b600e5461016a9081565b6101536108a5565b61024061023b36600461152d565b6108b2565b6040516101429190611559565b61018b61025b3660046116a3565b610d0e565b610153610da9565b60038054610275906116cc565b80601f01602080910402602001604051908101604052809291908181526020018280546102a1906116cc565b80156102ee5780601f106102c3576101008083540402835291602001916102ee565b820191906000526020600020905b8154815290600101906020018083116102d157829003601f168201915b505050505081565b6000546001600160a01b031633146103295760405162461bcd60e51b815260040161032090611706565b60405180910390fd5b8a8a8080601f0160208091040260200160405190810160405280939291908181526020018383808284376000920191909152505060405163139a0e4560e11b815273__$2ef198253e5209528d081d789aa7dfe759$__936327341c8a935061039592509060040161139d565b602060405180830381865af41580156103b2573d6000803e3d6000fd5b505050506040513d601f19601f820116820180604052508101906103d6919061173b565b6103e4576103e48b8b610e6b565b88888080601f0160208091040260200160405190810160405280939291908181526020018383808284376000920191909152505060405163139a0e4560e11b815273__$2ef198253e5209528d081d789aa7dfe759$__936327341c8a935061045092509060040161139d565b602060405180830381865af415801561046d573d6000803e3d6000fd5b505050506040513d601f19601f82011682018060405250810190610491919061173b565b61049f5761049f8989610f49565b86868080601f0160208091040260200160405190810160405280939291908181526020018383808284376000920191909152505060405163139a0e4560e11b815273__$2ef198253e5209528d081d789aa7dfe759$__936327341c8a935061050b92509060040161139d565b602060405180830381865af4158015610528573d6000803e3d6000fd5b505050506040513d601f19601f8201168201806040525081019061054c919061173b565b158015610603575081818080601f0160208091040260200160405190810160405280939291908181526020018383808284376000920191909152505060405163139a0e4560e11b815273__$2ef198253e5209528d081d789aa7dfe759$__936327341c8a93506105c092509060040161139d565b602060405180830381865af41580156105dd573d6000803e3d6000fd5b505050506040513d601f19601f82011682018060405250810190610601919061173b565b155b15610651576106128787611021565b61065182828080601f0160208091040260200160405190810160405280939291908181526020018383808284376000920191909152506110f992505050565b84848080601f0160208091040260200160405190810160405280939291908181526020018383808284376000920191909152505060405163139a0e4560e11b815273__$2ef198253e5209528d081d789aa7dfe759$__936327341c8a93506106bd92509060040161139d565b602060405180830381865af41580156106da573d6000803e3d6000fd5b505050506040513d601f19601f820116820180604052508101906106fe919061173b565b61070c5761070c85856111d1565b821561071b5761071b836112a9565b5050505050505050505050565b60088054610275906116cc565b60008080336001600160a01b03166107556000546001600160a01b031690565b6001600160a01b03161461077b5760405162461bcd60e51b815260040161032090611706565b83600581111561078a57600080fd5b85600581111561079957600080fd5b6000600a546107a7600e5490565b6009546107b4919061176e565b6107be919061178d565b9050866000036107d6576107d6600e80546001019055565b6107e0888261178d565b90506107ec87826117a5565b90506107f7600e5490565b61080190826117d2565b600955600e5461081190826117e6565b600a81905560095490610823600e5490565b9550955095505050509250925092565b6000546001600160a01b0316331461085d5760405162461bcd60e51b815260040161032090611706565b6108676000611300565b565b60048054610275906116cc565b60008060006009541161088c5750600091829150565b5050600954600a549091565b60068054610275906116cc565b60078054610275906116cc565b61092d604051806101e0016040528060008152602001606081526020016060815260200160608152602001606081526020016000815260200160008152602001600081526020016000815260200160008152602001606081526020016000151581526020016060815260200160608152602001600081525090565b6000604051806101e00160405280600154815260200160038054610950906116cc565b80601f016020809104026020016040519081016040528092919081815260200182805461097c906116cc565b80156109c95780601f1061099e576101008083540402835291602001916109c9565b820191906000526020600020905b8154815290600101906020018083116109ac57829003601f168201915b50505050508152602001600480546109e0906116cc565b80601f0160208091040260200160405190810160405280929190818152602001828054610a0c906116cc565b8015610a595780601f10610a2e57610100808354040283529160200191610a59565b820191906000526020600020905b815481529060010190602001808311610a3c57829003601f168201915b5050505050815260200160078054610a70906116cc565b80601f0160208091040260200160405190810160405280929190818152602001828054610a9c906116cc565b8015610ae95780601f10610abe57610100808354040283529160200191610ae9565b820191906000526020600020905b815481529060010190602001808311610acc57829003601f168201915b5050505050815260200160088054610b00906116cc565b80601f0160208091040260200160405190810160405280929190818152602001828054610b2c906116cc565b8015610b795780601f10610b4e57610100808354040283529160200191610b79565b820191906000526020600020905b815481529060010190602001808311610b5c57829003601f168201915b50505050508152602001600b548152602001610b94600e5490565b81526020016009548152602001600a548152602001848152602001610bb7610da9565b8152602001851515815260200185610bde5760405180602001604052806000815250610c6a565b60068054610beb906116cc565b80601f0160208091040260200160405190810160405280929190818152602001828054610c17906116cc565b8015610c645780601f10610c3957610100808354040283529160200191610c64565b820191906000526020600020905b815481529060010190602001808311610c4757829003601f168201915b50505050505b8152602001600c8054610c7c906116cc565b80601f0160208091040260200160405190810160405280929190818152602001828054610ca8906116cc565b8015610cf55780601f10610cca57610100808354040283529160200191610cf5565b820191906000526020600020905b815481529060010190602001808311610cd857829003601f168201915b5050509183525050600d54602090910152949350505050565b6000546001600160a01b03163314610d385760405162461bcd60e51b815260040161032090611706565b6001600160a01b038116610d9d5760405162461bcd60e51b815260206004820152602660248201527f4f776e61626c653a206e6577206f776e657220697320746865207a65726f206160448201526564647265737360d01b6064820152608401610320565b610da681611300565b50565b6005805460609190610dbd906001906117a5565b81548110610dcd57610dcd6117fa565b906000526020600020018054610de2906116cc565b80601f0160208091040260200160405190810160405280929190818152602001828054610e0e906116cc565b8015610e5b5780601f10610e3057610100808354040283529160200191610e5b565b820191906000526020600020905b815481529060010190602001808311610e3e57829003601f168201915b5050505050905090565b60009055565b81818080601f0160208091040260200160405190810160405280939291908181526020018383808284376000920191909152505060405163139a0e4560e11b815273__$2ef198253e5209528d081d789aa7dfe759$__92506327341c8a9150610ed890849060040161139d565b602060405180830381865af4158015610ef5573d6000803e3d6000fd5b505050506040513d601f19601f82011682018060405250810190610f19919061173b565b15610f365760405162461bcd60e51b815260040161032090611810565b6003610f438385836118ab565b50505050565b81818080601f0160208091040260200160405190810160405280939291908181526020018383808284376000920191909152505060405163139a0e4560e11b815273__$2ef198253e5209528d081d789aa7dfe759$__92506327341c8a9150610fb690849060040161139d565b602060405180830381865af4158015610fd3573d6000803e3d6000fd5b505050506040513d601f19601f82011682018060405250810190610ff7919061173b565b156110145760405162461bcd60e51b815260040161032090611810565b6004610f438385836118ab565b81818080601f0160208091040260200160405190810160405280939291908181526020018383808284376000920191909152505060405163139a0e4560e11b815273__$2ef198253e5209528d081d789aa7dfe759$__92506327341c8a915061108e90849060040161139d565b602060405180830381865af41580156110ab573d6000803e3d6000fd5b505050506040513d601f19601f820116820180604052508101906110cf919061173b565b156110ec5760405162461bcd60e51b815260040161032090611810565b6006610f438385836118ab565b60405163139a0e4560e11b8152819073__$2ef198253e5209528d081d789aa7dfe759$__906327341c8a9061113290849060040161139d565b602060405180830381865af415801561114f573d6000803e3d6000fd5b505050506040513d601f19601f82011682018060405250810190611173919061173b565b156111905760405162461bcd60e51b815260040161032090611810565b600580546001810182556000919091527f036b6384b5eca791c62761152d0c79bb0604c104a5fb6f4eb0703f3154bb3db0016111cc838261196c565b505050565b81818080601f0160208091040260200160405190810160405280939291908181526020018383808284376000920191909152505060405163139a0e4560e11b815273__$2ef198253e5209528d081d789aa7dfe759$__92506327341c8a915061123e90849060040161139d565b602060405180830381865af415801561125b573d6000803e3d6000fd5b505050506040513d601f19601f8201168201806040525081019061127f919061173b565b1561129c5760405162461bcd60e51b815260040161032090611810565b6007610f438385836118ab565b80600081116112fa5760405162461bcd60e51b815260206004820152601c60248201527f5072696365206d7573742062652067726561746572207468616e2030000000006044820152606401610320565b50600b55565b600080546001600160a01b038381166001600160a01b0319831681178455604051919092169283917f8be0079c531659141344cd1fd0a4f28419497f9722a3daafe3b4186f6b6457e09190a35050565b6000815180845260005b818110156113765760208185018101518683018201520161135a565b81811115611388576000602083870101525b50601f01601f19169290920160200192915050565b6020815260006113b06020830184611350565b9392505050565b60008083601f8401126113c957600080fd5b50813567ffffffffffffffff8111156113e157600080fd5b6020830191508360208285010111156113f957600080fd5b9250929050565b600080600080600080600080600080600060c08c8e03121561142157600080fd5b67ffffffffffffffff808d35111561143857600080fd5b6114458e8e358f016113b7565b909c509a5060208d013581101561145b57600080fd5b61146b8e60208f01358f016113b7565b909a50985060408d013581101561148157600080fd5b6114918e60408f01358f016113b7565b909850965060608d01358110156114a757600080fd5b6114b78e60608f01358f016113b7565b909650945060808d0135935060a08d01358110156114d457600080fd5b506114e58d60a08e01358e016113b7565b81935080925050509295989b509295989b9093969950565b6000806040838503121561151057600080fd5b50508035926020909101359150565b8015158114610da657600080fd5b6000806040838503121561154057600080fd5b823561154b8161151f565b946020939093013593505050565b6020815281516020820152600060208301516101e0806040850152611582610200850183611350565b91506040850151601f19808685030160608701526115a08483611350565b935060608701519150808685030160808701526115bd8483611350565b935060808701519150808685030160a08701526115da8483611350565b935060a087015160c087015260c087015160e087015260e0870151915061010082818801528088015192505061012082818801528088015192505061014082818801528088015192505061016081878603018188015261163a8584611350565b9450808801519250506101806116538188018415159052565b808801519250506101a08187860301818801526116708584611350565b9450808801519250506101c081878603018188015261168f8584611350565b970151959092019490945250929392505050565b6000602082840312156116b557600080fd5b81356001600160a01b03811681146113b057600080fd5b600181811c908216806116e057607f821691505b60208210810361170057634e487b7160e01b600052602260045260246000fd5b50919050565b6020808252818101527f4f776e61626c653a2063616c6c6572206973206e6f7420746865206f776e6572604082015260600190565b60006020828403121561174d57600080fd5b81516113b08161151f565b634e487b7160e01b600052601160045260246000fd5b600081600019048311821515161561178857611788611758565b500290565b600082198211156117a0576117a0611758565b500190565b6000828210156117b7576117b7611758565b500390565b634e487b7160e01b600052601260045260246000fd5b6000826117e1576117e16117bc565b500490565b6000826117f5576117f56117bc565b500690565b634e487b7160e01b600052603260045260246000fd5b60208082526018908201527f537472696e67206d757374206e6f7420626520656d7074790000000000000000604082015260600190565b634e487b7160e01b600052604160045260246000fd5b601f8211156111cc57600081815260208120601f850160051c810160208610156118845750805b601f850160051c820191505b818110156118a357828155600101611890565b505050505050565b67ffffffffffffffff8311156118c3576118c3611847565b6118d7836118d183546116cc565b8361185d565b6000601f84116001811461190b57600085156118f35750838201355b600019600387901b1c1916600186901b178355611965565b600083815260209020601f19861690835b8281101561193c578685013582556020948501946001909201910161191c565b50868210156119595760001960f88860031b161c19848701351681555b505060018560011b0183555b5050505050565b815167ffffffffffffffff81111561198657611986611847565b61199a8161199484546116cc565b8461185d565b602080601f8311600181146119cf57600084156119b75750858301515b600019600386901b1c1916600185901b1785556118a3565b600085815260208120601f198616915b828110156119fe578886015182559484019460019091019084016119df565b5085821015611a1c5787850151600019600388901b60f8161c191681555b5050505050600190811b0190555056fea264697066735822122065c4540fc5ed408db54eb7071b976acfdf5128be099557bd4a22d8d6b304293a64736f6c634300080f0033537472696e67206d757374206e6f7420626520656d707479000000000000000068747470733a2f2f65787465726e616c2d636f6e74656e742e6475636b6475636b676f2e636f6d2f69752f3f753d6874747073253341253246253246692e70696e696d672e636f6d2532466f726967696e616c7325324632302532463065253246663825324632303065663832623331383266663735626630623264653534393665363163662e6a706726663d31266e6f66623d31608060405234801561001057600080fd5b506040516110b23803806110b283398101604081905261002f916100c6565b61003833610070565b600180546001600160a01b0383166001600160a81b031990911617905561006a60076100c0602090811b61097e17901c565b506100f6565b600080546001600160a01b038381166001600160a01b0319831681178455604051919092169283917f8be0079c531659141344cd1fd0a4f28419497f9722a3daafe3b4186f6b6457e09190a35050565b60009055565b6000602082840312156100d857600080fd5b81516001600160a01b03811681146100ef57600080fd5b9392505050565b610fad806101056000396000f3fe608060405234801561001057600080fd5b50600436106100a95760003560e01c806391de1ba31161007157806391de1ba314610118578063983c0a5b1461012b5780639f9f7f851461013e578063b8c3773f1461015f578063e3f75d1e14610167578063f2fde38b1461017a57600080fd5b806304a4d704146100ae578063139334af146100d6578063253a219f146100eb578063715018a6146100f35780638da5cb5b146100fd575b600080fd5b6100c16100bc366004610a63565b61018d565b60405190151581526020015b60405180910390f35b6100de6101e4565b6040516100cd9190610ae1565b6100de6103a8565b6100fb610530565b005b6000546040516001600160a01b0390911681526020016100cd565b6100fb610126366004610a63565b610566565b6100fb610139366004610c56565b6105f7565b61015161014c366004610a63565b610685565b6040519081526020016100cd565b6100de6106cc565b6100fb610175366004610a63565b610854565b6100fb610188366004610a63565b6108e6565b600080546001600160a01b031633146101c15760405162461bcd60e51b81526004016101b890610c80565b60405180910390fd5b506001600160a01b03811660009081526004602052604090205460ff165b919050565b6000546060906001600160a01b031633146102115760405162461bcd60e51b81526004016101b890610c80565b600061021c60075490565b905060008167ffffffffffffffff81111561023957610239610cb5565b60405190808252806020026020018201604052801561027257816020015b61025f6109d4565b8152602001906001900390816102575790505b50905060005b828110156103a15760006002828154811061029557610295610ccb565b60009182526020808320909101546001600160a01b0316808352600590915260409091205490915081901561038c57806001600160a01b031663f22b01276001610305600287815481106102eb576102eb610ccb565b6000918252602090912001546001600160a01b0316610685565b6040516001600160e01b031960e085901b16815291151560048301526024820152604401600060405180830381865afa158015610346573d6000803e3d6000fd5b505050506040513d6000823e601f3d908101601f1916820160405261036e9190810190610da3565b84848151811061038057610380610ccb565b60200260200101819052505b5050808061039990610f50565b915050610278565b5091505090565b6000546060906001600160a01b031633146103d55760405162461bcd60e51b81526004016101b890610c80565b60035460008167ffffffffffffffff8111156103f3576103f3610cb5565b60405190808252806020026020018201604052801561042c57816020015b6104196109d4565b8152602001906001900390816104115790505b50905060005b828110156103a15760006003828154811061044f5761044f610ccb565b9060005260206000200160009054906101000a90046001600160a01b03169050806001600160a01b031663f22b01276001610496600386815481106102eb576102eb610ccb565b6040516001600160e01b031960e085901b16815291151560048301526024820152604401600060405180830381865afa1580156104d7573d6000803e3d6000fd5b505050506040513d6000823e601f3d908101601f191682016040526104ff9190810190610da3565b83838151811061051157610511610ccb565b602002602001018190525050808061052890610f50565b915050610432565b6000546001600160a01b0316331461055a5760405162461bcd60e51b81526004016101b890610c80565b6105646000610984565b565b6000546001600160a01b031633146105905760405162461bcd60e51b81526004016101b890610c80565b6002805460018181019092557f405787fa12a823e0f2b7631cc41b3ba8828b3321ca811111fa75cd3aa3bb5ace0180546001600160a01b039093166001600160a01b031990931683179055600091825260046020526040909120805460ff19169091179055565b6000546001600160a01b031633146106215760405162461bcd60e51b81526004016101b890610c80565b60018110158015610633575060058111155b61063c57600080fd5b6001600160a01b038216600090815260056020526040812054900361066957610669600780546001019055565b6001600160a01b03909116600090815260056020526040902055565b600080546001600160a01b031633146106b05760405162461bcd60e51b81526004016101b890610c80565b506001600160a01b031660009081526005602052604090205490565b6000546060906001600160a01b031633146106f95760405162461bcd60e51b81526004016101b890610c80565b60025460008167ffffffffffffffff81111561071757610717610cb5565b60405190808252806020026020018201604052801561075057816020015b61073d6109d4565b8152602001906001900390816107355790505b50905060005b828110156103a15760006002828154811061077357610773610ccb565b9060005260206000200160009054906101000a90046001600160a01b03169050806001600160a01b031663f22b012760016107ba600286815481106102eb576102eb610ccb565b6040516001600160e01b031960e085901b16815291151560048301526024820152604401600060405180830381865afa1580156107fb573d6000803e3d6000fd5b505050506040513d6000823e601f3d908101601f191682016040526108239190810190610da3565b83838151811061083557610835610ccb565b602002602001018190525050808061084c90610f50565b915050610756565b6000546001600160a01b0316331461087e5760405162461bcd60e51b81526004016101b890610c80565b6001805460ff60a01b1916600160a01b1781556003805491820181556000527fc2575a0e9e593c00f959f8c92f12db2869c3395a3b0502d05e2516446f71f85b0180546001600160a01b0383166001600160a01b03199091161790556108e381610566565b50565b6000546001600160a01b031633146109105760405162461bcd60e51b81526004016101b890610c80565b6001600160a01b0381166109755760405162461bcd60e51b815260206004820152602660248201527f4f776e61626c653a206e6577206f776e657220697320746865207a65726f206160448201526564647265737360d01b60648201526084016101b8565b6108e381610984565b60009055565b600080546001600160a01b038381166001600160a01b0319831681178455604051919092169283917f8be0079c531659141344cd1fd0a4f28419497f9722a3daafe3b4186f6b6457e09190a35050565b604051806101e0016040528060008152602001606081526020016060815260200160608152602001606081526020016000815260200160008152602001600081526020016000815260200160008152602001606081526020016000151581526020016060815260200160608152602001600081525090565b80356001600160a01b03811681146101df57600080fd5b600060208284031215610a7557600080fd5b610a7e82610a4c565b9392505050565b60005b83811015610aa0578181015183820152602001610a88565b83811115610aaf576000848401525b50505050565b60008151808452610acd816020860160208601610a85565b601f01601f19169290920160200192915050565b60006020808301818452808551808352604092508286019150828160051b87010184880160005b83811015610c4857603f1989840301855281516101e08151855288820151818a870152610b3782870182610ab5565b9150508782015185820389870152610b4f8282610ab5565b91505060608083015186830382880152610b698382610ab5565b9250505060808083015186830382880152610b848382610ab5565b60a0858101519089015260c0808601519089015260e080860151908901526101008086015190890152610120808601519089015261014080860151898303828b015291945092509050610bd78382610ab5565b9250505061016080830151610bef8288018215159052565b50506101808083015186830382880152610c098382610ab5565b925050506101a08083015186830382880152610c258382610ab5565b6101c0948501519790940196909652505094870194925090860190600101610b08565b509098975050505050505050565b60008060408385031215610c6957600080fd5b610c7283610a4c565b946020939093013593505050565b6020808252818101527f4f776e61626c653a2063616c6c6572206973206e6f7420746865206f776e6572604082015260600190565b634e487b7160e01b600052604160045260246000fd5b634e487b7160e01b600052603260045260246000fd5b6040516101e0810167ffffffffffffffff81118282101715610d0557610d05610cb5565b60405290565b600082601f830112610d1c57600080fd5b815167ffffffffffffffff80821115610d3757610d37610cb5565b604051601f8301601f19908116603f01168101908282118183101715610d5f57610d5f610cb5565b81604052838152866020858801011115610d7857600080fd5b610d89846020830160208901610a85565b9695505050505050565b805180151581146101df57600080fd5b600060208284031215610db557600080fd5b815167ffffffffffffffff80821115610dcd57600080fd5b908301906101e08286031215610de257600080fd5b610dea610ce1565b82518152602083015182811115610e0057600080fd5b610e0c87828601610d0b565b602083015250604083015182811115610e2457600080fd5b610e3087828601610d0b565b604083015250606083015182811115610e4857600080fd5b610e5487828601610d0b565b606083015250608083015182811115610e6c57600080fd5b610e7887828601610d0b565b60808301525060a083015160a082015260c083015160c082015260e083015160e08201526101008084015181830152506101208084015181830152506101408084015183811115610ec857600080fd5b610ed488828701610d0b565b828401525050610160610ee8818501610d93565b908201526101808381015183811115610f0057600080fd5b610f0c88828701610d0b565b8284015250506101a08084015183811115610f2657600080fd5b610f3288828701610d0b565b91830191909152506101c09283015192810192909252509392505050565b600060018201610f7057634e487b7160e01b600052601160045260246000fd5b506001019056fea2646970667358221220b0efe28c92a6bac39302f0f65a3dd02b9edb91227d6e2a236a42003c7a28852864736f6c634300080f0033a26469706673582212203c685e7450d0bf86d3334f64056f1c64846a18362defc3e2ee1e90ded550eee164736f6c634300080f0033",
    "sourcePath": "c:/Users/User/Documents/GitHub/SmartContracts/contracts/dAppstore.sol",
    "compiler": {
        "name": "solc",
        "version": "0.8.15+commit.e14f2714"
    },
    "functionHashes": {
        "createNewApp(string,string,string,string,string,uint256,string,string)": "2b07ac4c",
        "getAppBatch(uint256,uint256)": "7d6a24ab",
        "getAppCount()": "80109fea",
        "getAppRating(uint256)": "2ce9a25f",
        "getPublishedAppsInfo()": "e9beca8e",
        "getPurchasedAppsInfo()": "8f89b46a",
        "getRatedAppsInfo()": "e0b8f2ae",
        "getUserRatingForApp(uint256)": "7fc442db",
        "purchaseApp(uint256)": "33e067a6",
        "rateApp(uint256,uint256)": "70b8fd92",
        "updateApp(uint256,string,string,string,string,uint256,string)": "9a9d793c"
    },
    "gasEstimates": {
        "creation": {
            "codeDepositCost": "4771000",
            "executionCost": "infinite",
            "totalCost": "infinite"
        },
        "external": {
            "createNewApp(string,string,string,string,string,uint256,string,string)": "infinite",
            "getAppBatch(uint256,uint256)": "infinite",
            "getAppCount()": "infinite",
            "getAppRating(uint256)": "infinite",
            "getPublishedAppsInfo()": "infinite",
            "getPurchasedAppsInfo()": "infinite",
            "getRatedAppsInfo()": "infinite",
            "getUserRatingForApp(uint256)": "infinite",
            "purchaseApp(uint256)": "infinite",
            "rateApp(uint256,uint256)": "infinite",
            "updateApp(uint256,string,string,string,string,uint256,string)": "infinite"
        },
        "internal": {
            "createNewUser(address)": "infinite"
        }
    }
}