{
    "contractName": "dAppstore",
    "abi": [
        {
            "inputs": [],
            "stateMutability": "nonpayable",
            "type": "constructor"
        },
        {
            "inputs": [
                {
                    "internalType": "address",
                    "name": "creator",
                    "type": "address"
                },
                {
                    "internalType": "string",
                    "name": "_name",
                    "type": "string"
                },
                {
                    "internalType": "string",
                    "name": "_description",
                    "type": "string"
                },
                {
                    "internalType": "string",
                    "name": "_magnetLink",
                    "type": "string"
                },
                {
                    "internalType": "string",
                    "name": "_imgUrl",
                    "type": "string"
                },
                {
                    "internalType": "string",
                    "name": "_company",
                    "type": "string"
                },
                {
                    "internalType": "uint256",
                    "name": "_price",
                    "type": "uint256"
                },
                {
                    "internalType": "string",
                    "name": "_fileSha256",
                    "type": "string"
                }
            ],
            "name": "createNewApp",
            "outputs": [],
            "stateMutability": "nonpayable",
            "type": "function"
        },
        {
            "inputs": [
                {
                    "internalType": "uint256",
                    "name": "number_of_apps",
                    "type": "uint256"
                }
            ],
            "name": "generateDemoApps",
            "outputs": [],
            "stateMutability": "nonpayable",
            "type": "function"
        },
        {
            "inputs": [
                {
                    "internalType": "uint256",
                    "name": "start",
                    "type": "uint256"
                },
                {
                    "internalType": "uint256",
                    "name": "len",
                    "type": "uint256"
                }
            ],
            "name": "getAppBatch",
            "outputs": [
                {
                    "components": [
                        {
                            "internalType": "uint256",
                            "name": "id",
                            "type": "uint256"
                        },
                        {
                            "internalType": "string",
                            "name": "name",
                            "type": "string"
                        },
                        {
                            "internalType": "string",
                            "name": "description",
                            "type": "string"
                        },
                        {
                            "internalType": "string",
                            "name": "imgUrl",
                            "type": "string"
                        },
                        {
                            "internalType": "string",
                            "name": "company",
                            "type": "string"
                        },
                        {
                            "internalType": "uint256",
                            "name": "price",
                            "type": "uint256"
                        },
                        {
                            "internalType": "uint256",
                            "name": "num_ratings",
                            "type": "uint256"
                        },
                        {
                            "internalType": "uint256",
                            "name": "rating",
                            "type": "uint256"
                        },
                        {
                            "internalType": "uint256",
                            "name": "rating_modulu",
                            "type": "uint256"
                        },
                        {
                            "internalType": "string",
                            "name": "fileSha256",
                            "type": "string"
                        },
                        {
                            "internalType": "bool",
                            "name": "owned",
                            "type": "bool"
                        }
                    ],
                    "internalType": "struct AppInfoLibrary.AppInfo[]",
                    "name": "",
                    "type": "tuple[]"
                }
            ],
            "stateMutability": "view",
            "type": "function"
        },
        {
            "inputs": [],
            "name": "name",
            "outputs": [
                {
                    "internalType": "string",
                    "name": "",
                    "type": "string"
                }
            ],
            "stateMutability": "view",
            "type": "function"
        },
        {
            "inputs": [
                {
                    "internalType": "address",
                    "name": "app_address",
                    "type": "address"
                }
            ],
            "name": "purchaseApp",
            "outputs": [],
            "stateMutability": "nonpayable",
            "type": "function"
        },
        {
            "inputs": [
                {
                    "internalType": "uint256",
                    "name": "app_id",
                    "type": "uint256"
                },
                {
                    "internalType": "string",
                    "name": "_name",
                    "type": "string"
                },
                {
                    "internalType": "string",
                    "name": "_description",
                    "type": "string"
                },
                {
                    "internalType": "string",
                    "name": "_magnetLink",
                    "type": "string"
                },
                {
                    "internalType": "string",
                    "name": "_imgUrl",
                    "type": "string"
                },
                {
                    "internalType": "string",
                    "name": "_company",
                    "type": "string"
                },
                {
                    "internalType": "uint256",
                    "name": "_price",
                    "type": "uint256"
                },
                {
                    "internalType": "string",
                    "name": "_fileSha256",
                    "type": "string"
                }
            ],
            "name": "updateApp",
            "outputs": [],
            "stateMutability": "nonpayable",
            "type": "function"
        }
    ],
    "bytecode": "608060405234801561001057600080fd5b50610025600461002a60201b6116711760201c565b610030565b60009055565b615c9980620000406000396000f3fe60806040523480156200001157600080fd5b50600436106200006a5760003560e01c806306fdde03146200006f5780631e73a2ea14620000b05780632858594b14620000c95780637d6a24ab14620000e057806384b75a021462000106578063bd0c2845146200011d575b600080fd5b62000098604051806040016040528060098152602001686441707073746f726560b81b81525081565b604051620000a7919062001b29565b60405180910390f35b620000c7620000c136600462001b3e565b62000134565b005b620000c7620000da36600462001b83565b62000495565b620000f7620000f136600462001ba3565b62000961565b604051620000a7919062001bc6565b620000c76200011736600462001df8565b62000b8c565b620000c76200012e36600462001f15565b62001556565b600062000142600062001677565b9050805b62000152838362001f72565b8110156200049057600062000167826200168a565b60405163605b5c5f60e01b81529091506200047a90339073__$2ef198253e5209528d081d789aa7dfe759$__9063605b5c5f90620001aa90869060040162001f8d565b600060405180830381865af4158015620001c8573d6000803e3d6000fd5b505050506040513d6000823e601f3d908101601f19168201604052620001f2919081019062002014565b60405163605b5c5f60e01b815273__$2ef198253e5209528d081d789aa7dfe759$__9063605b5c5f906200022b9087906004016200204d565b600060405180830381865af415801562000249573d6000803e3d6000fd5b505050506040513d6000823e601f3d908101601f1916820160405262000273919081019062002014565b60405163605b5c5f60e01b815273__$2ef198253e5209528d081d789aa7dfe759$__9063605b5c5f90620002ac9088906004016200208f565b600060405180830381865af4158015620002ca573d6000803e3d6000fd5b505050506040513d6000823e601f3d908101601f19168201604052620002f4919081019062002014565b60405163605b5c5f60e01b815273__$2ef198253e5209528d081d789aa7dfe759$__9063605b5c5f906200032d908990600401620020ca565b600060405180830381865af41580156200034b573d6000803e3d6000fd5b505050506040513d6000823e601f3d908101601f1916820160405262000375919081019062002014565b60405163605b5c5f60e01b815273__$2ef198253e5209528d081d789aa7dfe759$__9063605b5c5f90620003ae908a9060040162002104565b600060405180830381865af4158015620003cc573d6000803e3d6000fd5b505050506040513d6000823e601f3d908101601f19168201604052620003f6919081019062002014565b60405163605b5c5f60e01b815260089073__$2ef198253e5209528d081d789aa7dfe759$__9063605b5c5f9062000432908c9060040162002142565b600060405180830381865af415801562000450573d6000803e3d6000fd5b505050506040513d6000823e601f3d908101601f191682016040526200012e919081019062002014565b5080620004878162002180565b91505062000146565b505050565b6040516386bd3f9160e01b815233600482018190529073__$4abe93d8f421c97b6c3dfbe9b44c8344ba$__906386bd3f9190602401602060405180830381865af4158015620004e8573d6000803e3d6000fd5b505050506040513d601f19601f820116820180604052508101906200050e9190620021ad565b15620005375760405162461bcd60e51b81526004016200052e90620021cb565b60405180910390fd5b6001600160a01b03818116600090815260036020526040908190205490516386bd3f9160e01b81529116600482015273__$4abe93d8f421c97b6c3dfbe9b44c8344ba$__906386bd3f9190602401602060405180830381865af4158015620005a3573d6000803e3d6000fd5b505050506040513d601f19601f82011682018060405250810190620005c99190620021ad565b15620006095760405162461bcd60e51b815260206004820152600e60248201526d155cd95c881b9bdd08199bdd5b9960921b60448201526064016200052e565b816000816001600160a01b031663af640d0f6040518163ffffffff1660e01b8152600401602060405180830381865afa1580156200064b573d6000803e3d6000fd5b505050506040513d601f19601f82011682018060405250810190620006719190620021f1565b905062000680600082620017ab565b620006be5760405162461bcd60e51b815260206004820152600d60248201526c105c1c081b9bdd08199bdd5b99609a1b60448201526064016200052e565b620006cb600082620017c0565b6040516386bd3f9160e01b81526001600160a01b03909116600482015273__$4abe93d8f421c97b6c3dfbe9b44c8344ba$__906386bd3f9190602401602060405180830381865af415801562000725573d6000803e3d6000fd5b505050506040513d601f19601f820116820180604052508101906200074b9190620021ad565b15620007875760405162461bcd60e51b815260206004820152600a6024820152694170702065786973747360b01b60448201526064016200052e565b33600081815260036020526040908190205490516386bd3f9160e01b81526001600160a01b03909116600482015273__$4abe93d8f421c97b6c3dfbe9b44c8344ba$__906386bd3f9190602401602060405180830381865af4158015620007f2573d6000803e3d6000fd5b505050506040513d601f19601f82011682018060405250810190620008189190620021ad565b1562000829576200082981620017ce565b620008fd856001600160a01b03166302d05d3f6040518163ffffffff1660e01b8152600401602060405180830381865afa1580156200086c573d6000803e3d6000fd5b505050506040513d601f19601f820116820180604052508101906200089291906200220b565b866001600160a01b031663a035b1fe6040518163ffffffff1660e01b8152600401602060405180830381865afa158015620008d1573d6000803e3d6000fd5b505050506040513d601f19601f82011682018060405250810190620008f79190620021f1565b62001848565b604051632858594b60e01b81526001600160a01b038681166004830152821690632858594b90602401600060405180830381600087803b1580156200094157600080fd5b505af115801562000956573d6000803e3d6000fd5b505050505050505050565b6060828262000972600083620017ab565b620009b05760405162461bcd60e51b815260206004820152600d60248201526c092dcecc2d8d2c840d2dcc8caf609b1b60448201526064016200052e565b60008111620009f35760405162461bcd60e51b815260206004820152600e60248201526d092dcecc2d8d2c840d8cadccee8d60931b60448201526064016200052e565b60008467ffffffffffffffff81111562000a115762000a1162001cfa565b60405190808252806020026020018201604052801562000aa457816020015b62000a90604051806101600160405280600081526020016060815260200160608152602001606081526020016060815260200160008152602001600081526020016000815260200160008152602001606081526020016000151581525090565b81526020019060019003908162000a305790505b50905060005b8581101562000b825762000ae462000ac3600062001677565b62000acf838a62001f72565b62000adb919062002241565b600090620017c0565b6001600160a01b031663e26799ff6040518163ffffffff1660e01b8152600401600060405180830381865afa15801562000b22573d6000803e3d6000fd5b505050506040513d6000823e601f3d908101601f1916820160405262000b4c919081019062002258565b82828151811062000b615762000b61620023b8565b6020026020010181905250808062000b799062002180565b91505062000aaa565b5095945050505050565b6040516386bd3f9160e01b815233600482018190529073__$4abe93d8f421c97b6c3dfbe9b44c8344ba$__906386bd3f9190602401602060405180830381865af415801562000bdf573d6000803e3d6000fd5b505050506040513d601f19601f8201168201806040525081019062000c059190620021ad565b1562000c255760405162461bcd60e51b81526004016200052e90620021cb565b6001600160a01b03818116600090815260036020526040908190205490516386bd3f9160e01b81529116600482015273__$4abe93d8f421c97b6c3dfbe9b44c8344ba$__906386bd3f9190602401602060405180830381865af415801562000c91573d6000803e3d6000fd5b505050506040513d601f19601f8201168201806040525081019062000cb79190620021ad565b1562000cf75760405162461bcd60e51b815260206004820152600e60248201526d155cd95c881b9bdd08199bdd5b9960921b60448201526064016200052e565b8862000d05600082620017ab565b62000d435760405162461bcd60e51b815260206004820152600d60248201526c105c1c081b9bdd08199bdd5b99609a1b60448201526064016200052e565b62000d50600082620017c0565b6040516386bd3f9160e01b81526001600160a01b03909116600482015273__$4abe93d8f421c97b6c3dfbe9b44c8344ba$__906386bd3f9190602401602060405180830381865af415801562000daa573d6000803e3d6000fd5b505050506040513d601f19601f8201168201806040525081019062000dd09190620021ad565b1562000e145760405162461bcd60e51b815260206004820152601260248201527141707020646f656e7327742065786973747360701b60448201526064016200052e565b6040516386bd3f9160e01b815233600482018190528b9173__$4abe93d8f421c97b6c3dfbe9b44c8344ba$__906386bd3f9190602401602060405180830381865af415801562000e68573d6000803e3d6000fd5b505050506040513d601f19601f8201168201806040525081019062000e8e9190620021ad565b1562000eae5760405162461bcd60e51b81526004016200052e90620021cb565b62000ebb600083620017c0565b6001600160a01b03166302d05d3f6040518163ffffffff1660e01b8152600401602060405180830381865afa15801562000ef9573d6000803e3d6000fd5b505050506040513d601f19601f8201168201806040525081019062000f1f91906200220b565b6001600160a01b0316816001600160a01b03161462000f745760405162461bcd60e51b815260206004820152601060248201526f3737ba1031b932b0ba37b91030b2323960811b60448201526064016200052e565b600062000f82818e620017c0565b60405163139a0e4560e11b815290915073__$2ef198253e5209528d081d789aa7dfe759$__906327341c8a9062000fbe908f9060040162001b29565b602060405180830381865af415801562000fdc573d6000803e3d6000fd5b505050506040513d601f19601f82011682018060405250810190620010029190620021ad565b6200106a576040516381ecdf4560e01b81526001600160a01b038216906381ecdf459062001035908f9060040162001b29565b600060405180830381600087803b1580156200105057600080fd5b505af115801562001065573d6000803e3d6000fd5b505050505b60405163139a0e4560e11b815273__$2ef198253e5209528d081d789aa7dfe759$__906327341c8a90620010a3908e9060040162001b29565b602060405180830381865af4158015620010c1573d6000803e3d6000fd5b505050506040513d601f19601f82011682018060405250810190620010e79190620021ad565b6200114f5760405163fafb1b0160e01b81526001600160a01b0382169063fafb1b01906200111a908e9060040162001b29565b600060405180830381600087803b1580156200113557600080fd5b505af11580156200114a573d6000803e3d6000fd5b505050505b60405163139a0e4560e11b815273__$2ef198253e5209528d081d789aa7dfe759$__906327341c8a9062001188908d9060040162001b29565b602060405180830381865af4158015620011a6573d6000803e3d6000fd5b505050506040513d601f19601f82011682018060405250810190620011cc9190620021ad565b62001234576040516342cbef9560e01b81526001600160a01b038216906342cbef9590620011ff908d9060040162001b29565b600060405180830381600087803b1580156200121a57600080fd5b505af11580156200122f573d6000803e3d6000fd5b505050505b60405163139a0e4560e11b815273__$2ef198253e5209528d081d789aa7dfe759$__906327341c8a906200126d908c9060040162001b29565b602060405180830381865af41580156200128b573d6000803e3d6000fd5b505050506040513d601f19601f82011682018060405250810190620012b19190620021ad565b6200131957604051634ad3d57d60e01b81526001600160a01b03821690634ad3d57d90620012e4908c9060040162001b29565b600060405180830381600087803b158015620012ff57600080fd5b505af115801562001314573d6000803e3d6000fd5b505050505b60405163139a0e4560e11b815273__$2ef198253e5209528d081d789aa7dfe759$__906327341c8a9062001352908b9060040162001b29565b602060405180830381865af415801562001370573d6000803e3d6000fd5b505050506040513d601f19601f82011682018060405250810190620013969190620021ad565b620013fe5760405163094547bb60e11b81526001600160a01b0382169063128a8f7690620013c9908b9060040162001b29565b600060405180830381600087803b158015620013e457600080fd5b505af1158015620013f9573d6000803e3d6000fd5b505050505b8615620014625760405163e9cd36d360e01b8152600481018890526001600160a01b0382169063e9cd36d390602401600060405180830381600087803b1580156200144857600080fd5b505af11580156200145d573d6000803e3d6000fd5b505050505b60405163139a0e4560e11b815273__$2ef198253e5209528d081d789aa7dfe759$__906327341c8a906200149b90899060040162001b29565b602060405180830381865af4158015620014b9573d6000803e3d6000fd5b505050506040513d601f19601f82011682018060405250810190620014df9190620021ad565b620015475760405163da0c57e960e01b81526001600160a01b0382169063da0c57e9906200151290899060040162001b29565b600060405180830381600087803b1580156200152d57600080fd5b505af115801562001542573d6000803e3d6000fd5b505050505b50505050505050505050505050565b6001600160a01b03888116600090815260036020526040908190205490516386bd3f9160e01b81529116600482015273__$4abe93d8f421c97b6c3dfbe9b44c8344ba$__906386bd3f9190602401602060405180830381865af4158015620015c2573d6000803e3d6000fd5b505050506040513d601f19601f82011682018060405250810190620015e89190620021ad565b15620015f957620015f988620017ce565b600062001607600062001677565b90506000818a8a8a8a8a8a8a8a604051620016229062001aac565b6200163699989796959493929190620023ce565b604051809103906000f08015801562001653573d6000803e3d6000fd5b509050620016646000838362001967565b5050505050505050505050565b60009055565b600062001684826200197f565b92915050565b606081600003620016b25750506040805180820190915260018152600360fc1b602082015290565b8160005b8115620016e25780620016c98162002180565b9150620016da9050600a8362002480565b9150620016b6565b60008167ffffffffffffffff81111562001700576200170062001cfa565b6040519080825280601f01601f1916602001820160405280156200172b576020820181803683370190505b5090505b8415620017a3576200174360018362002497565b915062001752600a8662002241565b6200175f90603062001f72565b60f81b818381518110620017775762001777620023b8565b60200101906001600160f81b031916908160001a9053506200179b600a8662002480565b94506200172f565b949350505050565b6000620017b983836200198c565b9392505050565b6000620017b983836200199a565b620017dd600480546001019055565b80604051620017ec9062001aba565b6001600160a01b039091168152602001604051809103906000f08015801562001819573d6000803e3d6000fd5b506001600160a01b03918216600090815260036020526040902080546001600160a01b03191691909216179055565b804710156200189a5760405162461bcd60e51b815260206004820152601d60248201527f416464726573733a20696e73756666696369656e742062616c616e636500000060448201526064016200052e565b6000826001600160a01b03168260405160006040518083038185875af1925050503d8060008114620018e9576040519150601f19603f3d011682016040523d82523d6000602084013e620018ee565b606091505b5050905080620004905760405162461bcd60e51b815260206004820152603a60248201527f416464726573733a20756e61626c6520746f2073656e642076616c75652c207260448201527f6563697069656e74206d6179206861766520726576657274656400000000000060648201526084016200052e565b6000620017a384846001600160a01b03851662001a0f565b6000620016848262001a2e565b6000620017b9838362001a39565b600081815260028301602052604081205480151580620019c15750620019c184846200198c565b620017b95760405162461bcd60e51b815260206004820152601e60248201527f456e756d657261626c654d61703a206e6f6e6578697374656e74206b6579000060448201526064016200052e565b60008281526002840160205260408120829055620017a3848462001a52565b600062001684825490565b60008181526001830160205260408120541515620017b9565b6000620017b98383600081815260018301602052604081205462001aa35750815460018181018455600084815260208082209093018490558454848252828601909352604090209190915562001684565b50600062001684565b6125b980620024b283390190565b6111f98062004a6b83390190565b60005b8381101562001ae557818101518382015260200162001acb565b8381111562001af5576000848401525b50505050565b6000815180845262001b1581602086016020860162001ac8565b601f01601f19169290920160200192915050565b602081526000620017b9602083018462001afb565b60006020828403121562001b5157600080fd5b5035919050565b6001600160a01b038116811462001b6e57600080fd5b50565b803562001b7e8162001b58565b919050565b60006020828403121562001b9657600080fd5b8135620017b98162001b58565b6000806040838503121562001bb757600080fd5b50508035926020909101359150565b60006020808301818452808551808352604092508286019150828160051b87010184880160005b8381101562001cec57603f1989840301855281516101608151855288820151818a87015262001c1f8287018262001afb565b915050878201518582038987015262001c39828262001afb565b9150506060808301518683038288015262001c55838262001afb565b925050506080808301518683038288015262001c72838262001afb565b60a0858101519089015260c0808601519089015260e08086015190890152610100808601519089015261012080860151898303828b01529194509250905062001cbc838262001afb565b9250505061014080830151925062001cd78187018415159052565b50958801959350509086019060010162001bed565b509098975050505050505050565b634e487b7160e01b600052604160045260246000fd5b604051610160810167ffffffffffffffff8111828210171562001d375762001d3762001cfa565b60405290565b604051601f8201601f1916810167ffffffffffffffff8111828210171562001d695762001d6962001cfa565b604052919050565b600067ffffffffffffffff82111562001d8e5762001d8e62001cfa565b50601f01601f191660200190565b600082601f83011262001dae57600080fd5b813562001dc562001dbf8262001d71565b62001d3d565b81815284602083860101111562001ddb57600080fd5b816020850160208301376000918101602001919091529392505050565b600080600080600080600080610100898b03121562001e1657600080fd5b88359750602089013567ffffffffffffffff8082111562001e3657600080fd5b62001e448c838d0162001d9c565b985060408b013591508082111562001e5b57600080fd5b62001e698c838d0162001d9c565b975060608b013591508082111562001e8057600080fd5b62001e8e8c838d0162001d9c565b965060808b013591508082111562001ea557600080fd5b62001eb38c838d0162001d9c565b955060a08b013591508082111562001eca57600080fd5b62001ed88c838d0162001d9c565b945060c08b0135935060e08b013591508082111562001ef657600080fd5b5062001f058b828c0162001d9c565b9150509295985092959890939650565b600080600080600080600080610100898b03121562001f3357600080fd5b62001f3e8962001b71565b9750602089013567ffffffffffffffff8082111562001e3657600080fd5b634e487b7160e01b600052601160045260246000fd5b6000821982111562001f885762001f8862001f5c565b500190565b60408152600062001fa2604083018462001afb565b828103602084015260048152636e616d6560e01b60208201526040810191505092915050565b600082601f83011262001fda57600080fd5b815162001feb62001dbf8262001d71565b8181528460208386010111156200200157600080fd5b620017a382602083016020870162001ac8565b6000602082840312156200202757600080fd5b815167ffffffffffffffff8111156200203f57600080fd5b620017a38482850162001fc8565b60408152600062002062604083018462001afb565b8281036020840152600b81526a3232b9b1b934b83a34b7b760a91b60208201526040810191505092915050565b604081526000620020a4604083018462001afb565b828103602084015260048152636c696e6b60e01b60208201526040810191505092915050565b604081526000620020df604083018462001afb565b82810360208401526003815262696d6760e81b60208201526040810191505092915050565b60408152600062002119604083018462001afb565b82810360208401526007815266636f6d70616e7960c81b60208201526040810191505092915050565b60408152600062002157604083018462001afb565b8281036020840152600781526666696c6553686160c81b60208201526040810191505092915050565b60006001820162002195576200219562001f5c565b5060010190565b8051801515811462001b7e57600080fd5b600060208284031215620021c057600080fd5b620017b9826200219c565b6020808252600c908201526b24b73b30b634b21030b2323960a11b604082015260600190565b6000602082840312156200220457600080fd5b5051919050565b6000602082840312156200221e57600080fd5b8151620017b98162001b58565b634e487b7160e01b600052601260045260246000fd5b6000826200225357620022536200222b565b500690565b6000602082840312156200226b57600080fd5b815167ffffffffffffffff808211156200228457600080fd5b9083019061016082860312156200229a57600080fd5b620022a462001d10565b82518152602083015182811115620022bb57600080fd5b620022c98782860162001fc8565b602083015250604083015182811115620022e257600080fd5b620022f08782860162001fc8565b6040830152506060830151828111156200230957600080fd5b620023178782860162001fc8565b6060830152506080830151828111156200233057600080fd5b6200233e8782860162001fc8565b60808301525060a083015160a082015260c083015160c082015260e083015160e082015261010080840151818301525061012080840151838111156200238357600080fd5b620023918882870162001fc8565b8284015250506101409150620023a98284016200219c565b91810191909152949350505050565b634e487b7160e01b600052603260045260246000fd5b8981526001600160a01b038916602082015261012060408201819052600090620023fb8382018b62001afb565b9050828103606084015262002411818a62001afb565b9050828103608084015262002427818962001afb565b905082810360a08401526200243d818862001afb565b905082810360c084015262002453818762001afb565b90508460e084015282810361010084015262002470818562001afb565b9c9b505050505050505050505050565b6000826200249257620024926200222b565b500490565b600082821015620024ac57620024ac62001f5c565b50039056fe60806040523480156200001157600080fd5b50604051620025b9380380620025b9833981016040819052620000349162000725565b6200003f3362000532565b886200004f565b60405180910390fd5b8260008111620000a25760405162461bcd60e51b815260206004820152601c60248201527f5072696365206d7573742062652067726561746572207468616e203000000000604482015260640162000046565b60405163139a0e4560e11b8152899073__$2ef198253e5209528d081d789aa7dfe759$__906327341c8a90620000dd90849060040162000855565b602060405180830381865af4158015620000fb573d6000803e3d6000fd5b505050506040513d601f19601f820116820180604052508101906200012191906200088a565b156200015f5760405162461bcd60e51b8152602060048201526018602482015260008051602062002599833981519152604482015260640162000046565b60405163139a0e4560e11b8152889073__$2ef198253e5209528d081d789aa7dfe759$__906327341c8a906200019a90849060040162000855565b602060405180830381865af4158015620001b8573d6000803e3d6000fd5b505050506040513d601f19601f82011682018060405250810190620001de91906200088a565b156200021c5760405162461bcd60e51b8152602060048201526018602482015260008051602062002599833981519152604482015260640162000046565b60405163139a0e4560e11b8152859073__$2ef198253e5209528d081d789aa7dfe759$__906327341c8a906200025790849060040162000855565b602060405180830381865af415801562000275573d6000803e3d6000fd5b505050506040513d601f19601f820116820180604052508101906200029b91906200088a565b15620002d95760405162461bcd60e51b8152602060048201526018602482015260008051602062002599833981519152604482015260640162000046565b600280546001600160a01b0319166001600160a01b038f1617905560018e90558b516200030e9060039060208f019062000588565b508a51620003249060049060208e019062000588565b5089516200033a9060069060208d019062000588565b508851620003509060079060208c019062000588565b5060405163139a0e4560e11b815273__$2ef198253e5209528d081d789aa7dfe759$__906327341c8a906200038a908c9060040162000855565b602060405180830381865af4158015620003a8573d6000803e3d6000fd5b505050506040513d601f19601f82011682018060405250810190620003ce91906200088a565b156200040c5760408051808201909152600d8082526c64656661756c7420696d61676560981b60209092019182526200040a9160079162000588565b505b8751620004219060089060208b019062000588565b5060006009819055600a819055600b889055600580546001810182559152865162000474917f036b6384b5eca791c62761152d0c79bb0604c104a5fb6f4eb0703f3154bb3db00190602089019062000588565b506200048c600c6200058260201b620014121760201c565b620004a3600d6200058260201b620014121760201c565b6002546001546040516001600160a01b0390921691620004c690600390620008f1565b6040519081900390207f4ebeeb573ab9892d0c9b8e2b088b43617667b3479dca07176f29ef21ba848bd1620005036000546001600160a01b031690565b6040516001600160a01b03909116815260200160405180910390a4505050505050505050505050505062000994565b600080546001600160a01b038381166001600160a01b0319831681178455604051919092169283917f8be0079c531659141344cd1fd0a4f28419497f9722a3daafe3b4186f6b6457e09190a35050565b60009055565b8280546200059690620008b5565b90600052602060002090601f016020900481019282620005ba576000855562000605565b82601f10620005d557805160ff191683800117855562000605565b8280016001018555821562000605579182015b8281111562000605578251825591602001919060010190620005e8565b506200061392915062000617565b5090565b5b8082111562000613576000815560010162000618565b80516001600160a01b03811681146200064657600080fd5b919050565b634e487b7160e01b600052604160045260246000fd5b60005b838110156200067e57818101518382015260200162000664565b838111156200068e576000848401525b50505050565b600082601f830112620006a657600080fd5b81516001600160401b0380821115620006c357620006c36200064b565b604051601f8301601f19908116603f01168101908282118183101715620006ee57620006ee6200064b565b816040528381528660208588010111156200070857600080fd5b6200071b84602083016020890162000661565b9695505050505050565b60008060008060008060008060006101208a8c0312156200074557600080fd5b895198506200075760208b016200062e565b60408b01519098506001600160401b03808211156200077557600080fd5b620007838d838e0162000694565b985060608c01519150808211156200079a57600080fd5b620007a88d838e0162000694565b975060808c0151915080821115620007bf57600080fd5b620007cd8d838e0162000694565b965060a08c0151915080821115620007e457600080fd5b620007f28d838e0162000694565b955060c08c01519150808211156200080957600080fd5b620008178d838e0162000694565b945060e08c015193506101008c01519150808211156200083657600080fd5b50620008458c828d0162000694565b9150509295985092959850929598565b60208152600082518060208401526200087681604085016020870162000661565b601f01601f19169190910160400192915050565b6000602082840312156200089d57600080fd5b81518015158114620008ae57600080fd5b9392505050565b600181811c90821680620008ca57607f821691505b602082108103620008eb57634e487b7160e01b600052602260045260246000fd5b50919050565b600080835481600182811c9150808316806200090e57607f831692505b602080841082036200092e57634e487b7160e01b86526022600452602486fd5b818015620009455760018114620009575762000986565b60ff1986168952848901965062000986565b60008a81526020902060005b868110156200097e5781548b82015290850190830162000963565b505084890196505b509498975050505050505050565b611bf580620009a46000396000f3fe608060405234801561001057600080fd5b50600436106101585760003560e01c80638da5cb5b116100c3578063da0c57e91161007c578063da0c57e91461028d578063e26799ff146102a0578063e9cd36d3146102b5578063f2fde38b146102c8578063fabec44a146102db578063fafb1b01146102e357600080fd5b80638da5cb5b14610250578063a035b1fe14610261578063a512bd791461026a578063af640d0f14610272578063d23fe7c71461027b578063d68387c71461028557600080fd5b8063554ca36c11610115578063554ca36c146101f55780636904c94d14610208578063715018a6146102105780637284e4161461021857806373b8fc801461022057806381ecdf451461023d57600080fd5b806302d05d3f1461015d57806306fdde031461018d578063128a8f76146101a257806334b1a7cc146101b757806342cbef95146101cf5780634ad3d57d146101e2575b600080fd5b600254610170906001600160a01b031681565b6040516001600160a01b0390911681526020015b60405180910390f35b6101956102f6565b60405161018491906116d6565b6101b56101b03660046116f0565b610384565b005b600d546101c19081565b604051908152602001610184565b6101b56101dd3660046116f0565b610505565b6101b56101f03660046116f0565b61067e565b6101b56102033660046116f0565b6107ef565b6101956109bb565b6101b56109c8565b6101956109fe565b610228610a0b565b60408051928352602083019190915201610184565b6101b561024b3660046116f0565b610a2d565b6000546001600160a01b0316610170565b6101c1600b5481565b610195610b9c565b6101c160015481565b600c546101c19081565b610195610ba9565b6101b561029b366004611778565b610bb6565b6102a8610d53565b6040516101849190611829565b6101b56102c336600461191c565b611046565b6101b56102d6366004611935565b611145565b6101956111e0565b6101b56102f13660046116f0565b61129c565b600380546103039061195e565b80601f016020809104026020016040519081016040528092919081815260200182805461032f9061195e565b801561037c5780601f106103515761010080835404028352916020019161037c565b820191906000526020600020905b81548152906001019060200180831161035f57829003601f168201915b505050505081565b6000546001600160a01b031633146103b75760405162461bcd60e51b81526004016103ae90611998565b60405180910390fd5b81818080601f0160208091040260200160405190810160405280939291908181526020018383808284376000920191909152505060405163139a0e4560e11b815273__$2ef198253e5209528d081d789aa7dfe759$__92506327341c8a91506104249084906004016116d6565b602060405180830381865af4158015610441573d6000803e3d6000fd5b505050506040513d601f19601f8201168201806040525081019061046591906119cd565b156104825760405162461bcd60e51b81526004016103ae906119ef565b8282604051610492929190611a26565b604051809103902060086040516104a99190611a36565b6040519081900381206e7570646174656420636f6d70616e7960881b825290600f0160405190819003812033825290600080516020611ba08339815191529060200160405180910390a46104ff60088484611571565b50505050565b6000546001600160a01b0316331461052f5760405162461bcd60e51b81526004016103ae90611998565b81818080601f0160208091040260200160405190810160405280939291908181526020018383808284376000920191909152505060405163139a0e4560e11b815273__$2ef198253e5209528d081d789aa7dfe759$__92506327341c8a915061059c9084906004016116d6565b602060405180830381865af41580156105b9573d6000803e3d6000fd5b505050506040513d601f19601f820116820180604052508101906105dd91906119cd565b156105fa5760405162461bcd60e51b81526004016103ae906119ef565b828260405161060a929190611a26565b604051809103902060066040516106219190611a36565b6040519081900381207575706461746564206e65775f6d61676e65744c696e6b60501b82529060160160405190819003812033825290600080516020611ba08339815191529060200160405180910390a46104ff60068484611571565b6000546001600160a01b031633146106a85760405162461bcd60e51b81526004016103ae90611998565b81818080601f0160208091040260200160405190810160405280939291908181526020018383808284376000920191909152505060405163139a0e4560e11b815273__$2ef198253e5209528d081d789aa7dfe759$__92506327341c8a91506107159084906004016116d6565b602060405180830381865af4158015610732573d6000803e3d6000fd5b505050506040513d601f19601f8201168201806040525081019061075691906119cd565b156107735760405162461bcd60e51b81526004016103ae906119ef565b8282604051610783929190611a26565b6040518091039020600760405161079a9190611a36565b6040519081900381206d1d5c19185d1959081a5b59d55c9b60921b825290600e0160405190819003812033825290600080516020611ba08339815191529060200160405180910390a46104ff60078484611571565b6000546001600160a01b031633146108195760405162461bcd60e51b81526004016103ae90611998565b81818080601f0160208091040260200160405190810160405280939291908181526020018383808284376000920191909152505060405163139a0e4560e11b815273__$2ef198253e5209528d081d789aa7dfe759$__92506327341c8a91506108869084906004016116d6565b602060405180830381865af41580156108a3573d6000803e3d6000fd5b505050506040513d601f19601f820116820180604052508101906108c791906119cd565b156108e45760405162461bcd60e51b81526004016103ae906119ef565b82826040516108f4929190611a26565b6040519081900390206005805461090d90600190611ae7565b8154811061091d5761091d611afe565b906000526020600020016040516109349190611a36565b6040519081900381206e757064617465642066696c6573686160881b825290600f0160405190819003812033825290600080516020611ba08339815191529060200160405180910390a4600580546001810182556000919091526104ff907f036b6384b5eca791c62761152d0c79bb0604c104a5fb6f4eb0703f3154bb3db0018484611571565b600880546103039061195e565b6000546001600160a01b031633146109f25760405162461bcd60e51b81526004016103ae90611998565b6109fc6000611418565b565b600480546103039061195e565b600080600060095411610a215750600091829150565b5050600954600a549091565b6000546001600160a01b03163314610a575760405162461bcd60e51b81526004016103ae90611998565b81818080601f0160208091040260200160405190810160405280939291908181526020018383808284376000920191909152505060405163139a0e4560e11b815273__$2ef198253e5209528d081d789aa7dfe759$__92506327341c8a9150610ac49084906004016116d6565b602060405180830381865af4158015610ae1573d6000803e3d6000fd5b505050506040513d601f19601f82011682018060405250810190610b0591906119cd565b15610b225760405162461bcd60e51b81526004016103ae906119ef565b8282604051610b32929190611a26565b60405180910390206003604051610b499190611a36565b6040519081900381206b75706461746564206e616d6560a01b825290600c0160405190819003812033825290600080516020611ba08339815191529060200160405180910390a46104ff60038484611571565b600680546103039061195e565b600780546103039061195e565b6000546001600160a01b03163314610be05760405162461bcd60e51b81526004016103ae90611998565b60405163139a0e4560e11b8152819073__$2ef198253e5209528d081d789aa7dfe759$__906327341c8a90610c199084906004016116d6565b602060405180830381865af4158015610c36573d6000803e3d6000fd5b505050506040513d601f19601f82011682018060405250810190610c5a91906119cd565b15610c775760405162461bcd60e51b81526004016103ae906119ef565b81604051610c859190611b14565b60405190819003902060058054610c9e90600190611ae7565b81548110610cae57610cae611afe565b90600052602060002001604051610cc59190611a36565b6040519081900381206a757064617465642073686160a81b825290600b0160405190819003812033825290600080516020611ba08339815191529060200160405180910390a4600580546001810182556000919091528251610d4e917f036b6384b5eca791c62761152d0c79bb0604c104a5fb6f4eb0703f3154bb3db0019060208501906115f5565b505050565b610db2604051806101600160405280600081526020016060815260200160608152602001606081526020016060815260200160008152602001600081526020016000815260200160008152602001606081526020016000151581525090565b6000604051806101600160405280600154815260200160038054610dd59061195e565b80601f0160208091040260200160405190810160405280929190818152602001828054610e019061195e565b8015610e4e5780601f10610e2357610100808354040283529160200191610e4e565b820191906000526020600020905b815481529060010190602001808311610e3157829003601f168201915b5050505050815260200160048054610e659061195e565b80601f0160208091040260200160405190810160405280929190818152602001828054610e919061195e565b8015610ede5780601f10610eb357610100808354040283529160200191610ede565b820191906000526020600020905b815481529060010190602001808311610ec157829003601f168201915b5050505050815260200160078054610ef59061195e565b80601f0160208091040260200160405190810160405280929190818152602001828054610f219061195e565b8015610f6e5780601f10610f4357610100808354040283529160200191610f6e565b820191906000526020600020905b815481529060010190602001808311610f5157829003601f168201915b5050505050815260200160088054610f859061195e565b80601f0160208091040260200160405190810160405280929190818152602001828054610fb19061195e565b8015610ffe5780601f10610fd357610100808354040283529160200191610ffe565b820191906000526020600020905b815481529060010190602001808311610fe157829003601f168201915b50505050508152602001600b548152602001611019600c5490565b81526020016009548152602001600a5481526020016110366111e0565b8152600060209091015292915050565b6000546001600160a01b031633146110705760405162461bcd60e51b81526004016103ae90611998565b80600081116110c15760405162461bcd60e51b815260206004820152601c60248201527f5072696365206d7573742062652067726561746572207468616e20300000000060448201526064016103ae565b6110ca82611468565b6040516110d79190611b14565b60405180910390206110ea600b54611468565b6040516110f79190611b14565b6040519081900381206c7570646174656420707269636560981b825290600d0160405190819003812033825290600080516020611ba08339815191529060200160405180910390a450600b55565b6000546001600160a01b0316331461116f5760405162461bcd60e51b81526004016103ae90611998565b6001600160a01b0381166111d45760405162461bcd60e51b815260206004820152602660248201527f4f776e61626c653a206e6577206f776e657220697320746865207a65726f206160448201526564647265737360d01b60648201526084016103ae565b6111dd81611418565b50565b60058054606091906111f490600190611ae7565b8154811061120457611204611afe565b9060005260206000200180546112199061195e565b80601f01602080910402602001604051908101604052809291908181526020018280546112459061195e565b80156112925780601f1061126757610100808354040283529160200191611292565b820191906000526020600020905b81548152906001019060200180831161127557829003601f168201915b5050505050905090565b6000546001600160a01b031633146112c65760405162461bcd60e51b81526004016103ae90611998565b81818080601f0160208091040260200160405190810160405280939291908181526020018383808284376000920191909152505060405163139a0e4560e11b815273__$2ef198253e5209528d081d789aa7dfe759$__92506327341c8a91506113339084906004016116d6565b602060405180830381865af4158015611350573d6000803e3d6000fd5b505050506040513d601f19601f8201168201806040525081019061137491906119cd565b156113915760405162461bcd60e51b81526004016103ae906119ef565b82826040516113a1929190611a26565b604051809103902060046040516113b89190611a36565b604051908190038120723ab83230ba32b2103232b9b1b934b83a34b7b760691b82529060130160405190819003812033825290600080516020611ba08339815191529060200160405180910390a46104ff60048484611571565b60009055565b600080546001600160a01b038381166001600160a01b0319831681178455604051919092169283917f8be0079c531659141344cd1fd0a4f28419497f9722a3daafe3b4186f6b6457e09190a35050565b60608160000361148f5750506040805180820190915260018152600360fc1b602082015290565b8160005b81156114b957806114a381611b30565b91506114b29050600a83611b5f565b9150611493565b60008167ffffffffffffffff8111156114d4576114d4611762565b6040519080825280601f01601f1916602001820160405280156114fe576020820181803683370190505b5090505b841561156957611513600183611ae7565b9150611520600a86611b73565b61152b906030611b87565b60f81b81838151811061154057611540611afe565b60200101906001600160f81b031916908160001a905350611562600a86611b5f565b9450611502565b949350505050565b82805461157d9061195e565b90600052602060002090601f01602090048101928261159f57600085556115e5565b82601f106115b85782800160ff198235161785556115e5565b828001600101855582156115e5579182015b828111156115e55782358255916020019190600101906115ca565b506115f1929150611669565b5090565b8280546116019061195e565b90600052602060002090601f01602090048101928261162357600085556115e5565b82601f1061163c57805160ff19168380011785556115e5565b828001600101855582156115e5579182015b828111156115e557825182559160200191906001019061164e565b5b808211156115f1576000815560010161166a565b60005b83811015611699578181015183820152602001611681565b838111156104ff5750506000910152565b600081518084526116c281602086016020860161167e565b601f01601f19169290920160200192915050565b6020815260006116e960208301846116aa565b9392505050565b6000806020838503121561170357600080fd5b823567ffffffffffffffff8082111561171b57600080fd5b818501915085601f83011261172f57600080fd5b81358181111561173e57600080fd5b86602082850101111561175057600080fd5b60209290920196919550909350505050565b634e487b7160e01b600052604160045260246000fd5b60006020828403121561178a57600080fd5b813567ffffffffffffffff808211156117a257600080fd5b818401915084601f8301126117b657600080fd5b8135818111156117c8576117c8611762565b604051601f8201601f19908116603f011681019083821181831017156117f0576117f0611762565b8160405282815287602084870101111561180957600080fd5b826020860160208301376000928101602001929092525095945050505050565b6020815281516020820152600060208301516101608060408501526118526101808501836116aa565b91506040850151601f198086850301606087015261187084836116aa565b9350606087015191508086850301608087015261188d84836116aa565b935060808701519150808685030160a08701526118aa84836116aa565b935060a087015160c087015260c087015160e087015260e087015191506101008281880152808801519250506101208281880152808801519250506101408187860301818801526118fb85846116aa565b945080880151925050506119128286018215159052565b5090949350505050565b60006020828403121561192e57600080fd5b5035919050565b60006020828403121561194757600080fd5b81356001600160a01b03811681146116e957600080fd5b600181811c9082168061197257607f821691505b60208210810361199257634e487b7160e01b600052602260045260246000fd5b50919050565b6020808252818101527f4f776e61626c653a2063616c6c6572206973206e6f7420746865206f776e6572604082015260600190565b6000602082840312156119df57600080fd5b815180151581146116e957600080fd5b60208082526018908201527f537472696e67206d757374206e6f7420626520656d7074790000000000000000604082015260600190565b8183823760009101908152919050565b600080835481600182811c915080831680611a5257607f831692505b60208084108203611a7157634e487b7160e01b86526022600452602486fd5b818015611a855760018114611a9657611ac3565b60ff19861689528489019650611ac3565b60008a81526020902060005b86811015611abb5781548b820152908501908301611aa2565b505084890196505b509498975050505050505050565b634e487b7160e01b600052601160045260246000fd5b600082821015611af957611af9611ad1565b500390565b634e487b7160e01b600052603260045260246000fd5b60008251611b2681846020870161167e565b9190910192915050565b600060018201611b4257611b42611ad1565b5060010190565b634e487b7160e01b600052601260045260246000fd5b600082611b6e57611b6e611b49565b500490565b600082611b8257611b82611b49565b500690565b60008219821115611b9a57611b9a611ad1565b50019056fe1f7eeccc90c93b6a65fbe0be0414ed24073262ce0f988484e24f275529193e6fa26469706673582212201207a227ae8c5be355f468ef9b00e2ffa1cb8914bd2ee4efbe2b20374e06183264736f6c634300080e0033537472696e67206d757374206e6f7420626520656d7074790000000000000000608060405234801561001057600080fd5b506040516111f93803806111f983398101604081905261002f91610101565b610038336100b1565b60028054600180546001600160a01b0319166001600160a01b0385169081179091556001600160a81b03199091163360ff60a01b1981169190911790925560405191825230917fb38dc5c508c5acbc701af21346d9dbc58b631681962a52c08afe86b277eb7e979060200160405180910390a350610131565b600080546001600160a01b038381166001600160a01b0319831681178455604051919092169283917f8be0079c531659141344cd1fd0a4f28419497f9722a3daafe3b4186f6b6457e09190a35050565b60006020828403121561011357600080fd5b81516001600160a01b038116811461012a57600080fd5b9392505050565b6110b9806101406000396000f3fe6080604052600436106100a75760003560e01c80638da5cb5b116100645780638da5cb5b1461016f578063983c0a5b146101975780639f9f7f85146101b7578063b8c3773f146101e5578063d3c65b91146101fa578063f2fde38b1461020d57600080fd5b80630611599d146100ac57806307e5d9e5146100e1578063139334af146101035780632858594b14610125578063715018a6146101455780638cfb33041461015a575b600080fd5b3480156100b857600080fd5b506100cc6100c7366004610bcb565b61022d565b60405190151581526020015b60405180910390f35b3480156100ed57600080fd5b506101016100fc366004610bcb565b61034d565b005b34801561010f57600080fd5b506101186103dd565b6040516100d89190610c4b565b34801561013157600080fd5b50610101610140366004610bcb565b610533565b34801561015157600080fd5b5061010161068e565b34801561016657600080fd5b506101186106c4565b34801561017b57600080fd5b506000546040516001600160a01b0390911681526020016100d8565b3480156101a357600080fd5b506101016101b2366004610d72565b610813565b3480156101c357600080fd5b506101d76101d2366004610bcb565b610874565b6040519081526020016100d8565b3480156101f157600080fd5b506101186108bb565b610101610208366004610d72565b610a0a565b34801561021957600080fd5b50610101610228366004610bcb565b610a6f565b600080546001600160a01b031633146102615760405162461bcd60e51b815260040161025890610d9e565b60405180910390fd5b60005b60035481101561034257826001600160a01b031673__$4abe93d8f421c97b6c3dfbe9b44c8344ba$__63685658bb9091600384815481106102a7576102a7610dd3565b60009182526020909120015460405160e084901b6001600160e01b03191681526001600160a01b03928316600482015291166024820152604401602060405180830381865af41580156102fe573d6000803e3d6000fd5b505050506040513d601f19601f820116820180604052508101906103229190610df9565b156103305750600192915050565b8061033a81610e14565b915050610264565b50600090505b919050565b6000546001600160a01b031633146103775760405162461bcd60e51b815260040161025890610d9e565b6002805460ff60a01b1916600160a01b179055600480546001810182556000919091527f8a35acfbc15ff81a39ae7d344fd709f28e8600b4aa8c65c6b64bfe7fe36bd19b0180546001600160a01b039092166001600160a01b0319909216919091179055565b6000546060906001600160a01b0316331461040a5760405162461bcd60e51b815260040161025890610d9e565b60035460008167ffffffffffffffff81111561042857610428610e3b565b60405190808252806020026020018201604052801561046157816020015b61044e610b5a565b8152602001906001900390816104465790505b50905060005b8281101561052c5760006003828154811061048457610484610dd3565b60009182526020822001546040805163e26799ff60e01b815290516001600160a01b039092169350839263e26799ff926004808401938290030181865afa1580156104d3573d6000803e3d6000fd5b505050506040513d6000823e601f3d908101601f191682016040526104fb9190810190610f03565b83838151811061050d5761050d610dd3565b602002602001018190525050808061052490610e14565b915050610467565b5091505090565b6000546001600160a01b0316331461055d5760405162461bcd60e51b815260040161025890610d9e565b60008190506000816001600160a01b031663a035b1fe6040518163ffffffff1660e01b8152600401602060405180830381865afa1580156105a2573d6000803e3d6000fd5b505050506040513d601f19601f820116820180604052508101906105c6919061104d565b90506000826001600160a01b03166302d05d3f6040518163ffffffff1660e01b8152600401602060405180830381865afa158015610608573d6000803e3d6000fd5b505050506040513d601f19601f8201168201806040525081019061062c9190611066565b90506106388183610a0a565b5050600380546001810182556000919091527fc2575a0e9e593c00f959f8c92f12db2869c3395a3b0502d05e2516446f71f85b0180546001600160a01b0319166001600160a01b03939093169290921790915550565b6000546001600160a01b031633146106b85760405162461bcd60e51b815260040161025890610d9e565b6106c26000610b0a565b565b6000546060906001600160a01b031633146106f15760405162461bcd60e51b815260040161025890610d9e565b60045460008167ffffffffffffffff81111561070f5761070f610e3b565b60405190808252806020026020018201604052801561074857816020015b610735610b5a565b81526020019060019003908161072d5790505b50905060005b8281101561052c5760006004828154811061076b5761076b610dd3565b60009182526020822001546040805163e26799ff60e01b815290516001600160a01b039092169350839263e26799ff926004808401938290030181865afa1580156107ba573d6000803e3d6000fd5b505050506040513d6000823e601f3d908101601f191682016040526107e29190810190610f03565b8383815181106107f4576107f4610dd3565b602002602001018190525050808061080b90610e14565b91505061074e565b6000546001600160a01b0316331461083d5760405162461bcd60e51b815260040161025890610d9e565b6001811015801561084f575060058111155b61085857600080fd5b6001600160a01b03909116600090815260056020526040902055565b600080546001600160a01b0316331461089f5760405162461bcd60e51b815260040161025890610d9e565b506001600160a01b031660009081526005602052604090205490565b6000546060906001600160a01b031633146108e85760405162461bcd60e51b815260040161025890610d9e565b60035460008167ffffffffffffffff81111561090657610906610e3b565b60405190808252806020026020018201604052801561093f57816020015b61092c610b5a565b8152602001906001900390816109245790505b50905060005b8281101561052c5760006003828154811061096257610962610dd3565b60009182526020822001546040805163e26799ff60e01b815290516001600160a01b039092169350839263e26799ff926004808401938290030181865afa1580156109b1573d6000803e3d6000fd5b505050506040513d6000823e601f3d908101601f191682016040526109d99190810190610f03565b8383815181106109eb576109eb610dd3565b6020026020010181905250508080610a0290610e14565b915050610945565b6000546001600160a01b03163314610a345760405162461bcd60e51b815260040161025890610d9e565b6040516001600160a01b0383169082156108fc029083906000818181858888f19350505050158015610a6a573d6000803e3d6000fd5b505050565b6000546001600160a01b03163314610a995760405162461bcd60e51b815260040161025890610d9e565b6001600160a01b038116610afe5760405162461bcd60e51b815260206004820152602660248201527f4f776e61626c653a206e6577206f776e657220697320746865207a65726f206160448201526564647265737360d01b6064820152608401610258565b610b0781610b0a565b50565b600080546001600160a01b038381166001600160a01b0319831681178455604051919092169283917f8be0079c531659141344cd1fd0a4f28419497f9722a3daafe3b4186f6b6457e09190a35050565b604051806101600160405280600081526020016060815260200160608152602001606081526020016060815260200160008152602001600081526020016000815260200160008152602001606081526020016000151581525090565b6001600160a01b0381168114610b0757600080fd5b600060208284031215610bdd57600080fd5b8135610be881610bb6565b9392505050565b60005b83811015610c0a578181015183820152602001610bf2565b83811115610c19576000848401525b50505050565b60008151808452610c37816020860160208601610bef565b601f01601f19169290920160200192915050565b60006020808301818452808551808352604092508286019150828160051b87010184880160005b83811015610d6457603f1989840301855281516101608151855288820151818a870152610ca182870182610c1f565b9150508782015185820389870152610cb98282610c1f565b91505060608083015186830382880152610cd38382610c1f565b9250505060808083015186830382880152610cee8382610c1f565b60a0858101519089015260c0808601519089015260e08086015190890152610100808601519089015261012080860151898303828b015291945092509050610d368382610c1f565b92505050610140808301519250610d508187018415159052565b509588019593505090860190600101610c72565b509098975050505050505050565b60008060408385031215610d8557600080fd5b8235610d9081610bb6565b946020939093013593505050565b6020808252818101527f4f776e61626c653a2063616c6c6572206973206e6f7420746865206f776e6572604082015260600190565b634e487b7160e01b600052603260045260246000fd5b8051801515811461034857600080fd5b600060208284031215610e0b57600080fd5b610be882610de9565b600060018201610e3457634e487b7160e01b600052601160045260246000fd5b5060010190565b634e487b7160e01b600052604160045260246000fd5b604051610160810167ffffffffffffffff81118282101715610e7557610e75610e3b565b60405290565b600082601f830112610e8c57600080fd5b815167ffffffffffffffff80821115610ea757610ea7610e3b565b604051601f8301601f19908116603f01168101908282118183101715610ecf57610ecf610e3b565b81604052838152866020858801011115610ee857600080fd5b610ef9846020830160208901610bef565b9695505050505050565b600060208284031215610f1557600080fd5b815167ffffffffffffffff80821115610f2d57600080fd5b908301906101608286031215610f4257600080fd5b610f4a610e51565b82518152602083015182811115610f6057600080fd5b610f6c87828601610e7b565b602083015250604083015182811115610f8457600080fd5b610f9087828601610e7b565b604083015250606083015182811115610fa857600080fd5b610fb487828601610e7b565b606083015250608083015182811115610fcc57600080fd5b610fd887828601610e7b565b60808301525060a083015160a082015260c083015160c082015260e083015160e0820152610100808401518183015250610120808401518381111561101c57600080fd5b61102888828701610e7b565b828401525050610140915061103e828401610de9565b91810191909152949350505050565b60006020828403121561105f57600080fd5b5051919050565b60006020828403121561107857600080fd5b8151610be881610bb656fea2646970667358221220bd874d92de3d9f248e370a7ab490650196c9fbcd16aab30f20e2345b98198aa064736f6c634300080e0033a264697066735822122042517b7af9c33baf7c40237122aa791f6eaea85dc0e8230b77aec06db2a68ed064736f6c634300080e0033",
    "sourcePath": "c:/Users/User/Documents/GitHub/SmartContracts/contracts/dAppstore.sol",
    "compiler": {
        "name": "solc",
        "version": "0.8.14+commit.80d49f37"
    },
    "functionHashes": {
        "createNewApp(address,string,string,string,string,string,uint256,string)": "bd0c2845",
        "generateDemoApps(uint256)": "1e73a2ea",
        "getAppBatch(uint256,uint256)": "7d6a24ab",
        "name()": "06fdde03",
        "purchaseApp(address)": "2858594b",
        "updateApp(uint256,string,string,string,string,string,uint256,string)": "84b75a02"
    },
    "gasEstimates": {
        "creation": {
            "codeDepositCost": "4741000",
            "executionCost": "infinite",
            "totalCost": "infinite"
        },
        "external": {
            "createNewApp(address,string,string,string,string,string,uint256,string)": "infinite",
            "generateDemoApps(uint256)": "infinite",
            "getAppBatch(uint256,uint256)": "infinite",
            "name()": "infinite",
            "purchaseApp(address)": "infinite",
            "updateApp(uint256,string,string,string,string,string,uint256,string)": "infinite"
        },
        "internal": {
            "createNewUser(address)": "infinite",
            "getCreatedAppsInfo()": "infinite",
            "getPurchasedAppsInfo()": "infinite",
            "getRatedAppsInfo()": "infinite"
        }
    }
}