{
    "contractName": "dAppstore",
    "abi": [
        {
            "inputs": [],
            "stateMutability": "nonpayable",
            "type": "constructor"
        },
        {
            "inputs": [
                {
                    "internalType": "string",
                    "name": "_name",
                    "type": "string"
                },
                {
                    "internalType": "string",
                    "name": "_description",
                    "type": "string"
                },
                {
                    "internalType": "string",
                    "name": "_magnetLink",
                    "type": "string"
                },
                {
                    "internalType": "string",
                    "name": "_imgUrl",
                    "type": "string"
                },
                {
                    "internalType": "string",
                    "name": "_company",
                    "type": "string"
                },
                {
                    "internalType": "uint256",
                    "name": "_price",
                    "type": "uint256"
                },
                {
                    "internalType": "string",
                    "name": "_fileSha256",
                    "type": "string"
                }
            ],
            "name": "createNewApp",
            "outputs": [],
            "stateMutability": "nonpayable",
            "type": "function"
        },
        {
            "inputs": [
                {
                    "internalType": "uint256",
                    "name": "start",
                    "type": "uint256"
                },
                {
                    "internalType": "uint256",
                    "name": "len",
                    "type": "uint256"
                }
            ],
            "name": "getAppBatch",
            "outputs": [
                {
                    "components": [
                        {
                            "internalType": "uint256",
                            "name": "id",
                            "type": "uint256"
                        },
                        {
                            "internalType": "string",
                            "name": "name",
                            "type": "string"
                        },
                        {
                            "internalType": "string",
                            "name": "description",
                            "type": "string"
                        },
                        {
                            "internalType": "string",
                            "name": "imgUrl",
                            "type": "string"
                        },
                        {
                            "internalType": "string",
                            "name": "company",
                            "type": "string"
                        },
                        {
                            "internalType": "uint256",
                            "name": "price",
                            "type": "uint256"
                        },
                        {
                            "internalType": "uint256",
                            "name": "num_ratings",
                            "type": "uint256"
                        },
                        {
                            "internalType": "uint256",
                            "name": "rating",
                            "type": "uint256"
                        },
                        {
                            "internalType": "uint256",
                            "name": "rating_modulu",
                            "type": "uint256"
                        },
                        {
                            "internalType": "string",
                            "name": "fileSha256",
                            "type": "string"
                        },
                        {
                            "internalType": "bool",
                            "name": "owned",
                            "type": "bool"
                        },
                        {
                            "internalType": "string",
                            "name": "magnetLink",
                            "type": "string"
                        }
                    ],
                    "internalType": "struct AppInfoLibrary.AppInfo[]",
                    "name": "",
                    "type": "tuple[]"
                }
            ],
            "stateMutability": "view",
            "type": "function"
        },
        {
            "inputs": [],
            "name": "getAppCount",
            "outputs": [
                {
                    "internalType": "uint256",
                    "name": "",
                    "type": "uint256"
                }
            ],
            "stateMutability": "view",
            "type": "function"
        },
        {
            "inputs": [],
            "name": "getCreatedAppsInfo",
            "outputs": [
                {
                    "components": [
                        {
                            "internalType": "uint256",
                            "name": "id",
                            "type": "uint256"
                        },
                        {
                            "internalType": "string",
                            "name": "name",
                            "type": "string"
                        },
                        {
                            "internalType": "string",
                            "name": "description",
                            "type": "string"
                        },
                        {
                            "internalType": "string",
                            "name": "imgUrl",
                            "type": "string"
                        },
                        {
                            "internalType": "string",
                            "name": "company",
                            "type": "string"
                        },
                        {
                            "internalType": "uint256",
                            "name": "price",
                            "type": "uint256"
                        },
                        {
                            "internalType": "uint256",
                            "name": "num_ratings",
                            "type": "uint256"
                        },
                        {
                            "internalType": "uint256",
                            "name": "rating",
                            "type": "uint256"
                        },
                        {
                            "internalType": "uint256",
                            "name": "rating_modulu",
                            "type": "uint256"
                        },
                        {
                            "internalType": "string",
                            "name": "fileSha256",
                            "type": "string"
                        },
                        {
                            "internalType": "bool",
                            "name": "owned",
                            "type": "bool"
                        },
                        {
                            "internalType": "string",
                            "name": "magnetLink",
                            "type": "string"
                        }
                    ],
                    "internalType": "struct AppInfoLibrary.AppInfo[]",
                    "name": "",
                    "type": "tuple[]"
                }
            ],
            "stateMutability": "view",
            "type": "function"
        },
        {
            "inputs": [],
            "name": "getPurchasedAppsInfo",
            "outputs": [
                {
                    "components": [
                        {
                            "internalType": "uint256",
                            "name": "id",
                            "type": "uint256"
                        },
                        {
                            "internalType": "string",
                            "name": "name",
                            "type": "string"
                        },
                        {
                            "internalType": "string",
                            "name": "description",
                            "type": "string"
                        },
                        {
                            "internalType": "string",
                            "name": "imgUrl",
                            "type": "string"
                        },
                        {
                            "internalType": "string",
                            "name": "company",
                            "type": "string"
                        },
                        {
                            "internalType": "uint256",
                            "name": "price",
                            "type": "uint256"
                        },
                        {
                            "internalType": "uint256",
                            "name": "num_ratings",
                            "type": "uint256"
                        },
                        {
                            "internalType": "uint256",
                            "name": "rating",
                            "type": "uint256"
                        },
                        {
                            "internalType": "uint256",
                            "name": "rating_modulu",
                            "type": "uint256"
                        },
                        {
                            "internalType": "string",
                            "name": "fileSha256",
                            "type": "string"
                        },
                        {
                            "internalType": "bool",
                            "name": "owned",
                            "type": "bool"
                        },
                        {
                            "internalType": "string",
                            "name": "magnetLink",
                            "type": "string"
                        }
                    ],
                    "internalType": "struct AppInfoLibrary.AppInfo[]",
                    "name": "",
                    "type": "tuple[]"
                }
            ],
            "stateMutability": "view",
            "type": "function"
        },
        {
            "inputs": [],
            "name": "getRatedAppsInfo",
            "outputs": [
                {
                    "components": [
                        {
                            "internalType": "uint256",
                            "name": "id",
                            "type": "uint256"
                        },
                        {
                            "internalType": "string",
                            "name": "name",
                            "type": "string"
                        },
                        {
                            "internalType": "string",
                            "name": "description",
                            "type": "string"
                        },
                        {
                            "internalType": "string",
                            "name": "imgUrl",
                            "type": "string"
                        },
                        {
                            "internalType": "string",
                            "name": "company",
                            "type": "string"
                        },
                        {
                            "internalType": "uint256",
                            "name": "price",
                            "type": "uint256"
                        },
                        {
                            "internalType": "uint256",
                            "name": "num_ratings",
                            "type": "uint256"
                        },
                        {
                            "internalType": "uint256",
                            "name": "rating",
                            "type": "uint256"
                        },
                        {
                            "internalType": "uint256",
                            "name": "rating_modulu",
                            "type": "uint256"
                        },
                        {
                            "internalType": "string",
                            "name": "fileSha256",
                            "type": "string"
                        },
                        {
                            "internalType": "bool",
                            "name": "owned",
                            "type": "bool"
                        },
                        {
                            "internalType": "string",
                            "name": "magnetLink",
                            "type": "string"
                        }
                    ],
                    "internalType": "struct AppInfoLibrary.AppInfo[]",
                    "name": "",
                    "type": "tuple[]"
                }
            ],
            "stateMutability": "view",
            "type": "function"
        },
        {
            "inputs": [],
            "name": "name",
            "outputs": [
                {
                    "internalType": "string",
                    "name": "",
                    "type": "string"
                }
            ],
            "stateMutability": "view",
            "type": "function"
        },
        {
            "inputs": [
                {
                    "internalType": "uint256",
                    "name": "app_id",
                    "type": "uint256"
                }
            ],
            "name": "purchaseApp",
            "outputs": [],
            "stateMutability": "payable",
            "type": "function"
        },
        {
            "inputs": [
                {
                    "internalType": "uint256",
                    "name": "_app_id",
                    "type": "uint256"
                },
                {
                    "internalType": "uint256",
                    "name": "_rating",
                    "type": "uint256"
                }
            ],
            "name": "rateApp",
            "outputs": [],
            "stateMutability": "nonpayable",
            "type": "function"
        },
        {
            "inputs": [
                {
                    "internalType": "uint256",
                    "name": "app_id",
                    "type": "uint256"
                },
                {
                    "internalType": "string",
                    "name": "_name",
                    "type": "string"
                },
                {
                    "internalType": "string",
                    "name": "_description",
                    "type": "string"
                },
                {
                    "internalType": "string",
                    "name": "_magnetLink",
                    "type": "string"
                },
                {
                    "internalType": "string",
                    "name": "_imgUrl",
                    "type": "string"
                },
                {
                    "internalType": "uint256",
                    "name": "_price",
                    "type": "uint256"
                },
                {
                    "internalType": "string",
                    "name": "_fileSha256",
                    "type": "string"
                }
            ],
            "name": "updateApp",
            "outputs": [],
            "stateMutability": "nonpayable",
            "type": "function"
        }
    ],
    "bytecode": "608060405234801561001057600080fd5b50610025600461002a60201b6119091760201c565b610030565b60009055565b615eef80620000406000396000f3fe6080604052600436106200009d5760003560e01c80638f89b46a11620000605780638f89b46a146200018a5780639a9d793c14620001a2578063ac41f1a914620001c7578063af42099414620001df578063e0b8f2ae146200020457600080fd5b806306fdde0314620000a257806333e067a614620000f157806370b8fd92146200010a5780637d6a24ab146200012f57806380109fea1462000163575b600080fd5b348015620000af57600080fd5b50620000d9604051806040016040528060098152602001686441707073746f726560b81b81525081565b604051620000e8919062001bb8565b60405180910390f35b620001086200010236600462001bcd565b6200021c565b005b3480156200011757600080fd5b50620001086200012936600462001be7565b62000627565b3480156200013c57600080fd5b50620001546200014e36600462001be7565b62000825565b604051620000e8919062001c0a565b3480156200017057600080fd5b506200017b62000b59565b604051908152602001620000e8565b3480156200019757600080fd5b506200015462000b6c565b348015620001af57600080fd5b5062000108620001c136600462001e59565b62000c91565b348015620001d457600080fd5b5062000154620015b1565b348015620001ec57600080fd5b5062000108620001fe36600462001f4e565b620016a6565b3480156200021157600080fd5b506200015462001814565b806200022a6000826200190f565b6200026c5760405162461bcd60e51b815260206004820152600d60248201526c105c1c081b9bdd08199bdd5b99609a1b60448201526064015b60405180910390fd5b6200027960008262001924565b6040516386bd3f9160e01b81526001600160a01b03909116600482015273__$4abe93d8f421c97b6c3dfbe9b44c8344ba$__906386bd3f9190602401602060405180830381865af4158015620002d3573d6000803e3d6000fd5b505050506040513d601f19601f82011682018060405250810190620002f9919062001fbe565b156200033d5760405162461bcd60e51b815260206004820152601260248201527141707020646f656e7327742065786973747360701b604482015260640162000263565b33600081815260036020526040908190205490516386bd3f9160e01b81526001600160a01b03909116600482015273__$4abe93d8f421c97b6c3dfbe9b44c8344ba$__906386bd3f9190602401602060405180830381865af4158015620003a8573d6000803e3d6000fd5b505050506040513d601f19601f82011682018060405250810190620003ce919062001fbe565b15620003df57620003df8162001932565b6000620003ed818562001924565b905060008190506000816001600160a01b03166302d05d3f6040518163ffffffff1660e01b8152600401602060405180830381865afa15801562000435573d6000803e3d6000fd5b505050506040513d601f19601f820116820180604052508101906200045b919062001fdc565b6001600160a01b03163460405160006040518083038185875af1925050503d8060008114620004a7576040519150601f19603f3d011682016040523d82523d6000602084013e620004ac565b606091505b5050905080620004f65760405162461bcd60e51b81526020600482015260146024820152732330b4b632b2103a379039b2b7321022ba3432b960611b604482015260640162000263565b6001600160a01b0384811660009081526003602052604090819020549051632858594b60e01b81528583166004820152911690632858594b90602401600060405180830381600087803b1580156200054d57600080fd5b505af115801562000562573d6000803e3d6000fd5b50505050826001600160a01b0316846001600160a01b0316846001600160a01b03166302d05d3f6040518163ffffffff1660e01b8152600401602060405180830381865afa158015620005b9573d6000803e3d6000fd5b505050506040513d601f19601f82011682018060405250810190620005df919062001fdc565b6040513081526001600160a01b0391909116907fea75abca99e133ffc3836e9f494029f664d6cfba86931822451cf063dcf185469060200160405180910390a4505050505050565b600062000635818462001924565b90506000816001600160a01b031663d23fe7c76040518163ffffffff1660e01b8152600401602060405180830381865afa15801562000678573d6000803e3d6000fd5b505050506040513d601f19601f820116820180604052508101906200069e919062002007565b9050806000036200072c5760405163099614c160e41b81526000600482018190526024820152604481018490526001600160a01b038316906399614c109060640160408051808303816000875af1158015620006fe573d6000803e3d6000fd5b505050506040513d601f19601f8201168201806040525081019062000724919062002021565b50506200081f565b80156200081f57600080836001600160a01b03166373b8fc806040518163ffffffff1660e01b81526004016040805180830381865afa15801562000774573d6000803e3d6000fd5b505050506040513d601f19601f820116820180604052508101906200079a919062002021565b60405163099614c160e41b815260048101839052602481018290526044810188905291935091506001600160a01b038516906399614c109060640160408051808303816000875af1158015620007f4573d6000803e3d6000fd5b505050506040513d601f19601f820116820180604052508101906200081a919062002021565b505050505b50505050565b60608282600081116200086c5760405162461bcd60e51b815260206004820152600e60248201526d092dcecc2d8d2c840d8cadccee8d60931b604482015260640162000263565b336000908152600360205260408082205490516386bd3f9160e01b81526001600160a01b03909116600482015273__$4abe93d8f421c97b6c3dfbe9b44c8344ba$__906386bd3f9190602401602060405180830381865af4158015620008d6573d6000803e3d6000fd5b505050506040513d601f19601f82011682018060405250810190620008fc919062001fbe565b15905060008567ffffffffffffffff8111156200091d576200091d62001d5b565b604051908082528060200260200182016040528015620009b757816020015b620009a360405180610180016040528060008152602001606081526020016060815260200160608152602001606081526020016000815260200160008152602001600081526020016000815260200160608152602001600015158152602001606081525090565b8152602001906001900390816200093c5790505b5090506000620009c86000620019e5565b90506000818811620009db5787620009dd565b815b905060005b8181101562000b4b57600062000a1384620009fe848e6200205c565b62000a0a919062002077565b60009062001924565b9050600086801562000a9f5750336000908152600360205260409081902054905163012935c160e21b81526001600160a01b038481166004830152909116906304a4d70490602401602060405180830381865afa15801562000a79573d6000803e3d6000fd5b505050506040513d601f19601f8201168201806040525081019062000a9f919062001fbe565b60405163739febcd60e11b815281151560048201529091506001600160a01b0383169063e73fd79a90602401600060405180830381865afa15801562000ae9573d6000803e3d6000fd5b505050506040513d6000823e601f3d908101601f1916820160405262000b1391908101906200224e565b86848151811062000b285762000b2862002287565b60200260200101819052505050808062000b42906200229d565b915050620009e2565b509198975050505050505050565b600062000b676000620019e5565b905090565b33600090815260036020526040908190205490516386bd3f9160e01b81526001600160a01b03909116600482015260609073__$4abe93d8f421c97b6c3dfbe9b44c8344ba$__906386bd3f9190602401602060405180830381865af415801562000bda573d6000803e3d6000fd5b505050506040513d601f19601f8201168201806040525081019062000c00919062001fbe565b1562000c0c5750606090565b3360009081526003602052604080822054815163b8c3773f60e01b815291516001600160a01b039091169163b8c3773f91600480830192869291908290030181865afa15801562000c61573d6000803e3d6000fd5b505050506040513d6000823e601f3d908101601f1916820160405262000c8b9190810190620022b9565b92915050565b6040516386bd3f9160e01b815233600482018190529073__$4abe93d8f421c97b6c3dfbe9b44c8344ba$__906386bd3f9190602401602060405180830381865af415801562000ce4573d6000803e3d6000fd5b505050506040513d601f19601f8201168201806040525081019062000d0a919062001fbe565b1562000d485760405162461bcd60e51b815260206004820152600c60248201526b24b73b30b634b21030b2323960a11b604482015260640162000263565b6001600160a01b03818116600090815260036020526040908190205490516386bd3f9160e01b81529116600482015273__$4abe93d8f421c97b6c3dfbe9b44c8344ba$__906386bd3f9190602401602060405180830381865af415801562000db4573d6000803e3d6000fd5b505050506040513d601f19601f8201168201806040525081019062000dda919062001fbe565b1562000e1a5760405162461bcd60e51b815260206004820152600e60248201526d155cd95c881b9bdd08199bdd5b9960921b604482015260640162000263565b8762000e286000826200190f565b62000e665760405162461bcd60e51b815260206004820152600d60248201526c105c1c081b9bdd08199bdd5b99609a1b604482015260640162000263565b62000e7360008262001924565b6040516386bd3f9160e01b81526001600160a01b03909116600482015273__$4abe93d8f421c97b6c3dfbe9b44c8344ba$__906386bd3f9190602401602060405180830381865af415801562000ecd573d6000803e3d6000fd5b505050506040513d601f19601f8201168201806040525081019062000ef3919062001fbe565b1562000f375760405162461bcd60e51b815260206004820152601260248201527141707020646f656e7327742065786973747360701b604482015260640162000263565b6040516386bd3f9160e01b815233600482018190528a9173__$4abe93d8f421c97b6c3dfbe9b44c8344ba$__906386bd3f9190602401602060405180830381865af415801562000f8b573d6000803e3d6000fd5b505050506040513d601f19601f8201168201806040525081019062000fb1919062001fbe565b1562000fef5760405162461bcd60e51b815260206004820152600c60248201526b24b73b30b634b21030b2323960a11b604482015260640162000263565b62000ffc60008362001924565b6001600160a01b03166302d05d3f6040518163ffffffff1660e01b8152600401602060405180830381865afa1580156200103a573d6000803e3d6000fd5b505050506040513d601f19601f8201168201806040525081019062001060919062001fdc565b6001600160a01b0316816001600160a01b031614620010b55760405162461bcd60e51b815260206004820152601060248201526f3737ba1031b932b0ba37b91030b2323960811b604482015260640162000263565b6000620010c3818d62001924565b60405163139a0e4560e11b815290915073__$2ef198253e5209528d081d789aa7dfe759$__906327341c8a90620010ff908e9060040162001bb8565b602060405180830381865af41580156200111d573d6000803e3d6000fd5b505050506040513d601f19601f8201168201806040525081019062001143919062001fbe565b620011ab576040516381ecdf4560e01b81526001600160a01b038216906381ecdf459062001176908e9060040162001bb8565b600060405180830381600087803b1580156200119157600080fd5b505af1158015620011a6573d6000803e3d6000fd5b505050505b60405163139a0e4560e11b815273__$2ef198253e5209528d081d789aa7dfe759$__906327341c8a90620011e4908d9060040162001bb8565b602060405180830381865af415801562001202573d6000803e3d6000fd5b505050506040513d601f19601f8201168201806040525081019062001228919062001fbe565b620012905760405163fafb1b0160e01b81526001600160a01b0382169063fafb1b01906200125b908d9060040162001bb8565b600060405180830381600087803b1580156200127657600080fd5b505af11580156200128b573d6000803e3d6000fd5b505050505b60405163139a0e4560e11b815273__$2ef198253e5209528d081d789aa7dfe759$__906327341c8a90620012c9908c9060040162001bb8565b602060405180830381865af4158015620012e7573d6000803e3d6000fd5b505050506040513d601f19601f820116820180604052508101906200130d919062001fbe565b62001375576040516342cbef9560e01b81526001600160a01b038216906342cbef959062001340908c9060040162001bb8565b600060405180830381600087803b1580156200135b57600080fd5b505af115801562001370573d6000803e3d6000fd5b505050505b60405163139a0e4560e11b815273__$2ef198253e5209528d081d789aa7dfe759$__906327341c8a90620013ae908b9060040162001bb8565b602060405180830381865af4158015620013cc573d6000803e3d6000fd5b505050506040513d601f19601f82011682018060405250810190620013f2919062001fbe565b6200145a57604051634ad3d57d60e01b81526001600160a01b03821690634ad3d57d9062001425908b9060040162001bb8565b600060405180830381600087803b1580156200144057600080fd5b505af115801562001455573d6000803e3d6000fd5b505050505b8615620014be5760405163e9cd36d360e01b8152600481018890526001600160a01b0382169063e9cd36d390602401600060405180830381600087803b158015620014a457600080fd5b505af1158015620014b9573d6000803e3d6000fd5b505050505b60405163139a0e4560e11b815273__$2ef198253e5209528d081d789aa7dfe759$__906327341c8a90620014f790899060040162001bb8565b602060405180830381865af415801562001515573d6000803e3d6000fd5b505050506040513d601f19601f820116820180604052508101906200153b919062001fbe565b620015a35760405163da0c57e960e01b81526001600160a01b0382169063da0c57e9906200156e90899060040162001bb8565b600060405180830381600087803b1580156200158957600080fd5b505af11580156200159e573d6000803e3d6000fd5b505050505b505050505050505050505050565b33600090815260036020526040908190205490516386bd3f9160e01b81526001600160a01b03909116600482015260609073__$4abe93d8f421c97b6c3dfbe9b44c8344ba$__906386bd3f9190602401602060405180830381865af41580156200161f573d6000803e3d6000fd5b505050506040513d601f19601f8201168201806040525081019062001645919062001fbe565b15620016515750606090565b3360009081526003602052604080822054815163233eccc160e21b815291516001600160a01b0390911691638cfb330491600480830192869291908290030181865afa15801562000c61573d6000803e3d6000fd5b33600090815260036020526040908190205490516386bd3f9160e01b81526001600160a01b03909116600482015273__$4abe93d8f421c97b6c3dfbe9b44c8344ba$__906386bd3f9190602401602060405180830381865af415801562001711573d6000803e3d6000fd5b505050506040513d601f19601f8201168201806040525081019062001737919062001fbe565b156200174857620017483362001932565b6000620017566000620019e5565b9050600081338a8a8a8a8a8a8a604051620017719062001b3f565b62001785999897969594939291906200238a565b604051809103906000f080158015620017a2573d6000803e3d6000fd5b509050620017b360008383620019f2565b50336001600160a01b0316828a604051620017cf91906200243c565b604051908190038120308252907f4ebeeb573ab9892d0c9b8e2b088b43617667b3479dca07176f29ef21ba848bd19060200160405180910390a4505050505050505050565b33600090815260036020526040908190205490516386bd3f9160e01b81526001600160a01b03909116600482015260609073__$4abe93d8f421c97b6c3dfbe9b44c8344ba$__906386bd3f9190602401602060405180830381865af415801562001882573d6000803e3d6000fd5b505050506040513d601f19601f82011682018060405250810190620018a8919062001fbe565b15620018b45750606090565b3360009081526003602052604080822054815163139334af60e01b815291516001600160a01b039091169163139334af91600480830192869291908290030181865afa15801562000c61573d6000803e3d6000fd5b60009055565b60006200191d838362001a12565b9392505050565b60006200191d838362001a20565b62001941600480546001019055565b80604051620019509062001b4d565b6001600160a01b039091168152602001604051809103906000f0801580156200197d573d6000803e3d6000fd5b506001600160a01b0382811660008181526003602090815260409182902080546001600160a01b031916959094169485179093555130815290917fb38dc5c508c5acbc701af21346d9dbc58b631681962a52c08afe86b277eb7e97910160405180910390a350565b600062000c8b8262001a95565b600062001a0a84846001600160a01b03851662001aa2565b949350505050565b60006200191d838362001ac1565b60008181526002830160205260408120548015158062001a47575062001a47848462001a12565b6200191d5760405162461bcd60e51b815260206004820152601e60248201527f456e756d657261626c654d61703a206e6f6e6578697374656e74206b65790000604482015260640162000263565b600062000c8b8262001ada565b6000828152600284016020526040812082905562001a0a848462001ae5565b600081815260018301602052604081205415156200191d565b600062000c8b825490565b60006200191d8383600081815260018301602052604081205462001b365750815460018181018455600084815260208082209093018490558454848252828601909352604090209190915562000c8b565b50600062000c8b565b6128dd806200245b83390190565b6111828062004d3883390190565b60005b8381101562001b7857818101518382015260200162001b5e565b838111156200081f5750506000910152565b6000815180845262001ba481602086016020860162001b5b565b601f01601f19169290920160200192915050565b6020815260006200191d602083018462001b8a565b60006020828403121562001be057600080fd5b5035919050565b6000806040838503121562001bfb57600080fd5b50508035926020909101359150565b60006020808301818452808551808352604092508286019150828160051b87010184880160005b8381101562001d4d57603f1989840301855281516101808151855288820151818a87015262001c638287018262001b8a565b915050878201518582038987015262001c7d828262001b8a565b9150506060808301518683038288015262001c99838262001b8a565b925050506080808301518683038288015262001cb6838262001b8a565b60a0858101519089015260c0808601519089015260e08086015190890152610100808601519089015261012080860151898303828b01529194509250905062001d00838262001b8a565b925050506101408083015162001d198288018215159052565b5050610160808301519250858203818701525062001d38818362001b8a565b96890196945050509086019060010162001c31565b509098975050505050505050565b634e487b7160e01b600052604160045260246000fd5b604051610180810167ffffffffffffffff8111828210171562001d985762001d9862001d5b565b60405290565b604051601f8201601f1916810167ffffffffffffffff8111828210171562001dca5762001dca62001d5b565b604052919050565b600067ffffffffffffffff82111562001def5762001def62001d5b565b50601f01601f191660200190565b600082601f83011262001e0f57600080fd5b813562001e2662001e208262001dd2565b62001d9e565b81815284602083860101111562001e3c57600080fd5b816020850160208301376000918101602001919091529392505050565b600080600080600080600060e0888a03121562001e7557600080fd5b87359650602088013567ffffffffffffffff8082111562001e9557600080fd5b62001ea38b838c0162001dfd565b975060408a013591508082111562001eba57600080fd5b62001ec88b838c0162001dfd565b965060608a013591508082111562001edf57600080fd5b62001eed8b838c0162001dfd565b955060808a013591508082111562001f0457600080fd5b62001f128b838c0162001dfd565b945060a08a0135935060c08a013591508082111562001f3057600080fd5b5062001f3f8a828b0162001dfd565b91505092959891949750929550565b600080600080600080600060e0888a03121562001f6a57600080fd5b873567ffffffffffffffff8082111562001f8357600080fd5b62001f918b838c0162001dfd565b985060208a013591508082111562001e9557600080fd5b8051801515811462001fb957600080fd5b919050565b60006020828403121562001fd157600080fd5b6200191d8262001fa8565b60006020828403121562001fef57600080fd5b81516001600160a01b03811681146200191d57600080fd5b6000602082840312156200201a57600080fd5b5051919050565b600080604083850312156200203557600080fd5b505080516020909101519092909150565b634e487b7160e01b600052601160045260246000fd5b6000821982111562002072576200207262002046565b500190565b6000826200209557634e487b7160e01b600052601260045260246000fd5b500690565b600082601f830112620020ac57600080fd5b8151620020bd62001e208262001dd2565b818152846020838601011115620020d357600080fd5b62001a0a82602083016020870162001b5b565b60006101808284031215620020fa57600080fd5b6200210462001d71565b905081518152602082015167ffffffffffffffff808211156200212657600080fd5b62002134858386016200209a565b602084015260408401519150808211156200214e57600080fd5b6200215c858386016200209a565b604084015260608401519150808211156200217657600080fd5b62002184858386016200209a565b606084015260808401519150808211156200219e57600080fd5b620021ac858386016200209a565b608084015260a084015160a084015260c084015160c084015260e084015160e08401526101009150818401518284015261012091508184015181811115620021f357600080fd5b62002201868287016200209a565b838501525061014091506200221882850162001fa8565b82840152610160915081840151818111156200223357600080fd5b62002241868287016200209a565b8385015250505092915050565b6000602082840312156200226157600080fd5b815167ffffffffffffffff8111156200227957600080fd5b62001a0a84828501620020e6565b634e487b7160e01b600052603260045260246000fd5b600060018201620022b257620022b262002046565b5060010190565b60006020808385031215620022cd57600080fd5b825167ffffffffffffffff80821115620022e657600080fd5b818501915085601f830112620022fb57600080fd5b81518181111562002310576200231062001d5b565b8060051b6200232185820162001d9e565b91825283810185019185810190898411156200233c57600080fd5b86860192505b838310156200237d578251858111156200235c5760008081fd5b6200236c8b89838a0101620020e6565b835250918601919086019062002342565b9998505050505050505050565b8981526001600160a01b038916602082015261012060408201819052600090620023b78382018b62001b8a565b90508281036060840152620023cd818a62001b8a565b90508281036080840152620023e3818962001b8a565b905082810360a0840152620023f9818862001b8a565b905082810360c08401526200240f818762001b8a565b90508460e08401528281036101008401526200242c818562001b8a565b9c9b505050505050505050505050565b600082516200245081846020870162001b5b565b919091019291505056fe60806040523480156200001157600080fd5b50604051620028dd380380620028dd83398101604081905262000034916200071f565b6200003f336200052c565b886200004f565b60405180910390fd5b8260008111620000a25760405162461bcd60e51b815260206004820152601c60248201527f5072696365206d7573742062652067726561746572207468616e203000000000604482015260640162000046565b60405163139a0e4560e11b8152899073__$2ef198253e5209528d081d789aa7dfe759$__906327341c8a90620000dd9084906004016200084f565b602060405180830381865af4158015620000fb573d6000803e3d6000fd5b505050506040513d601f19601f8201168201806040525081019062000121919062000884565b156200015f5760405162461bcd60e51b8152602060048201526018602482015260008051602062002828833981519152604482015260640162000046565b60405163139a0e4560e11b8152889073__$2ef198253e5209528d081d789aa7dfe759$__906327341c8a906200019a9084906004016200084f565b602060405180830381865af4158015620001b8573d6000803e3d6000fd5b505050506040513d601f19601f82011682018060405250810190620001de919062000884565b156200021c5760405162461bcd60e51b8152602060048201526018602482015260008051602062002828833981519152604482015260640162000046565b60405163139a0e4560e11b8152859073__$2ef198253e5209528d081d789aa7dfe759$__906327341c8a90620002579084906004016200084f565b602060405180830381865af415801562000275573d6000803e3d6000fd5b505050506040513d601f19601f820116820180604052508101906200029b919062000884565b15620002d95760405162461bcd60e51b8152602060048201526018602482015260008051602062002828833981519152604482015260640162000046565b600280546001600160a01b0319166001600160a01b038f1617905560018e90558b516200030e9060039060208f019062000582565b508a51620003249060049060208e019062000582565b5089516200033a9060069060208d019062000582565b508851620003509060079060208c019062000582565b5060405163139a0e4560e11b815273__$2ef198253e5209528d081d789aa7dfe759$__906327341c8a906200038a908c906004016200084f565b602060405180830381865af4158015620003a8573d6000803e3d6000fd5b505050506040513d601f19601f82011682018060405250810190620003ce919062000884565b1562000406576040518060c001604052806095815260200162002848609591398051620004049160079160209091019062000582565b505b87516200041b9060089060208b019062000582565b5060006009819055600a819055600b88905560058054600181018255915286516200046e917f036b6384b5eca791c62761152d0c79bb0604c104a5fb6f4eb0703f3154bb3db00190602089019062000582565b5062000486600c6200057c60201b6200161b1760201c565b6200049d600d6200057c60201b6200161b1760201c565b6002546001546040516001600160a01b0390921691620004c090600390620008eb565b6040519081900390207f4ebeeb573ab9892d0c9b8e2b088b43617667b3479dca07176f29ef21ba848bd1620004fd6000546001600160a01b031690565b6040516001600160a01b03909116815260200160405180910390a450505050505050505050505050506200098e565b600080546001600160a01b038381166001600160a01b0319831681178455604051919092169283917f8be0079c531659141344cd1fd0a4f28419497f9722a3daafe3b4186f6b6457e09190a35050565b60009055565b8280546200059090620008af565b90600052602060002090601f016020900481019282620005b45760008555620005ff565b82601f10620005cf57805160ff1916838001178555620005ff565b82800160010185558215620005ff579182015b82811115620005ff578251825591602001919060010190620005e2565b506200060d92915062000611565b5090565b5b808211156200060d576000815560010162000612565b80516001600160a01b03811681146200064057600080fd5b919050565b634e487b7160e01b600052604160045260246000fd5b60005b83811015620006785781810151838201526020016200065e565b8381111562000688576000848401525b50505050565b600082601f830112620006a057600080fd5b81516001600160401b0380821115620006bd57620006bd62000645565b604051601f8301601f19908116603f01168101908282118183101715620006e857620006e862000645565b816040528381528660208588010111156200070257600080fd5b620007158460208301602089016200065b565b9695505050505050565b60008060008060008060008060006101208a8c0312156200073f57600080fd5b895198506200075160208b0162000628565b60408b01519098506001600160401b03808211156200076f57600080fd5b6200077d8d838e016200068e565b985060608c01519150808211156200079457600080fd5b620007a28d838e016200068e565b975060808c0151915080821115620007b957600080fd5b620007c78d838e016200068e565b965060a08c0151915080821115620007de57600080fd5b620007ec8d838e016200068e565b955060c08c01519150808211156200080357600080fd5b620008118d838e016200068e565b945060e08c015193506101008c01519150808211156200083057600080fd5b506200083f8c828d016200068e565b9150509295985092959850929598565b6020815260008251806020840152620008708160408501602087016200065b565b601f01601f19169190910160400192915050565b6000602082840312156200089757600080fd5b81518015158114620008a857600080fd5b9392505050565b600181811c90821680620008c457607f821691505b602082108103620008e557634e487b7160e01b600052602260045260246000fd5b50919050565b600080835481600182811c9150808316806200090857607f831692505b602080841082036200092857634e487b7160e01b86526022600452602486fd5b8180156200093f5760018114620009515762000980565b60ff1986168952848901965062000980565b60008a81526020902060005b86811015620009785781548b8201529085019083016200095d565b505084890196505b509498975050505050505050565b611e8a806200099e6000396000f3fe608060405234801561001057600080fd5b50600436106101735760003560e01c80638da5cb5b116100de578063d68387c711610097578063e9cd36d311610071578063e9cd36d3146102ee578063f2fde38b14610301578063fabec44a14610314578063fafb1b011461031c57600080fd5b8063d68387c7146102b3578063da0c57e9146102bb578063e73fd79a146102ce57600080fd5b80638da5cb5b1461026b57806399614c101461027c578063a035b1fe1461028f578063a512bd7914610298578063af640d0f146102a0578063d23fe7c7146102a957600080fd5b8063554ca36c11610130578063554ca36c146102105780636904c94d14610223578063715018a61461022b5780637284e4161461023357806373b8fc801461023b57806381ecdf451461025857600080fd5b806302d05d3f1461017857806306fdde03146101a8578063128a8f76146101bd57806334b1a7cc146101d257806342cbef95146101ea5780634ad3d57d146101fd575b600080fd5b60025461018b906001600160a01b031681565b6040516001600160a01b0390911681526020015b60405180910390f35b6101b061032f565b60405161019f91906118df565b6101d06101cb3660046118f9565b6103bd565b005b600d546101dc9081565b60405190815260200161019f565b6101d06101f83660046118f9565b61053e565b6101d061020b3660046118f9565b6106b7565b6101d061021e3660046118f9565b610828565b6101b06109f4565b6101d0610a01565b6101b0610a37565b610243610a44565b6040805192835260208301919091520161019f565b6101d06102663660046118f9565b610a66565b6000546001600160a01b031661018b565b61024361028a36600461196b565b610bd5565b6101dc600b5481565b6101b0610cf2565b6101dc60015481565b600c546101dc9081565b6101b0610cff565b6101d06102c93660046119ad565b610d0c565b6102e16102dc366004611a6c565b610ea9565b60405161019f9190611a89565b6101d06102fc366004611b97565b61124f565b6101d061030f366004611bb0565b61134e565b6101b06113e9565b6101d061032a3660046118f9565b6114a5565b6003805461033c90611bd9565b80601f016020809104026020016040519081016040528092919081815260200182805461036890611bd9565b80156103b55780601f1061038a576101008083540402835291602001916103b5565b820191906000526020600020905b81548152906001019060200180831161039857829003601f168201915b505050505081565b6000546001600160a01b031633146103f05760405162461bcd60e51b81526004016103e790611c13565b60405180910390fd5b81818080601f0160208091040260200160405190810160405280939291908181526020018383808284376000920191909152505060405163139a0e4560e11b815273__$2ef198253e5209528d081d789aa7dfe759$__92506327341c8a915061045d9084906004016118df565b602060405180830381865af415801561047a573d6000803e3d6000fd5b505050506040513d601f19601f8201168201806040525081019061049e9190611c48565b156104bb5760405162461bcd60e51b81526004016103e790611c65565b82826040516104cb929190611c9c565b604051809103902060086040516104e29190611cac565b6040519081900381206e7570646174656420636f6d70616e7960881b825290600f0160405190819003812033825290600080516020611e358339815191529060200160405180910390a46105386008848461177a565b50505050565b6000546001600160a01b031633146105685760405162461bcd60e51b81526004016103e790611c13565b81818080601f0160208091040260200160405190810160405280939291908181526020018383808284376000920191909152505060405163139a0e4560e11b815273__$2ef198253e5209528d081d789aa7dfe759$__92506327341c8a91506105d59084906004016118df565b602060405180830381865af41580156105f2573d6000803e3d6000fd5b505050506040513d601f19601f820116820180604052508101906106169190611c48565b156106335760405162461bcd60e51b81526004016103e790611c65565b8282604051610643929190611c9c565b6040518091039020600660405161065a9190611cac565b6040519081900381207575706461746564206e65775f6d61676e65744c696e6b60501b82529060160160405190819003812033825290600080516020611e358339815191529060200160405180910390a46105386006848461177a565b6000546001600160a01b031633146106e15760405162461bcd60e51b81526004016103e790611c13565b81818080601f0160208091040260200160405190810160405280939291908181526020018383808284376000920191909152505060405163139a0e4560e11b815273__$2ef198253e5209528d081d789aa7dfe759$__92506327341c8a915061074e9084906004016118df565b602060405180830381865af415801561076b573d6000803e3d6000fd5b505050506040513d601f19601f8201168201806040525081019061078f9190611c48565b156107ac5760405162461bcd60e51b81526004016103e790611c65565b82826040516107bc929190611c9c565b604051809103902060076040516107d39190611cac565b6040519081900381206d1d5c19185d1959081a5b59d55c9b60921b825290600e0160405190819003812033825290600080516020611e358339815191529060200160405180910390a46105386007848461177a565b6000546001600160a01b031633146108525760405162461bcd60e51b81526004016103e790611c13565b81818080601f0160208091040260200160405190810160405280939291908181526020018383808284376000920191909152505060405163139a0e4560e11b815273__$2ef198253e5209528d081d789aa7dfe759$__92506327341c8a91506108bf9084906004016118df565b602060405180830381865af41580156108dc573d6000803e3d6000fd5b505050506040513d601f19601f820116820180604052508101906109009190611c48565b1561091d5760405162461bcd60e51b81526004016103e790611c65565b828260405161092d929190611c9c565b6040519081900390206005805461094690600190611d5d565b8154811061095657610956611d74565b9060005260206000200160405161096d9190611cac565b6040519081900381206e757064617465642066696c6573686160881b825290600f0160405190819003812033825290600080516020611e358339815191529060200160405180910390a460058054600181018255600091909152610538907f036b6384b5eca791c62761152d0c79bb0604c104a5fb6f4eb0703f3154bb3db001848461177a565b6008805461033c90611bd9565b6000546001600160a01b03163314610a2b5760405162461bcd60e51b81526004016103e790611c13565b610a356000611621565b565b6004805461033c90611bd9565b600080600060095411610a5a5750600091829150565b5050600954600a549091565b6000546001600160a01b03163314610a905760405162461bcd60e51b81526004016103e790611c13565b81818080601f0160208091040260200160405190810160405280939291908181526020018383808284376000920191909152505060405163139a0e4560e11b815273__$2ef198253e5209528d081d789aa7dfe759$__92506327341c8a9150610afd9084906004016118df565b602060405180830381865af4158015610b1a573d6000803e3d6000fd5b505050506040513d601f19601f82011682018060405250810190610b3e9190611c48565b15610b5b5760405162461bcd60e51b81526004016103e790611c65565b8282604051610b6b929190611c9c565b60405180910390206003604051610b829190611cac565b6040519081900381206b75706461746564206e616d6560a01b825290600c0160405190819003812033825290600080516020611e358339815191529060200160405180910390a46105386003848461177a565b6000805481906001600160a01b03163314610c025760405162461bcd60e51b81526004016103e790611c13565b846005811115610c1157600080fd5b836005811115610c2057600080fd5b6001851015610c665760405162461bcd60e51b815260206004820152601260248201527143616e27742067697665203020737461727360701b60448201526064016103e7565b6000600a54610c74600c5490565b600954610c819190611d8a565b610c8b9190611da9565b905087600003610ca357610ca3600c80546001019055565b610cad8887611d5d565b610cb79082611da9565b9050610cc2600c5490565b610ccc9082611dd7565b600955600c54610cdc9082611deb565b600a819055600954999098509650505050505050565b6006805461033c90611bd9565b6007805461033c90611bd9565b6000546001600160a01b03163314610d365760405162461bcd60e51b81526004016103e790611c13565b60405163139a0e4560e11b8152819073__$2ef198253e5209528d081d789aa7dfe759$__906327341c8a90610d6f9084906004016118df565b602060405180830381865af4158015610d8c573d6000803e3d6000fd5b505050506040513d601f19601f82011682018060405250810190610db09190611c48565b15610dcd5760405162461bcd60e51b81526004016103e790611c65565b81604051610ddb9190611dff565b60405190819003902060058054610df490600190611d5d565b81548110610e0457610e04611d74565b90600052602060002001604051610e1b9190611cac565b6040519081900381206a757064617465642073686160a81b825290600b0160405190819003812033825290600080516020611e358339815191529060200160405180910390a4600580546001810182556000919091528251610ea4917f036b6384b5eca791c62761152d0c79bb0604c104a5fb6f4eb0703f3154bb3db0019060208501906117fe565b505050565b610f0f60405180610180016040528060008152602001606081526020016060815260200160608152602001606081526020016000815260200160008152602001600081526020016000815260200160608152602001600015158152602001606081525090565b6000604051806101800160405280600154815260200160038054610f3290611bd9565b80601f0160208091040260200160405190810160405280929190818152602001828054610f5e90611bd9565b8015610fab5780601f10610f8057610100808354040283529160200191610fab565b820191906000526020600020905b815481529060010190602001808311610f8e57829003601f168201915b5050505050815260200160048054610fc290611bd9565b80601f0160208091040260200160405190810160405280929190818152602001828054610fee90611bd9565b801561103b5780601f106110105761010080835404028352916020019161103b565b820191906000526020600020905b81548152906001019060200180831161101e57829003601f168201915b505050505081526020016007805461105290611bd9565b80601f016020809104026020016040519081016040528092919081815260200182805461107e90611bd9565b80156110cb5780601f106110a0576101008083540402835291602001916110cb565b820191906000526020600020905b8154815290600101906020018083116110ae57829003601f168201915b50505050508152602001600880546110e290611bd9565b80601f016020809104026020016040519081016040528092919081815260200182805461110e90611bd9565b801561115b5780601f106111305761010080835404028352916020019161115b565b820191906000526020600020905b81548152906001019060200180831161113e57829003601f168201915b50505050508152602001600b548152602001611176600c5490565b81526020016009548152602001600a5481526020016111936113e9565b81526020018415158152602001846111ba5760405180602001604052806000815250611246565b600680546111c790611bd9565b80601f01602080910402602001604051908101604052809291908181526020018280546111f390611bd9565b80156112405780601f1061121557610100808354040283529160200191611240565b820191906000526020600020905b81548152906001019060200180831161122357829003601f168201915b50505050505b90529392505050565b6000546001600160a01b031633146112795760405162461bcd60e51b81526004016103e790611c13565b80600081116112ca5760405162461bcd60e51b815260206004820152601c60248201527f5072696365206d7573742062652067726561746572207468616e20300000000060448201526064016103e7565b6112d382611671565b6040516112e09190611dff565b60405180910390206112f3600b54611671565b6040516113009190611dff565b6040519081900381206c7570646174656420707269636560981b825290600d0160405190819003812033825290600080516020611e358339815191529060200160405180910390a450600b55565b6000546001600160a01b031633146113785760405162461bcd60e51b81526004016103e790611c13565b6001600160a01b0381166113dd5760405162461bcd60e51b815260206004820152602660248201527f4f776e61626c653a206e6577206f776e657220697320746865207a65726f206160448201526564647265737360d01b60648201526084016103e7565b6113e681611621565b50565b60058054606091906113fd90600190611d5d565b8154811061140d5761140d611d74565b90600052602060002001805461142290611bd9565b80601f016020809104026020016040519081016040528092919081815260200182805461144e90611bd9565b801561149b5780601f106114705761010080835404028352916020019161149b565b820191906000526020600020905b81548152906001019060200180831161147e57829003601f168201915b5050505050905090565b6000546001600160a01b031633146114cf5760405162461bcd60e51b81526004016103e790611c13565b81818080601f0160208091040260200160405190810160405280939291908181526020018383808284376000920191909152505060405163139a0e4560e11b815273__$2ef198253e5209528d081d789aa7dfe759$__92506327341c8a915061153c9084906004016118df565b602060405180830381865af4158015611559573d6000803e3d6000fd5b505050506040513d601f19601f8201168201806040525081019061157d9190611c48565b1561159a5760405162461bcd60e51b81526004016103e790611c65565b82826040516115aa929190611c9c565b604051809103902060046040516115c19190611cac565b604051908190038120723ab83230ba32b2103232b9b1b934b83a34b7b760691b82529060130160405190819003812033825290600080516020611e358339815191529060200160405180910390a46105386004848461177a565b60009055565b600080546001600160a01b038381166001600160a01b0319831681178455604051919092169283917f8be0079c531659141344cd1fd0a4f28419497f9722a3daafe3b4186f6b6457e09190a35050565b6060816000036116985750506040805180820190915260018152600360fc1b602082015290565b8160005b81156116c257806116ac81611e1b565b91506116bb9050600a83611dd7565b915061169c565b60008167ffffffffffffffff8111156116dd576116dd611997565b6040519080825280601f01601f191660200182016040528015611707576020820181803683370190505b5090505b84156117725761171c600183611d5d565b9150611729600a86611deb565b611734906030611da9565b60f81b81838151811061174957611749611d74565b60200101906001600160f81b031916908160001a90535061176b600a86611dd7565b945061170b565b949350505050565b82805461178690611bd9565b90600052602060002090601f0160209004810192826117a857600085556117ee565b82601f106117c15782800160ff198235161785556117ee565b828001600101855582156117ee579182015b828111156117ee5782358255916020019190600101906117d3565b506117fa929150611872565b5090565b82805461180a90611bd9565b90600052602060002090601f01602090048101928261182c57600085556117ee565b82601f1061184557805160ff19168380011785556117ee565b828001600101855582156117ee579182015b828111156117ee578251825591602001919060010190611857565b5b808211156117fa5760008155600101611873565b60005b838110156118a257818101518382015260200161188a565b838111156105385750506000910152565b600081518084526118cb816020860160208601611887565b601f01601f19169290920160200192915050565b6020815260006118f260208301846118b3565b9392505050565b6000806020838503121561190c57600080fd5b823567ffffffffffffffff8082111561192457600080fd5b818501915085601f83011261193857600080fd5b81358181111561194757600080fd5b86602082850101111561195957600080fd5b60209290920196919550909350505050565b60008060006060848603121561198057600080fd5b505081359360208301359350604090920135919050565b634e487b7160e01b600052604160045260246000fd5b6000602082840312156119bf57600080fd5b813567ffffffffffffffff808211156119d757600080fd5b818401915084601f8301126119eb57600080fd5b8135818111156119fd576119fd611997565b604051601f8201601f19908116603f01168101908382118183101715611a2557611a25611997565b81604052828152876020848701011115611a3e57600080fd5b826020860160208301376000928101602001929092525095945050505050565b80151581146113e657600080fd5b600060208284031215611a7e57600080fd5b81356118f281611a5e565b602081528151602082015260006020830151610180806040850152611ab26101a08501836118b3565b91506040850151601f1980868503016060870152611ad084836118b3565b93506060870151915080868503016080870152611aed84836118b3565b935060808701519150808685030160a0870152611b0a84836118b3565b935060a087015160c087015260c087015160e087015260e08701519150610100828188015280880151925050610120828188015280880151925050610140818786030181880152611b5b85846118b3565b945080880151925050610160611b748188018415159052565b870151868503909101838701529050611b8d83826118b3565b9695505050505050565b600060208284031215611ba957600080fd5b5035919050565b600060208284031215611bc257600080fd5b81356001600160a01b03811681146118f257600080fd5b600181811c90821680611bed57607f821691505b602082108103611c0d57634e487b7160e01b600052602260045260246000fd5b50919050565b6020808252818101527f4f776e61626c653a2063616c6c6572206973206e6f7420746865206f776e6572604082015260600190565b600060208284031215611c5a57600080fd5b81516118f281611a5e565b60208082526018908201527f537472696e67206d757374206e6f7420626520656d7074790000000000000000604082015260600190565b8183823760009101908152919050565b600080835481600182811c915080831680611cc857607f831692505b60208084108203611ce757634e487b7160e01b86526022600452602486fd5b818015611cfb5760018114611d0c57611d39565b60ff19861689528489019650611d39565b60008a81526020902060005b86811015611d315781548b820152908501908301611d18565b505084890196505b509498975050505050505050565b634e487b7160e01b600052601160045260246000fd5b600082821015611d6f57611d6f611d47565b500390565b634e487b7160e01b600052603260045260246000fd5b6000816000190483118215151615611da457611da4611d47565b500290565b60008219821115611dbc57611dbc611d47565b500190565b634e487b7160e01b600052601260045260246000fd5b600082611de657611de6611dc1565b500490565b600082611dfa57611dfa611dc1565b500690565b60008251611e11818460208701611887565b9190910192915050565b600060018201611e2d57611e2d611d47565b506001019056fe1f7eeccc90c93b6a65fbe0be0414ed24073262ce0f988484e24f275529193e6fa2646970667358221220a38b75be9154c726aa4e55ae88c1b271204279f57954ca942ef855ec2529aa9164736f6c634300080e0033537472696e67206d757374206e6f7420626520656d707479000000000000000068747470733a2f2f65787465726e616c2d636f6e74656e742e6475636b6475636b676f2e636f6d2f69752f3f753d6874747073253341253246253246692e70696e696d672e636f6d2532466f726967696e616c7325324632302532463065253246663825324632303065663832623331383266663735626630623264653534393665363163662e6a706726663d31266e6f66623d31608060405234801561001057600080fd5b5060405161118238038061118283398101604081905261002f91610101565b610038336100b1565b60028054600180546001600160a01b0319166001600160a01b0385169081179091556001600160a81b03199091163360ff60a01b1981169190911790925560405191825230917fb38dc5c508c5acbc701af21346d9dbc58b631681962a52c08afe86b277eb7e979060200160405180910390a350610131565b600080546001600160a01b038381166001600160a01b0319831681178455604051919092169283917f8be0079c531659141344cd1fd0a4f28419497f9722a3daafe3b4186f6b6457e09190a35050565b60006020828403121561011357600080fd5b81516001600160a01b038116811461012a57600080fd5b9392505050565b611042806101406000396000f3fe608060405234801561001057600080fd5b50600436106100b45760003560e01c80638cfb3304116100715780638cfb3304146101395780638da5cb5b14610141578063983c0a5b1461015c5780639f9f7f851461016f578063b8c3773f14610190578063f2fde38b1461019857600080fd5b806304a4d704146100b95780630611599d146100e157806307e5d9e5146100f4578063139334af146101095780632858594b1461011e578063715018a614610131575b600080fd5b6100cc6100c7366004610b4f565b6101ab565b60405190151581526020015b60405180910390f35b6100cc6100ef366004610b4f565b6102bb565b610107610102366004610b4f565b6103c7565b005b61011161048a565b6040516100d89190610bcd565b61010761012c366004610b4f565b6105e6565b610107610662565b610111610698565b6000546040516001600160a01b0390911681526020016100d8565b61010761016a366004610d0f565b6107ed565b61018261017d366004610b4f565b61084e565b6040519081526020016100d8565b610111610895565b6101076101a6366004610b4f565b6109ea565b600080546001600160a01b031633146101df5760405162461bcd60e51b81526004016101d690610d39565b60405180910390fd5b60005b6003548110156102b057600381815481106101ff576101ff610d6e565b60009182526020909120015460405163685658bb60e01b81526001600160a01b039182166004820152908416602482015273__$4abe93d8f421c97b6c3dfbe9b44c8344ba$__9063685658bb90604401602060405180830381865af415801561026c573d6000803e3d6000fd5b505050506040513d601f19601f820116820180604052508101906102909190610d94565b1561029e5750600192915050565b806102a881610daf565b9150506101e2565b50600090505b919050565b600080546001600160a01b031633146102e65760405162461bcd60e51b81526004016101d690610d39565b60005b6003548110156102b057826001600160a01b031673__$4abe93d8f421c97b6c3dfbe9b44c8344ba$__63685658bb90916003848154811061032c5761032c610d6e565b60009182526020909120015460405160e084901b6001600160e01b03191681526001600160a01b03928316600482015291166024820152604401602060405180830381865af4158015610383573d6000803e3d6000fd5b505050506040513d601f19601f820116820180604052508101906103a79190610d94565b156103b55750600192915050565b806103bf81610daf565b9150506102e9565b6000546001600160a01b031633146103f15760405162461bcd60e51b81526004016101d690610d39565b6002805460ff60a01b1916600160a01b1790556004805460018181019092557f8a35acfbc15ff81a39ae7d344fd709f28e8600b4aa8c65c6b64bfe7fe36bd19b0180546001600160a01b039093166001600160a01b031993841681179091556003805492830181556000527fc2575a0e9e593c00f959f8c92f12db2869c3395a3b0502d05e2516446f71f85b9091018054909216179055565b6000546060906001600160a01b031633146104b75760405162461bcd60e51b81526004016101d690610d39565b60035460008167ffffffffffffffff8111156104d5576104d5610dd6565b60405190808252806020026020018201604052801561050e57816020015b6104fb610ad5565b8152602001906001900390816104f35790505b50905060005b828110156105df5760006003828154811061053157610531610d6e565b60009182526020909120015460405163739febcd60e11b8152600160048201526001600160a01b039091169150819063e73fd79a90602401600060405180830381865afa158015610586573d6000803e3d6000fd5b505050506040513d6000823e601f3d908101601f191682016040526105ae9190810190610e9e565b8383815181106105c0576105c0610d6e565b60200260200101819052505080806105d790610daf565b915050610514565b5091505090565b6000546001600160a01b031633146106105760405162461bcd60e51b81526004016101d690610d39565b600380546001810182556000919091527fc2575a0e9e593c00f959f8c92f12db2869c3395a3b0502d05e2516446f71f85b0180546001600160a01b0319166001600160a01b0392909216919091179055565b6000546001600160a01b0316331461068c5760405162461bcd60e51b81526004016101d690610d39565b6106966000610a85565b565b6000546060906001600160a01b031633146106c55760405162461bcd60e51b81526004016101d690610d39565b60045460008167ffffffffffffffff8111156106e3576106e3610dd6565b60405190808252806020026020018201604052801561071c57816020015b610709610ad5565b8152602001906001900390816107015790505b50905060005b828110156105df5760006004828154811061073f5761073f610d6e565b60009182526020909120015460405163739febcd60e11b8152600160048201526001600160a01b039091169150819063e73fd79a90602401600060405180830381865afa158015610794573d6000803e3d6000fd5b505050506040513d6000823e601f3d908101601f191682016040526107bc9190810190610e9e565b8383815181106107ce576107ce610d6e565b60200260200101819052505080806107e590610daf565b915050610722565b6000546001600160a01b031633146108175760405162461bcd60e51b81526004016101d690610d39565b60018110158015610829575060058111155b61083257600080fd5b6001600160a01b03909116600090815260056020526040902055565b600080546001600160a01b031633146108795760405162461bcd60e51b81526004016101d690610d39565b506001600160a01b031660009081526005602052604090205490565b6000546060906001600160a01b031633146108c25760405162461bcd60e51b81526004016101d690610d39565b60035460008167ffffffffffffffff8111156108e0576108e0610dd6565b60405190808252806020026020018201604052801561091957816020015b610906610ad5565b8152602001906001900390816108fe5790505b50905060005b828110156105df5760006003828154811061093c5761093c610d6e565b60009182526020909120015460405163739febcd60e11b8152600160048201526001600160a01b039091169150819063e73fd79a90602401600060405180830381865afa158015610991573d6000803e3d6000fd5b505050506040513d6000823e601f3d908101601f191682016040526109b99190810190610e9e565b8383815181106109cb576109cb610d6e565b60200260200101819052505080806109e290610daf565b91505061091f565b6000546001600160a01b03163314610a145760405162461bcd60e51b81526004016101d690610d39565b6001600160a01b038116610a795760405162461bcd60e51b815260206004820152602660248201527f4f776e61626c653a206e6577206f776e657220697320746865207a65726f206160448201526564647265737360d01b60648201526084016101d6565b610a8281610a85565b50565b600080546001600160a01b038381166001600160a01b0319831681178455604051919092169283917f8be0079c531659141344cd1fd0a4f28419497f9722a3daafe3b4186f6b6457e09190a35050565b60405180610180016040528060008152602001606081526020016060815260200160608152602001606081526020016000815260200160008152602001600081526020016000815260200160608152602001600015158152602001606081525090565b80356001600160a01b03811681146102b657600080fd5b600060208284031215610b6157600080fd5b610b6a82610b38565b9392505050565b60005b83811015610b8c578181015183820152602001610b74565b83811115610b9b576000848401525b50505050565b60008151808452610bb9816020860160208601610b71565b601f01601f19169290920160200192915050565b60006020808301818452808551808352604092508286019150828160051b87010184880160005b83811015610d0157603f1989840301855281516101808151855288820151818a870152610c2382870182610ba1565b9150508782015185820389870152610c3b8282610ba1565b91505060608083015186830382880152610c558382610ba1565b9250505060808083015186830382880152610c708382610ba1565b60a0858101519089015260c0808601519089015260e08086015190890152610100808601519089015261012080860151898303828b015291945092509050610cb88382610ba1565b9250505061014080830151610cd08288018215159052565b50506101608083015192508582038187015250610ced8183610ba1565b968901969450505090860190600101610bf4565b509098975050505050505050565b60008060408385031215610d2257600080fd5b610d2b83610b38565b946020939093013593505050565b6020808252818101527f4f776e61626c653a2063616c6c6572206973206e6f7420746865206f776e6572604082015260600190565b634e487b7160e01b600052603260045260246000fd5b805180151581146102b657600080fd5b600060208284031215610da657600080fd5b610b6a82610d84565b600060018201610dcf57634e487b7160e01b600052601160045260246000fd5b5060010190565b634e487b7160e01b600052604160045260246000fd5b604051610180810167ffffffffffffffff81118282101715610e1057610e10610dd6565b60405290565b600082601f830112610e2757600080fd5b815167ffffffffffffffff80821115610e4257610e42610dd6565b604051601f8301601f19908116603f01168101908282118183101715610e6a57610e6a610dd6565b81604052838152866020858801011115610e8357600080fd5b610e94846020830160208901610b71565b9695505050505050565b600060208284031215610eb057600080fd5b815167ffffffffffffffff80821115610ec857600080fd5b908301906101808286031215610edd57600080fd5b610ee5610dec565b82518152602083015182811115610efb57600080fd5b610f0787828601610e16565b602083015250604083015182811115610f1f57600080fd5b610f2b87828601610e16565b604083015250606083015182811115610f4357600080fd5b610f4f87828601610e16565b606083015250608083015182811115610f6757600080fd5b610f7387828601610e16565b60808301525060a083015160a082015260c083015160c082015260e083015160e08201526101008084015181830152506101208084015183811115610fb757600080fd5b610fc388828701610e16565b828401525050610140610fd7818501610d84565b908201526101608381015183811115610fef57600080fd5b610ffb88828701610e16565b91830191909152509594505050505056fea26469706673582212208bdb7c682494fe6c370fc3bd96559fa32eaf2b9e2a96769c2a634246e95f5ce664736f6c634300080e0033a2646970667358221220aa250163b4047689efab50c2c3f42a36db64c967e3a640bce390287c01d6dfd764736f6c634300080e0033",
    "sourcePath": "c:/Users/User/Documents/GitHub/SmartContracts/contracts/dAppstore.sol",
    "compiler": {
        "name": "solc",
        "version": "0.8.14+commit.80d49f37"
    },
    "functionHashes": {
        "createNewApp(string,string,string,string,string,uint256,string)": "af420994",
        "getAppBatch(uint256,uint256)": "7d6a24ab",
        "getAppCount()": "80109fea",
        "getCreatedAppsInfo()": "ac41f1a9",
        "getPurchasedAppsInfo()": "8f89b46a",
        "getRatedAppsInfo()": "e0b8f2ae",
        "name()": "06fdde03",
        "purchaseApp(uint256)": "33e067a6",
        "rateApp(uint256,uint256)": "70b8fd92",
        "updateApp(uint256,string,string,string,string,uint256,string)": "9a9d793c"
    },
    "gasEstimates": {
        "creation": {
            "codeDepositCost": "4860600",
            "executionCost": "infinite",
            "totalCost": "infinite"
        },
        "external": {
            "createNewApp(string,string,string,string,string,uint256,string)": "infinite",
            "getAppBatch(uint256,uint256)": "infinite",
            "getAppCount()": "infinite",
            "getCreatedAppsInfo()": "infinite",
            "getPurchasedAppsInfo()": "infinite",
            "getRatedAppsInfo()": "infinite",
            "name()": "infinite",
            "purchaseApp(uint256)": "infinite",
            "rateApp(uint256,uint256)": "infinite",
            "updateApp(uint256,string,string,string,string,uint256,string)": "infinite"
        },
        "internal": {
            "createNewUser(address)": "infinite"
        }
    }
}