{
    "contractName": "StringUtils",
    "abi": [
        {
            "inputs": [
                {
                    "internalType": "string",
                    "name": "s1",
                    "type": "string"
                },
                {
                    "internalType": "string",
                    "name": "s2",
                    "type": "string"
                }
            ],
            "name": "append",
            "outputs": [
                {
                    "internalType": "string",
                    "name": "",
                    "type": "string"
                }
            ],
            "stateMutability": "pure",
            "type": "function"
        },
        {
            "inputs": [
                {
                    "internalType": "string",
                    "name": "_string",
                    "type": "string"
                }
            ],
            "name": "isEmpty",
            "outputs": [
                {
                    "internalType": "bool",
                    "name": "",
                    "type": "bool"
                }
            ],
            "stateMutability": "pure",
            "type": "function"
        },
        {
            "inputs": [
                {
                    "internalType": "string",
                    "name": "s1",
                    "type": "string"
                },
                {
                    "internalType": "string",
                    "name": "s2",
                    "type": "string"
                }
            ],
            "name": "isEqual",
            "outputs": [
                {
                    "internalType": "bool",
                    "name": "",
                    "type": "bool"
                }
            ],
            "stateMutability": "pure",
            "type": "function"
        },
        {
            "inputs": [
                {
                    "internalType": "string",
                    "name": "s1",
                    "type": "string"
                },
                {
                    "internalType": "string",
                    "name": "s2",
                    "type": "string"
                }
            ],
            "name": "prepend",
            "outputs": [
                {
                    "internalType": "string",
                    "name": "",
                    "type": "string"
                }
            ],
            "stateMutability": "pure",
            "type": "function"
        }
    ],
    "bytecode": "6103ac61003a600b82828239805160001a60731461002d57634e487b7160e01b600052600060045260246000fd5b30600052607381538281f3fe73000000000000000000000000000000000000000030146080604052600436106100565760003560e01c806327341c8a1461005b578063465c410514610083578063591c515f14610096578063605b5c5f146100b6575b600080fd5b61006e610069366004610189565b511590565b60405190151581526020015b60405180910390f35b61006e610091366004610283565b6100c9565b6100a96100a4366004610283565b610128565b60405161007a91906102ef565b6100a96100c4366004610283565b61015a565b600082826040516020016100de929190610344565b604051602081830303815290604052805190602001208585604051602001610107929190610344565b60405160208183030381529060405280519060200120149050949350505050565b6060848484846040516020016101419493929190610354565b6040516020818303038152906040529050949350505050565b6060828286866040516020016101419493929190610354565b634e487b7160e01b600052604160045260246000fd5b60006020828403121561019b57600080fd5b813567ffffffffffffffff808211156101b357600080fd5b818401915084601f8301126101c757600080fd5b8135818111156101d9576101d9610173565b604051601f8201601f19908116603f0116810190838211818310171561020157610201610173565b8160405282815287602084870101111561021a57600080fd5b826020860160208301376000928101602001929092525095945050505050565b60008083601f84011261024c57600080fd5b50813567ffffffffffffffff81111561026457600080fd5b60208301915083602082850101111561027c57600080fd5b9250929050565b6000806000806040858703121561029957600080fd5b843567ffffffffffffffff808211156102b157600080fd5b6102bd8883890161023a565b909650945060208701359150808211156102d657600080fd5b506102e38782880161023a565b95989497509550505050565b600060208083528351808285015260005b8181101561031c57858101830151858201604001528201610300565b8181111561032e576000604083870101525b50601f01601f1916929092016040019392505050565b8183823760009101908152919050565b838582376000848201600081528385823760009301928352509094935050505056fea26469706673582212204e848ee1279ab290c2c6abb28903f15b62150bc27476f90e7378921cbd2ff27064736f6c634300080f0033",
    "sourcePath": "c:/Users/User/Documents/GitHub/SmartContracts/contracts/dappstore_utils.sol",
    "compiler": {
        "name": "solc",
        "version": "0.8.15+commit.e14f2714"
    },
    "functionHashes": {
        "append(string,string)": "591c515f",
        "isEmpty(string)": "27341c8a",
        "isEqual(string,string)": "465c4105",
        "prepend(string,string)": "605b5c5f"
    },
    "gasEstimates": {
        "creation": {
            "codeDepositCost": "188000",
            "executionCost": "263",
            "totalCost": "188263"
        },
        "external": {
            "append(string,string)": "infinite",
            "isEmpty(string)": "infinite",
            "isEqual(string,string)": "infinite",
            "prepend(string,string)": "infinite"
        }
    }
}