{
    "contractName": "User",
    "abi": [
        {
            "inputs": [
                {
                    "internalType": "address",
                    "name": "new_user_address",
                    "type": "address"
                }
            ],
            "stateMutability": "nonpayable",
            "type": "constructor"
        },
        {
            "anonymous": false,
            "inputs": [
                {
                    "indexed": true,
                    "internalType": "address",
                    "name": "previousOwner",
                    "type": "address"
                },
                {
                    "indexed": true,
                    "internalType": "address",
                    "name": "newOwner",
                    "type": "address"
                }
            ],
            "name": "OwnershipTransferred",
            "type": "event"
        },
        {
            "inputs": [
                {
                    "internalType": "address",
                    "name": "app",
                    "type": "address"
                }
            ],
            "name": "createNewApp",
            "outputs": [],
            "stateMutability": "nonpayable",
            "type": "function"
        },
        {
            "inputs": [],
            "name": "getPublishedApps",
            "outputs": [
                {
                    "components": [
                        {
                            "internalType": "uint256",
                            "name": "id",
                            "type": "uint256"
                        },
                        {
                            "internalType": "string",
                            "name": "name",
                            "type": "string"
                        },
                        {
                            "internalType": "string",
                            "name": "description",
                            "type": "string"
                        },
                        {
                            "internalType": "string",
                            "name": "imgUrl",
                            "type": "string"
                        },
                        {
                            "internalType": "string",
                            "name": "company",
                            "type": "string"
                        },
                        {
                            "internalType": "uint256",
                            "name": "price",
                            "type": "uint256"
                        },
                        {
                            "internalType": "uint256",
                            "name": "numRatings",
                            "type": "uint256"
                        },
                        {
                            "internalType": "uint256",
                            "name": "ratingInt",
                            "type": "uint256"
                        },
                        {
                            "internalType": "uint256",
                            "name": "ratingModulu",
                            "type": "uint256"
                        },
                        {
                            "internalType": "uint256",
                            "name": "userRating",
                            "type": "uint256"
                        },
                        {
                            "internalType": "string",
                            "name": "fileSha256",
                            "type": "string"
                        },
                        {
                            "internalType": "bool",
                            "name": "owned",
                            "type": "bool"
                        },
                        {
                            "internalType": "string",
                            "name": "magnetLink",
                            "type": "string"
                        },
                        {
                            "internalType": "string",
                            "name": "category",
                            "type": "string"
                        },
                        {
                            "internalType": "uint256",
                            "name": "publishTime",
                            "type": "uint256"
                        }
                    ],
                    "internalType": "struct AppInfoLibrary.AppInfo[]",
                    "name": "",
                    "type": "tuple[]"
                }
            ],
            "stateMutability": "view",
            "type": "function"
        },
        {
            "inputs": [],
            "name": "getPurchasedApps",
            "outputs": [
                {
                    "components": [
                        {
                            "internalType": "uint256",
                            "name": "id",
                            "type": "uint256"
                        },
                        {
                            "internalType": "string",
                            "name": "name",
                            "type": "string"
                        },
                        {
                            "internalType": "string",
                            "name": "description",
                            "type": "string"
                        },
                        {
                            "internalType": "string",
                            "name": "imgUrl",
                            "type": "string"
                        },
                        {
                            "internalType": "string",
                            "name": "company",
                            "type": "string"
                        },
                        {
                            "internalType": "uint256",
                            "name": "price",
                            "type": "uint256"
                        },
                        {
                            "internalType": "uint256",
                            "name": "numRatings",
                            "type": "uint256"
                        },
                        {
                            "internalType": "uint256",
                            "name": "ratingInt",
                            "type": "uint256"
                        },
                        {
                            "internalType": "uint256",
                            "name": "ratingModulu",
                            "type": "uint256"
                        },
                        {
                            "internalType": "uint256",
                            "name": "userRating",
                            "type": "uint256"
                        },
                        {
                            "internalType": "string",
                            "name": "fileSha256",
                            "type": "string"
                        },
                        {
                            "internalType": "bool",
                            "name": "owned",
                            "type": "bool"
                        },
                        {
                            "internalType": "string",
                            "name": "magnetLink",
                            "type": "string"
                        },
                        {
                            "internalType": "string",
                            "name": "category",
                            "type": "string"
                        },
                        {
                            "internalType": "uint256",
                            "name": "publishTime",
                            "type": "uint256"
                        }
                    ],
                    "internalType": "struct AppInfoLibrary.AppInfo[]",
                    "name": "",
                    "type": "tuple[]"
                }
            ],
            "stateMutability": "view",
            "type": "function"
        },
        {
            "inputs": [],
            "name": "getRatedApps",
            "outputs": [
                {
                    "components": [
                        {
                            "internalType": "uint256",
                            "name": "id",
                            "type": "uint256"
                        },
                        {
                            "internalType": "string",
                            "name": "name",
                            "type": "string"
                        },
                        {
                            "internalType": "string",
                            "name": "description",
                            "type": "string"
                        },
                        {
                            "internalType": "string",
                            "name": "imgUrl",
                            "type": "string"
                        },
                        {
                            "internalType": "string",
                            "name": "company",
                            "type": "string"
                        },
                        {
                            "internalType": "uint256",
                            "name": "price",
                            "type": "uint256"
                        },
                        {
                            "internalType": "uint256",
                            "name": "numRatings",
                            "type": "uint256"
                        },
                        {
                            "internalType": "uint256",
                            "name": "ratingInt",
                            "type": "uint256"
                        },
                        {
                            "internalType": "uint256",
                            "name": "ratingModulu",
                            "type": "uint256"
                        },
                        {
                            "internalType": "uint256",
                            "name": "userRating",
                            "type": "uint256"
                        },
                        {
                            "internalType": "string",
                            "name": "fileSha256",
                            "type": "string"
                        },
                        {
                            "internalType": "bool",
                            "name": "owned",
                            "type": "bool"
                        },
                        {
                            "internalType": "string",
                            "name": "magnetLink",
                            "type": "string"
                        },
                        {
                            "internalType": "string",
                            "name": "category",
                            "type": "string"
                        },
                        {
                            "internalType": "uint256",
                            "name": "publishTime",
                            "type": "uint256"
                        }
                    ],
                    "internalType": "struct AppInfoLibrary.AppInfo[]",
                    "name": "",
                    "type": "tuple[]"
                }
            ],
            "stateMutability": "view",
            "type": "function"
        },
        {
            "inputs": [
                {
                    "internalType": "address",
                    "name": "app",
                    "type": "address"
                }
            ],
            "name": "getRatingForApp",
            "outputs": [
                {
                    "internalType": "uint256",
                    "name": "",
                    "type": "uint256"
                }
            ],
            "stateMutability": "view",
            "type": "function"
        },
        {
            "inputs": [
                {
                    "internalType": "address",
                    "name": "app_address",
                    "type": "address"
                }
            ],
            "name": "isAppOwned",
            "outputs": [
                {
                    "internalType": "bool",
                    "name": "",
                    "type": "bool"
                }
            ],
            "stateMutability": "view",
            "type": "function"
        },
        {
            "inputs": [
                {
                    "internalType": "address",
                    "name": "app_address",
                    "type": "address"
                }
            ],
            "name": "markAppAsPurchased",
            "outputs": [],
            "stateMutability": "nonpayable",
            "type": "function"
        },
        {
            "inputs": [],
            "name": "owner",
            "outputs": [
                {
                    "internalType": "address",
                    "name": "",
                    "type": "address"
                }
            ],
            "stateMutability": "view",
            "type": "function"
        },
        {
            "inputs": [
                {
                    "internalType": "address",
                    "name": "app",
                    "type": "address"
                },
                {
                    "internalType": "uint256",
                    "name": "app_rating",
                    "type": "uint256"
                }
            ],
            "name": "rateApp",
            "outputs": [],
            "stateMutability": "nonpayable",
            "type": "function"
        },
        {
            "inputs": [],
            "name": "renounceOwnership",
            "outputs": [],
            "stateMutability": "nonpayable",
            "type": "function"
        },
        {
            "inputs": [
                {
                    "internalType": "address",
                    "name": "newOwner",
                    "type": "address"
                }
            ],
            "name": "transferOwnership",
            "outputs": [],
            "stateMutability": "nonpayable",
            "type": "function"
        }
    ],
    "bytecode": "608060405234801561001057600080fd5b506040516110b23803806110b283398101604081905261002f916100c6565b61003833610070565b600180546001600160a01b0383166001600160a81b031990911617905561006a60076100c0602090811b61097e17901c565b506100f6565b600080546001600160a01b038381166001600160a01b0319831681178455604051919092169283917f8be0079c531659141344cd1fd0a4f28419497f9722a3daafe3b4186f6b6457e09190a35050565b60009055565b6000602082840312156100d857600080fd5b81516001600160a01b03811681146100ef57600080fd5b9392505050565b610fad806101056000396000f3fe608060405234801561001057600080fd5b50600436106100a95760003560e01c806391de1ba31161007157806391de1ba314610118578063983c0a5b1461012b5780639f9f7f851461013e578063b8c3773f1461015f578063e3f75d1e14610167578063f2fde38b1461017a57600080fd5b806304a4d704146100ae578063139334af146100d6578063253a219f146100eb578063715018a6146100f35780638da5cb5b146100fd575b600080fd5b6100c16100bc366004610a63565b61018d565b60405190151581526020015b60405180910390f35b6100de6101e4565b6040516100cd9190610ae1565b6100de6103a8565b6100fb610530565b005b6000546040516001600160a01b0390911681526020016100cd565b6100fb610126366004610a63565b610566565b6100fb610139366004610c56565b6105f7565b61015161014c366004610a63565b610685565b6040519081526020016100cd565b6100de6106cc565b6100fb610175366004610a63565b610854565b6100fb610188366004610a63565b6108e6565b600080546001600160a01b031633146101c15760405162461bcd60e51b81526004016101b890610c80565b60405180910390fd5b506001600160a01b03811660009081526004602052604090205460ff165b919050565b6000546060906001600160a01b031633146102115760405162461bcd60e51b81526004016101b890610c80565b600061021c60075490565b905060008167ffffffffffffffff81111561023957610239610cb5565b60405190808252806020026020018201604052801561027257816020015b61025f6109d4565b8152602001906001900390816102575790505b50905060005b828110156103a15760006002828154811061029557610295610ccb565b60009182526020808320909101546001600160a01b0316808352600590915260409091205490915081901561038c57806001600160a01b031663f22b01276001610305600287815481106102eb576102eb610ccb565b6000918252602090912001546001600160a01b0316610685565b6040516001600160e01b031960e085901b16815291151560048301526024820152604401600060405180830381865afa158015610346573d6000803e3d6000fd5b505050506040513d6000823e601f3d908101601f1916820160405261036e9190810190610da3565b84848151811061038057610380610ccb565b60200260200101819052505b5050808061039990610f50565b915050610278565b5091505090565b6000546060906001600160a01b031633146103d55760405162461bcd60e51b81526004016101b890610c80565b60035460008167ffffffffffffffff8111156103f3576103f3610cb5565b60405190808252806020026020018201604052801561042c57816020015b6104196109d4565b8152602001906001900390816104115790505b50905060005b828110156103a15760006003828154811061044f5761044f610ccb565b9060005260206000200160009054906101000a90046001600160a01b03169050806001600160a01b031663f22b01276001610496600386815481106102eb576102eb610ccb565b6040516001600160e01b031960e085901b16815291151560048301526024820152604401600060405180830381865afa1580156104d7573d6000803e3d6000fd5b505050506040513d6000823e601f3d908101601f191682016040526104ff9190810190610da3565b83838151811061051157610511610ccb565b602002602001018190525050808061052890610f50565b915050610432565b6000546001600160a01b0316331461055a5760405162461bcd60e51b81526004016101b890610c80565b6105646000610984565b565b6000546001600160a01b031633146105905760405162461bcd60e51b81526004016101b890610c80565b6002805460018181019092557f405787fa12a823e0f2b7631cc41b3ba8828b3321ca811111fa75cd3aa3bb5ace0180546001600160a01b039093166001600160a01b031990931683179055600091825260046020526040909120805460ff19169091179055565b6000546001600160a01b031633146106215760405162461bcd60e51b81526004016101b890610c80565b60018110158015610633575060058111155b61063c57600080fd5b6001600160a01b038216600090815260056020526040812054900361066957610669600780546001019055565b6001600160a01b03909116600090815260056020526040902055565b600080546001600160a01b031633146106b05760405162461bcd60e51b81526004016101b890610c80565b506001600160a01b031660009081526005602052604090205490565b6000546060906001600160a01b031633146106f95760405162461bcd60e51b81526004016101b890610c80565b60025460008167ffffffffffffffff81111561071757610717610cb5565b60405190808252806020026020018201604052801561075057816020015b61073d6109d4565b8152602001906001900390816107355790505b50905060005b828110156103a15760006002828154811061077357610773610ccb565b9060005260206000200160009054906101000a90046001600160a01b03169050806001600160a01b031663f22b012760016107ba600286815481106102eb576102eb610ccb565b6040516001600160e01b031960e085901b16815291151560048301526024820152604401600060405180830381865afa1580156107fb573d6000803e3d6000fd5b505050506040513d6000823e601f3d908101601f191682016040526108239190810190610da3565b83838151811061083557610835610ccb565b602002602001018190525050808061084c90610f50565b915050610756565b6000546001600160a01b0316331461087e5760405162461bcd60e51b81526004016101b890610c80565b6001805460ff60a01b1916600160a01b1781556003805491820181556000527fc2575a0e9e593c00f959f8c92f12db2869c3395a3b0502d05e2516446f71f85b0180546001600160a01b0383166001600160a01b03199091161790556108e381610566565b50565b6000546001600160a01b031633146109105760405162461bcd60e51b81526004016101b890610c80565b6001600160a01b0381166109755760405162461bcd60e51b815260206004820152602660248201527f4f776e61626c653a206e6577206f776e657220697320746865207a65726f206160448201526564647265737360d01b60648201526084016101b8565b6108e381610984565b60009055565b600080546001600160a01b038381166001600160a01b0319831681178455604051919092169283917f8be0079c531659141344cd1fd0a4f28419497f9722a3daafe3b4186f6b6457e09190a35050565b604051806101e0016040528060008152602001606081526020016060815260200160608152602001606081526020016000815260200160008152602001600081526020016000815260200160008152602001606081526020016000151581526020016060815260200160608152602001600081525090565b80356001600160a01b03811681146101df57600080fd5b600060208284031215610a7557600080fd5b610a7e82610a4c565b9392505050565b60005b83811015610aa0578181015183820152602001610a88565b83811115610aaf576000848401525b50505050565b60008151808452610acd816020860160208601610a85565b601f01601f19169290920160200192915050565b60006020808301818452808551808352604092508286019150828160051b87010184880160005b83811015610c4857603f1989840301855281516101e08151855288820151818a870152610b3782870182610ab5565b9150508782015185820389870152610b4f8282610ab5565b91505060608083015186830382880152610b698382610ab5565b9250505060808083015186830382880152610b848382610ab5565b60a0858101519089015260c0808601519089015260e080860151908901526101008086015190890152610120808601519089015261014080860151898303828b015291945092509050610bd78382610ab5565b9250505061016080830151610bef8288018215159052565b50506101808083015186830382880152610c098382610ab5565b925050506101a08083015186830382880152610c258382610ab5565b6101c0948501519790940196909652505094870194925090860190600101610b08565b509098975050505050505050565b60008060408385031215610c6957600080fd5b610c7283610a4c565b946020939093013593505050565b6020808252818101527f4f776e61626c653a2063616c6c6572206973206e6f7420746865206f776e6572604082015260600190565b634e487b7160e01b600052604160045260246000fd5b634e487b7160e01b600052603260045260246000fd5b6040516101e0810167ffffffffffffffff81118282101715610d0557610d05610cb5565b60405290565b600082601f830112610d1c57600080fd5b815167ffffffffffffffff80821115610d3757610d37610cb5565b604051601f8301601f19908116603f01168101908282118183101715610d5f57610d5f610cb5565b81604052838152866020858801011115610d7857600080fd5b610d89846020830160208901610a85565b9695505050505050565b805180151581146101df57600080fd5b600060208284031215610db557600080fd5b815167ffffffffffffffff80821115610dcd57600080fd5b908301906101e08286031215610de257600080fd5b610dea610ce1565b82518152602083015182811115610e0057600080fd5b610e0c87828601610d0b565b602083015250604083015182811115610e2457600080fd5b610e3087828601610d0b565b604083015250606083015182811115610e4857600080fd5b610e5487828601610d0b565b606083015250608083015182811115610e6c57600080fd5b610e7887828601610d0b565b60808301525060a083015160a082015260c083015160c082015260e083015160e08201526101008084015181830152506101208084015181830152506101408084015183811115610ec857600080fd5b610ed488828701610d0b565b828401525050610160610ee8818501610d93565b908201526101808381015183811115610f0057600080fd5b610f0c88828701610d0b565b8284015250506101a08084015183811115610f2657600080fd5b610f3288828701610d0b565b91830191909152506101c09283015192810192909252509392505050565b600060018201610f7057634e487b7160e01b600052601160045260246000fd5b506001019056fea2646970667358221220b0efe28c92a6bac39302f0f65a3dd02b9edb91227d6e2a236a42003c7a28852864736f6c634300080f0033",
    "sourcePath": "c:/Users/User/Documents/GitHub/SmartContracts/contracts/user.sol",
    "compiler": {
        "name": "solc",
        "version": "0.8.15+commit.e14f2714"
    },
    "functionHashes": {
        "createNewApp(address)": "e3f75d1e",
        "getPublishedApps()": "253a219f",
        "getPurchasedApps()": "b8c3773f",
        "getRatedApps()": "139334af",
        "getRatingForApp(address)": "9f9f7f85",
        "isAppOwned(address)": "04a4d704",
        "markAppAsPurchased(address)": "91de1ba3",
        "owner()": "8da5cb5b",
        "rateApp(address,uint256)": "983c0a5b",
        "renounceOwnership()": "715018a6",
        "transferOwnership(address)": "f2fde38b"
    },
    "gasEstimates": {
        "creation": {
            "codeDepositCost": "802600",
            "executionCost": "infinite",
            "totalCost": "infinite"
        },
        "external": {
            "createNewApp(address)": "150211",
            "getPublishedApps()": "infinite",
            "getPurchasedApps()": "infinite",
            "getRatedApps()": "infinite",
            "getRatingForApp(address)": "4738",
            "isAppOwned(address)": "infinite",
            "markAppAsPurchased(address)": "75231",
            "owner()": "2390",
            "rateApp(address,uint256)": "51174",
            "renounceOwnership()": "28181",
            "transferOwnership(address)": "28419"
        }
    }
}