{
    "contractName": "User",
    "abi": [
        {
            "inputs": [
                {
                    "internalType": "address",
                    "name": "new_user_address",
                    "type": "address"
                }
            ],
            "stateMutability": "nonpayable",
            "type": "constructor"
        },
        {
            "anonymous": false,
            "inputs": [
                {
                    "indexed": true,
                    "internalType": "address",
                    "name": "previousOwner",
                    "type": "address"
                },
                {
                    "indexed": true,
                    "internalType": "address",
                    "name": "newOwner",
                    "type": "address"
                }
            ],
            "name": "OwnershipTransferred",
            "type": "event"
        },
        {
            "inputs": [
                {
                    "internalType": "address",
                    "name": "app",
                    "type": "address"
                }
            ],
            "name": "creatApp",
            "outputs": [],
            "stateMutability": "nonpayable",
            "type": "function"
        },
        {
            "inputs": [],
            "name": "getCreatedApps",
            "outputs": [
                {
                    "components": [
                        {
                            "internalType": "uint256",
                            "name": "id",
                            "type": "uint256"
                        },
                        {
                            "internalType": "string",
                            "name": "name",
                            "type": "string"
                        },
                        {
                            "internalType": "string",
                            "name": "description",
                            "type": "string"
                        },
                        {
                            "internalType": "string",
                            "name": "imgUrl",
                            "type": "string"
                        },
                        {
                            "internalType": "string",
                            "name": "company",
                            "type": "string"
                        },
                        {
                            "internalType": "uint256",
                            "name": "price",
                            "type": "uint256"
                        },
                        {
                            "internalType": "uint256",
                            "name": "num_ratings",
                            "type": "uint256"
                        },
                        {
                            "internalType": "uint256",
                            "name": "rating",
                            "type": "uint256"
                        },
                        {
                            "internalType": "uint256",
                            "name": "rating_modulu",
                            "type": "uint256"
                        },
                        {
                            "internalType": "string",
                            "name": "fileSha256",
                            "type": "string"
                        },
                        {
                            "internalType": "bool",
                            "name": "owned",
                            "type": "bool"
                        }
                    ],
                    "internalType": "struct AppInfoLibrary.AppInfo[]",
                    "name": "",
                    "type": "tuple[]"
                }
            ],
            "stateMutability": "view",
            "type": "function"
        },
        {
            "inputs": [],
            "name": "getPurchasedApps",
            "outputs": [
                {
                    "components": [
                        {
                            "internalType": "uint256",
                            "name": "id",
                            "type": "uint256"
                        },
                        {
                            "internalType": "string",
                            "name": "name",
                            "type": "string"
                        },
                        {
                            "internalType": "string",
                            "name": "description",
                            "type": "string"
                        },
                        {
                            "internalType": "string",
                            "name": "imgUrl",
                            "type": "string"
                        },
                        {
                            "internalType": "string",
                            "name": "company",
                            "type": "string"
                        },
                        {
                            "internalType": "uint256",
                            "name": "price",
                            "type": "uint256"
                        },
                        {
                            "internalType": "uint256",
                            "name": "num_ratings",
                            "type": "uint256"
                        },
                        {
                            "internalType": "uint256",
                            "name": "rating",
                            "type": "uint256"
                        },
                        {
                            "internalType": "uint256",
                            "name": "rating_modulu",
                            "type": "uint256"
                        },
                        {
                            "internalType": "string",
                            "name": "fileSha256",
                            "type": "string"
                        },
                        {
                            "internalType": "bool",
                            "name": "owned",
                            "type": "bool"
                        }
                    ],
                    "internalType": "struct AppInfoLibrary.AppInfo[]",
                    "name": "",
                    "type": "tuple[]"
                }
            ],
            "stateMutability": "view",
            "type": "function"
        },
        {
            "inputs": [],
            "name": "getRatedApps",
            "outputs": [
                {
                    "components": [
                        {
                            "internalType": "uint256",
                            "name": "id",
                            "type": "uint256"
                        },
                        {
                            "internalType": "string",
                            "name": "name",
                            "type": "string"
                        },
                        {
                            "internalType": "string",
                            "name": "description",
                            "type": "string"
                        },
                        {
                            "internalType": "string",
                            "name": "imgUrl",
                            "type": "string"
                        },
                        {
                            "internalType": "string",
                            "name": "company",
                            "type": "string"
                        },
                        {
                            "internalType": "uint256",
                            "name": "price",
                            "type": "uint256"
                        },
                        {
                            "internalType": "uint256",
                            "name": "num_ratings",
                            "type": "uint256"
                        },
                        {
                            "internalType": "uint256",
                            "name": "rating",
                            "type": "uint256"
                        },
                        {
                            "internalType": "uint256",
                            "name": "rating_modulu",
                            "type": "uint256"
                        },
                        {
                            "internalType": "string",
                            "name": "fileSha256",
                            "type": "string"
                        },
                        {
                            "internalType": "bool",
                            "name": "owned",
                            "type": "bool"
                        }
                    ],
                    "internalType": "struct AppInfoLibrary.AppInfo[]",
                    "name": "",
                    "type": "tuple[]"
                }
            ],
            "stateMutability": "view",
            "type": "function"
        },
        {
            "inputs": [
                {
                    "internalType": "address",
                    "name": "app",
                    "type": "address"
                }
            ],
            "name": "getRatingForApp",
            "outputs": [
                {
                    "internalType": "uint256",
                    "name": "",
                    "type": "uint256"
                }
            ],
            "stateMutability": "view",
            "type": "function"
        },
        {
            "inputs": [
                {
                    "internalType": "address",
                    "name": "_app",
                    "type": "address"
                }
            ],
            "name": "isAppPurchased",
            "outputs": [
                {
                    "internalType": "bool",
                    "name": "",
                    "type": "bool"
                }
            ],
            "stateMutability": "view",
            "type": "function"
        },
        {
            "inputs": [],
            "name": "owner",
            "outputs": [
                {
                    "internalType": "address",
                    "name": "",
                    "type": "address"
                }
            ],
            "stateMutability": "view",
            "type": "function"
        },
        {
            "inputs": [
                {
                    "internalType": "address payable",
                    "name": "creator",
                    "type": "address"
                },
                {
                    "internalType": "uint256",
                    "name": "price",
                    "type": "uint256"
                }
            ],
            "name": "payCreator",
            "outputs": [],
            "stateMutability": "payable",
            "type": "function"
        },
        {
            "inputs": [
                {
                    "internalType": "address",
                    "name": "app_address",
                    "type": "address"
                }
            ],
            "name": "purchaseApp",
            "outputs": [],
            "stateMutability": "nonpayable",
            "type": "function"
        },
        {
            "inputs": [
                {
                    "internalType": "address",
                    "name": "app",
                    "type": "address"
                },
                {
                    "internalType": "uint256",
                    "name": "app_rating",
                    "type": "uint256"
                }
            ],
            "name": "rateApp",
            "outputs": [],
            "stateMutability": "nonpayable",
            "type": "function"
        },
        {
            "inputs": [],
            "name": "renounceOwnership",
            "outputs": [],
            "stateMutability": "nonpayable",
            "type": "function"
        },
        {
            "inputs": [
                {
                    "internalType": "address",
                    "name": "newOwner",
                    "type": "address"
                }
            ],
            "name": "transferOwnership",
            "outputs": [],
            "stateMutability": "nonpayable",
            "type": "function"
        }
    ],
    "bytecode": "608060405234801561001057600080fd5b506040516111f93803806111f983398101604081905261002f91610101565b610038336100b1565b60028054600180546001600160a01b0319166001600160a01b0385169081179091556001600160a81b03199091163360ff60a01b1981169190911790925560405191825230917fb38dc5c508c5acbc701af21346d9dbc58b631681962a52c08afe86b277eb7e979060200160405180910390a350610131565b600080546001600160a01b038381166001600160a01b0319831681178455604051919092169283917f8be0079c531659141344cd1fd0a4f28419497f9722a3daafe3b4186f6b6457e09190a35050565b60006020828403121561011357600080fd5b81516001600160a01b038116811461012a57600080fd5b9392505050565b6110b9806101406000396000f3fe6080604052600436106100a75760003560e01c80638da5cb5b116100645780638da5cb5b1461016f578063983c0a5b146101975780639f9f7f85146101b7578063b8c3773f146101e5578063d3c65b91146101fa578063f2fde38b1461020d57600080fd5b80630611599d146100ac57806307e5d9e5146100e1578063139334af146101035780632858594b14610125578063715018a6146101455780638cfb33041461015a575b600080fd5b3480156100b857600080fd5b506100cc6100c7366004610bcb565b61022d565b60405190151581526020015b60405180910390f35b3480156100ed57600080fd5b506101016100fc366004610bcb565b61034d565b005b34801561010f57600080fd5b506101186103dd565b6040516100d89190610c4b565b34801561013157600080fd5b50610101610140366004610bcb565b610533565b34801561015157600080fd5b5061010161068e565b34801561016657600080fd5b506101186106c4565b34801561017b57600080fd5b506000546040516001600160a01b0390911681526020016100d8565b3480156101a357600080fd5b506101016101b2366004610d72565b610813565b3480156101c357600080fd5b506101d76101d2366004610bcb565b610874565b6040519081526020016100d8565b3480156101f157600080fd5b506101186108bb565b610101610208366004610d72565b610a0a565b34801561021957600080fd5b50610101610228366004610bcb565b610a6f565b600080546001600160a01b031633146102615760405162461bcd60e51b815260040161025890610d9e565b60405180910390fd5b60005b60035481101561034257826001600160a01b031673__$4abe93d8f421c97b6c3dfbe9b44c8344ba$__63685658bb9091600384815481106102a7576102a7610dd3565b60009182526020909120015460405160e084901b6001600160e01b03191681526001600160a01b03928316600482015291166024820152604401602060405180830381865af41580156102fe573d6000803e3d6000fd5b505050506040513d601f19601f820116820180604052508101906103229190610df9565b156103305750600192915050565b8061033a81610e14565b915050610264565b50600090505b919050565b6000546001600160a01b031633146103775760405162461bcd60e51b815260040161025890610d9e565b6002805460ff60a01b1916600160a01b179055600480546001810182556000919091527f8a35acfbc15ff81a39ae7d344fd709f28e8600b4aa8c65c6b64bfe7fe36bd19b0180546001600160a01b039092166001600160a01b0319909216919091179055565b6000546060906001600160a01b0316331461040a5760405162461bcd60e51b815260040161025890610d9e565b60035460008167ffffffffffffffff81111561042857610428610e3b565b60405190808252806020026020018201604052801561046157816020015b61044e610b5a565b8152602001906001900390816104465790505b50905060005b8281101561052c5760006003828154811061048457610484610dd3565b60009182526020822001546040805163e26799ff60e01b815290516001600160a01b039092169350839263e26799ff926004808401938290030181865afa1580156104d3573d6000803e3d6000fd5b505050506040513d6000823e601f3d908101601f191682016040526104fb9190810190610f03565b83838151811061050d5761050d610dd3565b602002602001018190525050808061052490610e14565b915050610467565b5091505090565b6000546001600160a01b0316331461055d5760405162461bcd60e51b815260040161025890610d9e565b60008190506000816001600160a01b031663a035b1fe6040518163ffffffff1660e01b8152600401602060405180830381865afa1580156105a2573d6000803e3d6000fd5b505050506040513d601f19601f820116820180604052508101906105c6919061104d565b90506000826001600160a01b03166302d05d3f6040518163ffffffff1660e01b8152600401602060405180830381865afa158015610608573d6000803e3d6000fd5b505050506040513d601f19601f8201168201806040525081019061062c9190611066565b90506106388183610a0a565b5050600380546001810182556000919091527fc2575a0e9e593c00f959f8c92f12db2869c3395a3b0502d05e2516446f71f85b0180546001600160a01b0319166001600160a01b03939093169290921790915550565b6000546001600160a01b031633146106b85760405162461bcd60e51b815260040161025890610d9e565b6106c26000610b0a565b565b6000546060906001600160a01b031633146106f15760405162461bcd60e51b815260040161025890610d9e565b60045460008167ffffffffffffffff81111561070f5761070f610e3b565b60405190808252806020026020018201604052801561074857816020015b610735610b5a565b81526020019060019003908161072d5790505b50905060005b8281101561052c5760006004828154811061076b5761076b610dd3565b60009182526020822001546040805163e26799ff60e01b815290516001600160a01b039092169350839263e26799ff926004808401938290030181865afa1580156107ba573d6000803e3d6000fd5b505050506040513d6000823e601f3d908101601f191682016040526107e29190810190610f03565b8383815181106107f4576107f4610dd3565b602002602001018190525050808061080b90610e14565b91505061074e565b6000546001600160a01b0316331461083d5760405162461bcd60e51b815260040161025890610d9e565b6001811015801561084f575060058111155b61085857600080fd5b6001600160a01b03909116600090815260056020526040902055565b600080546001600160a01b0316331461089f5760405162461bcd60e51b815260040161025890610d9e565b506001600160a01b031660009081526005602052604090205490565b6000546060906001600160a01b031633146108e85760405162461bcd60e51b815260040161025890610d9e565b60035460008167ffffffffffffffff81111561090657610906610e3b565b60405190808252806020026020018201604052801561093f57816020015b61092c610b5a565b8152602001906001900390816109245790505b50905060005b8281101561052c5760006003828154811061096257610962610dd3565b60009182526020822001546040805163e26799ff60e01b815290516001600160a01b039092169350839263e26799ff926004808401938290030181865afa1580156109b1573d6000803e3d6000fd5b505050506040513d6000823e601f3d908101601f191682016040526109d99190810190610f03565b8383815181106109eb576109eb610dd3565b6020026020010181905250508080610a0290610e14565b915050610945565b6000546001600160a01b03163314610a345760405162461bcd60e51b815260040161025890610d9e565b6040516001600160a01b0383169082156108fc029083906000818181858888f19350505050158015610a6a573d6000803e3d6000fd5b505050565b6000546001600160a01b03163314610a995760405162461bcd60e51b815260040161025890610d9e565b6001600160a01b038116610afe5760405162461bcd60e51b815260206004820152602660248201527f4f776e61626c653a206e6577206f776e657220697320746865207a65726f206160448201526564647265737360d01b6064820152608401610258565b610b0781610b0a565b50565b600080546001600160a01b038381166001600160a01b0319831681178455604051919092169283917f8be0079c531659141344cd1fd0a4f28419497f9722a3daafe3b4186f6b6457e09190a35050565b604051806101600160405280600081526020016060815260200160608152602001606081526020016060815260200160008152602001600081526020016000815260200160008152602001606081526020016000151581525090565b6001600160a01b0381168114610b0757600080fd5b600060208284031215610bdd57600080fd5b8135610be881610bb6565b9392505050565b60005b83811015610c0a578181015183820152602001610bf2565b83811115610c19576000848401525b50505050565b60008151808452610c37816020860160208601610bef565b601f01601f19169290920160200192915050565b60006020808301818452808551808352604092508286019150828160051b87010184880160005b83811015610d6457603f1989840301855281516101608151855288820151818a870152610ca182870182610c1f565b9150508782015185820389870152610cb98282610c1f565b91505060608083015186830382880152610cd38382610c1f565b9250505060808083015186830382880152610cee8382610c1f565b60a0858101519089015260c0808601519089015260e08086015190890152610100808601519089015261012080860151898303828b015291945092509050610d368382610c1f565b92505050610140808301519250610d508187018415159052565b509588019593505090860190600101610c72565b509098975050505050505050565b60008060408385031215610d8557600080fd5b8235610d9081610bb6565b946020939093013593505050565b6020808252818101527f4f776e61626c653a2063616c6c6572206973206e6f7420746865206f776e6572604082015260600190565b634e487b7160e01b600052603260045260246000fd5b8051801515811461034857600080fd5b600060208284031215610e0b57600080fd5b610be882610de9565b600060018201610e3457634e487b7160e01b600052601160045260246000fd5b5060010190565b634e487b7160e01b600052604160045260246000fd5b604051610160810167ffffffffffffffff81118282101715610e7557610e75610e3b565b60405290565b600082601f830112610e8c57600080fd5b815167ffffffffffffffff80821115610ea757610ea7610e3b565b604051601f8301601f19908116603f01168101908282118183101715610ecf57610ecf610e3b565b81604052838152866020858801011115610ee857600080fd5b610ef9846020830160208901610bef565b9695505050505050565b600060208284031215610f1557600080fd5b815167ffffffffffffffff80821115610f2d57600080fd5b908301906101608286031215610f4257600080fd5b610f4a610e51565b82518152602083015182811115610f6057600080fd5b610f6c87828601610e7b565b602083015250604083015182811115610f8457600080fd5b610f9087828601610e7b565b604083015250606083015182811115610fa857600080fd5b610fb487828601610e7b565b606083015250608083015182811115610fcc57600080fd5b610fd887828601610e7b565b60808301525060a083015160a082015260c083015160c082015260e083015160e0820152610100808401518183015250610120808401518381111561101c57600080fd5b61102888828701610e7b565b828401525050610140915061103e828401610de9565b91810191909152949350505050565b60006020828403121561105f57600080fd5b5051919050565b60006020828403121561107857600080fd5b8151610be881610bb656fea2646970667358221220bd874d92de3d9f248e370a7ab490650196c9fbcd16aab30f20e2345b98198aa064736f6c634300080e0033",
    "sourcePath": "c:/Users/User/Documents/GitHub/SmartContracts/contracts/user.sol",
    "compiler": {
        "name": "solc",
        "version": "0.8.14+commit.80d49f37"
    },
    "functionHashes": {
        "creatApp(address)": "07e5d9e5",
        "getCreatedApps()": "8cfb3304",
        "getPurchasedApps()": "b8c3773f",
        "getRatedApps()": "139334af",
        "getRatingForApp(address)": "9f9f7f85",
        "isAppPurchased(address)": "0611599d",
        "owner()": "8da5cb5b",
        "payCreator(address,uint256)": "d3c65b91",
        "purchaseApp(address)": "2858594b",
        "rateApp(address,uint256)": "983c0a5b",
        "renounceOwnership()": "715018a6",
        "transferOwnership(address)": "f2fde38b"
    },
    "gasEstimates": {
        "creation": {
            "codeDepositCost": "856200",
            "executionCost": "infinite",
            "totalCost": "infinite"
        },
        "external": {
            "creatApp(address)": "75203",
            "getCreatedApps()": "infinite",
            "getPurchasedApps()": "infinite",
            "getRatedApps()": "infinite",
            "getRatingForApp(address)": "4732",
            "isAppPurchased(address)": "infinite",
            "owner()": "2301",
            "payCreator(address,uint256)": "infinite",
            "purchaseApp(address)": "infinite",
            "rateApp(address,uint256)": "24732",
            "renounceOwnership()": "28203",
            "transferOwnership(address)": "infinite"
        }
    }
}