{
    "contractName": "User",
    "abi": [
        {
            "inputs": [
                {
                    "internalType": "address",
                    "name": "new_user_address",
                    "type": "address"
                }
            ],
            "stateMutability": "nonpayable",
            "type": "constructor"
        },
        {
            "anonymous": false,
            "inputs": [
                {
                    "indexed": true,
                    "internalType": "address",
                    "name": "previousOwner",
                    "type": "address"
                },
                {
                    "indexed": true,
                    "internalType": "address",
                    "name": "newOwner",
                    "type": "address"
                }
            ],
            "name": "OwnershipTransferred",
            "type": "event"
        },
        {
            "inputs": [
                {
                    "internalType": "address",
                    "name": "app",
                    "type": "address"
                }
            ],
            "name": "creatApp",
            "outputs": [],
            "stateMutability": "nonpayable",
            "type": "function"
        },
        {
            "inputs": [],
            "name": "getCreatedApps",
            "outputs": [
                {
                    "components": [
                        {
                            "internalType": "uint256",
                            "name": "id",
                            "type": "uint256"
                        },
                        {
                            "internalType": "string",
                            "name": "name",
                            "type": "string"
                        },
                        {
                            "internalType": "string",
                            "name": "description",
                            "type": "string"
                        },
                        {
                            "internalType": "string",
                            "name": "imgUrl",
                            "type": "string"
                        },
                        {
                            "internalType": "string",
                            "name": "company",
                            "type": "string"
                        },
                        {
                            "internalType": "uint256",
                            "name": "price",
                            "type": "uint256"
                        },
                        {
                            "internalType": "uint256",
                            "name": "num_ratings",
                            "type": "uint256"
                        },
                        {
                            "internalType": "uint256",
                            "name": "rating",
                            "type": "uint256"
                        },
                        {
                            "internalType": "uint256",
                            "name": "rating_modulu",
                            "type": "uint256"
                        },
                        {
                            "internalType": "string",
                            "name": "fileSha256",
                            "type": "string"
                        },
                        {
                            "internalType": "bool",
                            "name": "owned",
                            "type": "bool"
                        },
                        {
                            "internalType": "string",
                            "name": "magnetLink",
                            "type": "string"
                        }
                    ],
                    "internalType": "struct AppInfoLibrary.AppInfo[]",
                    "name": "",
                    "type": "tuple[]"
                }
            ],
            "stateMutability": "view",
            "type": "function"
        },
        {
            "inputs": [],
            "name": "getPurchasedApps",
            "outputs": [
                {
                    "components": [
                        {
                            "internalType": "uint256",
                            "name": "id",
                            "type": "uint256"
                        },
                        {
                            "internalType": "string",
                            "name": "name",
                            "type": "string"
                        },
                        {
                            "internalType": "string",
                            "name": "description",
                            "type": "string"
                        },
                        {
                            "internalType": "string",
                            "name": "imgUrl",
                            "type": "string"
                        },
                        {
                            "internalType": "string",
                            "name": "company",
                            "type": "string"
                        },
                        {
                            "internalType": "uint256",
                            "name": "price",
                            "type": "uint256"
                        },
                        {
                            "internalType": "uint256",
                            "name": "num_ratings",
                            "type": "uint256"
                        },
                        {
                            "internalType": "uint256",
                            "name": "rating",
                            "type": "uint256"
                        },
                        {
                            "internalType": "uint256",
                            "name": "rating_modulu",
                            "type": "uint256"
                        },
                        {
                            "internalType": "string",
                            "name": "fileSha256",
                            "type": "string"
                        },
                        {
                            "internalType": "bool",
                            "name": "owned",
                            "type": "bool"
                        },
                        {
                            "internalType": "string",
                            "name": "magnetLink",
                            "type": "string"
                        }
                    ],
                    "internalType": "struct AppInfoLibrary.AppInfo[]",
                    "name": "",
                    "type": "tuple[]"
                }
            ],
            "stateMutability": "view",
            "type": "function"
        },
        {
            "inputs": [],
            "name": "getRatedApps",
            "outputs": [
                {
                    "components": [
                        {
                            "internalType": "uint256",
                            "name": "id",
                            "type": "uint256"
                        },
                        {
                            "internalType": "string",
                            "name": "name",
                            "type": "string"
                        },
                        {
                            "internalType": "string",
                            "name": "description",
                            "type": "string"
                        },
                        {
                            "internalType": "string",
                            "name": "imgUrl",
                            "type": "string"
                        },
                        {
                            "internalType": "string",
                            "name": "company",
                            "type": "string"
                        },
                        {
                            "internalType": "uint256",
                            "name": "price",
                            "type": "uint256"
                        },
                        {
                            "internalType": "uint256",
                            "name": "num_ratings",
                            "type": "uint256"
                        },
                        {
                            "internalType": "uint256",
                            "name": "rating",
                            "type": "uint256"
                        },
                        {
                            "internalType": "uint256",
                            "name": "rating_modulu",
                            "type": "uint256"
                        },
                        {
                            "internalType": "string",
                            "name": "fileSha256",
                            "type": "string"
                        },
                        {
                            "internalType": "bool",
                            "name": "owned",
                            "type": "bool"
                        },
                        {
                            "internalType": "string",
                            "name": "magnetLink",
                            "type": "string"
                        }
                    ],
                    "internalType": "struct AppInfoLibrary.AppInfo[]",
                    "name": "",
                    "type": "tuple[]"
                }
            ],
            "stateMutability": "view",
            "type": "function"
        },
        {
            "inputs": [
                {
                    "internalType": "address",
                    "name": "app",
                    "type": "address"
                }
            ],
            "name": "getRatingForApp",
            "outputs": [
                {
                    "internalType": "uint256",
                    "name": "",
                    "type": "uint256"
                }
            ],
            "stateMutability": "view",
            "type": "function"
        },
        {
            "inputs": [
                {
                    "internalType": "address",
                    "name": "app_address",
                    "type": "address"
                }
            ],
            "name": "isAppOwned",
            "outputs": [
                {
                    "internalType": "bool",
                    "name": "",
                    "type": "bool"
                }
            ],
            "stateMutability": "view",
            "type": "function"
        },
        {
            "inputs": [
                {
                    "internalType": "address",
                    "name": "_app",
                    "type": "address"
                }
            ],
            "name": "isAppPurchased",
            "outputs": [
                {
                    "internalType": "bool",
                    "name": "",
                    "type": "bool"
                }
            ],
            "stateMutability": "view",
            "type": "function"
        },
        {
            "inputs": [],
            "name": "owner",
            "outputs": [
                {
                    "internalType": "address",
                    "name": "",
                    "type": "address"
                }
            ],
            "stateMutability": "view",
            "type": "function"
        },
        {
            "inputs": [
                {
                    "internalType": "address",
                    "name": "app_address",
                    "type": "address"
                }
            ],
            "name": "purchaseApp",
            "outputs": [],
            "stateMutability": "nonpayable",
            "type": "function"
        },
        {
            "inputs": [
                {
                    "internalType": "address",
                    "name": "app",
                    "type": "address"
                },
                {
                    "internalType": "uint256",
                    "name": "app_rating",
                    "type": "uint256"
                }
            ],
            "name": "rateApp",
            "outputs": [],
            "stateMutability": "nonpayable",
            "type": "function"
        },
        {
            "inputs": [],
            "name": "renounceOwnership",
            "outputs": [],
            "stateMutability": "nonpayable",
            "type": "function"
        },
        {
            "inputs": [
                {
                    "internalType": "address",
                    "name": "newOwner",
                    "type": "address"
                }
            ],
            "name": "transferOwnership",
            "outputs": [],
            "stateMutability": "nonpayable",
            "type": "function"
        }
    ],
    "bytecode": "608060405234801561001057600080fd5b5060405161118238038061118283398101604081905261002f91610101565b610038336100b1565b60028054600180546001600160a01b0319166001600160a01b0385169081179091556001600160a81b03199091163360ff60a01b1981169190911790925560405191825230917fb38dc5c508c5acbc701af21346d9dbc58b631681962a52c08afe86b277eb7e979060200160405180910390a350610131565b600080546001600160a01b038381166001600160a01b0319831681178455604051919092169283917f8be0079c531659141344cd1fd0a4f28419497f9722a3daafe3b4186f6b6457e09190a35050565b60006020828403121561011357600080fd5b81516001600160a01b038116811461012a57600080fd5b9392505050565b611042806101406000396000f3fe608060405234801561001057600080fd5b50600436106100b45760003560e01c80638cfb3304116100715780638cfb3304146101395780638da5cb5b14610141578063983c0a5b1461015c5780639f9f7f851461016f578063b8c3773f14610190578063f2fde38b1461019857600080fd5b806304a4d704146100b95780630611599d146100e157806307e5d9e5146100f4578063139334af146101095780632858594b1461011e578063715018a614610131575b600080fd5b6100cc6100c7366004610b4f565b6101ab565b60405190151581526020015b60405180910390f35b6100cc6100ef366004610b4f565b6102bb565b610107610102366004610b4f565b6103c7565b005b61011161048a565b6040516100d89190610bcd565b61010761012c366004610b4f565b6105e6565b610107610662565b610111610698565b6000546040516001600160a01b0390911681526020016100d8565b61010761016a366004610d0f565b6107ed565b61018261017d366004610b4f565b61084e565b6040519081526020016100d8565b610111610895565b6101076101a6366004610b4f565b6109ea565b600080546001600160a01b031633146101df5760405162461bcd60e51b81526004016101d690610d39565b60405180910390fd5b60005b6003548110156102b057600381815481106101ff576101ff610d6e565b60009182526020909120015460405163685658bb60e01b81526001600160a01b039182166004820152908416602482015273__$4abe93d8f421c97b6c3dfbe9b44c8344ba$__9063685658bb90604401602060405180830381865af415801561026c573d6000803e3d6000fd5b505050506040513d601f19601f820116820180604052508101906102909190610d94565b1561029e5750600192915050565b806102a881610daf565b9150506101e2565b50600090505b919050565b600080546001600160a01b031633146102e65760405162461bcd60e51b81526004016101d690610d39565b60005b6003548110156102b057826001600160a01b031673__$4abe93d8f421c97b6c3dfbe9b44c8344ba$__63685658bb90916003848154811061032c5761032c610d6e565b60009182526020909120015460405160e084901b6001600160e01b03191681526001600160a01b03928316600482015291166024820152604401602060405180830381865af4158015610383573d6000803e3d6000fd5b505050506040513d601f19601f820116820180604052508101906103a79190610d94565b156103b55750600192915050565b806103bf81610daf565b9150506102e9565b6000546001600160a01b031633146103f15760405162461bcd60e51b81526004016101d690610d39565b6002805460ff60a01b1916600160a01b1790556004805460018181019092557f8a35acfbc15ff81a39ae7d344fd709f28e8600b4aa8c65c6b64bfe7fe36bd19b0180546001600160a01b039093166001600160a01b031993841681179091556003805492830181556000527fc2575a0e9e593c00f959f8c92f12db2869c3395a3b0502d05e2516446f71f85b9091018054909216179055565b6000546060906001600160a01b031633146104b75760405162461bcd60e51b81526004016101d690610d39565b60035460008167ffffffffffffffff8111156104d5576104d5610dd6565b60405190808252806020026020018201604052801561050e57816020015b6104fb610ad5565b8152602001906001900390816104f35790505b50905060005b828110156105df5760006003828154811061053157610531610d6e565b60009182526020909120015460405163739febcd60e11b8152600160048201526001600160a01b039091169150819063e73fd79a90602401600060405180830381865afa158015610586573d6000803e3d6000fd5b505050506040513d6000823e601f3d908101601f191682016040526105ae9190810190610e9e565b8383815181106105c0576105c0610d6e565b60200260200101819052505080806105d790610daf565b915050610514565b5091505090565b6000546001600160a01b031633146106105760405162461bcd60e51b81526004016101d690610d39565b600380546001810182556000919091527fc2575a0e9e593c00f959f8c92f12db2869c3395a3b0502d05e2516446f71f85b0180546001600160a01b0319166001600160a01b0392909216919091179055565b6000546001600160a01b0316331461068c5760405162461bcd60e51b81526004016101d690610d39565b6106966000610a85565b565b6000546060906001600160a01b031633146106c55760405162461bcd60e51b81526004016101d690610d39565b60045460008167ffffffffffffffff8111156106e3576106e3610dd6565b60405190808252806020026020018201604052801561071c57816020015b610709610ad5565b8152602001906001900390816107015790505b50905060005b828110156105df5760006004828154811061073f5761073f610d6e565b60009182526020909120015460405163739febcd60e11b8152600160048201526001600160a01b039091169150819063e73fd79a90602401600060405180830381865afa158015610794573d6000803e3d6000fd5b505050506040513d6000823e601f3d908101601f191682016040526107bc9190810190610e9e565b8383815181106107ce576107ce610d6e565b60200260200101819052505080806107e590610daf565b915050610722565b6000546001600160a01b031633146108175760405162461bcd60e51b81526004016101d690610d39565b60018110158015610829575060058111155b61083257600080fd5b6001600160a01b03909116600090815260056020526040902055565b600080546001600160a01b031633146108795760405162461bcd60e51b81526004016101d690610d39565b506001600160a01b031660009081526005602052604090205490565b6000546060906001600160a01b031633146108c25760405162461bcd60e51b81526004016101d690610d39565b60035460008167ffffffffffffffff8111156108e0576108e0610dd6565b60405190808252806020026020018201604052801561091957816020015b610906610ad5565b8152602001906001900390816108fe5790505b50905060005b828110156105df5760006003828154811061093c5761093c610d6e565b60009182526020909120015460405163739febcd60e11b8152600160048201526001600160a01b039091169150819063e73fd79a90602401600060405180830381865afa158015610991573d6000803e3d6000fd5b505050506040513d6000823e601f3d908101601f191682016040526109b99190810190610e9e565b8383815181106109cb576109cb610d6e565b60200260200101819052505080806109e290610daf565b91505061091f565b6000546001600160a01b03163314610a145760405162461bcd60e51b81526004016101d690610d39565b6001600160a01b038116610a795760405162461bcd60e51b815260206004820152602660248201527f4f776e61626c653a206e6577206f776e657220697320746865207a65726f206160448201526564647265737360d01b60648201526084016101d6565b610a8281610a85565b50565b600080546001600160a01b038381166001600160a01b0319831681178455604051919092169283917f8be0079c531659141344cd1fd0a4f28419497f9722a3daafe3b4186f6b6457e09190a35050565b60405180610180016040528060008152602001606081526020016060815260200160608152602001606081526020016000815260200160008152602001600081526020016000815260200160608152602001600015158152602001606081525090565b80356001600160a01b03811681146102b657600080fd5b600060208284031215610b6157600080fd5b610b6a82610b38565b9392505050565b60005b83811015610b8c578181015183820152602001610b74565b83811115610b9b576000848401525b50505050565b60008151808452610bb9816020860160208601610b71565b601f01601f19169290920160200192915050565b60006020808301818452808551808352604092508286019150828160051b87010184880160005b83811015610d0157603f1989840301855281516101808151855288820151818a870152610c2382870182610ba1565b9150508782015185820389870152610c3b8282610ba1565b91505060608083015186830382880152610c558382610ba1565b9250505060808083015186830382880152610c708382610ba1565b60a0858101519089015260c0808601519089015260e08086015190890152610100808601519089015261012080860151898303828b015291945092509050610cb88382610ba1565b9250505061014080830151610cd08288018215159052565b50506101608083015192508582038187015250610ced8183610ba1565b968901969450505090860190600101610bf4565b509098975050505050505050565b60008060408385031215610d2257600080fd5b610d2b83610b38565b946020939093013593505050565b6020808252818101527f4f776e61626c653a2063616c6c6572206973206e6f7420746865206f776e6572604082015260600190565b634e487b7160e01b600052603260045260246000fd5b805180151581146102b657600080fd5b600060208284031215610da657600080fd5b610b6a82610d84565b600060018201610dcf57634e487b7160e01b600052601160045260246000fd5b5060010190565b634e487b7160e01b600052604160045260246000fd5b604051610180810167ffffffffffffffff81118282101715610e1057610e10610dd6565b60405290565b600082601f830112610e2757600080fd5b815167ffffffffffffffff80821115610e4257610e42610dd6565b604051601f8301601f19908116603f01168101908282118183101715610e6a57610e6a610dd6565b81604052838152866020858801011115610e8357600080fd5b610e94846020830160208901610b71565b9695505050505050565b600060208284031215610eb057600080fd5b815167ffffffffffffffff80821115610ec857600080fd5b908301906101808286031215610edd57600080fd5b610ee5610dec565b82518152602083015182811115610efb57600080fd5b610f0787828601610e16565b602083015250604083015182811115610f1f57600080fd5b610f2b87828601610e16565b604083015250606083015182811115610f4357600080fd5b610f4f87828601610e16565b606083015250608083015182811115610f6757600080fd5b610f7387828601610e16565b60808301525060a083015160a082015260c083015160c082015260e083015160e08201526101008084015181830152506101208084015183811115610fb757600080fd5b610fc388828701610e16565b828401525050610140610fd7818501610d84565b908201526101608381015183811115610fef57600080fd5b610ffb88828701610e16565b91830191909152509594505050505056fea2646970667358221220950fd22b05b27b4b47831899ff82db9dd0009f483222eac2c1807b9382208a9f64736f6c634300080e0033",
    "sourcePath": "c:/Users/User/Documents/GitHub/SmartContracts/contracts/user.sol",
    "compiler": {
        "name": "solc",
        "version": "0.8.14+commit.80d49f37"
    },
    "functionHashes": {
        "creatApp(address)": "07e5d9e5",
        "getCreatedApps()": "8cfb3304",
        "getPurchasedApps()": "b8c3773f",
        "getRatedApps()": "139334af",
        "getRatingForApp(address)": "9f9f7f85",
        "isAppOwned(address)": "04a4d704",
        "isAppPurchased(address)": "0611599d",
        "owner()": "8da5cb5b",
        "purchaseApp(address)": "2858594b",
        "rateApp(address,uint256)": "983c0a5b",
        "renounceOwnership()": "715018a6",
        "transferOwnership(address)": "f2fde38b"
    },
    "gasEstimates": {
        "creation": {
            "codeDepositCost": "832400",
            "executionCost": "infinite",
            "totalCost": "infinite"
        },
        "external": {
            "creatApp(address)": "123673",
            "getCreatedApps()": "infinite",
            "getPurchasedApps()": "infinite",
            "getRatedApps()": "infinite",
            "getRatingForApp(address)": "4760",
            "isAppOwned(address)": "infinite",
            "isAppPurchased(address)": "infinite",
            "owner()": "2323",
            "purchaseApp(address)": "51036",
            "rateApp(address,uint256)": "24760",
            "renounceOwnership()": "28225",
            "transferOwnership(address)": "28419"
        }
    }
}