{
    "contractName": "App",
    "abi": [
        {
            "inputs": [
                {
                    "internalType": "uint256",
                    "name": "_id",
                    "type": "uint256"
                },
                {
                    "internalType": "address",
                    "name": "_creator",
                    "type": "address"
                },
                {
                    "internalType": "string",
                    "name": "_name",
                    "type": "string"
                },
                {
                    "internalType": "string",
                    "name": "_description",
                    "type": "string"
                },
                {
                    "internalType": "string",
                    "name": "_magnetLink",
                    "type": "string"
                },
                {
                    "internalType": "string",
                    "name": "_imgUrl",
                    "type": "string"
                },
                {
                    "internalType": "string",
                    "name": "_company",
                    "type": "string"
                },
                {
                    "internalType": "uint256",
                    "name": "_price",
                    "type": "uint256"
                },
                {
                    "internalType": "string",
                    "name": "_category",
                    "type": "string"
                },
                {
                    "internalType": "string",
                    "name": "_fileSha256",
                    "type": "string"
                }
            ],
            "stateMutability": "nonpayable",
            "type": "constructor"
        },
        {
            "anonymous": false,
            "inputs": [
                {
                    "indexed": true,
                    "internalType": "address",
                    "name": "previousOwner",
                    "type": "address"
                },
                {
                    "indexed": true,
                    "internalType": "address",
                    "name": "newOwner",
                    "type": "address"
                }
            ],
            "name": "OwnershipTransferred",
            "type": "event"
        },
        {
            "inputs": [],
            "name": "company",
            "outputs": [
                {
                    "internalType": "string",
                    "name": "",
                    "type": "string"
                }
            ],
            "stateMutability": "view",
            "type": "function"
        },
        {
            "inputs": [],
            "name": "creator",
            "outputs": [
                {
                    "internalType": "address payable",
                    "name": "",
                    "type": "address"
                }
            ],
            "stateMutability": "view",
            "type": "function"
        },
        {
            "inputs": [],
            "name": "description",
            "outputs": [
                {
                    "internalType": "string",
                    "name": "",
                    "type": "string"
                }
            ],
            "stateMutability": "view",
            "type": "function"
        },
        {
            "inputs": [
                {
                    "internalType": "bool",
                    "name": "owned",
                    "type": "bool"
                },
                {
                    "internalType": "uint256",
                    "name": "user_rating",
                    "type": "uint256"
                }
            ],
            "name": "getAppInfo",
            "outputs": [
                {
                    "components": [
                        {
                            "internalType": "uint256",
                            "name": "id",
                            "type": "uint256"
                        },
                        {
                            "internalType": "string",
                            "name": "name",
                            "type": "string"
                        },
                        {
                            "internalType": "string",
                            "name": "description",
                            "type": "string"
                        },
                        {
                            "internalType": "string",
                            "name": "imgUrl",
                            "type": "string"
                        },
                        {
                            "internalType": "string",
                            "name": "company",
                            "type": "string"
                        },
                        {
                            "internalType": "uint256",
                            "name": "price",
                            "type": "uint256"
                        },
                        {
                            "internalType": "uint256",
                            "name": "numRatings",
                            "type": "uint256"
                        },
                        {
                            "internalType": "uint256",
                            "name": "ratingInt",
                            "type": "uint256"
                        },
                        {
                            "internalType": "uint256",
                            "name": "ratingModulu",
                            "type": "uint256"
                        },
                        {
                            "internalType": "uint256",
                            "name": "userRating",
                            "type": "uint256"
                        },
                        {
                            "internalType": "string",
                            "name": "fileSha256",
                            "type": "string"
                        },
                        {
                            "internalType": "bool",
                            "name": "owned",
                            "type": "bool"
                        },
                        {
                            "internalType": "string",
                            "name": "magnetLink",
                            "type": "string"
                        },
                        {
                            "internalType": "string",
                            "name": "category",
                            "type": "string"
                        },
                        {
                            "internalType": "uint256",
                            "name": "publishTime",
                            "type": "uint256"
                        }
                    ],
                    "internalType": "struct AppInfoLibrary.AppInfo",
                    "name": "",
                    "type": "tuple"
                }
            ],
            "stateMutability": "view",
            "type": "function"
        },
        {
            "inputs": [],
            "name": "getAppRating",
            "outputs": [
                {
                    "internalType": "uint256",
                    "name": "",
                    "type": "uint256"
                },
                {
                    "internalType": "uint256",
                    "name": "",
                    "type": "uint256"
                }
            ],
            "stateMutability": "view",
            "type": "function"
        },
        {
            "inputs": [],
            "name": "getCurrentVersion",
            "outputs": [
                {
                    "internalType": "string",
                    "name": "",
                    "type": "string"
                }
            ],
            "stateMutability": "view",
            "type": "function"
        },
        {
            "inputs": [],
            "name": "id",
            "outputs": [
                {
                    "internalType": "uint256",
                    "name": "",
                    "type": "uint256"
                }
            ],
            "stateMutability": "view",
            "type": "function"
        },
        {
            "inputs": [],
            "name": "imgUrl",
            "outputs": [
                {
                    "internalType": "string",
                    "name": "",
                    "type": "string"
                }
            ],
            "stateMutability": "view",
            "type": "function"
        },
        {
            "inputs": [],
            "name": "magnetLink",
            "outputs": [
                {
                    "internalType": "string",
                    "name": "",
                    "type": "string"
                }
            ],
            "stateMutability": "view",
            "type": "function"
        },
        {
            "inputs": [],
            "name": "name",
            "outputs": [
                {
                    "internalType": "string",
                    "name": "",
                    "type": "string"
                }
            ],
            "stateMutability": "view",
            "type": "function"
        },
        {
            "inputs": [],
            "name": "num_purchases",
            "outputs": [
                {
                    "internalType": "uint256",
                    "name": "_value",
                    "type": "uint256"
                }
            ],
            "stateMutability": "view",
            "type": "function"
        },
        {
            "inputs": [],
            "name": "num_ratings",
            "outputs": [
                {
                    "internalType": "uint256",
                    "name": "_value",
                    "type": "uint256"
                }
            ],
            "stateMutability": "view",
            "type": "function"
        },
        {
            "inputs": [],
            "name": "owner",
            "outputs": [
                {
                    "internalType": "address",
                    "name": "",
                    "type": "address"
                }
            ],
            "stateMutability": "view",
            "type": "function"
        },
        {
            "inputs": [],
            "name": "price",
            "outputs": [
                {
                    "internalType": "uint256",
                    "name": "",
                    "type": "uint256"
                }
            ],
            "stateMutability": "view",
            "type": "function"
        },
        {
            "inputs": [
                {
                    "internalType": "uint256",
                    "name": "new_rating",
                    "type": "uint256"
                },
                {
                    "internalType": "uint256",
                    "name": "old_rating",
                    "type": "uint256"
                }
            ],
            "name": "rateApp",
            "outputs": [
                {
                    "internalType": "uint256",
                    "name": "",
                    "type": "uint256"
                },
                {
                    "internalType": "uint256",
                    "name": "",
                    "type": "uint256"
                },
                {
                    "internalType": "uint256",
                    "name": "",
                    "type": "uint256"
                }
            ],
            "stateMutability": "nonpayable",
            "type": "function"
        },
        {
            "inputs": [],
            "name": "renounceOwnership",
            "outputs": [],
            "stateMutability": "nonpayable",
            "type": "function"
        },
        {
            "inputs": [
                {
                    "internalType": "address",
                    "name": "newOwner",
                    "type": "address"
                }
            ],
            "name": "transferOwnership",
            "outputs": [],
            "stateMutability": "nonpayable",
            "type": "function"
        },
        {
            "inputs": [
                {
                    "internalType": "string",
                    "name": "_name",
                    "type": "string"
                },
                {
                    "internalType": "string",
                    "name": "_description",
                    "type": "string"
                },
                {
                    "internalType": "string",
                    "name": "_magnetLink",
                    "type": "string"
                },
                {
                    "internalType": "string",
                    "name": "_imgUrl",
                    "type": "string"
                },
                {
                    "internalType": "uint256",
                    "name": "_price",
                    "type": "uint256"
                },
                {
                    "internalType": "string",
                    "name": "_fileSha256",
                    "type": "string"
                }
            ],
            "name": "updateApp",
            "outputs": [
                {
                    "internalType": "bool",
                    "name": "",
                    "type": "bool"
                }
            ],
            "stateMutability": "nonpayable",
            "type": "function"
        }
    ],
    "bytecode": "60806040523480156200001157600080fd5b50604051620026c7380380620026c78339810160408190526200003491620006b1565b6200003f3362000564565b896200004f565b60405180910390fd5b8360008111620000a25760405162461bcd60e51b815260206004820152601c60248201527f5072696365206d7573742062652067726561746572207468616e203000000000604482015260640162000046565b60405163139a0e4560e11b81528a9073__$77e6ac7bbd1cc9033c410f7c1424e900f9$__906327341c8a90620000dd9084906004016200080a565b602060405180830381865af4158015620000fb573d6000803e3d6000fd5b505050506040513d601f19601f820116820180604052508101906200012191906200083f565b156200015f5760405162461bcd60e51b8152602060048201526018602482015260008051602062002612833981519152604482015260640162000046565b60405163139a0e4560e11b8152899073__$77e6ac7bbd1cc9033c410f7c1424e900f9$__906327341c8a906200019a9084906004016200080a565b602060405180830381865af4158015620001b8573d6000803e3d6000fd5b505050506040513d601f19601f82011682018060405250810190620001de91906200083f565b156200021c5760405162461bcd60e51b8152602060048201526018602482015260008051602062002612833981519152604482015260640162000046565b60405163139a0e4560e11b8152869073__$77e6ac7bbd1cc9033c410f7c1424e900f9$__906327341c8a90620002579084906004016200080a565b602060405180830381865af415801562000275573d6000803e3d6000fd5b505050506040513d601f19601f820116820180604052508101906200029b91906200083f565b15620002d95760405162461bcd60e51b8152602060048201526018602482015260008051602062002612833981519152604482015260640162000046565b60405163139a0e4560e11b8152869073__$77e6ac7bbd1cc9033c410f7c1424e900f9$__906327341c8a90620003149084906004016200080a565b602060405180830381865af415801562000332573d6000803e3d6000fd5b505050506040513d601f19601f820116820180604052508101906200035891906200083f565b15620003965760405162461bcd60e51b8152602060048201526018602482015260008051602062002612833981519152604482015260640162000046565b8e600260006101000a8154816001600160a01b0302191690836001600160a01b031602179055508f6001819055508d60039081620003d59190620008f9565b506004620003e48e82620008f9565b506006620003f38d82620008f9565b506007620004028c82620008f9565b5060405163139a0e4560e11b815273__$77e6ac7bbd1cc9033c410f7c1424e900f9$__906327341c8a906200043c908e906004016200080a565b602060405180830381865af41580156200045a573d6000803e3d6000fd5b505050506040513d601f19601f820116820180604052508101906200048091906200083f565b15620004b1576040518060c00160405280609581526020016200263260959139600790620004af9082620008f9565b505b6008620004bf8b82620008f9565b5060006009819055600a819055600b8a90556005805460018101825591527f036b6384b5eca791c62761152d0c79bb0604c104a5fb6f4eb0703f3154bb3db0016200050b8882620008f9565b5062000523600e620005b460201b620010401760201c565b6200053a600f620005b460201b620010401760201c565b600c620005488982620008f9565b505042600d5550620009c59d5050505050505050505050505050565b600080546001600160a01b038381166001600160a01b0319831681178455604051919092169283917f8be0079c531659141344cd1fd0a4f28419497f9722a3daafe3b4186f6b6457e09190a35050565b60009055565b80516001600160a01b0381168114620005d257600080fd5b919050565b634e487b7160e01b600052604160045260246000fd5b60005b838110156200060a578181015183820152602001620005f0565b838111156200061a576000848401525b50505050565b600082601f8301126200063257600080fd5b81516001600160401b03808211156200064f576200064f620005d7565b604051601f8301601f19908116603f011681019082821181831017156200067a576200067a620005d7565b816040528381528660208588010111156200069457600080fd5b620006a7846020830160208901620005ed565b9695505050505050565b6000806000806000806000806000806101408b8d031215620006d257600080fd5b8a519950620006e460208c01620005ba565b60408c01519099506001600160401b03808211156200070257600080fd5b620007108e838f0162000620565b995060608d01519150808211156200072757600080fd5b620007358e838f0162000620565b985060808d01519150808211156200074c57600080fd5b6200075a8e838f0162000620565b975060a08d01519150808211156200077157600080fd5b6200077f8e838f0162000620565b965060c08d01519150808211156200079657600080fd5b620007a48e838f0162000620565b955060e08d015194506101008d0151915080821115620007c357600080fd5b620007d18e838f0162000620565b93506101208d0151915080821115620007e957600080fd5b50620007f88d828e0162000620565b9150509295989b9194979a5092959850565b60208152600082518060208401526200082b816040850160208701620005ed565b601f01601f19169190910160400192915050565b6000602082840312156200085257600080fd5b815180151581146200086357600080fd5b9392505050565b600181811c908216806200087f57607f821691505b602082108103620008a057634e487b7160e01b600052602260045260246000fd5b50919050565b601f821115620008f457600081815260208120601f850160051c81016020861015620008cf5750805b601f850160051c820191505b81811015620008f057828155600101620008db565b5050505b505050565b81516001600160401b03811115620009155762000915620005d7565b6200092d816200092684546200086a565b84620008a6565b602080601f8311600181146200096557600084156200094c5750858301515b600019600386901b1c1916600185901b178555620008f0565b600085815260208120601f198616915b82811015620009965788860151825594840194600190910190840162000975565b5085821015620009b55787850151600019600388901b60f8161c191681555b5050505050600190811b01905550565b611c3d80620009d56000396000f3fe608060405234801561001057600080fd5b50600436106101165760003560e01c80638da5cb5b116100a2578063d23fe7c711610071578063d23fe7c71461022b578063d68387c714610235578063f22b01271461023d578063f2fde38b1461025d578063fabec44a1461027057600080fd5b80638da5cb5b14610200578063a035b1fe14610211578063a512bd791461021a578063af640d0f1461022257600080fd5b80636904c94d116100e95780636904c94d1461019b57806370b8fd92146101a3578063715018a6146101d15780637284e416146101db57806373b8fc80146101e357600080fd5b806302d05d3f1461011b57806306fdde031461014b57806334b1a7cc146101605780634367d32e14610178575b600080fd5b60025461012e906001600160a01b031681565b6040516001600160a01b0390911681526020015b60405180910390f35b610153610278565b6040516101429190611578565b600f5461016a9081565b604051908152602001610142565b61018b6101863660046115db565b610306565b6040519015158152602001610142565b610153610903565b6101b66101b13660046116d8565b610910565b60408051938452602084019290925290820152606001610142565b6101d9610a0e565b005b610153610a44565b6101eb610a51565b60408051928352602083019190915201610142565b6000546001600160a01b031661012e565b61016a600b5481565b610153610a73565b61016a60015481565b600e5461016a9081565b610153610a80565b61025061024b366004611708565b610a8d565b6040516101429190611734565b6101d961026b36600461187e565b610ee9565b610153610f84565b60038054610285906118a7565b80601f01602080910402602001604051908101604052809291908181526020018280546102b1906118a7565b80156102fe5780601f106102d3576101008083540402835291602001916102fe565b820191906000526020600020905b8154815290600101906020018083116102e157829003601f168201915b505050505081565b600080546001600160a01b0316331461033a5760405162461bcd60e51b8152600401610331906118e1565b60405180910390fd5b8b8b8080601f0160208091040260200160405190810160405280939291908181526020018383808284376000920191909152505060405163139a0e4560e11b815273__$77e6ac7bbd1cc9033c410f7c1424e900f9$__936327341c8a93506103a6925090600401611578565b602060405180830381865af41580156103c3573d6000803e3d6000fd5b505050506040513d601f19601f820116820180604052508101906103e79190611916565b6103f5576103f58c8c611046565b89898080601f0160208091040260200160405190810160405280939291908181526020018383808284376000920191909152505060405163139a0e4560e11b815273__$77e6ac7bbd1cc9033c410f7c1424e900f9$__936327341c8a9350610461925090600401611578565b602060405180830381865af415801561047e573d6000803e3d6000fd5b505050506040513d601f19601f820116820180604052508101906104a29190611916565b6104b0576104b08a8a611124565b87878080601f0160208091040260200160405190810160405280939291908181526020018383808284376000920191909152505060405163139a0e4560e11b815273__$77e6ac7bbd1cc9033c410f7c1424e900f9$__936327341c8a935061051c925090600401611578565b602060405180830381865af4158015610539573d6000803e3d6000fd5b505050506040513d601f19601f8201168201806040525081019061055d9190611916565b1580610613575082828080601f0160208091040260200160405190810160405280939291908181526020018383808284376000920191909152505060405163139a0e4560e11b815273__$77e6ac7bbd1cc9033c410f7c1424e900f9$__936327341c8a93506105d0925090600401611578565b602060405180830381865af41580156105ed573d6000803e3d6000fd5b505050506040513d601f19601f820116820180604052508101906106119190611916565b155b156108275787878080601f0160208091040260200160405190810160405280939291908181526020018383808284376000920191909152505060405163139a0e4560e11b815273__$77e6ac7bbd1cc9033c410f7c1424e900f9$__936327341c8a9350610684925090600401611578565b602060405180830381865af41580156106a1573d6000803e3d6000fd5b505050506040513d601f19601f820116820180604052508101906106c59190611916565b15801561077c575082828080601f0160208091040260200160405190810160405280939291908181526020018383808284376000920191909152505060405163139a0e4560e11b815273__$77e6ac7bbd1cc9033c410f7c1424e900f9$__936327341c8a9350610739925090600401611578565b602060405180830381865af4158015610756573d6000803e3d6000fd5b505050506040513d601f19601f8201168201806040525081019061077a9190611916565b155b6107de5760405162461bcd60e51b815260206004820152602d60248201527f4d7573742070726f7669646520626f7468206d61676e6574206c696e6b20616e60448201526c32103334b6329039b430991a9b60991b6064820152608401610331565b6107e888886111fc565b61082783838080601f0160208091040260200160405190810160405280939291908181526020018383808284376000920191909152506112d492505050565b85858080601f0160208091040260200160405190810160405280939291908181526020018383808284376000920191909152505060405163139a0e4560e11b815273__$77e6ac7bbd1cc9033c410f7c1424e900f9$__936327341c8a9350610893925090600401611578565b602060405180830381865af41580156108b0573d6000803e3d6000fd5b505050506040513d601f19601f820116820180604052508101906108d49190611916565b6108e2576108e286866113ac565b83156108f1576108f184611484565b5060019b9a5050505050505050505050565b60088054610285906118a7565b60008080336001600160a01b03166109306000546001600160a01b031690565b6001600160a01b0316146109565760405162461bcd60e51b8152600401610331906118e1565b83600581111561096557600080fd5b85600581111561097457600080fd5b6000600a54610982600e5490565b60095461098f9190611949565b6109999190611968565b9050866000036109b1576109b1600e80546001019055565b6109bb8882611968565b90506109c78782611980565b90506109d2600e5490565b6109dc90826119ad565b600955600e546109ec90826119c1565b600a819055600954906109fe600e5490565b9550955095505050509250925092565b6000546001600160a01b03163314610a385760405162461bcd60e51b8152600401610331906118e1565b610a4260006114db565b565b60048054610285906118a7565b600080600060095411610a675750600091829150565b5050600954600a549091565b60068054610285906118a7565b60078054610285906118a7565b610b08604051806101e0016040528060008152602001606081526020016060815260200160608152602001606081526020016000815260200160008152602001600081526020016000815260200160008152602001606081526020016000151581526020016060815260200160608152602001600081525090565b6000604051806101e00160405280600154815260200160038054610b2b906118a7565b80601f0160208091040260200160405190810160405280929190818152602001828054610b57906118a7565b8015610ba45780601f10610b7957610100808354040283529160200191610ba4565b820191906000526020600020905b815481529060010190602001808311610b8757829003601f168201915b5050505050815260200160048054610bbb906118a7565b80601f0160208091040260200160405190810160405280929190818152602001828054610be7906118a7565b8015610c345780601f10610c0957610100808354040283529160200191610c34565b820191906000526020600020905b815481529060010190602001808311610c1757829003601f168201915b5050505050815260200160078054610c4b906118a7565b80601f0160208091040260200160405190810160405280929190818152602001828054610c77906118a7565b8015610cc45780601f10610c9957610100808354040283529160200191610cc4565b820191906000526020600020905b815481529060010190602001808311610ca757829003601f168201915b5050505050815260200160088054610cdb906118a7565b80601f0160208091040260200160405190810160405280929190818152602001828054610d07906118a7565b8015610d545780601f10610d2957610100808354040283529160200191610d54565b820191906000526020600020905b815481529060010190602001808311610d3757829003601f168201915b50505050508152602001600b548152602001610d6f600e5490565b81526020016009548152602001600a548152602001848152602001610d92610f84565b8152602001851515815260200185610db95760405180602001604052806000815250610e45565b60068054610dc6906118a7565b80601f0160208091040260200160405190810160405280929190818152602001828054610df2906118a7565b8015610e3f5780601f10610e1457610100808354040283529160200191610e3f565b820191906000526020600020905b815481529060010190602001808311610e2257829003601f168201915b50505050505b8152602001600c8054610e57906118a7565b80601f0160208091040260200160405190810160405280929190818152602001828054610e83906118a7565b8015610ed05780601f10610ea557610100808354040283529160200191610ed0565b820191906000526020600020905b815481529060010190602001808311610eb357829003601f168201915b5050509183525050600d54602090910152949350505050565b6000546001600160a01b03163314610f135760405162461bcd60e51b8152600401610331906118e1565b6001600160a01b038116610f785760405162461bcd60e51b815260206004820152602660248201527f4f776e61626c653a206e6577206f776e657220697320746865207a65726f206160448201526564647265737360d01b6064820152608401610331565b610f81816114db565b50565b6005805460609190610f9890600190611980565b81548110610fa857610fa86119d5565b906000526020600020018054610fbd906118a7565b80601f0160208091040260200160405190810160405280929190818152602001828054610fe9906118a7565b80156110365780601f1061100b57610100808354040283529160200191611036565b820191906000526020600020905b81548152906001019060200180831161101957829003601f168201915b5050505050905090565b60009055565b81818080601f0160208091040260200160405190810160405280939291908181526020018383808284376000920191909152505060405163139a0e4560e11b815273__$77e6ac7bbd1cc9033c410f7c1424e900f9$__92506327341c8a91506110b3908490600401611578565b602060405180830381865af41580156110d0573d6000803e3d6000fd5b505050506040513d601f19601f820116820180604052508101906110f49190611916565b156111115760405162461bcd60e51b8152600401610331906119eb565b600361111e838583611a86565b50505050565b81818080601f0160208091040260200160405190810160405280939291908181526020018383808284376000920191909152505060405163139a0e4560e11b815273__$77e6ac7bbd1cc9033c410f7c1424e900f9$__92506327341c8a9150611191908490600401611578565b602060405180830381865af41580156111ae573d6000803e3d6000fd5b505050506040513d601f19601f820116820180604052508101906111d29190611916565b156111ef5760405162461bcd60e51b8152600401610331906119eb565b600461111e838583611a86565b81818080601f0160208091040260200160405190810160405280939291908181526020018383808284376000920191909152505060405163139a0e4560e11b815273__$77e6ac7bbd1cc9033c410f7c1424e900f9$__92506327341c8a9150611269908490600401611578565b602060405180830381865af4158015611286573d6000803e3d6000fd5b505050506040513d601f19601f820116820180604052508101906112aa9190611916565b156112c75760405162461bcd60e51b8152600401610331906119eb565b600661111e838583611a86565b60405163139a0e4560e11b8152819073__$77e6ac7bbd1cc9033c410f7c1424e900f9$__906327341c8a9061130d908490600401611578565b602060405180830381865af415801561132a573d6000803e3d6000fd5b505050506040513d601f19601f8201168201806040525081019061134e9190611916565b1561136b5760405162461bcd60e51b8152600401610331906119eb565b600580546001810182556000919091527f036b6384b5eca791c62761152d0c79bb0604c104a5fb6f4eb0703f3154bb3db0016113a78382611b47565b505050565b81818080601f0160208091040260200160405190810160405280939291908181526020018383808284376000920191909152505060405163139a0e4560e11b815273__$77e6ac7bbd1cc9033c410f7c1424e900f9$__92506327341c8a9150611419908490600401611578565b602060405180830381865af4158015611436573d6000803e3d6000fd5b505050506040513d601f19601f8201168201806040525081019061145a9190611916565b156114775760405162461bcd60e51b8152600401610331906119eb565b600761111e838583611a86565b80600081116114d55760405162461bcd60e51b815260206004820152601c60248201527f5072696365206d7573742062652067726561746572207468616e2030000000006044820152606401610331565b50600b55565b600080546001600160a01b038381166001600160a01b0319831681178455604051919092169283917f8be0079c531659141344cd1fd0a4f28419497f9722a3daafe3b4186f6b6457e09190a35050565b6000815180845260005b8181101561155157602081850181015186830182015201611535565b81811115611563576000602083870101525b50601f01601f19169290920160200192915050565b60208152600061158b602083018461152b565b9392505050565b60008083601f8401126115a457600080fd5b50813567ffffffffffffffff8111156115bc57600080fd5b6020830191508360208285010111156115d457600080fd5b9250929050565b600080600080600080600080600080600060c08c8e0312156115fc57600080fd5b67ffffffffffffffff808d35111561161357600080fd5b6116208e8e358f01611592565b909c509a5060208d013581101561163657600080fd5b6116468e60208f01358f01611592565b909a50985060408d013581101561165c57600080fd5b61166c8e60408f01358f01611592565b909850965060608d013581101561168257600080fd5b6116928e60608f01358f01611592565b909650945060808d0135935060a08d01358110156116af57600080fd5b506116c08d60a08e01358e01611592565b81935080925050509295989b509295989b9093969950565b600080604083850312156116eb57600080fd5b50508035926020909101359150565b8015158114610f8157600080fd5b6000806040838503121561171b57600080fd5b8235611726816116fa565b946020939093013593505050565b6020815281516020820152600060208301516101e080604085015261175d61020085018361152b565b91506040850151601f198086850301606087015261177b848361152b565b93506060870151915080868503016080870152611798848361152b565b935060808701519150808685030160a08701526117b5848361152b565b935060a087015160c087015260c087015160e087015260e08701519150610100828188015280880151925050610120828188015280880151925050610140828188015280880151925050610160818786030181880152611815858461152b565b94508088015192505061018061182e8188018415159052565b808801519250506101a081878603018188015261184b858461152b565b9450808801519250506101c081878603018188015261186a858461152b565b970151959092019490945250929392505050565b60006020828403121561189057600080fd5b81356001600160a01b038116811461158b57600080fd5b600181811c908216806118bb57607f821691505b6020821081036118db57634e487b7160e01b600052602260045260246000fd5b50919050565b6020808252818101527f4f776e61626c653a2063616c6c6572206973206e6f7420746865206f776e6572604082015260600190565b60006020828403121561192857600080fd5b815161158b816116fa565b634e487b7160e01b600052601160045260246000fd5b600081600019048311821515161561196357611963611933565b500290565b6000821982111561197b5761197b611933565b500190565b60008282101561199257611992611933565b500390565b634e487b7160e01b600052601260045260246000fd5b6000826119bc576119bc611997565b500490565b6000826119d0576119d0611997565b500690565b634e487b7160e01b600052603260045260246000fd5b60208082526018908201527f537472696e67206d757374206e6f7420626520656d7074790000000000000000604082015260600190565b634e487b7160e01b600052604160045260246000fd5b601f8211156113a757600081815260208120601f850160051c81016020861015611a5f5750805b601f850160051c820191505b81811015611a7e57828155600101611a6b565b505050505050565b67ffffffffffffffff831115611a9e57611a9e611a22565b611ab283611aac83546118a7565b83611a38565b6000601f841160018114611ae65760008515611ace5750838201355b600019600387901b1c1916600186901b178355611b40565b600083815260209020601f19861690835b82811015611b175786850135825560209485019460019092019101611af7565b5086821015611b345760001960f88860031b161c19848701351681555b505060018560011b0183555b5050505050565b815167ffffffffffffffff811115611b6157611b61611a22565b611b7581611b6f84546118a7565b84611a38565b602080601f831160018114611baa5760008415611b925750858301515b600019600386901b1c1916600185901b178555611a7e565b600085815260208120601f198616915b82811015611bd957888601518255948401946001909101908401611bba565b5085821015611bf75787850151600019600388901b60f8161c191681555b5050505050600190811b0190555056fea26469706673582212206db81bf584b213eb07c10f34fc0627bf9f24b8378e4b3055cdd9ba6c9ce472a464736f6c634300080f0033537472696e67206d757374206e6f7420626520656d707479000000000000000068747470733a2f2f65787465726e616c2d636f6e74656e742e6475636b6475636b676f2e636f6d2f69752f3f753d6874747073253341253246253246692e70696e696d672e636f6d2532466f726967696e616c7325324632302532463065253246663825324632303065663832623331383266663735626630623264653534393665363163662e6a706726663d31266e6f66623d31",
    "sourcePath": "c:/Users/User/Documents/GitHub/SmartContracts/contracts/Apps/app.sol",
    "compiler": {
        "name": "solc",
        "version": "0.8.15+commit.e14f2714"
    },
    "functionHashes": {
        "company()": "6904c94d",
        "creator()": "02d05d3f",
        "description()": "7284e416",
        "getAppInfo(bool,uint256)": "f22b0127",
        "getAppRating()": "73b8fc80",
        "getCurrentVersion()": "fabec44a",
        "id()": "af640d0f",
        "imgUrl()": "d68387c7",
        "magnetLink()": "a512bd79",
        "name()": "06fdde03",
        "num_purchases()": "34b1a7cc",
        "num_ratings()": "d23fe7c7",
        "owner()": "8da5cb5b",
        "price()": "a035b1fe",
        "rateApp(uint256,uint256)": "70b8fd92",
        "renounceOwnership()": "715018a6",
        "transferOwnership(address)": "f2fde38b",
        "updateApp(string,string,string,string,uint256,string)": "4367d32e"
    },
    "gasEstimates": {
        "creation": {
            "codeDepositCost": "1445800",
            "executionCost": "infinite",
            "totalCost": "infinite"
        },
        "external": {
            "company()": "infinite",
            "creator()": "2350",
            "description()": "infinite",
            "getAppInfo(bool,uint256)": "infinite",
            "getAppRating()": "6681",
            "getCurrentVersion()": "infinite",
            "id()": "2384",
            "imgUrl()": "infinite",
            "magnetLink()": "infinite",
            "name()": "infinite",
            "num_purchases()": "2366",
            "num_ratings()": "2320",
            "owner()": "2343",
            "price()": "2340",
            "rateApp(uint256,uint256)": "infinite",
            "renounceOwnership()": "28181",
            "transferOwnership(address)": "28362",
            "updateApp(string,string,string,string,uint256,string)": "infinite"
        },
        "internal": {
            "updateAppCompany(string calldata)": "infinite",
            "updateAppDescription(string calldata)": "infinite",
            "updateAppFileSha(string calldata)": "infinite",
            "updateAppImgUrl(string calldata)": "infinite",
            "updateAppMagnetLink(string calldata)": "infinite",
            "updateAppName(string calldata)": "infinite",
            "updateAppPrice(uint256)": "infinite",
            "updateAppVersion(string memory)": "infinite"
        }
    }
}