{
    "contractName": "App",
    "abi": [
        {
            "inputs": [
                {
                    "internalType": "uint256",
                    "name": "_id",
                    "type": "uint256"
                },
                {
                    "internalType": "address",
                    "name": "_creator",
                    "type": "address"
                },
                {
                    "internalType": "string",
                    "name": "_name",
                    "type": "string"
                },
                {
                    "internalType": "string",
                    "name": "_description",
                    "type": "string"
                },
                {
                    "internalType": "string",
                    "name": "_magnetLink",
                    "type": "string"
                },
                {
                    "internalType": "string",
                    "name": "_imgUrl",
                    "type": "string"
                },
                {
                    "internalType": "string",
                    "name": "_company",
                    "type": "string"
                },
                {
                    "internalType": "uint256",
                    "name": "_price",
                    "type": "uint256"
                },
                {
                    "internalType": "string",
                    "name": "_category",
                    "type": "string"
                },
                {
                    "internalType": "string",
                    "name": "_fileSha256",
                    "type": "string"
                }
            ],
            "stateMutability": "nonpayable",
            "type": "constructor"
        },
        {
            "anonymous": false,
            "inputs": [
                {
                    "indexed": true,
                    "internalType": "address",
                    "name": "previousOwner",
                    "type": "address"
                },
                {
                    "indexed": true,
                    "internalType": "address",
                    "name": "newOwner",
                    "type": "address"
                }
            ],
            "name": "OwnershipTransferred",
            "type": "event"
        },
        {
            "inputs": [],
            "name": "company",
            "outputs": [
                {
                    "internalType": "string",
                    "name": "",
                    "type": "string"
                }
            ],
            "stateMutability": "view",
            "type": "function"
        },
        {
            "inputs": [],
            "name": "creator",
            "outputs": [
                {
                    "internalType": "address payable",
                    "name": "",
                    "type": "address"
                }
            ],
            "stateMutability": "view",
            "type": "function"
        },
        {
            "inputs": [],
            "name": "description",
            "outputs": [
                {
                    "internalType": "string",
                    "name": "",
                    "type": "string"
                }
            ],
            "stateMutability": "view",
            "type": "function"
        },
        {
            "inputs": [],
            "name": "getAppInfo",
            "outputs": [
                {
                    "components": [
                        {
                            "internalType": "uint256",
                            "name": "id",
                            "type": "uint256"
                        },
                        {
                            "internalType": "string",
                            "name": "name",
                            "type": "string"
                        },
                        {
                            "internalType": "string",
                            "name": "description",
                            "type": "string"
                        },
                        {
                            "internalType": "string",
                            "name": "imgUrl",
                            "type": "string"
                        },
                        {
                            "internalType": "string",
                            "name": "company",
                            "type": "string"
                        },
                        {
                            "internalType": "uint256",
                            "name": "price",
                            "type": "uint256"
                        },
                        {
                            "internalType": "uint256",
                            "name": "numRatings",
                            "type": "uint256"
                        },
                        {
                            "internalType": "uint256",
                            "name": "ratingInt",
                            "type": "uint256"
                        },
                        {
                            "internalType": "uint256",
                            "name": "ratingModulu",
                            "type": "uint256"
                        },
                        {
                            "internalType": "uint256",
                            "name": "userRating",
                            "type": "uint256"
                        },
                        {
                            "internalType": "string",
                            "name": "fileSha256",
                            "type": "string"
                        },
                        {
                            "internalType": "bool",
                            "name": "owned",
                            "type": "bool"
                        },
                        {
                            "internalType": "string",
                            "name": "magnetLink",
                            "type": "string"
                        },
                        {
                            "internalType": "string",
                            "name": "category",
                            "type": "string"
                        },
                        {
                            "internalType": "uint256",
                            "name": "publishTime",
                            "type": "uint256"
                        }
                    ],
                    "internalType": "struct AppInfoLibrary.AppInfo",
                    "name": "",
                    "type": "tuple"
                }
            ],
            "stateMutability": "view",
            "type": "function"
        },
        {
            "inputs": [
                {
                    "internalType": "bool",
                    "name": "owned",
                    "type": "bool"
                },
                {
                    "internalType": "uint256",
                    "name": "user_rating",
                    "type": "uint256"
                }
            ],
            "name": "getAppInfo",
            "outputs": [
                {
                    "components": [
                        {
                            "internalType": "uint256",
                            "name": "id",
                            "type": "uint256"
                        },
                        {
                            "internalType": "string",
                            "name": "name",
                            "type": "string"
                        },
                        {
                            "internalType": "string",
                            "name": "description",
                            "type": "string"
                        },
                        {
                            "internalType": "string",
                            "name": "imgUrl",
                            "type": "string"
                        },
                        {
                            "internalType": "string",
                            "name": "company",
                            "type": "string"
                        },
                        {
                            "internalType": "uint256",
                            "name": "price",
                            "type": "uint256"
                        },
                        {
                            "internalType": "uint256",
                            "name": "numRatings",
                            "type": "uint256"
                        },
                        {
                            "internalType": "uint256",
                            "name": "ratingInt",
                            "type": "uint256"
                        },
                        {
                            "internalType": "uint256",
                            "name": "ratingModulu",
                            "type": "uint256"
                        },
                        {
                            "internalType": "uint256",
                            "name": "userRating",
                            "type": "uint256"
                        },
                        {
                            "internalType": "string",
                            "name": "fileSha256",
                            "type": "string"
                        },
                        {
                            "internalType": "bool",
                            "name": "owned",
                            "type": "bool"
                        },
                        {
                            "internalType": "string",
                            "name": "magnetLink",
                            "type": "string"
                        },
                        {
                            "internalType": "string",
                            "name": "category",
                            "type": "string"
                        },
                        {
                            "internalType": "uint256",
                            "name": "publishTime",
                            "type": "uint256"
                        }
                    ],
                    "internalType": "struct AppInfoLibrary.AppInfo",
                    "name": "",
                    "type": "tuple"
                }
            ],
            "stateMutability": "view",
            "type": "function"
        },
        {
            "inputs": [],
            "name": "getAppRating",
            "outputs": [
                {
                    "internalType": "uint256",
                    "name": "",
                    "type": "uint256"
                },
                {
                    "internalType": "uint256",
                    "name": "",
                    "type": "uint256"
                }
            ],
            "stateMutability": "view",
            "type": "function"
        },
        {
            "inputs": [],
            "name": "getCurrentVersion",
            "outputs": [
                {
                    "internalType": "string",
                    "name": "",
                    "type": "string"
                }
            ],
            "stateMutability": "view",
            "type": "function"
        },
        {
            "inputs": [],
            "name": "id",
            "outputs": [
                {
                    "internalType": "uint256",
                    "name": "",
                    "type": "uint256"
                }
            ],
            "stateMutability": "view",
            "type": "function"
        },
        {
            "inputs": [],
            "name": "imgUrl",
            "outputs": [
                {
                    "internalType": "string",
                    "name": "",
                    "type": "string"
                }
            ],
            "stateMutability": "view",
            "type": "function"
        },
        {
            "inputs": [],
            "name": "magnetLink",
            "outputs": [
                {
                    "internalType": "string",
                    "name": "",
                    "type": "string"
                }
            ],
            "stateMutability": "view",
            "type": "function"
        },
        {
            "inputs": [],
            "name": "name",
            "outputs": [
                {
                    "internalType": "string",
                    "name": "",
                    "type": "string"
                }
            ],
            "stateMutability": "view",
            "type": "function"
        },
        {
            "inputs": [],
            "name": "num_purchases",
            "outputs": [
                {
                    "internalType": "uint256",
                    "name": "_value",
                    "type": "uint256"
                }
            ],
            "stateMutability": "view",
            "type": "function"
        },
        {
            "inputs": [],
            "name": "num_ratings",
            "outputs": [
                {
                    "internalType": "uint256",
                    "name": "_value",
                    "type": "uint256"
                }
            ],
            "stateMutability": "view",
            "type": "function"
        },
        {
            "inputs": [],
            "name": "owner",
            "outputs": [
                {
                    "internalType": "address",
                    "name": "",
                    "type": "address"
                }
            ],
            "stateMutability": "view",
            "type": "function"
        },
        {
            "inputs": [],
            "name": "price",
            "outputs": [
                {
                    "internalType": "uint256",
                    "name": "",
                    "type": "uint256"
                }
            ],
            "stateMutability": "view",
            "type": "function"
        },
        {
            "inputs": [
                {
                    "internalType": "uint256",
                    "name": "new_rating",
                    "type": "uint256"
                },
                {
                    "internalType": "uint256",
                    "name": "old_rating",
                    "type": "uint256"
                }
            ],
            "name": "rateApp",
            "outputs": [
                {
                    "internalType": "uint256",
                    "name": "",
                    "type": "uint256"
                },
                {
                    "internalType": "uint256",
                    "name": "",
                    "type": "uint256"
                },
                {
                    "internalType": "uint256",
                    "name": "",
                    "type": "uint256"
                }
            ],
            "stateMutability": "nonpayable",
            "type": "function"
        },
        {
            "inputs": [],
            "name": "renounceOwnership",
            "outputs": [],
            "stateMutability": "nonpayable",
            "type": "function"
        },
        {
            "inputs": [
                {
                    "internalType": "address",
                    "name": "newOwner",
                    "type": "address"
                }
            ],
            "name": "transferOwnership",
            "outputs": [],
            "stateMutability": "nonpayable",
            "type": "function"
        },
        {
            "inputs": [
                {
                    "internalType": "string",
                    "name": "new_description",
                    "type": "string"
                }
            ],
            "name": "updateAppDescription",
            "outputs": [],
            "stateMutability": "nonpayable",
            "type": "function"
        },
        {
            "inputs": [
                {
                    "internalType": "string",
                    "name": "new_imgUrl",
                    "type": "string"
                }
            ],
            "name": "updateAppImgUrl",
            "outputs": [],
            "stateMutability": "nonpayable",
            "type": "function"
        },
        {
            "inputs": [
                {
                    "internalType": "string",
                    "name": "new_name",
                    "type": "string"
                }
            ],
            "name": "updateAppName",
            "outputs": [],
            "stateMutability": "nonpayable",
            "type": "function"
        },
        {
            "inputs": [
                {
                    "internalType": "uint256",
                    "name": "new_price",
                    "type": "uint256"
                }
            ],
            "name": "updateAppPrice",
            "outputs": [],
            "stateMutability": "nonpayable",
            "type": "function"
        },
        {
            "inputs": [
                {
                    "internalType": "string",
                    "name": "new_sha",
                    "type": "string"
                },
                {
                    "internalType": "string",
                    "name": "new_magnetLink",
                    "type": "string"
                }
            ],
            "name": "updateAppVersion",
            "outputs": [],
            "stateMutability": "nonpayable",
            "type": "function"
        }
    ],
    "bytecode": "60806040523480156200001157600080fd5b5060405162002488380380620024888339810160408190526200003491620006b1565b6200003f3362000564565b896200004f565b60405180910390fd5b8360008111620000a25760405162461bcd60e51b815260206004820152601c60248201527f5072696365206d7573742062652067726561746572207468616e203000000000604482015260640162000046565b60405163139a0e4560e11b81528a9073__$43b582c4148e270e665a68eb9bc2d25dde$__906327341c8a90620000dd9084906004016200080a565b602060405180830381865af4158015620000fb573d6000803e3d6000fd5b505050506040513d601f19601f820116820180604052508101906200012191906200083f565b156200015f5760405162461bcd60e51b81526020600482015260186024820152600080516020620023d3833981519152604482015260640162000046565b60405163139a0e4560e11b8152899073__$43b582c4148e270e665a68eb9bc2d25dde$__906327341c8a906200019a9084906004016200080a565b602060405180830381865af4158015620001b8573d6000803e3d6000fd5b505050506040513d601f19601f82011682018060405250810190620001de91906200083f565b156200021c5760405162461bcd60e51b81526020600482015260186024820152600080516020620023d3833981519152604482015260640162000046565b60405163139a0e4560e11b8152869073__$43b582c4148e270e665a68eb9bc2d25dde$__906327341c8a90620002579084906004016200080a565b602060405180830381865af415801562000275573d6000803e3d6000fd5b505050506040513d601f19601f820116820180604052508101906200029b91906200083f565b15620002d95760405162461bcd60e51b81526020600482015260186024820152600080516020620023d3833981519152604482015260640162000046565b60405163139a0e4560e11b8152869073__$43b582c4148e270e665a68eb9bc2d25dde$__906327341c8a90620003149084906004016200080a565b602060405180830381865af415801562000332573d6000803e3d6000fd5b505050506040513d601f19601f820116820180604052508101906200035891906200083f565b15620003965760405162461bcd60e51b81526020600482015260186024820152600080516020620023d3833981519152604482015260640162000046565b8e600260006101000a8154816001600160a01b0302191690836001600160a01b031602179055508f6001819055508d60039081620003d59190620008f9565b506004620003e48e82620008f9565b506006620003f38d82620008f9565b506007620004028c82620008f9565b5060405163139a0e4560e11b815273__$43b582c4148e270e665a68eb9bc2d25dde$__906327341c8a906200043c908e906004016200080a565b602060405180830381865af41580156200045a573d6000803e3d6000fd5b505050506040513d601f19601f820116820180604052508101906200048091906200083f565b15620004b1576040518060c0016040528060958152602001620023f360959139600790620004af9082620008f9565b505b6008620004bf8b82620008f9565b5060006009819055600a819055600b8a90556005805460018101825591527f036b6384b5eca791c62761152d0c79bb0604c104a5fb6f4eb0703f3154bb3db0016200050b8882620008f9565b5062000523600e620005b460201b620011c31760201c565b6200053a600f620005b460201b620011c31760201c565b600c620005488982620008f9565b505042600d5550620009c59d5050505050505050505050505050565b600080546001600160a01b038381166001600160a01b0319831681178455604051919092169283917f8be0079c531659141344cd1fd0a4f28419497f9722a3daafe3b4186f6b6457e09190a35050565b60009055565b80516001600160a01b0381168114620005d257600080fd5b919050565b634e487b7160e01b600052604160045260246000fd5b60005b838110156200060a578181015183820152602001620005f0565b838111156200061a576000848401525b50505050565b600082601f8301126200063257600080fd5b81516001600160401b03808211156200064f576200064f620005d7565b604051601f8301601f19908116603f011681019082821181831017156200067a576200067a620005d7565b816040528381528660208588010111156200069457600080fd5b620006a7846020830160208901620005ed565b9695505050505050565b6000806000806000806000806000806101408b8d031215620006d257600080fd5b8a519950620006e460208c01620005ba565b60408c01519099506001600160401b03808211156200070257600080fd5b620007108e838f0162000620565b995060608d01519150808211156200072757600080fd5b620007358e838f0162000620565b985060808d01519150808211156200074c57600080fd5b6200075a8e838f0162000620565b975060a08d01519150808211156200077157600080fd5b6200077f8e838f0162000620565b965060c08d01519150808211156200079657600080fd5b620007a48e838f0162000620565b955060e08d015194506101008d0151915080821115620007c357600080fd5b620007d18e838f0162000620565b93506101208d0151915080821115620007e957600080fd5b50620007f88d828e0162000620565b9150509295989b9194979a5092959850565b60208152600082518060208401526200082b816040850160208701620005ed565b601f01601f19169190910160400192915050565b6000602082840312156200085257600080fd5b815180151581146200086357600080fd5b9392505050565b600181811c908216806200087f57607f821691505b602082108103620008a057634e487b7160e01b600052602260045260246000fd5b50919050565b601f821115620008f457600081815260208120601f850160051c81016020861015620008cf5750805b601f850160051c820191505b81811015620008f057828155600101620008db565b5050505b505050565b81516001600160401b03811115620009155762000915620005d7565b6200092d816200092684546200086a565b84620008a6565b602080601f8311600181146200096557600084156200094c5750858301515b600019600386901b1c1916600185901b178555620008f0565b600085815260208120601f198616915b82811015620009965788860151825594840194600190910190840162000975565b5085821015620009b55787850151600019600388901b60f8161c191681555b5050505050600190811b01905550565b6119fe80620009d56000396000f3fe608060405234801561001057600080fd5b506004361061014d5760003560e01c80638da5cb5b116100c3578063e26799ff1161007c578063e26799ff1461028a578063e9cd36d31461029f578063f22b0127146102b2578063f2fde38b146102c5578063fabec44a146102d8578063fafb1b01146102e057600080fd5b80638da5cb5b1461024d578063a035b1fe1461025e578063a512bd7914610267578063af640d0f1461026f578063d23fe7c714610278578063d68387c71461028257600080fd5b806370b8fd921161011557806370b8fd92146101cc578063715018a6146101fa5780637284e4161461020257806373b8fc801461020a5780637ef948ba1461022757806381ecdf451461023a57600080fd5b806302d05d3f1461015257806306fdde031461018257806334b1a7cc146101975780634ad3d57d146101af5780636904c94d146101c4575b600080fd5b600254610165906001600160a01b031681565b6040516001600160a01b0390911681526020015b60405180910390f35b61018a6102f3565b6040516101799190611338565b600f546101a19081565b604051908152602001610179565b6101c26101bd36600461139b565b610381565b005b61018a610468565b6101df6101da3660046113dd565b610475565b60408051938452602084019290925290820152606001610179565b6101c261053a565b61018a61054e565b61021261055b565b60408051928352602083019190915201610179565b6101c2610235366004611415565b61057d565b6101c261024836600461139b565b610731565b6000546001600160a01b0316610165565b6101a1600b5481565b61018a610809565b6101a160015481565b600e546101a19081565b61018a610816565b610292610823565b60405161017991906114f0565b6101c26102ad36600461163a565b610b76565b6102926102c0366004611661565b610bcd565b6101c26102d336600461168d565b610fb6565b61018a61102f565b6101c26102ee36600461139b565b6110eb565b60038054610300906116b6565b80601f016020809104026020016040519081016040528092919081815260200182805461032c906116b6565b80156103795780601f1061034e57610100808354040283529160200191610379565b820191906000526020600020905b81548152906001019060200180831161035c57829003601f168201915b505050505081565b81818080601f0160208091040260200160405190810160405280939291908181526020018383808284376000920191909152505060405163139a0e4560e11b815273__$43b582c4148e270e665a68eb9bc2d25dde$__92506327341c8a91506103ee908490600401611338565b602060405180830381865af415801561040b573d6000803e3d6000fd5b505050506040513d601f19601f8201168201806040525081019061042f91906116f0565b156104555760405162461bcd60e51b815260040161044c9061170d565b60405180910390fd5b600761046283858361178f565b50505050565b60088054610300906116b6565b60008060006104826111c9565b83600581111561049157600080fd5b8560058111156104a057600080fd5b6000600a546104ae600e5490565b6009546104bb9190611866565b6104c59190611885565b9050866000036104dd576104dd600e80546001019055565b6104e78882611885565b90506104f3878261189d565b90506104fe600e5490565b61050890826118ca565b600955600e5461051890826118de565b600a8190556009549061052a600e5490565b9550955095505050509250925092565b6105426111c9565b61054c6000611223565b565b60048054610300906116b6565b6000806000600954116105715750600091829150565b5050600954600a549091565b60405163139a0e4560e11b8152839073__$43b582c4148e270e665a68eb9bc2d25dde$__906327341c8a906105b6908490600401611338565b602060405180830381865af41580156105d3573d6000803e3d6000fd5b505050506040513d601f19601f820116820180604052508101906105f791906116f0565b156106145760405162461bcd60e51b815260040161044c9061170d565b82828080601f0160208091040260200160405190810160405280939291908181526020018383808284376000920191909152505060405163139a0e4560e11b815273__$43b582c4148e270e665a68eb9bc2d25dde$__92506327341c8a9150610681908490600401611338565b602060405180830381865af415801561069e573d6000803e3d6000fd5b505050506040513d601f19601f820116820180604052508101906106c291906116f0565b156106df5760405162461bcd60e51b815260040161044c9061170d565b60066106ec84868361178f565b50600580546001810182556000919091527f036b6384b5eca791c62761152d0c79bb0604c104a5fb6f4eb0703f3154bb3db00161072986826118f2565b505050505050565b81818080601f0160208091040260200160405190810160405280939291908181526020018383808284376000920191909152505060405163139a0e4560e11b815273__$43b582c4148e270e665a68eb9bc2d25dde$__92506327341c8a915061079e908490600401611338565b602060405180830381865af41580156107bb573d6000803e3d6000fd5b505050506040513d601f19601f820116820180604052508101906107df91906116f0565b156107fc5760405162461bcd60e51b815260040161044c9061170d565b600361046283858361178f565b60068054610300906116b6565b60078054610300906116b6565b61082b611273565b6000604051806101e0016040528060015481526020016003805461084e906116b6565b80601f016020809104026020016040519081016040528092919081815260200182805461087a906116b6565b80156108c75780601f1061089c576101008083540402835291602001916108c7565b820191906000526020600020905b8154815290600101906020018083116108aa57829003601f168201915b50505050508152602001600480546108de906116b6565b80601f016020809104026020016040519081016040528092919081815260200182805461090a906116b6565b80156109575780601f1061092c57610100808354040283529160200191610957565b820191906000526020600020905b81548152906001019060200180831161093a57829003601f168201915b505050505081526020016007805461096e906116b6565b80601f016020809104026020016040519081016040528092919081815260200182805461099a906116b6565b80156109e75780601f106109bc576101008083540402835291602001916109e7565b820191906000526020600020905b8154815290600101906020018083116109ca57829003601f168201915b50505050508152602001600880546109fe906116b6565b80601f0160208091040260200160405190810160405280929190818152602001828054610a2a906116b6565b8015610a775780601f10610a4c57610100808354040283529160200191610a77565b820191906000526020600020905b815481529060010190602001808311610a5a57829003601f168201915b50505050508152602001600b548152602001610a92600e5490565b81526020016009548152602001600a54815260200160008152602001610ab661102f565b8152602001600015158152602001604051806020016040528060008152508152602001600c8054610ae6906116b6565b80601f0160208091040260200160405190810160405280929190818152602001828054610b12906116b6565b8015610b5f5780601f10610b3457610100808354040283529160200191610b5f565b820191906000526020600020905b815481529060010190602001808311610b4257829003601f168201915b5050509183525050600d5460209091015292915050565b8060008111610bc75760405162461bcd60e51b815260206004820152601c60248201527f5072696365206d7573742062652067726561746572207468616e203000000000604482015260640161044c565b50600b55565b610bd5611273565b6000604051806101e00160405280600154815260200160038054610bf8906116b6565b80601f0160208091040260200160405190810160405280929190818152602001828054610c24906116b6565b8015610c715780601f10610c4657610100808354040283529160200191610c71565b820191906000526020600020905b815481529060010190602001808311610c5457829003601f168201915b5050505050815260200160048054610c88906116b6565b80601f0160208091040260200160405190810160405280929190818152602001828054610cb4906116b6565b8015610d015780601f10610cd657610100808354040283529160200191610d01565b820191906000526020600020905b815481529060010190602001808311610ce457829003601f168201915b5050505050815260200160078054610d18906116b6565b80601f0160208091040260200160405190810160405280929190818152602001828054610d44906116b6565b8015610d915780601f10610d6657610100808354040283529160200191610d91565b820191906000526020600020905b815481529060010190602001808311610d7457829003601f168201915b5050505050815260200160088054610da8906116b6565b80601f0160208091040260200160405190810160405280929190818152602001828054610dd4906116b6565b8015610e215780601f10610df657610100808354040283529160200191610e21565b820191906000526020600020905b815481529060010190602001808311610e0457829003601f168201915b50505050508152602001600b548152602001610e3c600e5490565b81526020016009548152602001600a548152602001848152602001610e5f61102f565b8152602001851515815260200185610e865760405180602001604052806000815250610f12565b60068054610e93906116b6565b80601f0160208091040260200160405190810160405280929190818152602001828054610ebf906116b6565b8015610f0c5780601f10610ee157610100808354040283529160200191610f0c565b820191906000526020600020905b815481529060010190602001808311610eef57829003601f168201915b50505050505b8152602001600c8054610f24906116b6565b80601f0160208091040260200160405190810160405280929190818152602001828054610f50906116b6565b8015610f9d5780601f10610f7257610100808354040283529160200191610f9d565b820191906000526020600020905b815481529060010190602001808311610f8057829003601f168201915b5050509183525050600d54602090910152949350505050565b610fbe6111c9565b6001600160a01b0381166110235760405162461bcd60e51b815260206004820152602660248201527f4f776e61626c653a206e6577206f776e657220697320746865207a65726f206160448201526564647265737360d01b606482015260840161044c565b61102c81611223565b50565b60058054606091906110439060019061189d565b81548110611053576110536119b2565b906000526020600020018054611068906116b6565b80601f0160208091040260200160405190810160405280929190818152602001828054611094906116b6565b80156110e15780601f106110b6576101008083540402835291602001916110e1565b820191906000526020600020905b8154815290600101906020018083116110c457829003601f168201915b5050505050905090565b81818080601f0160208091040260200160405190810160405280939291908181526020018383808284376000920191909152505060405163139a0e4560e11b815273__$43b582c4148e270e665a68eb9bc2d25dde$__92506327341c8a9150611158908490600401611338565b602060405180830381865af4158015611175573d6000803e3d6000fd5b505050506040513d601f19601f8201168201806040525081019061119991906116f0565b156111b65760405162461bcd60e51b815260040161044c9061170d565b600461046283858361178f565b60009055565b6000546001600160a01b0316331461054c5760405162461bcd60e51b815260206004820181905260248201527f4f776e61626c653a2063616c6c6572206973206e6f7420746865206f776e6572604482015260640161044c565b600080546001600160a01b038381166001600160a01b0319831681178455604051919092169283917f8be0079c531659141344cd1fd0a4f28419497f9722a3daafe3b4186f6b6457e09190a35050565b604051806101e0016040528060008152602001606081526020016060815260200160608152602001606081526020016000815260200160008152602001600081526020016000815260200160008152602001606081526020016000151581526020016060815260200160608152602001600081525090565b6000815180845260005b81811015611311576020818501810151868301820152016112f5565b81811115611323576000602083870101525b50601f01601f19169290920160200192915050565b60208152600061134b60208301846112eb565b9392505050565b60008083601f84011261136457600080fd5b50813567ffffffffffffffff81111561137c57600080fd5b60208301915083602082850101111561139457600080fd5b9250929050565b600080602083850312156113ae57600080fd5b823567ffffffffffffffff8111156113c557600080fd5b6113d185828601611352565b90969095509350505050565b600080604083850312156113f057600080fd5b50508035926020909101359150565b634e487b7160e01b600052604160045260246000fd5b60008060006040848603121561142a57600080fd5b833567ffffffffffffffff8082111561144257600080fd5b818601915086601f83011261145657600080fd5b813581811115611468576114686113ff565b604051601f8201601f19908116603f01168101908382118183101715611490576114906113ff565b816040528281528960208487010111156114a957600080fd5b8260208601602083013760006020848301015280975050505060208601359150808211156114d657600080fd5b506114e386828701611352565b9497909650939450505050565b6020815281516020820152600060208301516101e08060408501526115196102008501836112eb565b91506040850151601f198086850301606087015261153784836112eb565b9350606087015191508086850301608087015261155484836112eb565b935060808701519150808685030160a087015261157184836112eb565b935060a087015160c087015260c087015160e087015260e087015191506101008281880152808801519250506101208281880152808801519250506101408281880152808801519250506101608187860301818801526115d185846112eb565b9450808801519250506101806115ea8188018415159052565b808801519250506101a081878603018188015261160785846112eb565b9450808801519250506101c081878603018188015261162685846112eb565b970151959092019490945250929392505050565b60006020828403121561164c57600080fd5b5035919050565b801515811461102c57600080fd5b6000806040838503121561167457600080fd5b823561167f81611653565b946020939093013593505050565b60006020828403121561169f57600080fd5b81356001600160a01b038116811461134b57600080fd5b600181811c908216806116ca57607f821691505b6020821081036116ea57634e487b7160e01b600052602260045260246000fd5b50919050565b60006020828403121561170257600080fd5b815161134b81611653565b60208082526018908201527f537472696e67206d757374206e6f7420626520656d7074790000000000000000604082015260600190565b601f82111561178a57600081815260208120601f850160051c8101602086101561176b5750805b601f850160051c820191505b8181101561072957828155600101611777565b505050565b67ffffffffffffffff8311156117a7576117a76113ff565b6117bb836117b583546116b6565b83611744565b6000601f8411600181146117ef57600085156117d75750838201355b600019600387901b1c1916600186901b178355611849565b600083815260209020601f19861690835b828110156118205786850135825560209485019460019092019101611800565b508682101561183d5760001960f88860031b161c19848701351681555b505060018560011b0183555b5050505050565b634e487b7160e01b600052601160045260246000fd5b600081600019048311821515161561188057611880611850565b500290565b6000821982111561189857611898611850565b500190565b6000828210156118af576118af611850565b500390565b634e487b7160e01b600052601260045260246000fd5b6000826118d9576118d96118b4565b500490565b6000826118ed576118ed6118b4565b500690565b815167ffffffffffffffff81111561190c5761190c6113ff565b6119208161191a84546116b6565b84611744565b602080601f831160018114611955576000841561193d5750858301515b600019600386901b1c1916600185901b178555610729565b600085815260208120601f198616915b8281101561198457888601518255948401946001909101908401611965565b50858210156119a25787850151600019600388901b60f8161c191681555b5050505050600190811b01905550565b634e487b7160e01b600052603260045260246000fdfea264697066735822122088c84f83dc85891abcdfa5aee870bbe455a3931b7d4dd7e3c3be172039b2eac964736f6c634300080f0033537472696e67206d757374206e6f7420626520656d707479000000000000000068747470733a2f2f65787465726e616c2d636f6e74656e742e6475636b6475636b676f2e636f6d2f69752f3f753d6874747073253341253246253246692e70696e696d672e636f6d2532466f726967696e616c7325324632302532463065253246663825324632303065663832623331383266663735626630623264653534393665363163662e6a706726663d31266e6f66623d31",
    "sourcePath": "c:/Users/User/Documents/GitHub/Backend/SmartContracts/contracts/Apps/App.sol",
    "compiler": {
        "name": "solc",
        "version": "0.8.15+commit.e14f2714"
    },
    "functionHashes": {
        "company()": "6904c94d",
        "creator()": "02d05d3f",
        "description()": "7284e416",
        "getAppInfo()": "e26799ff",
        "getAppInfo(bool,uint256)": "f22b0127",
        "getAppRating()": "73b8fc80",
        "getCurrentVersion()": "fabec44a",
        "id()": "af640d0f",
        "imgUrl()": "d68387c7",
        "magnetLink()": "a512bd79",
        "name()": "06fdde03",
        "num_purchases()": "34b1a7cc",
        "num_ratings()": "d23fe7c7",
        "owner()": "8da5cb5b",
        "price()": "a035b1fe",
        "rateApp(uint256,uint256)": "70b8fd92",
        "renounceOwnership()": "715018a6",
        "transferOwnership(address)": "f2fde38b",
        "updateAppDescription(string)": "fafb1b01",
        "updateAppImgUrl(string)": "4ad3d57d",
        "updateAppName(string)": "81ecdf45",
        "updateAppPrice(uint256)": "e9cd36d3",
        "updateAppVersion(string,string)": "7ef948ba"
    },
    "gasEstimates": {
        "creation": {
            "codeDepositCost": "1330800",
            "executionCost": "infinite",
            "totalCost": "infinite"
        },
        "external": {
            "company()": "infinite",
            "creator()": "2350",
            "description()": "infinite",
            "getAppInfo()": "infinite",
            "getAppInfo(bool,uint256)": "infinite",
            "getAppRating()": "6659",
            "getCurrentVersion()": "infinite",
            "id()": "2384",
            "imgUrl()": "infinite",
            "magnetLink()": "infinite",
            "name()": "infinite",
            "num_purchases()": "2366",
            "num_ratings()": "2409",
            "owner()": "2343",
            "price()": "2340",
            "rateApp(uint256,uint256)": "infinite",
            "renounceOwnership()": "infinite",
            "transferOwnership(address)": "28386",
            "updateAppDescription(string)": "infinite",
            "updateAppImgUrl(string)": "infinite",
            "updateAppName(string)": "infinite",
            "updateAppPrice(uint256)": "22396",
            "updateAppVersion(string,string)": "infinite"
        }
    }
}