{
    "contractName": "AppManager",
    "abi": [
        {
            "inputs": [],
            "stateMutability": "nonpayable",
            "type": "constructor"
        },
        {
            "anonymous": false,
            "inputs": [
                {
                    "indexed": true,
                    "internalType": "uint256",
                    "name": "id",
                    "type": "uint256"
                },
                {
                    "indexed": true,
                    "internalType": "address payable",
                    "name": "creator",
                    "type": "address"
                },
                {
                    "indexed": false,
                    "internalType": "string",
                    "name": "name",
                    "type": "string"
                },
                {
                    "indexed": false,
                    "internalType": "string",
                    "name": "company",
                    "type": "string"
                },
                {
                    "indexed": false,
                    "internalType": "string",
                    "name": "category",
                    "type": "string"
                },
                {
                    "indexed": false,
                    "internalType": "uint256",
                    "name": "price",
                    "type": "uint256"
                },
                {
                    "indexed": false,
                    "internalType": "string",
                    "name": "description",
                    "type": "string"
                }
            ],
            "name": "AppCreated",
            "type": "event"
        },
        {
            "anonymous": false,
            "inputs": [
                {
                    "indexed": true,
                    "internalType": "address",
                    "name": "previousOwner",
                    "type": "address"
                },
                {
                    "indexed": true,
                    "internalType": "address",
                    "name": "newOwner",
                    "type": "address"
                }
            ],
            "name": "OwnershipTransferred",
            "type": "event"
        },
        {
            "anonymous": false,
            "inputs": [
                {
                    "indexed": true,
                    "internalType": "uint256",
                    "name": "app_id",
                    "type": "uint256"
                }
            ],
            "name": "UpdatedApp",
            "type": "event"
        },
        {
            "inputs": [
                {
                    "internalType": "string",
                    "name": "_name",
                    "type": "string"
                },
                {
                    "internalType": "string",
                    "name": "_description",
                    "type": "string"
                },
                {
                    "internalType": "string",
                    "name": "_magnetLink",
                    "type": "string"
                },
                {
                    "internalType": "string",
                    "name": "_imgUrl",
                    "type": "string"
                },
                {
                    "internalType": "string",
                    "name": "_company",
                    "type": "string"
                },
                {
                    "internalType": "uint256",
                    "name": "_price",
                    "type": "uint256"
                },
                {
                    "internalType": "string",
                    "name": "_category",
                    "type": "string"
                },
                {
                    "internalType": "string",
                    "name": "_fileSha256",
                    "type": "string"
                }
            ],
            "name": "createNewApp",
            "outputs": [],
            "stateMutability": "nonpayable",
            "type": "function"
        },
        {
            "inputs": [
                {
                    "internalType": "uint256",
                    "name": "start",
                    "type": "uint256"
                },
                {
                    "internalType": "uint256",
                    "name": "len",
                    "type": "uint256"
                },
                {
                    "internalType": "bool",
                    "name": "owned",
                    "type": "bool"
                }
            ],
            "name": "getAppBatch",
            "outputs": [
                {
                    "components": [
                        {
                            "internalType": "uint256",
                            "name": "id",
                            "type": "uint256"
                        },
                        {
                            "internalType": "string",
                            "name": "name",
                            "type": "string"
                        },
                        {
                            "internalType": "string",
                            "name": "description",
                            "type": "string"
                        },
                        {
                            "internalType": "string",
                            "name": "imgUrl",
                            "type": "string"
                        },
                        {
                            "internalType": "string",
                            "name": "company",
                            "type": "string"
                        },
                        {
                            "internalType": "uint256",
                            "name": "price",
                            "type": "uint256"
                        },
                        {
                            "internalType": "uint256",
                            "name": "numRatings",
                            "type": "uint256"
                        },
                        {
                            "internalType": "uint256",
                            "name": "ratingInt",
                            "type": "uint256"
                        },
                        {
                            "internalType": "uint256",
                            "name": "ratingModulu",
                            "type": "uint256"
                        },
                        {
                            "internalType": "uint256",
                            "name": "userRating",
                            "type": "uint256"
                        },
                        {
                            "internalType": "string",
                            "name": "fileSha256",
                            "type": "string"
                        },
                        {
                            "internalType": "bool",
                            "name": "owned",
                            "type": "bool"
                        },
                        {
                            "internalType": "string",
                            "name": "magnetLink",
                            "type": "string"
                        },
                        {
                            "internalType": "string",
                            "name": "category",
                            "type": "string"
                        },
                        {
                            "internalType": "uint256",
                            "name": "publishTime",
                            "type": "uint256"
                        }
                    ],
                    "internalType": "struct AppInfoLibrary.AppInfo[]",
                    "name": "",
                    "type": "tuple[]"
                }
            ],
            "stateMutability": "view",
            "type": "function"
        },
        {
            "inputs": [],
            "name": "getAppCount",
            "outputs": [
                {
                    "internalType": "uint256",
                    "name": "",
                    "type": "uint256"
                }
            ],
            "stateMutability": "view",
            "type": "function"
        },
        {
            "inputs": [],
            "name": "owner",
            "outputs": [
                {
                    "internalType": "address",
                    "name": "",
                    "type": "address"
                }
            ],
            "stateMutability": "view",
            "type": "function"
        },
        {
            "inputs": [
                {
                    "internalType": "uint256",
                    "name": "_app_id",
                    "type": "uint256"
                },
                {
                    "internalType": "uint256",
                    "name": "new_rating",
                    "type": "uint256"
                },
                {
                    "internalType": "uint256",
                    "name": "old_rating",
                    "type": "uint256"
                }
            ],
            "name": "rateApp",
            "outputs": [],
            "stateMutability": "nonpayable",
            "type": "function"
        },
        {
            "inputs": [],
            "name": "renounceOwnership",
            "outputs": [],
            "stateMutability": "nonpayable",
            "type": "function"
        },
        {
            "inputs": [
                {
                    "internalType": "address",
                    "name": "newOwner",
                    "type": "address"
                }
            ],
            "name": "transferOwnership",
            "outputs": [],
            "stateMutability": "nonpayable",
            "type": "function"
        },
        {
            "inputs": [
                {
                    "internalType": "uint256",
                    "name": "_app_id",
                    "type": "uint256"
                },
                {
                    "internalType": "string",
                    "name": "_name",
                    "type": "string"
                },
                {
                    "internalType": "string",
                    "name": "_description",
                    "type": "string"
                },
                {
                    "internalType": "string",
                    "name": "_magnetLink",
                    "type": "string"
                },
                {
                    "internalType": "string",
                    "name": "_imgUrl",
                    "type": "string"
                },
                {
                    "internalType": "uint256",
                    "name": "_price",
                    "type": "uint256"
                },
                {
                    "internalType": "string",
                    "name": "_fileSha256",
                    "type": "string"
                }
            ],
            "name": "updateApp",
            "outputs": [],
            "stateMutability": "nonpayable",
            "type": "function"
        }
    ],
    "bytecode": "608060405234801561001057600080fd5b5061001a3361001f565b61006f565b600080546001600160a01b038381166001600160a01b0319831681178455604051919092169283917f8be0079c531659141344cd1fd0a4f28419497f9722a3daafe3b4186f6b6457e09190a35050565b613ff08061007e6000396000f3fe60806040523480156200001157600080fd5b5060043610620000935760003560e01c806399614c10116200006257806399614c1014620000f45780639a9d793c146200010b578063b427624b1462000122578063f2fde38b146200014857600080fd5b80632b07ac4c1462000098578063715018a614620000b157806380109fea14620000bb5780638da5cb5b14620000d8575b600080fd5b620000af620000a936600462001134565b6200015f565b005b620000af62000225565b620000c56200023d565b6040519081526020015b60405180910390f35b6000546040516001600160a01b039091168152602001620000cf565b620000af620001053660046200126f565b62000250565b620000af6200011c366004620012e8565b62000335565b62000139620001333660046200142d565b62000ac8565b604051620000cf9190620014ca565b620000af6200015936600462001650565b62000d88565b60006200016d600162000e07565b9050600081338b8b8b8b8b8b8b8b604051620001899062001028565b6200019e9a999897969594939291906200167b565b604051809103906000f080158015620001bb573d6000803e3d6000fd5b509050620001cc6001838362000e1a565b50336001600160a01b0316827f28522faef084eaf14884ca4dfb443eec1792a46a067e8af55ada5cd7e1cd03728c89888a8f6040516200021195949392919062001745565b60405180910390a350505050505050505050565b6200022f62000e3a565b6200023b600062000e96565b565b60006200024b600162000e07565b905090565b60006200025f60018562000ee6565b60405163385c7ec960e11b815260048101859052602481018490529091508190600090819081906001600160a01b038516906370b8fd92906044016060604051808303816000875af1158015620002ba573d6000803e3d6000fd5b505050506040513d601f19601f82011682018060405250810190620002e09190620017ac565b6040805184815260208101849052908101829052929550909350915088907f4686fd5d77ea9a1984201e56edd878f506e82fdb6401d0bf70543d172ef37a739060600160405180910390a25050505050505050565b6200033f62000e3a565b60006200034e60018e62000ee6565b90508b8b8080601f016020809104026020016040519081016040528093929190818152602001838380828437600092019190915250506040516303a2cc9560e51b815273__$43b582c4148e270e665a68eb9bc2d25dde$__9363745992a09350620003be925090600401620017db565b602060405180830381865af4158015620003dc573d6000803e3d6000fd5b505050506040513d601f19601f8201168201806040525081019062000402919062001802565b156200046d576040516381ecdf4560e01b81526001600160a01b038216906381ecdf459062000438908f908f906004016200184b565b600060405180830381600087803b1580156200045357600080fd5b505af115801562000468573d6000803e3d6000fd5b505050505b89898080601f016020809104026020016040519081016040528093929190818152602001838380828437600092019190915250506040516303a2cc9560e51b815273__$43b582c4148e270e665a68eb9bc2d25dde$__9363745992a09350620004db925090600401620017db565b602060405180830381865af4158015620004f9573d6000803e3d6000fd5b505050506040513d601f19601f820116820180604052508101906200051f919062001802565b156200058a5760405163fafb1b0160e01b81526001600160a01b0382169063fafb1b019062000555908d908d906004016200184b565b600060405180830381600087803b1580156200057057600080fd5b505af115801562000585573d6000803e3d6000fd5b505050505b87878080601f016020809104026020016040519081016040528093929190818152602001838380828437600092019190915250506040516303a2cc9560e51b815273__$43b582c4148e270e665a68eb9bc2d25dde$__9363745992a09350620005f8925090600401620017db565b602060405180830381865af415801562000616573d6000803e3d6000fd5b505050506040513d601f19601f820116820180604052508101906200063c919062001802565b80620006f5575082828080601f016020809104026020016040519081016040528093929190818152602001838380828437600092019190915250506040516303a2cc9560e51b815273__$43b582c4148e270e665a68eb9bc2d25dde$__9363745992a09350620006b1925090600401620017db565b602060405180830381865af4158015620006cf573d6000803e3d6000fd5b505050506040513d601f19601f82011682018060405250810190620006f5919062001802565b15620009385787878080601f016020809104026020016040519081016040528093929190818152602001838380828437600092019190915250506040516303a2cc9560e51b815273__$43b582c4148e270e665a68eb9bc2d25dde$__9363745992a0935062000769925090600401620017db565b602060405180830381865af415801562000787573d6000803e3d6000fd5b505050506040513d601f19601f82011682018060405250810190620007ad919062001802565b801562000867575082828080601f016020809104026020016040519081016040528093929190818152602001838380828437600092019190915250506040516303a2cc9560e51b815273__$43b582c4148e270e665a68eb9bc2d25dde$__9363745992a0935062000823925090600401620017db565b602060405180830381865af415801562000841573d6000803e3d6000fd5b505050506040513d601f19601f8201168201806040525081019062000867919062001802565b620008cf5760405162461bcd60e51b815260206004820152602d60248201527f4d7573742070726f7669646520626f7468206d61676e6574206c696e6b20616e60448201526c32103334b6329039b430991a9b60991b60648201526084015b60405180910390fd5b604051633f7ca45d60e11b81526001600160a01b03821690637ef948ba906200090390869086908d908d9060040162001861565b600060405180830381600087803b1580156200091e57600080fd5b505af115801562000933573d6000803e3d6000fd5b505050505b85858080601f016020809104026020016040519081016040528093929190818152602001838380828437600092019190915250506040516303a2cc9560e51b815273__$43b582c4148e270e665a68eb9bc2d25dde$__9363745992a09350620009a6925090600401620017db565b602060405180830381865af4158015620009c4573d6000803e3d6000fd5b505050506040513d601f19601f82011682018060405250810190620009ea919062001802565b1562000a5557604051634ad3d57d60e01b81526001600160a01b03821690634ad3d57d9062000a2090899089906004016200184b565b600060405180830381600087803b15801562000a3b57600080fd5b505af115801562000a50573d6000803e3d6000fd5b505050505b831562000ab95760405163e9cd36d360e01b8152600481018590526001600160a01b0382169063e9cd36d390602401600060405180830381600087803b15801562000a9f57600080fd5b505af115801562000ab4573d6000803e3d6000fd5b505050505b50505050505050505050505050565b606083836000811162000b0f5760405162461bcd60e51b815260206004820152600e60248201526d092dcecc2d8d2c840d8cadccee8d60931b6044820152606401620008c6565b62000b1b600162000e07565b821062000b5b5760405162461bcd60e51b815260206004820152600d60248201526c092dcecc2d8d2c840d2dcc8caf609b1b6044820152606401620008c6565b600062000b69600162000e07565b9050600081871062000b7c578162000b7e565b865b905060008167ffffffffffffffff81111562000b9e5762000b9e62001036565b60405190808252806020026020018201604052801562000c4d57816020015b62000c39604051806101e0016040528060008152602001606081526020016060815260200160608152602001606081526020016000815260200160008152602001600081526020016000815260200160008152602001606081526020016000151581526020016060815260200160608152602001600081525090565b81526020019060019003908162000bbd5790505b50905087821115801562000c615750828211155b62000ca05760405162461bcd60e51b815260206004820152600e60248201526d1b5a5b9a5b5d5b4819985a5b195960921b6044820152606401620008c6565b60005b8281101562000d7b5760008462000cbb838d620018ad565b62000cc79190620018c8565b9050600062000cd860018362000ee6565b9050806001600160a01b031663e26799ff6040518163ffffffff1660e01b8152600401600060405180830381865afa15801562000d19573d6000803e3d6000fd5b505050506040513d6000823e601f3d908101601f1916820160405262000d43919081019062001937565b84848151811062000d585762000d5862001b00565b60200260200101819052505050808062000d729062001b16565b91505062000ca3565b5098975050505050505050565b62000d9262000e3a565b6001600160a01b03811662000df95760405162461bcd60e51b815260206004820152602660248201527f4f776e61626c653a206e6577206f776e657220697320746865207a65726f206160448201526564647265737360d01b6064820152608401620008c6565b62000e048162000e96565b50565b600062000e148262000efb565b92915050565b600062000e3284846001600160a01b03851662000f08565b949350505050565b6000546001600160a01b031633146200023b5760405162461bcd60e51b815260206004820181905260248201527f4f776e61626c653a2063616c6c6572206973206e6f7420746865206f776e65726044820152606401620008c6565b600080546001600160a01b038381166001600160a01b0319831681178455604051919092169283917f8be0079c531659141344cd1fd0a4f28419497f9722a3daafe3b4186f6b6457e09190a35050565b600062000ef4838362000f27565b9392505050565b600062000e148262000f9c565b6000828152600284016020526040812082905562000e32848462000fa7565b60008181526002830160205260408120548015158062000f4e575062000f4e848462000fb5565b62000ef45760405162461bcd60e51b815260206004820152601e60248201527f456e756d657261626c654d61703a206e6f6e6578697374656e74206b657900006044820152606401620008c6565b600062000e14825490565b600062000ef4838362000fd6565b600062000ef483836000818152600183016020526040812054151562000ef4565b60008181526001830160205260408120546200101f5750815460018181018455600084815260208082209093018490558454848252828601909352604090209190915562000e14565b50600062000e14565b6124888062001b3383390190565b634e487b7160e01b600052604160045260246000fd5b6040516101e0810167ffffffffffffffff8111828210171562001073576200107362001036565b60405290565b604051601f8201601f1916810167ffffffffffffffff81118282101715620010a557620010a562001036565b604052919050565b600067ffffffffffffffff821115620010ca57620010ca62001036565b50601f01601f191660200190565b600082601f830112620010ea57600080fd5b813562001101620010fb82620010ad565b62001079565b8181528460208386010111156200111757600080fd5b816020850160208301376000918101602001919091529392505050565b600080600080600080600080610100898b0312156200115257600080fd5b883567ffffffffffffffff808211156200116b57600080fd5b620011798c838d01620010d8565b995060208b01359150808211156200119057600080fd5b6200119e8c838d01620010d8565b985060408b0135915080821115620011b557600080fd5b620011c38c838d01620010d8565b975060608b0135915080821115620011da57600080fd5b620011e88c838d01620010d8565b965060808b0135915080821115620011ff57600080fd5b6200120d8c838d01620010d8565b955060a08b0135945060c08b01359150808211156200122b57600080fd5b620012398c838d01620010d8565b935060e08b01359150808211156200125057600080fd5b506200125f8b828c01620010d8565b9150509295985092959890939650565b6000806000606084860312156200128557600080fd5b505081359360208301359350604090920135919050565b60008083601f840112620012af57600080fd5b50813567ffffffffffffffff811115620012c857600080fd5b602083019150836020828501011115620012e157600080fd5b9250929050565b60008060008060008060008060008060008060e08d8f0312156200130b57600080fd5b8c359b5067ffffffffffffffff60208e013511156200132957600080fd5b6200133b8e60208f01358f016200129c565b909b50995067ffffffffffffffff60408e013511156200135a57600080fd5b6200136c8e60408f01358f016200129c565b909950975067ffffffffffffffff60608e013511156200138b57600080fd5b6200139d8e60608f01358f016200129c565b909750955067ffffffffffffffff60808e01351115620013bc57600080fd5b620013ce8e60808f01358f016200129c565b909550935060a08d0135925067ffffffffffffffff60c08e01351115620013f457600080fd5b620014068e60c08f01358f016200129c565b81935080925050509295989b509295989b509295989b565b801515811462000e0457600080fd5b6000806000606084860312156200144357600080fd5b833592506020840135915060408401356200145e816200141e565b809150509250925092565b60005b83811015620014865781810151838201526020016200146c565b8381111562001496576000848401525b50505050565b60008151808452620014b681602086016020860162001469565b601f01601f19169290920160200192915050565b60006020808301818452808551808352604092508286019150828160051b87010184880160005b838110156200164257603f1989840301855281516101e08151855288820151818a87015262001523828701826200149c565b91505087820151858203898701526200153d82826200149c565b915050606080830151868303828801526200155983826200149c565b92505050608080830151868303828801526200157683826200149c565b60a0858101519089015260c0808601519089015260e080860151908901526101008086015190890152610120808601519089015261014080860151898303828b015291945092509050620015cb83826200149c565b9250505061016080830151620015e48288018215159052565b505061018080830151868303828801526200160083826200149c565b925050506101a080830151868303828801526200161e83826200149c565b6101c0948501519790940196909652505094870194925090860190600101620014f1565b509098975050505050505050565b6000602082840312156200166357600080fd5b81356001600160a01b038116811462000ef457600080fd5b8a81526001600160a01b038a16602082015261014060408201819052600090620016a88382018c6200149c565b90508281036060840152620016be818b6200149c565b90508281036080840152620016d4818a6200149c565b905082810360a0840152620016ea81896200149c565b905082810360c08401526200170081886200149c565b90508560e08401528281036101008401526200171d81866200149c565b90508281036101208401526200173481856200149c565b9d9c50505050505050505050505050565b60a0815260006200175a60a08301886200149c565b82810360208401526200176e81886200149c565b905082810360408401526200178481876200149c565b90508460608401528281036080840152620017a081856200149c565b98975050505050505050565b600080600060608486031215620017c257600080fd5b8351925060208401519150604084015190509250925092565b60208152600062000ef460208301846200149c565b8051620017fd816200141e565b919050565b6000602082840312156200181557600080fd5b815162000ef4816200141e565b81835281816020850137506000828201602090810191909152601f909101601f19169091010190565b60208152600062000e3260208301848662001822565b6040815260006200187760408301868862001822565b82810360208401526200188c81858762001822565b979650505050505050565b634e487b7160e01b600052601160045260246000fd5b60008219821115620018c357620018c362001897565b500190565b600082620018e657634e487b7160e01b600052601260045260246000fd5b500690565b600082601f830112620018fd57600080fd5b81516200190e620010fb82620010ad565b8181528460208386010111156200192457600080fd5b62000e3282602083016020870162001469565b6000602082840312156200194a57600080fd5b815167ffffffffffffffff808211156200196357600080fd5b908301906101e082860312156200197957600080fd5b620019836200104c565b825181526020830151828111156200199a57600080fd5b620019a887828601620018eb565b602083015250604083015182811115620019c157600080fd5b620019cf87828601620018eb565b604083015250606083015182811115620019e857600080fd5b620019f687828601620018eb565b60608301525060808301518281111562001a0f57600080fd5b62001a1d87828601620018eb565b60808301525060a083015160a082015260c083015160c082015260e083015160e0820152610100808401518183015250610120808401518183015250610140808401518381111562001a6e57600080fd5b62001a7c88828701620018eb565b82840152505061016062001a92818501620017f0565b90820152610180838101518381111562001aab57600080fd5b62001ab988828701620018eb565b8284015250506101a0808401518381111562001ad457600080fd5b62001ae288828701620018eb565b91830191909152506101c09283015192810192909252509392505050565b634e487b7160e01b600052603260045260246000fd5b60006001820162001b2b5762001b2b62001897565b506001019056fe60806040523480156200001157600080fd5b5060405162002488380380620024888339810160408190526200003491620006b1565b6200003f3362000564565b896200004f565b60405180910390fd5b8360008111620000a25760405162461bcd60e51b815260206004820152601c60248201527f5072696365206d7573742062652067726561746572207468616e203000000000604482015260640162000046565b60405163139a0e4560e11b81528a9073__$43b582c4148e270e665a68eb9bc2d25dde$__906327341c8a90620000dd9084906004016200080a565b602060405180830381865af4158015620000fb573d6000803e3d6000fd5b505050506040513d601f19601f820116820180604052508101906200012191906200083f565b156200015f5760405162461bcd60e51b81526020600482015260186024820152600080516020620023d3833981519152604482015260640162000046565b60405163139a0e4560e11b8152899073__$43b582c4148e270e665a68eb9bc2d25dde$__906327341c8a906200019a9084906004016200080a565b602060405180830381865af4158015620001b8573d6000803e3d6000fd5b505050506040513d601f19601f82011682018060405250810190620001de91906200083f565b156200021c5760405162461bcd60e51b81526020600482015260186024820152600080516020620023d3833981519152604482015260640162000046565b60405163139a0e4560e11b8152869073__$43b582c4148e270e665a68eb9bc2d25dde$__906327341c8a90620002579084906004016200080a565b602060405180830381865af415801562000275573d6000803e3d6000fd5b505050506040513d601f19601f820116820180604052508101906200029b91906200083f565b15620002d95760405162461bcd60e51b81526020600482015260186024820152600080516020620023d3833981519152604482015260640162000046565b60405163139a0e4560e11b8152869073__$43b582c4148e270e665a68eb9bc2d25dde$__906327341c8a90620003149084906004016200080a565b602060405180830381865af415801562000332573d6000803e3d6000fd5b505050506040513d601f19601f820116820180604052508101906200035891906200083f565b15620003965760405162461bcd60e51b81526020600482015260186024820152600080516020620023d3833981519152604482015260640162000046565b8e600260006101000a8154816001600160a01b0302191690836001600160a01b031602179055508f6001819055508d60039081620003d59190620008f9565b506004620003e48e82620008f9565b506006620003f38d82620008f9565b506007620004028c82620008f9565b5060405163139a0e4560e11b815273__$43b582c4148e270e665a68eb9bc2d25dde$__906327341c8a906200043c908e906004016200080a565b602060405180830381865af41580156200045a573d6000803e3d6000fd5b505050506040513d601f19601f820116820180604052508101906200048091906200083f565b15620004b1576040518060c0016040528060958152602001620023f360959139600790620004af9082620008f9565b505b6008620004bf8b82620008f9565b5060006009819055600a819055600b8a90556005805460018101825591527f036b6384b5eca791c62761152d0c79bb0604c104a5fb6f4eb0703f3154bb3db0016200050b8882620008f9565b5062000523600e620005b460201b620011c31760201c565b6200053a600f620005b460201b620011c31760201c565b600c620005488982620008f9565b505042600d5550620009c59d5050505050505050505050505050565b600080546001600160a01b038381166001600160a01b0319831681178455604051919092169283917f8be0079c531659141344cd1fd0a4f28419497f9722a3daafe3b4186f6b6457e09190a35050565b60009055565b80516001600160a01b0381168114620005d257600080fd5b919050565b634e487b7160e01b600052604160045260246000fd5b60005b838110156200060a578181015183820152602001620005f0565b838111156200061a576000848401525b50505050565b600082601f8301126200063257600080fd5b81516001600160401b03808211156200064f576200064f620005d7565b604051601f8301601f19908116603f011681019082821181831017156200067a576200067a620005d7565b816040528381528660208588010111156200069457600080fd5b620006a7846020830160208901620005ed565b9695505050505050565b6000806000806000806000806000806101408b8d031215620006d257600080fd5b8a519950620006e460208c01620005ba565b60408c01519099506001600160401b03808211156200070257600080fd5b620007108e838f0162000620565b995060608d01519150808211156200072757600080fd5b620007358e838f0162000620565b985060808d01519150808211156200074c57600080fd5b6200075a8e838f0162000620565b975060a08d01519150808211156200077157600080fd5b6200077f8e838f0162000620565b965060c08d01519150808211156200079657600080fd5b620007a48e838f0162000620565b955060e08d015194506101008d0151915080821115620007c357600080fd5b620007d18e838f0162000620565b93506101208d0151915080821115620007e957600080fd5b50620007f88d828e0162000620565b9150509295989b9194979a5092959850565b60208152600082518060208401526200082b816040850160208701620005ed565b601f01601f19169190910160400192915050565b6000602082840312156200085257600080fd5b815180151581146200086357600080fd5b9392505050565b600181811c908216806200087f57607f821691505b602082108103620008a057634e487b7160e01b600052602260045260246000fd5b50919050565b601f821115620008f457600081815260208120601f850160051c81016020861015620008cf5750805b601f850160051c820191505b81811015620008f057828155600101620008db565b5050505b505050565b81516001600160401b03811115620009155762000915620005d7565b6200092d816200092684546200086a565b84620008a6565b602080601f8311600181146200096557600084156200094c5750858301515b600019600386901b1c1916600185901b178555620008f0565b600085815260208120601f198616915b82811015620009965788860151825594840194600190910190840162000975565b5085821015620009b55787850151600019600388901b60f8161c191681555b5050505050600190811b01905550565b6119fe80620009d56000396000f3fe608060405234801561001057600080fd5b506004361061014d5760003560e01c80638da5cb5b116100c3578063e26799ff1161007c578063e26799ff1461028a578063e9cd36d31461029f578063f22b0127146102b2578063f2fde38b146102c5578063fabec44a146102d8578063fafb1b01146102e057600080fd5b80638da5cb5b1461024d578063a035b1fe1461025e578063a512bd7914610267578063af640d0f1461026f578063d23fe7c714610278578063d68387c71461028257600080fd5b806370b8fd921161011557806370b8fd92146101cc578063715018a6146101fa5780637284e4161461020257806373b8fc801461020a5780637ef948ba1461022757806381ecdf451461023a57600080fd5b806302d05d3f1461015257806306fdde031461018257806334b1a7cc146101975780634ad3d57d146101af5780636904c94d146101c4575b600080fd5b600254610165906001600160a01b031681565b6040516001600160a01b0390911681526020015b60405180910390f35b61018a6102f3565b6040516101799190611338565b600f546101a19081565b604051908152602001610179565b6101c26101bd36600461139b565b610381565b005b61018a610468565b6101df6101da3660046113dd565b610475565b60408051938452602084019290925290820152606001610179565b6101c261053a565b61018a61054e565b61021261055b565b60408051928352602083019190915201610179565b6101c2610235366004611415565b61057d565b6101c261024836600461139b565b610731565b6000546001600160a01b0316610165565b6101a1600b5481565b61018a610809565b6101a160015481565b600e546101a19081565b61018a610816565b610292610823565b60405161017991906114f0565b6101c26102ad36600461163a565b610b76565b6102926102c0366004611661565b610bcd565b6101c26102d336600461168d565b610fb6565b61018a61102f565b6101c26102ee36600461139b565b6110eb565b60038054610300906116b6565b80601f016020809104026020016040519081016040528092919081815260200182805461032c906116b6565b80156103795780601f1061034e57610100808354040283529160200191610379565b820191906000526020600020905b81548152906001019060200180831161035c57829003601f168201915b505050505081565b81818080601f0160208091040260200160405190810160405280939291908181526020018383808284376000920191909152505060405163139a0e4560e11b815273__$43b582c4148e270e665a68eb9bc2d25dde$__92506327341c8a91506103ee908490600401611338565b602060405180830381865af415801561040b573d6000803e3d6000fd5b505050506040513d601f19601f8201168201806040525081019061042f91906116f0565b156104555760405162461bcd60e51b815260040161044c9061170d565b60405180910390fd5b600761046283858361178f565b50505050565b60088054610300906116b6565b60008060006104826111c9565b83600581111561049157600080fd5b8560058111156104a057600080fd5b6000600a546104ae600e5490565b6009546104bb9190611866565b6104c59190611885565b9050866000036104dd576104dd600e80546001019055565b6104e78882611885565b90506104f3878261189d565b90506104fe600e5490565b61050890826118ca565b600955600e5461051890826118de565b600a8190556009549061052a600e5490565b9550955095505050509250925092565b6105426111c9565b61054c6000611223565b565b60048054610300906116b6565b6000806000600954116105715750600091829150565b5050600954600a549091565b60405163139a0e4560e11b8152839073__$43b582c4148e270e665a68eb9bc2d25dde$__906327341c8a906105b6908490600401611338565b602060405180830381865af41580156105d3573d6000803e3d6000fd5b505050506040513d601f19601f820116820180604052508101906105f791906116f0565b156106145760405162461bcd60e51b815260040161044c9061170d565b82828080601f0160208091040260200160405190810160405280939291908181526020018383808284376000920191909152505060405163139a0e4560e11b815273__$43b582c4148e270e665a68eb9bc2d25dde$__92506327341c8a9150610681908490600401611338565b602060405180830381865af415801561069e573d6000803e3d6000fd5b505050506040513d601f19601f820116820180604052508101906106c291906116f0565b156106df5760405162461bcd60e51b815260040161044c9061170d565b60066106ec84868361178f565b50600580546001810182556000919091527f036b6384b5eca791c62761152d0c79bb0604c104a5fb6f4eb0703f3154bb3db00161072986826118f2565b505050505050565b81818080601f0160208091040260200160405190810160405280939291908181526020018383808284376000920191909152505060405163139a0e4560e11b815273__$43b582c4148e270e665a68eb9bc2d25dde$__92506327341c8a915061079e908490600401611338565b602060405180830381865af41580156107bb573d6000803e3d6000fd5b505050506040513d601f19601f820116820180604052508101906107df91906116f0565b156107fc5760405162461bcd60e51b815260040161044c9061170d565b600361046283858361178f565b60068054610300906116b6565b60078054610300906116b6565b61082b611273565b6000604051806101e0016040528060015481526020016003805461084e906116b6565b80601f016020809104026020016040519081016040528092919081815260200182805461087a906116b6565b80156108c75780601f1061089c576101008083540402835291602001916108c7565b820191906000526020600020905b8154815290600101906020018083116108aa57829003601f168201915b50505050508152602001600480546108de906116b6565b80601f016020809104026020016040519081016040528092919081815260200182805461090a906116b6565b80156109575780601f1061092c57610100808354040283529160200191610957565b820191906000526020600020905b81548152906001019060200180831161093a57829003601f168201915b505050505081526020016007805461096e906116b6565b80601f016020809104026020016040519081016040528092919081815260200182805461099a906116b6565b80156109e75780601f106109bc576101008083540402835291602001916109e7565b820191906000526020600020905b8154815290600101906020018083116109ca57829003601f168201915b50505050508152602001600880546109fe906116b6565b80601f0160208091040260200160405190810160405280929190818152602001828054610a2a906116b6565b8015610a775780601f10610a4c57610100808354040283529160200191610a77565b820191906000526020600020905b815481529060010190602001808311610a5a57829003601f168201915b50505050508152602001600b548152602001610a92600e5490565b81526020016009548152602001600a54815260200160008152602001610ab661102f565b8152602001600015158152602001604051806020016040528060008152508152602001600c8054610ae6906116b6565b80601f0160208091040260200160405190810160405280929190818152602001828054610b12906116b6565b8015610b5f5780601f10610b3457610100808354040283529160200191610b5f565b820191906000526020600020905b815481529060010190602001808311610b4257829003601f168201915b5050509183525050600d5460209091015292915050565b8060008111610bc75760405162461bcd60e51b815260206004820152601c60248201527f5072696365206d7573742062652067726561746572207468616e203000000000604482015260640161044c565b50600b55565b610bd5611273565b6000604051806101e00160405280600154815260200160038054610bf8906116b6565b80601f0160208091040260200160405190810160405280929190818152602001828054610c24906116b6565b8015610c715780601f10610c4657610100808354040283529160200191610c71565b820191906000526020600020905b815481529060010190602001808311610c5457829003601f168201915b5050505050815260200160048054610c88906116b6565b80601f0160208091040260200160405190810160405280929190818152602001828054610cb4906116b6565b8015610d015780601f10610cd657610100808354040283529160200191610d01565b820191906000526020600020905b815481529060010190602001808311610ce457829003601f168201915b5050505050815260200160078054610d18906116b6565b80601f0160208091040260200160405190810160405280929190818152602001828054610d44906116b6565b8015610d915780601f10610d6657610100808354040283529160200191610d91565b820191906000526020600020905b815481529060010190602001808311610d7457829003601f168201915b5050505050815260200160088054610da8906116b6565b80601f0160208091040260200160405190810160405280929190818152602001828054610dd4906116b6565b8015610e215780601f10610df657610100808354040283529160200191610e21565b820191906000526020600020905b815481529060010190602001808311610e0457829003601f168201915b50505050508152602001600b548152602001610e3c600e5490565b81526020016009548152602001600a548152602001848152602001610e5f61102f565b8152602001851515815260200185610e865760405180602001604052806000815250610f12565b60068054610e93906116b6565b80601f0160208091040260200160405190810160405280929190818152602001828054610ebf906116b6565b8015610f0c5780601f10610ee157610100808354040283529160200191610f0c565b820191906000526020600020905b815481529060010190602001808311610eef57829003601f168201915b50505050505b8152602001600c8054610f24906116b6565b80601f0160208091040260200160405190810160405280929190818152602001828054610f50906116b6565b8015610f9d5780601f10610f7257610100808354040283529160200191610f9d565b820191906000526020600020905b815481529060010190602001808311610f8057829003601f168201915b5050509183525050600d54602090910152949350505050565b610fbe6111c9565b6001600160a01b0381166110235760405162461bcd60e51b815260206004820152602660248201527f4f776e61626c653a206e6577206f776e657220697320746865207a65726f206160448201526564647265737360d01b606482015260840161044c565b61102c81611223565b50565b60058054606091906110439060019061189d565b81548110611053576110536119b2565b906000526020600020018054611068906116b6565b80601f0160208091040260200160405190810160405280929190818152602001828054611094906116b6565b80156110e15780601f106110b6576101008083540402835291602001916110e1565b820191906000526020600020905b8154815290600101906020018083116110c457829003601f168201915b5050505050905090565b81818080601f0160208091040260200160405190810160405280939291908181526020018383808284376000920191909152505060405163139a0e4560e11b815273__$43b582c4148e270e665a68eb9bc2d25dde$__92506327341c8a9150611158908490600401611338565b602060405180830381865af4158015611175573d6000803e3d6000fd5b505050506040513d601f19601f8201168201806040525081019061119991906116f0565b156111b65760405162461bcd60e51b815260040161044c9061170d565b600461046283858361178f565b60009055565b6000546001600160a01b0316331461054c5760405162461bcd60e51b815260206004820181905260248201527f4f776e61626c653a2063616c6c6572206973206e6f7420746865206f776e6572604482015260640161044c565b600080546001600160a01b038381166001600160a01b0319831681178455604051919092169283917f8be0079c531659141344cd1fd0a4f28419497f9722a3daafe3b4186f6b6457e09190a35050565b604051806101e0016040528060008152602001606081526020016060815260200160608152602001606081526020016000815260200160008152602001600081526020016000815260200160008152602001606081526020016000151581526020016060815260200160608152602001600081525090565b6000815180845260005b81811015611311576020818501810151868301820152016112f5565b81811115611323576000602083870101525b50601f01601f19169290920160200192915050565b60208152600061134b60208301846112eb565b9392505050565b60008083601f84011261136457600080fd5b50813567ffffffffffffffff81111561137c57600080fd5b60208301915083602082850101111561139457600080fd5b9250929050565b600080602083850312156113ae57600080fd5b823567ffffffffffffffff8111156113c557600080fd5b6113d185828601611352565b90969095509350505050565b600080604083850312156113f057600080fd5b50508035926020909101359150565b634e487b7160e01b600052604160045260246000fd5b60008060006040848603121561142a57600080fd5b833567ffffffffffffffff8082111561144257600080fd5b818601915086601f83011261145657600080fd5b813581811115611468576114686113ff565b604051601f8201601f19908116603f01168101908382118183101715611490576114906113ff565b816040528281528960208487010111156114a957600080fd5b8260208601602083013760006020848301015280975050505060208601359150808211156114d657600080fd5b506114e386828701611352565b9497909650939450505050565b6020815281516020820152600060208301516101e08060408501526115196102008501836112eb565b91506040850151601f198086850301606087015261153784836112eb565b9350606087015191508086850301608087015261155484836112eb565b935060808701519150808685030160a087015261157184836112eb565b935060a087015160c087015260c087015160e087015260e087015191506101008281880152808801519250506101208281880152808801519250506101408281880152808801519250506101608187860301818801526115d185846112eb565b9450808801519250506101806115ea8188018415159052565b808801519250506101a081878603018188015261160785846112eb565b9450808801519250506101c081878603018188015261162685846112eb565b970151959092019490945250929392505050565b60006020828403121561164c57600080fd5b5035919050565b801515811461102c57600080fd5b6000806040838503121561167457600080fd5b823561167f81611653565b946020939093013593505050565b60006020828403121561169f57600080fd5b81356001600160a01b038116811461134b57600080fd5b600181811c908216806116ca57607f821691505b6020821081036116ea57634e487b7160e01b600052602260045260246000fd5b50919050565b60006020828403121561170257600080fd5b815161134b81611653565b60208082526018908201527f537472696e67206d757374206e6f7420626520656d7074790000000000000000604082015260600190565b601f82111561178a57600081815260208120601f850160051c8101602086101561176b5750805b601f850160051c820191505b8181101561072957828155600101611777565b505050565b67ffffffffffffffff8311156117a7576117a76113ff565b6117bb836117b583546116b6565b83611744565b6000601f8411600181146117ef57600085156117d75750838201355b600019600387901b1c1916600186901b178355611849565b600083815260209020601f19861690835b828110156118205786850135825560209485019460019092019101611800565b508682101561183d5760001960f88860031b161c19848701351681555b505060018560011b0183555b5050505050565b634e487b7160e01b600052601160045260246000fd5b600081600019048311821515161561188057611880611850565b500290565b6000821982111561189857611898611850565b500190565b6000828210156118af576118af611850565b500390565b634e487b7160e01b600052601260045260246000fd5b6000826118d9576118d96118b4565b500490565b6000826118ed576118ed6118b4565b500690565b815167ffffffffffffffff81111561190c5761190c6113ff565b6119208161191a84546116b6565b84611744565b602080601f831160018114611955576000841561193d5750858301515b600019600386901b1c1916600185901b178555610729565b600085815260208120601f198616915b8281101561198457888601518255948401946001909101908401611965565b50858210156119a25787850151600019600388901b60f8161c191681555b5050505050600190811b01905550565b634e487b7160e01b600052603260045260246000fdfea264697066735822122088c84f83dc85891abcdfa5aee870bbe455a3931b7d4dd7e3c3be172039b2eac964736f6c634300080f0033537472696e67206d757374206e6f7420626520656d707479000000000000000068747470733a2f2f65787465726e616c2d636f6e74656e742e6475636b6475636b676f2e636f6d2f69752f3f753d6874747073253341253246253246692e70696e696d672e636f6d2532466f726967696e616c7325324632302532463065253246663825324632303065663832623331383266663735626630623264653534393665363163662e6a706726663d31266e6f66623d31a264697066735822122060ff459395fbfe039e5c85039d8703811a3936f661f9cd49610e4d48954a89c264736f6c634300080f0033",
    "sourcePath": "c:/Users/User/Documents/GitHub/Backend/SmartContracts/contracts/Apps/AppManager.sol",
    "compiler": {
        "name": "solc",
        "version": "0.8.15+commit.e14f2714"
    },
    "functionHashes": {
        "createNewApp(string,string,string,string,string,uint256,string,string)": "2b07ac4c",
        "getAppBatch(uint256,uint256,bool)": "b427624b",
        "getAppCount()": "80109fea",
        "owner()": "8da5cb5b",
        "rateApp(uint256,uint256,uint256)": "99614c10",
        "renounceOwnership()": "715018a6",
        "transferOwnership(address)": "f2fde38b",
        "updateApp(uint256,string,string,string,string,uint256,string)": "9a9d793c"
    },
    "gasEstimates": {
        "creation": {
            "codeDepositCost": "3273600",
            "executionCost": "29476",
            "totalCost": "3303076"
        },
        "external": {
            "createNewApp(string,string,string,string,string,uint256,string,string)": "infinite",
            "getAppBatch(uint256,uint256,bool)": "infinite",
            "getAppCount()": "infinite",
            "owner()": "2368",
            "rateApp(uint256,uint256,uint256)": "infinite",
            "renounceOwnership()": "infinite",
            "transferOwnership(address)": "28364",
            "updateApp(uint256,string,string,string,string,uint256,string)": "infinite"
        }
    }
}