{
    "contractName": "AppManager",
    "abi": [
        {
            "inputs": [],
            "stateMutability": "nonpayable",
            "type": "constructor"
        },
        {
            "anonymous": false,
            "inputs": [
                {
                    "indexed": true,
                    "internalType": "uint256",
                    "name": "id",
                    "type": "uint256"
                },
                {
                    "indexed": true,
                    "internalType": "address payable",
                    "name": "creator",
                    "type": "address"
                },
                {
                    "indexed": false,
                    "internalType": "string",
                    "name": "name",
                    "type": "string"
                },
                {
                    "indexed": false,
                    "internalType": "string",
                    "name": "company",
                    "type": "string"
                },
                {
                    "indexed": false,
                    "internalType": "string",
                    "name": "category",
                    "type": "string"
                },
                {
                    "indexed": false,
                    "internalType": "uint256",
                    "name": "price",
                    "type": "uint256"
                },
                {
                    "indexed": false,
                    "internalType": "string",
                    "name": "description",
                    "type": "string"
                }
            ],
            "name": "AppCreated",
            "type": "event"
        },
        {
            "anonymous": false,
            "inputs": [
                {
                    "indexed": true,
                    "internalType": "address",
                    "name": "previousOwner",
                    "type": "address"
                },
                {
                    "indexed": true,
                    "internalType": "address",
                    "name": "newOwner",
                    "type": "address"
                }
            ],
            "name": "OwnershipTransferred",
            "type": "event"
        },
        {
            "anonymous": false,
            "inputs": [
                {
                    "indexed": true,
                    "internalType": "uint256",
                    "name": "app_id",
                    "type": "uint256"
                }
            ],
            "name": "UpdatedApp",
            "type": "event"
        },
        {
            "inputs": [
                {
                    "internalType": "string",
                    "name": "_name",
                    "type": "string"
                },
                {
                    "internalType": "string",
                    "name": "_description",
                    "type": "string"
                },
                {
                    "internalType": "string",
                    "name": "_magnetLink",
                    "type": "string"
                },
                {
                    "internalType": "string",
                    "name": "_imgUrl",
                    "type": "string"
                },
                {
                    "internalType": "string",
                    "name": "_company",
                    "type": "string"
                },
                {
                    "internalType": "uint256",
                    "name": "_price",
                    "type": "uint256"
                },
                {
                    "internalType": "string",
                    "name": "_category",
                    "type": "string"
                },
                {
                    "internalType": "string",
                    "name": "_fileSha256",
                    "type": "string"
                }
            ],
            "name": "createNewApp",
            "outputs": [],
            "stateMutability": "nonpayable",
            "type": "function"
        },
        {
            "inputs": [
                {
                    "internalType": "uint256",
                    "name": "_app_id",
                    "type": "uint256"
                }
            ],
            "name": "getAppAddress",
            "outputs": [
                {
                    "internalType": "address",
                    "name": "",
                    "type": "address"
                }
            ],
            "stateMutability": "view",
            "type": "function"
        },
        {
            "inputs": [
                {
                    "internalType": "uint256",
                    "name": "start",
                    "type": "uint256"
                },
                {
                    "internalType": "uint256",
                    "name": "len",
                    "type": "uint256"
                }
            ],
            "name": "getAppBatch",
            "outputs": [
                {
                    "components": [
                        {
                            "internalType": "uint256",
                            "name": "id",
                            "type": "uint256"
                        },
                        {
                            "internalType": "string",
                            "name": "name",
                            "type": "string"
                        },
                        {
                            "internalType": "string",
                            "name": "description",
                            "type": "string"
                        },
                        {
                            "internalType": "string",
                            "name": "imgUrl",
                            "type": "string"
                        },
                        {
                            "internalType": "string",
                            "name": "company",
                            "type": "string"
                        },
                        {
                            "internalType": "uint256",
                            "name": "price",
                            "type": "uint256"
                        },
                        {
                            "internalType": "uint256",
                            "name": "numRatings",
                            "type": "uint256"
                        },
                        {
                            "internalType": "uint256",
                            "name": "ratingInt",
                            "type": "uint256"
                        },
                        {
                            "internalType": "uint256",
                            "name": "ratingModulu",
                            "type": "uint256"
                        },
                        {
                            "internalType": "uint256",
                            "name": "userRating",
                            "type": "uint256"
                        },
                        {
                            "internalType": "string",
                            "name": "fileSha256",
                            "type": "string"
                        },
                        {
                            "internalType": "bool",
                            "name": "owned",
                            "type": "bool"
                        },
                        {
                            "internalType": "string",
                            "name": "magnetLink",
                            "type": "string"
                        },
                        {
                            "internalType": "string",
                            "name": "category",
                            "type": "string"
                        },
                        {
                            "internalType": "uint256",
                            "name": "publishTime",
                            "type": "uint256"
                        }
                    ],
                    "internalType": "struct AppInfoLibrary.AppInfo[]",
                    "name": "",
                    "type": "tuple[]"
                }
            ],
            "stateMutability": "view",
            "type": "function"
        },
        {
            "inputs": [],
            "name": "getAppCount",
            "outputs": [
                {
                    "internalType": "uint256",
                    "name": "",
                    "type": "uint256"
                }
            ],
            "stateMutability": "view",
            "type": "function"
        },
        {
            "inputs": [
                {
                    "internalType": "uint256",
                    "name": "_app_id",
                    "type": "uint256"
                }
            ],
            "name": "getAppCreator",
            "outputs": [
                {
                    "internalType": "address",
                    "name": "",
                    "type": "address"
                }
            ],
            "stateMutability": "view",
            "type": "function"
        },
        {
            "inputs": [],
            "name": "owner",
            "outputs": [
                {
                    "internalType": "address",
                    "name": "",
                    "type": "address"
                }
            ],
            "stateMutability": "view",
            "type": "function"
        },
        {
            "inputs": [
                {
                    "internalType": "uint256",
                    "name": "_app_id",
                    "type": "uint256"
                },
                {
                    "internalType": "uint256",
                    "name": "new_rating",
                    "type": "uint256"
                },
                {
                    "internalType": "uint256",
                    "name": "old_rating",
                    "type": "uint256"
                }
            ],
            "name": "rateApp",
            "outputs": [],
            "stateMutability": "nonpayable",
            "type": "function"
        },
        {
            "inputs": [],
            "name": "renounceOwnership",
            "outputs": [],
            "stateMutability": "nonpayable",
            "type": "function"
        },
        {
            "inputs": [
                {
                    "internalType": "address",
                    "name": "newOwner",
                    "type": "address"
                }
            ],
            "name": "transferOwnership",
            "outputs": [],
            "stateMutability": "nonpayable",
            "type": "function"
        },
        {
            "inputs": [
                {
                    "internalType": "uint256",
                    "name": "_app_id",
                    "type": "uint256"
                },
                {
                    "internalType": "string",
                    "name": "_name",
                    "type": "string"
                },
                {
                    "internalType": "string",
                    "name": "_description",
                    "type": "string"
                },
                {
                    "internalType": "string",
                    "name": "_magnetLink",
                    "type": "string"
                },
                {
                    "internalType": "string",
                    "name": "_imgUrl",
                    "type": "string"
                },
                {
                    "internalType": "uint256",
                    "name": "_price",
                    "type": "uint256"
                },
                {
                    "internalType": "string",
                    "name": "_fileSha256",
                    "type": "string"
                }
            ],
            "name": "updateApp",
            "outputs": [],
            "stateMutability": "nonpayable",
            "type": "function"
        }
    ],
    "bytecode": "608060405234801561001057600080fd5b5061001a3361001f565b61006f565b600080546001600160a01b038381166001600160a01b0319831681178455604051919092169283917f8be0079c531659141344cd1fd0a4f28419497f9722a3daafe3b4186f6b6457e09190a35050565b6143c28061007e6000396000f3fe60806040523480156200001157600080fd5b5060043610620000ab5760003560e01c806380109fea116200006e57806380109fea14620001445780638da5cb5b146200015d57806399614c10146200016f5780639a9d793c1462000186578063f2fde38b146200019d57600080fd5b80632b07ac4c14620000b05780634131d82f14620000c957806362182b1414620000fd578063715018a614620001145780637d6a24ab146200011e575b600080fd5b620000c7620000c13660046200146c565b620001b4565b005b620000e0620000da366004620015a7565b62000284565b6040516001600160a01b0390911681526020015b60405180910390f35b620000e06200010e366004620015a7565b6200041f565b620000c762000555565b620001356200012f366004620015c1565b6200056d565b604051620000f4919062001645565b6200014e6200082c565b604051908152602001620000f4565b6000546001600160a01b0316620000e0565b620000c762000180366004620017cb565b6200083f565b620000c76200019736600462001844565b62000924565b620000c7620001ae36600462001990565b620010b3565b620001be62001132565b6000620001cc60016200118e565b9050600081338b8b8b8b8b8b8b8b604051620001e89062001360565b620001fd9a99989796959493929190620019b0565b604051809103906000f0801580156200021a573d6000803e3d6000fd5b5090506200022b60018383620011a1565b50336001600160a01b0316827f28522faef084eaf14884ca4dfb443eec1792a46a067e8af55ada5cd7e1cd03728c89888a8f6040516200027095949392919062001a7a565b60405180910390a350505050505050505050565b60008162000294600182620011c1565b620002d65760405162461bcd60e51b815260206004820152600d60248201526c105c1c081b9bdd08199bdd5b99609a1b60448201526064015b60405180910390fd5b620002e3600182620011cf565b6040516386bd3f9160e01b81526001600160a01b03909116600482015273__$0fa02d6a67b7b0d0756a7e3fbaa86f03ef$__906386bd3f9190602401602060405180830381865af41580156200033d573d6000803e3d6000fd5b505050506040513d601f19601f8201168201806040525081019062000363919062001af7565b15620003a75760405162461bcd60e51b815260206004820152601260248201527141707020646f656e7327742065786973747360701b6044820152606401620002cd565b620003b4600184620011cf565b6001600160a01b03166302d05d3f6040518163ffffffff1660e01b8152600401602060405180830381865afa158015620003f2573d6000803e3d6000fd5b505050506040513d601f19601f8201168201806040525081019062000418919062001b15565b9392505050565b60006200042b62001132565b8162000439600182620011c1565b620004775760405162461bcd60e51b815260206004820152600d60248201526c105c1c081b9bdd08199bdd5b99609a1b6044820152606401620002cd565b62000484600182620011cf565b6040516386bd3f9160e01b81526001600160a01b03909116600482015273__$0fa02d6a67b7b0d0756a7e3fbaa86f03ef$__906386bd3f9190602401602060405180830381865af4158015620004de573d6000803e3d6000fd5b505050506040513d601f19601f8201168201806040525081019062000504919062001af7565b15620005485760405162461bcd60e51b815260206004820152601260248201527141707020646f656e7327742065786973747360701b6044820152606401620002cd565b62000418600184620011cf565b6200055f62001132565b6200056b6000620011dd565b565b6060828260008111620005b45760405162461bcd60e51b815260206004820152600e60248201526d092dcecc2d8d2c840d8cadccee8d60931b6044820152606401620002cd565b620005c060016200118e565b8210620006005760405162461bcd60e51b815260206004820152600d60248201526c092dcecc2d8d2c840d2dcc8caf609b1b6044820152606401620002cd565b60006200060e60016200118e565b9050600081861062000621578162000623565b855b905060008167ffffffffffffffff8111156200064357620006436200136e565b604051908082528060200260200182016040528015620006f257816020015b620006de604051806101e0016040528060008152602001606081526020016060815260200160608152602001606081526020016000815260200160008152602001600081526020016000815260200160008152602001606081526020016000151581526020016060815260200160608152602001600081525090565b815260200190600190039081620006625790505b509050868211158015620007065750828211155b620007455760405162461bcd60e51b815260206004820152600e60248201526d1b5a5b9a5b5d5b4819985a5b195960921b6044820152606401620002cd565b60005b82811015620008205760008462000760838c62001b4b565b6200076c919062001b66565b905060006200077d600183620011cf565b9050806001600160a01b031663e26799ff6040518163ffffffff1660e01b8152600401600060405180830381865afa158015620007be573d6000803e3d6000fd5b505050506040513d6000823e601f3d908101601f19168201604052620007e8919081019062001bd5565b848481518110620007fd57620007fd62001d9e565b602002602001018190525050508080620008179062001db4565b91505062000748565b50979650505050505050565b60006200083a60016200118e565b905090565b60006200084e600185620011cf565b60405163385c7ec960e11b815260048101859052602481018490529091508190600090819081906001600160a01b038516906370b8fd92906044016060604051808303816000875af1158015620008a9573d6000803e3d6000fd5b505050506040513d601f19601f82011682018060405250810190620008cf919062001dd0565b6040805184815260208101849052908101829052929550909350915088907f4686fd5d77ea9a1984201e56edd878f506e82fdb6401d0bf70543d172ef37a739060600160405180910390a25050505050505050565b6200092e62001132565b60006200093d60018e620011cf565b905087878080601f016020809104026020016040519081016040528093929190818152602001838380828437600092019190915250506040516303a2cc9560e51b815273__$43b582c4148e270e665a68eb9bc2d25dde$__9363745992a09350620009ad92509060040162001dff565b602060405180830381865af4158015620009cb573d6000803e3d6000fd5b505050506040513d601f19601f82011682018060405250810190620009f1919062001af7565b8062000aaa575082828080601f016020809104026020016040519081016040528093929190818152602001838380828437600092019190915250506040516303a2cc9560e51b815273__$43b582c4148e270e665a68eb9bc2d25dde$__9363745992a0935062000a6692509060040162001dff565b602060405180830381865af415801562000a84573d6000803e3d6000fd5b505050506040513d601f19601f8201168201806040525081019062000aaa919062001af7565b1562000ce95787878080601f016020809104026020016040519081016040528093929190818152602001838380828437600092019190915250506040516303a2cc9560e51b815273__$43b582c4148e270e665a68eb9bc2d25dde$__9363745992a0935062000b1e92509060040162001dff565b602060405180830381865af415801562000b3c573d6000803e3d6000fd5b505050506040513d601f19601f8201168201806040525081019062000b62919062001af7565b801562000c1c575082828080601f016020809104026020016040519081016040528093929190818152602001838380828437600092019190915250506040516303a2cc9560e51b815273__$43b582c4148e270e665a68eb9bc2d25dde$__9363745992a0935062000bd892509060040162001dff565b602060405180830381865af415801562000bf6573d6000803e3d6000fd5b505050506040513d601f19601f8201168201806040525081019062000c1c919062001af7565b62000c805760405162461bcd60e51b815260206004820152602d60248201527f4d7573742070726f7669646520626f7468206d61676e6574206c696e6b20616e60448201526c32103334b6329039b430991a9b60991b6064820152608401620002cd565b604051633f7ca45d60e11b81526001600160a01b03821690637ef948ba9062000cb490869086908d908d9060040162001e3d565b600060405180830381600087803b15801562000ccf57600080fd5b505af115801562000ce4573d6000803e3d6000fd5b505050505b8b8b8080601f016020809104026020016040519081016040528093929190818152602001838380828437600092019190915250506040516303a2cc9560e51b815273__$43b582c4148e270e665a68eb9bc2d25dde$__9363745992a0935062000d5792509060040162001dff565b602060405180830381865af415801562000d75573d6000803e3d6000fd5b505050506040513d601f19601f8201168201806040525081019062000d9b919062001af7565b1562000e06576040516381ecdf4560e01b81526001600160a01b038216906381ecdf459062000dd1908f908f9060040162001e73565b600060405180830381600087803b15801562000dec57600080fd5b505af115801562000e01573d6000803e3d6000fd5b505050505b89898080601f016020809104026020016040519081016040528093929190818152602001838380828437600092019190915250506040516303a2cc9560e51b815273__$43b582c4148e270e665a68eb9bc2d25dde$__9363745992a0935062000e7492509060040162001dff565b602060405180830381865af415801562000e92573d6000803e3d6000fd5b505050506040513d601f19601f8201168201806040525081019062000eb8919062001af7565b1562000f235760405163fafb1b0160e01b81526001600160a01b0382169063fafb1b019062000eee908d908d9060040162001e73565b600060405180830381600087803b15801562000f0957600080fd5b505af115801562000f1e573d6000803e3d6000fd5b505050505b85858080601f016020809104026020016040519081016040528093929190818152602001838380828437600092019190915250506040516303a2cc9560e51b815273__$43b582c4148e270e665a68eb9bc2d25dde$__9363745992a0935062000f9192509060040162001dff565b602060405180830381865af415801562000faf573d6000803e3d6000fd5b505050506040513d601f19601f8201168201806040525081019062000fd5919062001af7565b156200104057604051634ad3d57d60e01b81526001600160a01b03821690634ad3d57d906200100b908990899060040162001e73565b600060405180830381600087803b1580156200102657600080fd5b505af11580156200103b573d6000803e3d6000fd5b505050505b8315620010a45760405163e9cd36d360e01b8152600481018590526001600160a01b0382169063e9cd36d390602401600060405180830381600087803b1580156200108a57600080fd5b505af11580156200109f573d6000803e3d6000fd5b505050505b50505050505050505050505050565b620010bd62001132565b6001600160a01b038116620011245760405162461bcd60e51b815260206004820152602660248201527f4f776e61626c653a206e6577206f776e657220697320746865207a65726f206160448201526564647265737360d01b6064820152608401620002cd565b6200112f81620011dd565b50565b6000546001600160a01b031633146200056b5760405162461bcd60e51b815260206004820181905260248201527f4f776e61626c653a2063616c6c6572206973206e6f7420746865206f776e65726044820152606401620002cd565b60006200119b826200122d565b92915050565b6000620011b984846001600160a01b0385166200123a565b949350505050565b600062000418838362001259565b600062000418838362001267565b600080546001600160a01b038381166001600160a01b0319831681178455604051919092169283917f8be0079c531659141344cd1fd0a4f28419497f9722a3daafe3b4186f6b6457e09190a35050565b60006200119b82620012dc565b60008281526002840160205260408120829055620011b98484620012e7565b6000620004188383620012f5565b6000818152600283016020526040812054801515806200128e57506200128e848462001259565b620004185760405162461bcd60e51b815260206004820152601e60248201527f456e756d657261626c654d61703a206e6f6e6578697374656e74206b657900006044820152606401620002cd565b60006200119b825490565b60006200041883836200130e565b6000818152600183016020526040812054151562000418565b600081815260018301602052604081205462001357575081546001818101845560008481526020808220909301849055845484825282860190935260409020919091556200119b565b5060006200119b565b6125038062001e8a83390190565b634e487b7160e01b600052604160045260246000fd5b6040516101e0810167ffffffffffffffff81118282101715620013ab57620013ab6200136e565b60405290565b604051601f8201601f1916810167ffffffffffffffff81118282101715620013dd57620013dd6200136e565b604052919050565b600067ffffffffffffffff8211156200140257620014026200136e565b50601f01601f191660200190565b600082601f8301126200142257600080fd5b8135620014396200143382620013e5565b620013b1565b8181528460208386010111156200144f57600080fd5b816020850160208301376000918101602001919091529392505050565b600080600080600080600080610100898b0312156200148a57600080fd5b883567ffffffffffffffff80821115620014a357600080fd5b620014b18c838d0162001410565b995060208b0135915080821115620014c857600080fd5b620014d68c838d0162001410565b985060408b0135915080821115620014ed57600080fd5b620014fb8c838d0162001410565b975060608b01359150808211156200151257600080fd5b620015208c838d0162001410565b965060808b01359150808211156200153757600080fd5b620015458c838d0162001410565b955060a08b0135945060c08b01359150808211156200156357600080fd5b620015718c838d0162001410565b935060e08b01359150808211156200158857600080fd5b50620015978b828c0162001410565b9150509295985092959890939650565b600060208284031215620015ba57600080fd5b5035919050565b60008060408385031215620015d557600080fd5b50508035926020909101359150565b60005b8381101562001601578181015183820152602001620015e7565b8381111562001611576000848401525b50505050565b6000815180845262001631816020860160208601620015e4565b601f01601f19169290920160200192915050565b60006020808301818452808551808352604092508286019150828160051b87010184880160005b83811015620017bd57603f1989840301855281516101e08151855288820151818a8701526200169e8287018262001617565b9150508782015185820389870152620016b8828262001617565b91505060608083015186830382880152620016d4838262001617565b9250505060808083015186830382880152620016f1838262001617565b60a0858101519089015260c0808601519089015260e080860151908901526101008086015190890152610120808601519089015261014080860151898303828b01529194509250905062001746838262001617565b92505050610160808301516200175f8288018215159052565b505061018080830151868303828801526200177b838262001617565b925050506101a0808301518683038288015262001799838262001617565b6101c09485015197909401969096525050948701949250908601906001016200166c565b509098975050505050505050565b600080600060608486031215620017e157600080fd5b505081359360208301359350604090920135919050565b60008083601f8401126200180b57600080fd5b50813567ffffffffffffffff8111156200182457600080fd5b6020830191508360208285010111156200183d57600080fd5b9250929050565b60008060008060008060008060008060008060e08d8f0312156200186757600080fd5b8c359b5067ffffffffffffffff60208e013511156200188557600080fd5b620018978e60208f01358f01620017f8565b909b50995067ffffffffffffffff60408e01351115620018b657600080fd5b620018c88e60408f01358f01620017f8565b909950975067ffffffffffffffff60608e01351115620018e757600080fd5b620018f98e60608f01358f01620017f8565b909750955067ffffffffffffffff60808e013511156200191857600080fd5b6200192a8e60808f01358f01620017f8565b909550935060a08d0135925067ffffffffffffffff60c08e013511156200195057600080fd5b620019628e60c08f01358f01620017f8565b81935080925050509295989b509295989b509295989b565b6001600160a01b03811681146200112f57600080fd5b600060208284031215620019a357600080fd5b813562000418816200197a565b8a81526001600160a01b038a16602082015261014060408201819052600090620019dd8382018c62001617565b90508281036060840152620019f3818b62001617565b9050828103608084015262001a09818a62001617565b905082810360a084015262001a1f818962001617565b905082810360c084015262001a35818862001617565b90508560e084015282810361010084015262001a52818662001617565b905082810361012084015262001a69818562001617565b9d9c50505050505050505050505050565b60a08152600062001a8f60a083018862001617565b828103602084015262001aa3818862001617565b9050828103604084015262001ab9818762001617565b9050846060840152828103608084015262001ad5818562001617565b98975050505050505050565b8051801515811462001af257600080fd5b919050565b60006020828403121562001b0a57600080fd5b620004188262001ae1565b60006020828403121562001b2857600080fd5b815162000418816200197a565b634e487b7160e01b600052601160045260246000fd5b6000821982111562001b615762001b6162001b35565b500190565b60008262001b8457634e487b7160e01b600052601260045260246000fd5b500690565b600082601f83011262001b9b57600080fd5b815162001bac6200143382620013e5565b81815284602083860101111562001bc257600080fd5b620011b9826020830160208701620015e4565b60006020828403121562001be857600080fd5b815167ffffffffffffffff8082111562001c0157600080fd5b908301906101e0828603121562001c1757600080fd5b62001c2162001384565b8251815260208301518281111562001c3857600080fd5b62001c468782860162001b89565b60208301525060408301518281111562001c5f57600080fd5b62001c6d8782860162001b89565b60408301525060608301518281111562001c8657600080fd5b62001c948782860162001b89565b60608301525060808301518281111562001cad57600080fd5b62001cbb8782860162001b89565b60808301525060a083015160a082015260c083015160c082015260e083015160e0820152610100808401518183015250610120808401518183015250610140808401518381111562001d0c57600080fd5b62001d1a8882870162001b89565b82840152505061016062001d3081850162001ae1565b90820152610180838101518381111562001d4957600080fd5b62001d578882870162001b89565b8284015250506101a0808401518381111562001d7257600080fd5b62001d808882870162001b89565b91830191909152506101c09283015192810192909252509392505050565b634e487b7160e01b600052603260045260246000fd5b60006001820162001dc95762001dc962001b35565b5060010190565b60008060006060848603121562001de657600080fd5b8351925060208401519150604084015190509250925092565b60208152600062000418602083018462001617565b81835281816020850137506000828201602090810191909152601f909101601f19169091010190565b60408152600062001e5360408301868862001e14565b828103602084015262001e6881858762001e14565b979650505050505050565b602081526000620011b960208301848662001e1456fe60806040523480156200001157600080fd5b5060405162002503380380620025038339810160408190526200003491620006b1565b6200003f3362000564565b896200004f565b60405180910390fd5b8360008111620000a25760405162461bcd60e51b815260206004820152601c60248201527f5072696365206d7573742062652067726561746572207468616e203000000000604482015260640162000046565b60405163139a0e4560e11b81528a9073__$43b582c4148e270e665a68eb9bc2d25dde$__906327341c8a90620000dd9084906004016200080a565b602060405180830381865af4158015620000fb573d6000803e3d6000fd5b505050506040513d601f19601f820116820180604052508101906200012191906200083f565b156200015f5760405162461bcd60e51b815260206004820152601860248201526000805160206200244e833981519152604482015260640162000046565b60405163139a0e4560e11b8152899073__$43b582c4148e270e665a68eb9bc2d25dde$__906327341c8a906200019a9084906004016200080a565b602060405180830381865af4158015620001b8573d6000803e3d6000fd5b505050506040513d601f19601f82011682018060405250810190620001de91906200083f565b156200021c5760405162461bcd60e51b815260206004820152601860248201526000805160206200244e833981519152604482015260640162000046565b60405163139a0e4560e11b8152869073__$43b582c4148e270e665a68eb9bc2d25dde$__906327341c8a90620002579084906004016200080a565b602060405180830381865af415801562000275573d6000803e3d6000fd5b505050506040513d601f19601f820116820180604052508101906200029b91906200083f565b15620002d95760405162461bcd60e51b815260206004820152601860248201526000805160206200244e833981519152604482015260640162000046565b60405163139a0e4560e11b8152869073__$43b582c4148e270e665a68eb9bc2d25dde$__906327341c8a90620003149084906004016200080a565b602060405180830381865af415801562000332573d6000803e3d6000fd5b505050506040513d601f19601f820116820180604052508101906200035891906200083f565b15620003965760405162461bcd60e51b815260206004820152601860248201526000805160206200244e833981519152604482015260640162000046565b8e600260006101000a8154816001600160a01b0302191690836001600160a01b031602179055508f6001819055508d60039081620003d59190620008f9565b506004620003e48e82620008f9565b506006620003f38d82620008f9565b506007620004028c82620008f9565b5060405163139a0e4560e11b815273__$43b582c4148e270e665a68eb9bc2d25dde$__906327341c8a906200043c908e906004016200080a565b602060405180830381865af41580156200045a573d6000803e3d6000fd5b505050506040513d601f19601f820116820180604052508101906200048091906200083f565b15620004b1576040518060c00160405280609581526020016200246e60959139600790620004af9082620008f9565b505b6008620004bf8b82620008f9565b5060006009819055600a819055600b8a90556005805460018101825591527f036b6384b5eca791c62761152d0c79bb0604c104a5fb6f4eb0703f3154bb3db0016200050b8882620008f9565b5062000523600e620005b460201b6200123e1760201c565b6200053a600f620005b460201b6200123e1760201c565b600c620005488982620008f9565b505042600d5550620009c59d5050505050505050505050505050565b600080546001600160a01b038381166001600160a01b0319831681178455604051919092169283917f8be0079c531659141344cd1fd0a4f28419497f9722a3daafe3b4186f6b6457e09190a35050565b60009055565b80516001600160a01b0381168114620005d257600080fd5b919050565b634e487b7160e01b600052604160045260246000fd5b60005b838110156200060a578181015183820152602001620005f0565b838111156200061a576000848401525b50505050565b600082601f8301126200063257600080fd5b81516001600160401b03808211156200064f576200064f620005d7565b604051601f8301601f19908116603f011681019082821181831017156200067a576200067a620005d7565b816040528381528660208588010111156200069457600080fd5b620006a7846020830160208901620005ed565b9695505050505050565b6000806000806000806000806000806101408b8d031215620006d257600080fd5b8a519950620006e460208c01620005ba565b60408c01519099506001600160401b03808211156200070257600080fd5b620007108e838f0162000620565b995060608d01519150808211156200072757600080fd5b620007358e838f0162000620565b985060808d01519150808211156200074c57600080fd5b6200075a8e838f0162000620565b975060a08d01519150808211156200077157600080fd5b6200077f8e838f0162000620565b965060c08d01519150808211156200079657600080fd5b620007a48e838f0162000620565b955060e08d015194506101008d0151915080821115620007c357600080fd5b620007d18e838f0162000620565b93506101208d0151915080821115620007e957600080fd5b50620007f88d828e0162000620565b9150509295989b9194979a5092959850565b60208152600082518060208401526200082b816040850160208701620005ed565b601f01601f19169190910160400192915050565b6000602082840312156200085257600080fd5b815180151581146200086357600080fd5b9392505050565b600181811c908216806200087f57607f821691505b602082108103620008a057634e487b7160e01b600052602260045260246000fd5b50919050565b601f821115620008f457600081815260208120601f850160051c81016020861015620008cf5750805b601f850160051c820191505b81811015620008f057828155600101620008db565b5050505b505050565b81516001600160401b03811115620009155762000915620005d7565b6200092d816200092684546200086a565b84620008a6565b602080601f8311600181146200096557600084156200094c5750858301515b600019600386901b1c1916600185901b178555620008f0565b600085815260208120601f198616915b82811015620009965788860151825594840194600190910190840162000975565b5085821015620009b55787850151600019600388901b60f8161c191681555b5050505050600190811b01905550565b611a7980620009d56000396000f3fe608060405234801561001057600080fd5b506004361061014d5760003560e01c80638da5cb5b116100c3578063e26799ff1161007c578063e26799ff1461028a578063e9cd36d31461029f578063f22b0127146102b2578063f2fde38b146102c5578063fabec44a146102d8578063fafb1b01146102e057600080fd5b80638da5cb5b1461024d578063a035b1fe1461025e578063a512bd7914610267578063af640d0f1461026f578063d23fe7c714610278578063d68387c71461028257600080fd5b806370b8fd921161011557806370b8fd92146101cc578063715018a6146101fa5780637284e4161461020257806373b8fc801461020a5780637ef948ba1461022757806381ecdf451461023a57600080fd5b806302d05d3f1461015257806306fdde031461018257806334b1a7cc146101975780634ad3d57d146101af5780636904c94d146101c4575b600080fd5b600254610165906001600160a01b031681565b6040516001600160a01b0390911681526020015b60405180910390f35b61018a6102f3565b60405161017991906113b3565b600f546101a19081565b604051908152602001610179565b6101c26101bd366004611416565b610381565b005b61018a610468565b6101df6101da366004611458565b610475565b60408051938452602084019290925290820152606001610179565b6101c261053a565b61018a61054e565b61021261055b565b60408051928352602083019190915201610179565b6101c2610235366004611490565b61057d565b6101c2610248366004611416565b610731565b6000546001600160a01b0316610165565b6101a1600b5481565b61018a610809565b6101a160015481565b600e546101a19081565b61018a610816565b610292610823565b604051610179919061156b565b6101c26102ad3660046116b5565b610bf1565b6102926102c03660046116dc565b610c48565b6101c26102d3366004611708565b611031565b61018a6110aa565b6101c26102ee366004611416565b611166565b6003805461030090611731565b80601f016020809104026020016040519081016040528092919081815260200182805461032c90611731565b80156103795780601f1061034e57610100808354040283529160200191610379565b820191906000526020600020905b81548152906001019060200180831161035c57829003601f168201915b505050505081565b81818080601f0160208091040260200160405190810160405280939291908181526020018383808284376000920191909152505060405163139a0e4560e11b815273__$43b582c4148e270e665a68eb9bc2d25dde$__92506327341c8a91506103ee9084906004016113b3565b602060405180830381865af415801561040b573d6000803e3d6000fd5b505050506040513d601f19601f8201168201806040525081019061042f919061176b565b156104555760405162461bcd60e51b815260040161044c90611788565b60405180910390fd5b600761046283858361180a565b50505050565b6008805461030090611731565b6000806000610482611244565b83600581111561049157600080fd5b8560058111156104a057600080fd5b6000600a546104ae600e5490565b6009546104bb91906118e1565b6104c59190611900565b9050866000036104dd576104dd600e80546001019055565b6104e78882611900565b90506104f38782611918565b90506104fe600e5490565b6105089082611945565b600955600e546105189082611959565b600a8190556009549061052a600e5490565b9550955095505050509250925092565b610542611244565b61054c600061129e565b565b6004805461030090611731565b6000806000600954116105715750600091829150565b5050600954600a549091565b60405163139a0e4560e11b8152839073__$43b582c4148e270e665a68eb9bc2d25dde$__906327341c8a906105b69084906004016113b3565b602060405180830381865af41580156105d3573d6000803e3d6000fd5b505050506040513d601f19601f820116820180604052508101906105f7919061176b565b156106145760405162461bcd60e51b815260040161044c90611788565b82828080601f0160208091040260200160405190810160405280939291908181526020018383808284376000920191909152505060405163139a0e4560e11b815273__$43b582c4148e270e665a68eb9bc2d25dde$__92506327341c8a91506106819084906004016113b3565b602060405180830381865af415801561069e573d6000803e3d6000fd5b505050506040513d601f19601f820116820180604052508101906106c2919061176b565b156106df5760405162461bcd60e51b815260040161044c90611788565b60066106ec84868361180a565b50600580546001810182556000919091527f036b6384b5eca791c62761152d0c79bb0604c104a5fb6f4eb0703f3154bb3db001610729868261196d565b505050505050565b81818080601f0160208091040260200160405190810160405280939291908181526020018383808284376000920191909152505060405163139a0e4560e11b815273__$43b582c4148e270e665a68eb9bc2d25dde$__92506327341c8a915061079e9084906004016113b3565b602060405180830381865af41580156107bb573d6000803e3d6000fd5b505050506040513d601f19601f820116820180604052508101906107df919061176b565b156107fc5760405162461bcd60e51b815260040161044c90611788565b600361046283858361180a565b6006805461030090611731565b6007805461030090611731565b61082b6112ee565b6000604051806101e0016040528060015481526020016003805461084e90611731565b80601f016020809104026020016040519081016040528092919081815260200182805461087a90611731565b80156108c75780601f1061089c576101008083540402835291602001916108c7565b820191906000526020600020905b8154815290600101906020018083116108aa57829003601f168201915b50505050508152602001600480546108de90611731565b80601f016020809104026020016040519081016040528092919081815260200182805461090a90611731565b80156109575780601f1061092c57610100808354040283529160200191610957565b820191906000526020600020905b81548152906001019060200180831161093a57829003601f168201915b505050505081526020016007805461096e90611731565b80601f016020809104026020016040519081016040528092919081815260200182805461099a90611731565b80156109e75780601f106109bc576101008083540402835291602001916109e7565b820191906000526020600020905b8154815290600101906020018083116109ca57829003601f168201915b50505050508152602001600880546109fe90611731565b80601f0160208091040260200160405190810160405280929190818152602001828054610a2a90611731565b8015610a775780601f10610a4c57610100808354040283529160200191610a77565b820191906000526020600020905b815481529060010190602001808311610a5a57829003601f168201915b50505050508152602001600b548152602001610a92600e5490565b81526020016009548152602001600a54815260200160008152602001610ab66110aa565b815260200160011515815260200160068054610ad190611731565b80601f0160208091040260200160405190810160405280929190818152602001828054610afd90611731565b8015610b4a5780601f10610b1f57610100808354040283529160200191610b4a565b820191906000526020600020905b815481529060010190602001808311610b2d57829003601f168201915b50505050508152602001600c8054610b6190611731565b80601f0160208091040260200160405190810160405280929190818152602001828054610b8d90611731565b8015610bda5780601f10610baf57610100808354040283529160200191610bda565b820191906000526020600020905b815481529060010190602001808311610bbd57829003601f168201915b5050509183525050600d5460209091015292915050565b8060008111610c425760405162461bcd60e51b815260206004820152601c60248201527f5072696365206d7573742062652067726561746572207468616e203000000000604482015260640161044c565b50600b55565b610c506112ee565b6000604051806101e00160405280600154815260200160038054610c7390611731565b80601f0160208091040260200160405190810160405280929190818152602001828054610c9f90611731565b8015610cec5780601f10610cc157610100808354040283529160200191610cec565b820191906000526020600020905b815481529060010190602001808311610ccf57829003601f168201915b5050505050815260200160048054610d0390611731565b80601f0160208091040260200160405190810160405280929190818152602001828054610d2f90611731565b8015610d7c5780601f10610d5157610100808354040283529160200191610d7c565b820191906000526020600020905b815481529060010190602001808311610d5f57829003601f168201915b5050505050815260200160078054610d9390611731565b80601f0160208091040260200160405190810160405280929190818152602001828054610dbf90611731565b8015610e0c5780601f10610de157610100808354040283529160200191610e0c565b820191906000526020600020905b815481529060010190602001808311610def57829003601f168201915b5050505050815260200160088054610e2390611731565b80601f0160208091040260200160405190810160405280929190818152602001828054610e4f90611731565b8015610e9c5780601f10610e7157610100808354040283529160200191610e9c565b820191906000526020600020905b815481529060010190602001808311610e7f57829003601f168201915b50505050508152602001600b548152602001610eb7600e5490565b81526020016009548152602001600a548152602001848152602001610eda6110aa565b8152602001851515815260200185610f015760405180602001604052806000815250610f8d565b60068054610f0e90611731565b80601f0160208091040260200160405190810160405280929190818152602001828054610f3a90611731565b8015610f875780601f10610f5c57610100808354040283529160200191610f87565b820191906000526020600020905b815481529060010190602001808311610f6a57829003601f168201915b50505050505b8152602001600c8054610f9f90611731565b80601f0160208091040260200160405190810160405280929190818152602001828054610fcb90611731565b80156110185780601f10610fed57610100808354040283529160200191611018565b820191906000526020600020905b815481529060010190602001808311610ffb57829003601f168201915b5050509183525050600d54602090910152949350505050565b611039611244565b6001600160a01b03811661109e5760405162461bcd60e51b815260206004820152602660248201527f4f776e61626c653a206e6577206f776e657220697320746865207a65726f206160448201526564647265737360d01b606482015260840161044c565b6110a78161129e565b50565b60058054606091906110be90600190611918565b815481106110ce576110ce611a2d565b9060005260206000200180546110e390611731565b80601f016020809104026020016040519081016040528092919081815260200182805461110f90611731565b801561115c5780601f106111315761010080835404028352916020019161115c565b820191906000526020600020905b81548152906001019060200180831161113f57829003601f168201915b5050505050905090565b81818080601f0160208091040260200160405190810160405280939291908181526020018383808284376000920191909152505060405163139a0e4560e11b815273__$43b582c4148e270e665a68eb9bc2d25dde$__92506327341c8a91506111d39084906004016113b3565b602060405180830381865af41580156111f0573d6000803e3d6000fd5b505050506040513d601f19601f82011682018060405250810190611214919061176b565b156112315760405162461bcd60e51b815260040161044c90611788565b600461046283858361180a565b60009055565b6000546001600160a01b0316331461054c5760405162461bcd60e51b815260206004820181905260248201527f4f776e61626c653a2063616c6c6572206973206e6f7420746865206f776e6572604482015260640161044c565b600080546001600160a01b038381166001600160a01b0319831681178455604051919092169283917f8be0079c531659141344cd1fd0a4f28419497f9722a3daafe3b4186f6b6457e09190a35050565b604051806101e0016040528060008152602001606081526020016060815260200160608152602001606081526020016000815260200160008152602001600081526020016000815260200160008152602001606081526020016000151581526020016060815260200160608152602001600081525090565b6000815180845260005b8181101561138c57602081850181015186830182015201611370565b8181111561139e576000602083870101525b50601f01601f19169290920160200192915050565b6020815260006113c66020830184611366565b9392505050565b60008083601f8401126113df57600080fd5b50813567ffffffffffffffff8111156113f757600080fd5b60208301915083602082850101111561140f57600080fd5b9250929050565b6000806020838503121561142957600080fd5b823567ffffffffffffffff81111561144057600080fd5b61144c858286016113cd565b90969095509350505050565b6000806040838503121561146b57600080fd5b50508035926020909101359150565b634e487b7160e01b600052604160045260246000fd5b6000806000604084860312156114a557600080fd5b833567ffffffffffffffff808211156114bd57600080fd5b818601915086601f8301126114d157600080fd5b8135818111156114e3576114e361147a565b604051601f8201601f19908116603f0116810190838211818310171561150b5761150b61147a565b8160405282815289602084870101111561152457600080fd5b82602086016020830137600060208483010152809750505050602086013591508082111561155157600080fd5b5061155e868287016113cd565b9497909650939450505050565b6020815281516020820152600060208301516101e0806040850152611594610200850183611366565b91506040850151601f19808685030160608701526115b28483611366565b935060608701519150808685030160808701526115cf8483611366565b935060808701519150808685030160a08701526115ec8483611366565b935060a087015160c087015260c087015160e087015260e0870151915061010082818801528088015192505061012082818801528088015192505061014082818801528088015192505061016081878603018188015261164c8584611366565b9450808801519250506101806116658188018415159052565b808801519250506101a08187860301818801526116828584611366565b9450808801519250506101c08187860301818801526116a18584611366565b970151959092019490945250929392505050565b6000602082840312156116c757600080fd5b5035919050565b80151581146110a757600080fd5b600080604083850312156116ef57600080fd5b82356116fa816116ce565b946020939093013593505050565b60006020828403121561171a57600080fd5b81356001600160a01b03811681146113c657600080fd5b600181811c9082168061174557607f821691505b60208210810361176557634e487b7160e01b600052602260045260246000fd5b50919050565b60006020828403121561177d57600080fd5b81516113c6816116ce565b60208082526018908201527f537472696e67206d757374206e6f7420626520656d7074790000000000000000604082015260600190565b601f82111561180557600081815260208120601f850160051c810160208610156117e65750805b601f850160051c820191505b81811015610729578281556001016117f2565b505050565b67ffffffffffffffff8311156118225761182261147a565b611836836118308354611731565b836117bf565b6000601f84116001811461186a57600085156118525750838201355b600019600387901b1c1916600186901b1783556118c4565b600083815260209020601f19861690835b8281101561189b578685013582556020948501946001909201910161187b565b50868210156118b85760001960f88860031b161c19848701351681555b505060018560011b0183555b5050505050565b634e487b7160e01b600052601160045260246000fd5b60008160001904831182151516156118fb576118fb6118cb565b500290565b60008219821115611913576119136118cb565b500190565b60008282101561192a5761192a6118cb565b500390565b634e487b7160e01b600052601260045260246000fd5b6000826119545761195461192f565b500490565b6000826119685761196861192f565b500690565b815167ffffffffffffffff8111156119875761198761147a565b61199b816119958454611731565b846117bf565b602080601f8311600181146119d057600084156119b85750858301515b600019600386901b1c1916600185901b178555610729565b600085815260208120601f198616915b828110156119ff578886015182559484019460019091019084016119e0565b5085821015611a1d5787850151600019600388901b60f8161c191681555b5050505050600190811b01905550565b634e487b7160e01b600052603260045260246000fdfea26469706673582212200f9e2f64084f1e04f4ce56f2cd84c5c467535dc57e54d5d664c1a15633c1414f64736f6c634300080f0033537472696e67206d757374206e6f7420626520656d707479000000000000000068747470733a2f2f65787465726e616c2d636f6e74656e742e6475636b6475636b676f2e636f6d2f69752f3f753d6874747073253341253246253246692e70696e696d672e636f6d2532466f726967696e616c7325324632302532463065253246663825324632303065663832623331383266663735626630623264653534393665363163662e6a706726663d31266e6f66623d31a2646970667358221220cde1b9b74b71531a4db0a0833d1d8ae952efb6411090d47568c7610e7d12f98364736f6c634300080f0033",
    "sourcePath": "c:/Users/User/Documents/GitHub/Backend/SmartContracts/contracts/Apps/AppManager.sol",
    "compiler": {
        "name": "solc",
        "version": "0.8.15+commit.e14f2714"
    },
    "functionHashes": {
        "createNewApp(string,string,string,string,string,uint256,string,string)": "2b07ac4c",
        "getAppAddress(uint256)": "62182b14",
        "getAppBatch(uint256,uint256)": "7d6a24ab",
        "getAppCount()": "80109fea",
        "getAppCreator(uint256)": "4131d82f",
        "owner()": "8da5cb5b",
        "rateApp(uint256,uint256,uint256)": "99614c10",
        "renounceOwnership()": "715018a6",
        "transferOwnership(address)": "f2fde38b",
        "updateApp(uint256,string,string,string,string,uint256,string)": "9a9d793c"
    },
    "gasEstimates": {
        "creation": {
            "codeDepositCost": "3469200",
            "executionCost": "29725",
            "totalCost": "3498925"
        },
        "external": {
            "createNewApp(string,string,string,string,string,uint256,string,string)": "infinite",
            "getAppAddress(uint256)": "infinite",
            "getAppBatch(uint256,uint256)": "infinite",
            "getAppCount()": "infinite",
            "getAppCreator(uint256)": "infinite",
            "owner()": "2342",
            "rateApp(uint256,uint256,uint256)": "infinite",
            "renounceOwnership()": "infinite",
            "transferOwnership(address)": "infinite",
            "updateApp(uint256,string,string,string,string,uint256,string)": "infinite"
        }
    }
}