{
    "contractName": "AddressArrayUtils",
    "abi": [
        {
            "inputs": [
                {
                    "internalType": "address[]",
                    "name": "array",
                    "type": "address[]"
                },
                {
                    "internalType": "address",
                    "name": "value",
                    "type": "address"
                }
            ],
            "name": "contains",
            "outputs": [
                {
                    "internalType": "bool",
                    "name": "",
                    "type": "bool"
                }
            ],
            "stateMutability": "pure",
            "type": "function"
        },
        {
            "inputs": [
                {
                    "internalType": "address[]",
                    "name": "array",
                    "type": "address[]"
                },
                {
                    "internalType": "address",
                    "name": "value",
                    "type": "address"
                }
            ],
            "name": "getIndex",
            "outputs": [
                {
                    "internalType": "uint256",
                    "name": "",
                    "type": "uint256"
                }
            ],
            "stateMutability": "pure",
            "type": "function"
        }
    ],
    "bytecode": "61029461003a600b82828239805160001a60731461002d57634e487b7160e01b600052600060045260246000fd5b30600052607381538281f3fe73000000000000000000000000000000000000000030146080604052600436106100405760003560e01c80631c07c87f146100455780633da80d661461006b575b600080fd5b610058610053366004610182565b61008e565b6040519081526020015b60405180910390f35b61007e610079366004610182565b6100ff565b6040519015158152602001610062565b6000805b838110156100f257826001600160a01b03168585838181106100b6576100b6610206565b90506020020160208101906100cb919061021c565b6001600160a01b0316036100e05790506100f8565b806100ea81610237565b915050610092565b50600090505b9392505050565b6000805b838110156100f257826001600160a01b031685858381811061012757610127610206565b905060200201602081019061013c919061021c565b6001600160a01b0316036101545760019150506100f8565b8061015e81610237565b915050610103565b80356001600160a01b038116811461017d57600080fd5b919050565b60008060006040848603121561019757600080fd5b833567ffffffffffffffff808211156101af57600080fd5b818601915086601f8301126101c357600080fd5b8135818111156101d257600080fd5b8760208260051b85010111156101e757600080fd5b6020928301955093506101fd9186019050610166565b90509250925092565b634e487b7160e01b600052603260045260246000fd5b60006020828403121561022e57600080fd5b6100f882610166565b60006001820161025757634e487b7160e01b600052601160045260246000fd5b506001019056fea26469706673582212202ff110c4bd6b114bd339a6d3fc264e9d3d6d80da28b8afe187c2d4f691676a1564736f6c634300080f0033",
    "sourcePath": "c:/Users/User/Documents/GitHub/Backend/SmartContracts/contracts/Utils/ArrayUtils.sol",
    "compiler": {
        "name": "solc",
        "version": "0.8.15+commit.e14f2714"
    },
    "functionHashes": {
        "contains(address[],address)": "3da80d66",
        "getIndex(address[],address)": "1c07c87f"
    },
    "gasEstimates": {
        "creation": {
            "codeDepositCost": "132000",
            "executionCost": "208",
            "totalCost": "132208"
        },
        "external": {
            "contains(address[],address)": "infinite",
            "getIndex(address[],address)": "infinite"
        }
    }
}