{
    "contractName": "StringUtils",
    "abi": [
        {
            "inputs": [
                {
                    "internalType": "string",
                    "name": "s1",
                    "type": "string"
                },
                {
                    "internalType": "string",
                    "name": "s2",
                    "type": "string"
                }
            ],
            "name": "append",
            "outputs": [
                {
                    "internalType": "string",
                    "name": "",
                    "type": "string"
                }
            ],
            "stateMutability": "pure",
            "type": "function"
        },
        {
            "inputs": [
                {
                    "internalType": "string",
                    "name": "var_value",
                    "type": "string"
                },
                {
                    "internalType": "string",
                    "name": "var_name",
                    "type": "string"
                }
            ],
            "name": "getVariableMessage",
            "outputs": [
                {
                    "internalType": "string",
                    "name": "",
                    "type": "string"
                }
            ],
            "stateMutability": "pure",
            "type": "function"
        },
        {
            "inputs": [
                {
                    "internalType": "string",
                    "name": "_string",
                    "type": "string"
                }
            ],
            "name": "isEmpty",
            "outputs": [
                {
                    "internalType": "bool",
                    "name": "",
                    "type": "bool"
                }
            ],
            "stateMutability": "pure",
            "type": "function"
        },
        {
            "inputs": [
                {
                    "internalType": "string",
                    "name": "s1",
                    "type": "string"
                },
                {
                    "internalType": "string",
                    "name": "s2",
                    "type": "string"
                }
            ],
            "name": "isEqual",
            "outputs": [
                {
                    "internalType": "bool",
                    "name": "",
                    "type": "bool"
                }
            ],
            "stateMutability": "pure",
            "type": "function"
        },
        {
            "inputs": [
                {
                    "internalType": "string",
                    "name": "_string",
                    "type": "string"
                }
            ],
            "name": "isNotEmpty",
            "outputs": [
                {
                    "internalType": "bool",
                    "name": "",
                    "type": "bool"
                }
            ],
            "stateMutability": "pure",
            "type": "function"
        },
        {
            "inputs": [
                {
                    "internalType": "string",
                    "name": "_str",
                    "type": "string"
                }
            ],
            "name": "len",
            "outputs": [
                {
                    "internalType": "uint256",
                    "name": "",
                    "type": "uint256"
                }
            ],
            "stateMutability": "pure",
            "type": "function"
        },
        {
            "inputs": [
                {
                    "internalType": "string",
                    "name": "s1",
                    "type": "string"
                },
                {
                    "internalType": "string",
                    "name": "s2",
                    "type": "string"
                }
            ],
            "name": "prepend",
            "outputs": [
                {
                    "internalType": "string",
                    "name": "",
                    "type": "string"
                }
            ],
            "stateMutability": "pure",
            "type": "function"
        }
    ],
    "bytecode": "61052b61003a600b82828239805160001a60731461002d57634e487b7160e01b600052600060045260246000fd5b30600052607381538281f3fe73000000000000000000000000000000000000000030146080604052600436106100875760003560e01c8063591c515f11610065578063591c515f146100e8578063605b5c5f14610108578063734815021461011b578063745992a01461012e57600080fd5b8063026294a71461008c57806327341c8a146100b2578063465c4105146100d5575b600080fd5b61009f61009a366004610261565b919050565b6040519081526020015b60405180910390f35b6100c56100c0366004610346565b511590565b60405190151581526020016100a9565b6100c56100e3366004610383565b610142565b6100fb6100f63660046103ef565b6101a1565b6040516100a99190610483565b6100fb6101163660046103ef565b6101cd565b6100fb6101293660046103ef565b6101e2565b6100c561013c366004610346565b51151590565b600082826040516020016101579291906104b6565b6040516020818303038152906040528051906020012085856040516020016101809291906104b6565b60405160208183030381529060405280519060200120149050949350505050565b606082826040516020016101b69291906104c6565b604051602081830303815290604052905092915050565b606081836040516020016101b69291906104c6565b606061021161020b836040518060400160405280600281526020016101d160f51b8152506101a1565b846101a1565b9392505050565b60008083601f84011261022a57600080fd5b50813567ffffffffffffffff81111561024257600080fd5b60208301915083602082850101111561025a57600080fd5b9250929050565b6000806020838503121561027457600080fd5b823567ffffffffffffffff81111561028b57600080fd5b61029785828601610218565b90969095509350505050565b634e487b7160e01b600052604160045260246000fd5b600082601f8301126102ca57600080fd5b813567ffffffffffffffff808211156102e5576102e56102a3565b604051601f8301601f19908116603f0116810190828211818310171561030d5761030d6102a3565b8160405283815286602085880101111561032657600080fd5b836020870160208301376000602085830101528094505050505092915050565b60006020828403121561035857600080fd5b813567ffffffffffffffff81111561036f57600080fd5b61037b848285016102b9565b949350505050565b6000806000806040858703121561039957600080fd5b843567ffffffffffffffff808211156103b157600080fd5b6103bd88838901610218565b909650945060208701359150808211156103d657600080fd5b506103e387828801610218565b95989497509550505050565b6000806040838503121561040257600080fd5b823567ffffffffffffffff8082111561041a57600080fd5b610426868387016102b9565b9350602085013591508082111561043c57600080fd5b50610449858286016102b9565b9150509250929050565b60005b8381101561046e578181015183820152602001610456565b8381111561047d576000848401525b50505050565b60208152600082518060208401526104a2816040850160208701610453565b601f01601f19169190910160400192915050565b8183823760009101908152919050565b600083516104d8818460208801610453565b8351908301906104ec818360208801610453565b0194935050505056fea26469706673582212200f8d57f562e2f2cfc504caaff6d83af83dfdbc675f85f598272f011141e9d71364736f6c634300080f0033",
    "sourcePath": "c:/Users/User/Documents/GitHub/Backend/SmartContracts/contracts/Utils/StringUtils.sol",
    "compiler": {
        "name": "solc",
        "version": "0.8.15+commit.e14f2714"
    },
    "functionHashes": {
        "append(string,string)": "591c515f",
        "getVariableMessage(string,string)": "73481502",
        "isEmpty(string)": "27341c8a",
        "isEqual(string,string)": "465c4105",
        "isNotEmpty(string)": "745992a0",
        "len(string)": "026294a7",
        "prepend(string,string)": "605b5c5f"
    },
    "gasEstimates": {
        "creation": {
            "codeDepositCost": "264600",
            "executionCost": "337",
            "totalCost": "264937"
        },
        "external": {
            "append(string,string)": "infinite",
            "getVariableMessage(string,string)": "infinite",
            "isEmpty(string)": "infinite",
            "isEqual(string,string)": "infinite",
            "isNotEmpty(string)": "infinite",
            "len(string)": "465",
            "prepend(string,string)": "infinite"
        }
    }
}