{
    "contractName": "Verify",
    "abi": [
        {
            "anonymous": false,
            "inputs": [
                {
                    "indexed": true,
                    "internalType": "address",
                    "name": "previousOwner",
                    "type": "address"
                },
                {
                    "indexed": true,
                    "internalType": "address",
                    "name": "newOwner",
                    "type": "address"
                }
            ],
            "name": "OwnershipTransferred",
            "type": "event"
        },
        {
            "inputs": [],
            "name": "owner",
            "outputs": [
                {
                    "internalType": "address",
                    "name": "",
                    "type": "address"
                }
            ],
            "stateMutability": "view",
            "type": "function"
        },
        {
            "inputs": [],
            "name": "renounceOwnership",
            "outputs": [],
            "stateMutability": "nonpayable",
            "type": "function"
        },
        {
            "inputs": [
                {
                    "internalType": "address",
                    "name": "newOwner",
                    "type": "address"
                }
            ],
            "name": "transferOwnership",
            "outputs": [],
            "stateMutability": "nonpayable",
            "type": "function"
        },
        {
            "inputs": [
                {
                    "internalType": "string",
                    "name": "message",
                    "type": "string"
                },
                {
                    "internalType": "string",
                    "name": "sig",
                    "type": "string"
                }
            ],
            "name": "verifySignature",
            "outputs": [
                {
                    "internalType": "bool",
                    "name": "",
                    "type": "bool"
                }
            ],
            "stateMutability": "view",
            "type": "function"
        }
    ],
    "bytecode": "608060405234801561001057600080fd5b5061001a3361001f565b61006f565b600080546001600160a01b038381166001600160a01b0319831681178455604051919092169283917f8be0079c531659141344cd1fd0a4f28419497f9722a3daafe3b4186f6b6457e09190a35050565b6105cb8061007e6000396000f3fe608060405234801561001057600080fd5b506004361061004c5760003560e01c8063715018a61461005157806381cd080f1461005b5780638da5cb5b14610083578063f2fde38b1461009e575b600080fd5b6100596100b1565b005b61006e61006936600461040e565b6100c5565b60405190151581526020015b60405180910390f35b6000546040516001600160a01b03909116815260200161007a565b6100596100ac3660046104e9565b610179565b6100b96101f2565b6100c3600061024c565b565b6000806100d385600061029c565b905060006101178286868080601f01602080910402602001604051908101604052809392919081815260200183838082843760009201919091525061030192505050565b90506001600160a01b038116331461016d5760405162461bcd60e51b815260206004820152601460248201527339b2b73232b91034b9903737ba1039b4b3b732b960611b60448201526064015b60405180910390fd5b50600195945050505050565b6101816101f2565b6001600160a01b0381166101e65760405162461bcd60e51b815260206004820152602660248201527f4f776e61626c653a206e6577206f776e657220697320746865207a65726f206160448201526564647265737360d01b6064820152608401610164565b6101ef8161024c565b50565b6000546001600160a01b031633146100c35760405162461bcd60e51b815260206004820181905260248201527f4f776e61626c653a2063616c6c6572206973206e6f7420746865206f776e65726044820152606401610164565b600080546001600160a01b038381166001600160a01b0319831681178455604051919092169283917f8be0079c531659141344cd1fd0a4f28419497f9722a3daafe3b4186f6b6457e09190a35050565b60008060005b60208110156102f9576102b681600861052f565b856102c1838761054e565b815181106102d1576102d1610566565b01602001516001600160f81b031916901c9190911790806102f18161057c565b9150506102a2565b509392505050565b60008060008061031085610380565b6040805160008152602081018083528b905260ff8516918101919091526060810183905260808101829052929550909350915060019060a0016020604051602081039080840390855afa15801561036b573d6000803e3d6000fd5b5050604051601f190151979650505050505050565b6000806000835160411461039357600080fd5b5050506020810151604082015160609092015160001a92909190565b634e487b7160e01b600052604160045260246000fd5b60008083601f8401126103d757600080fd5b50813567ffffffffffffffff8111156103ef57600080fd5b60208301915083602082850101111561040757600080fd5b9250929050565b60008060006040848603121561042357600080fd5b833567ffffffffffffffff8082111561043b57600080fd5b818601915086601f83011261044f57600080fd5b813581811115610461576104616103af565b604051601f8201601f19908116603f01168101908382118183101715610489576104896103af565b816040528281528960208487010111156104a257600080fd5b8260208601602083013760006020848301015280975050505060208601359150808211156104cf57600080fd5b506104dc868287016103c5565b9497909650939450505050565b6000602082840312156104fb57600080fd5b81356001600160a01b038116811461051257600080fd5b9392505050565b634e487b7160e01b600052601160045260246000fd5b600081600019048311821515161561054957610549610519565b500290565b6000821982111561056157610561610519565b500190565b634e487b7160e01b600052603260045260246000fd5b60006001820161058e5761058e610519565b506001019056fea2646970667358221220ad01996abe10894baf155a38ac268a7ee2b753c8dd9788300b437b9fde54177564736f6c634300080f0033",
    "sourcePath": "c:/Users/User/Documents/GitHub/Backend/SmartContracts/contracts/Utils/SignatureVerifier.sol",
    "compiler": {
        "name": "solc",
        "version": "0.8.15+commit.e14f2714"
    },
    "functionHashes": {
        "owner()": "8da5cb5b",
        "renounceOwnership()": "715018a6",
        "transferOwnership(address)": "f2fde38b",
        "verifySignature(string,string)": "81cd080f"
    },
    "gasEstimates": {
        "creation": {
            "codeDepositCost": "296600",
            "executionCost": "26178",
            "totalCost": "322778"
        },
        "external": {
            "owner()": "2323",
            "renounceOwnership()": "infinite",
            "transferOwnership(address)": "28342",
            "verifySignature(string,string)": "infinite"
        },
        "internal": {
            "bytesToBytes32(bytes memory,uint256)": "infinite",
            "recoverSigner(bytes32,bytes memory)": "infinite",
            "splitSignature(bytes memory)": "infinite"
        }
    }
}