{
    "contractName": "dAppstore",
    "abi": [
        {
            "inputs": [],
            "stateMutability": "nonpayable",
            "type": "constructor"
        },
        {
            "inputs": [
                {
                    "internalType": "string",
                    "name": "_name",
                    "type": "string"
                },
                {
                    "internalType": "string",
                    "name": "_description",
                    "type": "string"
                },
                {
                    "internalType": "string",
                    "name": "_magnetLink",
                    "type": "string"
                },
                {
                    "internalType": "string",
                    "name": "_imgUrl",
                    "type": "string"
                },
                {
                    "internalType": "string",
                    "name": "_company",
                    "type": "string"
                },
                {
                    "internalType": "uint256",
                    "name": "_price",
                    "type": "uint256"
                },
                {
                    "internalType": "string",
                    "name": "_category",
                    "type": "string"
                },
                {
                    "internalType": "string",
                    "name": "_fileSha256",
                    "type": "string"
                }
            ],
            "name": "createNewApp",
            "outputs": [],
            "stateMutability": "nonpayable",
            "type": "function"
        },
        {
            "inputs": [],
            "name": "getAppCount",
            "outputs": [
                {
                    "internalType": "uint256",
                    "name": "",
                    "type": "uint256"
                }
            ],
            "stateMutability": "view",
            "type": "function"
        },
        {
            "inputs": [],
            "name": "getPublishedAppsInfo",
            "outputs": [
                {
                    "components": [
                        {
                            "internalType": "uint256",
                            "name": "id",
                            "type": "uint256"
                        },
                        {
                            "internalType": "string",
                            "name": "name",
                            "type": "string"
                        },
                        {
                            "internalType": "string",
                            "name": "description",
                            "type": "string"
                        },
                        {
                            "internalType": "string",
                            "name": "imgUrl",
                            "type": "string"
                        },
                        {
                            "internalType": "string",
                            "name": "company",
                            "type": "string"
                        },
                        {
                            "internalType": "uint256",
                            "name": "price",
                            "type": "uint256"
                        },
                        {
                            "internalType": "uint256",
                            "name": "numRatings",
                            "type": "uint256"
                        },
                        {
                            "internalType": "uint256",
                            "name": "ratingInt",
                            "type": "uint256"
                        },
                        {
                            "internalType": "uint256",
                            "name": "ratingModulu",
                            "type": "uint256"
                        },
                        {
                            "internalType": "uint256",
                            "name": "userRating",
                            "type": "uint256"
                        },
                        {
                            "internalType": "string",
                            "name": "fileSha256",
                            "type": "string"
                        },
                        {
                            "internalType": "bool",
                            "name": "owned",
                            "type": "bool"
                        },
                        {
                            "internalType": "string",
                            "name": "magnetLink",
                            "type": "string"
                        },
                        {
                            "internalType": "string",
                            "name": "category",
                            "type": "string"
                        },
                        {
                            "internalType": "uint256",
                            "name": "publishTime",
                            "type": "uint256"
                        }
                    ],
                    "internalType": "struct AppInfoLibrary.AppInfo[]",
                    "name": "",
                    "type": "tuple[]"
                }
            ],
            "stateMutability": "view",
            "type": "function"
        },
        {
            "inputs": [],
            "name": "getPurchasedAppsInfo",
            "outputs": [
                {
                    "components": [
                        {
                            "internalType": "uint256",
                            "name": "id",
                            "type": "uint256"
                        },
                        {
                            "internalType": "string",
                            "name": "name",
                            "type": "string"
                        },
                        {
                            "internalType": "string",
                            "name": "description",
                            "type": "string"
                        },
                        {
                            "internalType": "string",
                            "name": "imgUrl",
                            "type": "string"
                        },
                        {
                            "internalType": "string",
                            "name": "company",
                            "type": "string"
                        },
                        {
                            "internalType": "uint256",
                            "name": "price",
                            "type": "uint256"
                        },
                        {
                            "internalType": "uint256",
                            "name": "numRatings",
                            "type": "uint256"
                        },
                        {
                            "internalType": "uint256",
                            "name": "ratingInt",
                            "type": "uint256"
                        },
                        {
                            "internalType": "uint256",
                            "name": "ratingModulu",
                            "type": "uint256"
                        },
                        {
                            "internalType": "uint256",
                            "name": "userRating",
                            "type": "uint256"
                        },
                        {
                            "internalType": "string",
                            "name": "fileSha256",
                            "type": "string"
                        },
                        {
                            "internalType": "bool",
                            "name": "owned",
                            "type": "bool"
                        },
                        {
                            "internalType": "string",
                            "name": "magnetLink",
                            "type": "string"
                        },
                        {
                            "internalType": "string",
                            "name": "category",
                            "type": "string"
                        },
                        {
                            "internalType": "uint256",
                            "name": "publishTime",
                            "type": "uint256"
                        }
                    ],
                    "internalType": "struct AppInfoLibrary.AppInfo[]",
                    "name": "",
                    "type": "tuple[]"
                }
            ],
            "stateMutability": "view",
            "type": "function"
        },
        {
            "inputs": [],
            "name": "getRatedAppsInfo",
            "outputs": [
                {
                    "components": [
                        {
                            "internalType": "uint256",
                            "name": "id",
                            "type": "uint256"
                        },
                        {
                            "internalType": "string",
                            "name": "name",
                            "type": "string"
                        },
                        {
                            "internalType": "string",
                            "name": "description",
                            "type": "string"
                        },
                        {
                            "internalType": "string",
                            "name": "imgUrl",
                            "type": "string"
                        },
                        {
                            "internalType": "string",
                            "name": "company",
                            "type": "string"
                        },
                        {
                            "internalType": "uint256",
                            "name": "price",
                            "type": "uint256"
                        },
                        {
                            "internalType": "uint256",
                            "name": "numRatings",
                            "type": "uint256"
                        },
                        {
                            "internalType": "uint256",
                            "name": "ratingInt",
                            "type": "uint256"
                        },
                        {
                            "internalType": "uint256",
                            "name": "ratingModulu",
                            "type": "uint256"
                        },
                        {
                            "internalType": "uint256",
                            "name": "userRating",
                            "type": "uint256"
                        },
                        {
                            "internalType": "string",
                            "name": "fileSha256",
                            "type": "string"
                        },
                        {
                            "internalType": "bool",
                            "name": "owned",
                            "type": "bool"
                        },
                        {
                            "internalType": "string",
                            "name": "magnetLink",
                            "type": "string"
                        },
                        {
                            "internalType": "string",
                            "name": "category",
                            "type": "string"
                        },
                        {
                            "internalType": "uint256",
                            "name": "publishTime",
                            "type": "uint256"
                        }
                    ],
                    "internalType": "struct AppInfoLibrary.AppInfo[]",
                    "name": "",
                    "type": "tuple[]"
                }
            ],
            "stateMutability": "view",
            "type": "function"
        },
        {
            "inputs": [
                {
                    "internalType": "uint256",
                    "name": "_app_id",
                    "type": "uint256"
                }
            ],
            "name": "getUserRatingForApp",
            "outputs": [
                {
                    "internalType": "uint256",
                    "name": "",
                    "type": "uint256"
                }
            ],
            "stateMutability": "view",
            "type": "function"
        },
        {
            "inputs": [
                {
                    "internalType": "uint256",
                    "name": "app_id",
                    "type": "uint256"
                }
            ],
            "name": "purchaseApp",
            "outputs": [],
            "stateMutability": "payable",
            "type": "function"
        }
    ],
    "bytecode": "60806040523480156200001157600080fd5b506040516200002090620000d3565b604051809103906000f0801580156200003d573d6000803e3d6000fd5b50600080546001600160a01b0319166001600160a01b03929092169190911790556040516200006c90620000e1565b604051809103906000f08015801562000089573d6000803e3d6000fd5b50600160006101000a8154816001600160a01b0302191690836001600160a01b03160217905550620000c76006620000cd60201b62000ce31760201c565b620000ef565b60009055565b613559806200482c83390190565b61058b8062007d8583390190565b61472d80620000ff6000396000f3fe608060405260043610620000795760003560e01c806380109fea116200005457806380109fea14620000f45780638f89b46a146200010c578063e0b8f2ae1462000133578063e9beca8e146200014b57600080fd5b80632b07ac4c146200007e57806333e067a614620000a55780637fc442db14620000bc575b600080fd5b3480156200008b57600080fd5b50620000a36200009d3660046200102c565b62000163565b005b620000a3620000b636600462001167565b620002ee565b348015620000c957600080fd5b50620000e1620000db36600462001167565b6200073e565b6040519081526020015b60405180910390f35b3480156200010157600080fd5b50620000e16200099d565b3480156200011957600080fd5b5062000124620009b0565b604051620000eb9190620011e2565b3480156200014057600080fd5b506200012462000ad5565b3480156200015857600080fd5b506200012462000bf1565b33600090815260056020526040908190205490516386bd3f9160e01b81526001600160a01b03909116600482015273__$0fa02d6a67b7b0d0756a7e3fbaa86f03ef$__906386bd3f9190602401602060405180830381865af4158015620001ce573d6000803e3d6000fd5b505050506040513d601f19601f82011682018060405250810190620001f491906200137e565b156200020557620002053362000ce9565b600062000213600262000d8f565b9050600081338b8b8b8b8b8b8b8b6040516200022f9062000f12565b620002449a999897969594939291906200139c565b604051809103906000f08015801562000261573d6000803e3d6000fd5b509050620002726002838362000d9c565b5033600090815260056020526040908190205490516371fbae8f60e11b81526001600160a01b0383811660048301529091169063e3f75d1e90602401600060405180830381600087803b158015620002c957600080fd5b505af1158015620002de573d6000803e3d6000fd5b5050505050505050505050505050565b80620002fc60028262000dbc565b6200033e5760405162461bcd60e51b815260206004820152600d60248201526c105c1c081b9bdd08199bdd5b99609a1b60448201526064015b60405180910390fd5b6200034b60028262000dd1565b6040516386bd3f9160e01b81526001600160a01b03909116600482015273__$0fa02d6a67b7b0d0756a7e3fbaa86f03ef$__906386bd3f9190602401602060405180830381865af4158015620003a5573d6000803e3d6000fd5b505050506040513d601f19601f82011682018060405250810190620003cb91906200137e565b156200040f5760405162461bcd60e51b815260206004820152601260248201527141707020646f656e7327742065786973747360701b604482015260640162000335565b33600081815260056020526040908190205490516386bd3f9160e01b81526001600160a01b03909116600482015273__$0fa02d6a67b7b0d0756a7e3fbaa86f03ef$__906386bd3f9190602401602060405180830381865af41580156200047a573d6000803e3d6000fd5b505050506040513d601f19601f82011682018060405250810190620004a091906200137e565b15620004b157620004b18162000ce9565b6000620004c060028562000dd1565b6001600160a01b038381166000908152600560205260409081902054905163012935c160e21b8152838316600482015292935016906304a4d70490602401602060405180830381865afa1580156200051c573d6000803e3d6000fd5b505050506040513d601f19601f820116820180604052508101906200054291906200137e565b15620005875760405162461bcd60e51b815260206004820152601360248201527243616e2774206275792061707020747769636560681b604482015260640162000335565b60008190506000816001600160a01b03166302d05d3f6040518163ffffffff1660e01b8152600401602060405180830381865afa158015620005cd573d6000803e3d6000fd5b505050506040513d601f19601f82011682018060405250810190620005f3919062001466565b6001600160a01b03163460405160006040518083038185875af1925050503d80600081146200063f576040519150601f19603f3d011682016040523d82523d6000602084013e62000644565b606091505b50509050806200068e5760405162461bcd60e51b81526020600482015260146024820152732330b4b632b2103a379039b2b7321022ba3432b960611b604482015260640162000335565b6001600160a01b03848116600090815260056020526040908190205490516391de1ba360e01b815285831660048201529116906391de1ba390602401600060405180830381600087803b158015620006e557600080fd5b505af1158015620006fa573d6000803e3d6000fd5b50506040516001600160a01b038087169350871691507fba9cb3f403a15fc11cbc07546f998c36867f843fa32a222ee76a41a9e6af7d0790600090a3505050505050565b6000816200074e60028262000dbc565b6200078c5760405162461bcd60e51b815260206004820152600d60248201526c105c1c081b9bdd08199bdd5b99609a1b604482015260640162000335565b6200079960028262000dd1565b6040516386bd3f9160e01b81526001600160a01b03909116600482015273__$0fa02d6a67b7b0d0756a7e3fbaa86f03ef$__906386bd3f9190602401602060405180830381865af4158015620007f3573d6000803e3d6000fd5b505050506040513d601f19601f820116820180604052508101906200081991906200137e565b156200085d5760405162461bcd60e51b815260206004820152601260248201527141707020646f656e7327742065786973747360701b604482015260640162000335565b33600090815260056020526040908190205490516386bd3f9160e01b81526001600160a01b03909116600482015273__$0fa02d6a67b7b0d0756a7e3fbaa86f03ef$__906386bd3f9190602401602060405180830381865af4158015620008c8573d6000803e3d6000fd5b505050506040513d601f19601f82011682018060405250810190620008ee91906200137e565b15620008fe576000915062000997565b336000908152600560205260409020546001600160a01b0316639f9f7f856200092960028662000dd1565b6040516001600160e01b031960e084901b1681526001600160a01b039091166004820152602401602060405180830381865afa1580156200096e573d6000803e3d6000fd5b505050506040513d601f19601f8201168201806040525081019062000994919062001491565b91505b50919050565b6000620009ab600262000d8f565b905090565b33600090815260056020526040908190205490516386bd3f9160e01b81526001600160a01b03909116600482015260609073__$0fa02d6a67b7b0d0756a7e3fbaa86f03ef$__906386bd3f9190602401602060405180830381865af415801562000a1e573d6000803e3d6000fd5b505050506040513d601f19601f8201168201806040525081019062000a4491906200137e565b1562000a505750606090565b3360009081526005602052604080822054815163b8c3773f60e01b815291516001600160a01b039091169163b8c3773f91600480830192869291908290030181865afa15801562000aa5573d6000803e3d6000fd5b505050506040513d6000823e601f3d908101601f1916820160405262000acf9190810190620014f7565b92915050565b33600090815260056020526040908190205490516386bd3f9160e01b81526001600160a01b03909116600482015260609073__$0fa02d6a67b7b0d0756a7e3fbaa86f03ef$__906386bd3f9190602401602060405180830381865af415801562000b43573d6000803e3d6000fd5b505050506040513d601f19601f8201168201806040525081019062000b6991906200137e565b1562000b755750606090565b3360009081526005602052604080822054815163139334af60e01b815291516001600160a01b039091169263139334af92600480820193918290030181865afa15801562000bc7573d6000803e3d6000fd5b505050506040513d6000823e601f3d908101601f19168201604052620009ab9190810190620014f7565b33600090815260056020526040908190205490516386bd3f9160e01b81526001600160a01b03909116600482015260609073__$0fa02d6a67b7b0d0756a7e3fbaa86f03ef$__906386bd3f9190602401602060405180830381865af415801562000c5f573d6000803e3d6000fd5b505050506040513d601f19601f8201168201806040525081019062000c8591906200137e565b1562000c915750606090565b3360009081526005602052604080822054815163253a219f60e01b815291516001600160a01b039091169263253a219f92600480820193918290030181865afa15801562000bc7573d6000803e3d6000fd5b60009055565b62000cf8600680546001019055565b8060405162000d079062000f20565b6001600160a01b039091168152602001604051809103906000f08015801562000d34573d6000803e3d6000fd5b506001600160a01b0382811660008181526005602052604080822080546001600160a01b03191695909416948517909355915190917f263d398af3bd0e797da25e9dc29a23286e999826d13a16fca996d1ddd1eb528191a350565b600062000acf8262000ddf565b600062000db484846001600160a01b03851662000dec565b949350505050565b600062000dca838362000e0b565b9392505050565b600062000dca838362000e19565b600062000acf8262000e8e565b6000828152600284016020526040812082905562000db4848462000e99565b600062000dca838362000ea7565b60008181526002830160205260408120548015158062000e40575062000e40848462000e0b565b62000dca5760405162461bcd60e51b815260206004820152601e60248201527f456e756d657261626c654d61703a206e6f6e6578697374656e74206b65790000604482015260640162000335565b600062000acf825490565b600062000dca838362000ec0565b6000818152600183016020526040812054151562000dca565b600081815260018301602052604081205462000f095750815460018181018455600084815260208082209093018490558454848252828601909352604090209190915562000acf565b50600062000acf565b612018806200176283390190565b610f7e806200377a83390190565b634e487b7160e01b600052604160045260246000fd5b6040516101e0810167ffffffffffffffff8111828210171562000f6b5762000f6b62000f2e565b60405290565b604051601f8201601f1916810167ffffffffffffffff8111828210171562000f9d5762000f9d62000f2e565b604052919050565b600067ffffffffffffffff82111562000fc25762000fc262000f2e565b50601f01601f191660200190565b600082601f83011262000fe257600080fd5b813562000ff962000ff38262000fa5565b62000f71565b8181528460208386010111156200100f57600080fd5b816020850160208301376000918101602001919091529392505050565b600080600080600080600080610100898b0312156200104a57600080fd5b883567ffffffffffffffff808211156200106357600080fd5b620010718c838d0162000fd0565b995060208b01359150808211156200108857600080fd5b620010968c838d0162000fd0565b985060408b0135915080821115620010ad57600080fd5b620010bb8c838d0162000fd0565b975060608b0135915080821115620010d257600080fd5b620010e08c838d0162000fd0565b965060808b0135915080821115620010f757600080fd5b620011058c838d0162000fd0565b955060a08b0135945060c08b01359150808211156200112357600080fd5b620011318c838d0162000fd0565b935060e08b01359150808211156200114857600080fd5b50620011578b828c0162000fd0565b9150509295985092959890939650565b6000602082840312156200117a57600080fd5b5035919050565b60005b838110156200119e57818101518382015260200162001184565b83811115620011ae576000848401525b50505050565b60008151808452620011ce81602086016020860162001181565b601f01601f19169290920160200192915050565b60006020808301818452808551808352604092508286019150828160051b87010184880160005b838110156200135a57603f1989840301855281516101e08151855288820151818a8701526200123b82870182620011b4565b9150508782015185820389870152620012558282620011b4565b91505060608083015186830382880152620012718382620011b4565b92505050608080830151868303828801526200128e8382620011b4565b60a0858101519089015260c0808601519089015260e080860151908901526101008086015190890152610120808601519089015261014080860151898303828b015291945092509050620012e38382620011b4565b9250505061016080830151620012fc8288018215159052565b50506101808083015186830382880152620013188382620011b4565b925050506101a08083015186830382880152620013368382620011b4565b6101c094850151979094019690965250509487019492509086019060010162001209565b509098975050505050505050565b805180151581146200137957600080fd5b919050565b6000602082840312156200139157600080fd5b62000dca8262001368565b8a81526001600160a01b038a16602082015261014060408201819052600090620013c98382018c620011b4565b90508281036060840152620013df818b620011b4565b90508281036080840152620013f5818a620011b4565b905082810360a08401526200140b8189620011b4565b905082810360c0840152620014218188620011b4565b90508560e08401528281036101008401526200143e8186620011b4565b9050828103610120840152620014558185620011b4565b9d9c50505050505050505050505050565b6000602082840312156200147957600080fd5b81516001600160a01b038116811462000dca57600080fd5b600060208284031215620014a457600080fd5b5051919050565b600082601f830112620014bd57600080fd5b8151620014ce62000ff38262000fa5565b818152846020838601011115620014e457600080fd5b62000db482602083016020870162001181565b600060208083850312156200150b57600080fd5b825167ffffffffffffffff808211156200152457600080fd5b818501915085601f8301126200153957600080fd5b8151818111156200154e576200154e62000f2e565b8060051b6200155f85820162000f71565b91825283810185019185810190898411156200157a57600080fd5b86860192505b8383101562001754578251858111156200159957600080fd5b86016101e0818c03601f19011215620015b157600080fd5b620015bb62000f44565b888201518152604082015187811115620015d457600080fd5b620015e48d8b83860101620014ab565b8a83015250606082015187811115620015fc57600080fd5b6200160c8d8b83860101620014ab565b6040830152506080820151878111156200162557600080fd5b620016358d8b83860101620014ab565b60608301525060a0820151878111156200164e57600080fd5b6200165e8d8b83860101620014ab565b60808301525060c082015160a082015260e082015160c08201526101008083015160e0830152610120808401518284015261014091508184015181840152506101608084015189811115620016b257600080fd5b620016c28f8d83880101620014ab565b83850152506101809150620016d982850162001368565b908301526101a08381015189811115620016f257600080fd5b620017028f8d83880101620014ab565b83850152506101c0915081840151898111156200171e57600080fd5b6200172e8f8d83880101620014ab565b8285015250506101e0830151818301525080845250508682019150868301925062001580565b999850505050505050505056fe60806040523480156200001157600080fd5b5060405162002018380380620020188339810160408190526200003491620006b1565b6200003f3362000564565b896200004f565b60405180910390fd5b8360008111620000a25760405162461bcd60e51b815260206004820152601c60248201527f5072696365206d7573742062652067726561746572207468616e203000000000604482015260640162000046565b60405163139a0e4560e11b81528a9073__$43b582c4148e270e665a68eb9bc2d25dde$__906327341c8a90620000dd9084906004016200080a565b602060405180830381865af4158015620000fb573d6000803e3d6000fd5b505050506040513d601f19601f820116820180604052508101906200012191906200083f565b156200015f5760405162461bcd60e51b8152602060048201526018602482015260008051602062001f63833981519152604482015260640162000046565b60405163139a0e4560e11b8152899073__$43b582c4148e270e665a68eb9bc2d25dde$__906327341c8a906200019a9084906004016200080a565b602060405180830381865af4158015620001b8573d6000803e3d6000fd5b505050506040513d601f19601f82011682018060405250810190620001de91906200083f565b156200021c5760405162461bcd60e51b8152602060048201526018602482015260008051602062001f63833981519152604482015260640162000046565b60405163139a0e4560e11b8152869073__$43b582c4148e270e665a68eb9bc2d25dde$__906327341c8a90620002579084906004016200080a565b602060405180830381865af415801562000275573d6000803e3d6000fd5b505050506040513d601f19601f820116820180604052508101906200029b91906200083f565b15620002d95760405162461bcd60e51b8152602060048201526018602482015260008051602062001f63833981519152604482015260640162000046565b60405163139a0e4560e11b8152869073__$43b582c4148e270e665a68eb9bc2d25dde$__906327341c8a90620003149084906004016200080a565b602060405180830381865af415801562000332573d6000803e3d6000fd5b505050506040513d601f19601f820116820180604052508101906200035891906200083f565b15620003965760405162461bcd60e51b8152602060048201526018602482015260008051602062001f63833981519152604482015260640162000046565b8e600260006101000a8154816001600160a01b0302191690836001600160a01b031602179055508f6001819055508d60039081620003d59190620008f9565b506004620003e48e82620008f9565b506006620003f38d82620008f9565b506007620004028c82620008f9565b5060405163139a0e4560e11b815273__$43b582c4148e270e665a68eb9bc2d25dde$__906327341c8a906200043c908e906004016200080a565b602060405180830381865af41580156200045a573d6000803e3d6000fd5b505050506040513d601f19601f820116820180604052508101906200048091906200083f565b15620004b1576040518060c001604052806095815260200162001f8360959139600790620004af9082620008f9565b505b6008620004bf8b82620008f9565b5060006009819055600a819055600b8a90556005805460018101825591527f036b6384b5eca791c62761152d0c79bb0604c104a5fb6f4eb0703f3154bb3db0016200050b8882620008f9565b5062000523600e620005b460201b62000f531760201c565b6200053a600f620005b460201b62000f531760201c565b600c620005488982620008f9565b505042600d5550620009c59d5050505050505050505050505050565b600080546001600160a01b038381166001600160a01b0319831681178455604051919092169283917f8be0079c531659141344cd1fd0a4f28419497f9722a3daafe3b4186f6b6457e09190a35050565b60009055565b80516001600160a01b0381168114620005d257600080fd5b919050565b634e487b7160e01b600052604160045260246000fd5b60005b838110156200060a578181015183820152602001620005f0565b838111156200061a576000848401525b50505050565b600082601f8301126200063257600080fd5b81516001600160401b03808211156200064f576200064f620005d7565b604051601f8301601f19908116603f011681019082821181831017156200067a576200067a620005d7565b816040528381528660208588010111156200069457600080fd5b620006a7846020830160208901620005ed565b9695505050505050565b6000806000806000806000806000806101408b8d031215620006d257600080fd5b8a519950620006e460208c01620005ba565b60408c01519099506001600160401b03808211156200070257600080fd5b620007108e838f0162000620565b995060608d01519150808211156200072757600080fd5b620007358e838f0162000620565b985060808d01519150808211156200074c57600080fd5b6200075a8e838f0162000620565b975060a08d01519150808211156200077157600080fd5b6200077f8e838f0162000620565b965060c08d01519150808211156200079657600080fd5b620007a48e838f0162000620565b955060e08d015194506101008d0151915080821115620007c357600080fd5b620007d18e838f0162000620565b93506101208d0151915080821115620007e957600080fd5b50620007f88d828e0162000620565b9150509295989b9194979a5092959850565b60208152600082518060208401526200082b816040850160208701620005ed565b601f01601f19169190910160400192915050565b6000602082840312156200085257600080fd5b815180151581146200086357600080fd5b9392505050565b600181811c908216806200087f57607f821691505b602082108103620008a057634e487b7160e01b600052602260045260246000fd5b50919050565b601f821115620008f457600081815260208120601f850160051c81016020861015620008cf5750805b601f850160051c820191505b81811015620008f057828155600101620008db565b5050505b505050565b81516001600160401b03811115620009155762000915620005d7565b6200092d816200092684546200086a565b84620008a6565b602080601f8311600181146200096557600084156200094c5750858301515b600019600386901b1c1916600185901b178555620008f0565b600085815260208120601f198616915b82811015620009965788860151825594840194600190910190840162000975565b5085821015620009b55787850151600019600388901b60f8161c191681555b5050505050600190811b01905550565b61158e80620009d56000396000f3fe608060405234801561001057600080fd5b506004361061012c5760003560e01c8063a035b1fe116100ad578063e26799ff11610071578063e26799ff14610243578063f22b012714610258578063f2fde38b1461026b578063fabec44a1461027e578063fafb1b011461028657600080fd5b8063a035b1fe14610217578063a512bd7914610220578063af640d0f14610228578063d23fe7c714610231578063d68387c71461023b57600080fd5b8063715018a6116100f4578063715018a6146101c45780637284e416146101ce57806373b8fc80146101d657806381ecdf45146101f35780638da5cb5b1461020657600080fd5b806302d05d3f1461013157806306fdde031461016157806334b1a7cc146101765780636904c94d1461018e57806370b8fd9214610196575b600080fd5b600254610144906001600160a01b031681565b6040516001600160a01b0390911681526020015b60405180910390f35b610169610299565b60405161015891906110c8565b600f546101809081565b604051908152602001610158565b610169610327565b6101a96101a43660046110e2565b610334565b60408051938452602084019290925290820152606001610158565b6101cc6103f9565b005b61016961040d565b6101de61041a565b60408051928352602083019190915201610158565b6101cc610201366004611104565b61043c565b6000546001600160a01b0316610144565b610180600b5481565b61016961054a565b61018060015481565b600e546101809081565b610169610557565b61024b610564565b6040516101589190611176565b61024b6102663660046112ce565b610932565b6101cc6102793660046112fa565b610d1b565b610169610d94565b6101cc610294366004611104565b610e50565b600380546102a690611323565b80601f01602080910402602001604051908101604052809291908181526020018280546102d290611323565b801561031f5780601f106102f45761010080835404028352916020019161031f565b820191906000526020600020905b81548152906001019060200180831161030257829003601f168201915b505050505081565b600880546102a690611323565b6000806000610341610f59565b83600581111561035057600080fd5b85600581111561035f57600080fd5b6000600a5461036d600e5490565b60095461037a9190611373565b6103849190611392565b90508660000361039c5761039c600e80546001019055565b6103a68882611392565b90506103b287826113aa565b90506103bd600e5490565b6103c790826113d7565b600955600e546103d790826113eb565b600a819055600954906103e9600e5490565b9550955095505050509250925092565b610401610f59565b61040b6000610fb3565b565b600480546102a690611323565b6000806000600954116104305750600091829150565b5050600954600a549091565b81818080601f0160208091040260200160405190810160405280939291908181526020018383808284376000920191909152505060405163139a0e4560e11b815273__$43b582c4148e270e665a68eb9bc2d25dde$__92506327341c8a91506104a99084906004016110c8565b602060405180830381865af41580156104c6573d6000803e3d6000fd5b505050506040513d601f19601f820116820180604052508101906104ea91906113ff565b156105375760405162461bcd60e51b8152602060048201526018602482015277537472696e67206d757374206e6f7420626520656d70747960401b60448201526064015b60405180910390fd5b6003610544838583611481565b50505050565b600680546102a690611323565b600780546102a690611323565b61056c611003565b6000604051806101e0016040528060015481526020016003805461058f90611323565b80601f01602080910402602001604051908101604052809291908181526020018280546105bb90611323565b80156106085780601f106105dd57610100808354040283529160200191610608565b820191906000526020600020905b8154815290600101906020018083116105eb57829003601f168201915b505050505081526020016004805461061f90611323565b80601f016020809104026020016040519081016040528092919081815260200182805461064b90611323565b80156106985780601f1061066d57610100808354040283529160200191610698565b820191906000526020600020905b81548152906001019060200180831161067b57829003601f168201915b50505050508152602001600780546106af90611323565b80601f01602080910402602001604051908101604052809291908181526020018280546106db90611323565b80156107285780601f106106fd57610100808354040283529160200191610728565b820191906000526020600020905b81548152906001019060200180831161070b57829003601f168201915b505050505081526020016008805461073f90611323565b80601f016020809104026020016040519081016040528092919081815260200182805461076b90611323565b80156107b85780601f1061078d576101008083540402835291602001916107b8565b820191906000526020600020905b81548152906001019060200180831161079b57829003601f168201915b50505050508152602001600b5481526020016107d3600e5490565b81526020016009548152602001600a548152602001600081526020016107f7610d94565b81526020016001151581526020016006805461081290611323565b80601f016020809104026020016040519081016040528092919081815260200182805461083e90611323565b801561088b5780601f106108605761010080835404028352916020019161088b565b820191906000526020600020905b81548152906001019060200180831161086e57829003601f168201915b50505050508152602001600c80546108a290611323565b80601f01602080910402602001604051908101604052809291908181526020018280546108ce90611323565b801561091b5780601f106108f05761010080835404028352916020019161091b565b820191906000526020600020905b8154815290600101906020018083116108fe57829003601f168201915b5050509183525050600d5460209091015292915050565b61093a611003565b6000604051806101e0016040528060015481526020016003805461095d90611323565b80601f016020809104026020016040519081016040528092919081815260200182805461098990611323565b80156109d65780601f106109ab576101008083540402835291602001916109d6565b820191906000526020600020905b8154815290600101906020018083116109b957829003601f168201915b50505050508152602001600480546109ed90611323565b80601f0160208091040260200160405190810160405280929190818152602001828054610a1990611323565b8015610a665780601f10610a3b57610100808354040283529160200191610a66565b820191906000526020600020905b815481529060010190602001808311610a4957829003601f168201915b5050505050815260200160078054610a7d90611323565b80601f0160208091040260200160405190810160405280929190818152602001828054610aa990611323565b8015610af65780601f10610acb57610100808354040283529160200191610af6565b820191906000526020600020905b815481529060010190602001808311610ad957829003601f168201915b5050505050815260200160088054610b0d90611323565b80601f0160208091040260200160405190810160405280929190818152602001828054610b3990611323565b8015610b865780601f10610b5b57610100808354040283529160200191610b86565b820191906000526020600020905b815481529060010190602001808311610b6957829003601f168201915b50505050508152602001600b548152602001610ba1600e5490565b81526020016009548152602001600a548152602001848152602001610bc4610d94565b8152602001851515815260200185610beb5760405180602001604052806000815250610c77565b60068054610bf890611323565b80601f0160208091040260200160405190810160405280929190818152602001828054610c2490611323565b8015610c715780601f10610c4657610100808354040283529160200191610c71565b820191906000526020600020905b815481529060010190602001808311610c5457829003601f168201915b50505050505b8152602001600c8054610c8990611323565b80601f0160208091040260200160405190810160405280929190818152602001828054610cb590611323565b8015610d025780601f10610cd757610100808354040283529160200191610d02565b820191906000526020600020905b815481529060010190602001808311610ce557829003601f168201915b5050509183525050600d54602090910152949350505050565b610d23610f59565b6001600160a01b038116610d885760405162461bcd60e51b815260206004820152602660248201527f4f776e61626c653a206e6577206f776e657220697320746865207a65726f206160448201526564647265737360d01b606482015260840161052e565b610d9181610fb3565b50565b6005805460609190610da8906001906113aa565b81548110610db857610db8611542565b906000526020600020018054610dcd90611323565b80601f0160208091040260200160405190810160405280929190818152602001828054610df990611323565b8015610e465780601f10610e1b57610100808354040283529160200191610e46565b820191906000526020600020905b815481529060010190602001808311610e2957829003601f168201915b5050505050905090565b81818080601f0160208091040260200160405190810160405280939291908181526020018383808284376000920191909152505060405163139a0e4560e11b815273__$43b582c4148e270e665a68eb9bc2d25dde$__92506327341c8a9150610ebd9084906004016110c8565b602060405180830381865af4158015610eda573d6000803e3d6000fd5b505050506040513d601f19601f82011682018060405250810190610efe91906113ff565b15610f465760405162461bcd60e51b8152602060048201526018602482015277537472696e67206d757374206e6f7420626520656d70747960401b604482015260640161052e565b6004610544838583611481565b60009055565b6000546001600160a01b0316331461040b5760405162461bcd60e51b815260206004820181905260248201527f4f776e61626c653a2063616c6c6572206973206e6f7420746865206f776e6572604482015260640161052e565b600080546001600160a01b038381166001600160a01b0319831681178455604051919092169283917f8be0079c531659141344cd1fd0a4f28419497f9722a3daafe3b4186f6b6457e09190a35050565b604051806101e0016040528060008152602001606081526020016060815260200160608152602001606081526020016000815260200160008152602001600081526020016000815260200160008152602001606081526020016000151581526020016060815260200160608152602001600081525090565b6000815180845260005b818110156110a157602081850181015186830182015201611085565b818111156110b3576000602083870101525b50601f01601f19169290920160200192915050565b6020815260006110db602083018461107b565b9392505050565b600080604083850312156110f557600080fd5b50508035926020909101359150565b6000806020838503121561111757600080fd5b823567ffffffffffffffff8082111561112f57600080fd5b818501915085601f83011261114357600080fd5b81358181111561115257600080fd5b86602082850101111561116457600080fd5b60209290920196919550909350505050565b6020815281516020820152600060208301516101e080604085015261119f61020085018361107b565b91506040850151601f19808685030160608701526111bd848361107b565b935060608701519150808685030160808701526111da848361107b565b935060808701519150808685030160a08701526111f7848361107b565b935060a087015160c087015260c087015160e087015260e08701519150610100828188015280880151925050610120828188015280880151925050610140828188015280880151925050610160818786030181880152611257858461107b565b9450808801519250506101806112708188018415159052565b808801519250506101a081878603018188015261128d858461107b565b9450808801519250506101c08187860301818801526112ac858461107b565b970151959092019490945250929392505050565b8015158114610d9157600080fd5b600080604083850312156112e157600080fd5b82356112ec816112c0565b946020939093013593505050565b60006020828403121561130c57600080fd5b81356001600160a01b03811681146110db57600080fd5b600181811c9082168061133757607f821691505b60208210810361135757634e487b7160e01b600052602260045260246000fd5b50919050565b634e487b7160e01b600052601160045260246000fd5b600081600019048311821515161561138d5761138d61135d565b500290565b600082198211156113a5576113a561135d565b500190565b6000828210156113bc576113bc61135d565b500390565b634e487b7160e01b600052601260045260246000fd5b6000826113e6576113e66113c1565b500490565b6000826113fa576113fa6113c1565b500690565b60006020828403121561141157600080fd5b81516110db816112c0565b634e487b7160e01b600052604160045260246000fd5b601f82111561147c57600081815260208120601f850160051c810160208610156114595750805b601f850160051c820191505b8181101561147857828155600101611465565b5050505b505050565b67ffffffffffffffff8311156114995761149961141c565b6114ad836114a78354611323565b83611432565b6000601f8411600181146114e157600085156114c95750838201355b600019600387901b1c1916600186901b17835561153b565b600083815260209020601f19861690835b8281101561151257868501358255602094850194600190920191016114f2565b508682101561152f5760001960f88860031b161c19848701351681555b505060018560011b0183555b5050505050565b634e487b7160e01b600052603260045260246000fdfea264697066735822122086123102a9a38f3c91749cd6a1c8c49442364e1bbcc0c7e3ddad027778ca977e64736f6c634300080f0033537472696e67206d757374206e6f7420626520656d707479000000000000000068747470733a2f2f65787465726e616c2d636f6e74656e742e6475636b6475636b676f2e636f6d2f69752f3f753d6874747073253341253246253246692e70696e696d672e636f6d2532466f726967696e616c7325324632302532463065253246663825324632303065663832623331383266663735626630623264653534393665363163662e6a706726663d31266e6f66623d31608060405234801561001057600080fd5b50604051610f7e380380610f7e83398101604081905261002f916100c6565b61003833610070565b600180546001600160a01b0383166001600160a81b031990911617905561006a60076100c0602090811b61082517901c565b506100f6565b600080546001600160a01b038381166001600160a01b0319831681178455604051919092169283917f8be0079c531659141344cd1fd0a4f28419497f9722a3daafe3b4186f6b6457e09190a35050565b60009055565b6000602082840312156100d857600080fd5b81516001600160a01b03811681146100ef57600080fd5b9392505050565b610e79806101056000396000f3fe608060405234801561001057600080fd5b50600436106100a95760003560e01c806391de1ba31161007157806391de1ba314610118578063983c0a5b1461012b5780639f9f7f851461013e578063b8c3773f1461015f578063e3f75d1e14610167578063f2fde38b1461017a57600080fd5b806304a4d704146100ae578063139334af146100d6578063253a219f146100eb578063715018a6146100f35780638da5cb5b146100fd575b600080fd5b6100c16100bc366004610964565b61018d565b60405190151581526020015b60405180910390f35b6100de6101ba565b6040516100cd91906109e2565b6100de61035b565b6100fb6104c0565b005b6000546040516001600160a01b0390911681526020016100cd565b6100fb610126366004610964565b6104d4565b6100fb610139366004610b57565b610543565b61015161014c366004610964565b6105af565b6040519081526020016100cd565b6100de6105d5565b6100fb610175366004610964565b61073a565b6100fb610188366004610964565b6107aa565b600061019761082b565b506001600160a01b03811660009081526004602052604090205460ff165b919050565b60606101c461082b565b60006101cf60075490565b905060008167ffffffffffffffff8111156101ec576101ec610b81565b60405190808252806020026020018201604052801561022557816020015b6102126108d5565b81526020019060019003908161020a5790505b50905060005b828110156103545760006002828154811061024857610248610b97565b60009182526020808320909101546001600160a01b0316808352600590915260409091205490915081901561033f57806001600160a01b031663f22b012760016102b86002878154811061029e5761029e610b97565b6000918252602090912001546001600160a01b03166105af565b6040516001600160e01b031960e085901b16815291151560048301526024820152604401600060405180830381865afa1580156102f9573d6000803e3d6000fd5b505050506040513d6000823e601f3d908101601f191682016040526103219190810190610c6f565b84848151811061033357610333610b97565b60200260200101819052505b5050808061034c90610e1c565b91505061022b565b5091505090565b606061036561082b565b60035460008167ffffffffffffffff81111561038357610383610b81565b6040519080825280602002602001820160405280156103bc57816020015b6103a96108d5565b8152602001906001900390816103a15790505b50905060005b82811015610354576000600382815481106103df576103df610b97565b9060005260206000200160009054906101000a90046001600160a01b03169050806001600160a01b031663f22b012760016104266003868154811061029e5761029e610b97565b6040516001600160e01b031960e085901b16815291151560048301526024820152604401600060405180830381865afa158015610467573d6000803e3d6000fd5b505050506040513d6000823e601f3d908101601f1916820160405261048f9190810190610c6f565b8383815181106104a1576104a1610b97565b60200260200101819052505080806104b890610e1c565b9150506103c2565b6104c861082b565b6104d26000610885565b565b6104dc61082b565b6002805460018181019092557f405787fa12a823e0f2b7631cc41b3ba8828b3321ca811111fa75cd3aa3bb5ace0180546001600160a01b039093166001600160a01b031990931683179055600091825260046020526040909120805460ff19169091179055565b61054b61082b565b6001811015801561055d575060058111155b61056657600080fd5b6001600160a01b038216600090815260056020526040812054900361059357610593600780546001019055565b6001600160a01b03909116600090815260056020526040902055565b60006105b961082b565b506001600160a01b031660009081526005602052604090205490565b60606105df61082b565b60025460008167ffffffffffffffff8111156105fd576105fd610b81565b60405190808252806020026020018201604052801561063657816020015b6106236108d5565b81526020019060019003908161061b5790505b50905060005b828110156103545760006002828154811061065957610659610b97565b9060005260206000200160009054906101000a90046001600160a01b03169050806001600160a01b031663f22b012760016106a06002868154811061029e5761029e610b97565b6040516001600160e01b031960e085901b16815291151560048301526024820152604401600060405180830381865afa1580156106e1573d6000803e3d6000fd5b505050506040513d6000823e601f3d908101601f191682016040526107099190810190610c6f565b83838151811061071b5761071b610b97565b602002602001018190525050808061073290610e1c565b91505061063c565b61074261082b565b6001805460ff60a01b1916600160a01b1781556003805491820181556000527fc2575a0e9e593c00f959f8c92f12db2869c3395a3b0502d05e2516446f71f85b0180546001600160a01b0383166001600160a01b03199091161790556107a7816104d4565b50565b6107b261082b565b6001600160a01b03811661081c5760405162461bcd60e51b815260206004820152602660248201527f4f776e61626c653a206e6577206f776e657220697320746865207a65726f206160448201526564647265737360d01b60648201526084015b60405180910390fd5b6107a781610885565b60009055565b6000546001600160a01b031633146104d25760405162461bcd60e51b815260206004820181905260248201527f4f776e61626c653a2063616c6c6572206973206e6f7420746865206f776e65726044820152606401610813565b600080546001600160a01b038381166001600160a01b0319831681178455604051919092169283917f8be0079c531659141344cd1fd0a4f28419497f9722a3daafe3b4186f6b6457e09190a35050565b604051806101e0016040528060008152602001606081526020016060815260200160608152602001606081526020016000815260200160008152602001600081526020016000815260200160008152602001606081526020016000151581526020016060815260200160608152602001600081525090565b80356001600160a01b03811681146101b557600080fd5b60006020828403121561097657600080fd5b61097f8261094d565b9392505050565b60005b838110156109a1578181015183820152602001610989565b838111156109b0576000848401525b50505050565b600081518084526109ce816020860160208601610986565b601f01601f19169290920160200192915050565b60006020808301818452808551808352604092508286019150828160051b87010184880160005b83811015610b4957603f1989840301855281516101e08151855288820151818a870152610a38828701826109b6565b9150508782015185820389870152610a5082826109b6565b91505060608083015186830382880152610a6a83826109b6565b9250505060808083015186830382880152610a8583826109b6565b60a0858101519089015260c0808601519089015260e080860151908901526101008086015190890152610120808601519089015261014080860151898303828b015291945092509050610ad883826109b6565b9250505061016080830151610af08288018215159052565b50506101808083015186830382880152610b0a83826109b6565b925050506101a08083015186830382880152610b2683826109b6565b6101c0948501519790940196909652505094870194925090860190600101610a09565b509098975050505050505050565b60008060408385031215610b6a57600080fd5b610b738361094d565b946020939093013593505050565b634e487b7160e01b600052604160045260246000fd5b634e487b7160e01b600052603260045260246000fd5b6040516101e0810167ffffffffffffffff81118282101715610bd157610bd1610b81565b60405290565b600082601f830112610be857600080fd5b815167ffffffffffffffff80821115610c0357610c03610b81565b604051601f8301601f19908116603f01168101908282118183101715610c2b57610c2b610b81565b81604052838152866020858801011115610c4457600080fd5b610c55846020830160208901610986565b9695505050505050565b805180151581146101b557600080fd5b600060208284031215610c8157600080fd5b815167ffffffffffffffff80821115610c9957600080fd5b908301906101e08286031215610cae57600080fd5b610cb6610bad565b82518152602083015182811115610ccc57600080fd5b610cd887828601610bd7565b602083015250604083015182811115610cf057600080fd5b610cfc87828601610bd7565b604083015250606083015182811115610d1457600080fd5b610d2087828601610bd7565b606083015250608083015182811115610d3857600080fd5b610d4487828601610bd7565b60808301525060a083015160a082015260c083015160c082015260e083015160e08201526101008084015181830152506101208084015181830152506101408084015183811115610d9457600080fd5b610da088828701610bd7565b828401525050610160610db4818501610c5f565b908201526101808381015183811115610dcc57600080fd5b610dd888828701610bd7565b8284015250506101a08084015183811115610df257600080fd5b610dfe88828701610bd7565b91830191909152506101c09283015192810192909252509392505050565b600060018201610e3c57634e487b7160e01b600052601160045260246000fd5b506001019056fea2646970667358221220e41788836ff5e386c37adbbd3f4cd271b098982f69998cc7d6f32f949c8d04fc64736f6c634300080f0033a26469706673582212201bda4191b3bc2527497f918cc71eb5aeb857abc0a13f9a252ab8a384171d8a3564736f6c634300080f0033608060405234801561001057600080fd5b5061001a3361001f565b61006f565b600080546001600160a01b038381166001600160a01b0319831681178455604051919092169283917f8be0079c531659141344cd1fd0a4f28419497f9722a3daafe3b4186f6b6457e09190a35050565b6134db8061007e6000396000f3fe60806040523480156200001157600080fd5b5060043610620000935760003560e01c80638da5cb5b11620000625780638da5cb5b146200010357806399614c10146200011f5780639a9d793c1462000136578063f2fde38b146200014d57600080fd5b80632b07ac4c1462000098578063715018a614620000b15780637d6a24ab14620000bb57806380109fea14620000ea575b600080fd5b620000af620000a936600462000afb565b62000164565b005b620000af6200022a565b620000d2620000cc36600462000c36565b62000242565b604051620000e1919062000cba565b60405180910390f35b620000f462000510565b604051908152602001620000e1565b6000546040516001600160a01b039091168152602001620000e1565b620000af6200013036600462000e40565b62000523565b620000af6200014736600462000eb9565b62000608565b620000af6200015e36600462000fef565b6200074f565b6000620001726001620007ce565b9050600081338b8b8b8b8b8b8b8b6040516200018e90620009ef565b620001a39a999897969594939291906200101a565b604051809103906000f080158015620001c0573d6000803e3d6000fd5b509050620001d160018383620007e1565b50336001600160a01b0316827f28522faef084eaf14884ca4dfb443eec1792a46a067e8af55ada5cd7e1cd03728c89888a8f60405162000216959493929190620010e4565b60405180910390a350505050505050505050565b6200023462000801565b6200024060006200085d565b565b6060828262000255565b60405180910390fd5b60008111620002985760405162461bcd60e51b815260206004820152600e60248201526d092dcecc2d8d2c840d8cadccee8d60931b60448201526064016200024c565b620002a46001620007ce565b8210620002e45760405162461bcd60e51b815260206004820152600d60248201526c092dcecc2d8d2c840d2dcc8caf609b1b60448201526064016200024c565b6000620002f26001620007ce565b9050600081861062000305578162000307565b855b905060008167ffffffffffffffff811115620003275762000327620009fd565b604051908082528060200260200182016040528015620003d657816020015b620003c2604051806101e0016040528060008152602001606081526020016060815260200160608152602001606081526020016000815260200160008152602001600081526020016000815260200160008152602001606081526020016000151581526020016060815260200160608152602001600081525090565b815260200190600190039081620003465790505b509050868211158015620003ea5750828211155b620004295760405162461bcd60e51b815260206004820152600e60248201526d1b5a5b9a5b5d5b4819985a5b195960921b60448201526064016200024c565b60005b82811015620005045760008462000444838c62001161565b6200045091906200117c565b9050600062000461600183620008ad565b9050806001600160a01b031663e26799ff6040518163ffffffff1660e01b8152600401600060405180830381865afa158015620004a2573d6000803e3d6000fd5b505050506040513d6000823e601f3d908101601f19168201604052620004cc919081019062001201565b848481518110620004e157620004e1620013ca565b602002602001018190525050508080620004fb90620013e0565b9150506200042c565b50979650505050505050565b60006200051e6001620007ce565b905090565b600062000532600185620008ad565b60405163385c7ec960e11b815260048101859052602481018490529091508190600090819081906001600160a01b038516906370b8fd92906044016060604051808303816000875af11580156200058d573d6000803e3d6000fd5b505050506040513d601f19601f82011682018060405250810190620005b39190620013fc565b6040805184815260208101849052908101829052929550909350915088907f4686fd5d77ea9a1984201e56edd878f506e82fdb6401d0bf70543d172ef37a739060600160405180910390a25050505050505050565b6200061262000801565b60006200062160018e620008ad565b90508b8b8080601f016020809104026020016040519081016040528093929190818152602001838380828437600092019190915250506040516303a2cc9560e51b815273__$43b582c4148e270e665a68eb9bc2d25dde$__9363745992a09350620006919250906004016200142b565b602060405180830381865af4158015620006af573d6000803e3d6000fd5b505050506040513d601f19601f82011682018060405250810190620006d5919062001440565b1562000740576040516381ecdf4560e01b81526001600160a01b038216906381ecdf45906200070b908f908f906004016200145e565b600060405180830381600087803b1580156200072657600080fd5b505af11580156200073b573d6000803e3d6000fd5b505050505b50505050505050505050505050565b6200075962000801565b6001600160a01b038116620007c05760405162461bcd60e51b815260206004820152602660248201527f4f776e61626c653a206e6577206f776e657220697320746865207a65726f206160448201526564647265737360d01b60648201526084016200024c565b620007cb816200085d565b50565b6000620007db82620008c2565b92915050565b6000620007f984846001600160a01b038516620008cf565b949350505050565b6000546001600160a01b03163314620002405760405162461bcd60e51b815260206004820181905260248201527f4f776e61626c653a2063616c6c6572206973206e6f7420746865206f776e657260448201526064016200024c565b600080546001600160a01b038381166001600160a01b0319831681178455604051919092169283917f8be0079c531659141344cd1fd0a4f28419497f9722a3daafe3b4186f6b6457e09190a35050565b6000620008bb8383620008ee565b9392505050565b6000620007db8262000963565b60008281526002840160205260408120829055620007f984846200096e565b6000818152600283016020526040812054801515806200091557506200091584846200097c565b620008bb5760405162461bcd60e51b815260206004820152601e60248201527f456e756d657261626c654d61703a206e6f6e6578697374656e74206b6579000060448201526064016200024c565b6000620007db825490565b6000620008bb83836200099d565b6000620008bb838360008181526001830160205260408120541515620008bb565b6000818152600183016020526040812054620009e657508154600181810184556000848152602080822090930184905584548482528286019093526040902091909155620007db565b506000620007db565b612018806200148e83390190565b634e487b7160e01b600052604160045260246000fd5b6040516101e0810167ffffffffffffffff8111828210171562000a3a5762000a3a620009fd565b60405290565b604051601f8201601f1916810167ffffffffffffffff8111828210171562000a6c5762000a6c620009fd565b604052919050565b600067ffffffffffffffff82111562000a915762000a91620009fd565b50601f01601f191660200190565b600082601f83011262000ab157600080fd5b813562000ac862000ac28262000a74565b62000a40565b81815284602083860101111562000ade57600080fd5b816020850160208301376000918101602001919091529392505050565b600080600080600080600080610100898b03121562000b1957600080fd5b883567ffffffffffffffff8082111562000b3257600080fd5b62000b408c838d0162000a9f565b995060208b013591508082111562000b5757600080fd5b62000b658c838d0162000a9f565b985060408b013591508082111562000b7c57600080fd5b62000b8a8c838d0162000a9f565b975060608b013591508082111562000ba157600080fd5b62000baf8c838d0162000a9f565b965060808b013591508082111562000bc657600080fd5b62000bd48c838d0162000a9f565b955060a08b0135945060c08b013591508082111562000bf257600080fd5b62000c008c838d0162000a9f565b935060e08b013591508082111562000c1757600080fd5b5062000c268b828c0162000a9f565b9150509295985092959890939650565b6000806040838503121562000c4a57600080fd5b50508035926020909101359150565b60005b8381101562000c7657818101518382015260200162000c5c565b8381111562000c86576000848401525b50505050565b6000815180845262000ca681602086016020860162000c59565b601f01601f19169290920160200192915050565b60006020808301818452808551808352604092508286019150828160051b87010184880160005b8381101562000e3257603f1989840301855281516101e08151855288820151818a87015262000d138287018262000c8c565b915050878201518582038987015262000d2d828262000c8c565b9150506060808301518683038288015262000d49838262000c8c565b925050506080808301518683038288015262000d66838262000c8c565b60a0858101519089015260c0808601519089015260e080860151908901526101008086015190890152610120808601519089015261014080860151898303828b01529194509250905062000dbb838262000c8c565b925050506101608083015162000dd48288018215159052565b5050610180808301518683038288015262000df0838262000c8c565b925050506101a0808301518683038288015262000e0e838262000c8c565b6101c094850151979094019690965250509487019492509086019060010162000ce1565b509098975050505050505050565b60008060006060848603121562000e5657600080fd5b505081359360208301359350604090920135919050565b60008083601f84011262000e8057600080fd5b50813567ffffffffffffffff81111562000e9957600080fd5b60208301915083602082850101111562000eb257600080fd5b9250929050565b60008060008060008060008060008060008060e08d8f03121562000edc57600080fd5b8c359b5067ffffffffffffffff60208e0135111562000efa57600080fd5b62000f0c8e60208f01358f0162000e6d565b909b50995067ffffffffffffffff60408e0135111562000f2b57600080fd5b62000f3d8e60408f01358f0162000e6d565b909950975067ffffffffffffffff60608e0135111562000f5c57600080fd5b62000f6e8e60608f01358f0162000e6d565b909750955067ffffffffffffffff60808e0135111562000f8d57600080fd5b62000f9f8e60808f01358f0162000e6d565b909550935060a08d0135925067ffffffffffffffff60c08e0135111562000fc557600080fd5b62000fd78e60c08f01358f0162000e6d565b81935080925050509295989b509295989b509295989b565b6000602082840312156200100257600080fd5b81356001600160a01b0381168114620008bb57600080fd5b8a81526001600160a01b038a16602082015261014060408201819052600090620010478382018c62000c8c565b905082810360608401526200105d818b62000c8c565b9050828103608084015262001073818a62000c8c565b905082810360a084015262001089818962000c8c565b905082810360c08401526200109f818862000c8c565b90508560e0840152828103610100840152620010bc818662000c8c565b9050828103610120840152620010d3818562000c8c565b9d9c50505050505050505050505050565b60a081526000620010f960a083018862000c8c565b82810360208401526200110d818862000c8c565b9050828103604084015262001123818762000c8c565b905084606084015282810360808401526200113f818562000c8c565b98975050505050505050565b634e487b7160e01b600052601160045260246000fd5b600082198211156200117757620011776200114b565b500190565b6000826200119a57634e487b7160e01b600052601260045260246000fd5b500690565b600082601f830112620011b157600080fd5b8151620011c262000ac28262000a74565b818152846020838601011115620011d857600080fd5b620007f982602083016020870162000c59565b80518015158114620011fc57600080fd5b919050565b6000602082840312156200121457600080fd5b815167ffffffffffffffff808211156200122d57600080fd5b908301906101e082860312156200124357600080fd5b6200124d62000a13565b825181526020830151828111156200126457600080fd5b62001272878286016200119f565b6020830152506040830151828111156200128b57600080fd5b62001299878286016200119f565b604083015250606083015182811115620012b257600080fd5b620012c0878286016200119f565b606083015250608083015182811115620012d957600080fd5b620012e7878286016200119f565b60808301525060a083015160a082015260c083015160c082015260e083015160e082015261010080840151818301525061012080840151818301525061014080840151838111156200133857600080fd5b62001346888287016200119f565b8284015250506101606200135c818501620011eb565b9082015261018083810151838111156200137557600080fd5b62001383888287016200119f565b8284015250506101a080840151838111156200139e57600080fd5b620013ac888287016200119f565b91830191909152506101c09283015192810192909252509392505050565b634e487b7160e01b600052603260045260246000fd5b600060018201620013f557620013f56200114b565b5060010190565b6000806000606084860312156200141257600080fd5b8351925060208401519150604084015190509250925092565b602081526000620008bb602083018462000c8c565b6000602082840312156200145357600080fd5b620008bb82620011eb565b60208152816020820152818360408301376000818301604090810191909152601f909201601f1916010191905056fe60806040523480156200001157600080fd5b5060405162002018380380620020188339810160408190526200003491620006b1565b6200003f3362000564565b896200004f565b60405180910390fd5b8360008111620000a25760405162461bcd60e51b815260206004820152601c60248201527f5072696365206d7573742062652067726561746572207468616e203000000000604482015260640162000046565b60405163139a0e4560e11b81528a9073__$43b582c4148e270e665a68eb9bc2d25dde$__906327341c8a90620000dd9084906004016200080a565b602060405180830381865af4158015620000fb573d6000803e3d6000fd5b505050506040513d601f19601f820116820180604052508101906200012191906200083f565b156200015f5760405162461bcd60e51b8152602060048201526018602482015260008051602062001f63833981519152604482015260640162000046565b60405163139a0e4560e11b8152899073__$43b582c4148e270e665a68eb9bc2d25dde$__906327341c8a906200019a9084906004016200080a565b602060405180830381865af4158015620001b8573d6000803e3d6000fd5b505050506040513d601f19601f82011682018060405250810190620001de91906200083f565b156200021c5760405162461bcd60e51b8152602060048201526018602482015260008051602062001f63833981519152604482015260640162000046565b60405163139a0e4560e11b8152869073__$43b582c4148e270e665a68eb9bc2d25dde$__906327341c8a90620002579084906004016200080a565b602060405180830381865af415801562000275573d6000803e3d6000fd5b505050506040513d601f19601f820116820180604052508101906200029b91906200083f565b15620002d95760405162461bcd60e51b8152602060048201526018602482015260008051602062001f63833981519152604482015260640162000046565b60405163139a0e4560e11b8152869073__$43b582c4148e270e665a68eb9bc2d25dde$__906327341c8a90620003149084906004016200080a565b602060405180830381865af415801562000332573d6000803e3d6000fd5b505050506040513d601f19601f820116820180604052508101906200035891906200083f565b15620003965760405162461bcd60e51b8152602060048201526018602482015260008051602062001f63833981519152604482015260640162000046565b8e600260006101000a8154816001600160a01b0302191690836001600160a01b031602179055508f6001819055508d60039081620003d59190620008f9565b506004620003e48e82620008f9565b506006620003f38d82620008f9565b506007620004028c82620008f9565b5060405163139a0e4560e11b815273__$43b582c4148e270e665a68eb9bc2d25dde$__906327341c8a906200043c908e906004016200080a565b602060405180830381865af41580156200045a573d6000803e3d6000fd5b505050506040513d601f19601f820116820180604052508101906200048091906200083f565b15620004b1576040518060c001604052806095815260200162001f8360959139600790620004af9082620008f9565b505b6008620004bf8b82620008f9565b5060006009819055600a819055600b8a90556005805460018101825591527f036b6384b5eca791c62761152d0c79bb0604c104a5fb6f4eb0703f3154bb3db0016200050b8882620008f9565b5062000523600e620005b460201b62000f531760201c565b6200053a600f620005b460201b62000f531760201c565b600c620005488982620008f9565b505042600d5550620009c59d5050505050505050505050505050565b600080546001600160a01b038381166001600160a01b0319831681178455604051919092169283917f8be0079c531659141344cd1fd0a4f28419497f9722a3daafe3b4186f6b6457e09190a35050565b60009055565b80516001600160a01b0381168114620005d257600080fd5b919050565b634e487b7160e01b600052604160045260246000fd5b60005b838110156200060a578181015183820152602001620005f0565b838111156200061a576000848401525b50505050565b600082601f8301126200063257600080fd5b81516001600160401b03808211156200064f576200064f620005d7565b604051601f8301601f19908116603f011681019082821181831017156200067a576200067a620005d7565b816040528381528660208588010111156200069457600080fd5b620006a7846020830160208901620005ed565b9695505050505050565b6000806000806000806000806000806101408b8d031215620006d257600080fd5b8a519950620006e460208c01620005ba565b60408c01519099506001600160401b03808211156200070257600080fd5b620007108e838f0162000620565b995060608d01519150808211156200072757600080fd5b620007358e838f0162000620565b985060808d01519150808211156200074c57600080fd5b6200075a8e838f0162000620565b975060a08d01519150808211156200077157600080fd5b6200077f8e838f0162000620565b965060c08d01519150808211156200079657600080fd5b620007a48e838f0162000620565b955060e08d015194506101008d0151915080821115620007c357600080fd5b620007d18e838f0162000620565b93506101208d0151915080821115620007e957600080fd5b50620007f88d828e0162000620565b9150509295989b9194979a5092959850565b60208152600082518060208401526200082b816040850160208701620005ed565b601f01601f19169190910160400192915050565b6000602082840312156200085257600080fd5b815180151581146200086357600080fd5b9392505050565b600181811c908216806200087f57607f821691505b602082108103620008a057634e487b7160e01b600052602260045260246000fd5b50919050565b601f821115620008f457600081815260208120601f850160051c81016020861015620008cf5750805b601f850160051c820191505b81811015620008f057828155600101620008db565b5050505b505050565b81516001600160401b03811115620009155762000915620005d7565b6200092d816200092684546200086a565b84620008a6565b602080601f8311600181146200096557600084156200094c5750858301515b600019600386901b1c1916600185901b178555620008f0565b600085815260208120601f198616915b82811015620009965788860151825594840194600190910190840162000975565b5085821015620009b55787850151600019600388901b60f8161c191681555b5050505050600190811b01905550565b61158e80620009d56000396000f3fe608060405234801561001057600080fd5b506004361061012c5760003560e01c8063a035b1fe116100ad578063e26799ff11610071578063e26799ff14610243578063f22b012714610258578063f2fde38b1461026b578063fabec44a1461027e578063fafb1b011461028657600080fd5b8063a035b1fe14610217578063a512bd7914610220578063af640d0f14610228578063d23fe7c714610231578063d68387c71461023b57600080fd5b8063715018a6116100f4578063715018a6146101c45780637284e416146101ce57806373b8fc80146101d657806381ecdf45146101f35780638da5cb5b1461020657600080fd5b806302d05d3f1461013157806306fdde031461016157806334b1a7cc146101765780636904c94d1461018e57806370b8fd9214610196575b600080fd5b600254610144906001600160a01b031681565b6040516001600160a01b0390911681526020015b60405180910390f35b610169610299565b60405161015891906110c8565b600f546101809081565b604051908152602001610158565b610169610327565b6101a96101a43660046110e2565b610334565b60408051938452602084019290925290820152606001610158565b6101cc6103f9565b005b61016961040d565b6101de61041a565b60408051928352602083019190915201610158565b6101cc610201366004611104565b61043c565b6000546001600160a01b0316610144565b610180600b5481565b61016961054a565b61018060015481565b600e546101809081565b610169610557565b61024b610564565b6040516101589190611176565b61024b6102663660046112ce565b610932565b6101cc6102793660046112fa565b610d1b565b610169610d94565b6101cc610294366004611104565b610e50565b600380546102a690611323565b80601f01602080910402602001604051908101604052809291908181526020018280546102d290611323565b801561031f5780601f106102f45761010080835404028352916020019161031f565b820191906000526020600020905b81548152906001019060200180831161030257829003601f168201915b505050505081565b600880546102a690611323565b6000806000610341610f59565b83600581111561035057600080fd5b85600581111561035f57600080fd5b6000600a5461036d600e5490565b60095461037a9190611373565b6103849190611392565b90508660000361039c5761039c600e80546001019055565b6103a68882611392565b90506103b287826113aa565b90506103bd600e5490565b6103c790826113d7565b600955600e546103d790826113eb565b600a819055600954906103e9600e5490565b9550955095505050509250925092565b610401610f59565b61040b6000610fb3565b565b600480546102a690611323565b6000806000600954116104305750600091829150565b5050600954600a549091565b81818080601f0160208091040260200160405190810160405280939291908181526020018383808284376000920191909152505060405163139a0e4560e11b815273__$43b582c4148e270e665a68eb9bc2d25dde$__92506327341c8a91506104a99084906004016110c8565b602060405180830381865af41580156104c6573d6000803e3d6000fd5b505050506040513d601f19601f820116820180604052508101906104ea91906113ff565b156105375760405162461bcd60e51b8152602060048201526018602482015277537472696e67206d757374206e6f7420626520656d70747960401b60448201526064015b60405180910390fd5b6003610544838583611481565b50505050565b600680546102a690611323565b600780546102a690611323565b61056c611003565b6000604051806101e0016040528060015481526020016003805461058f90611323565b80601f01602080910402602001604051908101604052809291908181526020018280546105bb90611323565b80156106085780601f106105dd57610100808354040283529160200191610608565b820191906000526020600020905b8154815290600101906020018083116105eb57829003601f168201915b505050505081526020016004805461061f90611323565b80601f016020809104026020016040519081016040528092919081815260200182805461064b90611323565b80156106985780601f1061066d57610100808354040283529160200191610698565b820191906000526020600020905b81548152906001019060200180831161067b57829003601f168201915b50505050508152602001600780546106af90611323565b80601f01602080910402602001604051908101604052809291908181526020018280546106db90611323565b80156107285780601f106106fd57610100808354040283529160200191610728565b820191906000526020600020905b81548152906001019060200180831161070b57829003601f168201915b505050505081526020016008805461073f90611323565b80601f016020809104026020016040519081016040528092919081815260200182805461076b90611323565b80156107b85780601f1061078d576101008083540402835291602001916107b8565b820191906000526020600020905b81548152906001019060200180831161079b57829003601f168201915b50505050508152602001600b5481526020016107d3600e5490565b81526020016009548152602001600a548152602001600081526020016107f7610d94565b81526020016001151581526020016006805461081290611323565b80601f016020809104026020016040519081016040528092919081815260200182805461083e90611323565b801561088b5780601f106108605761010080835404028352916020019161088b565b820191906000526020600020905b81548152906001019060200180831161086e57829003601f168201915b50505050508152602001600c80546108a290611323565b80601f01602080910402602001604051908101604052809291908181526020018280546108ce90611323565b801561091b5780601f106108f05761010080835404028352916020019161091b565b820191906000526020600020905b8154815290600101906020018083116108fe57829003601f168201915b5050509183525050600d5460209091015292915050565b61093a611003565b6000604051806101e0016040528060015481526020016003805461095d90611323565b80601f016020809104026020016040519081016040528092919081815260200182805461098990611323565b80156109d65780601f106109ab576101008083540402835291602001916109d6565b820191906000526020600020905b8154815290600101906020018083116109b957829003601f168201915b50505050508152602001600480546109ed90611323565b80601f0160208091040260200160405190810160405280929190818152602001828054610a1990611323565b8015610a665780601f10610a3b57610100808354040283529160200191610a66565b820191906000526020600020905b815481529060010190602001808311610a4957829003601f168201915b5050505050815260200160078054610a7d90611323565b80601f0160208091040260200160405190810160405280929190818152602001828054610aa990611323565b8015610af65780601f10610acb57610100808354040283529160200191610af6565b820191906000526020600020905b815481529060010190602001808311610ad957829003601f168201915b5050505050815260200160088054610b0d90611323565b80601f0160208091040260200160405190810160405280929190818152602001828054610b3990611323565b8015610b865780601f10610b5b57610100808354040283529160200191610b86565b820191906000526020600020905b815481529060010190602001808311610b6957829003601f168201915b50505050508152602001600b548152602001610ba1600e5490565b81526020016009548152602001600a548152602001848152602001610bc4610d94565b8152602001851515815260200185610beb5760405180602001604052806000815250610c77565b60068054610bf890611323565b80601f0160208091040260200160405190810160405280929190818152602001828054610c2490611323565b8015610c715780601f10610c4657610100808354040283529160200191610c71565b820191906000526020600020905b815481529060010190602001808311610c5457829003601f168201915b50505050505b8152602001600c8054610c8990611323565b80601f0160208091040260200160405190810160405280929190818152602001828054610cb590611323565b8015610d025780601f10610cd757610100808354040283529160200191610d02565b820191906000526020600020905b815481529060010190602001808311610ce557829003601f168201915b5050509183525050600d54602090910152949350505050565b610d23610f59565b6001600160a01b038116610d885760405162461bcd60e51b815260206004820152602660248201527f4f776e61626c653a206e6577206f776e657220697320746865207a65726f206160448201526564647265737360d01b606482015260840161052e565b610d9181610fb3565b50565b6005805460609190610da8906001906113aa565b81548110610db857610db8611542565b906000526020600020018054610dcd90611323565b80601f0160208091040260200160405190810160405280929190818152602001828054610df990611323565b8015610e465780601f10610e1b57610100808354040283529160200191610e46565b820191906000526020600020905b815481529060010190602001808311610e2957829003601f168201915b5050505050905090565b81818080601f0160208091040260200160405190810160405280939291908181526020018383808284376000920191909152505060405163139a0e4560e11b815273__$43b582c4148e270e665a68eb9bc2d25dde$__92506327341c8a9150610ebd9084906004016110c8565b602060405180830381865af4158015610eda573d6000803e3d6000fd5b505050506040513d601f19601f82011682018060405250810190610efe91906113ff565b15610f465760405162461bcd60e51b8152602060048201526018602482015277537472696e67206d757374206e6f7420626520656d70747960401b604482015260640161052e565b6004610544838583611481565b60009055565b6000546001600160a01b0316331461040b5760405162461bcd60e51b815260206004820181905260248201527f4f776e61626c653a2063616c6c6572206973206e6f7420746865206f776e6572604482015260640161052e565b600080546001600160a01b038381166001600160a01b0319831681178455604051919092169283917f8be0079c531659141344cd1fd0a4f28419497f9722a3daafe3b4186f6b6457e09190a35050565b604051806101e0016040528060008152602001606081526020016060815260200160608152602001606081526020016000815260200160008152602001600081526020016000815260200160008152602001606081526020016000151581526020016060815260200160608152602001600081525090565b6000815180845260005b818110156110a157602081850181015186830182015201611085565b818111156110b3576000602083870101525b50601f01601f19169290920160200192915050565b6020815260006110db602083018461107b565b9392505050565b600080604083850312156110f557600080fd5b50508035926020909101359150565b6000806020838503121561111757600080fd5b823567ffffffffffffffff8082111561112f57600080fd5b818501915085601f83011261114357600080fd5b81358181111561115257600080fd5b86602082850101111561116457600080fd5b60209290920196919550909350505050565b6020815281516020820152600060208301516101e080604085015261119f61020085018361107b565b91506040850151601f19808685030160608701526111bd848361107b565b935060608701519150808685030160808701526111da848361107b565b935060808701519150808685030160a08701526111f7848361107b565b935060a087015160c087015260c087015160e087015260e08701519150610100828188015280880151925050610120828188015280880151925050610140828188015280880151925050610160818786030181880152611257858461107b565b9450808801519250506101806112708188018415159052565b808801519250506101a081878603018188015261128d858461107b565b9450808801519250506101c08187860301818801526112ac858461107b565b970151959092019490945250929392505050565b8015158114610d9157600080fd5b600080604083850312156112e157600080fd5b82356112ec816112c0565b946020939093013593505050565b60006020828403121561130c57600080fd5b81356001600160a01b03811681146110db57600080fd5b600181811c9082168061133757607f821691505b60208210810361135757634e487b7160e01b600052602260045260246000fd5b50919050565b634e487b7160e01b600052601160045260246000fd5b600081600019048311821515161561138d5761138d61135d565b500290565b600082198211156113a5576113a561135d565b500190565b6000828210156113bc576113bc61135d565b500390565b634e487b7160e01b600052601260045260246000fd5b6000826113e6576113e66113c1565b500490565b6000826113fa576113fa6113c1565b500690565b60006020828403121561141157600080fd5b81516110db816112c0565b634e487b7160e01b600052604160045260246000fd5b601f82111561147c57600081815260208120601f850160051c810160208610156114595750805b601f850160051c820191505b8181101561147857828155600101611465565b5050505b505050565b67ffffffffffffffff8311156114995761149961141c565b6114ad836114a78354611323565b83611432565b6000601f8411600181146114e157600085156114c95750838201355b600019600387901b1c1916600186901b17835561153b565b600083815260209020601f19861690835b8281101561151257868501358255602094850194600190920191016114f2565b508682101561152f5760001960f88860031b161c19848701351681555b505060018560011b0183555b5050505050565b634e487b7160e01b600052603260045260246000fdfea264697066735822122086123102a9a38f3c91749cd6a1c8c49442364e1bbcc0c7e3ddad027778ca977e64736f6c634300080f0033537472696e67206d757374206e6f7420626520656d707479000000000000000068747470733a2f2f65787465726e616c2d636f6e74656e742e6475636b6475636b676f2e636f6d2f69752f3f753d6874747073253341253246253246692e70696e696d672e636f6d2532466f726967696e616c7325324632302532463065253246663825324632303065663832623331383266663735626630623264653534393665363163662e6a706726663d31266e6f66623d31a2646970667358221220bf7ae34abf098b800dfe5b648a61f54e8e450507195009067830c6a0b4d9d38064736f6c634300080f0033608060405234801561001057600080fd5b5061001a3361001f565b61006f565b600080546001600160a01b038381166001600160a01b0319831681178455604051919092169283917f8be0079c531659141344cd1fd0a4f28419497f9722a3daafe3b4186f6b6457e09190a35050565b61050d8061007e6000396000f3fe608060405234801561001057600080fd5b506004361061009e5760003560e01c8063879a6ef211610066578063879a6ef2146100a35780638da5cb5b14610115578063cdd8761814610130578063d523e833146100ce578063f2fde38b1461014b57600080fd5b806316d84075146100a35780631b5aca54146100ce57806362fccb2f146100ce578063715018a6146100ef57806383148371146100f9575b600080fd5b6100b96100b13660046102b6565b600092915050565b60405190151581526020015b60405180910390f35b6100e26100dc3660046102e0565b50606090565b6040516100c5919061034f565b6100f761015e565b005b6101076100b13660046102b6565b6040519081526020016100c5565b6000546040516001600160a01b0390911681526020016100c5565b61013e6100dc3660046102e0565b6040516100c591906104c4565b6100f76101593660046102e0565b610172565b6101666101f0565b610170600061024a565b565b61017a6101f0565b6001600160a01b0381166101e45760405162461bcd60e51b815260206004820152602660248201527f4f776e61626c653a206e6577206f776e657220697320746865207a65726f206160448201526564647265737360d01b60648201526084015b60405180910390fd5b6101ed8161024a565b50565b6000546001600160a01b031633146101705760405162461bcd60e51b815260206004820181905260248201527f4f776e61626c653a2063616c6c6572206973206e6f7420746865206f776e657260448201526064016101db565b600080546001600160a01b038381166001600160a01b0319831681178455604051919092169283917f8be0079c531659141344cd1fd0a4f28419497f9722a3daafe3b4186f6b6457e09190a35050565b80356001600160a01b03811681146102b157600080fd5b919050565b600080604083850312156102c957600080fd5b6102d28361029a565b946020939093013593505050565b6000602082840312156102f257600080fd5b6102fb8261029a565b9392505050565b6000815180845260005b818110156103285760208185018101518683018201520161030c565b8181111561033a576000602083870101525b50601f01601f19169290920160200192915050565b60006020808301818452808551808352604092508286019150828160051b87010184880160005b838110156104b657603f1989840301855281516101e08151855288820151818a8701526103a582870182610302565b91505087820151858203898701526103bd8282610302565b915050606080830151868303828801526103d78382610302565b92505050608080830151868303828801526103f28382610302565b60a0858101519089015260c0808601519089015260e080860151908901526101008086015190890152610120808601519089015261014080860151898303828b0152919450925090506104458382610302565b925050506101608083015161045d8288018215159052565b505061018080830151868303828801526104778382610302565b925050506101a080830151868303828801526104938382610302565b6101c0948501519790940196909652505094870194925090860190600101610376565b509098975050505050505050565b6020815260006102fb602083018461030256fea26469706673582212205308ade0eafd149a43ce61fa00521137106b83087dad23aac0bb878a8fd5414d64736f6c634300080f0033",
    "sourcePath": "c:/Users/User/Documents/GitHub/Backend/SmartContracts/contracts/DAppStore/dAppstore.sol",
    "compiler": {
        "name": "solc",
        "version": "0.8.15+commit.e14f2714"
    },
    "functionHashes": {
        "createNewApp(string,string,string,string,string,uint256,string,string)": "2b07ac4c",
        "getAppCount()": "80109fea",
        "getPublishedAppsInfo()": "e9beca8e",
        "getPurchasedAppsInfo()": "8f89b46a",
        "getRatedAppsInfo()": "e0b8f2ae",
        "getUserRatingForApp(uint256)": "7fc442db",
        "purchaseApp(uint256)": "33e067a6"
    },
    "gasEstimates": {
        "creation": {
            "codeDepositCost": "3644200",
            "executionCost": "infinite",
            "totalCost": "infinite"
        },
        "external": {
            "createNewApp(string,string,string,string,string,uint256,string,string)": "infinite",
            "getAppCount()": "infinite",
            "getPublishedAppsInfo()": "infinite",
            "getPurchasedAppsInfo()": "infinite",
            "getRatedAppsInfo()": "infinite",
            "getUserRatingForApp(uint256)": "infinite",
            "purchaseApp(uint256)": "infinite"
        },
        "internal": {
            "createNewUser(address)": "infinite"
        }
    }
}