{
    "contractName": "DAppStore",
    "abi": [
        {
            "inputs": [],
            "stateMutability": "nonpayable",
            "type": "constructor"
        },
        {
            "inputs": [
                {
                    "internalType": "uint256",
                    "name": "_app_id",
                    "type": "uint256"
                },
                {
                    "internalType": "uint256",
                    "name": "new_rating",
                    "type": "uint256"
                }
            ],
            "name": "rateApp",
            "outputs": [],
            "stateMutability": "nonpayable",
            "type": "function"
        },
        {
            "inputs": [],
            "name": "registerUser",
            "outputs": [],
            "stateMutability": "nonpayable",
            "type": "function"
        }
    ],
    "bytecode": "6080604052600a60035534801561001557600080fd5b50604051610022906100f6565b604051809103906000f08015801561003e573d6000803e3d6000fd5b50600080546001600160a01b0319166001600160a01b039290921691909117905560405161006b90610103565b604051809103906000f080158015610087573d6000803e3d6000fd5b50600180546001600160a01b0319166001600160a01b03929092169190911790556040516100b490610110565b604051809103906000f0801580156100d0573d6000803e3d6000fd5b50600280546001600160a01b0319166001600160a01b039290921691909117905561011d565b61321b8061047283390190565b6142588061368d83390190565b610649806178e583390190565b6103468061012c6000396000f3fe608060405234801561001057600080fd5b50600436106100365760003560e01c80634d3820eb1461003b57806370b8fd9214610045575b600080fd5b610043610057565b005b6100436100533660046101d1565b5050565b6000610062426100c8565b60005460405163507ffba560e01b81529192506001600160a01b03169063507ffba5906100939084906004016101f3565b600060405180830381600087803b1580156100ad57600080fd5b505af11580156100c1573d6000803e3d6000fd5b5050505050565b6060816000036100ef5750506040805180820190915260018152600360fc1b602082015290565b8160005b811561011957806101038161025e565b91506101129050600a8361028d565b91506100f3565b60008167ffffffffffffffff811115610134576101346102a1565b6040519080825280601f01601f19166020018201604052801561015e576020820181803683370190505b5090505b84156101c9576101736001836102b7565b9150610180600a866102ce565b61018b9060306102e2565b60f81b8183815181106101a0576101a06102fa565b60200101906001600160f81b031916908160001a9053506101c2600a8661028d565b9450610162565b949350505050565b600080604083850312156101e457600080fd5b50508035926020909101359150565b600060208083528351808285015260005b8181101561022057858101830151858201604001528201610204565b81811115610232576000604083870101525b50601f01601f1916929092016040019392505050565b634e487b7160e01b600052601160045260246000fd5b60006001820161027057610270610248565b5060010190565b634e487b7160e01b600052601260045260246000fd5b60008261029c5761029c610277565b500490565b634e487b7160e01b600052604160045260246000fd5b6000828210156102c9576102c9610248565b500390565b6000826102dd576102dd610277565b500690565b600082198211156102f5576102f5610248565b500190565b634e487b7160e01b600052603260045260246000fdfea264697066735822122093a48d23e86918684f891a21b38543f75f134d7684c6d52a45ebda5cfa40f9a964736f6c634300080f0033608060405234801561001057600080fd5b5061001a3361001f565b61006f565b600080546001600160a01b038381166001600160a01b0319831681178455604051919092169283917f8be0079c531659141344cd1fd0a4f28419497f9722a3daafe3b4186f6b6457e09190a35050565b61319d8061007e6000396000f3fe60806040523480156200001157600080fd5b5060043610620000fd5760003560e01c80638f89b46a1162000097578063caba036f116200006e578063caba036f14620001f3578063e3f75d1e146200020a578063eae6d4da1462000221578063f2fde38b146200022b57600080fd5b80638f89b46a14620001bb57806391de1ba314620001c5578063bd0d9fac14620001dc57600080fd5b8063460168c311620000d8578063460168c31462000156578063507ffba5146200017c578063715018a614620001955780638da5cb5b146200019f57600080fd5b8063139334af1462000102578063253a219f1462000124578063449af0c8146200012e575b600080fd5b6200010c62000242565b6040516200011b91906200177c565b60405180910390f35b6200010c62000428565b620001456200013f3660046200191f565b620005d4565b60405190151581526020016200011b565b6200016d620001673660046200191f565b620007ab565b6040519081526020016200011b565b620001936200018d3660046200193d565b62000988565b005b6200019362000c22565b6000546040516001600160a01b0390911681526020016200011b565b6200010c62000c3a565b62000193620001d63660046200191f565b62000de6565b62000193620001ed366004620019b4565b62000faf565b62000145620002043660046200191f565b6200117f565b620001936200021b3660046200191f565b6200130f565b62000145620014a5565b620001936200023c3660046200191f565b620015e2565b60606200024e62001661565b6040516386bd3f9160e01b815233600482018190529073__$0fa02d6a67b7b0d0756a7e3fbaa86f03ef$__906386bd3f9190602401602060405180830381865af4158015620002a1573d6000803e3d6000fd5b505050506040513d601f19601f82011682018060405250810190620002c79190620019f2565b15620002f05760405162461bcd60e51b8152600401620002e79062001a10565b60405180910390fd5b6001600160a01b03818116600090815260016020526040908190205490516386bd3f9160e01b81529116600482015273__$0fa02d6a67b7b0d0756a7e3fbaa86f03ef$__906386bd3f9190602401602060405180830381865af41580156200035c573d6000803e3d6000fd5b505050506040513d601f19601f82011682018060405250810190620003829190620019f2565b15620003a25760405162461bcd60e51b8152600401620002e79062001a3e565b3360009081526001602052604080822054815163139334af60e01b815291516001600160a01b039091169163139334af91600480830192869291908290030181865afa158015620003f7573d6000803e3d6000fd5b505050506040513d6000823e601f3d908101601f1916820160405262000421919081019062001b4a565b9250505090565b60606200043462001661565b6040516386bd3f9160e01b815233600482018190529073__$0fa02d6a67b7b0d0756a7e3fbaa86f03ef$__906386bd3f9190602401602060405180830381865af415801562000487573d6000803e3d6000fd5b505050506040513d601f19601f82011682018060405250810190620004ad9190620019f2565b15620004cd5760405162461bcd60e51b8152600401620002e79062001a10565b6001600160a01b03818116600090815260016020526040908190205490516386bd3f9160e01b81529116600482015273__$0fa02d6a67b7b0d0756a7e3fbaa86f03ef$__906386bd3f9190602401602060405180830381865af415801562000539573d6000803e3d6000fd5b505050506040513d601f19601f820116820180604052508101906200055f9190620019f2565b156200057f5760405162461bcd60e51b8152600401620002e79062001a3e565b3360009081526001602052604080822054815163253a219f60e01b815291516001600160a01b039091169163253a219f91600480830192869291908290030181865afa158015620003f7573d6000803e3d6000fd5b6040516386bd3f9160e01b8152336004820181905260009173__$0fa02d6a67b7b0d0756a7e3fbaa86f03ef$__906386bd3f9190602401602060405180830381865af415801562000629573d6000803e3d6000fd5b505050506040513d601f19601f820116820180604052508101906200064f9190620019f2565b156200066f5760405162461bcd60e51b8152600401620002e79062001a10565b6001600160a01b03818116600090815260016020526040908190205490516386bd3f9160e01b81529116600482015273__$0fa02d6a67b7b0d0756a7e3fbaa86f03ef$__906386bd3f9190602401602060405180830381865af4158015620006db573d6000803e3d6000fd5b505050506040513d601f19601f82011682018060405250810190620007019190620019f2565b15620007215760405162461bcd60e51b8152600401620002e79062001a3e565b336000908152600160205260409081902054905163efd4606560e01b81526001600160a01b03858116600483015290911690819063efd46065906024015b602060405180830381865afa1580156200077d573d6000803e3d6000fd5b505050506040513d601f19601f82011682018060405250810190620007a39190620019f2565b949350505050565b6000620007b762001661565b6040516386bd3f9160e01b815233600482018190529073__$0fa02d6a67b7b0d0756a7e3fbaa86f03ef$__906386bd3f9190602401602060405180830381865af41580156200080a573d6000803e3d6000fd5b505050506040513d601f19601f82011682018060405250810190620008309190620019f2565b15620008505760405162461bcd60e51b8152600401620002e79062001a10565b6001600160a01b03818116600090815260016020526040908190205490516386bd3f9160e01b81529116600482015273__$0fa02d6a67b7b0d0756a7e3fbaa86f03ef$__906386bd3f9190602401602060405180830381865af4158015620008bc573d6000803e3d6000fd5b505050506040513d601f19601f82011682018060405250810190620008e29190620019f2565b15620009025760405162461bcd60e51b8152600401620002e79062001a3e565b3360009081526001602052604090819020549051639f9f7f8560e01b81526001600160a01b03858116600483015290911690639f9f7f8590602401602060405180830381865afa1580156200095b573d6000803e3d6000fd5b505050506040513d601f19601f8201168201806040525081019062000981919062001db4565b9392505050565b6200099262001661565b6040516386bd3f9160e01b815233600482018190529073__$0fa02d6a67b7b0d0756a7e3fbaa86f03ef$__906386bd3f9190602401602060405180830381865af4158015620009e5573d6000803e3d6000fd5b505050506040513d601f19601f8201168201806040525081019062000a0b9190620019f2565b1562000a2b5760405162461bcd60e51b8152600401620002e79062001a10565b6001600160a01b03818116600090815260016020526040908190205490516386bd3f9160e01b81529116600482015273__$0fa02d6a67b7b0d0756a7e3fbaa86f03ef$__906386bd3f9190602401602060405180830381865af415801562000a97573d6000803e3d6000fd5b505050506040513d601f19601f8201168201806040525081019062000abd9190620019f2565b1562000add5760405162461bcd60e51b8152600401620002e79062001a3e565b33600090815260016020526040908190205490516386bd3f9160e01b81526001600160a01b03909116600482015273__$0fa02d6a67b7b0d0756a7e3fbaa86f03ef$__906386bd3f9190602401602060405180830381865af415801562000b48573d6000803e3d6000fd5b505050506040513d601f19601f8201168201806040525081019062000b6e9190620019f2565b1562000bb35760405162461bcd60e51b81526020600482015260136024820152725573657220616c72656164792065786973747360681b6044820152606401620002e7565b33838360405162000bc4906200170d565b62000bd29392919062001dce565b604051809103906000f08015801562000bef573d6000803e3d6000fd5b5033600090815260016020526040902080546001600160a01b0319166001600160a01b0392909216919091179055505050565b62000c2c62001661565b62000c386000620016bd565b565b606062000c4662001661565b6040516386bd3f9160e01b815233600482018190529073__$0fa02d6a67b7b0d0756a7e3fbaa86f03ef$__906386bd3f9190602401602060405180830381865af415801562000c99573d6000803e3d6000fd5b505050506040513d601f19601f8201168201806040525081019062000cbf9190620019f2565b1562000cdf5760405162461bcd60e51b8152600401620002e79062001a10565b6001600160a01b03818116600090815260016020526040908190205490516386bd3f9160e01b81529116600482015273__$0fa02d6a67b7b0d0756a7e3fbaa86f03ef$__906386bd3f9190602401602060405180830381865af415801562000d4b573d6000803e3d6000fd5b505050506040513d601f19601f8201168201806040525081019062000d719190620019f2565b1562000d915760405162461bcd60e51b8152600401620002e79062001a3e565b3360009081526001602052604080822054815163b8c3773f60e01b815291516001600160a01b039091169163b8c3773f91600480830192869291908290030181865afa158015620003f7573d6000803e3d6000fd5b62000df062001661565b6040516386bd3f9160e01b815233600482018190529073__$0fa02d6a67b7b0d0756a7e3fbaa86f03ef$__906386bd3f9190602401602060405180830381865af415801562000e43573d6000803e3d6000fd5b505050506040513d601f19601f8201168201806040525081019062000e699190620019f2565b1562000e895760405162461bcd60e51b8152600401620002e79062001a10565b6001600160a01b03818116600090815260016020526040908190205490516386bd3f9160e01b81529116600482015273__$0fa02d6a67b7b0d0756a7e3fbaa86f03ef$__906386bd3f9190602401602060405180830381865af415801562000ef5573d6000803e3d6000fd5b505050506040513d601f19601f8201168201806040525081019062000f1b9190620019f2565b1562000f3b5760405162461bcd60e51b8152600401620002e79062001a3e565b33600090815260016020526040908190205490516391de1ba360e01b81526001600160a01b038481166004830152909116906391de1ba3906024015b600060405180830381600087803b15801562000f9257600080fd5b505af115801562000fa7573d6000803e3d6000fd5b505050505050565b62000fb962001661565b6040516386bd3f9160e01b815233600482018190529073__$0fa02d6a67b7b0d0756a7e3fbaa86f03ef$__906386bd3f9190602401602060405180830381865af41580156200100c573d6000803e3d6000fd5b505050506040513d601f19601f82011682018060405250810190620010329190620019f2565b15620010525760405162461bcd60e51b8152600401620002e79062001a10565b6001600160a01b03818116600090815260016020526040908190205490516386bd3f9160e01b81529116600482015273__$0fa02d6a67b7b0d0756a7e3fbaa86f03ef$__906386bd3f9190602401602060405180830381865af4158015620010be573d6000803e3d6000fd5b505050506040513d601f19601f82011682018060405250810190620010e49190620019f2565b15620011045760405162461bcd60e51b8152600401620002e79062001a3e565b336000908152600160205260409081902054905163983c0a5b60e01b81526001600160a01b038581166004830152602482018590529091169063983c0a5b90604401600060405180830381600087803b1580156200116157600080fd5b505af115801562001176573d6000803e3d6000fd5b50505050505050565b6040516386bd3f9160e01b8152336004820181905260009173__$0fa02d6a67b7b0d0756a7e3fbaa86f03ef$__906386bd3f9190602401602060405180830381865af4158015620011d4573d6000803e3d6000fd5b505050506040513d601f19601f82011682018060405250810190620011fa9190620019f2565b156200121a5760405162461bcd60e51b8152600401620002e79062001a10565b6001600160a01b03818116600090815260016020526040908190205490516386bd3f9160e01b81529116600482015273__$0fa02d6a67b7b0d0756a7e3fbaa86f03ef$__906386bd3f9190602401602060405180830381865af415801562001286573d6000803e3d6000fd5b505050506040513d601f19601f82011682018060405250810190620012ac9190620019f2565b15620012cc5760405162461bcd60e51b8152600401620002e79062001a3e565b336000908152600160205260409081902054905163012935c160e21b81526001600160a01b0385811660048301529091169081906304a4d704906024016200075f565b6200131962001661565b6040516386bd3f9160e01b815233600482018190529073__$0fa02d6a67b7b0d0756a7e3fbaa86f03ef$__906386bd3f9190602401602060405180830381865af41580156200136c573d6000803e3d6000fd5b505050506040513d601f19601f82011682018060405250810190620013929190620019f2565b15620013b25760405162461bcd60e51b8152600401620002e79062001a10565b6001600160a01b03818116600090815260016020526040908190205490516386bd3f9160e01b81529116600482015273__$0fa02d6a67b7b0d0756a7e3fbaa86f03ef$__906386bd3f9190602401602060405180830381865af41580156200141e573d6000803e3d6000fd5b505050506040513d601f19601f82011682018060405250810190620014449190620019f2565b15620014645760405162461bcd60e51b8152600401620002e79062001a3e565b33600090815260016020526040908190205490516371fbae8f60e11b81526001600160a01b0384811660048301529091169063e3f75d1e9060240162000f77565b6000620014b162001661565b6040516386bd3f9160e01b815233600482018190529073__$0fa02d6a67b7b0d0756a7e3fbaa86f03ef$__906386bd3f9190602401602060405180830381865af415801562001504573d6000803e3d6000fd5b505050506040513d601f19601f820116820180604052508101906200152a9190620019f2565b156200154a5760405162461bcd60e51b8152600401620002e79062001a10565b33600090815260016020526040908190205490516386bd3f9160e01b81526001600160a01b03909116600482015273__$0fa02d6a67b7b0d0756a7e3fbaa86f03ef$__906386bd3f9190602401602060405180830381865af4158015620015b5573d6000803e3d6000fd5b505050506040513d601f19601f82011682018060405250810190620015db9190620019f2565b1591505090565b620015ec62001661565b6001600160a01b038116620016535760405162461bcd60e51b815260206004820152602660248201527f4f776e61626c653a206e6577206f776e657220697320746865207a65726f206160448201526564647265737360d01b6064820152608401620002e7565b6200165e81620016bd565b50565b6000546001600160a01b0316331462000c385760405162461bcd60e51b815260206004820181905260248201527f4f776e61626c653a2063616c6c6572206973206e6f7420746865206f776e65726044820152606401620002e7565b600080546001600160a01b038381166001600160a01b0319831681178455604051919092169283917f8be0079c531659141344cd1fd0a4f28419497f9722a3daafe3b4186f6b6457e09190a35050565b6113598062001e0f83390190565b60005b83811015620017385781810151838201526020016200171e565b8381111562001748576000848401525b50505050565b60008151808452620017688160208601602086016200171b565b601f01601f19169290920160200192915050565b60006020808301818452808551808352604092508286019150828160051b87010184880160005b83811015620018f457603f1989840301855281516101e08151855288820151818a870152620017d5828701826200174e565b9150508782015185820389870152620017ef82826200174e565b915050606080830151868303828801526200180b83826200174e565b92505050608080830151868303828801526200182883826200174e565b60a0858101519089015260c0808601519089015260e080860151908901526101008086015190890152610120808601519089015261014080860151898303828b0152919450925090506200187d83826200174e565b9250505061016080830151620018968288018215159052565b50506101808083015186830382880152620018b283826200174e565b925050506101a08083015186830382880152620018d083826200174e565b6101c0948501519790940196909652505094870194925090860190600101620017a3565b509098975050505050505050565b80356001600160a01b03811681146200191a57600080fd5b919050565b6000602082840312156200193257600080fd5b620009818262001902565b600080602083850312156200195157600080fd5b823567ffffffffffffffff808211156200196a57600080fd5b818501915085601f8301126200197f57600080fd5b8135818111156200198f57600080fd5b866020828501011115620019a257600080fd5b60209290920196919550909350505050565b60008060408385031215620019c857600080fd5b620019d38362001902565b946020939093013593505050565b805180151581146200191a57600080fd5b60006020828403121562001a0557600080fd5b6200098182620019e1565b602080825260149082015273496e76616c69642075736572206164647265737360601b604082015260600190565b6020808252600e908201526d155cd95c881b9bdd08199bdd5b9960921b604082015260600190565b634e487b7160e01b600052604160045260246000fd5b6040516101e0810167ffffffffffffffff8111828210171562001aa35762001aa362001a66565b60405290565b604051601f8201601f1916810167ffffffffffffffff8111828210171562001ad55762001ad562001a66565b604052919050565b600082601f83011262001aef57600080fd5b815167ffffffffffffffff81111562001b0c5762001b0c62001a66565b62001b21601f8201601f191660200162001aa9565b81815284602083860101111562001b3757600080fd5b620007a38260208301602087016200171b565b6000602080838503121562001b5e57600080fd5b825167ffffffffffffffff8082111562001b7757600080fd5b818501915085601f83011262001b8c57600080fd5b81518181111562001ba15762001ba162001a66565b8060051b62001bb285820162001aa9565b918252838101850191858101908984111562001bcd57600080fd5b86860192505b8383101562001da75782518581111562001bec57600080fd5b86016101e0818c03601f1901121562001c0457600080fd5b62001c0e62001a7c565b88820151815260408201518781111562001c2757600080fd5b62001c378d8b8386010162001add565b8a8301525060608201518781111562001c4f57600080fd5b62001c5f8d8b8386010162001add565b60408301525060808201518781111562001c7857600080fd5b62001c888d8b8386010162001add565b60608301525060a08201518781111562001ca157600080fd5b62001cb18d8b8386010162001add565b60808301525060c082015160a082015260e082015160c08201526101008083015160e083015261012080840151828401526101409150818401518184015250610160808401518981111562001d0557600080fd5b62001d158f8d8388010162001add565b8385015250610180915062001d2c828501620019e1565b908301526101a0838101518981111562001d4557600080fd5b62001d558f8d8388010162001add565b83850152506101c09150818401518981111562001d7157600080fd5b62001d818f8d8388010162001add565b8285015250506101e0830151818301525080845250508682019150868301925062001bd3565b9998505050505050505050565b60006020828403121562001dc757600080fd5b5051919050565b6001600160a01b03841681526040602082018190528101829052818360608301376000818301606090810191909152601f909201601f191601019291505056fe60806040523480156200001157600080fd5b5060405162001359380380620013598339810160408190526200003491620000ff565b6200003f3362000093565b600180546001600160a01b0319166001600160a01b03841617905560026200006882826200028e565b506003805460ff191690556200008b6009620000e3602090811b6200092317901c565b50506200035a565b600080546001600160a01b038381166001600160a01b0319831681178455604051919092169283917f8be0079c531659141344cd1fd0a4f28419497f9722a3daafe3b4186f6b6457e09190a35050565b60009055565b634e487b7160e01b600052604160045260246000fd5b600080604083850312156200011357600080fd5b82516001600160a01b03811681146200012b57600080fd5b602084810151919350906001600160401b03808211156200014b57600080fd5b818601915086601f8301126200016057600080fd5b815181811115620001755762000175620000e9565b604051601f8201601f19908116603f01168101908382118183101715620001a057620001a0620000e9565b816040528281528986848701011115620001b957600080fd5b600093505b82841015620001dd5784840186015181850187015292850192620001be565b82841115620001ef5760008684830101525b8096505050505050509250929050565b600181811c908216806200021457607f821691505b6020821081036200023557634e487b7160e01b600052602260045260246000fd5b50919050565b601f8211156200028957600081815260208120601f850160051c81016020861015620002645750805b601f850160051c820191505b81811015620002855782815560010162000270565b5050505b505050565b81516001600160401b03811115620002aa57620002aa620000e9565b620002c281620002bb8454620001ff565b846200023b565b602080601f831160018114620002fa5760008415620002e15750858301515b600019600386901b1c1916600185901b17855562000285565b600085815260208120601f198616915b828110156200032b578886015182559484019460019091019084016200030a565b50858210156200034a5787850151600019600388901b60f8161c191681555b5050505050600190811b01905550565b610fef806200036a6000396000f3fe608060405234801561001057600080fd5b50600436106100b45760003560e01c8063983c0a5b11610071578063983c0a5b146101365780639f9f7f8514610149578063b8c3773f1461016a578063e3f75d1e14610172578063efd4606514610185578063f2fde38b1461019857600080fd5b806304a4d704146100b9578063139334af146100e1578063253a219f146100f6578063715018a6146100fe5780638da5cb5b1461010857806391de1ba314610123575b600080fd5b6100cc6100c7366004610a62565b6101ab565b60405190151581526020015b60405180910390f35b6100e96101d8565b6040516100d89190610ae0565b6100e9610379565b6101066104de565b005b6000546040516001600160a01b0390911681526020016100d8565b610106610131366004610a62565b6104f2565b610106610144366004610c55565b610561565b61015c610157366004610a62565b6105cd565b6040519081526020016100d8565b6100e96105f3565b610106610180366004610a62565b610758565b6100cc610193366004610a62565b6107c4565b6101066101a6366004610a62565b6108a8565b60006101b5610929565b506001600160a01b03811660009081526006602052604090205460ff165b919050565b60606101e2610929565b60006101ed60095490565b905060008167ffffffffffffffff81111561020a5761020a610c7f565b60405190808252806020026020018201604052801561024357816020015b6102306109d3565b8152602001906001900390816102285790505b50905060005b828110156103725760006004828154811061026657610266610c95565b60009182526020808320909101546001600160a01b0316808352600790915260409091205490915081901561035d57806001600160a01b031663f22b012760016102d6600487815481106102bc576102bc610c95565b6000918252602090912001546001600160a01b03166105cd565b6040516001600160e01b031960e085901b16815291151560048301526024820152604401600060405180830381865afa158015610317573d6000803e3d6000fd5b505050506040513d6000823e601f3d908101601f1916820160405261033f9190810190610d6d565b84848151811061035157610351610c95565b60200260200101819052505b5050808061036a90610f1a565b915050610249565b5091505090565b6060610383610929565b60055460008167ffffffffffffffff8111156103a1576103a1610c7f565b6040519080825280602002602001820160405280156103da57816020015b6103c76109d3565b8152602001906001900390816103bf5790505b50905060005b82811015610372576000600582815481106103fd576103fd610c95565b9060005260206000200160009054906101000a90046001600160a01b03169050806001600160a01b031663f22b01276001610444600586815481106102bc576102bc610c95565b6040516001600160e01b031960e085901b16815291151560048301526024820152604401600060405180830381865afa158015610485573d6000803e3d6000fd5b505050506040513d6000823e601f3d908101601f191682016040526104ad9190810190610d6d565b8383815181106104bf576104bf610c95565b60200260200101819052505080806104d690610f1a565b9150506103e0565b6104e6610929565b6104f06000610983565b565b6104fa610929565b6004805460018181019092557f8a35acfbc15ff81a39ae7d344fd709f28e8600b4aa8c65c6b64bfe7fe36bd19b0180546001600160a01b039093166001600160a01b031990931683179055600091825260066020526040909120805460ff19169091179055565b610569610929565b6001811015801561057b575060058111155b61058457600080fd5b6001600160a01b03821660009081526007602052604081205490036105b1576105b1600980546001019055565b6001600160a01b03909116600090815260076020526040902055565b60006105d7610929565b506001600160a01b031660009081526007602052604090205490565b60606105fd610929565b60045460008167ffffffffffffffff81111561061b5761061b610c7f565b60405190808252806020026020018201604052801561065457816020015b6106416109d3565b8152602001906001900390816106395790505b50905060005b828110156103725760006004828154811061067757610677610c95565b9060005260206000200160009054906101000a90046001600160a01b03169050806001600160a01b031663f22b012760016106be600486815481106102bc576102bc610c95565b6040516001600160e01b031960e085901b16815291151560048301526024820152604401600060405180830381865afa1580156106ff573d6000803e3d6000fd5b505050506040513d6000823e601f3d908101601f191682016040526107279190810190610d6d565b83838151811061073957610739610c95565b602002602001018190525050808061075090610f1a565b91505061065a565b610760610929565b60038054600160ff1990911681179091556005805491820181556000527f036b6384b5eca791c62761152d0c79bb0604c104a5fb6f4eb0703f3154bb3db00180546001600160a01b0319166001600160a01b0383161790556107c1816104f2565b50565b60006107ce610929565b600580548060200260200160405190810160405280929190818152602001828054801561082457602002820191906000526020600020905b81546001600160a01b03168152600190910190602001808311610806575b5050604051631ed406b360e11b815273__$a9dcf1f7cdf35cad62cd6a0438ab5f9dad$__94633da80d669450610861935091508690600401610f41565b602060405180830381865af415801561087e573d6000803e3d6000fd5b505050506040513d601f19601f820116820180604052508101906108a29190610f9e565b92915050565b6108b0610929565b6001600160a01b03811661091a5760405162461bcd60e51b815260206004820152602660248201527f4f776e61626c653a206e6577206f776e657220697320746865207a65726f206160448201526564647265737360d01b60648201526084015b60405180910390fd5b6107c181610983565b60009055565b6000546001600160a01b031633146104f05760405162461bcd60e51b815260206004820181905260248201527f4f776e61626c653a2063616c6c6572206973206e6f7420746865206f776e65726044820152606401610911565b600080546001600160a01b038381166001600160a01b0319831681178455604051919092169283917f8be0079c531659141344cd1fd0a4f28419497f9722a3daafe3b4186f6b6457e09190a35050565b604051806101e0016040528060008152602001606081526020016060815260200160608152602001606081526020016000815260200160008152602001600081526020016000815260200160008152602001606081526020016000151581526020016060815260200160608152602001600081525090565b80356001600160a01b03811681146101d357600080fd5b600060208284031215610a7457600080fd5b610a7d82610a4b565b9392505050565b60005b83811015610a9f578181015183820152602001610a87565b83811115610aae576000848401525b50505050565b60008151808452610acc816020860160208601610a84565b601f01601f19169290920160200192915050565b60006020808301818452808551808352604092508286019150828160051b87010184880160005b83811015610c4757603f1989840301855281516101e08151855288820151818a870152610b3682870182610ab4565b9150508782015185820389870152610b4e8282610ab4565b91505060608083015186830382880152610b688382610ab4565b9250505060808083015186830382880152610b838382610ab4565b60a0858101519089015260c0808601519089015260e080860151908901526101008086015190890152610120808601519089015261014080860151898303828b015291945092509050610bd68382610ab4565b9250505061016080830151610bee8288018215159052565b50506101808083015186830382880152610c088382610ab4565b925050506101a08083015186830382880152610c248382610ab4565b6101c0948501519790940196909652505094870194925090860190600101610b07565b509098975050505050505050565b60008060408385031215610c6857600080fd5b610c7183610a4b565b946020939093013593505050565b634e487b7160e01b600052604160045260246000fd5b634e487b7160e01b600052603260045260246000fd5b6040516101e0810167ffffffffffffffff81118282101715610ccf57610ccf610c7f565b60405290565b600082601f830112610ce657600080fd5b815167ffffffffffffffff80821115610d0157610d01610c7f565b604051601f8301601f19908116603f01168101908282118183101715610d2957610d29610c7f565b81604052838152866020858801011115610d4257600080fd5b610d53846020830160208901610a84565b9695505050505050565b805180151581146101d357600080fd5b600060208284031215610d7f57600080fd5b815167ffffffffffffffff80821115610d9757600080fd5b908301906101e08286031215610dac57600080fd5b610db4610cab565b82518152602083015182811115610dca57600080fd5b610dd687828601610cd5565b602083015250604083015182811115610dee57600080fd5b610dfa87828601610cd5565b604083015250606083015182811115610e1257600080fd5b610e1e87828601610cd5565b606083015250608083015182811115610e3657600080fd5b610e4287828601610cd5565b60808301525060a083015160a082015260c083015160c082015260e083015160e08201526101008084015181830152506101208084015181830152506101408084015183811115610e9257600080fd5b610e9e88828701610cd5565b828401525050610160610eb2818501610d5d565b908201526101808381015183811115610eca57600080fd5b610ed688828701610cd5565b8284015250506101a08084015183811115610ef057600080fd5b610efc88828701610cd5565b91830191909152506101c09283015192810192909252509392505050565b600060018201610f3a57634e487b7160e01b600052601160045260246000fd5b5060010190565b604080825283519082018190526000906020906060840190828701845b82811015610f835781516001600160a01b031684529284019290840190600101610f5e565b5050506001600160a01b039490941692019190915250919050565b600060208284031215610fb057600080fd5b610a7d82610d5d56fea2646970667358221220296830e1f5adcefdcae267654383b1fb1901dcfd3d2f3bfa22c9fa1123b68ff564736f6c634300080f0033a26469706673582212200d250ca3b3a20402f753f7161519d4012d5913cfd275053acaafd5990f01892864736f6c634300080f0033608060405234801561001057600080fd5b5061001a3361001f565b61006f565b600080546001600160a01b038381166001600160a01b0319831681178455604051919092169283917f8be0079c531659141344cd1fd0a4f28419497f9722a3daafe3b4186f6b6457e09190a35050565b6141da8061007e6000396000f3fe60806040523480156200001157600080fd5b50600436106200009f5760003560e01c806380109fea116200006e57806380109fea14620001215780638da5cb5b146200013a57806399614c10146200014c5780639a9d793c1462000163578063f2fde38b146200017a57600080fd5b80632b07ac4c14620000a457806362182b1414620000bd578063715018a614620000f15780637d6a24ab14620000fb575b600080fd5b620000bb620000b5366004620012af565b62000191565b005b620000d4620000ce366004620013ea565b62000257565b6040516001600160a01b0390911681526020015b60405180910390f35b620000bb62000398565b620001126200010c36600462001404565b620003b0565b604051620000e8919062001488565b6200012b6200066f565b604051908152602001620000e8565b6000546001600160a01b0316620000d4565b620000bb6200015d3660046200160e565b62000682565b620000bb6200017436600462001687565b62000767565b620000bb6200018b366004620017bd565b62000ef6565b60006200019f600162000f75565b9050600081338b8b8b8b8b8b8b8b604051620001bb90620011a3565b620001d09a99989796959493929190620017e8565b604051809103906000f080158015620001ed573d6000803e3d6000fd5b509050620001fe6001838362000f88565b50336001600160a01b0316827f28522faef084eaf14884ca4dfb443eec1792a46a067e8af55ada5cd7e1cd03728c89888a8f60405162000243959493929190620018b2565b60405180910390a350505050505050505050565b60006200026362000fa8565b816200027160018262001004565b620002b35760405162461bcd60e51b815260206004820152600d60248201526c105c1c081b9bdd08199bdd5b99609a1b60448201526064015b60405180910390fd5b620002c060018262001012565b6040516386bd3f9160e01b81526001600160a01b03909116600482015273__$0fa02d6a67b7b0d0756a7e3fbaa86f03ef$__906386bd3f9190602401602060405180830381865af41580156200031a573d6000803e3d6000fd5b505050506040513d601f19601f820116820180604052508101906200034091906200192f565b15620003845760405162461bcd60e51b815260206004820152601260248201527141707020646f656e7327742065786973747360701b6044820152606401620002aa565b6200039160018462001012565b9392505050565b620003a262000fa8565b620003ae600062001020565b565b6060828260008111620003f75760405162461bcd60e51b815260206004820152600e60248201526d092dcecc2d8d2c840d8cadccee8d60931b6044820152606401620002aa565b62000403600162000f75565b8210620004435760405162461bcd60e51b815260206004820152600d60248201526c092dcecc2d8d2c840d2dcc8caf609b1b6044820152606401620002aa565b600062000451600162000f75565b9050600081861062000464578162000466565b855b905060008167ffffffffffffffff811115620004865762000486620011b1565b6040519080825280602002602001820160405280156200053557816020015b62000521604051806101e0016040528060008152602001606081526020016060815260200160608152602001606081526020016000815260200160008152602001600081526020016000815260200160008152602001606081526020016000151581526020016060815260200160608152602001600081525090565b815260200190600190039081620004a55790505b509050868211158015620005495750828211155b620005885760405162461bcd60e51b815260206004820152600e60248201526d1b5a5b9a5b5d5b4819985a5b195960921b6044820152606401620002aa565b60005b828110156200066357600084620005a3838c62001963565b620005af91906200197e565b90506000620005c060018362001012565b9050806001600160a01b031663e26799ff6040518163ffffffff1660e01b8152600401600060405180830381865afa15801562000601573d6000803e3d6000fd5b505050506040513d6000823e601f3d908101601f191682016040526200062b9190810190620019ed565b84848151811062000640576200064062001bb6565b6020026020010181905250505080806200065a9062001bcc565b9150506200058b565b50979650505050505050565b60006200067d600162000f75565b905090565b60006200069160018562001012565b60405163385c7ec960e11b815260048101859052602481018490529091508190600090819081906001600160a01b038516906370b8fd92906044016060604051808303816000875af1158015620006ec573d6000803e3d6000fd5b505050506040513d601f19601f8201168201806040525081019062000712919062001be8565b6040805184815260208101849052908101829052929550909350915088907f4686fd5d77ea9a1984201e56edd878f506e82fdb6401d0bf70543d172ef37a739060600160405180910390a25050505050505050565b6200077162000fa8565b60006200078060018e62001012565b905087878080601f016020809104026020016040519081016040528093929190818152602001838380828437600092019190915250506040516303a2cc9560e51b815273__$43b582c4148e270e665a68eb9bc2d25dde$__9363745992a09350620007f092509060040162001c17565b602060405180830381865af41580156200080e573d6000803e3d6000fd5b505050506040513d601f19601f820116820180604052508101906200083491906200192f565b80620008ed575082828080601f016020809104026020016040519081016040528093929190818152602001838380828437600092019190915250506040516303a2cc9560e51b815273__$43b582c4148e270e665a68eb9bc2d25dde$__9363745992a09350620008a992509060040162001c17565b602060405180830381865af4158015620008c7573d6000803e3d6000fd5b505050506040513d601f19601f82011682018060405250810190620008ed91906200192f565b1562000b2c5787878080601f016020809104026020016040519081016040528093929190818152602001838380828437600092019190915250506040516303a2cc9560e51b815273__$43b582c4148e270e665a68eb9bc2d25dde$__9363745992a093506200096192509060040162001c17565b602060405180830381865af41580156200097f573d6000803e3d6000fd5b505050506040513d601f19601f82011682018060405250810190620009a591906200192f565b801562000a5f575082828080601f016020809104026020016040519081016040528093929190818152602001838380828437600092019190915250506040516303a2cc9560e51b815273__$43b582c4148e270e665a68eb9bc2d25dde$__9363745992a0935062000a1b92509060040162001c17565b602060405180830381865af415801562000a39573d6000803e3d6000fd5b505050506040513d601f19601f8201168201806040525081019062000a5f91906200192f565b62000ac35760405162461bcd60e51b815260206004820152602d60248201527f4d7573742070726f7669646520626f7468206d61676e6574206c696e6b20616e60448201526c32103334b6329039b430991a9b60991b6064820152608401620002aa565b604051633f7ca45d60e11b81526001600160a01b03821690637ef948ba9062000af790869086908d908d9060040162001c55565b600060405180830381600087803b15801562000b1257600080fd5b505af115801562000b27573d6000803e3d6000fd5b505050505b8b8b8080601f016020809104026020016040519081016040528093929190818152602001838380828437600092019190915250506040516303a2cc9560e51b815273__$43b582c4148e270e665a68eb9bc2d25dde$__9363745992a0935062000b9a92509060040162001c17565b602060405180830381865af415801562000bb8573d6000803e3d6000fd5b505050506040513d601f19601f8201168201806040525081019062000bde91906200192f565b1562000c49576040516381ecdf4560e01b81526001600160a01b038216906381ecdf459062000c14908f908f9060040162001c8b565b600060405180830381600087803b15801562000c2f57600080fd5b505af115801562000c44573d6000803e3d6000fd5b505050505b89898080601f016020809104026020016040519081016040528093929190818152602001838380828437600092019190915250506040516303a2cc9560e51b815273__$43b582c4148e270e665a68eb9bc2d25dde$__9363745992a0935062000cb792509060040162001c17565b602060405180830381865af415801562000cd5573d6000803e3d6000fd5b505050506040513d601f19601f8201168201806040525081019062000cfb91906200192f565b1562000d665760405163fafb1b0160e01b81526001600160a01b0382169063fafb1b019062000d31908d908d9060040162001c8b565b600060405180830381600087803b15801562000d4c57600080fd5b505af115801562000d61573d6000803e3d6000fd5b505050505b85858080601f016020809104026020016040519081016040528093929190818152602001838380828437600092019190915250506040516303a2cc9560e51b815273__$43b582c4148e270e665a68eb9bc2d25dde$__9363745992a0935062000dd492509060040162001c17565b602060405180830381865af415801562000df2573d6000803e3d6000fd5b505050506040513d601f19601f8201168201806040525081019062000e1891906200192f565b1562000e8357604051634ad3d57d60e01b81526001600160a01b03821690634ad3d57d9062000e4e908990899060040162001c8b565b600060405180830381600087803b15801562000e6957600080fd5b505af115801562000e7e573d6000803e3d6000fd5b505050505b831562000ee75760405163e9cd36d360e01b8152600481018590526001600160a01b0382169063e9cd36d390602401600060405180830381600087803b15801562000ecd57600080fd5b505af115801562000ee2573d6000803e3d6000fd5b505050505b50505050505050505050505050565b62000f0062000fa8565b6001600160a01b03811662000f675760405162461bcd60e51b815260206004820152602660248201527f4f776e61626c653a206e6577206f776e657220697320746865207a65726f206160448201526564647265737360d01b6064820152608401620002aa565b62000f728162001020565b50565b600062000f828262001070565b92915050565b600062000fa084846001600160a01b0385166200107d565b949350505050565b6000546001600160a01b03163314620003ae5760405162461bcd60e51b815260206004820181905260248201527f4f776e61626c653a2063616c6c6572206973206e6f7420746865206f776e65726044820152606401620002aa565b60006200039183836200109c565b6000620003918383620010aa565b600080546001600160a01b038381166001600160a01b0319831681178455604051919092169283917f8be0079c531659141344cd1fd0a4f28419497f9722a3daafe3b4186f6b6457e09190a35050565b600062000f82826200111f565b6000828152600284016020526040812082905562000fa084846200112a565b600062000391838362001138565b600081815260028301602052604081205480151580620010d15750620010d184846200109c565b620003915760405162461bcd60e51b815260206004820152601e60248201527f456e756d657261626c654d61703a206e6f6e6578697374656e74206b657900006044820152606401620002aa565b600062000f82825490565b600062000391838362001151565b6000818152600183016020526040812054151562000391565b60008181526001830160205260408120546200119a5750815460018181018455600084815260208082209093018490558454848252828601909352604090209190915562000f82565b50600062000f82565b6125038062001ca283390190565b634e487b7160e01b600052604160045260246000fd5b6040516101e0810167ffffffffffffffff81118282101715620011ee57620011ee620011b1565b60405290565b604051601f8201601f1916810167ffffffffffffffff81118282101715620012205762001220620011b1565b604052919050565b600067ffffffffffffffff821115620012455762001245620011b1565b50601f01601f191660200190565b600082601f8301126200126557600080fd5b81356200127c620012768262001228565b620011f4565b8181528460208386010111156200129257600080fd5b816020850160208301376000918101602001919091529392505050565b600080600080600080600080610100898b031215620012cd57600080fd5b883567ffffffffffffffff80821115620012e657600080fd5b620012f48c838d0162001253565b995060208b01359150808211156200130b57600080fd5b620013198c838d0162001253565b985060408b01359150808211156200133057600080fd5b6200133e8c838d0162001253565b975060608b01359150808211156200135557600080fd5b620013638c838d0162001253565b965060808b01359150808211156200137a57600080fd5b620013888c838d0162001253565b955060a08b0135945060c08b0135915080821115620013a657600080fd5b620013b48c838d0162001253565b935060e08b0135915080821115620013cb57600080fd5b50620013da8b828c0162001253565b9150509295985092959890939650565b600060208284031215620013fd57600080fd5b5035919050565b600080604083850312156200141857600080fd5b50508035926020909101359150565b60005b83811015620014445781810151838201526020016200142a565b8381111562001454576000848401525b50505050565b600081518084526200147481602086016020860162001427565b601f01601f19169290920160200192915050565b60006020808301818452808551808352604092508286019150828160051b87010184880160005b838110156200160057603f1989840301855281516101e08151855288820151818a870152620014e1828701826200145a565b9150508782015185820389870152620014fb82826200145a565b915050606080830151868303828801526200151783826200145a565b92505050608080830151868303828801526200153483826200145a565b60a0858101519089015260c0808601519089015260e080860151908901526101008086015190890152610120808601519089015261014080860151898303828b0152919450925090506200158983826200145a565b9250505061016080830151620015a28288018215159052565b50506101808083015186830382880152620015be83826200145a565b925050506101a08083015186830382880152620015dc83826200145a565b6101c0948501519790940196909652505094870194925090860190600101620014af565b509098975050505050505050565b6000806000606084860312156200162457600080fd5b505081359360208301359350604090920135919050565b60008083601f8401126200164e57600080fd5b50813567ffffffffffffffff8111156200166757600080fd5b6020830191508360208285010111156200168057600080fd5b9250929050565b60008060008060008060008060008060008060e08d8f031215620016aa57600080fd5b8c359b5067ffffffffffffffff60208e01351115620016c857600080fd5b620016da8e60208f01358f016200163b565b909b50995067ffffffffffffffff60408e01351115620016f957600080fd5b6200170b8e60408f01358f016200163b565b909950975067ffffffffffffffff60608e013511156200172a57600080fd5b6200173c8e60608f01358f016200163b565b909750955067ffffffffffffffff60808e013511156200175b57600080fd5b6200176d8e60808f01358f016200163b565b909550935060a08d0135925067ffffffffffffffff60c08e013511156200179357600080fd5b620017a58e60c08f01358f016200163b565b81935080925050509295989b509295989b509295989b565b600060208284031215620017d057600080fd5b81356001600160a01b03811681146200039157600080fd5b8a81526001600160a01b038a16602082015261014060408201819052600090620018158382018c6200145a565b905082810360608401526200182b818b6200145a565b9050828103608084015262001841818a6200145a565b905082810360a08401526200185781896200145a565b905082810360c08401526200186d81886200145a565b90508560e08401528281036101008401526200188a81866200145a565b9050828103610120840152620018a181856200145a565b9d9c50505050505050505050505050565b60a081526000620018c760a08301886200145a565b8281036020840152620018db81886200145a565b90508281036040840152620018f181876200145a565b905084606084015282810360808401526200190d81856200145a565b98975050505050505050565b805180151581146200192a57600080fd5b919050565b6000602082840312156200194257600080fd5b620003918262001919565b634e487b7160e01b600052601160045260246000fd5b600082198211156200197957620019796200194d565b500190565b6000826200199c57634e487b7160e01b600052601260045260246000fd5b500690565b600082601f830112620019b357600080fd5b8151620019c4620012768262001228565b818152846020838601011115620019da57600080fd5b62000fa082602083016020870162001427565b60006020828403121562001a0057600080fd5b815167ffffffffffffffff8082111562001a1957600080fd5b908301906101e0828603121562001a2f57600080fd5b62001a39620011c7565b8251815260208301518281111562001a5057600080fd5b62001a5e87828601620019a1565b60208301525060408301518281111562001a7757600080fd5b62001a8587828601620019a1565b60408301525060608301518281111562001a9e57600080fd5b62001aac87828601620019a1565b60608301525060808301518281111562001ac557600080fd5b62001ad387828601620019a1565b60808301525060a083015160a082015260c083015160c082015260e083015160e0820152610100808401518183015250610120808401518183015250610140808401518381111562001b2457600080fd5b62001b3288828701620019a1565b82840152505061016062001b4881850162001919565b90820152610180838101518381111562001b6157600080fd5b62001b6f88828701620019a1565b8284015250506101a0808401518381111562001b8a57600080fd5b62001b9888828701620019a1565b91830191909152506101c09283015192810192909252509392505050565b634e487b7160e01b600052603260045260246000fd5b60006001820162001be15762001be16200194d565b5060010190565b60008060006060848603121562001bfe57600080fd5b8351925060208401519150604084015190509250925092565b6020815260006200039160208301846200145a565b81835281816020850137506000828201602090810191909152601f909101601f19169091010190565b60408152600062001c6b60408301868862001c2c565b828103602084015262001c8081858762001c2c565b979650505050505050565b60208152600062000fa060208301848662001c2c56fe60806040523480156200001157600080fd5b5060405162002503380380620025038339810160408190526200003491620006b1565b6200003f3362000564565b896200004f565b60405180910390fd5b8360008111620000a25760405162461bcd60e51b815260206004820152601c60248201527f5072696365206d7573742062652067726561746572207468616e203000000000604482015260640162000046565b60405163139a0e4560e11b81528a9073__$43b582c4148e270e665a68eb9bc2d25dde$__906327341c8a90620000dd9084906004016200080a565b602060405180830381865af4158015620000fb573d6000803e3d6000fd5b505050506040513d601f19601f820116820180604052508101906200012191906200083f565b156200015f5760405162461bcd60e51b815260206004820152601860248201526000805160206200244e833981519152604482015260640162000046565b60405163139a0e4560e11b8152899073__$43b582c4148e270e665a68eb9bc2d25dde$__906327341c8a906200019a9084906004016200080a565b602060405180830381865af4158015620001b8573d6000803e3d6000fd5b505050506040513d601f19601f82011682018060405250810190620001de91906200083f565b156200021c5760405162461bcd60e51b815260206004820152601860248201526000805160206200244e833981519152604482015260640162000046565b60405163139a0e4560e11b8152869073__$43b582c4148e270e665a68eb9bc2d25dde$__906327341c8a90620002579084906004016200080a565b602060405180830381865af415801562000275573d6000803e3d6000fd5b505050506040513d601f19601f820116820180604052508101906200029b91906200083f565b15620002d95760405162461bcd60e51b815260206004820152601860248201526000805160206200244e833981519152604482015260640162000046565b60405163139a0e4560e11b8152869073__$43b582c4148e270e665a68eb9bc2d25dde$__906327341c8a90620003149084906004016200080a565b602060405180830381865af415801562000332573d6000803e3d6000fd5b505050506040513d601f19601f820116820180604052508101906200035891906200083f565b15620003965760405162461bcd60e51b815260206004820152601860248201526000805160206200244e833981519152604482015260640162000046565b8e600260006101000a8154816001600160a01b0302191690836001600160a01b031602179055508f6001819055508d60039081620003d59190620008f9565b506004620003e48e82620008f9565b506006620003f38d82620008f9565b506007620004028c82620008f9565b5060405163139a0e4560e11b815273__$43b582c4148e270e665a68eb9bc2d25dde$__906327341c8a906200043c908e906004016200080a565b602060405180830381865af41580156200045a573d6000803e3d6000fd5b505050506040513d601f19601f820116820180604052508101906200048091906200083f565b15620004b1576040518060c00160405280609581526020016200246e60959139600790620004af9082620008f9565b505b6008620004bf8b82620008f9565b5060006009819055600a819055600b8a90556005805460018101825591527f036b6384b5eca791c62761152d0c79bb0604c104a5fb6f4eb0703f3154bb3db0016200050b8882620008f9565b5062000523600e620005b460201b6200123e1760201c565b6200053a600f620005b460201b6200123e1760201c565b600c620005488982620008f9565b505042600d5550620009c59d5050505050505050505050505050565b600080546001600160a01b038381166001600160a01b0319831681178455604051919092169283917f8be0079c531659141344cd1fd0a4f28419497f9722a3daafe3b4186f6b6457e09190a35050565b60009055565b80516001600160a01b0381168114620005d257600080fd5b919050565b634e487b7160e01b600052604160045260246000fd5b60005b838110156200060a578181015183820152602001620005f0565b838111156200061a576000848401525b50505050565b600082601f8301126200063257600080fd5b81516001600160401b03808211156200064f576200064f620005d7565b604051601f8301601f19908116603f011681019082821181831017156200067a576200067a620005d7565b816040528381528660208588010111156200069457600080fd5b620006a7846020830160208901620005ed565b9695505050505050565b6000806000806000806000806000806101408b8d031215620006d257600080fd5b8a519950620006e460208c01620005ba565b60408c01519099506001600160401b03808211156200070257600080fd5b620007108e838f0162000620565b995060608d01519150808211156200072757600080fd5b620007358e838f0162000620565b985060808d01519150808211156200074c57600080fd5b6200075a8e838f0162000620565b975060a08d01519150808211156200077157600080fd5b6200077f8e838f0162000620565b965060c08d01519150808211156200079657600080fd5b620007a48e838f0162000620565b955060e08d015194506101008d0151915080821115620007c357600080fd5b620007d18e838f0162000620565b93506101208d0151915080821115620007e957600080fd5b50620007f88d828e0162000620565b9150509295989b9194979a5092959850565b60208152600082518060208401526200082b816040850160208701620005ed565b601f01601f19169190910160400192915050565b6000602082840312156200085257600080fd5b815180151581146200086357600080fd5b9392505050565b600181811c908216806200087f57607f821691505b602082108103620008a057634e487b7160e01b600052602260045260246000fd5b50919050565b601f821115620008f457600081815260208120601f850160051c81016020861015620008cf5750805b601f850160051c820191505b81811015620008f057828155600101620008db565b5050505b505050565b81516001600160401b03811115620009155762000915620005d7565b6200092d816200092684546200086a565b84620008a6565b602080601f8311600181146200096557600084156200094c5750858301515b600019600386901b1c1916600185901b178555620008f0565b600085815260208120601f198616915b82811015620009965788860151825594840194600190910190840162000975565b5085821015620009b55787850151600019600388901b60f8161c191681555b5050505050600190811b01905550565b611a7980620009d56000396000f3fe608060405234801561001057600080fd5b506004361061014d5760003560e01c80638da5cb5b116100c3578063e26799ff1161007c578063e26799ff1461028a578063e9cd36d31461029f578063f22b0127146102b2578063f2fde38b146102c5578063fabec44a146102d8578063fafb1b01146102e057600080fd5b80638da5cb5b1461024d578063a035b1fe1461025e578063a512bd7914610267578063af640d0f1461026f578063d23fe7c714610278578063d68387c71461028257600080fd5b806370b8fd921161011557806370b8fd92146101cc578063715018a6146101fa5780637284e4161461020257806373b8fc801461020a5780637ef948ba1461022757806381ecdf451461023a57600080fd5b806302d05d3f1461015257806306fdde031461018257806334b1a7cc146101975780634ad3d57d146101af5780636904c94d146101c4575b600080fd5b600254610165906001600160a01b031681565b6040516001600160a01b0390911681526020015b60405180910390f35b61018a6102f3565b60405161017991906113b3565b600f546101a19081565b604051908152602001610179565b6101c26101bd366004611416565b610381565b005b61018a610468565b6101df6101da366004611458565b610475565b60408051938452602084019290925290820152606001610179565b6101c261053a565b61018a61054e565b61021261055b565b60408051928352602083019190915201610179565b6101c2610235366004611490565b61057d565b6101c2610248366004611416565b610731565b6000546001600160a01b0316610165565b6101a1600b5481565b61018a610809565b6101a160015481565b600e546101a19081565b61018a610816565b610292610823565b604051610179919061156b565b6101c26102ad3660046116b5565b610bf1565b6102926102c03660046116dc565b610c48565b6101c26102d3366004611708565b611031565b61018a6110aa565b6101c26102ee366004611416565b611166565b6003805461030090611731565b80601f016020809104026020016040519081016040528092919081815260200182805461032c90611731565b80156103795780601f1061034e57610100808354040283529160200191610379565b820191906000526020600020905b81548152906001019060200180831161035c57829003601f168201915b505050505081565b81818080601f0160208091040260200160405190810160405280939291908181526020018383808284376000920191909152505060405163139a0e4560e11b815273__$43b582c4148e270e665a68eb9bc2d25dde$__92506327341c8a91506103ee9084906004016113b3565b602060405180830381865af415801561040b573d6000803e3d6000fd5b505050506040513d601f19601f8201168201806040525081019061042f919061176b565b156104555760405162461bcd60e51b815260040161044c90611788565b60405180910390fd5b600761046283858361180a565b50505050565b6008805461030090611731565b6000806000610482611244565b83600581111561049157600080fd5b8560058111156104a057600080fd5b6000600a546104ae600e5490565b6009546104bb91906118e1565b6104c59190611900565b9050866000036104dd576104dd600e80546001019055565b6104e78882611900565b90506104f38782611918565b90506104fe600e5490565b6105089082611945565b600955600e546105189082611959565b600a8190556009549061052a600e5490565b9550955095505050509250925092565b610542611244565b61054c600061129e565b565b6004805461030090611731565b6000806000600954116105715750600091829150565b5050600954600a549091565b60405163139a0e4560e11b8152839073__$43b582c4148e270e665a68eb9bc2d25dde$__906327341c8a906105b69084906004016113b3565b602060405180830381865af41580156105d3573d6000803e3d6000fd5b505050506040513d601f19601f820116820180604052508101906105f7919061176b565b156106145760405162461bcd60e51b815260040161044c90611788565b82828080601f0160208091040260200160405190810160405280939291908181526020018383808284376000920191909152505060405163139a0e4560e11b815273__$43b582c4148e270e665a68eb9bc2d25dde$__92506327341c8a91506106819084906004016113b3565b602060405180830381865af415801561069e573d6000803e3d6000fd5b505050506040513d601f19601f820116820180604052508101906106c2919061176b565b156106df5760405162461bcd60e51b815260040161044c90611788565b60066106ec84868361180a565b50600580546001810182556000919091527f036b6384b5eca791c62761152d0c79bb0604c104a5fb6f4eb0703f3154bb3db001610729868261196d565b505050505050565b81818080601f0160208091040260200160405190810160405280939291908181526020018383808284376000920191909152505060405163139a0e4560e11b815273__$43b582c4148e270e665a68eb9bc2d25dde$__92506327341c8a915061079e9084906004016113b3565b602060405180830381865af41580156107bb573d6000803e3d6000fd5b505050506040513d601f19601f820116820180604052508101906107df919061176b565b156107fc5760405162461bcd60e51b815260040161044c90611788565b600361046283858361180a565b6006805461030090611731565b6007805461030090611731565b61082b6112ee565b6000604051806101e0016040528060015481526020016003805461084e90611731565b80601f016020809104026020016040519081016040528092919081815260200182805461087a90611731565b80156108c75780601f1061089c576101008083540402835291602001916108c7565b820191906000526020600020905b8154815290600101906020018083116108aa57829003601f168201915b50505050508152602001600480546108de90611731565b80601f016020809104026020016040519081016040528092919081815260200182805461090a90611731565b80156109575780601f1061092c57610100808354040283529160200191610957565b820191906000526020600020905b81548152906001019060200180831161093a57829003601f168201915b505050505081526020016007805461096e90611731565b80601f016020809104026020016040519081016040528092919081815260200182805461099a90611731565b80156109e75780601f106109bc576101008083540402835291602001916109e7565b820191906000526020600020905b8154815290600101906020018083116109ca57829003601f168201915b50505050508152602001600880546109fe90611731565b80601f0160208091040260200160405190810160405280929190818152602001828054610a2a90611731565b8015610a775780601f10610a4c57610100808354040283529160200191610a77565b820191906000526020600020905b815481529060010190602001808311610a5a57829003601f168201915b50505050508152602001600b548152602001610a92600e5490565b81526020016009548152602001600a54815260200160008152602001610ab66110aa565b815260200160011515815260200160068054610ad190611731565b80601f0160208091040260200160405190810160405280929190818152602001828054610afd90611731565b8015610b4a5780601f10610b1f57610100808354040283529160200191610b4a565b820191906000526020600020905b815481529060010190602001808311610b2d57829003601f168201915b50505050508152602001600c8054610b6190611731565b80601f0160208091040260200160405190810160405280929190818152602001828054610b8d90611731565b8015610bda5780601f10610baf57610100808354040283529160200191610bda565b820191906000526020600020905b815481529060010190602001808311610bbd57829003601f168201915b5050509183525050600d5460209091015292915050565b8060008111610c425760405162461bcd60e51b815260206004820152601c60248201527f5072696365206d7573742062652067726561746572207468616e203000000000604482015260640161044c565b50600b55565b610c506112ee565b6000604051806101e00160405280600154815260200160038054610c7390611731565b80601f0160208091040260200160405190810160405280929190818152602001828054610c9f90611731565b8015610cec5780601f10610cc157610100808354040283529160200191610cec565b820191906000526020600020905b815481529060010190602001808311610ccf57829003601f168201915b5050505050815260200160048054610d0390611731565b80601f0160208091040260200160405190810160405280929190818152602001828054610d2f90611731565b8015610d7c5780601f10610d5157610100808354040283529160200191610d7c565b820191906000526020600020905b815481529060010190602001808311610d5f57829003601f168201915b5050505050815260200160078054610d9390611731565b80601f0160208091040260200160405190810160405280929190818152602001828054610dbf90611731565b8015610e0c5780601f10610de157610100808354040283529160200191610e0c565b820191906000526020600020905b815481529060010190602001808311610def57829003601f168201915b5050505050815260200160088054610e2390611731565b80601f0160208091040260200160405190810160405280929190818152602001828054610e4f90611731565b8015610e9c5780601f10610e7157610100808354040283529160200191610e9c565b820191906000526020600020905b815481529060010190602001808311610e7f57829003601f168201915b50505050508152602001600b548152602001610eb7600e5490565b81526020016009548152602001600a548152602001848152602001610eda6110aa565b8152602001851515815260200185610f015760405180602001604052806000815250610f8d565b60068054610f0e90611731565b80601f0160208091040260200160405190810160405280929190818152602001828054610f3a90611731565b8015610f875780601f10610f5c57610100808354040283529160200191610f87565b820191906000526020600020905b815481529060010190602001808311610f6a57829003601f168201915b50505050505b8152602001600c8054610f9f90611731565b80601f0160208091040260200160405190810160405280929190818152602001828054610fcb90611731565b80156110185780601f10610fed57610100808354040283529160200191611018565b820191906000526020600020905b815481529060010190602001808311610ffb57829003601f168201915b5050509183525050600d54602090910152949350505050565b611039611244565b6001600160a01b03811661109e5760405162461bcd60e51b815260206004820152602660248201527f4f776e61626c653a206e6577206f776e657220697320746865207a65726f206160448201526564647265737360d01b606482015260840161044c565b6110a78161129e565b50565b60058054606091906110be90600190611918565b815481106110ce576110ce611a2d565b9060005260206000200180546110e390611731565b80601f016020809104026020016040519081016040528092919081815260200182805461110f90611731565b801561115c5780601f106111315761010080835404028352916020019161115c565b820191906000526020600020905b81548152906001019060200180831161113f57829003601f168201915b5050505050905090565b81818080601f0160208091040260200160405190810160405280939291908181526020018383808284376000920191909152505060405163139a0e4560e11b815273__$43b582c4148e270e665a68eb9bc2d25dde$__92506327341c8a91506111d39084906004016113b3565b602060405180830381865af41580156111f0573d6000803e3d6000fd5b505050506040513d601f19601f82011682018060405250810190611214919061176b565b156112315760405162461bcd60e51b815260040161044c90611788565b600461046283858361180a565b60009055565b6000546001600160a01b0316331461054c5760405162461bcd60e51b815260206004820181905260248201527f4f776e61626c653a2063616c6c6572206973206e6f7420746865206f776e6572604482015260640161044c565b600080546001600160a01b038381166001600160a01b0319831681178455604051919092169283917f8be0079c531659141344cd1fd0a4f28419497f9722a3daafe3b4186f6b6457e09190a35050565b604051806101e0016040528060008152602001606081526020016060815260200160608152602001606081526020016000815260200160008152602001600081526020016000815260200160008152602001606081526020016000151581526020016060815260200160608152602001600081525090565b6000815180845260005b8181101561138c57602081850181015186830182015201611370565b8181111561139e576000602083870101525b50601f01601f19169290920160200192915050565b6020815260006113c66020830184611366565b9392505050565b60008083601f8401126113df57600080fd5b50813567ffffffffffffffff8111156113f757600080fd5b60208301915083602082850101111561140f57600080fd5b9250929050565b6000806020838503121561142957600080fd5b823567ffffffffffffffff81111561144057600080fd5b61144c858286016113cd565b90969095509350505050565b6000806040838503121561146b57600080fd5b50508035926020909101359150565b634e487b7160e01b600052604160045260246000fd5b6000806000604084860312156114a557600080fd5b833567ffffffffffffffff808211156114bd57600080fd5b818601915086601f8301126114d157600080fd5b8135818111156114e3576114e361147a565b604051601f8201601f19908116603f0116810190838211818310171561150b5761150b61147a565b8160405282815289602084870101111561152457600080fd5b82602086016020830137600060208483010152809750505050602086013591508082111561155157600080fd5b5061155e868287016113cd565b9497909650939450505050565b6020815281516020820152600060208301516101e0806040850152611594610200850183611366565b91506040850151601f19808685030160608701526115b28483611366565b935060608701519150808685030160808701526115cf8483611366565b935060808701519150808685030160a08701526115ec8483611366565b935060a087015160c087015260c087015160e087015260e0870151915061010082818801528088015192505061012082818801528088015192505061014082818801528088015192505061016081878603018188015261164c8584611366565b9450808801519250506101806116658188018415159052565b808801519250506101a08187860301818801526116828584611366565b9450808801519250506101c08187860301818801526116a18584611366565b970151959092019490945250929392505050565b6000602082840312156116c757600080fd5b5035919050565b80151581146110a757600080fd5b600080604083850312156116ef57600080fd5b82356116fa816116ce565b946020939093013593505050565b60006020828403121561171a57600080fd5b81356001600160a01b03811681146113c657600080fd5b600181811c9082168061174557607f821691505b60208210810361176557634e487b7160e01b600052602260045260246000fd5b50919050565b60006020828403121561177d57600080fd5b81516113c6816116ce565b60208082526018908201527f537472696e67206d757374206e6f7420626520656d7074790000000000000000604082015260600190565b601f82111561180557600081815260208120601f850160051c810160208610156117e65750805b601f850160051c820191505b81811015610729578281556001016117f2565b505050565b67ffffffffffffffff8311156118225761182261147a565b611836836118308354611731565b836117bf565b6000601f84116001811461186a57600085156118525750838201355b600019600387901b1c1916600186901b1783556118c4565b600083815260209020601f19861690835b8281101561189b578685013582556020948501946001909201910161187b565b50868210156118b85760001960f88860031b161c19848701351681555b505060018560011b0183555b5050505050565b634e487b7160e01b600052601160045260246000fd5b60008160001904831182151516156118fb576118fb6118cb565b500290565b60008219821115611913576119136118cb565b500190565b60008282101561192a5761192a6118cb565b500390565b634e487b7160e01b600052601260045260246000fd5b6000826119545761195461192f565b500490565b6000826119685761196861192f565b500690565b815167ffffffffffffffff8111156119875761198761147a565b61199b816119958454611731565b846117bf565b602080601f8311600181146119d057600084156119b85750858301515b600019600386901b1c1916600185901b178555610729565b600085815260208120601f198616915b828110156119ff578886015182559484019460019091019084016119e0565b5085821015611a1d5787850151600019600388901b60f8161c191681555b5050505050600190811b01905550565b634e487b7160e01b600052603260045260246000fdfea26469706673582212200f9e2f64084f1e04f4ce56f2cd84c5c467535dc57e54d5d664c1a15633c1414f64736f6c634300080f0033537472696e67206d757374206e6f7420626520656d707479000000000000000068747470733a2f2f65787465726e616c2d636f6e74656e742e6475636b6475636b676f2e636f6d2f69752f3f753d6874747073253341253246253246692e70696e696d672e636f6d2532466f726967696e616c7325324632302532463065253246663825324632303065663832623331383266663735626630623264653534393665363163662e6a706726663d31266e6f66623d31a264697066735822122033f91343b7b316c01cad246f24bde680a34297e2b213c78838f122ea137ab9dc64736f6c634300080f0033608060405234801561001057600080fd5b5061001a3361001f565b61006f565b600080546001600160a01b038381166001600160a01b0319831681178455604051919092169283917f8be0079c531659141344cd1fd0a4f28419497f9722a3daafe3b4186f6b6457e09190a35050565b6105cb8061007e6000396000f3fe608060405234801561001057600080fd5b506004361061004c5760003560e01c8063715018a61461005157806381cd080f1461005b5780638da5cb5b14610083578063f2fde38b1461009e575b600080fd5b6100596100b1565b005b61006e61006936600461040e565b6100c5565b60405190151581526020015b60405180910390f35b6000546040516001600160a01b03909116815260200161007a565b6100596100ac3660046104e9565b610179565b6100b96101f2565b6100c3600061024c565b565b6000806100d385600061029c565b905060006101178286868080601f01602080910402602001604051908101604052809392919081815260200183838082843760009201919091525061030192505050565b90506001600160a01b038116331461016d5760405162461bcd60e51b815260206004820152601460248201527339b2b73232b91034b9903737ba1039b4b3b732b960611b60448201526064015b60405180910390fd5b50600195945050505050565b6101816101f2565b6001600160a01b0381166101e65760405162461bcd60e51b815260206004820152602660248201527f4f776e61626c653a206e6577206f776e657220697320746865207a65726f206160448201526564647265737360d01b6064820152608401610164565b6101ef8161024c565b50565b6000546001600160a01b031633146100c35760405162461bcd60e51b815260206004820181905260248201527f4f776e61626c653a2063616c6c6572206973206e6f7420746865206f776e65726044820152606401610164565b600080546001600160a01b038381166001600160a01b0319831681178455604051919092169283917f8be0079c531659141344cd1fd0a4f28419497f9722a3daafe3b4186f6b6457e09190a35050565b60008060005b60208110156102f9576102b681600861052f565b856102c1838761054e565b815181106102d1576102d1610566565b01602001516001600160f81b031916901c9190911790806102f18161057c565b9150506102a2565b509392505050565b60008060008061031085610380565b6040805160008152602081018083528b905260ff8516918101919091526060810183905260808101829052929550909350915060019060a0016020604051602081039080840390855afa15801561036b573d6000803e3d6000fd5b5050604051601f190151979650505050505050565b6000806000835160411461039357600080fd5b5050506020810151604082015160609092015160001a92909190565b634e487b7160e01b600052604160045260246000fd5b60008083601f8401126103d757600080fd5b50813567ffffffffffffffff8111156103ef57600080fd5b60208301915083602082850101111561040757600080fd5b9250929050565b60008060006040848603121561042357600080fd5b833567ffffffffffffffff8082111561043b57600080fd5b818601915086601f83011261044f57600080fd5b813581811115610461576104616103af565b604051601f8201601f19908116603f01168101908382118183101715610489576104896103af565b816040528281528960208487010111156104a257600080fd5b8260208601602083013760006020848301015280975050505060208601359150808211156104cf57600080fd5b506104dc868287016103c5565b9497909650939450505050565b6000602082840312156104fb57600080fd5b81356001600160a01b038116811461051257600080fd5b9392505050565b634e487b7160e01b600052601160045260246000fd5b600081600019048311821515161561054957610549610519565b500290565b6000821982111561056157610561610519565b500190565b634e487b7160e01b600052603260045260246000fd5b60006001820161058e5761058e610519565b506001019056fea2646970667358221220ad01996abe10894baf155a38ac268a7ee2b753c8dd9788300b437b9fde54177564736f6c634300080f0033",
    "sourcePath": "c:/Users/User/Documents/GitHub/Backend/SmartContracts/contracts/DAppStore/DAppStore2.sol",
    "compiler": {
        "name": "solc",
        "version": "0.8.15+commit.e14f2714"
    },
    "functionHashes": {
        "rateApp(uint256,uint256)": "70b8fd92",
        "registerUser()": "4d3820eb"
    },
    "gasEstimates": {
        "creation": {
            "codeDepositCost": "167600",
            "executionCost": "infinite",
            "totalCost": "infinite"
        },
        "external": {
            "rateApp(uint256,uint256)": "236",
            "registerUser()": "infinite"
        }
    }
}