{
  "contractName": "AddressUtils",
  "abi": [
    {
      "inputs": [
        {
          "internalType": "address",
          "name": "_address",
          "type": "address"
        }
      ],
      "name": "isAddressZero",
      "outputs": [
        {
          "internalType": "bool",
          "name": "",
          "type": "bool"
        }
      ],
      "stateMutability": "pure",
      "type": "function"
    },
    {
      "inputs": [
        {
          "internalType": "address",
          "name": "_address1",
          "type": "address"
        },
        {
          "internalType": "address",
          "name": "_address2",
          "type": "address"
        }
      ],
      "name": "isEqual",
      "outputs": [
        {
          "internalType": "bool",
          "name": "",
          "type": "bool"
        }
      ],
      "stateMutability": "pure",
      "type": "function"
    }
  ],
  "bytecode": "0x61017d610053600b82828239805160001a607314610046577f4e487b7100000000000000000000000000000000000000000000000000000000600052600060045260246000fd5b30600052607381538281f3fe730000000000000000000000000000000000000000301460806040526004361061005c577c01000000000000000000000000000000000000000000000000000000006000350463685658bb811461006157806386bd3f91146100a1575b600080fd5b61008d61006f3660046100f2565b73ffffffffffffffffffffffffffffffffffffffff90811691161490565b604051901515815260200160405180910390f35b61008d6100af366004610125565b73ffffffffffffffffffffffffffffffffffffffff161590565b803573ffffffffffffffffffffffffffffffffffffffff811681146100ed57600080fd5b919050565b6000806040838503121561010557600080fd5b61010e836100c9565b915061011c602084016100c9565b90509250929050565b60006020828403121561013757600080fd5b610140826100c9565b939250505056fea2646970667358221220f1afb6fbcbb84f2c4d3c6d7f08365c48e77261a440e995288b9cdd4214f7553264736f6c634300080f0033",
  "immutableReferences": {},
  "source": "//SPDX-License-Identifier: UNLICENSED\r\npragma solidity ^0.8.15;\r\n\r\nlibrary AddressUtils{\r\n    function isAddressZero(address _address) pure external returns(bool){\r\n        return _address == address(0);\r\n    }\r\n    function isEqual(address _address1, address _address2) pure external returns(bool){\r\n        return _address1 == _address2;\r\n    }\r\n}\r\n\r\nlibrary AddressPayableUtils{\r\n    function isAddressZero(address payable _address) pure external returns(bool){\r\n        return _address == payable(address(0));\r\n    }\r\n    function isEqual(address payable _address1, address payable _address2) pure external returns(bool){\r\n        return _address1 == _address2;\r\n    }\r\n}",
  "sourcePath": "C:\\Users\\User\\Documents\\GitHub\\SmartContracts\\contracts\\Utils\\AddressUtils.sol",
  "compiler": {
    "name": "solc",
    "version": "0.8.15+commit.e14f2714.Emscripten.clang"
  },
  "schemaVersion": "3.4.8",
  "updatedAt": "2022-07-08T14:46:50.211Z",
  "devdoc": {
    "kind": "dev",
    "methods": {},
    "version": 1
  },
  "userdoc": {
    "kind": "user",
    "methods": {},
    "version": 1
  }
}