{
  "contractName": "AddressArrayUtils",
  "abi": [
    {
      "inputs": [
        {
          "internalType": "address[]",
          "name": "array",
          "type": "address[]"
        },
        {
          "internalType": "address",
          "name": "value",
          "type": "address"
        }
      ],
      "name": "contains",
      "outputs": [
        {
          "internalType": "bool",
          "name": "",
          "type": "bool"
        }
      ],
      "stateMutability": "pure",
      "type": "function"
    },
    {
      "inputs": [
        {
          "internalType": "address[]",
          "name": "array",
          "type": "address[]"
        },
        {
          "internalType": "address",
          "name": "value",
          "type": "address"
        }
      ],
      "name": "getIndex",
      "outputs": [
        {
          "internalType": "uint256",
          "name": "",
          "type": "uint256"
        }
      ],
      "stateMutability": "pure",
      "type": "function"
    }
  ],
  "bytecode": "0x61029e610053600b82828239805160001a607314610046577f4e487b7100000000000000000000000000000000000000000000000000000000600052600060045260246000fd5b30600052607381538281f3fe73000000000000000000000000000000000000000030146080604052600436106100435760e060020a60003504631c07c87f81146100485780633da80d661461006e575b600080fd5b61005b610056366004610185565b610091565b6040519081526020015b60405180910390f35b61008161007c366004610185565b610102565b6040519015158152602001610065565b6000805b838110156100f55782600160a060020a03168585838181106100b9576100b9610208565b90506020020160208101906100ce9190610222565b600160a060020a0316036100e35790506100fb565b806100ed8161023d565b915050610095565b50600090505b9392505050565b6000805b838110156100f55782600160a060020a031685858381811061012a5761012a610208565b905060200201602081019061013f9190610222565b600160a060020a0316036101575760019150506100fb565b806101618161023d565b915050610106565b8035600160a060020a038116811461018057600080fd5b919050565b60008060006040848603121561019a57600080fd5b833567ffffffffffffffff808211156101b257600080fd5b818601915086601f8301126101c657600080fd5b8135818111156101d557600080fd5b87602080830285010111156101e957600080fd5b6020928301955093506101ff9186019050610169565b90509250925092565b60e060020a634e487b710260009081526032600452602490fd5b60006020828403121561023457600080fd5b6100fb82610169565b6000600182016102615760e060020a634e487b710260009081526011600452602490fd5b506001019056fea26469706673582212201bce5a36ae7779b040e2159e6ac92073341137bf5f4fcc08d3f60b3df7cbd8d064736f6c634300080f0033",
  "immutableReferences": {},
  "source": "//SPDX-License-Identifier: UNLICENSED\r\npragma solidity ^0.8.15;\r\n\r\nlibrary AddressArrayUtils{\r\n    function contains(address[] calldata array, address value) external pure returns(bool){\r\n        for(uint i = 0; i < array.length; i++){\r\n            if(array[i] == value){\r\n                return true;\r\n            }\r\n        }\r\n        return false;\r\n    }\r\n\r\n    function getIndex(address[] calldata array, address value) external pure returns(uint){\r\n        for(uint i = 0; i < array.length; i++){\r\n            if(array[i] == value){\r\n                return i;\r\n            }\r\n        }\r\n        return 0;\r\n    }\r\n}",
  "sourcePath": "C:\\Users\\User\\Documents\\GitHub\\Backend\\SmartContracts\\contracts\\Utils\\ArrayUtils.sol",
  "compiler": {
    "name": "solc",
    "version": "0.8.15+commit.e14f2714.Emscripten.clang"
  },
  "schemaVersion": "3.4.8",
  "updatedAt": "2022-07-21T13:42:59.435Z",
  "devdoc": {
    "kind": "dev",
    "methods": {},
    "version": 1
  },
  "userdoc": {
    "kind": "user",
    "methods": {},
    "version": 1
  }
}