{
  "contractName": "AddressPayableUtils",
  "abi": [
    {
      "inputs": [
        {
          "internalType": "address payable",
          "name": "_address",
          "type": "address"
        }
      ],
      "name": "isAddressZero",
      "outputs": [
        {
          "internalType": "bool",
          "name": "",
          "type": "bool"
        }
      ],
      "stateMutability": "pure",
      "type": "function"
    },
    {
      "inputs": [
        {
          "internalType": "address payable",
          "name": "_address1",
          "type": "address"
        },
        {
          "internalType": "address payable",
          "name": "_address2",
          "type": "address"
        }
      ],
      "name": "isEqual",
      "outputs": [
        {
          "internalType": "bool",
          "name": "",
          "type": "bool"
        }
      ],
      "stateMutability": "pure",
      "type": "function"
    }
  ],
  "bytecode": "0x610252610053600b82828239805160001a607314610046577f4e487b7100000000000000000000000000000000000000000000000000000000600052600060045260246000fd5b30600052607381538281f3fe73000000000000000000000000000000000000000030146080604052600436106100405760003560e01c8063685658bb1461004557806386bd3f9114610075575b600080fd5b61005f600480360381019061005a9190610179565b6100a5565b60405161006c91906101d4565b60405180910390f35b61008f600480360381019061008a91906101ef565b6100de565b60405161009c91906101d4565b60405180910390f35b60008173ffffffffffffffffffffffffffffffffffffffff168373ffffffffffffffffffffffffffffffffffffffff1614905092915050565b60008073ffffffffffffffffffffffffffffffffffffffff168273ffffffffffffffffffffffffffffffffffffffff16149050919050565b600080fd5b600073ffffffffffffffffffffffffffffffffffffffff82169050919050565b60006101468261011b565b9050919050565b6101568161013b565b811461016157600080fd5b50565b6000813590506101738161014d565b92915050565b600080604083850312156101905761018f610116565b5b600061019e85828601610164565b92505060206101af85828601610164565b9150509250929050565b60008115159050919050565b6101ce816101b9565b82525050565b60006020820190506101e960008301846101c5565b92915050565b60006020828403121561020557610204610116565b5b600061021384828501610164565b9150509291505056fea2646970667358221220d0a3626feb3d2102c95ff95faa2b71227f2d840f67df60573aace570234f31af64736f6c634300080e0033",
  "immutableReferences": {},
  "source": "//SPDX-License-Identifier: UNLICENSED\r\npragma solidity ^0.8.0;\r\n\r\nlibrary Constants {\r\n    string constant DEFAULT_EMPTY = '';\r\n    uint constant UNRATED = 0;\r\n    string constant DEFAULT_APP_IMAGE = 'default image';\r\n    uint constant RATING_THRESHHOLD = 0;\r\n\r\n}\r\n\r\nlibrary Events {\r\n    event UpdatedContent(\r\n        string indexed content_type,\r\n        string indexed previous_content,\r\n        string indexed new_content,\r\n        address sender\r\n    );\r\n\r\n    event AppCreated(\r\n        string indexed app_name,\r\n        uint indexed app_id,\r\n        address payable indexed creator,\r\n        address sender\r\n    );\r\n\r\n    event UserCreated(\r\n        address payable indexed user_address,\r\n        address indexed user_contract,\r\n        address sender\r\n    );\r\n\r\n    event UserPurchased(\r\n        address payable indexed app_creator,\r\n        address payable indexed buyer,\r\n        address indexed app_contract,\r\n        address dapp_store\r\n    );\r\n\r\n}\r\n\r\nlibrary StringUtils {\r\n    function isEmpty(string memory _string) pure external returns(bool){\r\n        return bytes(_string).length == 0;\r\n    }\r\n\r\n    function isEqual (string calldata s1, string calldata s2) pure external returns(bool){\r\n        return keccak256(abi.encodePacked(s1)) == keccak256(abi.encodePacked(s2));\r\n    }\r\n\r\n    function append(string calldata s1, string calldata s2) pure external returns(string memory){\r\n        return string.concat(s1, s2);\r\n    }\r\n\r\n    function prepend(string calldata s1, string calldata s2) pure external returns(string memory){\r\n        return string.concat(s2, s1);\r\n    }\r\n}\r\n\r\nlibrary AddressUtils{\r\n    function isAddressZero(address _address) pure external returns(bool){\r\n        return _address == address(0);\r\n    }\r\n    function isEqual(address _address1, address _address2) pure external returns(bool){\r\n        return _address1 == _address2;\r\n    }\r\n}\r\n\r\nlibrary AddressPayableUtils{\r\n    function isAddressZero(address payable _address) pure external returns(bool){\r\n        return _address == payable(address(0));\r\n    }\r\n    function isEqual(address payable _address1, address payable _address2) pure external returns(bool){\r\n        return _address1 == _address2;\r\n    }\r\n}\r\n\r\n\r\n\r\n",
  "sourcePath": "C:\\Users\\User\\Documents\\GitHub\\SmartContracts\\contracts\\dappstore_utils.sol",
  "compiler": {
    "name": "solc",
    "version": "0.8.14+commit.80d49f37.Emscripten.clang"
  },
  "schemaVersion": "3.4.7",
  "updatedAt": "2022-06-10T12:53:49.135Z",
  "devdoc": {
    "kind": "dev",
    "methods": {},
    "version": 1
  },
  "userdoc": {
    "kind": "user",
    "methods": {},
    "version": 1
  }
}