{
  "contractName": "App",
  "abi": [
    {
      "inputs": [
        {
          "internalType": "uint256",
          "name": "_id",
          "type": "uint256"
        },
        {
          "internalType": "address",
          "name": "_creator",
          "type": "address"
        },
        {
          "internalType": "string",
          "name": "_name",
          "type": "string"
        },
        {
          "internalType": "string",
          "name": "_description",
          "type": "string"
        },
        {
          "internalType": "string",
          "name": "_magnetLink",
          "type": "string"
        },
        {
          "internalType": "string",
          "name": "_imgUrl",
          "type": "string"
        },
        {
          "internalType": "string",
          "name": "_company",
          "type": "string"
        },
        {
          "internalType": "uint256",
          "name": "_price",
          "type": "uint256"
        },
        {
          "internalType": "string",
          "name": "_category",
          "type": "string"
        },
        {
          "internalType": "string",
          "name": "_fileSha256",
          "type": "string"
        }
      ],
      "stateMutability": "nonpayable",
      "type": "constructor"
    },
    {
      "anonymous": false,
      "inputs": [
        {
          "indexed": true,
          "internalType": "address",
          "name": "previousOwner",
          "type": "address"
        },
        {
          "indexed": true,
          "internalType": "address",
          "name": "newOwner",
          "type": "address"
        }
      ],
      "name": "OwnershipTransferred",
      "type": "event"
    },
    {
      "inputs": [],
      "name": "company",
      "outputs": [
        {
          "internalType": "string",
          "name": "",
          "type": "string"
        }
      ],
      "stateMutability": "view",
      "type": "function"
    },
    {
      "inputs": [],
      "name": "creator",
      "outputs": [
        {
          "internalType": "address payable",
          "name": "",
          "type": "address"
        }
      ],
      "stateMutability": "view",
      "type": "function"
    },
    {
      "inputs": [],
      "name": "description",
      "outputs": [
        {
          "internalType": "string",
          "name": "",
          "type": "string"
        }
      ],
      "stateMutability": "view",
      "type": "function"
    },
    {
      "inputs": [],
      "name": "id",
      "outputs": [
        {
          "internalType": "uint256",
          "name": "",
          "type": "uint256"
        }
      ],
      "stateMutability": "view",
      "type": "function"
    },
    {
      "inputs": [],
      "name": "imgUrl",
      "outputs": [
        {
          "internalType": "string",
          "name": "",
          "type": "string"
        }
      ],
      "stateMutability": "view",
      "type": "function"
    },
    {
      "inputs": [],
      "name": "magnetLink",
      "outputs": [
        {
          "internalType": "string",
          "name": "",
          "type": "string"
        }
      ],
      "stateMutability": "view",
      "type": "function"
    },
    {
      "inputs": [],
      "name": "name",
      "outputs": [
        {
          "internalType": "string",
          "name": "",
          "type": "string"
        }
      ],
      "stateMutability": "view",
      "type": "function"
    },
    {
      "inputs": [],
      "name": "num_purchases",
      "outputs": [
        {
          "internalType": "uint256",
          "name": "_value",
          "type": "uint256"
        }
      ],
      "stateMutability": "view",
      "type": "function"
    },
    {
      "inputs": [],
      "name": "num_ratings",
      "outputs": [
        {
          "internalType": "uint256",
          "name": "_value",
          "type": "uint256"
        }
      ],
      "stateMutability": "view",
      "type": "function"
    },
    {
      "inputs": [],
      "name": "owner",
      "outputs": [
        {
          "internalType": "address",
          "name": "",
          "type": "address"
        }
      ],
      "stateMutability": "view",
      "type": "function"
    },
    {
      "inputs": [],
      "name": "price",
      "outputs": [
        {
          "internalType": "uint256",
          "name": "",
          "type": "uint256"
        }
      ],
      "stateMutability": "view",
      "type": "function"
    },
    {
      "inputs": [],
      "name": "renounceOwnership",
      "outputs": [],
      "stateMutability": "nonpayable",
      "type": "function"
    },
    {
      "inputs": [
        {
          "internalType": "address",
          "name": "newOwner",
          "type": "address"
        }
      ],
      "name": "transferOwnership",
      "outputs": [],
      "stateMutability": "nonpayable",
      "type": "function"
    },
    {
      "inputs": [],
      "name": "getCurrentVersion",
      "outputs": [
        {
          "internalType": "string",
          "name": "",
          "type": "string"
        }
      ],
      "stateMutability": "view",
      "type": "function"
    },
    {
      "inputs": [],
      "name": "getAppRating",
      "outputs": [
        {
          "internalType": "uint256",
          "name": "",
          "type": "uint256"
        },
        {
          "internalType": "uint256",
          "name": "",
          "type": "uint256"
        }
      ],
      "stateMutability": "view",
      "type": "function"
    },
    {
      "inputs": [
        {
          "internalType": "string",
          "name": "_name",
          "type": "string"
        },
        {
          "internalType": "string",
          "name": "_description",
          "type": "string"
        },
        {
          "internalType": "string",
          "name": "_magnetLink",
          "type": "string"
        },
        {
          "internalType": "string",
          "name": "_imgUrl",
          "type": "string"
        },
        {
          "internalType": "uint256",
          "name": "_price",
          "type": "uint256"
        },
        {
          "internalType": "string",
          "name": "_fileSha256",
          "type": "string"
        }
      ],
      "name": "updateApp",
      "outputs": [
        {
          "internalType": "bool",
          "name": "",
          "type": "bool"
        }
      ],
      "stateMutability": "nonpayable",
      "type": "function"
    },
    {
      "inputs": [
        {
          "internalType": "uint256",
          "name": "new_rating",
          "type": "uint256"
        },
        {
          "internalType": "uint256",
          "name": "old_rating",
          "type": "uint256"
        }
      ],
      "name": "rateApp",
      "outputs": [
        {
          "internalType": "uint256",
          "name": "",
          "type": "uint256"
        },
        {
          "internalType": "uint256",
          "name": "",
          "type": "uint256"
        },
        {
          "internalType": "uint256",
          "name": "",
          "type": "uint256"
        }
      ],
      "stateMutability": "nonpayable",
      "type": "function"
    },
    {
      "inputs": [
        {
          "internalType": "bool",
          "name": "owned",
          "type": "bool"
        },
        {
          "internalType": "uint256",
          "name": "user_rating",
          "type": "uint256"
        }
      ],
      "name": "getAppInfo",
      "outputs": [
        {
          "components": [
            {
              "internalType": "uint256",
              "name": "id",
              "type": "uint256"
            },
            {
              "internalType": "string",
              "name": "name",
              "type": "string"
            },
            {
              "internalType": "string",
              "name": "description",
              "type": "string"
            },
            {
              "internalType": "string",
              "name": "imgUrl",
              "type": "string"
            },
            {
              "internalType": "string",
              "name": "company",
              "type": "string"
            },
            {
              "internalType": "uint256",
              "name": "price",
              "type": "uint256"
            },
            {
              "internalType": "uint256",
              "name": "numRatings",
              "type": "uint256"
            },
            {
              "internalType": "uint256",
              "name": "ratingInt",
              "type": "uint256"
            },
            {
              "internalType": "uint256",
              "name": "ratingModulu",
              "type": "uint256"
            },
            {
              "internalType": "uint256",
              "name": "userRating",
              "type": "uint256"
            },
            {
              "internalType": "string",
              "name": "fileSha256",
              "type": "string"
            },
            {
              "internalType": "bool",
              "name": "owned",
              "type": "bool"
            },
            {
              "internalType": "string",
              "name": "magnetLink",
              "type": "string"
            },
            {
              "internalType": "string",
              "name": "category",
              "type": "string"
            },
            {
              "internalType": "uint256",
              "name": "publishTime",
              "type": "uint256"
            }
          ],
          "internalType": "struct AppInfoLibrary.AppInfo",
          "name": "",
          "type": "tuple"
        }
      ],
      "stateMutability": "view",
      "type": "function"
    }
  ],
  "bytecode": "0x60806040523480156200001157600080fd5b50604051620028d7380380620028d78339810160408190526200003491620007ee565b6200005a6200004b64010000000062000684810204565b64010000000062000688810204565b896200006a565b60405180910390fd5b8360008111620000d7576040517f08c379a000000000000000000000000000000000000000000000000000000000815260206004820152601c60248201527f5072696365206d7573742062652067726561746572207468616e203000000000604482015260640162000061565b6040517f27341c8a0000000000000000000000000000000000000000000000000000000081528a9073__StringUtils___________________________906327341c8a906200012b90849060040162000946565b602060405180830381865af415801562000149573d6000803e3d6000fd5b505050506040513d601f19601f820116820180604052508101906200016f91906200097b565b15620001c7576040517f08c379a0000000000000000000000000000000000000000000000000000000008152602060048201526018602482015260008051602062002822833981519152604482015260640162000061565b6040517f27341c8a000000000000000000000000000000000000000000000000000000008152899073__StringUtils___________________________906327341c8a906200021b90849060040162000946565b602060405180830381865af415801562000239573d6000803e3d6000fd5b505050506040513d601f19601f820116820180604052508101906200025f91906200097b565b15620002b7576040517f08c379a0000000000000000000000000000000000000000000000000000000008152602060048201526018602482015260008051602062002822833981519152604482015260640162000061565b6040517f27341c8a000000000000000000000000000000000000000000000000000000008152869073__StringUtils___________________________906327341c8a906200030b90849060040162000946565b602060405180830381865af415801562000329573d6000803e3d6000fd5b505050506040513d601f19601f820116820180604052508101906200034f91906200097b565b15620003a7576040517f08c379a0000000000000000000000000000000000000000000000000000000008152602060048201526018602482015260008051602062002822833981519152604482015260640162000061565b6040517f27341c8a000000000000000000000000000000000000000000000000000000008152869073__StringUtils___________________________906327341c8a90620003fb90849060040162000946565b602060405180830381865af415801562000419573d6000803e3d6000fd5b505050506040513d601f19601f820116820180604052508101906200043f91906200097b565b1562000497576040517f08c379a0000000000000000000000000000000000000000000000000000000008152602060048201526018602482015260008051602062002822833981519152604482015260640162000061565b8e600260006101000a815481600160a060020a030219169083600160a060020a031602179055508f6001819055508d60039081620004d6919062000a4e565b506004620004e58e8262000a4e565b506006620004f48d8262000a4e565b506007620005038c8262000a4e565b506040517f27341c8a00000000000000000000000000000000000000000000000000000000815273__StringUtils___________________________906327341c8a9062000556908e9060040162000946565b602060405180830381865af415801562000574573d6000803e3d6000fd5b505050506040513d601f19601f820116820180604052508101906200059a91906200097b565b15620005cb576040518060c00160405280609581526020016200284260959139600790620005c9908262000a4e565b505b6008620005d98b8262000a4e565b5060006009819055600a819055600b8a90556005805460018101825591527f036b6384b5eca791c62761152d0c79bb0604c104a5fb6f4eb0703f3154bb3db00162000625888262000a4e565b5062000640600e640100000000620010ab620006d882021704565b6200065a600f640100000000620010ab620006d882021704565b600c62000668898262000a4e565b505042600d555062000b209d5050505050505050505050505050565b3390565b60008054600160a060020a03838116600160a060020a0319831681178455604051919092169283917f8be0079c531659141344cd1fd0a4f28419497f9722a3daafe3b4186f6b6457e09190a35050565b60009055565b8051600160a060020a0381168114620006f657600080fd5b919050565b7f4e487b7100000000000000000000000000000000000000000000000000000000600052604160045260246000fd5b60005b83811015620007475781810151838201526020016200072d565b8381111562000757576000848401525b50505050565b600082601f8301126200076f57600080fd5b81516001604060020a03808211156200078c576200078c620006fb565b604051601f8301601f19908116603f01168101908282118183101715620007b757620007b7620006fb565b81604052838152866020858801011115620007d157600080fd5b620007e48460208301602089016200072a565b9695505050505050565b6000806000806000806000806000806101408b8d0312156200080f57600080fd5b8a5199506200082160208c01620006de565b985060408b01516001604060020a03808211156200083e57600080fd5b6200084c8e838f016200075d565b995060608d01519150808211156200086357600080fd5b620008718e838f016200075d565b985060808d01519150808211156200088857600080fd5b620008968e838f016200075d565b975060a08d0151915080821115620008ad57600080fd5b620008bb8e838f016200075d565b965060c08d0151915080821115620008d257600080fd5b620008e08e838f016200075d565b955060e08d015194506101008d0151915080821115620008ff57600080fd5b6200090d8e838f016200075d565b93506101208d01519150808211156200092557600080fd5b50620009348d828e016200075d565b9150509295989b9194979a5092959850565b6020815260008251806020840152620009678160408501602087016200072a565b601f01601f19169190910160400192915050565b6000602082840312156200098e57600080fd5b815180151581146200099f57600080fd5b9392505050565b600281046001821680620009bb57607f821691505b602082108103620009f5577f4e487b7100000000000000000000000000000000000000000000000000000000600052602260045260246000fd5b50919050565b601f82111562000a49576000818152602081206020601f8601048101602086101562000a245750805b6020601f860104820191505b8181101562000a455782815560010162000a30565b5050505b505050565b81516001604060020a0381111562000a6a5762000a6a620006fb565b62000a828162000a7b8454620009a6565b84620009fb565b602080601f83116001811462000abe576000841562000aa15750858301515b60028086026008870290910a600019041982161786555062000a45565b600085815260208120601f198616915b8281101562000aef5788860151825594840194600190910190840162000ace565b508582101562000b1057878501516008601f88160260020a60001904191681555b5050505050600202600101905550565b611cf28062000b306000396000f3fe608060405234801561001057600080fd5b5060043610610133576000357c0100000000000000000000000000000000000000000000000000000000900480638da5cb5b116100bf578063d23fe7c71161008e578063d23fe7c714610248578063d68387c714610252578063f22b01271461025a578063f2fde38b1461027a578063fabec44a1461028d57600080fd5b80638da5cb5b1461021d578063a035b1fe1461022e578063a512bd7914610237578063af640d0f1461023f57600080fd5b80636904c94d116101065780636904c94d146101b857806370b8fd92146101c0578063715018a6146101ee5780637284e416146101f857806373b8fc801461020057600080fd5b806302d05d3f1461013857806306fdde031461016857806334b1a7cc1461017d5780634367d32e14610195575b600080fd5b60025461014b90600160a060020a031681565b604051600160a060020a0390911681526020015b60405180910390f35b610170610295565b60405161015f9190611611565b600f546101879081565b60405190815260200161015f565b6101a86101a3366004611674565b610323565b604051901515815260200161015f565b61017061094b565b6101d36101ce366004611771565b610958565b6040805193845260208401929092529082015260600161015f565b6101f6610a59565b005b610170610a92565b610208610a9f565b6040805192835260208301919091520161015f565b600054600160a060020a031661014b565b610187600b5481565b610170610ac1565b61018760015481565b600e546101879081565b610170610ace565b61026d6102683660046117a1565b610adb565b60405161015f91906117cd565b6101f6610288366004611917565b610f37565b610170610fef565b600380546102a290611940565b80601f01602080910402602001604051908101604052809291908181526020018280546102ce90611940565b801561031b5780601f106102f05761010080835404028352916020019161031b565b820191906000526020600020905b8154815290600101906020018083116102fe57829003601f168201915b505050505081565b60008054600160a060020a0316331461035a5760405160e560020a62461bcd0281526004016103519061197d565b60405180910390fd5b8b8b8080601f0160208091040260200160405190810160405280939291908181526020018383808284376000920191909152505060405160e160020a63139a0e4502815273__StringUtils___________________________936327341c8a93506103c9925090600401611611565b602060405180830381865af41580156103e6573d6000803e3d6000fd5b505050506040513d601f19601f8201168201806040525081019061040a91906119b2565b610418576104188c8c6110b1565b89898080601f0160208091040260200160405190810160405280939291908181526020018383808284376000920191909152505060405160e160020a63139a0e4502815273__StringUtils___________________________936327341c8a9350610487925090600401611611565b602060405180830381865af41580156104a4573d6000803e3d6000fd5b505050506040513d601f19601f820116820180604052508101906104c891906119b2565b6104d6576104d68a8a611195565b87878080601f0160208091040260200160405190810160405280939291908181526020018383808284376000920191909152505060405160e160020a63139a0e4502815273__StringUtils___________________________936327341c8a9350610545925090600401611611565b602060405180830381865af4158015610562573d6000803e3d6000fd5b505050506040513d601f19601f8201168201806040525081019061058691906119b2565b158061063f575082828080601f0160208091040260200160405190810160405280939291908181526020018383808284376000920191909152505060405160e160020a63139a0e4502815273__StringUtils___________________________936327341c8a93506105fc925090600401611611565b602060405180830381865af4158015610619573d6000803e3d6000fd5b505050506040513d601f19601f8201168201806040525081019061063d91906119b2565b155b1561086c5787878080601f0160208091040260200160405190810160405280939291908181526020018383808284376000920191909152505060405160e160020a63139a0e4502815273__StringUtils___________________________936327341c8a93506106b3925090600401611611565b602060405180830381865af41580156106d0573d6000803e3d6000fd5b505050506040513d601f19601f820116820180604052508101906106f491906119b2565b1580156107ae575082828080601f0160208091040260200160405190810160405280939291908181526020018383808284376000920191909152505060405160e160020a63139a0e4502815273__StringUtils___________________________936327341c8a935061076b925090600401611611565b602060405180830381865af4158015610788573d6000803e3d6000fd5b505050506040513d601f19601f820116820180604052508101906107ac91906119b2565b155b6108235760405160e560020a62461bcd02815260206004820152602d60248201527f4d7573742070726f7669646520626f7468206d61676e6574206c696e6b20616e60448201527f642066696c6520736861323536000000000000000000000000000000000000006064820152608401610351565b61082d8888611273565b61086c83838080601f01602080910402602001604051908101604052809392919081815260200183838082843760009201919091525061135192505050565b85858080601f0160208091040260200160405190810160405280939291908181526020018383808284376000920191909152505060405160e160020a63139a0e4502815273__StringUtils___________________________936327341c8a93506108db925090600401611611565b602060405180830381865af41580156108f8573d6000803e3d6000fd5b505050506040513d601f19601f8201168201806040525081019061091c91906119b2565b61092a5761092a868661142f565b8315610939576109398461150d565b5060019b9a5050505050505050505050565b600880546102a290611940565b6000808033600160a060020a0316610978600054600160a060020a031690565b600160a060020a0316146109a15760405160e560020a62461bcd0281526004016103519061197d565b8360058111156109b057600080fd5b8560058111156109bf57600080fd5b6000600a546109cd600e5490565b6009546109da91906119e8565b6109e49190611a07565b9050866000036109fc576109fc600e80546001019055565b610a068882611a07565b9050610a128782611a1f565b9050610a1d600e5490565b610a279082611a4f565b600955600e54610a379082611a63565b600a81905560095490610a49600e5490565b9550955095505050509250925092565b600054600160a060020a03163314610a865760405160e560020a62461bcd0281526004016103519061197d565b610a906000611567565b565b600480546102a290611940565b600080600060095411610ab55750600091829150565b5050600954600a549091565b600680546102a290611940565b600780546102a290611940565b610b56604051806101e0016040528060008152602001606081526020016060815260200160608152602001606081526020016000815260200160008152602001600081526020016000815260200160008152602001606081526020016000151581526020016060815260200160608152602001600081525090565b6000604051806101e00160405280600154815260200160038054610b7990611940565b80601f0160208091040260200160405190810160405280929190818152602001828054610ba590611940565b8015610bf25780601f10610bc757610100808354040283529160200191610bf2565b820191906000526020600020905b815481529060010190602001808311610bd557829003601f168201915b5050505050815260200160048054610c0990611940565b80601f0160208091040260200160405190810160405280929190818152602001828054610c3590611940565b8015610c825780601f10610c5757610100808354040283529160200191610c82565b820191906000526020600020905b815481529060010190602001808311610c6557829003601f168201915b5050505050815260200160078054610c9990611940565b80601f0160208091040260200160405190810160405280929190818152602001828054610cc590611940565b8015610d125780601f10610ce757610100808354040283529160200191610d12565b820191906000526020600020905b815481529060010190602001808311610cf557829003601f168201915b5050505050815260200160088054610d2990611940565b80601f0160208091040260200160405190810160405280929190818152602001828054610d5590611940565b8015610da25780601f10610d7757610100808354040283529160200191610da2565b820191906000526020600020905b815481529060010190602001808311610d8557829003601f168201915b50505050508152602001600b548152602001610dbd600e5490565b81526020016009548152602001600a548152602001848152602001610de0610fef565b8152602001851515815260200185610e075760405180602001604052806000815250610e93565b60068054610e1490611940565b80601f0160208091040260200160405190810160405280929190818152602001828054610e4090611940565b8015610e8d5780601f10610e6257610100808354040283529160200191610e8d565b820191906000526020600020905b815481529060010190602001808311610e7057829003601f168201915b50505050505b8152602001600c8054610ea590611940565b80601f0160208091040260200160405190810160405280929190818152602001828054610ed190611940565b8015610f1e5780601f10610ef357610100808354040283529160200191610f1e565b820191906000526020600020905b815481529060010190602001808311610f0157829003601f168201915b5050509183525050600d54602090910152949350505050565b600054600160a060020a03163314610f645760405160e560020a62461bcd0281526004016103519061197d565b600160a060020a038116610fe35760405160e560020a62461bcd02815260206004820152602660248201527f4f776e61626c653a206e6577206f776e657220697320746865207a65726f206160448201527f64647265737300000000000000000000000000000000000000000000000000006064820152608401610351565b610fec81611567565b50565b600580546060919061100390600190611a1f565b8154811061101357611013611a77565b90600052602060002001805461102890611940565b80601f016020809104026020016040519081016040528092919081815260200182805461105490611940565b80156110a15780601f10611076576101008083540402835291602001916110a1565b820191906000526020600020905b81548152906001019060200180831161108457829003601f168201915b5050505050905090565b60009055565b81818080601f0160208091040260200160405190810160405280939291908181526020018383808284376000920191909152505060405160e160020a63139a0e4502815273__StringUtils___________________________92506327341c8a9150611121908490600401611611565b602060405180830381865af415801561113e573d6000803e3d6000fd5b505050506040513d601f19601f8201168201806040525081019061116291906119b2565b156111825760405160e560020a62461bcd02815260040161035190611a90565b600361118f838583611b2e565b50505050565b81818080601f0160208091040260200160405190810160405280939291908181526020018383808284376000920191909152505060405160e160020a63139a0e4502815273__StringUtils___________________________92506327341c8a9150611205908490600401611611565b602060405180830381865af4158015611222573d6000803e3d6000fd5b505050506040513d601f19601f8201168201806040525081019061124691906119b2565b156112665760405160e560020a62461bcd02815260040161035190611a90565b600461118f838583611b2e565b81818080601f0160208091040260200160405190810160405280939291908181526020018383808284376000920191909152505060405160e160020a63139a0e4502815273__StringUtils___________________________92506327341c8a91506112e3908490600401611611565b602060405180830381865af4158015611300573d6000803e3d6000fd5b505050506040513d601f19601f8201168201806040525081019061132491906119b2565b156113445760405160e560020a62461bcd02815260040161035190611a90565b600661118f838583611b2e565b60405160e160020a63139a0e45028152819073__StringUtils___________________________906327341c8a9061138d908490600401611611565b602060405180830381865af41580156113aa573d6000803e3d6000fd5b505050506040513d601f19601f820116820180604052508101906113ce91906119b2565b156113ee5760405160e560020a62461bcd02815260040161035190611a90565b600580546001810182556000919091527f036b6384b5eca791c62761152d0c79bb0604c104a5fb6f4eb0703f3154bb3db00161142a8382611bf6565b505050565b81818080601f0160208091040260200160405190810160405280939291908181526020018383808284376000920191909152505060405160e160020a63139a0e4502815273__StringUtils___________________________92506327341c8a915061149f908490600401611611565b602060405180830381865af41580156114bc573d6000803e3d6000fd5b505050506040513d601f19601f820116820180604052508101906114e091906119b2565b156115005760405160e560020a62461bcd02815260040161035190611a90565b600761118f838583611b2e565b80600081116115615760405160e560020a62461bcd02815260206004820152601c60248201527f5072696365206d7573742062652067726561746572207468616e2030000000006044820152606401610351565b50600b55565b60008054600160a060020a0383811673ffffffffffffffffffffffffffffffffffffffff19831681178455604051919092169283917f8be0079c531659141344cd1fd0a4f28419497f9722a3daafe3b4186f6b6457e09190a35050565b6000815180845260005b818110156115ea576020818501810151868301820152016115ce565b818111156115fc576000602083870101525b50601f01601f19169290920160200192915050565b60208152600061162460208301846115c4565b9392505050565b60008083601f84011261163d57600080fd5b50813567ffffffffffffffff81111561165557600080fd5b60208301915083602082850101111561166d57600080fd5b9250929050565b600080600080600080600080600080600060c08c8e03121561169557600080fd5b67ffffffffffffffff808d3511156116ac57600080fd5b6116b98e8e358f0161162b565b909c509a5060208d01358110156116cf57600080fd5b6116df8e60208f01358f0161162b565b909a50985060408d01358110156116f557600080fd5b6117058e60408f01358f0161162b565b909850965060608d013581101561171b57600080fd5b61172b8e60608f01358f0161162b565b909650945060808d0135935060a08d013581101561174857600080fd5b506117598d60a08e01358e0161162b565b81935080925050509295989b509295989b9093969950565b6000806040838503121561178457600080fd5b50508035926020909101359150565b8015158114610fec57600080fd5b600080604083850312156117b457600080fd5b82356117bf81611793565b946020939093013593505050565b6020815281516020820152600060208301516101e08060408501526117f66102008501836115c4565b91506040850151601f198086850301606087015261181484836115c4565b9350606087015191508086850301608087015261183184836115c4565b935060808701519150808685030160a087015261184e84836115c4565b935060a087015160c087015260c087015160e087015260e087015191506101008281880152808801519250506101208281880152808801519250506101408281880152808801519250506101608187860301818801526118ae85846115c4565b9450808801519250506101806118c78188018415159052565b808801519250506101a08187860301818801526118e485846115c4565b9450808801519250506101c081878603018188015261190385846115c4565b970151959092019490945250929392505050565b60006020828403121561192957600080fd5b8135600160a060020a038116811461162457600080fd5b60028104600182168061195457607f821691505b6020821081036119775760e060020a634e487b7102600052602260045260246000fd5b50919050565b6020808252818101527f4f776e61626c653a2063616c6c6572206973206e6f7420746865206f776e6572604082015260600190565b6000602082840312156119c457600080fd5b815161162481611793565b60e060020a634e487b7102600052601160045260246000fd5b6000816000190483118215151615611a0257611a026119cf565b500290565b60008219821115611a1a57611a1a6119cf565b500190565b600082821015611a3157611a316119cf565b500390565b60e060020a634e487b7102600052601260045260246000fd5b600082611a5e57611a5e611a36565b500490565b600082611a7257611a72611a36565b500690565b60e060020a634e487b7102600052603260045260246000fd5b60208082526018908201527f537472696e67206d757374206e6f7420626520656d7074790000000000000000604082015260600190565b60e060020a634e487b7102600052604160045260246000fd5b601f82111561142a576000818152602081206020601f86010481016020861015611b075750805b6020601f860104820191505b81811015611b2657828155600101611b13565b505050505050565b67ffffffffffffffff831115611b4657611b46611ac7565b611b5a83611b548354611940565b83611ae0565b6000601f841160018114611b925760008515611b765750838201355b60028087026008880290910a6000190419821617845550611bef565b600083815260209020601f19861690835b82811015611bc35786850135825560209485019460019092019101611ba3565b5086821015611be357858401356008601f89160260020a60001904191681555b50506001600286020183555b5050505050565b815167ffffffffffffffff811115611c1057611c10611ac7565b611c2481611c1e8454611940565b84611ae0565b602080601f831160018114611c5d5760008415611c415750858301515b60028086026008870290910a6000190419821617865550611b26565b600085815260208120601f198616915b82811015611c8c57888601518255948401946001909101908401611c6d565b5085821015611cac57878501516008601f88160260020a60001904191681555b505050505060020260010190555056fea26469706673582212206d4366c4d394616b9b1927c2a9fbc9667eb8c4e29cd0ca55f33c7fd1c40368e964736f6c634300080f0033537472696e67206d757374206e6f7420626520656d707479000000000000000068747470733a2f2f65787465726e616c2d636f6e74656e742e6475636b6475636b676f2e636f6d2f69752f3f753d6874747073253341253246253246692e70696e696d672e636f6d2532466f726967696e616c7325324632302532463065253246663825324632303065663832623331383266663735626630623264653534393665363163662e6a706726663d31266e6f66623d31",
  "immutableReferences": {},
  "source": "//SPDX-License-Identifier: UNLICENSED\r\npragma solidity ^0.8.15;\r\n\r\nimport {Constants} from '../Utils/Constants.sol';\r\nimport {StringUtils} from '../Utils/StringUtils.sol';\r\nimport {AddressUtils, AddressPayableUtils} from '../Utils/AddressUtils.sol';\r\n\r\nimport {AppInfoLibrary} from '../Utils/AppInfoLibrary.sol';\r\n\r\nimport \"@openzeppelin/contracts/utils/Strings.sol\";\r\nimport \"@openzeppelin/contracts/access/Ownable.sol\";\r\nimport \"@openzeppelin/contracts/utils/Counters.sol\";\r\nimport \"@openzeppelin/contracts/utils/math/SafeMath.sol\";\r\n\r\ncontract App is Ownable {\r\n    //App contract provides a data structure of an app and\r\n    //an API to work with for external use\r\n    using StringUtils for string;\r\n\r\n    using Counters for Counters.Counter;\r\n    using SafeMath for uint;\r\n\r\n    uint256 public  id;\r\n    address payable public creator;\r\n    string public name;\r\n    string public description;\r\n    string[] fileSha256; //last is SHA of latest version.\r\n    string public magnetLink;\r\n    string public imgUrl;\r\n    string public company;\r\n    uint rating_int; //0 means not rated\r\n    uint rating_modulu;\r\n    uint public price; //in wei\r\n    string category;\r\n    uint publishTime;\r\n    Counters.Counter public num_ratings;\r\n    Counters.Counter public num_purchases;\r\n\r\n    constructor(uint _id,\r\n                address _creator,\r\n                string memory _name,\r\n                string memory _description,\r\n                string memory _magnetLink,\r\n                string memory _imgUrl,\r\n                string memory _company,\r\n                uint _price,\r\n                string memory _category,\r\n                string memory _fileSha256)\r\n                validateID(_id) validatePrice(_price) validateString(_name)\r\n                validateString(_magnetLink) validateString(_category) validateString(_fileSha256)\r\n    {\r\n    creator = payable(_creator);\r\n    id  = _id;\r\n    name  = _name;\r\n    description = _description;\r\n\r\n    magnetLink = _magnetLink;\r\n    imgUrl = _imgUrl;\r\n    if(_imgUrl.isEmpty()){\r\n        imgUrl = Constants.DEFAULT_APP_IMAGE;\r\n    }\r\n    company = _company;\r\n    rating_int = Constants.UNRATED;\r\n    rating_modulu = Constants.UNRATED;\r\n    price = _price;\r\n    fileSha256.push(_fileSha256);\r\n    num_ratings.reset();\r\n    num_purchases.reset();\r\n    category = _category;\r\n    publishTime = block.timestamp;\r\n    }\r\n\r\n    //valdiations\r\n    modifier validateID(uint _id){\r\n        require(_id >= 0, 'Illegal app id');\r\n        _;\r\n    }\r\n\r\n    modifier validateRating(uint _rating){\r\n        require(_rating >=0 && _rating <=5);\r\n        _;\r\n    }\r\n\r\n    modifier validatePrice(uint _price){\r\n        require(_price > 0, 'Price must be greater than 0');\r\n        _;\r\n    }\r\n\r\n    modifier validateString(string memory _string){\r\n        require(!_string.isEmpty(), 'String must not be empty');\r\n        _;\r\n    }\r\n\r\n    //getters\r\n    function getCurrentVersion() public view returns(string memory){\r\n        return fileSha256[fileSha256.length - 1];\r\n    }\r\n\r\n    function getAppRating() external view returns (uint, uint){\r\n        if (rating_int <= 0){\r\n            return (0, 0);\r\n        }\r\n    return (rating_int, rating_modulu);\r\n    }\r\n\r\n    //updaters\r\n    function updateAppName(string calldata new_name) private validateString(new_name){\r\n        name = new_name;\r\n    }\r\n\r\n    function updateAppDescription(string calldata new_description) private validateString(new_description){\r\n        description = new_description;\r\n    }\r\n\r\n    function updateAppImgUrl(string calldata new_imgUrl) private validateString(new_imgUrl){\r\n        imgUrl = new_imgUrl;\r\n    }\r\n\r\n    function updateAppMagnetLink(string calldata new_magnetLink) private validateString(new_magnetLink){\r\n        magnetLink = new_magnetLink;\r\n    }\r\n    function updateAppVersion(string memory new_sha) private validateString(new_sha) {\r\n        fileSha256.push(new_sha);\r\n    }\r\n\r\n    function updateAppCompany(string calldata new_company) private validateString(new_company){\r\n        company = new_company;\r\n    }\r\n\r\n    function updateAppPrice(uint new_price) private validatePrice(new_price){\r\n       price = new_price;\r\n    }\r\n\r\n\r\n    function updateAppFileSha(string calldata new_filesha) private validateString(new_filesha){\r\n        fileSha256.push(new_filesha);\r\n    }\r\n\r\n    function updateApp(\r\n        string calldata _name,\r\n        string calldata _description,\r\n        string calldata _magnetLink,\r\n        string calldata _imgUrl,\r\n        uint _price,\r\n        string calldata _fileSha256\r\n    ) external onlyOwner returns(bool){\r\n        if (!_name.isEmpty()){\r\n            updateAppName(_name);\r\n        }\r\n        if (!_description.isEmpty()){\r\n            updateAppDescription(_description);\r\n        }\r\n        if (!_magnetLink.isEmpty() || !_fileSha256.isEmpty()){\r\n            require(!_magnetLink.isEmpty() && !_fileSha256.isEmpty(), 'Must provide both magnet link and file sha256');\r\n            updateAppMagnetLink(_magnetLink);\r\n            updateAppVersion(_fileSha256);\r\n        }\r\n        if (!_imgUrl.isEmpty()){\r\n            updateAppImgUrl(_imgUrl);\r\n        }\r\n        if (_price > 0){\r\n            updateAppPrice(_price);\r\n        }\r\n        return true;\r\n    }\r\n\r\n    function rateApp(uint new_rating, uint old_rating) external \r\n    onlyOwner \r\n    validateRating(old_rating) \r\n    validateRating(new_rating)\r\n    returns(uint, uint, uint)\r\n    {\r\n        uint total_rating = rating_int * num_ratings.current() + rating_modulu;\r\n        if (old_rating == 0){\r\n            num_ratings.increment();\r\n        }\r\n        // require(num_ratings.current() > 0, 'Invalid number of ratings');\r\n        total_rating += new_rating;\r\n        total_rating -= old_rating;\r\n        rating_int = total_rating / num_ratings.current();\r\n        rating_modulu = total_rating % num_ratings.current();\r\n    return (rating_int, rating_modulu, num_ratings.current());\r\n    }\r\n\r\n\r\n    function getAppInfo(bool owned, uint user_rating) view external returns(AppInfoLibrary.AppInfo memory){\r\n        // (uint rating, uint rating_modulu) = _app.getAppRating();\r\n        AppInfoLibrary.AppInfo memory app_info = AppInfoLibrary.AppInfo(\r\n            id,\r\n            name,\r\n            description,\r\n            imgUrl,\r\n            company,\r\n            price,\r\n            num_ratings.current(),\r\n            rating_int,\r\n            rating_modulu,\r\n            user_rating,\r\n            getCurrentVersion(),\r\n            owned,\r\n            owned? magnetLink: '',\r\n            category,\r\n            publishTime\r\n        );\r\n        return app_info;\r\n    }\r\n\r\n}\r\n\r\n\r\n",
  "sourcePath": "C:\\Users\\User\\Documents\\GitHub\\SmartContracts\\contracts\\Apps\\App.sol",
  "compiler": {
    "name": "solc",
    "version": "0.8.15+commit.e14f2714.Emscripten.clang"
  },
  "schemaVersion": "3.4.8",
  "updatedAt": "2022-07-08T14:46:50.136Z",
  "devdoc": {
    "kind": "dev",
    "methods": {
      "owner()": {
        "details": "Returns the address of the current owner."
      },
      "renounceOwnership()": {
        "details": "Leaves the contract without owner. It will not be possible to call `onlyOwner` functions anymore. Can only be called by the current owner. NOTE: Renouncing ownership will leave the contract without an owner, thereby removing any functionality that is only available to the owner."
      },
      "transferOwnership(address)": {
        "details": "Transfers ownership of the contract to a new account (`newOwner`). Can only be called by the current owner."
      }
    },
    "version": 1
  },
  "userdoc": {
    "kind": "user",
    "methods": {},
    "version": 1
  }
}