{
  "contractName": "App",
  "abi": [
    {
      "inputs": [
        {
          "internalType": "uint256",
          "name": "_id",
          "type": "uint256"
        },
        {
          "internalType": "address",
          "name": "_creator",
          "type": "address"
        },
        {
          "internalType": "string",
          "name": "_name",
          "type": "string"
        },
        {
          "internalType": "string",
          "name": "_description",
          "type": "string"
        },
        {
          "internalType": "string",
          "name": "_magnetLink",
          "type": "string"
        },
        {
          "internalType": "string",
          "name": "_imgUrl",
          "type": "string"
        },
        {
          "internalType": "string",
          "name": "_company",
          "type": "string"
        },
        {
          "internalType": "uint256",
          "name": "_price",
          "type": "uint256"
        },
        {
          "internalType": "string",
          "name": "_fileSha256",
          "type": "string"
        }
      ],
      "stateMutability": "nonpayable",
      "type": "constructor"
    },
    {
      "anonymous": false,
      "inputs": [
        {
          "indexed": true,
          "internalType": "address",
          "name": "previousOwner",
          "type": "address"
        },
        {
          "indexed": true,
          "internalType": "address",
          "name": "newOwner",
          "type": "address"
        }
      ],
      "name": "OwnershipTransferred",
      "type": "event"
    },
    {
      "inputs": [],
      "name": "company",
      "outputs": [
        {
          "internalType": "string",
          "name": "",
          "type": "string"
        }
      ],
      "stateMutability": "view",
      "type": "function"
    },
    {
      "inputs": [],
      "name": "creator",
      "outputs": [
        {
          "internalType": "address payable",
          "name": "",
          "type": "address"
        }
      ],
      "stateMutability": "view",
      "type": "function"
    },
    {
      "inputs": [],
      "name": "description",
      "outputs": [
        {
          "internalType": "string",
          "name": "",
          "type": "string"
        }
      ],
      "stateMutability": "view",
      "type": "function"
    },
    {
      "inputs": [],
      "name": "id",
      "outputs": [
        {
          "internalType": "uint256",
          "name": "",
          "type": "uint256"
        }
      ],
      "stateMutability": "view",
      "type": "function"
    },
    {
      "inputs": [],
      "name": "imgUrl",
      "outputs": [
        {
          "internalType": "string",
          "name": "",
          "type": "string"
        }
      ],
      "stateMutability": "view",
      "type": "function"
    },
    {
      "inputs": [],
      "name": "magnetLink",
      "outputs": [
        {
          "internalType": "string",
          "name": "",
          "type": "string"
        }
      ],
      "stateMutability": "view",
      "type": "function"
    },
    {
      "inputs": [],
      "name": "name",
      "outputs": [
        {
          "internalType": "string",
          "name": "",
          "type": "string"
        }
      ],
      "stateMutability": "view",
      "type": "function"
    },
    {
      "inputs": [],
      "name": "num_purchases",
      "outputs": [
        {
          "internalType": "uint256",
          "name": "_value",
          "type": "uint256"
        }
      ],
      "stateMutability": "view",
      "type": "function"
    },
    {
      "inputs": [],
      "name": "num_ratings",
      "outputs": [
        {
          "internalType": "uint256",
          "name": "_value",
          "type": "uint256"
        }
      ],
      "stateMutability": "view",
      "type": "function"
    },
    {
      "inputs": [],
      "name": "owner",
      "outputs": [
        {
          "internalType": "address",
          "name": "",
          "type": "address"
        }
      ],
      "stateMutability": "view",
      "type": "function"
    },
    {
      "inputs": [],
      "name": "price",
      "outputs": [
        {
          "internalType": "uint256",
          "name": "",
          "type": "uint256"
        }
      ],
      "stateMutability": "view",
      "type": "function"
    },
    {
      "inputs": [],
      "name": "renounceOwnership",
      "outputs": [],
      "stateMutability": "nonpayable",
      "type": "function"
    },
    {
      "inputs": [
        {
          "internalType": "address",
          "name": "newOwner",
          "type": "address"
        }
      ],
      "name": "transferOwnership",
      "outputs": [],
      "stateMutability": "nonpayable",
      "type": "function"
    },
    {
      "inputs": [],
      "name": "getCurrentVersion",
      "outputs": [
        {
          "internalType": "string",
          "name": "",
          "type": "string"
        }
      ],
      "stateMutability": "view",
      "type": "function"
    },
    {
      "inputs": [],
      "name": "getAppRating",
      "outputs": [
        {
          "internalType": "uint256",
          "name": "",
          "type": "uint256"
        },
        {
          "internalType": "uint256",
          "name": "",
          "type": "uint256"
        }
      ],
      "stateMutability": "view",
      "type": "function"
    },
    {
      "inputs": [
        {
          "internalType": "string",
          "name": "new_name",
          "type": "string"
        }
      ],
      "name": "updateAppName",
      "outputs": [],
      "stateMutability": "nonpayable",
      "type": "function"
    },
    {
      "inputs": [
        {
          "internalType": "string",
          "name": "new_description",
          "type": "string"
        }
      ],
      "name": "updateAppDescription",
      "outputs": [],
      "stateMutability": "nonpayable",
      "type": "function"
    },
    {
      "inputs": [
        {
          "internalType": "string",
          "name": "new_imgUrl",
          "type": "string"
        }
      ],
      "name": "updateAppImgUrl",
      "outputs": [],
      "stateMutability": "nonpayable",
      "type": "function"
    },
    {
      "inputs": [
        {
          "internalType": "string",
          "name": "new_magnetLink",
          "type": "string"
        }
      ],
      "name": "updateAppMagnetLink",
      "outputs": [],
      "stateMutability": "nonpayable",
      "type": "function"
    },
    {
      "inputs": [
        {
          "internalType": "string",
          "name": "new_sha",
          "type": "string"
        }
      ],
      "name": "updateAppVersion",
      "outputs": [],
      "stateMutability": "nonpayable",
      "type": "function"
    },
    {
      "inputs": [
        {
          "internalType": "string",
          "name": "new_company",
          "type": "string"
        }
      ],
      "name": "updateAppCompany",
      "outputs": [],
      "stateMutability": "nonpayable",
      "type": "function"
    },
    {
      "inputs": [
        {
          "internalType": "uint256",
          "name": "new_price",
          "type": "uint256"
        }
      ],
      "name": "updateAppPrice",
      "outputs": [],
      "stateMutability": "nonpayable",
      "type": "function"
    },
    {
      "inputs": [
        {
          "internalType": "string",
          "name": "new_filesha",
          "type": "string"
        }
      ],
      "name": "updateAppFileSha",
      "outputs": [],
      "stateMutability": "nonpayable",
      "type": "function"
    },
    {
      "inputs": [],
      "name": "getAppInfo",
      "outputs": [
        {
          "components": [
            {
              "internalType": "uint256",
              "name": "id",
              "type": "uint256"
            },
            {
              "internalType": "string",
              "name": "name",
              "type": "string"
            },
            {
              "internalType": "string",
              "name": "description",
              "type": "string"
            },
            {
              "internalType": "string",
              "name": "imgUrl",
              "type": "string"
            },
            {
              "internalType": "string",
              "name": "company",
              "type": "string"
            },
            {
              "internalType": "uint256",
              "name": "price",
              "type": "uint256"
            },
            {
              "internalType": "uint256",
              "name": "num_ratings",
              "type": "uint256"
            },
            {
              "internalType": "uint256",
              "name": "rating",
              "type": "uint256"
            },
            {
              "internalType": "uint256",
              "name": "rating_modulu",
              "type": "uint256"
            },
            {
              "internalType": "string",
              "name": "fileSha256",
              "type": "string"
            },
            {
              "internalType": "bool",
              "name": "owned",
              "type": "bool"
            }
          ],
          "internalType": "struct AppInfoLibrary.AppInfo",
          "name": "",
          "type": "tuple"
        }
      ],
      "stateMutability": "view",
      "type": "function"
    }
  ],
  "bytecode": "0x60806040523480156200001157600080fd5b5060405162003edf38038062003edf8339818101604052810190620000379190620009eb565b620000576200004b620005fc60201b60201c565b6200060460201b60201c565b8860008110156200009f576040517f08c379a0000000000000000000000000000000000000000000000000000000008152600401620000969062000be5565b60405180910390fd5b8260008111620000e6576040517f08c379a0000000000000000000000000000000000000000000000000000000008152600401620000dd9062000c57565b60405180910390fd5b888073__StringUtils___________________________6327341c8a90916040518263ffffffff1660e01b815260040162000122919062000cd6565b602060405180830381865af415801562000140573d6000803e3d6000fd5b505050506040513d601f19601f8201168201806040525081019062000166919062000d37565b15620001a9576040517f08c379a0000000000000000000000000000000000000000000000000000000008152600401620001a09062000db9565b60405180910390fd5b878073__StringUtils___________________________6327341c8a90916040518263ffffffff1660e01b8152600401620001e5919062000cd6565b602060405180830381865af415801562000203573d6000803e3d6000fd5b505050506040513d601f19601f8201168201806040525081019062000229919062000d37565b156200026c576040517f08c379a0000000000000000000000000000000000000000000000000000000008152600401620002639062000db9565b60405180910390fd5b848073__StringUtils___________________________6327341c8a90916040518263ffffffff1660e01b8152600401620002a8919062000cd6565b602060405180830381865af4158015620002c6573d6000803e3d6000fd5b505050506040513d601f19601f82011682018060405250810190620002ec919062000d37565b156200032f576040517f08c379a0000000000000000000000000000000000000000000000000000000008152600401620003269062000db9565b60405180910390fd5b8c600260006101000a81548173ffffffffffffffffffffffffffffffffffffffff021916908373ffffffffffffffffffffffffffffffffffffffff1602179055508d6001819055508b600390805190602001906200038f929190620006fe565b508a60049080519060200190620003a8929190620006fe565b508960069080519060200190620003c1929190620006fe565b508860079080519060200190620003da929190620006fe565b508873__StringUtils___________________________6327341c8a90916040518263ffffffff1660e01b815260040162000416919062000cd6565b602060405180830381865af415801562000434573d6000803e3d6000fd5b505050506040513d601f19601f820116820180604052508101906200045a919062000d37565b15620004af576040518060400160405280600d81526020017f64656661756c7420696d6167650000000000000000000000000000000000000081525060079080519060200190620004ad929190620006fe565b505b8760089080519060200190620004c7929190620006fe565b5060006009819055506000600a8190555086600b819055506005869080600181540180825580915050600190039060005260206000200160009091909190915090805190602001906200051c929190620006fe565b5062000534600c620006c860201b62001c5a1760201c565b6200054b600d620006c860201b62001c5a1760201c565b600260009054906101000a900473ffffffffffffffffffffffffffffffffffffffff1673ffffffffffffffffffffffffffffffffffffffff16600154600360405162000598919062000eea565b60405180910390207f4ebeeb573ab9892d0c9b8e2b088b43617667b3479dca07176f29ef21ba848bd1620005d1620006d560201b60201c565b604051620005e0919062000f14565b60405180910390a4505050505050505050505050505062000f31565b600033905090565b60008060009054906101000a900473ffffffffffffffffffffffffffffffffffffffff169050816000806101000a81548173ffffffffffffffffffffffffffffffffffffffff021916908373ffffffffffffffffffffffffffffffffffffffff1602179055508173ffffffffffffffffffffffffffffffffffffffff168173ffffffffffffffffffffffffffffffffffffffff167f8be0079c531659141344cd1fd0a4f28419497f9722a3daafe3b4186f6b6457e060405160405180910390a35050565b6000816000018190555050565b60008060009054906101000a900473ffffffffffffffffffffffffffffffffffffffff16905090565b8280546200070c9062000e0a565b90600052602060002090601f0160209004810192826200073057600085556200077c565b82601f106200074b57805160ff19168380011785556200077c565b828001600101855582156200077c579182015b828111156200077b5782518255916020019190600101906200075e565b5b5090506200078b91906200078f565b5090565b5b80821115620007aa57600081600090555060010162000790565b5090565b6000604051905090565b600080fd5b600080fd5b6000819050919050565b620007d781620007c2565b8114620007e357600080fd5b50565b600081519050620007f781620007cc565b92915050565b600073ffffffffffffffffffffffffffffffffffffffff82169050919050565b60006200082a82620007fd565b9050919050565b6200083c816200081d565b81146200084857600080fd5b50565b6000815190506200085c8162000831565b92915050565b600080fd5b600080fd5b6000601f19601f8301169050919050565b7f4e487b7100000000000000000000000000000000000000000000000000000000600052604160045260246000fd5b620008b7826200086c565b810181811067ffffffffffffffff82111715620008d957620008d86200087d565b5b80604052505050565b6000620008ee620007ae565b9050620008fc8282620008ac565b919050565b600067ffffffffffffffff8211156200091f576200091e6200087d565b5b6200092a826200086c565b9050602081019050919050565b60005b83811015620009575780820151818401526020810190506200093a565b8381111562000967576000848401525b50505050565b6000620009846200097e8462000901565b620008e2565b905082815260208101848484011115620009a357620009a262000867565b5b620009b084828562000937565b509392505050565b600082601f830112620009d057620009cf62000862565b5b8151620009e28482602086016200096d565b91505092915050565b60008060008060008060008060006101208a8c03121562000a115762000a10620007b8565b5b600062000a218c828d01620007e6565b995050602062000a348c828d016200084b565b98505060408a015167ffffffffffffffff81111562000a585762000a57620007bd565b5b62000a668c828d01620009b8565b97505060608a015167ffffffffffffffff81111562000a8a5762000a89620007bd565b5b62000a988c828d01620009b8565b96505060808a015167ffffffffffffffff81111562000abc5762000abb620007bd565b5b62000aca8c828d01620009b8565b95505060a08a015167ffffffffffffffff81111562000aee5762000aed620007bd565b5b62000afc8c828d01620009b8565b94505060c08a015167ffffffffffffffff81111562000b205762000b1f620007bd565b5b62000b2e8c828d01620009b8565b93505060e062000b418c828d01620007e6565b9250506101008a015167ffffffffffffffff81111562000b665762000b65620007bd565b5b62000b748c828d01620009b8565b9150509295985092959850929598565b600082825260208201905092915050565b7f496c6c6567616c20617070206964000000000000000000000000000000000000600082015250565b600062000bcd600e8362000b84565b915062000bda8262000b95565b602082019050919050565b6000602082019050818103600083015262000c008162000bbe565b9050919050565b7f5072696365206d7573742062652067726561746572207468616e203000000000600082015250565b600062000c3f601c8362000b84565b915062000c4c8262000c07565b602082019050919050565b6000602082019050818103600083015262000c728162000c30565b9050919050565b600081519050919050565b600082825260208201905092915050565b600062000ca28262000c79565b62000cae818562000c84565b935062000cc081856020860162000937565b62000ccb816200086c565b840191505092915050565b6000602082019050818103600083015262000cf2818462000c95565b905092915050565b60008115159050919050565b62000d118162000cfa565b811462000d1d57600080fd5b50565b60008151905062000d318162000d06565b92915050565b60006020828403121562000d505762000d4f620007b8565b5b600062000d608482850162000d20565b91505092915050565b7f537472696e67206d757374206e6f7420626520656d7074790000000000000000600082015250565b600062000da160188362000b84565b915062000dae8262000d69565b602082019050919050565b6000602082019050818103600083015262000dd48162000d92565b9050919050565b7f4e487b7100000000000000000000000000000000000000000000000000000000600052602260045260246000fd5b6000600282049050600182168062000e2357607f821691505b60208210810362000e395762000e3862000ddb565b5b50919050565b600081905092915050565b60008190508160005260206000209050919050565b6000815462000e6e8162000e0a565b62000e7a818662000e3f565b9450600182166000811462000e98576001811462000eaa5762000ee1565b60ff1983168652818601935062000ee1565b62000eb58562000e4a565b60005b8381101562000ed95781548189015260018201915060208101905062000eb8565b838801955050505b50505092915050565b600062000ef8828462000e5f565b915081905092915050565b62000f0e816200081d565b82525050565b600060208201905062000f2b600083018462000f03565b92915050565b612f9e8062000f416000396000f3fe608060405234801561001057600080fd5b50600436106101585760003560e01c80638da5cb5b116100c3578063da0c57e91161007c578063da0c57e91461035c578063e26799ff14610378578063e9cd36d314610396578063f2fde38b146103b2578063fabec44a146103ce578063fafb1b01146103ec57610158565b80638da5cb5b146102a8578063a035b1fe146102c6578063a512bd79146102e4578063af640d0f14610302578063d23fe7c714610320578063d68387c71461033e57610158565b8063554ca36c11610115578063554ca36c1461020b5780636904c94d14610227578063715018a6146102455780637284e4161461024f57806373b8fc801461026d57806381ecdf451461028c57610158565b806302d05d3f1461015d57806306fdde031461017b578063128a8f761461019957806334b1a7cc146101b557806342cbef95146101d35780634ad3d57d146101ef575b600080fd5b610165610408565b6040516101729190612067565b60405180910390f35b61018361042e565b604051610190919061211b565b60405180910390f35b6101b360048036038101906101ae91906121b6565b6104bc565b005b6101bd6106c8565b6040516101ca919061221c565b60405180910390f35b6101ed60048036038101906101e891906121b6565b6106d4565b005b610209600480360381019061020491906121b6565b6108e0565b005b610225600480360381019061022091906121b6565b610aec565b005b61022f610d51565b60405161023c919061211b565b60405180910390f35b61024d610ddf565b005b610257610e67565b604051610264919061211b565b60405180910390f35b610275610ef5565b604051610283929190612237565b60405180910390f35b6102a660048036038101906102a191906121b6565b610f1d565b005b6102b0611129565b6040516102bd9190612281565b60405180910390f35b6102ce611152565b6040516102db919061221c565b60405180910390f35b6102ec611158565b6040516102f9919061211b565b60405180910390f35b61030a6111e6565b604051610317919061221c565b60405180910390f35b6103286111ec565b604051610335919061221c565b60405180910390f35b6103466111f8565b604051610353919061211b565b60405180910390f35b610376600480360381019061037191906123cc565b611286565b005b6103806114a2565b60405161038d9190612594565b60405180910390f35b6103b060048036038101906103ab91906125e2565b611744565b005b6103cc60048036038101906103c7919061263b565b611898565b005b6103d661198f565b6040516103e3919061211b565b60405180910390f35b610406600480360381019061040191906121b6565b611a4e565b005b600260009054906101000a900473ffffffffffffffffffffffffffffffffffffffff1681565b6003805461043b90612697565b80601f016020809104026020016040519081016040528092919081815260200182805461046790612697565b80156104b45780601f10610489576101008083540402835291602001916104b4565b820191906000526020600020905b81548152906001019060200180831161049757829003601f168201915b505050505081565b6104c4611c67565b73ffffffffffffffffffffffffffffffffffffffff166104e2611129565b73ffffffffffffffffffffffffffffffffffffffff1614610538576040517f08c379a000000000000000000000000000000000000000000000000000000000815260040161052f90612714565b60405180910390fd5b81818080601f016020809104026020016040519081016040528093929190818152602001838380828437600081840152601f19601f820116905080830192505050505050508073__StringUtils___________________________6327341c8a90916040518263ffffffff1660e01b81526004016105b6919061277e565b602060405180830381865af41580156105d3573d6000803e3d6000fd5b505050506040513d601f19601f820116820180604052508101906105f791906127cc565b15610637576040517f08c379a000000000000000000000000000000000000000000000000000000000815260040161062e90612845565b60405180910390fd5b8282604051610647929190612895565b6040518091039020600860405161065e9190612942565b6040518091039020604051610672906129a5565b60405180910390207f1f7eeccc90c93b6a65fbe0be0414ed24073262ce0f988484e24f275529193e6f336040516106a99190612281565b60405180910390a48282600891906106c2929190611ea1565b50505050565b600d8060000154905081565b6106dc611c67565b73ffffffffffffffffffffffffffffffffffffffff166106fa611129565b73ffffffffffffffffffffffffffffffffffffffff1614610750576040517f08c379a000000000000000000000000000000000000000000000000000000000815260040161074790612714565b60405180910390fd5b81818080601f016020809104026020016040519081016040528093929190818152602001838380828437600081840152601f19601f820116905080830192505050505050508073__StringUtils___________________________6327341c8a90916040518263ffffffff1660e01b81526004016107ce919061277e565b602060405180830381865af41580156107eb573d6000803e3d6000fd5b505050506040513d601f19601f8201168201806040525081019061080f91906127cc565b1561084f576040517f08c379a000000000000000000000000000000000000000000000000000000000815260040161084690612845565b60405180910390fd5b828260405161085f929190612895565b604051809103902060066040516108769190612942565b604051809103902060405161088a90612a06565b60405180910390207f1f7eeccc90c93b6a65fbe0be0414ed24073262ce0f988484e24f275529193e6f336040516108c19190612281565b60405180910390a48282600691906108da929190611ea1565b50505050565b6108e8611c67565b73ffffffffffffffffffffffffffffffffffffffff16610906611129565b73ffffffffffffffffffffffffffffffffffffffff161461095c576040517f08c379a000000000000000000000000000000000000000000000000000000000815260040161095390612714565b60405180910390fd5b81818080601f016020809104026020016040519081016040528093929190818152602001838380828437600081840152601f19601f820116905080830192505050505050508073__StringUtils___________________________6327341c8a90916040518263ffffffff1660e01b81526004016109da919061277e565b602060405180830381865af41580156109f7573d6000803e3d6000fd5b505050506040513d601f19601f82011682018060405250810190610a1b91906127cc565b15610a5b576040517f08c379a0000000000000000000000000000000000000000000000000000000008152600401610a5290612845565b60405180910390fd5b8282604051610a6b929190612895565b60405180910390206007604051610a829190612942565b6040518091039020604051610a9690612a67565b60405180910390207f1f7eeccc90c93b6a65fbe0be0414ed24073262ce0f988484e24f275529193e6f33604051610acd9190612281565b60405180910390a4828260079190610ae6929190611ea1565b50505050565b610af4611c67565b73ffffffffffffffffffffffffffffffffffffffff16610b12611129565b73ffffffffffffffffffffffffffffffffffffffff1614610b68576040517f08c379a0000000000000000000000000000000000000000000000000000000008152600401610b5f90612714565b60405180910390fd5b81818080601f016020809104026020016040519081016040528093929190818152602001838380828437600081840152601f19601f820116905080830192505050505050508073__StringUtils___________________________6327341c8a90916040518263ffffffff1660e01b8152600401610be6919061277e565b602060405180830381865af4158015610c03573d6000803e3d6000fd5b505050506040513d601f19601f82011682018060405250810190610c2791906127cc565b15610c67576040517f08c379a0000000000000000000000000000000000000000000000000000000008152600401610c5e90612845565b60405180910390fd5b8282604051610c77929190612895565b604051809103902060056001600580549050610c939190612aab565b81548110610ca457610ca3612adf565b5b90600052602060002001604051610cbb9190612942565b6040518091039020604051610ccf90612b5a565b60405180910390207f1f7eeccc90c93b6a65fbe0be0414ed24073262ce0f988484e24f275529193e6f33604051610d069190612281565b60405180910390a46005838390918060018154018082558091505060019003906000526020600020016000909192909192909192909192509190610d4b929190611ea1565b50505050565b60088054610d5e90612697565b80601f0160208091040260200160405190810160405280929190818152602001828054610d8a90612697565b8015610dd75780601f10610dac57610100808354040283529160200191610dd7565b820191906000526020600020905b815481529060010190602001808311610dba57829003601f168201915b505050505081565b610de7611c67565b73ffffffffffffffffffffffffffffffffffffffff16610e05611129565b73ffffffffffffffffffffffffffffffffffffffff1614610e5b576040517f08c379a0000000000000000000000000000000000000000000000000000000008152600401610e5290612714565b60405180910390fd5b610e656000611c6f565b565b60048054610e7490612697565b80601f0160208091040260200160405190810160405280929190818152602001828054610ea090612697565b8015610eed5780601f10610ec257610100808354040283529160200191610eed565b820191906000526020600020905b815481529060010190602001808311610ed057829003601f168201915b505050505081565b600080600060095411610f0e5760008091509150610f19565b600954600a54915091505b9091565b610f25611c67565b73ffffffffffffffffffffffffffffffffffffffff16610f43611129565b73ffffffffffffffffffffffffffffffffffffffff1614610f99576040517f08c379a0000000000000000000000000000000000000000000000000000000008152600401610f9090612714565b60405180910390fd5b81818080601f016020809104026020016040519081016040528093929190818152602001838380828437600081840152601f19601f820116905080830192505050505050508073__StringUtils___________________________6327341c8a90916040518263ffffffff1660e01b8152600401611017919061277e565b602060405180830381865af4158015611034573d6000803e3d6000fd5b505050506040513d601f19601f8201168201806040525081019061105891906127cc565b15611098576040517f08c379a000000000000000000000000000000000000000000000000000000000815260040161108f90612845565b60405180910390fd5b82826040516110a8929190612895565b604051809103902060036040516110bf9190612942565b60405180910390206040516110d390612bbb565b60405180910390207f1f7eeccc90c93b6a65fbe0be0414ed24073262ce0f988484e24f275529193e6f3360405161110a9190612281565b60405180910390a4828260039190611123929190611ea1565b50505050565b60008060009054906101000a900473ffffffffffffffffffffffffffffffffffffffff16905090565b600b5481565b6006805461116590612697565b80601f016020809104026020016040519081016040528092919081815260200182805461119190612697565b80156111de5780601f106111b3576101008083540402835291602001916111de565b820191906000526020600020905b8154815290600101906020018083116111c157829003601f168201915b505050505081565b60015481565b600c8060000154905081565b6007805461120590612697565b80601f016020809104026020016040519081016040528092919081815260200182805461123190612697565b801561127e5780601f106112535761010080835404028352916020019161127e565b820191906000526020600020905b81548152906001019060200180831161126157829003601f168201915b505050505081565b61128e611c67565b73ffffffffffffffffffffffffffffffffffffffff166112ac611129565b73ffffffffffffffffffffffffffffffffffffffff1614611302576040517f08c379a00000000000000000000000000000000000000000000000000000000081526004016112f990612714565b60405180910390fd5b808073__StringUtils___________________________6327341c8a90916040518263ffffffff1660e01b815260040161133c919061277e565b602060405180830381865af4158015611359573d6000803e3d6000fd5b505050506040513d601f19601f8201168201806040525081019061137d91906127cc565b156113bd576040517f08c379a00000000000000000000000000000000000000000000000000000000081526004016113b490612845565b60405180910390fd5b816040516113cb9190612c01565b6040518091039020600560016005805490506113e79190612aab565b815481106113f8576113f7612adf565b5b9060005260206000200160405161140f9190612942565b604051809103902060405161142390612c64565b60405180910390207f1f7eeccc90c93b6a65fbe0be0414ed24073262ce0f988484e24f275529193e6f3360405161145a9190612281565b60405180910390a460058290806001815401808255809150506001900390600052602060002001600090919091909150908051906020019061149d929190611f27565b505050565b6114aa611fad565b60006040518061016001604052806001548152602001600380546114cd90612697565b80601f01602080910402602001604051908101604052809291908181526020018280546114f990612697565b80156115465780601f1061151b57610100808354040283529160200191611546565b820191906000526020600020905b81548152906001019060200180831161152957829003601f168201915b505050505081526020016004805461155d90612697565b80601f016020809104026020016040519081016040528092919081815260200182805461158990612697565b80156115d65780601f106115ab576101008083540402835291602001916115d6565b820191906000526020600020905b8154815290600101906020018083116115b957829003601f168201915b50505050508152602001600780546115ed90612697565b80601f016020809104026020016040519081016040528092919081815260200182805461161990612697565b80156116665780601f1061163b57610100808354040283529160200191611666565b820191906000526020600020905b81548152906001019060200180831161164957829003601f168201915b505050505081526020016008805461167d90612697565b80601f01602080910402602001604051908101604052809291908181526020018280546116a990612697565b80156116f65780601f106116cb576101008083540402835291602001916116f6565b820191906000526020600020905b8154815290600101906020018083116116d957829003601f168201915b50505050508152602001600b548152602001611712600c611d33565b81526020016009548152602001600a54815260200161172f61198f565b81526020016000151581525090508091505090565b61174c611c67565b73ffffffffffffffffffffffffffffffffffffffff1661176a611129565b73ffffffffffffffffffffffffffffffffffffffff16146117c0576040517f08c379a00000000000000000000000000000000000000000000000000000000081526004016117b790612714565b60405180910390fd5b8060008111611804576040517f08c379a00000000000000000000000000000000000000000000000000000000081526004016117fb90612cc5565b60405180910390fd5b61180d82611d41565b60405161181a9190612c01565b604051809103902061182d600b54611d41565b60405161183a9190612c01565b604051809103902060405161184e90612d31565b60405180910390207f1f7eeccc90c93b6a65fbe0be0414ed24073262ce0f988484e24f275529193e6f336040516118859190612281565b60405180910390a481600b819055505050565b6118a0611c67565b73ffffffffffffffffffffffffffffffffffffffff166118be611129565b73ffffffffffffffffffffffffffffffffffffffff1614611914576040517f08c379a000000000000000000000000000000000000000000000000000000000815260040161190b90612714565b60405180910390fd5b600073ffffffffffffffffffffffffffffffffffffffff168173ffffffffffffffffffffffffffffffffffffffff1603611983576040517f08c379a000000000000000000000000000000000000000000000000000000000815260040161197a90612db8565b60405180910390fd5b61198c81611c6f565b50565b6060600560016005805490506119a59190612aab565b815481106119b6576119b5612adf565b5b9060005260206000200180546119cb90612697565b80601f01602080910402602001604051908101604052809291908181526020018280546119f790612697565b8015611a445780601f10611a1957610100808354040283529160200191611a44565b820191906000526020600020905b815481529060010190602001808311611a2757829003601f168201915b5050505050905090565b611a56611c67565b73ffffffffffffffffffffffffffffffffffffffff16611a74611129565b73ffffffffffffffffffffffffffffffffffffffff1614611aca576040517f08c379a0000000000000000000000000000000000000000000000000000000008152600401611ac190612714565b60405180910390fd5b81818080601f016020809104026020016040519081016040528093929190818152602001838380828437600081840152601f19601f820116905080830192505050505050508073__StringUtils___________________________6327341c8a90916040518263ffffffff1660e01b8152600401611b48919061277e565b602060405180830381865af4158015611b65573d6000803e3d6000fd5b505050506040513d601f19601f82011682018060405250810190611b8991906127cc565b15611bc9576040517f08c379a0000000000000000000000000000000000000000000000000000000008152600401611bc090612845565b60405180910390fd5b8282604051611bd9929190612895565b60405180910390206004604051611bf09190612942565b6040518091039020604051611c0490612e24565b60405180910390207f1f7eeccc90c93b6a65fbe0be0414ed24073262ce0f988484e24f275529193e6f33604051611c3b9190612281565b60405180910390a4828260049190611c54929190611ea1565b50505050565b6000816000018190555050565b600033905090565b60008060009054906101000a900473ffffffffffffffffffffffffffffffffffffffff169050816000806101000a81548173ffffffffffffffffffffffffffffffffffffffff021916908373ffffffffffffffffffffffffffffffffffffffff1602179055508173ffffffffffffffffffffffffffffffffffffffff168173ffffffffffffffffffffffffffffffffffffffff167f8be0079c531659141344cd1fd0a4f28419497f9722a3daafe3b4186f6b6457e060405160405180910390a35050565b600081600001549050919050565b606060008203611d88576040518060400160405280600181526020017f30000000000000000000000000000000000000000000000000000000000000008152509050611e9c565b600082905060005b60008214611dba578080611da390612e39565b915050600a82611db39190612eb0565b9150611d90565b60008167ffffffffffffffff811115611dd657611dd56122a1565b5b6040519080825280601f01601f191660200182016040528015611e085781602001600182028036833780820191505090505b5090505b60008514611e9557600182611e219190612aab565b9150600a85611e309190612ee1565b6030611e3c9190612f12565b60f81b818381518110611e5257611e51612adf565b5b60200101907effffffffffffffffffffffffffffffffffffffffffffffffffffffffffffff1916908160001a905350600a85611e8e9190612eb0565b9450611e0c565b8093505050505b919050565b828054611ead90612697565b90600052602060002090601f016020900481019282611ecf5760008555611f16565b82601f10611ee857803560ff1916838001178555611f16565b82800160010185558215611f16579182015b82811115611f15578235825591602001919060010190611efa565b5b509050611f239190612009565b5090565b828054611f3390612697565b90600052602060002090601f016020900481019282611f555760008555611f9c565b82601f10611f6e57805160ff1916838001178555611f9c565b82800160010185558215611f9c579182015b82811115611f9b578251825591602001919060010190611f80565b5b509050611fa99190612009565b5090565b604051806101600160405280600081526020016060815260200160608152602001606081526020016060815260200160008152602001600081526020016000815260200160008152602001606081526020016000151581525090565b5b8082111561202257600081600090555060010161200a565b5090565b600073ffffffffffffffffffffffffffffffffffffffff82169050919050565b600061205182612026565b9050919050565b61206181612046565b82525050565b600060208201905061207c6000830184612058565b92915050565b600081519050919050565b600082825260208201905092915050565b60005b838110156120bc5780820151818401526020810190506120a1565b838111156120cb576000848401525b50505050565b6000601f19601f8301169050919050565b60006120ed82612082565b6120f7818561208d565b935061210781856020860161209e565b612110816120d1565b840191505092915050565b6000602082019050818103600083015261213581846120e2565b905092915050565b6000604051905090565b600080fd5b600080fd5b600080fd5b600080fd5b600080fd5b60008083601f84011261217657612175612151565b5b8235905067ffffffffffffffff81111561219357612192612156565b5b6020830191508360018202830111156121af576121ae61215b565b5b9250929050565b600080602083850312156121cd576121cc612147565b5b600083013567ffffffffffffffff8111156121eb576121ea61214c565b5b6121f785828601612160565b92509250509250929050565b6000819050919050565b61221681612203565b82525050565b6000602082019050612231600083018461220d565b92915050565b600060408201905061224c600083018561220d565b612259602083018461220d565b9392505050565b600061226b82612026565b9050919050565b61227b81612260565b82525050565b60006020820190506122966000830184612272565b92915050565b600080fd5b7f4e487b7100000000000000000000000000000000000000000000000000000000600052604160045260246000fd5b6122d9826120d1565b810181811067ffffffffffffffff821117156122f8576122f76122a1565b5b80604052505050565b600061230b61213d565b905061231782826122d0565b919050565b600067ffffffffffffffff821115612337576123366122a1565b5b612340826120d1565b9050602081019050919050565b82818337600083830152505050565b600061236f61236a8461231c565b612301565b90508281526020810184848401111561238b5761238a61229c565b5b61239684828561234d565b509392505050565b600082601f8301126123b3576123b2612151565b5b81356123c384826020860161235c565b91505092915050565b6000602082840312156123e2576123e1612147565b5b600082013567ffffffffffffffff811115612400576123ff61214c565b5b61240c8482850161239e565b91505092915050565b61241e81612203565b82525050565b600082825260208201905092915050565b600061244082612082565b61244a8185612424565b935061245a81856020860161209e565b612463816120d1565b840191505092915050565b60008115159050919050565b6124838161246e565b82525050565b6000610160830160008301516124a26000860182612415565b50602083015184820360208601526124ba8282612435565b915050604083015184820360408601526124d48282612435565b915050606083015184820360608601526124ee8282612435565b915050608083015184820360808601526125088282612435565b91505060a083015161251d60a0860182612415565b5060c083015161253060c0860182612415565b5060e083015161254360e0860182612415565b50610100830151612558610100860182612415565b506101208301518482036101208601526125728282612435565b91505061014083015161258961014086018261247a565b508091505092915050565b600060208201905081810360008301526125ae8184612489565b905092915050565b6125bf81612203565b81146125ca57600080fd5b50565b6000813590506125dc816125b6565b92915050565b6000602082840312156125f8576125f7612147565b5b6000612606848285016125cd565b91505092915050565b61261881612260565b811461262357600080fd5b50565b6000813590506126358161260f565b92915050565b60006020828403121561265157612650612147565b5b600061265f84828501612626565b91505092915050565b7f4e487b7100000000000000000000000000000000000000000000000000000000600052602260045260246000fd5b600060028204905060018216806126af57607f821691505b6020821081036126c2576126c1612668565b5b50919050565b7f4f776e61626c653a2063616c6c6572206973206e6f7420746865206f776e6572600082015250565b60006126fe60208361208d565b9150612709826126c8565b602082019050919050565b6000602082019050818103600083015261272d816126f1565b9050919050565b600082825260208201905092915050565b600061275082612082565b61275a8185612734565b935061276a81856020860161209e565b612773816120d1565b840191505092915050565b600060208201905081810360008301526127988184612745565b905092915050565b6127a98161246e565b81146127b457600080fd5b50565b6000815190506127c6816127a0565b92915050565b6000602082840312156127e2576127e1612147565b5b60006127f0848285016127b7565b91505092915050565b7f537472696e67206d757374206e6f7420626520656d7074790000000000000000600082015250565b600061282f60188361208d565b915061283a826127f9565b602082019050919050565b6000602082019050818103600083015261285e81612822565b9050919050565b600081905092915050565b600061287c8385612865565b935061288983858461234d565b82840190509392505050565b60006128a2828486612870565b91508190509392505050565b60008190508160005260206000209050919050565b600081546128d081612697565b6128da8186612865565b945060018216600081146128f5576001811461290657612939565b60ff19831686528186019350612939565b61290f856128ae565b60005b8381101561293157815481890152600182019150602081019050612912565b838801955050505b50505092915050565b600061294e82846128c3565b915081905092915050565b7f7570646174656420636f6d70616e790000000000000000000000000000000000600082015250565b600061298f600f83612865565b915061299a82612959565b600f82019050919050565b60006129b082612982565b9150819050919050565b7f75706461746564206e65775f6d61676e65744c696e6b00000000000000000000600082015250565b60006129f0601683612865565b91506129fb826129ba565b601682019050919050565b6000612a11826129e3565b9150819050919050565b7f7570646174656420696d6755726c000000000000000000000000000000000000600082015250565b6000612a51600e83612865565b9150612a5c82612a1b565b600e82019050919050565b6000612a7282612a44565b9150819050919050565b7f4e487b7100000000000000000000000000000000000000000000000000000000600052601160045260246000fd5b6000612ab682612203565b9150612ac183612203565b925082821015612ad457612ad3612a7c565b5b828203905092915050565b7f4e487b7100000000000000000000000000000000000000000000000000000000600052603260045260246000fd5b7f757064617465642066696c657368610000000000000000000000000000000000600082015250565b6000612b44600f83612865565b9150612b4f82612b0e565b600f82019050919050565b6000612b6582612b37565b9150819050919050565b7f75706461746564206e616d650000000000000000000000000000000000000000600082015250565b6000612ba5600c83612865565b9150612bb082612b6f565b600c82019050919050565b6000612bc682612b98565b9150819050919050565b6000612bdb82612082565b612be58185612865565b9350612bf581856020860161209e565b80840191505092915050565b6000612c0d8284612bd0565b915081905092915050565b7f7570646174656420736861000000000000000000000000000000000000000000600082015250565b6000612c4e600b83612865565b9150612c5982612c18565b600b82019050919050565b6000612c6f82612c41565b9150819050919050565b7f5072696365206d7573742062652067726561746572207468616e203000000000600082015250565b6000612caf601c8361208d565b9150612cba82612c79565b602082019050919050565b60006020820190508181036000830152612cde81612ca2565b9050919050565b7f7570646174656420707269636500000000000000000000000000000000000000600082015250565b6000612d1b600d83612865565b9150612d2682612ce5565b600d82019050919050565b6000612d3c82612d0e565b9150819050919050565b7f4f776e61626c653a206e6577206f776e657220697320746865207a65726f206160008201527f6464726573730000000000000000000000000000000000000000000000000000602082015250565b6000612da260268361208d565b9150612dad82612d46565b604082019050919050565b60006020820190508181036000830152612dd181612d95565b9050919050565b7f75706461746564206465736372697074696f6e00000000000000000000000000600082015250565b6000612e0e601383612865565b9150612e1982612dd8565b601382019050919050565b6000612e2f82612e01565b9150819050919050565b6000612e4482612203565b91507fffffffffffffffffffffffffffffffffffffffffffffffffffffffffffffffff8203612e7657612e75612a7c565b5b600182019050919050565b7f4e487b7100000000000000000000000000000000000000000000000000000000600052601260045260246000fd5b6000612ebb82612203565b9150612ec683612203565b925082612ed657612ed5612e81565b5b828204905092915050565b6000612eec82612203565b9150612ef783612203565b925082612f0757612f06612e81565b5b828206905092915050565b6000612f1d82612203565b9150612f2883612203565b9250827fffffffffffffffffffffffffffffffffffffffffffffffffffffffffffffffff03821115612f5d57612f5c612a7c565b5b82820190509291505056fea264697066735822122021fa790f29fa46e71398653c90a752045b291e1aedc87c96ae6a3e5aaf29da5f64736f6c634300080e0033",
  "immutableReferences": {},
  "source": "//SPDX-License-Identifier: UNLICENSED\r\npragma solidity ^0.8.0;\r\n\r\nimport {Constants, Events, StringUtils} from './dappstore_utils.sol';\r\nimport {AppInfoLibrary} from './AppInfoLibrary.sol';\r\n\r\nimport \"@openzeppelin/contracts/utils/Strings.sol\";\r\nimport \"@openzeppelin/contracts/access/Ownable.sol\";\r\nimport \"@openzeppelin/contracts/utils/Counters.sol\";\r\n\r\ncontract App is Ownable {\r\n    //App contract provides a data structure of an app and\r\n    //an API to work with for external use\r\n    using StringUtils for string;\r\n    using Counters for Counters.Counter;\r\n    uint256 public  id;\r\n    address payable public creator;\r\n    string public name;\r\n    string public description;\r\n    string[] fileSha256; //last is SHA of latest version.\r\n    string public magnetLink;\r\n    string public imgUrl;\r\n    string public company;\r\n    uint rating_int; //0 means not rated\r\n    uint rating_modulu;\r\n    uint public price; //in wei\r\n    Counters.Counter public num_ratings;\r\n    Counters.Counter public num_purchases;\r\n\r\n    constructor(uint _id,\r\n                address _creator,\r\n                string memory _name,\r\n                string memory _description,\r\n                string memory _magnetLink,\r\n                string memory _imgUrl,\r\n                string memory _company,\r\n                uint _price,\r\n                string memory _fileSha256)\r\n                validateID(_id) validatePrice(_price) validateString(_name)\r\n                validateString(_magnetLink) validateString(_fileSha256)\r\n    {\r\n    creator = payable(_creator);\r\n    id  = _id;\r\n    name  = _name;\r\n    description = _description;\r\n\r\n    magnetLink = _magnetLink;\r\n    imgUrl = _imgUrl;\r\n    if(_imgUrl.isEmpty()){\r\n        imgUrl = Constants.DEFAULT_APP_IMAGE;\r\n    }\r\n    company = _company;\r\n    rating_int = Constants.UNRATED;\r\n    rating_modulu = Constants.UNRATED;\r\n    price = _price;\r\n    fileSha256.push(_fileSha256);\r\n    num_ratings.reset();\r\n    num_purchases.reset();\r\n    emit Events.AppCreated(name, id, creator, owner());\r\n    }\r\n\r\n    //valdiations\r\n    modifier validateID(uint _id){\r\n        require(_id >= 0, 'Illegal app id');\r\n        _;\r\n    }\r\n\r\n    modifier validateRating(uint _rating){\r\n        require(_rating >=0 && _rating <=5);\r\n        _;\r\n    }\r\n\r\n    modifier validatePrice(uint _price){\r\n        require(_price > 0, 'Price must be greater than 0');\r\n        _;\r\n    }\r\n\r\n    modifier validateString(string memory _string){\r\n        require(!_string.isEmpty(), 'String must not be empty');\r\n        _;\r\n    }\r\n\r\n    //getters\r\n    function getCurrentVersion() public view returns(string memory){\r\n        return fileSha256[fileSha256.length - 1];\r\n    }\r\n\r\n    function getAppRating() external view returns (uint, uint){\r\n        if (rating_int <= 0){\r\n            return (0, 0);\r\n        }\r\n    return (rating_int, rating_modulu);\r\n    }\r\n\r\n    //updaters\r\n    function updateAppName(string calldata new_name) external onlyOwner validateString(new_name){\r\n        emit Events.UpdatedContent('updated name', name, new_name, msg.sender);\r\n        name = new_name;\r\n    }\r\n\r\n    function updateAppDescription(string calldata new_description) external onlyOwner validateString(new_description){\r\n        emit Events.UpdatedContent('updated description', description, new_description, msg.sender);\r\n        description = new_description;\r\n    }\r\n\r\n    function updateAppImgUrl(string calldata new_imgUrl) external onlyOwner validateString(new_imgUrl){\r\n        emit Events.UpdatedContent('updated imgUrl', imgUrl, new_imgUrl, msg.sender);\r\n        imgUrl = new_imgUrl;\r\n    }\r\n\r\n    function updateAppMagnetLink(string calldata new_magnetLink) external onlyOwner validateString(new_magnetLink){\r\n        emit Events.UpdatedContent('updated new_magnetLink', magnetLink, new_magnetLink, msg.sender);\r\n        magnetLink = new_magnetLink;\r\n    }\r\n    function updateAppVersion(string memory new_sha) external onlyOwner validateString(new_sha) {\r\n        emit Events.UpdatedContent('updated sha', fileSha256[fileSha256.length - 1], new_sha, msg.sender);\r\n        fileSha256.push(new_sha);\r\n    }\r\n\r\n    function updateAppCompany(string calldata new_company) external onlyOwner validateString(new_company){\r\n        emit Events.UpdatedContent('updated company', company, new_company, msg.sender);\r\n        company = new_company;\r\n    }\r\n\r\n    function updateAppPrice(uint new_price) external onlyOwner validatePrice(new_price){\r\n        emit Events.UpdatedContent('updated price', Strings.toString(price), Strings.toString(new_price), msg.sender);\r\n        price = new_price;\r\n    }\r\n\r\n\r\n    function updateAppFileSha(string calldata new_filesha) external onlyOwner validateString(new_filesha){\r\n        emit Events.UpdatedContent('updated filesha', fileSha256[fileSha256.length - 1], new_filesha, msg.sender);\r\n        fileSha256.push(new_filesha);\r\n    }\r\n\r\n    // function rateApp(uint old_rating, uint old_rating_modulu, uint new_rating) external\r\n    // onlyOwner validateRating(old_rating) validateRating(new_rating) returns(uint, uint){\r\n    //     require(new_rating >= 1, 'Can\\'t give 0 stars');\r\n    //     uint total_rating = rating_int * num_ratings.current() + rating_modulu;\r\n    //     if (old_rating == 0){\r\n    //         num_ratings.increment();\r\n    //     }\r\n    //     //TODO: Make sure subtraction is validated (Maybe OpenZepplin?)\r\n    //     total_rating += new_rating - old_rating;\r\n    //     rating_int = total_rating / num_ratings.current();\r\n    //     rating_modulu = total_rating % num_ratings.current();\r\n    //     return (rating_int, rating_modulu);\r\n    //     }\r\n\r\n    function getAppInfo() view external returns(AppInfoLibrary.AppInfo memory){\r\n        // (uint rating, uint rating_modulu) = _app.getAppRating();\r\n        AppInfoLibrary.AppInfo memory app_info = AppInfoLibrary.AppInfo(\r\n            id,\r\n            name,\r\n            description,\r\n            imgUrl,\r\n            company,\r\n            price,\r\n            num_ratings.current(),\r\n            rating_int,\r\n            rating_modulu,\r\n            getCurrentVersion(),\r\n            false\r\n        );\r\n        return app_info;\r\n    }\r\n\r\n}\r\n\r\n\r\n",
  "sourcePath": "C:\\Users\\User\\Documents\\GitHub\\SmartContracts\\contracts\\app.sol",
  "compiler": {
    "name": "solc",
    "version": "0.8.14+commit.80d49f37.Emscripten.clang"
  },
  "schemaVersion": "3.4.7",
  "updatedAt": "2022-06-10T12:53:49.059Z",
  "devdoc": {
    "kind": "dev",
    "methods": {
      "owner()": {
        "details": "Returns the address of the current owner."
      },
      "renounceOwnership()": {
        "details": "Leaves the contract without owner. It will not be possible to call `onlyOwner` functions anymore. Can only be called by the current owner. NOTE: Renouncing ownership will leave the contract without an owner, thereby removing any functionality that is only available to the owner."
      },
      "transferOwnership(address)": {
        "details": "Transfers ownership of the contract to a new account (`newOwner`). Can only be called by the current owner."
      }
    },
    "version": 1
  },
  "userdoc": {
    "kind": "user",
    "methods": {},
    "version": 1
  }
}