{
  "contractName": "App",
  "abi": [
    {
      "inputs": [
        {
          "internalType": "uint256",
          "name": "_id",
          "type": "uint256"
        },
        {
          "internalType": "address",
          "name": "_creator",
          "type": "address"
        },
        {
          "internalType": "string",
          "name": "_name",
          "type": "string"
        },
        {
          "internalType": "string",
          "name": "_description",
          "type": "string"
        },
        {
          "internalType": "string",
          "name": "_magnetLink",
          "type": "string"
        },
        {
          "internalType": "string",
          "name": "_imgUrl",
          "type": "string"
        },
        {
          "internalType": "string",
          "name": "_company",
          "type": "string"
        },
        {
          "internalType": "uint256",
          "name": "_price",
          "type": "uint256"
        },
        {
          "internalType": "string",
          "name": "_fileSha256",
          "type": "string"
        }
      ],
      "stateMutability": "nonpayable",
      "type": "constructor"
    },
    {
      "anonymous": false,
      "inputs": [
        {
          "indexed": true,
          "internalType": "address",
          "name": "previousOwner",
          "type": "address"
        },
        {
          "indexed": true,
          "internalType": "address",
          "name": "newOwner",
          "type": "address"
        }
      ],
      "name": "OwnershipTransferred",
      "type": "event"
    },
    {
      "inputs": [],
      "name": "company",
      "outputs": [
        {
          "internalType": "string",
          "name": "",
          "type": "string"
        }
      ],
      "stateMutability": "view",
      "type": "function"
    },
    {
      "inputs": [],
      "name": "creator",
      "outputs": [
        {
          "internalType": "address payable",
          "name": "",
          "type": "address"
        }
      ],
      "stateMutability": "view",
      "type": "function"
    },
    {
      "inputs": [],
      "name": "description",
      "outputs": [
        {
          "internalType": "string",
          "name": "",
          "type": "string"
        }
      ],
      "stateMutability": "view",
      "type": "function"
    },
    {
      "inputs": [],
      "name": "id",
      "outputs": [
        {
          "internalType": "uint256",
          "name": "",
          "type": "uint256"
        }
      ],
      "stateMutability": "view",
      "type": "function"
    },
    {
      "inputs": [],
      "name": "imgUrl",
      "outputs": [
        {
          "internalType": "string",
          "name": "",
          "type": "string"
        }
      ],
      "stateMutability": "view",
      "type": "function"
    },
    {
      "inputs": [],
      "name": "magnetLink",
      "outputs": [
        {
          "internalType": "string",
          "name": "",
          "type": "string"
        }
      ],
      "stateMutability": "view",
      "type": "function"
    },
    {
      "inputs": [],
      "name": "name",
      "outputs": [
        {
          "internalType": "string",
          "name": "",
          "type": "string"
        }
      ],
      "stateMutability": "view",
      "type": "function"
    },
    {
      "inputs": [],
      "name": "num_purchases",
      "outputs": [
        {
          "internalType": "uint256",
          "name": "_value",
          "type": "uint256"
        }
      ],
      "stateMutability": "view",
      "type": "function"
    },
    {
      "inputs": [],
      "name": "num_ratings",
      "outputs": [
        {
          "internalType": "uint256",
          "name": "_value",
          "type": "uint256"
        }
      ],
      "stateMutability": "view",
      "type": "function"
    },
    {
      "inputs": [],
      "name": "owner",
      "outputs": [
        {
          "internalType": "address",
          "name": "",
          "type": "address"
        }
      ],
      "stateMutability": "view",
      "type": "function"
    },
    {
      "inputs": [],
      "name": "price",
      "outputs": [
        {
          "internalType": "uint256",
          "name": "",
          "type": "uint256"
        }
      ],
      "stateMutability": "view",
      "type": "function"
    },
    {
      "inputs": [],
      "name": "renounceOwnership",
      "outputs": [],
      "stateMutability": "nonpayable",
      "type": "function"
    },
    {
      "inputs": [
        {
          "internalType": "address",
          "name": "newOwner",
          "type": "address"
        }
      ],
      "name": "transferOwnership",
      "outputs": [],
      "stateMutability": "nonpayable",
      "type": "function"
    },
    {
      "inputs": [],
      "name": "getCurrentVersion",
      "outputs": [
        {
          "internalType": "string",
          "name": "",
          "type": "string"
        }
      ],
      "stateMutability": "view",
      "type": "function"
    },
    {
      "inputs": [],
      "name": "getAppRating",
      "outputs": [
        {
          "internalType": "uint256",
          "name": "",
          "type": "uint256"
        },
        {
          "internalType": "uint256",
          "name": "",
          "type": "uint256"
        }
      ],
      "stateMutability": "view",
      "type": "function"
    },
    {
      "inputs": [
        {
          "internalType": "string",
          "name": "new_name",
          "type": "string"
        }
      ],
      "name": "updateAppName",
      "outputs": [],
      "stateMutability": "nonpayable",
      "type": "function"
    },
    {
      "inputs": [
        {
          "internalType": "string",
          "name": "new_description",
          "type": "string"
        }
      ],
      "name": "updateAppDescription",
      "outputs": [],
      "stateMutability": "nonpayable",
      "type": "function"
    },
    {
      "inputs": [
        {
          "internalType": "string",
          "name": "new_imgUrl",
          "type": "string"
        }
      ],
      "name": "updateAppImgUrl",
      "outputs": [],
      "stateMutability": "nonpayable",
      "type": "function"
    },
    {
      "inputs": [
        {
          "internalType": "string",
          "name": "new_magnetLink",
          "type": "string"
        }
      ],
      "name": "updateAppMagnetLink",
      "outputs": [],
      "stateMutability": "nonpayable",
      "type": "function"
    },
    {
      "inputs": [
        {
          "internalType": "string",
          "name": "new_sha",
          "type": "string"
        }
      ],
      "name": "updateAppVersion",
      "outputs": [],
      "stateMutability": "nonpayable",
      "type": "function"
    },
    {
      "inputs": [
        {
          "internalType": "string",
          "name": "new_company",
          "type": "string"
        }
      ],
      "name": "updateAppCompany",
      "outputs": [],
      "stateMutability": "nonpayable",
      "type": "function"
    },
    {
      "inputs": [
        {
          "internalType": "uint256",
          "name": "new_price",
          "type": "uint256"
        }
      ],
      "name": "updateAppPrice",
      "outputs": [],
      "stateMutability": "nonpayable",
      "type": "function"
    },
    {
      "inputs": [
        {
          "internalType": "string",
          "name": "new_filesha",
          "type": "string"
        }
      ],
      "name": "updateAppFileSha",
      "outputs": [],
      "stateMutability": "nonpayable",
      "type": "function"
    },
    {
      "inputs": [],
      "name": "getAppInfo",
      "outputs": [
        {
          "components": [
            {
              "internalType": "uint256",
              "name": "id",
              "type": "uint256"
            },
            {
              "internalType": "string",
              "name": "name",
              "type": "string"
            },
            {
              "internalType": "string",
              "name": "description",
              "type": "string"
            },
            {
              "internalType": "string",
              "name": "imgUrl",
              "type": "string"
            },
            {
              "internalType": "string",
              "name": "company",
              "type": "string"
            },
            {
              "internalType": "uint256",
              "name": "price",
              "type": "uint256"
            },
            {
              "internalType": "uint256",
              "name": "num_ratings",
              "type": "uint256"
            },
            {
              "internalType": "uint256",
              "name": "rating",
              "type": "uint256"
            },
            {
              "internalType": "uint256",
              "name": "rating_modulu",
              "type": "uint256"
            },
            {
              "internalType": "string",
              "name": "fileSha256",
              "type": "string"
            },
            {
              "internalType": "bool",
              "name": "owned",
              "type": "bool"
            }
          ],
          "internalType": "struct AppInfoLibrary.AppInfo",
          "name": "",
          "type": "tuple"
        }
      ],
      "stateMutability": "view",
      "type": "function"
    }
  ],
  "bytecode": "0x60806040523480156200001157600080fd5b506040516200292f3803806200292f833981016040819052620000349162000853565b6200005a6200004b64010000000062000634810204565b64010000000062000638810204565b886200006a565b60405180910390fd5b8260008111620000d7576040517f08c379a000000000000000000000000000000000000000000000000000000000815260206004820152601c60248201527f5072696365206d7573742062652067726561746572207468616e203000000000604482015260640162000061565b6040517f27341c8a000000000000000000000000000000000000000000000000000000008152899073__StringUtils___________________________906327341c8a906200012b90849060040162000982565b602060405180830381865af415801562000149573d6000803e3d6000fd5b505050506040513d601f19601f820116820180604052508101906200016f9190620009b7565b15620001c7576040517f08c379a000000000000000000000000000000000000000000000000000000000815260206004820152601860248201526000805160206200290f833981519152604482015260640162000061565b6040517f27341c8a000000000000000000000000000000000000000000000000000000008152889073__StringUtils___________________________906327341c8a906200021b90849060040162000982565b602060405180830381865af415801562000239573d6000803e3d6000fd5b505050506040513d601f19601f820116820180604052508101906200025f9190620009b7565b15620002b7576040517f08c379a000000000000000000000000000000000000000000000000000000000815260206004820152601860248201526000805160206200290f833981519152604482015260640162000061565b6040517f27341c8a000000000000000000000000000000000000000000000000000000008152859073__StringUtils___________________________906327341c8a906200030b90849060040162000982565b602060405180830381865af415801562000329573d6000803e3d6000fd5b505050506040513d601f19601f820116820180604052508101906200034f9190620009b7565b15620003a7576040517f08c379a000000000000000000000000000000000000000000000000000000000815260206004820152601860248201526000805160206200290f833981519152604482015260640162000061565b60028054600160a060020a031916600160a060020a038f1617905560018e90558b51620003dc9060039060208f01906200069d565b508a51620003f29060049060208e01906200069d565b508951620004089060069060208d01906200069d565b5088516200041e9060079060208c01906200069d565b506040517f27341c8a00000000000000000000000000000000000000000000000000000000815273__StringUtils___________________________906327341c8a9062000471908c9060040162000982565b602060405180830381865af41580156200048f573d6000803e3d6000fd5b505050506040513d601f19601f82011682018060405250810190620004b59190620009b7565b15620005035760408051808201909152600d8082527f64656661756c7420696d61676500000000000000000000000000000000000000602090920191825262000501916007916200069d565b505b8751620005189060089060208b01906200069d565b5060006009819055600a819055600b88905560058054600181018255915286516200056b917f036b6384b5eca791c62761152d0c79bb0604c104a5fb6f4eb0703f3154bb3db0019060208901906200069d565b5062000586600c6401000000006200155f6200068882021704565b620005a0600d6401000000006200155f6200068882021704565b600254600154604051600160a060020a0390921691620005c39060039062000a37565b60405180910390207f4ebeeb573ab9892d0c9b8e2b088b43617667b3479dca07176f29ef21ba848bd1620006056200068e640100000000026401000000009004565b604051600160a060020a03909116815260200160405180910390a4505050505050505050505050505062000af3565b3390565b60008054600160a060020a03838116600160a060020a0319831681178455604051919092169283917f8be0079c531659141344cd1fd0a4f28419497f9722a3daafe3b4186f6b6457e09190a35050565b60009055565b600054600160a060020a031690565b828054620006ab90620009e2565b90600052602060002090601f016020900481019282620006cf57600085556200071a565b82601f10620006ea57805160ff19168380011785556200071a565b828001600101855582156200071a579182015b828111156200071a578251825591602001919060010190620006fd565b50620007289291506200072c565b5090565b5b808211156200072857600081556001016200072d565b8051600160a060020a03811681146200075b57600080fd5b919050565b7f4e487b7100000000000000000000000000000000000000000000000000000000600052604160045260246000fd5b60005b83811015620007ac57818101518382015260200162000792565b83811115620007bc576000848401525b50505050565b600082601f830112620007d457600080fd5b81516001604060020a0380821115620007f157620007f162000760565b604051601f8301601f19908116603f011681019082821181831017156200081c576200081c62000760565b816040528381528660208588010111156200083657600080fd5b620008498460208301602089016200078f565b9695505050505050565b60008060008060008060008060006101208a8c0312156200087357600080fd5b895198506200088560208b0162000743565b975060408a01516001604060020a0380821115620008a257600080fd5b620008b08d838e01620007c2565b985060608c0151915080821115620008c757600080fd5b620008d58d838e01620007c2565b975060808c0151915080821115620008ec57600080fd5b620008fa8d838e01620007c2565b965060a08c01519150808211156200091157600080fd5b6200091f8d838e01620007c2565b955060c08c01519150808211156200093657600080fd5b620009448d838e01620007c2565b945060e08c015193506101008c01519150808211156200096357600080fd5b50620009728c828d01620007c2565b9150509295985092959850929598565b6020815260008251806020840152620009a38160408501602087016200078f565b601f01601f19169190910160400192915050565b600060208284031215620009ca57600080fd5b81518015158114620009db57600080fd5b9392505050565b600281046001821680620009f757607f821691505b60208210810362000a31577f4e487b7100000000000000000000000000000000000000000000000000000000600052602260045260246000fd5b50919050565b815460009081906002810460018083168062000a5457607f831692505b6020808410820362000a8d577f4e487b710000000000000000000000000000000000000000000000000000000086526022600452602486fd5b81801562000aa4576001811462000ab65762000ae5565b60ff1986168952848901965062000ae5565b60008a81526020902060005b8681101562000add5781548b82015290850190830162000ac2565b505084890196505b509498975050505050505050565b611e0c8062000b036000396000f3fe608060405234801561001057600080fd5b50600436106101b5576000357c0100000000000000000000000000000000000000000000000000000000900480638da5cb5b11610100578063da0c57e9116100a9578063f2fde38b11610083578063f2fde38b14610325578063fabec44a14610338578063fafb1b011461034057600080fd5b8063da0c57e9146102ea578063e26799ff146102fd578063e9cd36d31461031257600080fd5b8063af640d0f116100da578063af640d0f146102cf578063d23fe7c7146102d8578063d68387c7146102e257600080fd5b80638da5cb5b146102ad578063a035b1fe146102be578063a512bd79146102c757600080fd5b8063554ca36c116101625780637284e4161161013c5780637284e4161461027557806373b8fc801461027d57806381ecdf451461029a57600080fd5b8063554ca36c146102525780636904c94d14610265578063715018a61461026d57600080fd5b806334b1a7cc1161019357806334b1a7cc1461021457806342cbef951461022c5780634ad3d57d1461023f57600080fd5b806302d05d3f146101ba57806306fdde03146101ea578063128a8f76146101ff575b600080fd5b6002546101cd90600160a060020a031681565b604051600160a060020a0390911681526020015b60405180910390f35b6101f2610353565b6040516101e19190611883565b61021261020d36600461189d565b6103e1565b005b600d5461021e9081565b6040519081526020016101e1565b61021261023a36600461189d565b61057d565b61021261024d36600461189d565b61070a565b61021261026036600461189d565b610897565b6101f2610a7e565b610212610a8b565b6101f2610ac4565b610285610ad1565b604080519283526020830191909152016101e1565b6102126102a836600461189d565b610af3565b600054600160a060020a03166101cd565b61021e600b5481565b6101f2610c80565b61021e60015481565b600c5461021e9081565b6101f2610c8d565b6102126102f836600461192c565b610c9a565b610305610e56565b6040516101e191906119dd565b610212610320366004611ad0565b611149565b610212610333366004611ae9565b61125e565b6101f2611316565b61021261034e36600461189d565b6113d2565b6003805461036090611b12565b80601f016020809104026020016040519081016040528092919081815260200182805461038c90611b12565b80156103d95780601f106103ae576101008083540402835291602001916103d9565b820191906000526020600020905b8154815290600101906020018083116103bc57829003601f168201915b505050505081565b600054600160a060020a031633146104175760405160e560020a62461bcd02815260040161040e90611b53565b60405180910390fd5b81818080601f01602080910402602001604051908101604052809392919081815260200183838082843760009201919091525050604051600080516020611d77833981519152815273__StringUtils___________________________92506327341c8a915061048b908490600401611883565b602060405180830381865af41580156104a8573d6000803e3d6000fd5b505050506040513d601f19601f820116820180604052508101906104cc9190611b88565b156104ec5760405160e560020a62461bcd02815260040161040e90611baa565b82826040516104fc929190611be1565b604051809103902060086040516105139190611bf1565b6040519081900381207f7570646174656420636f6d70616e790000000000000000000000000000000000825290600f0160405190819003812033825290600080516020611db78339815191529060200160405180910390a46105776008848461171e565b50505050565b600054600160a060020a031633146105aa5760405160e560020a62461bcd02815260040161040e90611b53565b81818080601f01602080910402602001604051908101604052809392919081815260200183838082843760009201919091525050604051600080516020611d77833981519152815273__StringUtils___________________________92506327341c8a915061061e908490600401611883565b602060405180830381865af415801561063b573d6000803e3d6000fd5b505050506040513d601f19601f8201168201806040525081019061065f9190611b88565b1561067f5760405160e560020a62461bcd02815260040161040e90611baa565b828260405161068f929190611be1565b604051809103902060066040516106a69190611bf1565b6040519081900381207f75706461746564206e65775f6d61676e65744c696e6b0000000000000000000082529060160160405190819003812033825290600080516020611db78339815191529060200160405180910390a46105776006848461171e565b600054600160a060020a031633146107375760405160e560020a62461bcd02815260040161040e90611b53565b81818080601f01602080910402602001604051908101604052809392919081815260200183838082843760009201919091525050604051600080516020611d77833981519152815273__StringUtils___________________________92506327341c8a91506107ab908490600401611883565b602060405180830381865af41580156107c8573d6000803e3d6000fd5b505050506040513d601f19601f820116820180604052508101906107ec9190611b88565b1561080c5760405160e560020a62461bcd02815260040161040e90611baa565b828260405161081c929190611be1565b604051809103902060076040516108339190611bf1565b6040519081900381207f7570646174656420696d6755726c000000000000000000000000000000000000825290600e0160405190819003812033825290600080516020611db78339815191529060200160405180910390a46105776007848461171e565b600054600160a060020a031633146108c45760405160e560020a62461bcd02815260040161040e90611b53565b81818080601f01602080910402602001604051908101604052809392919081815260200183838082843760009201919091525050604051600080516020611d77833981519152815273__StringUtils___________________________92506327341c8a9150610938908490600401611883565b602060405180830381865af4158015610955573d6000803e3d6000fd5b505050506040513d601f19601f820116820180604052508101906109799190611b88565b156109995760405160e560020a62461bcd02815260040161040e90611baa565b82826040516109a9929190611be1565b604051908190039020600580546109c290600190611cb0565b815481106109d2576109d2611cc7565b906000526020600020016040516109e99190611bf1565b6040519081900381207f757064617465642066696c657368610000000000000000000000000000000000825290600f0160405190819003812033825290600080516020611db78339815191529060200160405180910390a460058054600181018255600091909152610577907f036b6384b5eca791c62761152d0c79bb0604c104a5fb6f4eb0703f3154bb3db001848461171e565b6008805461036090611b12565b600054600160a060020a03163314610ab85760405160e560020a62461bcd02815260040161040e90611b53565b610ac26000611565565b565b6004805461036090611b12565b600080600060095411610ae75750600091829150565b5050600954600a549091565b600054600160a060020a03163314610b205760405160e560020a62461bcd02815260040161040e90611b53565b81818080601f01602080910402602001604051908101604052809392919081815260200183838082843760009201919091525050604051600080516020611d77833981519152815273__StringUtils___________________________92506327341c8a9150610b94908490600401611883565b602060405180830381865af4158015610bb1573d6000803e3d6000fd5b505050506040513d601f19601f82011682018060405250810190610bd59190611b88565b15610bf55760405160e560020a62461bcd02815260040161040e90611baa565b8282604051610c05929190611be1565b60405180910390206003604051610c1c9190611bf1565b6040519081900381207f75706461746564206e616d650000000000000000000000000000000000000000825290600c0160405190819003812033825290600080516020611db78339815191529060200160405180910390a46105776003848461171e565b6006805461036090611b12565b6007805461036090611b12565b600054600160a060020a03163314610cc75760405160e560020a62461bcd02815260040161040e90611b53565b604051600080516020611d778339815191528152819073__StringUtils___________________________906327341c8a90610d07908490600401611883565b602060405180830381865af4158015610d24573d6000803e3d6000fd5b505050506040513d601f19601f82011682018060405250810190610d489190611b88565b15610d685760405160e560020a62461bcd02815260040161040e90611baa565b81604051610d769190611ce4565b60405190819003902060058054610d8f90600190611cb0565b81548110610d9f57610d9f611cc7565b90600052602060002001604051610db69190611bf1565b6040519081900381207f7570646174656420736861000000000000000000000000000000000000000000825290600b0160405190819003812033825290600080516020611db78339815191529060200160405180910390a4600580546001810182556000919091528251610e51917f036b6384b5eca791c62761152d0c79bb0604c104a5fb6f4eb0703f3154bb3db0019060208501906117a2565b505050565b610eb5604051806101600160405280600081526020016060815260200160608152602001606081526020016060815260200160008152602001600081526020016000815260200160008152602001606081526020016000151581525090565b6000604051806101600160405280600154815260200160038054610ed890611b12565b80601f0160208091040260200160405190810160405280929190818152602001828054610f0490611b12565b8015610f515780601f10610f2657610100808354040283529160200191610f51565b820191906000526020600020905b815481529060010190602001808311610f3457829003601f168201915b5050505050815260200160048054610f6890611b12565b80601f0160208091040260200160405190810160405280929190818152602001828054610f9490611b12565b8015610fe15780601f10610fb657610100808354040283529160200191610fe1565b820191906000526020600020905b815481529060010190602001808311610fc457829003601f168201915b5050505050815260200160078054610ff890611b12565b80601f016020809104026020016040519081016040528092919081815260200182805461102490611b12565b80156110715780601f1061104657610100808354040283529160200191611071565b820191906000526020600020905b81548152906001019060200180831161105457829003601f168201915b505050505081526020016008805461108890611b12565b80601f01602080910402602001604051908101604052809291908181526020018280546110b490611b12565b80156111015780601f106110d657610100808354040283529160200191611101565b820191906000526020600020905b8154815290600101906020018083116110e457829003601f168201915b50505050508152602001600b54815260200161111c600c5490565b81526020016009548152602001600a548152602001611139611316565b8152600060209091015292915050565b600054600160a060020a031633146111765760405160e560020a62461bcd02815260040161040e90611b53565b80600081116111ca5760405160e560020a62461bcd02815260206004820152601c60248201527f5072696365206d7573742062652067726561746572207468616e203000000000604482015260640161040e565b6111d3826115c2565b6040516111e09190611ce4565b60405180910390206111f3600b546115c2565b6040516112009190611ce4565b6040519081900381207f7570646174656420707269636500000000000000000000000000000000000000825290600d0160405190819003812033825290600080516020611db78339815191529060200160405180910390a450600b55565b600054600160a060020a0316331461128b5760405160e560020a62461bcd02815260040161040e90611b53565b600160a060020a03811661130a5760405160e560020a62461bcd02815260206004820152602660248201527f4f776e61626c653a206e6577206f776e657220697320746865207a65726f206160448201527f6464726573730000000000000000000000000000000000000000000000000000606482015260840161040e565b61131381611565565b50565b600580546060919061132a90600190611cb0565b8154811061133a5761133a611cc7565b90600052602060002001805461134f90611b12565b80601f016020809104026020016040519081016040528092919081815260200182805461137b90611b12565b80156113c85780601f1061139d576101008083540402835291602001916113c8565b820191906000526020600020905b8154815290600101906020018083116113ab57829003601f168201915b5050505050905090565b600054600160a060020a031633146113ff5760405160e560020a62461bcd02815260040161040e90611b53565b81818080601f01602080910402602001604051908101604052809392919081815260200183838082843760009201919091525050604051600080516020611d77833981519152815273__StringUtils___________________________92506327341c8a9150611473908490600401611883565b602060405180830381865af4158015611490573d6000803e3d6000fd5b505050506040513d601f19601f820116820180604052508101906114b49190611b88565b156114d45760405160e560020a62461bcd02815260040161040e90611baa565b82826040516114e4929190611be1565b604051809103902060046040516114fb9190611bf1565b6040519081900381207f75706461746564206465736372697074696f6e0000000000000000000000000082529060130160405190819003812033825290600080516020611db78339815191529060200160405180910390a46105776004848461171e565b60009055565b60008054600160a060020a0383811673ffffffffffffffffffffffffffffffffffffffff19831681178455604051919092169283917f8be0079c531659141344cd1fd0a4f28419497f9722a3daafe3b4186f6b6457e09190a35050565b60608160000361160557505060408051808201909152600181527f3000000000000000000000000000000000000000000000000000000000000000602082015290565b8160005b811561162f578061161981611d00565b91506116289050600a83611d36565b9150611609565b60008167ffffffffffffffff81111561164a5761164a61190f565b6040519080825280601f01601f191660200182016040528015611674576020820181803683370190505b5090505b841561171657611689600183611cb0565b9150611696600a86611d4a565b6116a1906030611d5e565b7f0100000000000000000000000000000000000000000000000000000000000000028183815181106116d5576116d5611cc7565b60200101907effffffffffffffffffffffffffffffffffffffffffffffffffffffffffffff1916908160001a90535061170f600a86611d36565b9450611678565b949350505050565b82805461172a90611b12565b90600052602060002090601f01602090048101928261174c5760008555611792565b82601f106117655782800160ff19823516178555611792565b82800160010185558215611792579182015b82811115611792578235825591602001919060010190611777565b5061179e929150611816565b5090565b8280546117ae90611b12565b90600052602060002090601f0160209004810192826117d05760008555611792565b82601f106117e957805160ff1916838001178555611792565b82800160010185558215611792579182015b828111156117925782518255916020019190600101906117fb565b5b8082111561179e5760008155600101611817565b60005b8381101561184657818101518382015260200161182e565b838111156105775750506000910152565b6000815180845261186f81602086016020860161182b565b601f01601f19169290920160200192915050565b6020815260006118966020830184611857565b9392505050565b600080602083850312156118b057600080fd5b823567ffffffffffffffff808211156118c857600080fd5b818501915085601f8301126118dc57600080fd5b8135818111156118eb57600080fd5b8660208285010111156118fd57600080fd5b60209290920196919550909350505050565b600080516020611d97833981519152600052604160045260246000fd5b60006020828403121561193e57600080fd5b813567ffffffffffffffff8082111561195657600080fd5b818401915084601f83011261196a57600080fd5b81358181111561197c5761197c61190f565b604051601f8201601f19908116603f011681019083821181831017156119a4576119a461190f565b816040528281528760208487010111156119bd57600080fd5b826020860160208301376000928101602001929092525095945050505050565b602081528151602082015260006020830151610160806040850152611a06610180850183611857565b91506040850151601f1980868503016060870152611a248483611857565b93506060870151915080868503016080870152611a418483611857565b935060808701519150808685030160a0870152611a5e8483611857565b935060a087015160c087015260c087015160e087015260e08701519150610100828188015280880151925050610120828188015280880151925050610140818786030181880152611aaf8584611857565b94508088015192505050611ac68286018215159052565b5090949350505050565b600060208284031215611ae257600080fd5b5035919050565b600060208284031215611afb57600080fd5b8135600160a060020a038116811461189657600080fd5b600281046001821680611b2657607f821691505b602082108103611b4d57600080516020611d97833981519152600052602260045260246000fd5b50919050565b6020808252818101527f4f776e61626c653a2063616c6c6572206973206e6f7420746865206f776e6572604082015260600190565b600060208284031215611b9a57600080fd5b8151801515811461189657600080fd5b60208082526018908201527f537472696e67206d757374206e6f7420626520656d7074790000000000000000604082015260600190565b8183823760009101908152919050565b8154600090819060028104600180831680611c0d57607f831692505b60208084108203611c3357600080516020611d9783398151915286526022600452602486fd5b818015611c475760018114611c5857611c85565b60ff19861689528489019650611c85565b60008a81526020902060005b86811015611c7d5781548b820152908501908301611c64565b505084890196505b509498975050505050505050565b600080516020611d97833981519152600052601160045260246000fd5b600082821015611cc257611cc2611c93565b500390565b600080516020611d97833981519152600052603260045260246000fd5b60008251611cf681846020870161182b565b9190910192915050565b600060018201611d1257611d12611c93565b5060010190565b600080516020611d97833981519152600052601260045260246000fd5b600082611d4557611d45611d19565b500490565b600082611d5957611d59611d19565b500690565b60008219821115611d7157611d71611c93565b50019056fe27341c8a000000000000000000000000000000000000000000000000000000004e487b71000000000000000000000000000000000000000000000000000000001f7eeccc90c93b6a65fbe0be0414ed24073262ce0f988484e24f275529193e6fa264697066735822122027bf60850304c2d004c151c4a33632a1aad83f499a28177a08dc6bab79edbc0664736f6c634300080e0033537472696e67206d757374206e6f7420626520656d7074790000000000000000",
  "immutableReferences": {},
  "source": "//SPDX-License-Identifier: UNLICENSED\r\npragma solidity ^0.8.0;\r\n\r\nimport {Constants, Events, StringUtils} from './dappstore_utils.sol';\r\nimport {AppInfoLibrary} from './AppInfoLibrary.sol';\r\n\r\nimport \"@openzeppelin/contracts/utils/Strings.sol\";\r\nimport \"@openzeppelin/contracts/access/Ownable.sol\";\r\nimport \"@openzeppelin/contracts/utils/Counters.sol\";\r\n\r\ncontract App is Ownable {\r\n    //App contract provides a data structure of an app and\r\n    //an API to work with for external use\r\n    using StringUtils for string;\r\n    using Counters for Counters.Counter;\r\n    uint256 public  id;\r\n    address payable public creator;\r\n    string public name;\r\n    string public description;\r\n    string[] fileSha256; //last is SHA of latest version.\r\n    string public magnetLink;\r\n    string public imgUrl;\r\n    string public company;\r\n    uint rating_int; //0 means not rated\r\n    uint rating_modulu;\r\n    uint public price; //in wei\r\n    Counters.Counter public num_ratings;\r\n    Counters.Counter public num_purchases;\r\n\r\n    constructor(uint _id,\r\n                address _creator,\r\n                string memory _name,\r\n                string memory _description,\r\n                string memory _magnetLink,\r\n                string memory _imgUrl,\r\n                string memory _company,\r\n                uint _price,\r\n                string memory _fileSha256)\r\n                validateID(_id) validatePrice(_price) validateString(_name)\r\n                validateString(_magnetLink) validateString(_fileSha256)\r\n    {\r\n    creator = payable(_creator);\r\n    id  = _id;\r\n    name  = _name;\r\n    description = _description;\r\n\r\n    magnetLink = _magnetLink;\r\n    imgUrl = _imgUrl;\r\n    if(_imgUrl.isEmpty()){\r\n        imgUrl = Constants.DEFAULT_APP_IMAGE;\r\n    }\r\n    company = _company;\r\n    rating_int = Constants.UNRATED;\r\n    rating_modulu = Constants.UNRATED;\r\n    price = _price;\r\n    fileSha256.push(_fileSha256);\r\n    num_ratings.reset();\r\n    num_purchases.reset();\r\n    emit Events.AppCreated(name, id, creator, owner());\r\n    }\r\n\r\n    //valdiations\r\n    modifier validateID(uint _id){\r\n        require(_id >= 0, 'Illegal app id');\r\n        _;\r\n    }\r\n\r\n    modifier validateRating(uint _rating){\r\n        require(_rating >=0 && _rating <=5);\r\n        _;\r\n    }\r\n\r\n    modifier validatePrice(uint _price){\r\n        require(_price > 0, 'Price must be greater than 0');\r\n        _;\r\n    }\r\n\r\n    modifier validateString(string memory _string){\r\n        require(!_string.isEmpty(), 'String must not be empty');\r\n        _;\r\n    }\r\n\r\n    //getters\r\n    function getCurrentVersion() public view returns(string memory){\r\n        return fileSha256[fileSha256.length - 1];\r\n    }\r\n\r\n    function getAppRating() external view returns (uint, uint){\r\n        if (rating_int <= 0){\r\n            return (0, 0);\r\n        }\r\n    return (rating_int, rating_modulu);\r\n    }\r\n\r\n    //updaters\r\n    function updateAppName(string calldata new_name) external onlyOwner validateString(new_name){\r\n        emit Events.UpdatedContent('updated name', name, new_name, msg.sender);\r\n        name = new_name;\r\n    }\r\n\r\n    function updateAppDescription(string calldata new_description) external onlyOwner validateString(new_description){\r\n        emit Events.UpdatedContent('updated description', description, new_description, msg.sender);\r\n        description = new_description;\r\n    }\r\n\r\n    function updateAppImgUrl(string calldata new_imgUrl) external onlyOwner validateString(new_imgUrl){\r\n        emit Events.UpdatedContent('updated imgUrl', imgUrl, new_imgUrl, msg.sender);\r\n        imgUrl = new_imgUrl;\r\n    }\r\n\r\n    function updateAppMagnetLink(string calldata new_magnetLink) external onlyOwner validateString(new_magnetLink){\r\n        emit Events.UpdatedContent('updated new_magnetLink', magnetLink, new_magnetLink, msg.sender);\r\n        magnetLink = new_magnetLink;\r\n    }\r\n    function updateAppVersion(string memory new_sha) external onlyOwner validateString(new_sha) {\r\n        emit Events.UpdatedContent('updated sha', fileSha256[fileSha256.length - 1], new_sha, msg.sender);\r\n        fileSha256.push(new_sha);\r\n    }\r\n\r\n    function updateAppCompany(string calldata new_company) external onlyOwner validateString(new_company){\r\n        emit Events.UpdatedContent('updated company', company, new_company, msg.sender);\r\n        company = new_company;\r\n    }\r\n\r\n    function updateAppPrice(uint new_price) external onlyOwner validatePrice(new_price){\r\n        emit Events.UpdatedContent('updated price', Strings.toString(price), Strings.toString(new_price), msg.sender);\r\n        price = new_price;\r\n    }\r\n\r\n\r\n    function updateAppFileSha(string calldata new_filesha) external onlyOwner validateString(new_filesha){\r\n        emit Events.UpdatedContent('updated filesha', fileSha256[fileSha256.length - 1], new_filesha, msg.sender);\r\n        fileSha256.push(new_filesha);\r\n    }\r\n\r\n    // function rateApp(uint old_rating, uint old_rating_modulu, uint new_rating) external\r\n    // onlyOwner validateRating(old_rating) validateRating(new_rating) returns(uint, uint){\r\n    //     require(new_rating >= 1, 'Can\\'t give 0 stars');\r\n    //     uint total_rating = rating_int * num_ratings.current() + rating_modulu;\r\n    //     if (old_rating == 0){\r\n    //         num_ratings.increment();\r\n    //     }\r\n    //     //TODO: Make sure subtraction is validated (Maybe OpenZepplin?)\r\n    //     total_rating += new_rating - old_rating;\r\n    //     rating_int = total_rating / num_ratings.current();\r\n    //     rating_modulu = total_rating % num_ratings.current();\r\n    //     return (rating_int, rating_modulu);\r\n    //     }\r\n\r\n    function getAppInfo() view external returns(AppInfoLibrary.AppInfo memory){\r\n        // (uint rating, uint rating_modulu) = _app.getAppRating();\r\n        AppInfoLibrary.AppInfo memory app_info = AppInfoLibrary.AppInfo(\r\n            id,\r\n            name,\r\n            description,\r\n            imgUrl,\r\n            company,\r\n            price,\r\n            num_ratings.current(),\r\n            rating_int,\r\n            rating_modulu,\r\n            getCurrentVersion(),\r\n            false\r\n        );\r\n        return app_info;\r\n    }\r\n\r\n}\r\n\r\n\r\n",
  "sourcePath": "C:\\Users\\User\\Documents\\GitHub\\SmartContracts\\contracts\\app.sol",
  "compiler": {
    "name": "solc",
    "version": "0.8.14+commit.80d49f37.Emscripten.clang"
  },
  "schemaVersion": "3.4.7",
  "updatedAt": "2022-06-11T08:13:31.369Z",
  "networkType": "ethereum",
  "devdoc": {
    "kind": "dev",
    "methods": {
      "owner()": {
        "details": "Returns the address of the current owner."
      },
      "renounceOwnership()": {
        "details": "Leaves the contract without owner. It will not be possible to call `onlyOwner` functions anymore. Can only be called by the current owner. NOTE: Renouncing ownership will leave the contract without an owner, thereby removing any functionality that is only available to the owner."
      },
      "transferOwnership(address)": {
        "details": "Transfers ownership of the contract to a new account (`newOwner`). Can only be called by the current owner."
      }
    },
    "version": 1
  },
  "userdoc": {
    "kind": "user",
    "methods": {},
    "version": 1
  }
}