{
  "contractName": "App",
  "abi": [
    {
      "inputs": [
        {
          "internalType": "uint256",
          "name": "_id",
          "type": "uint256"
        },
        {
          "internalType": "address",
          "name": "_creator",
          "type": "address"
        },
        {
          "internalType": "string",
          "name": "_name",
          "type": "string"
        },
        {
          "internalType": "string",
          "name": "_description",
          "type": "string"
        },
        {
          "internalType": "string",
          "name": "_magnetLink",
          "type": "string"
        },
        {
          "internalType": "string",
          "name": "_imgUrl",
          "type": "string"
        },
        {
          "internalType": "string",
          "name": "_company",
          "type": "string"
        },
        {
          "internalType": "uint256",
          "name": "_price",
          "type": "uint256"
        },
        {
          "internalType": "string",
          "name": "_category",
          "type": "string"
        },
        {
          "internalType": "string",
          "name": "_fileSha256",
          "type": "string"
        }
      ],
      "stateMutability": "nonpayable",
      "type": "constructor"
    },
    {
      "anonymous": false,
      "inputs": [
        {
          "indexed": true,
          "internalType": "address",
          "name": "previousOwner",
          "type": "address"
        },
        {
          "indexed": true,
          "internalType": "address",
          "name": "newOwner",
          "type": "address"
        }
      ],
      "name": "OwnershipTransferred",
      "type": "event"
    },
    {
      "inputs": [],
      "name": "company",
      "outputs": [
        {
          "internalType": "string",
          "name": "",
          "type": "string"
        }
      ],
      "stateMutability": "view",
      "type": "function"
    },
    {
      "inputs": [],
      "name": "creator",
      "outputs": [
        {
          "internalType": "address payable",
          "name": "",
          "type": "address"
        }
      ],
      "stateMutability": "view",
      "type": "function"
    },
    {
      "inputs": [],
      "name": "description",
      "outputs": [
        {
          "internalType": "string",
          "name": "",
          "type": "string"
        }
      ],
      "stateMutability": "view",
      "type": "function"
    },
    {
      "inputs": [],
      "name": "id",
      "outputs": [
        {
          "internalType": "uint256",
          "name": "",
          "type": "uint256"
        }
      ],
      "stateMutability": "view",
      "type": "function"
    },
    {
      "inputs": [],
      "name": "imgUrl",
      "outputs": [
        {
          "internalType": "string",
          "name": "",
          "type": "string"
        }
      ],
      "stateMutability": "view",
      "type": "function"
    },
    {
      "inputs": [],
      "name": "magnetLink",
      "outputs": [
        {
          "internalType": "string",
          "name": "",
          "type": "string"
        }
      ],
      "stateMutability": "view",
      "type": "function"
    },
    {
      "inputs": [],
      "name": "name",
      "outputs": [
        {
          "internalType": "string",
          "name": "",
          "type": "string"
        }
      ],
      "stateMutability": "view",
      "type": "function"
    },
    {
      "inputs": [],
      "name": "num_purchases",
      "outputs": [
        {
          "internalType": "uint256",
          "name": "_value",
          "type": "uint256"
        }
      ],
      "stateMutability": "view",
      "type": "function"
    },
    {
      "inputs": [],
      "name": "num_ratings",
      "outputs": [
        {
          "internalType": "uint256",
          "name": "_value",
          "type": "uint256"
        }
      ],
      "stateMutability": "view",
      "type": "function"
    },
    {
      "inputs": [],
      "name": "owner",
      "outputs": [
        {
          "internalType": "address",
          "name": "",
          "type": "address"
        }
      ],
      "stateMutability": "view",
      "type": "function"
    },
    {
      "inputs": [],
      "name": "price",
      "outputs": [
        {
          "internalType": "uint256",
          "name": "",
          "type": "uint256"
        }
      ],
      "stateMutability": "view",
      "type": "function"
    },
    {
      "inputs": [],
      "name": "renounceOwnership",
      "outputs": [],
      "stateMutability": "nonpayable",
      "type": "function"
    },
    {
      "inputs": [
        {
          "internalType": "address",
          "name": "newOwner",
          "type": "address"
        }
      ],
      "name": "transferOwnership",
      "outputs": [],
      "stateMutability": "nonpayable",
      "type": "function"
    },
    {
      "inputs": [],
      "name": "getCurrentVersion",
      "outputs": [
        {
          "internalType": "string",
          "name": "",
          "type": "string"
        }
      ],
      "stateMutability": "view",
      "type": "function"
    },
    {
      "inputs": [],
      "name": "getAppRating",
      "outputs": [
        {
          "internalType": "uint256",
          "name": "",
          "type": "uint256"
        },
        {
          "internalType": "uint256",
          "name": "",
          "type": "uint256"
        }
      ],
      "stateMutability": "view",
      "type": "function"
    },
    {
      "inputs": [
        {
          "internalType": "string",
          "name": "new_name",
          "type": "string"
        }
      ],
      "name": "updateAppName",
      "outputs": [],
      "stateMutability": "nonpayable",
      "type": "function"
    },
    {
      "inputs": [
        {
          "internalType": "string",
          "name": "new_description",
          "type": "string"
        }
      ],
      "name": "updateAppDescription",
      "outputs": [],
      "stateMutability": "nonpayable",
      "type": "function"
    },
    {
      "inputs": [
        {
          "internalType": "string",
          "name": "new_imgUrl",
          "type": "string"
        }
      ],
      "name": "updateAppImgUrl",
      "outputs": [],
      "stateMutability": "nonpayable",
      "type": "function"
    },
    {
      "inputs": [
        {
          "internalType": "string",
          "name": "new_sha",
          "type": "string"
        },
        {
          "internalType": "string",
          "name": "new_magnetLink",
          "type": "string"
        }
      ],
      "name": "updateAppVersion",
      "outputs": [],
      "stateMutability": "nonpayable",
      "type": "function"
    },
    {
      "inputs": [
        {
          "internalType": "uint256",
          "name": "new_price",
          "type": "uint256"
        }
      ],
      "name": "updateAppPrice",
      "outputs": [],
      "stateMutability": "nonpayable",
      "type": "function"
    },
    {
      "inputs": [
        {
          "internalType": "uint256",
          "name": "new_rating",
          "type": "uint256"
        },
        {
          "internalType": "uint256",
          "name": "old_rating",
          "type": "uint256"
        }
      ],
      "name": "rateApp",
      "outputs": [
        {
          "internalType": "uint256",
          "name": "",
          "type": "uint256"
        },
        {
          "internalType": "uint256",
          "name": "",
          "type": "uint256"
        },
        {
          "internalType": "uint256",
          "name": "",
          "type": "uint256"
        }
      ],
      "stateMutability": "nonpayable",
      "type": "function"
    },
    {
      "inputs": [],
      "name": "getAppInfo",
      "outputs": [
        {
          "components": [
            {
              "internalType": "uint256",
              "name": "id",
              "type": "uint256"
            },
            {
              "internalType": "string",
              "name": "name",
              "type": "string"
            },
            {
              "internalType": "string",
              "name": "description",
              "type": "string"
            },
            {
              "internalType": "string",
              "name": "imgUrl",
              "type": "string"
            },
            {
              "internalType": "string",
              "name": "company",
              "type": "string"
            },
            {
              "internalType": "uint256",
              "name": "price",
              "type": "uint256"
            },
            {
              "internalType": "uint256",
              "name": "numRatings",
              "type": "uint256"
            },
            {
              "internalType": "uint256",
              "name": "ratingInt",
              "type": "uint256"
            },
            {
              "internalType": "uint256",
              "name": "ratingModulu",
              "type": "uint256"
            },
            {
              "internalType": "uint256",
              "name": "userRating",
              "type": "uint256"
            },
            {
              "internalType": "string",
              "name": "fileSha256",
              "type": "string"
            },
            {
              "internalType": "bool",
              "name": "owned",
              "type": "bool"
            },
            {
              "internalType": "string",
              "name": "magnetLink",
              "type": "string"
            },
            {
              "internalType": "string",
              "name": "category",
              "type": "string"
            },
            {
              "internalType": "uint256",
              "name": "publishTime",
              "type": "uint256"
            }
          ],
          "internalType": "struct AppInfoLibrary.AppInfo",
          "name": "",
          "type": "tuple"
        }
      ],
      "stateMutability": "view",
      "type": "function"
    },
    {
      "inputs": [
        {
          "internalType": "bool",
          "name": "owned",
          "type": "bool"
        },
        {
          "internalType": "uint256",
          "name": "user_rating",
          "type": "uint256"
        }
      ],
      "name": "getAppInfo",
      "outputs": [
        {
          "components": [
            {
              "internalType": "uint256",
              "name": "id",
              "type": "uint256"
            },
            {
              "internalType": "string",
              "name": "name",
              "type": "string"
            },
            {
              "internalType": "string",
              "name": "description",
              "type": "string"
            },
            {
              "internalType": "string",
              "name": "imgUrl",
              "type": "string"
            },
            {
              "internalType": "string",
              "name": "company",
              "type": "string"
            },
            {
              "internalType": "uint256",
              "name": "price",
              "type": "uint256"
            },
            {
              "internalType": "uint256",
              "name": "numRatings",
              "type": "uint256"
            },
            {
              "internalType": "uint256",
              "name": "ratingInt",
              "type": "uint256"
            },
            {
              "internalType": "uint256",
              "name": "ratingModulu",
              "type": "uint256"
            },
            {
              "internalType": "uint256",
              "name": "userRating",
              "type": "uint256"
            },
            {
              "internalType": "string",
              "name": "fileSha256",
              "type": "string"
            },
            {
              "internalType": "bool",
              "name": "owned",
              "type": "bool"
            },
            {
              "internalType": "string",
              "name": "magnetLink",
              "type": "string"
            },
            {
              "internalType": "string",
              "name": "category",
              "type": "string"
            },
            {
              "internalType": "uint256",
              "name": "publishTime",
              "type": "uint256"
            }
          ],
          "internalType": "struct AppInfoLibrary.AppInfo",
          "name": "",
          "type": "tuple"
        }
      ],
      "stateMutability": "view",
      "type": "function"
    }
  ],
  "bytecode": "0x60806040523480156200001157600080fd5b506040516200262438038062002624833981016040819052620000349162000776565b6200005a6200004b6401000000006200060c810204565b64010000000062000610810204565b896200006a565b60405180910390fd5b8360008111620000d7576040517f08c379a000000000000000000000000000000000000000000000000000000000815260206004820152601c60248201527f5072696365206d7573742062652067726561746572207468616e203000000000604482015260640162000061565b6040517f27341c8a0000000000000000000000000000000000000000000000000000000081528a9073__StringUtils___________________________906327341c8a906200012b908490600401620008ce565b602060405180830381865af415801562000149573d6000803e3d6000fd5b505050506040513d601f19601f820116820180604052508101906200016f919062000903565b15620001a9576040517f08c379a000000000000000000000000000000000000000000000000000000000815260040162000061906200092e565b6040517f27341c8a000000000000000000000000000000000000000000000000000000008152899073__StringUtils___________________________906327341c8a90620001fd908490600401620008ce565b602060405180830381865af41580156200021b573d6000803e3d6000fd5b505050506040513d601f19601f8201168201806040525081019062000241919062000903565b156200027b576040517f08c379a000000000000000000000000000000000000000000000000000000000815260040162000061906200092e565b6040517f27341c8a000000000000000000000000000000000000000000000000000000008152869073__StringUtils___________________________906327341c8a90620002cf908490600401620008ce565b602060405180830381865af4158015620002ed573d6000803e3d6000fd5b505050506040513d601f19601f8201168201806040525081019062000313919062000903565b156200034d576040517f08c379a000000000000000000000000000000000000000000000000000000000815260040162000061906200092e565b6040517f27341c8a000000000000000000000000000000000000000000000000000000008152869073__StringUtils___________________________906327341c8a90620003a1908490600401620008ce565b602060405180830381865af4158015620003bf573d6000803e3d6000fd5b505050506040513d601f19601f82011682018060405250810190620003e5919062000903565b156200041f576040517f08c379a000000000000000000000000000000000000000000000000000000000815260040162000061906200092e565b8e600260006101000a815481600160a060020a030219169083600160a060020a031602179055508f6001819055508d600390816200045e919062000a0d565b5060046200046d8e8262000a0d565b5060066200047c8d8262000a0d565b5060076200048b8c8262000a0d565b506040517f27341c8a00000000000000000000000000000000000000000000000000000000815273__StringUtils___________________________906327341c8a90620004de908e90600401620008ce565b602060405180830381865af4158015620004fc573d6000803e3d6000fd5b505050506040513d601f19601f8201168201806040525081019062000522919062000903565b1562000553576040518060c00160405280609581526020016200258f6095913960079062000551908262000a0d565b505b6008620005618b8262000a0d565b5060006009819055600a819055600b8a90556005805460018101825591527f036b6384b5eca791c62761152d0c79bb0604c104a5fb6f4eb0703f3154bb3db001620005ad888262000a0d565b50620005c8600e6401000000006200123e6200066082021704565b620005e2600f6401000000006200123e6200066082021704565b600c620005f0898262000a0d565b505042600d555062000adf9d5050505050505050505050505050565b3390565b60008054600160a060020a03838116600160a060020a0319831681178455604051919092169283917f8be0079c531659141344cd1fd0a4f28419497f9722a3daafe3b4186f6b6457e09190a35050565b60009055565b8051600160a060020a03811681146200067e57600080fd5b919050565b7f4e487b7100000000000000000000000000000000000000000000000000000000600052604160045260246000fd5b60005b83811015620006cf578181015183820152602001620006b5565b83811115620006df576000848401525b50505050565b600082601f830112620006f757600080fd5b81516001604060020a038082111562000714576200071462000683565b604051601f8301601f19908116603f011681019082821181831017156200073f576200073f62000683565b816040528381528660208588010111156200075957600080fd5b6200076c846020830160208901620006b2565b9695505050505050565b6000806000806000806000806000806101408b8d0312156200079757600080fd5b8a519950620007a960208c0162000666565b985060408b01516001604060020a0380821115620007c657600080fd5b620007d48e838f01620006e5565b995060608d0151915080821115620007eb57600080fd5b620007f98e838f01620006e5565b985060808d01519150808211156200081057600080fd5b6200081e8e838f01620006e5565b975060a08d01519150808211156200083557600080fd5b620008438e838f01620006e5565b965060c08d01519150808211156200085a57600080fd5b620008688e838f01620006e5565b955060e08d015194506101008d01519150808211156200088757600080fd5b620008958e838f01620006e5565b93506101208d0151915080821115620008ad57600080fd5b50620008bc8d828e01620006e5565b9150509295989b9194979a5092959850565b6020815260008251806020840152620008ef816040850160208701620006b2565b601f01601f19169190910160400192915050565b6000602082840312156200091657600080fd5b815180151581146200092757600080fd5b9392505050565b60208082526018908201527f537472696e67206d757374206e6f7420626520656d7074790000000000000000604082015260600190565b6002810460018216806200097a57607f821691505b602082108103620009b4577f4e487b7100000000000000000000000000000000000000000000000000000000600052602260045260246000fd5b50919050565b601f82111562000a08576000818152602081206020601f86010481016020861015620009e35750805b6020601f860104820191505b8181101562000a0457828155600101620009ef565b5050505b505050565b81516001604060020a0381111562000a295762000a2962000683565b62000a418162000a3a845462000965565b84620009ba565b602080601f83116001811462000a7d576000841562000a605750858301515b60028086026008870290910a600019041982161786555062000a04565b600085815260208120601f198616915b8281101562000aae5788860151825594840194600190910190840162000a8d565b508582101562000acf57878501516008601f88160260020a60001904191681555b5050505050600202600101905550565b611aa08062000aef6000396000f3fe608060405234801561001057600080fd5b50600436106101205760e060020a600035046302d05d3f811461012557806306fdde031461015557806334b1a7cc1461016a5780634ad3d57d146101825780636904c94d1461019757806370b8fd921461019f578063715018a6146101cd5780637284e416146101d557806373b8fc80146101dd5780637ef948ba146101fa57806381ecdf451461020d5780638da5cb5b14610220578063a035b1fe14610228578063a512bd7914610231578063af640d0f14610239578063d23fe7c714610242578063d68387c71461024c578063e26799ff14610254578063e9cd36d314610269578063f22b01271461027c578063f2fde38b1461028f578063fabec44a146102a2578063fafb1b01146102aa575b600080fd5b60025461013890600160a060020a031681565b604051600160a060020a0390911681526020015b60405180910390f35b61015d6102bd565b60405161014c91906113bb565b600f546101749081565b60405190815260200161014c565b61019561019036600461141d565b61034b565b005b61015d610438565b6101b26101ad36600461145e565b610445565b6040805193845260208401929092529082015260600161014c565b61019561050a565b61015d61051e565b6101e561052b565b6040805192835260208301919091520161014c565b61019561020836600461149a565b61054d565b61019561021b36600461141d565b61070d565b6101386107eb565b610174600b5481565b61015d6107fa565b61017460015481565b600e546101749081565b61015d610807565b61025c610814565b60405161014c9190611574565b6101956102773660046116be565b610be2565b61025c61028a3660046116e5565b610c3c565b61019561029d366004611711565b611025565b61015d6110a4565b6101956102b836600461141d565b611160565b600380546102ca9061173a565b80601f01602080910402602001604051908101604052809291908181526020018280546102f69061173a565b80156103435780601f1061031857610100808354040283529160200191610343565b820191906000526020600020905b81548152906001019060200180831161032657829003601f168201915b505050505081565b81818080601f0160208091040260200160405190810160405280939291908181526020018383808284376000920191909152505060405160e160020a63139a0e4502815273__StringUtils___________________________92506327341c8a91506103bb9084906004016113bb565b602060405180830381865af41580156103d8573d6000803e3d6000fd5b505050506040513d601f19601f820116820180604052508101906103fc9190611778565b156104255760405160e560020a62461bcd02815260040161041c90611795565b60405180910390fd5b600761043283858361182e565b50505050565b600880546102ca9061173a565b6000806000610452611244565b83600581111561046157600080fd5b85600581111561047057600080fd5b6000600a5461047e600e5490565b60095461048b9190611905565b6104959190611924565b9050866000036104ad576104ad600e80546001019055565b6104b78882611924565b90506104c3878261193c565b90506104ce600e5490565b6104d8908261196d565b600955600e546104e89082611981565b600a819055600954906104fa600e5490565b9550955095505050509250925092565b610512611244565b61051c60006112a6565b565b600480546102ca9061173a565b6000806000600954116105415750600091829150565b5050600954600a549091565b60405160e160020a63139a0e45028152839073__StringUtils___________________________906327341c8a906105899084906004016113bb565b602060405180830381865af41580156105a6573d6000803e3d6000fd5b505050506040513d601f19601f820116820180604052508101906105ca9190611778565b156105ea5760405160e560020a62461bcd02815260040161041c90611795565b82828080601f0160208091040260200160405190810160405280939291908181526020018383808284376000920191909152505060405160e160020a63139a0e4502815273__StringUtils___________________________92506327341c8a915061065a9084906004016113bb565b602060405180830381865af4158015610677573d6000803e3d6000fd5b505050506040513d601f19601f8201168201806040525081019061069b9190611778565b156106bb5760405160e560020a62461bcd02815260040161041c90611795565b60066106c884868361182e565b50600580546001810182556000919091527f036b6384b5eca791c62761152d0c79bb0604c104a5fb6f4eb0703f3154bb3db0016107058682611995565b505050505050565b81818080601f0160208091040260200160405190810160405280939291908181526020018383808284376000920191909152505060405160e160020a63139a0e4502815273__StringUtils___________________________92506327341c8a915061077d9084906004016113bb565b602060405180830381865af415801561079a573d6000803e3d6000fd5b505050506040513d601f19601f820116820180604052508101906107be9190611778565b156107de5760405160e560020a62461bcd02815260040161041c90611795565b600361043283858361182e565b600054600160a060020a031690565b600680546102ca9061173a565b600780546102ca9061173a565b61081c6112f6565b6000604051806101e0016040528060015481526020016003805461083f9061173a565b80601f016020809104026020016040519081016040528092919081815260200182805461086b9061173a565b80156108b85780601f1061088d576101008083540402835291602001916108b8565b820191906000526020600020905b81548152906001019060200180831161089b57829003601f168201915b50505050508152602001600480546108cf9061173a565b80601f01602080910402602001604051908101604052809291908181526020018280546108fb9061173a565b80156109485780601f1061091d57610100808354040283529160200191610948565b820191906000526020600020905b81548152906001019060200180831161092b57829003601f168201915b505050505081526020016007805461095f9061173a565b80601f016020809104026020016040519081016040528092919081815260200182805461098b9061173a565b80156109d85780601f106109ad576101008083540402835291602001916109d8565b820191906000526020600020905b8154815290600101906020018083116109bb57829003601f168201915b50505050508152602001600880546109ef9061173a565b80601f0160208091040260200160405190810160405280929190818152602001828054610a1b9061173a565b8015610a685780601f10610a3d57610100808354040283529160200191610a68565b820191906000526020600020905b815481529060010190602001808311610a4b57829003601f168201915b50505050508152602001600b548152602001610a83600e5490565b81526020016009548152602001600a54815260200160008152602001610aa76110a4565b815260200160011515815260200160068054610ac29061173a565b80601f0160208091040260200160405190810160405280929190818152602001828054610aee9061173a565b8015610b3b5780601f10610b1057610100808354040283529160200191610b3b565b820191906000526020600020905b815481529060010190602001808311610b1e57829003601f168201915b50505050508152602001600c8054610b529061173a565b80601f0160208091040260200160405190810160405280929190818152602001828054610b7e9061173a565b8015610bcb5780601f10610ba057610100808354040283529160200191610bcb565b820191906000526020600020905b815481529060010190602001808311610bae57829003601f168201915b5050509183525050600d5460209091015292915050565b8060008111610c365760405160e560020a62461bcd02815260206004820152601c60248201527f5072696365206d7573742062652067726561746572207468616e203000000000604482015260640161041c565b50600b55565b610c446112f6565b6000604051806101e00160405280600154815260200160038054610c679061173a565b80601f0160208091040260200160405190810160405280929190818152602001828054610c939061173a565b8015610ce05780601f10610cb557610100808354040283529160200191610ce0565b820191906000526020600020905b815481529060010190602001808311610cc357829003601f168201915b5050505050815260200160048054610cf79061173a565b80601f0160208091040260200160405190810160405280929190818152602001828054610d239061173a565b8015610d705780601f10610d4557610100808354040283529160200191610d70565b820191906000526020600020905b815481529060010190602001808311610d5357829003601f168201915b5050505050815260200160078054610d879061173a565b80601f0160208091040260200160405190810160405280929190818152602001828054610db39061173a565b8015610e005780601f10610dd557610100808354040283529160200191610e00565b820191906000526020600020905b815481529060010190602001808311610de357829003601f168201915b5050505050815260200160088054610e179061173a565b80601f0160208091040260200160405190810160405280929190818152602001828054610e439061173a565b8015610e905780601f10610e6557610100808354040283529160200191610e90565b820191906000526020600020905b815481529060010190602001808311610e7357829003601f168201915b50505050508152602001600b548152602001610eab600e5490565b81526020016009548152602001600a548152602001848152602001610ece6110a4565b8152602001851515815260200185610ef55760405180602001604052806000815250610f81565b60068054610f029061173a565b80601f0160208091040260200160405190810160405280929190818152602001828054610f2e9061173a565b8015610f7b5780601f10610f5057610100808354040283529160200191610f7b565b820191906000526020600020905b815481529060010190602001808311610f5e57829003601f168201915b50505050505b8152602001600c8054610f939061173a565b80601f0160208091040260200160405190810160405280929190818152602001828054610fbf9061173a565b801561100c5780601f10610fe15761010080835404028352916020019161100c565b820191906000526020600020905b815481529060010190602001808311610fef57829003601f168201915b5050509183525050600d54602090910152949350505050565b61102d611244565b600160a060020a0381166110985760405160e560020a62461bcd02815260206004820152602660248201527f4f776e61626c653a206e6577206f776e657220697320746865207a65726f2061604482015260d060020a6564647265737302606482015260840161041c565b6110a1816112a6565b50565b60058054606091906110b89060019061193c565b815481106110c8576110c8611a50565b9060005260206000200180546110dd9061173a565b80601f01602080910402602001604051908101604052809291908181526020018280546111099061173a565b80156111565780601f1061112b57610100808354040283529160200191611156565b820191906000526020600020905b81548152906001019060200180831161113957829003601f168201915b5050505050905090565b81818080601f0160208091040260200160405190810160405280939291908181526020018383808284376000920191909152505060405160e160020a63139a0e4502815273__StringUtils___________________________92506327341c8a91506111d09084906004016113bb565b602060405180830381865af41580156111ed573d6000803e3d6000fd5b505050506040513d601f19601f820116820180604052508101906112119190611778565b156112315760405160e560020a62461bcd02815260040161041c90611795565b600461043283858361182e565b60009055565b3361124d6107eb565b600160a060020a03161461051c5760405160e560020a62461bcd02815260206004820181905260248201527f4f776e61626c653a2063616c6c6572206973206e6f7420746865206f776e6572604482015260640161041c565b60008054600160a060020a03838116600160a060020a0319831681178455604051919092169283917f8be0079c531659141344cd1fd0a4f28419497f9722a3daafe3b4186f6b6457e09190a35050565b604051806101e0016040528060008152602001606081526020016060815260200160608152602001606081526020016000815260200160008152602001600081526020016000815260200160008152602001606081526020016000151581526020016060815260200160608152602001600081525090565b6000815180845260005b8181101561139457602081850181015186830182015201611378565b818111156113a6576000602083870101525b50601f01601f19169290920160200192915050565b6020815260006113ce602083018461136e565b9392505050565b60008083601f8401126113e757600080fd5b5081356001604060020a038111156113fe57600080fd5b60208301915083602082850101111561141657600080fd5b9250929050565b6000806020838503121561143057600080fd5b82356001604060020a0381111561144657600080fd5b611452858286016113d5565b90969095509350505050565b6000806040838503121561147157600080fd5b50508035926020909101359150565b60e060020a634e487b710260009081526041600452602490fd5b6000806000604084860312156114af57600080fd5b83356001604060020a03808211156114c657600080fd5b818601915086601f8301126114da57600080fd5b8135818111156114ec576114ec611480565b604051601f8201601f19908116603f0116810190838211818310171561151457611514611480565b8160405282815289602084870101111561152d57600080fd5b82602086016020830137600060208483010152809750505050602086013591508082111561155a57600080fd5b50611567868287016113d5565b9497909650939450505050565b6020815281516020820152600060208301516101e080604085015261159d61020085018361136e565b91506040850151601f19808685030160608701526115bb848361136e565b935060608701519150808685030160808701526115d8848361136e565b935060808701519150808685030160a08701526115f5848361136e565b935060a087015160c087015260c087015160e087015260e08701519150610100828188015280880151925050610120828188015280880151925050610140828188015280880151925050610160818786030181880152611655858461136e565b94508088015192505061018061166e8188018415159052565b808801519250506101a081878603018188015261168b858461136e565b9450808801519250506101c08187860301818801526116aa858461136e565b970151959092019490945250929392505050565b6000602082840312156116d057600080fd5b5035919050565b80151581146110a157600080fd5b600080604083850312156116f857600080fd5b8235611703816116d7565b946020939093013593505050565b60006020828403121561172357600080fd5b8135600160a060020a03811681146113ce57600080fd5b60028104600182168061174e57607f821691505b6020821081036117725760e060020a634e487b710260009081526022600452602490fd5b50919050565b60006020828403121561178a57600080fd5b81516113ce816116d7565b60208082526018908201527f537472696e67206d757374206e6f7420626520656d7074790000000000000000604082015260600190565b601f821115611812576000818152602081206020601f860104810160208610156117f35750805b6020601f860104820191505b81811015610705578281556001016117ff565b505050565b6002808302600893909302900a6000190419161790565b6001604060020a0383111561184557611845611480565b61185983611853835461173a565b836117cc565b6000601f84116001811461188757600085156118755750838201355b61187f8682611817565b8455506118e4565b600083815260209020601f19861690835b828110156118b85786850135825560209485019460019092019101611898565b50868210156118d857858401356008601f89160260020a60001904191681555b50506001600286020183555b5050505050565b60e060020a634e487b710260009081526011600452602490fd5b600081600019048311821515161561191f5761191f6118eb565b500290565b60008219821115611937576119376118eb565b500190565b60008282101561194e5761194e6118eb565b500390565b60e060020a634e487b710260009081526012600452602490fd5b60008261197c5761197c611953565b500490565b60008261199057611990611953565b500690565b81516001604060020a038111156119ae576119ae611480565b6119c2816119bc845461173a565b846117cc565b602080601f8311600181146119f157600084156119df5750858301515b6119e98582611817565b865550610705565b600085815260208120601f198616915b82811015611a2057888601518255948401946001909101908401611a01565b5085821015611a4057878501516008601f88160260020a60001904191681555b5050505050600202600101905550565b60e060020a634e487b710260009081526032600452602490fdfea2646970667358221220144f04d3a8887feef5e6cd279775ef2e4059ad7d8c07dfb66f3f8009582ec98164736f6c634300080f003368747470733a2f2f65787465726e616c2d636f6e74656e742e6475636b6475636b676f2e636f6d2f69752f3f753d6874747073253341253246253246692e70696e696d672e636f6d2532466f726967696e616c7325324632302532463065253246663825324632303065663832623331383266663735626630623264653534393665363163662e6a706726663d31266e6f66623d31",
  "immutableReferences": {},
  "source": "//SPDX-License-Identifier: UNLICENSED\r\npragma solidity ^0.8.15;\r\n\r\nimport {Constants} from '../Utils/Constants.sol';\r\nimport {StringUtils} from '../Utils/StringUtils.sol';\r\nimport {AddressUtils, AddressPayableUtils} from '../Utils/AddressUtils.sol';\r\n\r\nimport {AppInfoLibrary} from '../Utils/AppInfoLibrary.sol';\r\n\r\nimport \"@openzeppelin/contracts/utils/Strings.sol\";\r\nimport \"@openzeppelin/contracts/access/Ownable.sol\";\r\nimport \"@openzeppelin/contracts/utils/Counters.sol\";\r\nimport \"@openzeppelin/contracts/utils/math/SafeMath.sol\";\r\n\r\ncontract App is Ownable {\r\n    //App contract provides a data structure of an app and\r\n    //an API to work with for external use\r\n    using StringUtils for string;\r\n    using StringUtils for string;\r\n\r\n    using Counters for Counters.Counter;\r\n    using SafeMath for uint;\r\n\r\n    uint256 public  id;\r\n    address payable public creator;\r\n    string public name;\r\n    string public description;\r\n    string[] fileSha256; //last is SHA of latest version.\r\n    string public magnetLink;\r\n    string public imgUrl;\r\n    string public company;\r\n    uint rating_int; //0 means not rated\r\n    uint rating_modulu;\r\n    uint public price; //in wei\r\n    string category;\r\n    uint publishTime;\r\n    Counters.Counter public num_ratings;\r\n    Counters.Counter public num_purchases;\r\n\r\n    constructor(uint _id,\r\n                address _creator,\r\n                string memory _name,\r\n                string memory _description,\r\n                string memory _magnetLink,\r\n                string memory _imgUrl,\r\n                string memory _company,\r\n                uint _price,\r\n                string memory _category,\r\n                string memory _fileSha256)\r\n                validateID(_id) validatePrice(_price) validateString(_name)\r\n                validateString(_magnetLink) validateString(_category) validateString(_fileSha256)\r\n    {\r\n    creator = payable(_creator);\r\n    id  = _id;\r\n    name  = _name;\r\n    description = _description;\r\n\r\n    magnetLink = _magnetLink;\r\n    imgUrl = _imgUrl;\r\n    if(_imgUrl.isEmpty()){\r\n        imgUrl = Constants.DEFAULT_APP_IMAGE;\r\n    }\r\n    company = _company;\r\n    rating_int = Constants.UNRATED;\r\n    rating_modulu = Constants.UNRATED;\r\n    price = _price;\r\n    fileSha256.push(_fileSha256);\r\n    num_ratings.reset();\r\n    num_purchases.reset();\r\n    category = _category;\r\n    publishTime = block.timestamp;\r\n    }\r\n\r\n    //valdiations\r\n    modifier validateID(uint _id){\r\n        require(_id >= 0, 'Illegal app id');\r\n        _;\r\n    }\r\n\r\n    modifier validateRating(uint _rating){\r\n        require(_rating >=0 && _rating <=5);\r\n        _;\r\n    }\r\n\r\n    modifier validatePrice(uint _price){\r\n        require(_price > 0, 'Price must be greater than 0');\r\n        _;\r\n    }\r\n\r\n    modifier validateString(string memory _string){\r\n        require(!_string.isEmpty(), 'String must not be empty');\r\n        _;\r\n    }\r\n\r\n    //getters\r\n    function getCurrentVersion() public view returns(string memory){\r\n        return fileSha256[fileSha256.length - 1];\r\n    }\r\n\r\n    function getAppRating() external view returns (uint, uint){\r\n        if (rating_int <= 0){\r\n            return (0, 0);\r\n        }\r\n    return (rating_int, rating_modulu);\r\n    }\r\n\r\n    //updaters\r\n    function updateAppName(string calldata new_name) external validateString(new_name){\r\n        name = new_name;\r\n    }\r\n\r\n    function updateAppDescription(string calldata new_description) external validateString(new_description){\r\n        description = new_description;\r\n    }\r\n\r\n    function updateAppImgUrl(string calldata new_imgUrl) external validateString(new_imgUrl){\r\n        imgUrl = new_imgUrl;\r\n    }\r\n\r\n    function updateAppVersion(string memory new_sha, string calldata new_magnetLink) external \r\n    validateString(new_sha)\r\n    validateString(new_magnetLink){\r\n        magnetLink = new_magnetLink;\r\n        fileSha256.push(new_sha);\r\n    }\r\n\r\n    function updateAppPrice(uint new_price) external validatePrice(new_price){\r\n       price = new_price;\r\n    }\r\n\r\n    function rateApp(uint new_rating, uint old_rating) external \r\n    onlyOwner \r\n    validateRating(old_rating) \r\n    validateRating(new_rating)\r\n    returns(uint, uint, uint)\r\n    {\r\n        uint total_rating = rating_int * num_ratings.current() + rating_modulu;\r\n        if (old_rating == 0){\r\n            num_ratings.increment();\r\n        }\r\n        // require(num_ratings.current() > 0, 'Invalid number of ratings');\r\n        total_rating += new_rating;\r\n        total_rating -= old_rating;\r\n        rating_int = total_rating / num_ratings.current();\r\n        rating_modulu = total_rating % num_ratings.current();\r\n    return (rating_int, rating_modulu, num_ratings.current());\r\n    }\r\n\r\n\r\n    function getAppInfo(bool owned, uint user_rating) view external returns(AppInfoLibrary.AppInfo memory){\r\n        // (uint rating, uint rating_modulu) = _app.getAppRating();\r\n        AppInfoLibrary.AppInfo memory app_info = AppInfoLibrary.AppInfo(\r\n            id,\r\n            name,\r\n            description,\r\n            imgUrl,\r\n            company,\r\n            price,\r\n            num_ratings.current(),\r\n            rating_int,\r\n            rating_modulu,\r\n            user_rating,\r\n            getCurrentVersion(),\r\n            owned,\r\n            owned? magnetLink: '',\r\n            category,\r\n            publishTime\r\n        );\r\n        return app_info;\r\n    }\r\n\r\n    \r\n    function getAppInfo() view external returns(AppInfoLibrary.AppInfo memory){\r\n        // (uint rating, uint rating_modulu) = _app.getAppRating();\r\n        AppInfoLibrary.AppInfo memory app_info = AppInfoLibrary.AppInfo(\r\n            id,\r\n            name,\r\n            description,\r\n            imgUrl,\r\n            company,\r\n            price,\r\n            num_ratings.current(),\r\n            rating_int,\r\n            rating_modulu,\r\n            0,\r\n            getCurrentVersion(),\r\n            true,\r\n            magnetLink,\r\n            category,\r\n            publishTime\r\n        );\r\n        return app_info;\r\n    }\r\n\r\n}\r\n\r\n\r\n",
  "sourcePath": "C:\\Users\\User\\Documents\\GitHub\\Backend\\SmartContracts\\contracts\\Apps\\App.sol",
  "compiler": {
    "name": "solc",
    "version": "0.8.15+commit.e14f2714.Emscripten.clang"
  },
  "schemaVersion": "3.4.8",
  "updatedAt": "2022-07-13T14:30:13.080Z",
  "devdoc": {
    "kind": "dev",
    "methods": {
      "owner()": {
        "details": "Returns the address of the current owner."
      },
      "renounceOwnership()": {
        "details": "Leaves the contract without owner. It will not be possible to call `onlyOwner` functions anymore. Can only be called by the current owner. NOTE: Renouncing ownership will leave the contract without an owner, thereby removing any functionality that is only available to the owner."
      },
      "transferOwnership(address)": {
        "details": "Transfers ownership of the contract to a new account (`newOwner`). Can only be called by the current owner."
      }
    },
    "version": 1
  },
  "userdoc": {
    "kind": "user",
    "methods": {},
    "version": 1
  }
}