{
  "contractName": "AppManager",
  "abi": [
    {
      "inputs": [],
      "stateMutability": "nonpayable",
      "type": "constructor"
    },
    {
      "anonymous": false,
      "inputs": [
        {
          "indexed": true,
          "internalType": "uint256",
          "name": "id",
          "type": "uint256"
        },
        {
          "indexed": true,
          "internalType": "address payable",
          "name": "creator",
          "type": "address"
        },
        {
          "indexed": false,
          "internalType": "string",
          "name": "name",
          "type": "string"
        },
        {
          "indexed": false,
          "internalType": "string",
          "name": "company",
          "type": "string"
        },
        {
          "indexed": false,
          "internalType": "string",
          "name": "category",
          "type": "string"
        },
        {
          "indexed": false,
          "internalType": "uint256",
          "name": "price",
          "type": "uint256"
        },
        {
          "indexed": false,
          "internalType": "string",
          "name": "description",
          "type": "string"
        }
      ],
      "name": "AppCreated",
      "type": "event"
    },
    {
      "anonymous": false,
      "inputs": [
        {
          "indexed": true,
          "internalType": "address",
          "name": "previousOwner",
          "type": "address"
        },
        {
          "indexed": true,
          "internalType": "address",
          "name": "newOwner",
          "type": "address"
        }
      ],
      "name": "OwnershipTransferred",
      "type": "event"
    },
    {
      "anonymous": false,
      "inputs": [
        {
          "indexed": true,
          "internalType": "uint256",
          "name": "app_id",
          "type": "uint256"
        }
      ],
      "name": "UpdatedApp",
      "type": "event"
    },
    {
      "inputs": [],
      "name": "owner",
      "outputs": [
        {
          "internalType": "address",
          "name": "",
          "type": "address"
        }
      ],
      "stateMutability": "view",
      "type": "function"
    },
    {
      "inputs": [],
      "name": "renounceOwnership",
      "outputs": [],
      "stateMutability": "nonpayable",
      "type": "function"
    },
    {
      "inputs": [
        {
          "internalType": "address",
          "name": "newOwner",
          "type": "address"
        }
      ],
      "name": "transferOwnership",
      "outputs": [],
      "stateMutability": "nonpayable",
      "type": "function"
    },
    {
      "inputs": [
        {
          "internalType": "uint256",
          "name": "start",
          "type": "uint256"
        },
        {
          "internalType": "uint256",
          "name": "len",
          "type": "uint256"
        }
      ],
      "name": "getAppBatch",
      "outputs": [
        {
          "components": [
            {
              "internalType": "uint256",
              "name": "id",
              "type": "uint256"
            },
            {
              "internalType": "string",
              "name": "name",
              "type": "string"
            },
            {
              "internalType": "string",
              "name": "description",
              "type": "string"
            },
            {
              "internalType": "string",
              "name": "imgUrl",
              "type": "string"
            },
            {
              "internalType": "string",
              "name": "company",
              "type": "string"
            },
            {
              "internalType": "uint256",
              "name": "price",
              "type": "uint256"
            },
            {
              "internalType": "uint256",
              "name": "numRatings",
              "type": "uint256"
            },
            {
              "internalType": "uint256",
              "name": "ratingInt",
              "type": "uint256"
            },
            {
              "internalType": "uint256",
              "name": "ratingModulu",
              "type": "uint256"
            },
            {
              "internalType": "uint256",
              "name": "userRating",
              "type": "uint256"
            },
            {
              "internalType": "string",
              "name": "fileSha256",
              "type": "string"
            },
            {
              "internalType": "bool",
              "name": "owned",
              "type": "bool"
            },
            {
              "internalType": "string",
              "name": "magnetLink",
              "type": "string"
            },
            {
              "internalType": "string",
              "name": "category",
              "type": "string"
            },
            {
              "internalType": "uint256",
              "name": "publishTime",
              "type": "uint256"
            }
          ],
          "internalType": "struct AppInfoLibrary.AppInfo[]",
          "name": "",
          "type": "tuple[]"
        }
      ],
      "stateMutability": "view",
      "type": "function"
    },
    {
      "inputs": [],
      "name": "getAppCount",
      "outputs": [
        {
          "internalType": "uint256",
          "name": "",
          "type": "uint256"
        }
      ],
      "stateMutability": "view",
      "type": "function"
    },
    {
      "inputs": [
        {
          "internalType": "string",
          "name": "_name",
          "type": "string"
        },
        {
          "internalType": "string",
          "name": "_description",
          "type": "string"
        },
        {
          "internalType": "string",
          "name": "_magnetLink",
          "type": "string"
        },
        {
          "internalType": "string",
          "name": "_imgUrl",
          "type": "string"
        },
        {
          "internalType": "string",
          "name": "_company",
          "type": "string"
        },
        {
          "internalType": "uint256",
          "name": "_price",
          "type": "uint256"
        },
        {
          "internalType": "string",
          "name": "_category",
          "type": "string"
        },
        {
          "internalType": "string",
          "name": "_fileSha256",
          "type": "string"
        }
      ],
      "name": "createNewApp",
      "outputs": [],
      "stateMutability": "nonpayable",
      "type": "function"
    },
    {
      "inputs": [
        {
          "internalType": "uint256",
          "name": "_app_id",
          "type": "uint256"
        },
        {
          "internalType": "string",
          "name": "_name",
          "type": "string"
        },
        {
          "internalType": "string",
          "name": "_description",
          "type": "string"
        },
        {
          "internalType": "string",
          "name": "_magnetLink",
          "type": "string"
        },
        {
          "internalType": "string",
          "name": "_imgUrl",
          "type": "string"
        },
        {
          "internalType": "uint256",
          "name": "_price",
          "type": "uint256"
        },
        {
          "internalType": "string",
          "name": "_fileSha256",
          "type": "string"
        }
      ],
      "name": "updateApp",
      "outputs": [],
      "stateMutability": "nonpayable",
      "type": "function"
    },
    {
      "inputs": [
        {
          "internalType": "uint256",
          "name": "_app_id",
          "type": "uint256"
        },
        {
          "internalType": "uint256",
          "name": "new_rating",
          "type": "uint256"
        },
        {
          "internalType": "uint256",
          "name": "old_rating",
          "type": "uint256"
        }
      ],
      "name": "rateApp",
      "outputs": [],
      "stateMutability": "nonpayable",
      "type": "function"
    }
  ],
  "bytecode": "0x608060405234801561001057600080fd5b50610033610025640100000000610038810204565b64010000000061003c810204565b61008c565b3390565b60008054600160a060020a03838116600160a060020a0319831681178455604051919092169283917f8be0079c531659141344cd1fd0a4f28419497f9722a3daafe3b4186f6b6457e09190a35050565b614158806200009c6000396000f3fe60806040523480156200001157600080fd5b5060043610620000855760e060020a60003504632b07ac4c81146200008a578063715018a614620000a35780637d6a24ab14620000ad57806380109fea14620000dc5780638da5cb5b14620000f557806399614c1014620001185780639a9d793c146200012f578063f2fde38b1462000146575b600080fd5b620000a16200009b366004620011a0565b6200015d565b005b620000a162000223565b620000c4620000be366004620012da565b6200023b565b604051620000d391906200135e565b60405180910390f35b620000e66200051d565b604051908152602001620000d3565b620000ff62000530565b604051600160a060020a039091168152602001620000d3565b620000a162000129366004620014e1565b6200053f565b620000a16200014036600462001559565b62000627565b620000a1620001573660046200168a565b62000de0565b60006200016b600162000e65565b9050600081338b8b8b8b8b8b8b8b604051620001879062001093565b6200019c9a99989796959493929190620016b5565b604051809103906000f080158015620001b9573d6000803e3d6000fd5b509050620001ca6001838362000e78565b5033600160a060020a0316827f28522faef084eaf14884ca4dfb443eec1792a46a067e8af55ada5cd7e1cd03728c89888a8f6040516200020f9594939291906200177f565b60405180910390a350505050505050505050565b6200022d62000e98565b62000239600062000efe565b565b606082826200024e565b60405180910390fd5b60008111620002975760405160e560020a62461bcd02815260206004820152600e6024820152609360020a6d092dcecc2d8d2c840d8cadccee8d02604482015260640162000245565b620002a3600162000e65565b8210620002e95760405160e560020a62461bcd02815260206004820152600d6024820152609b60020a6c092dcecc2d8d2c840d2dcc8caf02604482015260640162000245565b6000620002f7600162000e65565b905060008186106200030a57816200030c565b855b90506000816001604060020a038111156200032b576200032b620010a1565b604051908082528060200260200182016040528015620003da57816020015b620003c6604051806101e0016040528060008152602001606081526020016060815260200160608152602001606081526020016000815260200160008152602001600081526020016000815260200160008152602001606081526020016000151581526020016060815260200160608152602001600081525090565b8152602001906001900390816200034a5790505b509050868211158015620003ee5750828211155b620004335760405160e560020a62461bcd02815260206004820152600e6024820152609260020a6d1b5a5b9a5b5d5b4819985a5b195902604482015260640162000245565b60005b8281101562000511576000846200044e838c62001800565b6200045a91906200181b565b905060006200046b60018362000f4e565b905080600160a060020a031663e26799ff6040518163ffffffff1660e060020a028152600401600060405180830381865afa158015620004af573d6000803e3d6000fd5b505050506040513d6000823e601f3d908101601f19168201604052620004d99190810190620018a4565b848481518110620004ee57620004ee62001a6c565b602002602001018190525050508080620005089062001a86565b91505062000436565b50979650505050505050565b60006200052b600162000e65565b905090565b600054600160a060020a031690565b60006200054e60018562000f4e565b60405160e160020a63385c7ec90281526004810185905260248101849052909150819060009081908190600160a060020a038516906370b8fd92906044016060604051808303816000875af1158015620005ac573d6000803e3d6000fd5b505050506040513d601f19601f82011682018060405250810190620005d2919062001aa2565b6040805184815260208101849052908101829052929550909350915088907f4686fd5d77ea9a1984201e56edd878f506e82fdb6401d0bf70543d172ef37a739060600160405180910390a25050505050505050565b6200063162000e98565b60006200064060018e62000f4e565b90508b8b8080601f0160208091040260200160405190810160405280939291908181526020018383808284376000920191909152505060405160e560020a6303a2cc9502815273__StringUtils___________________________9363745992a09350620006b392509060040162001ad1565b602060405180830381865af4158015620006d1573d6000803e3d6000fd5b505050506040513d601f19601f82011682018060405250810190620006f7919062001ae6565b15620007655760405160e060020a6381ecdf45028152600160a060020a038216906381ecdf459062000730908f908f9060040162001b2d565b600060405180830381600087803b1580156200074b57600080fd5b505af115801562000760573d6000803e3d6000fd5b505050505b89898080601f0160208091040260200160405190810160405280939291908181526020018383808284376000920191909152505060405160e560020a6303a2cc9502815273__StringUtils___________________________9363745992a09350620007d692509060040162001ad1565b602060405180830381865af4158015620007f4573d6000803e3d6000fd5b505050506040513d601f19601f820116820180604052508101906200081a919062001ae6565b15620008885760405160e060020a63fafb1b01028152600160a060020a0382169063fafb1b019062000853908d908d9060040162001b2d565b600060405180830381600087803b1580156200086e57600080fd5b505af115801562000883573d6000803e3d6000fd5b505050505b87878080601f0160208091040260200160405190810160405280939291908181526020018383808284376000920191909152505060405160e560020a6303a2cc9502815273__StringUtils___________________________9363745992a09350620008f992509060040162001ad1565b602060405180830381865af415801562000917573d6000803e3d6000fd5b505050506040513d601f19601f820116820180604052508101906200093d919062001ae6565b80620009f9575082828080601f0160208091040260200160405190810160405280939291908181526020018383808284376000920191909152505060405160e560020a6303a2cc9502815273__StringUtils___________________________9363745992a09350620009b592509060040162001ad1565b602060405180830381865af4158015620009d3573d6000803e3d6000fd5b505050506040513d601f19601f82011682018060405250810190620009f9919062001ae6565b1562000c475787878080601f0160208091040260200160405190810160405280939291908181526020018383808284376000920191909152505060405160e560020a6303a2cc9502815273__StringUtils___________________________9363745992a0935062000a7092509060040162001ad1565b602060405180830381865af415801562000a8e573d6000803e3d6000fd5b505050506040513d601f19601f8201168201806040525081019062000ab4919062001ae6565b801562000b71575082828080601f0160208091040260200160405190810160405280939291908181526020018383808284376000920191909152505060405160e560020a6303a2cc9502815273__StringUtils___________________________9363745992a0935062000b2d92509060040162001ad1565b602060405180830381865af415801562000b4b573d6000803e3d6000fd5b505050506040513d601f19601f8201168201806040525081019062000b71919062001ae6565b62000bdb5760405160e560020a62461bcd02815260206004820152602d60248201527f4d7573742070726f7669646520626f7468206d61676e6574206c696e6b20616e6044820152609960020a6c32103334b6329039b430991a9b02606482015260840162000245565b60405160e160020a633f7ca45d028152600160a060020a03821690637ef948ba9062000c1290869086908d908d9060040162001b43565b600060405180830381600087803b15801562000c2d57600080fd5b505af115801562000c42573d6000803e3d6000fd5b505050505b85858080601f0160208091040260200160405190810160405280939291908181526020018383808284376000920191909152505060405160e560020a6303a2cc9502815273__StringUtils___________________________9363745992a0935062000cb892509060040162001ad1565b602060405180830381865af415801562000cd6573d6000803e3d6000fd5b505050506040513d601f19601f8201168201806040525081019062000cfc919062001ae6565b1562000d6a5760405160e060020a634ad3d57d028152600160a060020a03821690634ad3d57d9062000d35908990899060040162001b2d565b600060405180830381600087803b15801562000d5057600080fd5b505af115801562000d65573d6000803e3d6000fd5b505050505b831562000dd15760405160e060020a63e9cd36d302815260048101859052600160a060020a0382169063e9cd36d390602401600060405180830381600087803b15801562000db757600080fd5b505af115801562000dcc573d6000803e3d6000fd5b505050505b50505050505050505050505050565b62000dea62000e98565b600160a060020a03811662000e575760405160e560020a62461bcd02815260206004820152602660248201527f4f776e61626c653a206e6577206f776e657220697320746865207a65726f2061604482015260d060020a6564647265737302606482015260840162000245565b62000e628162000efe565b50565b600062000e728262000f63565b92915050565b600062000e908484600160a060020a03851662000f70565b949350505050565b3362000ea362000530565b600160a060020a031614620002395760405160e560020a62461bcd02815260206004820181905260248201527f4f776e61626c653a2063616c6c6572206973206e6f7420746865206f776e6572604482015260640162000245565b60008054600160a060020a03838116600160a060020a0319831681178455604051919092169283917f8be0079c531659141344cd1fd0a4f28419497f9722a3daafe3b4186f6b6457e09190a35050565b600062000f5c838362000f8f565b9392505050565b600062000e728262001007565b6000828152600284016020526040812082905562000e90848462001012565b60008181526002830160205260408120548015158062000fb6575062000fb6848462001020565b62000f5c5760405160e560020a62461bcd02815260206004820152601e60248201527f456e756d657261626c654d61703a206e6f6e6578697374656e74206b65790000604482015260640162000245565b600062000e72825490565b600062000f5c838362001041565b600062000f5c83836000818152600183016020526040812054151562000f5c565b60008181526001830160205260408120546200108a5750815460018181018455600084815260208082209093018490558454848252828601909352604090209190915562000e72565b50600062000e72565b6125a98062001b7a83390190565b60e060020a634e487b710260009081526041600452602490fd5b6040516101e081016001604060020a0381118282101715620010e157620010e1620010a1565b60405290565b604051601f8201601f191681016001604060020a0381118282101715620011125762001112620010a1565b604052919050565b60006001604060020a03821115620011365762001136620010a1565b50601f01601f191660200190565b600082601f8301126200115657600080fd5b81356200116d62001167826200111a565b620010e7565b8181528460208386010111156200118357600080fd5b816020850160208301376000918101602001919091529392505050565b600080600080600080600080610100898b031215620011be57600080fd5b88356001604060020a0380821115620011d657600080fd5b620011e48c838d0162001144565b995060208b0135915080821115620011fb57600080fd5b620012098c838d0162001144565b985060408b01359150808211156200122057600080fd5b6200122e8c838d0162001144565b975060608b01359150808211156200124557600080fd5b620012538c838d0162001144565b965060808b01359150808211156200126a57600080fd5b620012788c838d0162001144565b955060a08b0135945060c08b01359150808211156200129657600080fd5b620012a48c838d0162001144565b935060e08b0135915080821115620012bb57600080fd5b50620012ca8b828c0162001144565b9150509295985092959890939650565b60008060408385031215620012ee57600080fd5b50508035926020909101359150565b60005b838110156200131a57818101518382015260200162001300565b838111156200132a576000848401525b50505050565b600081518084526200134a816020860160208601620012fd565b601f01601f19169290920160200192915050565b60208082528251828201819052600091906040908185019080840286018301878501865b83811015620014d357603f1989840301855281516101e08151855288820151818a870152620013b48287018262001330565b9150508782015185820389870152620013ce828262001330565b91505060608083015186830382880152620013ea838262001330565b925050506080808301518683038288015262001407838262001330565b60a0858101519089015260c0808601519089015260e080860151908901526101008086015190890152610120808601519089015261014080860151898303828b0152919450925090506200145c838262001330565b9250505061016080830151620014758288018215159052565b5050610180808301518683038288015262001491838262001330565b925050506101a08083015186830382880152620014af838262001330565b6101c094850151979094019690965250509487019492509086019060010162001382565b509098975050505050505050565b600080600060608486031215620014f757600080fd5b505081359360208301359350604090920135919050565b60008083601f8401126200152157600080fd5b5081356001604060020a038111156200153957600080fd5b6020830191508360208285010111156200155257600080fd5b9250929050565b60008060008060008060008060008060008060e08d8f0312156200157c57600080fd5b8c359b506001604060020a0360208e013511156200159957600080fd5b620015ab8e60208f01358f016200150e565b909b5099506001604060020a0360408e01351115620015c957600080fd5b620015db8e60408f01358f016200150e565b90995097506001604060020a0360608e01351115620015f957600080fd5b6200160b8e60608f01358f016200150e565b90975095506001604060020a0360808e013511156200162957600080fd5b6200163b8e60808f01358f016200150e565b909550935060a08d013592506001604060020a0360c08e013511156200166057600080fd5b620016728e60c08f01358f016200150e565b81935080925050509295989b509295989b509295989b565b6000602082840312156200169d57600080fd5b8135600160a060020a038116811462000f5c57600080fd5b8a8152600160a060020a038a16602082015261014060408201819052600090620016e28382018c62001330565b90508281036060840152620016f8818b62001330565b905082810360808401526200170e818a62001330565b905082810360a084015262001724818962001330565b905082810360c08401526200173a818862001330565b90508560e084015282810361010084015262001757818662001330565b90508281036101208401526200176e818562001330565b9d9c50505050505050505050505050565b60a0815260006200179460a083018862001330565b8281036020840152620017a8818862001330565b90508281036040840152620017be818762001330565b90508460608401528281036080840152620017da818562001330565b98975050505050505050565b60e060020a634e487b710260009081526011600452602490fd5b60008219821115620018165762001816620017e6565b500190565b6000826200183d5760e060020a634e487b710260009081526012600452602490fd5b500690565b600082601f8301126200185457600080fd5b81516200186562001167826200111a565b8181528460208386010111156200187b57600080fd5b62000e90826020830160208701620012fd565b805180151581146200189f57600080fd5b919050565b600060208284031215620018b757600080fd5b81516001604060020a0380821115620018cf57600080fd5b908301906101e08286031215620018e557600080fd5b620018ef620010bb565b825181526020830151828111156200190657600080fd5b620019148782860162001842565b6020830152506040830151828111156200192d57600080fd5b6200193b8782860162001842565b6040830152506060830151828111156200195457600080fd5b620019628782860162001842565b6060830152506080830151828111156200197b57600080fd5b620019898782860162001842565b60808301525060a083015160a082015260c083015160c082015260e083015160e08201526101008084015181830152506101208084015181830152506101408084015183811115620019da57600080fd5b620019e88882870162001842565b828401525050610160620019fe8185016200188e565b90820152610180838101518381111562001a1757600080fd5b62001a258882870162001842565b8284015250506101a0808401518381111562001a4057600080fd5b62001a4e8882870162001842565b91830191909152506101c09283015192810192909252509392505050565b60e060020a634e487b710260009081526032600452602490fd5b60006001820162001a9b5762001a9b620017e6565b5060010190565b60008060006060848603121562001ab857600080fd5b8351925060208401519150604084015190509250925092565b60208152600062000f5c602083018462001330565b60006020828403121562001af957600080fd5b62000f5c826200188e565b81835281816020850137506000828201602090810191909152601f909101601f19169091010190565b60208152600062000e9060208301848662001b04565b60408152600062001b5960408301868862001b04565b828103602084015262001b6e81858762001b04565b97965050505050505056fe60806040523480156200001157600080fd5b50604051620025a9380380620025a9833981016040819052620000349162000776565b6200005a6200004b6401000000006200060c810204565b64010000000062000610810204565b896200006a565b60405180910390fd5b8360008111620000d7576040517f08c379a000000000000000000000000000000000000000000000000000000000815260206004820152601c60248201527f5072696365206d7573742062652067726561746572207468616e203000000000604482015260640162000061565b6040517f27341c8a0000000000000000000000000000000000000000000000000000000081528a9073__StringUtils___________________________906327341c8a906200012b908490600401620008ce565b602060405180830381865af415801562000149573d6000803e3d6000fd5b505050506040513d601f19601f820116820180604052508101906200016f919062000903565b15620001a9576040517f08c379a000000000000000000000000000000000000000000000000000000000815260040162000061906200092e565b6040517f27341c8a000000000000000000000000000000000000000000000000000000008152899073__StringUtils___________________________906327341c8a90620001fd908490600401620008ce565b602060405180830381865af41580156200021b573d6000803e3d6000fd5b505050506040513d601f19601f8201168201806040525081019062000241919062000903565b156200027b576040517f08c379a000000000000000000000000000000000000000000000000000000000815260040162000061906200092e565b6040517f27341c8a000000000000000000000000000000000000000000000000000000008152869073__StringUtils___________________________906327341c8a90620002cf908490600401620008ce565b602060405180830381865af4158015620002ed573d6000803e3d6000fd5b505050506040513d601f19601f8201168201806040525081019062000313919062000903565b156200034d576040517f08c379a000000000000000000000000000000000000000000000000000000000815260040162000061906200092e565b6040517f27341c8a000000000000000000000000000000000000000000000000000000008152869073__StringUtils___________________________906327341c8a90620003a1908490600401620008ce565b602060405180830381865af4158015620003bf573d6000803e3d6000fd5b505050506040513d601f19601f82011682018060405250810190620003e5919062000903565b156200041f576040517f08c379a000000000000000000000000000000000000000000000000000000000815260040162000061906200092e565b8e600260006101000a815481600160a060020a030219169083600160a060020a031602179055508f6001819055508d600390816200045e919062000a0d565b5060046200046d8e8262000a0d565b5060066200047c8d8262000a0d565b5060076200048b8c8262000a0d565b506040517f27341c8a00000000000000000000000000000000000000000000000000000000815273__StringUtils___________________________906327341c8a90620004de908e90600401620008ce565b602060405180830381865af4158015620004fc573d6000803e3d6000fd5b505050506040513d601f19601f8201168201806040525081019062000522919062000903565b1562000553576040518060c0016040528060958152602001620025146095913960079062000551908262000a0d565b505b6008620005618b8262000a0d565b5060006009819055600a819055600b8a90556005805460018101825591527f036b6384b5eca791c62761152d0c79bb0604c104a5fb6f4eb0703f3154bb3db001620005ad888262000a0d565b50620005c8600e640100000000620011c36200066082021704565b620005e2600f640100000000620011c36200066082021704565b600c620005f0898262000a0d565b505042600d555062000adf9d5050505050505050505050505050565b3390565b60008054600160a060020a03838116600160a060020a0319831681178455604051919092169283917f8be0079c531659141344cd1fd0a4f28419497f9722a3daafe3b4186f6b6457e09190a35050565b60009055565b8051600160a060020a03811681146200067e57600080fd5b919050565b7f4e487b7100000000000000000000000000000000000000000000000000000000600052604160045260246000fd5b60005b83811015620006cf578181015183820152602001620006b5565b83811115620006df576000848401525b50505050565b600082601f830112620006f757600080fd5b81516001604060020a038082111562000714576200071462000683565b604051601f8301601f19908116603f011681019082821181831017156200073f576200073f62000683565b816040528381528660208588010111156200075957600080fd5b6200076c846020830160208901620006b2565b9695505050505050565b6000806000806000806000806000806101408b8d0312156200079757600080fd5b8a519950620007a960208c0162000666565b985060408b01516001604060020a0380821115620007c657600080fd5b620007d48e838f01620006e5565b995060608d0151915080821115620007eb57600080fd5b620007f98e838f01620006e5565b985060808d01519150808211156200081057600080fd5b6200081e8e838f01620006e5565b975060a08d01519150808211156200083557600080fd5b620008438e838f01620006e5565b965060c08d01519150808211156200085a57600080fd5b620008688e838f01620006e5565b955060e08d015194506101008d01519150808211156200088757600080fd5b620008958e838f01620006e5565b93506101208d0151915080821115620008ad57600080fd5b50620008bc8d828e01620006e5565b9150509295989b9194979a5092959850565b6020815260008251806020840152620008ef816040850160208701620006b2565b601f01601f19169190910160400192915050565b6000602082840312156200091657600080fd5b815180151581146200092757600080fd5b9392505050565b60208082526018908201527f537472696e67206d757374206e6f7420626520656d7074790000000000000000604082015260600190565b6002810460018216806200097a57607f821691505b602082108103620009b4577f4e487b7100000000000000000000000000000000000000000000000000000000600052602260045260246000fd5b50919050565b601f82111562000a08576000818152602081206020601f86010481016020861015620009e35750805b6020601f860104820191505b8181101562000a0457828155600101620009ef565b5050505b505050565b81516001604060020a0381111562000a295762000a2962000683565b62000a418162000a3a845462000965565b84620009ba565b602080601f83116001811462000a7d576000841562000a605750858301515b60028086026008870290910a600019041982161786555062000a04565b600085815260208120601f198616915b8281101562000aae5788860151825594840194600190910190840162000a8d565b508582101562000acf57878501516008601f88160260020a60001904191681555b5050505050600202600101905550565b611a258062000aef6000396000f3fe608060405234801561001057600080fd5b50600436106101205760e060020a600035046302d05d3f811461012557806306fdde031461015557806334b1a7cc1461016a5780634ad3d57d146101825780636904c94d1461019757806370b8fd921461019f578063715018a6146101cd5780637284e416146101d557806373b8fc80146101dd5780637ef948ba146101fa57806381ecdf451461020d5780638da5cb5b14610220578063a035b1fe14610228578063a512bd7914610231578063af640d0f14610239578063d23fe7c714610242578063d68387c71461024c578063e26799ff14610254578063e9cd36d314610269578063f22b01271461027c578063f2fde38b1461028f578063fabec44a146102a2578063fafb1b01146102aa575b600080fd5b60025461013890600160a060020a031681565b604051600160a060020a0390911681526020015b60405180910390f35b61015d6102bd565b60405161014c9190611340565b600f546101749081565b60405190815260200161014c565b6101956101903660046113a2565b61034b565b005b61015d610438565b6101b26101ad3660046113e3565b610445565b6040805193845260208401929092529082015260600161014c565b61019561050a565b61015d61051e565b6101e561052b565b6040805192835260208301919091520161014c565b61019561020836600461141f565b61054d565b61019561021b3660046113a2565b61070d565b6101386107eb565b610174600b5481565b61015d6107fa565b61017460015481565b600e546101749081565b61015d610807565b61025c610814565b60405161014c91906114f9565b610195610277366004611643565b610b67565b61025c61028a36600461166a565b610bc1565b61019561029d366004611696565b610faa565b61015d611029565b6101956102b83660046113a2565b6110e5565b600380546102ca906116bf565b80601f01602080910402602001604051908101604052809291908181526020018280546102f6906116bf565b80156103435780601f1061031857610100808354040283529160200191610343565b820191906000526020600020905b81548152906001019060200180831161032657829003601f168201915b505050505081565b81818080601f0160208091040260200160405190810160405280939291908181526020018383808284376000920191909152505060405160e160020a63139a0e4502815273__StringUtils___________________________92506327341c8a91506103bb908490600401611340565b602060405180830381865af41580156103d8573d6000803e3d6000fd5b505050506040513d601f19601f820116820180604052508101906103fc91906116fd565b156104255760405160e560020a62461bcd02815260040161041c9061171a565b60405180910390fd5b60076104328385836117b3565b50505050565b600880546102ca906116bf565b60008060006104526111c9565b83600581111561046157600080fd5b85600581111561047057600080fd5b6000600a5461047e600e5490565b60095461048b919061188a565b61049591906118a9565b9050866000036104ad576104ad600e80546001019055565b6104b788826118a9565b90506104c387826118c1565b90506104ce600e5490565b6104d890826118f2565b600955600e546104e89082611906565b600a819055600954906104fa600e5490565b9550955095505050509250925092565b6105126111c9565b61051c600061122b565b565b600480546102ca906116bf565b6000806000600954116105415750600091829150565b5050600954600a549091565b60405160e160020a63139a0e45028152839073__StringUtils___________________________906327341c8a90610589908490600401611340565b602060405180830381865af41580156105a6573d6000803e3d6000fd5b505050506040513d601f19601f820116820180604052508101906105ca91906116fd565b156105ea5760405160e560020a62461bcd02815260040161041c9061171a565b82828080601f0160208091040260200160405190810160405280939291908181526020018383808284376000920191909152505060405160e160020a63139a0e4502815273__StringUtils___________________________92506327341c8a915061065a908490600401611340565b602060405180830381865af4158015610677573d6000803e3d6000fd5b505050506040513d601f19601f8201168201806040525081019061069b91906116fd565b156106bb5760405160e560020a62461bcd02815260040161041c9061171a565b60066106c88486836117b3565b50600580546001810182556000919091527f036b6384b5eca791c62761152d0c79bb0604c104a5fb6f4eb0703f3154bb3db001610705868261191a565b505050505050565b81818080601f0160208091040260200160405190810160405280939291908181526020018383808284376000920191909152505060405160e160020a63139a0e4502815273__StringUtils___________________________92506327341c8a915061077d908490600401611340565b602060405180830381865af415801561079a573d6000803e3d6000fd5b505050506040513d601f19601f820116820180604052508101906107be91906116fd565b156107de5760405160e560020a62461bcd02815260040161041c9061171a565b60036104328385836117b3565b600054600160a060020a031690565b600680546102ca906116bf565b600780546102ca906116bf565b61081c61127b565b6000604051806101e0016040528060015481526020016003805461083f906116bf565b80601f016020809104026020016040519081016040528092919081815260200182805461086b906116bf565b80156108b85780601f1061088d576101008083540402835291602001916108b8565b820191906000526020600020905b81548152906001019060200180831161089b57829003601f168201915b50505050508152602001600480546108cf906116bf565b80601f01602080910402602001604051908101604052809291908181526020018280546108fb906116bf565b80156109485780601f1061091d57610100808354040283529160200191610948565b820191906000526020600020905b81548152906001019060200180831161092b57829003601f168201915b505050505081526020016007805461095f906116bf565b80601f016020809104026020016040519081016040528092919081815260200182805461098b906116bf565b80156109d85780601f106109ad576101008083540402835291602001916109d8565b820191906000526020600020905b8154815290600101906020018083116109bb57829003601f168201915b50505050508152602001600880546109ef906116bf565b80601f0160208091040260200160405190810160405280929190818152602001828054610a1b906116bf565b8015610a685780601f10610a3d57610100808354040283529160200191610a68565b820191906000526020600020905b815481529060010190602001808311610a4b57829003601f168201915b50505050508152602001600b548152602001610a83600e5490565b81526020016009548152602001600a54815260200160008152602001610aa7611029565b8152602001600015158152602001604051806020016040528060008152508152602001600c8054610ad7906116bf565b80601f0160208091040260200160405190810160405280929190818152602001828054610b03906116bf565b8015610b505780601f10610b2557610100808354040283529160200191610b50565b820191906000526020600020905b815481529060010190602001808311610b3357829003601f168201915b5050509183525050600d5460209091015292915050565b8060008111610bbb5760405160e560020a62461bcd02815260206004820152601c60248201527f5072696365206d7573742062652067726561746572207468616e203000000000604482015260640161041c565b50600b55565b610bc961127b565b6000604051806101e00160405280600154815260200160038054610bec906116bf565b80601f0160208091040260200160405190810160405280929190818152602001828054610c18906116bf565b8015610c655780601f10610c3a57610100808354040283529160200191610c65565b820191906000526020600020905b815481529060010190602001808311610c4857829003601f168201915b5050505050815260200160048054610c7c906116bf565b80601f0160208091040260200160405190810160405280929190818152602001828054610ca8906116bf565b8015610cf55780601f10610cca57610100808354040283529160200191610cf5565b820191906000526020600020905b815481529060010190602001808311610cd857829003601f168201915b5050505050815260200160078054610d0c906116bf565b80601f0160208091040260200160405190810160405280929190818152602001828054610d38906116bf565b8015610d855780601f10610d5a57610100808354040283529160200191610d85565b820191906000526020600020905b815481529060010190602001808311610d6857829003601f168201915b5050505050815260200160088054610d9c906116bf565b80601f0160208091040260200160405190810160405280929190818152602001828054610dc8906116bf565b8015610e155780601f10610dea57610100808354040283529160200191610e15565b820191906000526020600020905b815481529060010190602001808311610df857829003601f168201915b50505050508152602001600b548152602001610e30600e5490565b81526020016009548152602001600a548152602001848152602001610e53611029565b8152602001851515815260200185610e7a5760405180602001604052806000815250610f06565b60068054610e87906116bf565b80601f0160208091040260200160405190810160405280929190818152602001828054610eb3906116bf565b8015610f005780601f10610ed557610100808354040283529160200191610f00565b820191906000526020600020905b815481529060010190602001808311610ee357829003601f168201915b50505050505b8152602001600c8054610f18906116bf565b80601f0160208091040260200160405190810160405280929190818152602001828054610f44906116bf565b8015610f915780601f10610f6657610100808354040283529160200191610f91565b820191906000526020600020905b815481529060010190602001808311610f7457829003601f168201915b5050509183525050600d54602090910152949350505050565b610fb26111c9565b600160a060020a03811661101d5760405160e560020a62461bcd02815260206004820152602660248201527f4f776e61626c653a206e6577206f776e657220697320746865207a65726f2061604482015260d060020a6564647265737302606482015260840161041c565b6110268161122b565b50565b600580546060919061103d906001906118c1565b8154811061104d5761104d6119d5565b906000526020600020018054611062906116bf565b80601f016020809104026020016040519081016040528092919081815260200182805461108e906116bf565b80156110db5780601f106110b0576101008083540402835291602001916110db565b820191906000526020600020905b8154815290600101906020018083116110be57829003601f168201915b5050505050905090565b81818080601f0160208091040260200160405190810160405280939291908181526020018383808284376000920191909152505060405160e160020a63139a0e4502815273__StringUtils___________________________92506327341c8a9150611155908490600401611340565b602060405180830381865af4158015611172573d6000803e3d6000fd5b505050506040513d601f19601f8201168201806040525081019061119691906116fd565b156111b65760405160e560020a62461bcd02815260040161041c9061171a565b60046104328385836117b3565b60009055565b336111d26107eb565b600160a060020a03161461051c5760405160e560020a62461bcd02815260206004820181905260248201527f4f776e61626c653a2063616c6c6572206973206e6f7420746865206f776e6572604482015260640161041c565b60008054600160a060020a03838116600160a060020a0319831681178455604051919092169283917f8be0079c531659141344cd1fd0a4f28419497f9722a3daafe3b4186f6b6457e09190a35050565b604051806101e0016040528060008152602001606081526020016060815260200160608152602001606081526020016000815260200160008152602001600081526020016000815260200160008152602001606081526020016000151581526020016060815260200160608152602001600081525090565b6000815180845260005b81811015611319576020818501810151868301820152016112fd565b8181111561132b576000602083870101525b50601f01601f19169290920160200192915050565b60208152600061135360208301846112f3565b9392505050565b60008083601f84011261136c57600080fd5b5081356001604060020a0381111561138357600080fd5b60208301915083602082850101111561139b57600080fd5b9250929050565b600080602083850312156113b557600080fd5b82356001604060020a038111156113cb57600080fd5b6113d78582860161135a565b90969095509350505050565b600080604083850312156113f657600080fd5b50508035926020909101359150565b60e060020a634e487b710260009081526041600452602490fd5b60008060006040848603121561143457600080fd5b83356001604060020a038082111561144b57600080fd5b818601915086601f83011261145f57600080fd5b81358181111561147157611471611405565b604051601f8201601f19908116603f0116810190838211818310171561149957611499611405565b816040528281528960208487010111156114b257600080fd5b8260208601602083013760006020848301015280975050505060208601359150808211156114df57600080fd5b506114ec8682870161135a565b9497909650939450505050565b6020815281516020820152600060208301516101e08060408501526115226102008501836112f3565b91506040850151601f198086850301606087015261154084836112f3565b9350606087015191508086850301608087015261155d84836112f3565b935060808701519150808685030160a087015261157a84836112f3565b935060a087015160c087015260c087015160e087015260e087015191506101008281880152808801519250506101208281880152808801519250506101408281880152808801519250506101608187860301818801526115da85846112f3565b9450808801519250506101806115f38188018415159052565b808801519250506101a081878603018188015261161085846112f3565b9450808801519250506101c081878603018188015261162f85846112f3565b970151959092019490945250929392505050565b60006020828403121561165557600080fd5b5035919050565b801515811461102657600080fd5b6000806040838503121561167d57600080fd5b82356116888161165c565b946020939093013593505050565b6000602082840312156116a857600080fd5b8135600160a060020a038116811461135357600080fd5b6002810460018216806116d357607f821691505b6020821081036116f75760e060020a634e487b710260009081526022600452602490fd5b50919050565b60006020828403121561170f57600080fd5b81516113538161165c565b60208082526018908201527f537472696e67206d757374206e6f7420626520656d7074790000000000000000604082015260600190565b601f821115611797576000818152602081206020601f860104810160208610156117785750805b6020601f860104820191505b8181101561070557828155600101611784565b505050565b6002808302600893909302900a6000190419161790565b6001604060020a038311156117ca576117ca611405565b6117de836117d883546116bf565b83611751565b6000601f84116001811461180c57600085156117fa5750838201355b611804868261179c565b845550611869565b600083815260209020601f19861690835b8281101561183d578685013582556020948501946001909201910161181d565b508682101561185d57858401356008601f89160260020a60001904191681555b50506001600286020183555b5050505050565b60e060020a634e487b710260009081526011600452602490fd5b60008160001904831182151516156118a4576118a4611870565b500290565b600082198211156118bc576118bc611870565b500190565b6000828210156118d3576118d3611870565b500390565b60e060020a634e487b710260009081526012600452602490fd5b600082611901576119016118d8565b500490565b600082611915576119156118d8565b500690565b81516001604060020a0381111561193357611933611405565b6119478161194184546116bf565b84611751565b602080601f83116001811461197657600084156119645750858301515b61196e858261179c565b865550610705565b600085815260208120601f198616915b828110156119a557888601518255948401946001909101908401611986565b50858210156119c557878501516008601f88160260020a60001904191681555b5050505050600202600101905550565b60e060020a634e487b710260009081526032600452602490fdfea26469706673582212209bb99575a0b0b7c26c8d4578fe50483aeeffc8bdebadf9da47a375469e86f1b564736f6c634300080f003368747470733a2f2f65787465726e616c2d636f6e74656e742e6475636b6475636b676f2e636f6d2f69752f3f753d6874747073253341253246253246692e70696e696d672e636f6d2532466f726967696e616c7325324632302532463065253246663825324632303065663832623331383266663735626630623264653534393665363163662e6a706726663d31266e6f66623d31a26469706673582212200c4108878ae84e6d40f103ac87cc79db000d4e17a9b791ca04b160fe7b5c620d64736f6c634300080f0033",
  "immutableReferences": {},
  "source": "//SPDX-License-Identifier: UNLICENSED\r\npragma solidity ^0.8.15;\r\n\r\nimport {App} from './App.sol';\r\nimport {User} from '../Users/User.sol';\r\nimport {Constants} from '../Utils/Constants.sol';\r\nimport {StringUtils} from '../Utils/StringUtils.sol';\r\nimport {AddressUtils, AddressPayableUtils} from '../Utils/AddressUtils.sol';\r\nimport {Events} from '../Utils/Events.sol';\r\nimport {AppInfoLibrary} from '../Utils/AppInfoLibrary.sol';\r\n\r\nimport \"@openzeppelin/contracts/access/Ownable.sol\";\r\nimport \"@openzeppelin/contracts/utils/structs/EnumerableMap.sol\";\r\nimport \"@openzeppelin/contracts/utils/Counters.sol\";\r\nimport \"@openzeppelin/contracts/utils/Strings.sol\";\r\nimport \"@openzeppelin/contracts/utils/Address.sol\";\r\n\r\ncontract AppManager is Ownable{\r\n    using StringUtils for string;\r\n    using AddressUtils for address;\r\n    using AddressUtils for address payable;\r\n    \r\n    using Strings for uint;\r\n    // using Address for address payable;\r\n    using EnumerableMap for EnumerableMap.UintToAddressMap;\r\n    using Counters for Counters.Counter;\r\n\r\n    // app_id => app_contract\r\n    EnumerableMap.UintToAddressMap private apps;\r\n\r\n    \r\n    // events\r\n    event AppCreated(\r\n        uint indexed id,\r\n        address payable indexed creator,\r\n        string name,\r\n        string company,\r\n        string category,\r\n        uint price, \r\n        string description\r\n        //maybe more fields\r\n    );\r\n\r\n    event UpdatedApp(\r\n        uint indexed app_id\r\n    );\r\n\r\n    \r\n    \r\n    \r\n    constructor(){\r\n\r\n    }\r\n\r\n    // Modifiers:\r\n    modifier appExists(uint _app_id){\r\n        require(apps.contains(_app_id), 'App not found');\r\n        require(!apps.get(_app_id).isAddressZero(), 'App doens\\'t exists');\r\n        _;\r\n    }\r\n\r\n    modifier validIndex(uint _index, uint _length){\r\n        require(_index >= 0, 'Invalid index');\r\n        require(_length > 0, 'Invalid length');\r\n        require(_index < apps.length(), 'Invalid index');\r\n        _;\r\n    }\r\n\r\n    // Getters:\r\n    function getAppBatch(uint start, uint len) view external validIndex(start, len) returns(AppInfoLibrary.AppInfo[] memory){\r\n        uint apps_length = apps.length();\r\n        uint requested_apps = (len < apps_length? len: apps_length);\r\n        AppInfoLibrary.AppInfo[] memory batch = new AppInfoLibrary.AppInfo[](requested_apps);\r\n\r\n        require (requested_apps <= len && requested_apps <= apps_length, \"minimum failed\");\r\n        for (uint i = 0; i < requested_apps; i++){\r\n            uint app_id = (start + i) % apps_length;\r\n            address app_address = apps.get(app_id);\r\n            // bool owned = User(user_contract).isAppOwned(app_address);\r\n            batch[i] = App(app_address).getAppInfo();\r\n        }\r\n        return batch;\r\n    }\r\n        \r\n    function getAppCount() view external returns(uint){\r\n        return apps.length();\r\n    }\r\n\r\n    // Create and modify apps:\r\n        function createNewApp(\r\n        string memory _name,\r\n        string memory _description,\r\n        string memory _magnetLink,\r\n        string memory _imgUrl,\r\n        string memory _company,\r\n        uint _price,\r\n        string memory _category,\r\n        string memory _fileSha256\r\n    ) public{\r\n        uint apps_num = apps.length();\r\n        App new_app = new App(\r\n            apps_num, \r\n            msg.sender, \r\n            _name, \r\n            _description, \r\n            _magnetLink, \r\n            _imgUrl, \r\n            _company, \r\n            _price, \r\n            _category,\r\n            _fileSha256\r\n        );\r\n        apps.set(apps_num, address(new_app));\r\n        // User(users[msg.sender]).createNewApp(address(new_app));\r\n        emit AppCreated(\r\n            apps_num, \r\n            payable(msg.sender),\r\n            _name,\r\n            _company,\r\n            _category,\r\n            _price,\r\n            _description\r\n        );\r\n    }\r\n\r\n    function updateApp(\r\n        uint _app_id,\r\n        string calldata _name,\r\n        string calldata _description,\r\n        string calldata _magnetLink,\r\n        string calldata _imgUrl,\r\n        uint _price,\r\n        string calldata _fileSha256\r\n    ) external onlyOwner{\r\n\r\n        App app = App(apps.get(_app_id));\r\n\r\n        if (_name.isNotEmpty()){\r\n            app.updateAppName(_name);\r\n        }\r\n\r\n        if (_description.isNotEmpty()){\r\n            app.updateAppDescription(_description);\r\n        }\r\n        if (_magnetLink.isNotEmpty() || _fileSha256.isNotEmpty()){\r\n            // require(_magnetLink.isNotEmpty() && _fileSha256.isNotEmpty(), StringUtils.append(_magnetLink.getVariableMessage(\"magnet link\"), _fileSha256.getVariableMessage(\"file sha256\")));\r\n            require(_magnetLink.isNotEmpty() && _fileSha256.isNotEmpty(), 'Must provide both magnet link and file sha256');\r\n            app.updateAppVersion(_fileSha256, _magnetLink);\r\n        }\r\n        if (_imgUrl.isNotEmpty()){\r\n            app.updateAppImgUrl(_imgUrl);\r\n        }\r\n        if (_price > 0){\r\n            app.updateAppPrice(_price);\r\n        }\r\n    }\r\n\r\n    // App rating:\r\n        function rateApp(uint _app_id, uint new_rating, uint old_rating) external{\r\n        address app_address = apps.get(_app_id);\r\n        App curr_app = App(app_address);\r\n        (uint rating_int, uint rating_modulu, uint num_ratings) = curr_app.rateApp(new_rating, old_rating);\r\n        emit Events.AppRated(_app_id, rating_int, rating_modulu, num_ratings);\r\n    }\r\n    \r\n}",
  "sourcePath": "C:\\Users\\User\\Documents\\GitHub\\Backend\\SmartContracts\\contracts\\Apps\\AppManager.sol",
  "compiler": {
    "name": "solc",
    "version": "0.8.15+commit.e14f2714.Emscripten.clang"
  },
  "schemaVersion": "3.4.8",
  "updatedAt": "2022-07-12T12:46:28.706Z",
  "devdoc": {
    "kind": "dev",
    "methods": {
      "owner()": {
        "details": "Returns the address of the current owner."
      },
      "renounceOwnership()": {
        "details": "Leaves the contract without owner. It will not be possible to call `onlyOwner` functions anymore. Can only be called by the current owner. NOTE: Renouncing ownership will leave the contract without an owner, thereby removing any functionality that is only available to the owner."
      },
      "transferOwnership(address)": {
        "details": "Transfers ownership of the contract to a new account (`newOwner`). Can only be called by the current owner."
      }
    },
    "version": 1
  },
  "userdoc": {
    "kind": "user",
    "methods": {},
    "version": 1
  }
}