{
  "contractName": "dAppstore",
  "abi": [
    {
      "inputs": [],
      "stateMutability": "nonpayable",
      "type": "constructor"
    },
    {
      "inputs": [
        {
          "internalType": "string",
          "name": "_name",
          "type": "string"
        },
        {
          "internalType": "string",
          "name": "_description",
          "type": "string"
        },
        {
          "internalType": "string",
          "name": "_magnetLink",
          "type": "string"
        },
        {
          "internalType": "string",
          "name": "_imgUrl",
          "type": "string"
        },
        {
          "internalType": "string",
          "name": "_company",
          "type": "string"
        },
        {
          "internalType": "uint256",
          "name": "_price",
          "type": "uint256"
        },
        {
          "internalType": "string",
          "name": "_category",
          "type": "string"
        },
        {
          "internalType": "string",
          "name": "_fileSha256",
          "type": "string"
        }
      ],
      "name": "createNewApp",
      "outputs": [],
      "stateMutability": "nonpayable",
      "type": "function"
    },
    {
      "inputs": [
        {
          "internalType": "uint256",
          "name": "app_id",
          "type": "uint256"
        }
      ],
      "name": "purchaseApp",
      "outputs": [],
      "stateMutability": "payable",
      "type": "function"
    },
    {
      "inputs": [],
      "name": "getPurchasedAppsInfo",
      "outputs": [
        {
          "components": [
            {
              "internalType": "uint256",
              "name": "id",
              "type": "uint256"
            },
            {
              "internalType": "string",
              "name": "name",
              "type": "string"
            },
            {
              "internalType": "string",
              "name": "description",
              "type": "string"
            },
            {
              "internalType": "string",
              "name": "imgUrl",
              "type": "string"
            },
            {
              "internalType": "string",
              "name": "company",
              "type": "string"
            },
            {
              "internalType": "uint256",
              "name": "price",
              "type": "uint256"
            },
            {
              "internalType": "uint256",
              "name": "numRatings",
              "type": "uint256"
            },
            {
              "internalType": "uint256",
              "name": "ratingInt",
              "type": "uint256"
            },
            {
              "internalType": "uint256",
              "name": "ratingModulu",
              "type": "uint256"
            },
            {
              "internalType": "uint256",
              "name": "userRating",
              "type": "uint256"
            },
            {
              "internalType": "string",
              "name": "fileSha256",
              "type": "string"
            },
            {
              "internalType": "bool",
              "name": "owned",
              "type": "bool"
            },
            {
              "internalType": "string",
              "name": "magnetLink",
              "type": "string"
            },
            {
              "internalType": "string",
              "name": "category",
              "type": "string"
            },
            {
              "internalType": "uint256",
              "name": "publishTime",
              "type": "uint256"
            }
          ],
          "internalType": "struct AppInfoLibrary.AppInfo[]",
          "name": "",
          "type": "tuple[]"
        }
      ],
      "stateMutability": "view",
      "type": "function"
    },
    {
      "inputs": [],
      "name": "getPublishedAppsInfo",
      "outputs": [
        {
          "components": [
            {
              "internalType": "uint256",
              "name": "id",
              "type": "uint256"
            },
            {
              "internalType": "string",
              "name": "name",
              "type": "string"
            },
            {
              "internalType": "string",
              "name": "description",
              "type": "string"
            },
            {
              "internalType": "string",
              "name": "imgUrl",
              "type": "string"
            },
            {
              "internalType": "string",
              "name": "company",
              "type": "string"
            },
            {
              "internalType": "uint256",
              "name": "price",
              "type": "uint256"
            },
            {
              "internalType": "uint256",
              "name": "numRatings",
              "type": "uint256"
            },
            {
              "internalType": "uint256",
              "name": "ratingInt",
              "type": "uint256"
            },
            {
              "internalType": "uint256",
              "name": "ratingModulu",
              "type": "uint256"
            },
            {
              "internalType": "uint256",
              "name": "userRating",
              "type": "uint256"
            },
            {
              "internalType": "string",
              "name": "fileSha256",
              "type": "string"
            },
            {
              "internalType": "bool",
              "name": "owned",
              "type": "bool"
            },
            {
              "internalType": "string",
              "name": "magnetLink",
              "type": "string"
            },
            {
              "internalType": "string",
              "name": "category",
              "type": "string"
            },
            {
              "internalType": "uint256",
              "name": "publishTime",
              "type": "uint256"
            }
          ],
          "internalType": "struct AppInfoLibrary.AppInfo[]",
          "name": "",
          "type": "tuple[]"
        }
      ],
      "stateMutability": "view",
      "type": "function"
    },
    {
      "inputs": [],
      "name": "getRatedAppsInfo",
      "outputs": [
        {
          "components": [
            {
              "internalType": "uint256",
              "name": "id",
              "type": "uint256"
            },
            {
              "internalType": "string",
              "name": "name",
              "type": "string"
            },
            {
              "internalType": "string",
              "name": "description",
              "type": "string"
            },
            {
              "internalType": "string",
              "name": "imgUrl",
              "type": "string"
            },
            {
              "internalType": "string",
              "name": "company",
              "type": "string"
            },
            {
              "internalType": "uint256",
              "name": "price",
              "type": "uint256"
            },
            {
              "internalType": "uint256",
              "name": "numRatings",
              "type": "uint256"
            },
            {
              "internalType": "uint256",
              "name": "ratingInt",
              "type": "uint256"
            },
            {
              "internalType": "uint256",
              "name": "ratingModulu",
              "type": "uint256"
            },
            {
              "internalType": "uint256",
              "name": "userRating",
              "type": "uint256"
            },
            {
              "internalType": "string",
              "name": "fileSha256",
              "type": "string"
            },
            {
              "internalType": "bool",
              "name": "owned",
              "type": "bool"
            },
            {
              "internalType": "string",
              "name": "magnetLink",
              "type": "string"
            },
            {
              "internalType": "string",
              "name": "category",
              "type": "string"
            },
            {
              "internalType": "uint256",
              "name": "publishTime",
              "type": "uint256"
            }
          ],
          "internalType": "struct AppInfoLibrary.AppInfo[]",
          "name": "",
          "type": "tuple[]"
        }
      ],
      "stateMutability": "view",
      "type": "function"
    },
    {
      "inputs": [],
      "name": "getAppCount",
      "outputs": [
        {
          "internalType": "uint256",
          "name": "",
          "type": "uint256"
        }
      ],
      "stateMutability": "view",
      "type": "function"
    },
    {
      "inputs": [
        {
          "internalType": "uint256",
          "name": "_app_id",
          "type": "uint256"
        }
      ],
      "name": "getUserRatingForApp",
      "outputs": [
        {
          "internalType": "uint256",
          "name": "",
          "type": "uint256"
        }
      ],
      "stateMutability": "view",
      "type": "function"
    },
    {
      "inputs": [
        {
          "internalType": "uint256",
          "name": "_app_id",
          "type": "uint256"
        },
        {
          "internalType": "uint256",
          "name": "new_rating",
          "type": "uint256"
        }
      ],
      "name": "rateApp",
      "outputs": [],
      "stateMutability": "nonpayable",
      "type": "function"
    }
  ],
  "bytecode": "0x608060405234801561001057600080fd5b506100286004640100000000610ee361002d82021704565b610033565b60009055565b614fb3806100426000396000f3fe608060405260043610620000775760e060020a60003504632b07ac4c81146200007c57806333e067a614620000a357806370b8fd9214620000ba5780637fc442db14620000df57806380109fea14620001175780638f89b46a146200012f578063e0b8f2ae1462000156578063e9beca8e146200016e575b600080fd5b3480156200008957600080fd5b50620000a16200009b36600462001236565b62000186565b005b620000a1620000b436600462001370565b62000321565b348015620000c757600080fd5b50620000a1620000d93660046200138a565b62000767565b348015620000ec57600080fd5b5062000104620000fe36600462001370565b6200094a565b6040519081526020015b60405180910390f35b3480156200012457600080fd5b506200010462000b76565b3480156200013c57600080fd5b506200014762000b89565b6040516200010e91906200140e565b3480156200016357600080fd5b506200014762000cbb565b3480156200017b57600080fd5b506200014762000de4565b336000908152600360205260409081902054905160e060020a6386bd3f9102815273__AddressUtils__________________________916386bd3f9191620001db91600160a060020a03169060040162001591565b602060405180830381865af4158015620001f9573d6000803e3d6000fd5b505050506040513d601f19601f820116820180604052508101906200021f9190620015bb565b156200023057620002303362000ee9565b60006200023e600062000f8b565b9050600081338b8b8b8b8b8b8b8b6040516200025a906200111b565b6200026f9a99989796959493929190620015d9565b604051809103906000f0801580156200028c573d6000803e3d6000fd5b5090506200029d6000838362000f98565b50336000908152600360205260409081902054905160e160020a6371fbae8f028152600160a060020a039091169063e3f75d1e90620002e190849060040162001591565b600060405180830381600087803b158015620002fc57600080fd5b505af115801562000311573d6000803e3d6000fd5b5050505050505050505050505050565b806200032f60008262000fb8565b6200035a5760405160e560020a62461bcd0281526004016200035190620016a3565b60405180910390fd5b6200036760008262000fcd565b60405160e060020a6386bd3f9102815273__AddressUtils__________________________916386bd3f9191620003ab91600160a060020a03169060040162001591565b602060405180830381865af4158015620003c9573d6000803e3d6000fd5b505050506040513d601f19601f82011682018060405250810190620003ef9190620015bb565b15620004125760405160e560020a62461bcd0281526004016200035190620016cd565b336000818152600360205260409081902054905160e060020a6386bd3f9102815273__AddressUtils__________________________916386bd3f91916200046791600160a060020a03169060040162001591565b602060405180830381865af415801562000485573d6000803e3d6000fd5b505050506040513d601f19601f82011682018060405250810190620004ab9190620015bb565b15620004bc57620004bc8162000ee9565b6000620004ca818562000fcd565b600160a060020a038084166000908152600360205260409081902054905160e260020a63012935c102815292935016906304a4d704906200051090849060040162001591565b602060405180830381865afa1580156200052e573d6000803e3d6000fd5b505050506040513d601f19601f82011682018060405250810190620005549190620015bb565b156200059f5760405160e560020a62461bcd0281526020600482015260136024820152606860020a7243616e2774206275792061707020747769636502604482015260640162000351565b6000819050600081600160a060020a03166302d05d3f6040518163ffffffff1660e060020a028152600401602060405180830381865afa158015620005e8573d6000803e3d6000fd5b505050506040513d601f19601f820116820180604052508101906200060e9190620016fc565b600160a060020a03163460405160006040518083038185875af1925050503d80600081146200065a576040519150601f19603f3d011682016040523d82523d6000602084013e6200065f565b606091505b5050905080620006af5760405160e560020a62461bcd0281526020600482015260146024820152606160020a732330b4b632b2103a379039b2b7321022ba3432b902604482015260640162000351565b600160a060020a038085166000908152600360205260409081902054905160e060020a6391de1ba30281529116906391de1ba390620006f390869060040162001591565b600060405180830381600087803b1580156200070e57600080fd5b505af115801562000723573d6000803e3d6000fd5b5050604051600160a060020a038087169350871691507fba9cb3f403a15fc11cbc07546f998c36867f843fa32a222ee76a41a9e6af7d0790600090a3505050505050565b33600090815260036020526040812054600160a060020a0316906200078d818562000fcd565b60405160e060020a639f9f7f850281529091508190600090600160a060020a03851690639f9f7f8590620007c690859060040162001591565b602060405180830381865afa158015620007e4573d6000803e3d6000fd5b505050506040513d601f19601f820116820180604052508101906200080a919062001727565b60405160e060020a63983c0a5b028152600160a060020a038581166004830152602482018890529192509085169063983c0a5b90604401600060405180830381600087803b1580156200085c57600080fd5b505af115801562000871573d6000803e3d6000fd5b505060405160e160020a63385c7ec90281526004810188905260248101849052600092508291508190600160a060020a038616906370b8fd92906044016060604051808303816000875af1158015620008ce573d6000803e3d6000fd5b505050506040513d601f19601f82011682018060405250810190620008f4919062001741565b6040805184815260208101849052908101829052929550909350915089907f4686fd5d77ea9a1984201e56edd878f506e82fdb6401d0bf70543d172ef37a739060600160405180910390a2505050505050505050565b60008162000959828262000fb8565b6200097b5760405160e560020a62461bcd0281526004016200035190620016a3565b6200098860008262000fcd565b60405160e060020a6386bd3f9102815273__AddressUtils__________________________916386bd3f9191620009cc91600160a060020a03169060040162001591565b602060405180830381865af4158015620009ea573d6000803e3d6000fd5b505050506040513d601f19601f8201168201806040525081019062000a109190620015bb565b1562000a335760405160e560020a62461bcd0281526004016200035190620016cd565b336000908152600360205260409081902054905160e060020a6386bd3f9102815273__AddressUtils__________________________916386bd3f919162000a8891600160a060020a03169060040162001591565b602060405180830381865af415801562000aa6573d6000803e3d6000fd5b505050506040513d601f19601f8201168201806040525081019062000acc9190620015bb565b1562000adc576000915062000b70565b33600090815260036020526040812054600160a060020a031690639f9f7f859062000b08908662000fcd565b6040518263ffffffff1660e060020a02815260040162000b29919062001591565b602060405180830381865afa15801562000b47573d6000803e3d6000fd5b505050506040513d601f19601f8201168201806040525081019062000b6d919062001727565b91505b50919050565b600062000b84600062000f8b565b905090565b336000908152600360205260409081902054905160e060020a6386bd3f9102815260609173__AddressUtils__________________________916386bd3f919162000be391600160a060020a039091169060040162001591565b602060405180830381865af415801562000c01573d6000803e3d6000fd5b505050506040513d601f19601f8201168201806040525081019062000c279190620015bb565b1562000c335750606090565b3360009081526003602052604080822054815160e060020a63b8c3773f0281529151600160a060020a039091169163b8c3773f91600480830192869291908290030181865afa15801562000c8b573d6000803e3d6000fd5b505050506040513d6000823e601f3d908101601f1916820160405262000cb59190810190620017bc565b92915050565b336000908152600360205260409081902054905160e060020a6386bd3f9102815260609173__AddressUtils__________________________916386bd3f919162000d1591600160a060020a039091169060040162001591565b602060405180830381865af415801562000d33573d6000803e3d6000fd5b505050506040513d601f19601f8201168201806040525081019062000d599190620015bb565b1562000d655750606090565b3360009081526003602052604080822054815160e060020a63139334af0281529151600160a060020a039091169263139334af92600480820193918290030181865afa15801562000dba573d6000803e3d6000fd5b505050506040513d6000823e601f3d908101601f1916820160405262000b849190810190620017bc565b336000908152600360205260409081902054905160e060020a6386bd3f9102815260609173__AddressUtils__________________________916386bd3f919162000e3e91600160a060020a039091169060040162001591565b602060405180830381865af415801562000e5c573d6000803e3d6000fd5b505050506040513d601f19601f8201168201806040525081019062000e829190620015bb565b1562000e8e5750606090565b3360009081526003602052604080822054815160e060020a63253a219f0281529151600160a060020a039091169263253a219f92600480820193918290030181865afa15801562000dba573d6000803e3d6000fd5b60009055565b62000ef8600480546001019055565b8060405162000f079062001129565b62000f13919062001591565b604051809103906000f08015801562000f30573d6000803e3d6000fd5b50600160a060020a038281166000818152600360205260408082208054600160a060020a03191695909416948517909355915190917f263d398af3bd0e797da25e9dc29a23286e999826d13a16fca996d1ddd1eb528191a350565b600062000cb58262000fdb565b600062000fb08484600160a060020a03851662000fe8565b949350505050565b600062000fc6838362001007565b9392505050565b600062000fc6838362001015565b600062000cb5826200108d565b6000828152600284016020526040812082905562000fb0848462001098565b600062000fc68383620010a6565b6000818152600283016020526040812054801515806200103c57506200103c848462001007565b62000fc65760405160e560020a62461bcd02815260206004820152601e60248201527f456e756d657261626c654d61703a206e6f6e6578697374656e74206b65790000604482015260640162000351565b600062000cb5825490565b600062000fc68383620010b4565b600062000fc6838362001103565b6000620010c2838362001103565b620010fa5750815460018181018455600084815260208082209093018490558454848252828601909352604090209190915562000cb5565b50600062000cb5565b60009081526001919091016020526040902054151590565b6125a98062001a2583390190565b610fb08062003fce83390190565b60e060020a634e487b710260009081526041600452602490fd5b6040516101e081016001604060020a038111828210171562001177576200117762001137565b60405290565b604051601f8201601f191681016001604060020a0381118282101715620011a857620011a862001137565b604052919050565b60006001604060020a03821115620011cc57620011cc62001137565b50601f01601f191660200190565b600082601f830112620011ec57600080fd5b813562001203620011fd82620011b0565b6200117d565b8181528460208386010111156200121957600080fd5b816020850160208301376000918101602001919091529392505050565b600080600080600080600080610100898b0312156200125457600080fd5b88356001604060020a03808211156200126c57600080fd5b6200127a8c838d01620011da565b995060208b01359150808211156200129157600080fd5b6200129f8c838d01620011da565b985060408b0135915080821115620012b657600080fd5b620012c48c838d01620011da565b975060608b0135915080821115620012db57600080fd5b620012e98c838d01620011da565b965060808b01359150808211156200130057600080fd5b6200130e8c838d01620011da565b955060a08b0135945060c08b01359150808211156200132c57600080fd5b6200133a8c838d01620011da565b935060e08b01359150808211156200135157600080fd5b50620013608b828c01620011da565b9150509295985092959890939650565b6000602082840312156200138357600080fd5b5035919050565b600080604083850312156200139e57600080fd5b50508035926020909101359150565b60005b83811015620013ca578181015183820152602001620013b0565b83811115620013da576000848401525b50505050565b60008151808452620013fa816020860160208601620013ad565b601f01601f19169290920160200192915050565b60208082528251828201819052600091906040908185019080840286018301878501865b838110156200158357603f1989840301855281516101e08151855288820151818a8701526200146482870182620013e0565b91505087820151858203898701526200147e8282620013e0565b915050606080830151868303828801526200149a8382620013e0565b9250505060808083015186830382880152620014b78382620013e0565b60a0858101519089015260c0808601519089015260e080860151908901526101008086015190890152610120808601519089015261014080860151898303828b0152919450925090506200150c8382620013e0565b9250505061016080830151620015258288018215159052565b50506101808083015186830382880152620015418382620013e0565b925050506101a080830151868303828801526200155f8382620013e0565b6101c094850151979094019690965250509487019492509086019060010162001432565b509098975050505050505050565b600160a060020a0391909116815260200190565b80518015158114620015b657600080fd5b919050565b600060208284031215620015ce57600080fd5b62000fc682620015a5565b8a8152600160a060020a038a16602082015261014060408201819052600090620016068382018c620013e0565b905082810360608401526200161c818b620013e0565b9050828103608084015262001632818a620013e0565b905082810360a0840152620016488189620013e0565b905082810360c08401526200165e8188620013e0565b90508560e08401528281036101008401526200167b8186620013e0565b9050828103610120840152620016928185620013e0565b9d9c50505050505050505050505050565b6020808252600d90820152609a60020a6c105c1c081b9bdd08199bdd5b9902604082015260600190565b6020808252601290820152607060020a7141707020646f656e7327742065786973747302604082015260600190565b6000602082840312156200170f57600080fd5b8151600160a060020a038116811462000fc657600080fd5b6000602082840312156200173a57600080fd5b5051919050565b6000806000606084860312156200175757600080fd5b8351925060208401519150604084015190509250925092565b600082601f8301126200178257600080fd5b815162001793620011fd82620011b0565b818152846020838601011115620017a957600080fd5b62000fb0826020830160208701620013ad565b60006020808385031215620017d057600080fd5b82516001604060020a0380821115620017e857600080fd5b818501915085601f830112620017fd57600080fd5b81518181111562001812576200181262001137565b838102620018228582016200117d565b91825283810185019185810190898411156200183d57600080fd5b86860192505b8383101562001a17578251858111156200185c57600080fd5b86016101e0818c03601f190112156200187457600080fd5b6200187e62001151565b8882015181526040820151878111156200189757600080fd5b620018a78d8b8386010162001770565b8a83015250606082015187811115620018bf57600080fd5b620018cf8d8b8386010162001770565b604083015250608082015187811115620018e857600080fd5b620018f88d8b8386010162001770565b60608301525060a0820151878111156200191157600080fd5b620019218d8b8386010162001770565b60808301525060c082015160a082015260e082015160c08201526101008083015160e08301526101208084015182840152610140915081840151818401525061016080840151898111156200197557600080fd5b620019858f8d8388010162001770565b838501525061018091506200199c828501620015a5565b908301526101a08381015189811115620019b557600080fd5b620019c58f8d8388010162001770565b83850152506101c091508184015189811115620019e157600080fd5b620019f18f8d8388010162001770565b8285015250506101e0830151818301525080845250508682019150868301925062001843565b999850505050505050505056fe60806040523480156200001157600080fd5b50604051620025a9380380620025a9833981016040819052620000349162000776565b6200005a6200004b6401000000006200060c810204565b64010000000062000610810204565b896200006a565b60405180910390fd5b8360008111620000d7576040517f08c379a000000000000000000000000000000000000000000000000000000000815260206004820152601c60248201527f5072696365206d7573742062652067726561746572207468616e203000000000604482015260640162000061565b6040517f27341c8a0000000000000000000000000000000000000000000000000000000081528a9073__StringUtils___________________________906327341c8a906200012b908490600401620008ce565b602060405180830381865af415801562000149573d6000803e3d6000fd5b505050506040513d601f19601f820116820180604052508101906200016f919062000903565b15620001a9576040517f08c379a000000000000000000000000000000000000000000000000000000000815260040162000061906200092e565b6040517f27341c8a000000000000000000000000000000000000000000000000000000008152899073__StringUtils___________________________906327341c8a90620001fd908490600401620008ce565b602060405180830381865af41580156200021b573d6000803e3d6000fd5b505050506040513d601f19601f8201168201806040525081019062000241919062000903565b156200027b576040517f08c379a000000000000000000000000000000000000000000000000000000000815260040162000061906200092e565b6040517f27341c8a000000000000000000000000000000000000000000000000000000008152869073__StringUtils___________________________906327341c8a90620002cf908490600401620008ce565b602060405180830381865af4158015620002ed573d6000803e3d6000fd5b505050506040513d601f19601f8201168201806040525081019062000313919062000903565b156200034d576040517f08c379a000000000000000000000000000000000000000000000000000000000815260040162000061906200092e565b6040517f27341c8a000000000000000000000000000000000000000000000000000000008152869073__StringUtils___________________________906327341c8a90620003a1908490600401620008ce565b602060405180830381865af4158015620003bf573d6000803e3d6000fd5b505050506040513d601f19601f82011682018060405250810190620003e5919062000903565b156200041f576040517f08c379a000000000000000000000000000000000000000000000000000000000815260040162000061906200092e565b8e600260006101000a815481600160a060020a030219169083600160a060020a031602179055508f6001819055508d600390816200045e919062000a0d565b5060046200046d8e8262000a0d565b5060066200047c8d8262000a0d565b5060076200048b8c8262000a0d565b506040517f27341c8a00000000000000000000000000000000000000000000000000000000815273__StringUtils___________________________906327341c8a90620004de908e90600401620008ce565b602060405180830381865af4158015620004fc573d6000803e3d6000fd5b505050506040513d601f19601f8201168201806040525081019062000522919062000903565b1562000553576040518060c0016040528060958152602001620025146095913960079062000551908262000a0d565b505b6008620005618b8262000a0d565b5060006009819055600a819055600b8a90556005805460018101825591527f036b6384b5eca791c62761152d0c79bb0604c104a5fb6f4eb0703f3154bb3db001620005ad888262000a0d565b50620005c8600e640100000000620011c36200066082021704565b620005e2600f640100000000620011c36200066082021704565b600c620005f0898262000a0d565b505042600d555062000adf9d5050505050505050505050505050565b3390565b60008054600160a060020a03838116600160a060020a0319831681178455604051919092169283917f8be0079c531659141344cd1fd0a4f28419497f9722a3daafe3b4186f6b6457e09190a35050565b60009055565b8051600160a060020a03811681146200067e57600080fd5b919050565b7f4e487b7100000000000000000000000000000000000000000000000000000000600052604160045260246000fd5b60005b83811015620006cf578181015183820152602001620006b5565b83811115620006df576000848401525b50505050565b600082601f830112620006f757600080fd5b81516001604060020a038082111562000714576200071462000683565b604051601f8301601f19908116603f011681019082821181831017156200073f576200073f62000683565b816040528381528660208588010111156200075957600080fd5b6200076c846020830160208901620006b2565b9695505050505050565b6000806000806000806000806000806101408b8d0312156200079757600080fd5b8a519950620007a960208c0162000666565b985060408b01516001604060020a0380821115620007c657600080fd5b620007d48e838f01620006e5565b995060608d0151915080821115620007eb57600080fd5b620007f98e838f01620006e5565b985060808d01519150808211156200081057600080fd5b6200081e8e838f01620006e5565b975060a08d01519150808211156200083557600080fd5b620008438e838f01620006e5565b965060c08d01519150808211156200085a57600080fd5b620008688e838f01620006e5565b955060e08d015194506101008d01519150808211156200088757600080fd5b620008958e838f01620006e5565b93506101208d0151915080821115620008ad57600080fd5b50620008bc8d828e01620006e5565b9150509295989b9194979a5092959850565b6020815260008251806020840152620008ef816040850160208701620006b2565b601f01601f19169190910160400192915050565b6000602082840312156200091657600080fd5b815180151581146200092757600080fd5b9392505050565b60208082526018908201527f537472696e67206d757374206e6f7420626520656d7074790000000000000000604082015260600190565b6002810460018216806200097a57607f821691505b602082108103620009b4577f4e487b7100000000000000000000000000000000000000000000000000000000600052602260045260246000fd5b50919050565b601f82111562000a08576000818152602081206020601f86010481016020861015620009e35750805b6020601f860104820191505b8181101562000a0457828155600101620009ef565b5050505b505050565b81516001604060020a0381111562000a295762000a2962000683565b62000a418162000a3a845462000965565b84620009ba565b602080601f83116001811462000a7d576000841562000a605750858301515b60028086026008870290910a600019041982161786555062000a04565b600085815260208120601f198616915b8281101562000aae5788860151825594840194600190910190840162000a8d565b508582101562000acf57878501516008601f88160260020a60001904191681555b5050505050600202600101905550565b611a258062000aef6000396000f3fe608060405234801561001057600080fd5b50600436106101205760e060020a600035046302d05d3f811461012557806306fdde031461015557806334b1a7cc1461016a5780634ad3d57d146101825780636904c94d1461019757806370b8fd921461019f578063715018a6146101cd5780637284e416146101d557806373b8fc80146101dd5780637ef948ba146101fa57806381ecdf451461020d5780638da5cb5b14610220578063a035b1fe14610228578063a512bd7914610231578063af640d0f14610239578063d23fe7c714610242578063d68387c71461024c578063e26799ff14610254578063e9cd36d314610269578063f22b01271461027c578063f2fde38b1461028f578063fabec44a146102a2578063fafb1b01146102aa575b600080fd5b60025461013890600160a060020a031681565b604051600160a060020a0390911681526020015b60405180910390f35b61015d6102bd565b60405161014c9190611340565b600f546101749081565b60405190815260200161014c565b6101956101903660046113a2565b61034b565b005b61015d610438565b6101b26101ad3660046113e3565b610445565b6040805193845260208401929092529082015260600161014c565b61019561050a565b61015d61051e565b6101e561052b565b6040805192835260208301919091520161014c565b61019561020836600461141f565b61054d565b61019561021b3660046113a2565b61070d565b6101386107eb565b610174600b5481565b61015d6107fa565b61017460015481565b600e546101749081565b61015d610807565b61025c610814565b60405161014c91906114f9565b610195610277366004611643565b610b67565b61025c61028a36600461166a565b610bc1565b61019561029d366004611696565b610faa565b61015d611029565b6101956102b83660046113a2565b6110e5565b600380546102ca906116bf565b80601f01602080910402602001604051908101604052809291908181526020018280546102f6906116bf565b80156103435780601f1061031857610100808354040283529160200191610343565b820191906000526020600020905b81548152906001019060200180831161032657829003601f168201915b505050505081565b81818080601f0160208091040260200160405190810160405280939291908181526020018383808284376000920191909152505060405160e160020a63139a0e4502815273__StringUtils___________________________92506327341c8a91506103bb908490600401611340565b602060405180830381865af41580156103d8573d6000803e3d6000fd5b505050506040513d601f19601f820116820180604052508101906103fc91906116fd565b156104255760405160e560020a62461bcd02815260040161041c9061171a565b60405180910390fd5b60076104328385836117b3565b50505050565b600880546102ca906116bf565b60008060006104526111c9565b83600581111561046157600080fd5b85600581111561047057600080fd5b6000600a5461047e600e5490565b60095461048b919061188a565b61049591906118a9565b9050866000036104ad576104ad600e80546001019055565b6104b788826118a9565b90506104c387826118c1565b90506104ce600e5490565b6104d890826118f2565b600955600e546104e89082611906565b600a819055600954906104fa600e5490565b9550955095505050509250925092565b6105126111c9565b61051c600061122b565b565b600480546102ca906116bf565b6000806000600954116105415750600091829150565b5050600954600a549091565b60405160e160020a63139a0e45028152839073__StringUtils___________________________906327341c8a90610589908490600401611340565b602060405180830381865af41580156105a6573d6000803e3d6000fd5b505050506040513d601f19601f820116820180604052508101906105ca91906116fd565b156105ea5760405160e560020a62461bcd02815260040161041c9061171a565b82828080601f0160208091040260200160405190810160405280939291908181526020018383808284376000920191909152505060405160e160020a63139a0e4502815273__StringUtils___________________________92506327341c8a915061065a908490600401611340565b602060405180830381865af4158015610677573d6000803e3d6000fd5b505050506040513d601f19601f8201168201806040525081019061069b91906116fd565b156106bb5760405160e560020a62461bcd02815260040161041c9061171a565b60066106c88486836117b3565b50600580546001810182556000919091527f036b6384b5eca791c62761152d0c79bb0604c104a5fb6f4eb0703f3154bb3db001610705868261191a565b505050505050565b81818080601f0160208091040260200160405190810160405280939291908181526020018383808284376000920191909152505060405160e160020a63139a0e4502815273__StringUtils___________________________92506327341c8a915061077d908490600401611340565b602060405180830381865af415801561079a573d6000803e3d6000fd5b505050506040513d601f19601f820116820180604052508101906107be91906116fd565b156107de5760405160e560020a62461bcd02815260040161041c9061171a565b60036104328385836117b3565b600054600160a060020a031690565b600680546102ca906116bf565b600780546102ca906116bf565b61081c61127b565b6000604051806101e0016040528060015481526020016003805461083f906116bf565b80601f016020809104026020016040519081016040528092919081815260200182805461086b906116bf565b80156108b85780601f1061088d576101008083540402835291602001916108b8565b820191906000526020600020905b81548152906001019060200180831161089b57829003601f168201915b50505050508152602001600480546108cf906116bf565b80601f01602080910402602001604051908101604052809291908181526020018280546108fb906116bf565b80156109485780601f1061091d57610100808354040283529160200191610948565b820191906000526020600020905b81548152906001019060200180831161092b57829003601f168201915b505050505081526020016007805461095f906116bf565b80601f016020809104026020016040519081016040528092919081815260200182805461098b906116bf565b80156109d85780601f106109ad576101008083540402835291602001916109d8565b820191906000526020600020905b8154815290600101906020018083116109bb57829003601f168201915b50505050508152602001600880546109ef906116bf565b80601f0160208091040260200160405190810160405280929190818152602001828054610a1b906116bf565b8015610a685780601f10610a3d57610100808354040283529160200191610a68565b820191906000526020600020905b815481529060010190602001808311610a4b57829003601f168201915b50505050508152602001600b548152602001610a83600e5490565b81526020016009548152602001600a54815260200160008152602001610aa7611029565b8152602001600015158152602001604051806020016040528060008152508152602001600c8054610ad7906116bf565b80601f0160208091040260200160405190810160405280929190818152602001828054610b03906116bf565b8015610b505780601f10610b2557610100808354040283529160200191610b50565b820191906000526020600020905b815481529060010190602001808311610b3357829003601f168201915b5050509183525050600d5460209091015292915050565b8060008111610bbb5760405160e560020a62461bcd02815260206004820152601c60248201527f5072696365206d7573742062652067726561746572207468616e203000000000604482015260640161041c565b50600b55565b610bc961127b565b6000604051806101e00160405280600154815260200160038054610bec906116bf565b80601f0160208091040260200160405190810160405280929190818152602001828054610c18906116bf565b8015610c655780601f10610c3a57610100808354040283529160200191610c65565b820191906000526020600020905b815481529060010190602001808311610c4857829003601f168201915b5050505050815260200160048054610c7c906116bf565b80601f0160208091040260200160405190810160405280929190818152602001828054610ca8906116bf565b8015610cf55780601f10610cca57610100808354040283529160200191610cf5565b820191906000526020600020905b815481529060010190602001808311610cd857829003601f168201915b5050505050815260200160078054610d0c906116bf565b80601f0160208091040260200160405190810160405280929190818152602001828054610d38906116bf565b8015610d855780601f10610d5a57610100808354040283529160200191610d85565b820191906000526020600020905b815481529060010190602001808311610d6857829003601f168201915b5050505050815260200160088054610d9c906116bf565b80601f0160208091040260200160405190810160405280929190818152602001828054610dc8906116bf565b8015610e155780601f10610dea57610100808354040283529160200191610e15565b820191906000526020600020905b815481529060010190602001808311610df857829003601f168201915b50505050508152602001600b548152602001610e30600e5490565b81526020016009548152602001600a548152602001848152602001610e53611029565b8152602001851515815260200185610e7a5760405180602001604052806000815250610f06565b60068054610e87906116bf565b80601f0160208091040260200160405190810160405280929190818152602001828054610eb3906116bf565b8015610f005780601f10610ed557610100808354040283529160200191610f00565b820191906000526020600020905b815481529060010190602001808311610ee357829003601f168201915b50505050505b8152602001600c8054610f18906116bf565b80601f0160208091040260200160405190810160405280929190818152602001828054610f44906116bf565b8015610f915780601f10610f6657610100808354040283529160200191610f91565b820191906000526020600020905b815481529060010190602001808311610f7457829003601f168201915b5050509183525050600d54602090910152949350505050565b610fb26111c9565b600160a060020a03811661101d5760405160e560020a62461bcd02815260206004820152602660248201527f4f776e61626c653a206e6577206f776e657220697320746865207a65726f2061604482015260d060020a6564647265737302606482015260840161041c565b6110268161122b565b50565b600580546060919061103d906001906118c1565b8154811061104d5761104d6119d5565b906000526020600020018054611062906116bf565b80601f016020809104026020016040519081016040528092919081815260200182805461108e906116bf565b80156110db5780601f106110b0576101008083540402835291602001916110db565b820191906000526020600020905b8154815290600101906020018083116110be57829003601f168201915b5050505050905090565b81818080601f0160208091040260200160405190810160405280939291908181526020018383808284376000920191909152505060405160e160020a63139a0e4502815273__StringUtils___________________________92506327341c8a9150611155908490600401611340565b602060405180830381865af4158015611172573d6000803e3d6000fd5b505050506040513d601f19601f8201168201806040525081019061119691906116fd565b156111b65760405160e560020a62461bcd02815260040161041c9061171a565b60046104328385836117b3565b60009055565b336111d26107eb565b600160a060020a03161461051c5760405160e560020a62461bcd02815260206004820181905260248201527f4f776e61626c653a2063616c6c6572206973206e6f7420746865206f776e6572604482015260640161041c565b60008054600160a060020a03838116600160a060020a0319831681178455604051919092169283917f8be0079c531659141344cd1fd0a4f28419497f9722a3daafe3b4186f6b6457e09190a35050565b604051806101e0016040528060008152602001606081526020016060815260200160608152602001606081526020016000815260200160008152602001600081526020016000815260200160008152602001606081526020016000151581526020016060815260200160608152602001600081525090565b6000815180845260005b81811015611319576020818501810151868301820152016112fd565b8181111561132b576000602083870101525b50601f01601f19169290920160200192915050565b60208152600061135360208301846112f3565b9392505050565b60008083601f84011261136c57600080fd5b5081356001604060020a0381111561138357600080fd5b60208301915083602082850101111561139b57600080fd5b9250929050565b600080602083850312156113b557600080fd5b82356001604060020a038111156113cb57600080fd5b6113d78582860161135a565b90969095509350505050565b600080604083850312156113f657600080fd5b50508035926020909101359150565b60e060020a634e487b710260009081526041600452602490fd5b60008060006040848603121561143457600080fd5b83356001604060020a038082111561144b57600080fd5b818601915086601f83011261145f57600080fd5b81358181111561147157611471611405565b604051601f8201601f19908116603f0116810190838211818310171561149957611499611405565b816040528281528960208487010111156114b257600080fd5b8260208601602083013760006020848301015280975050505060208601359150808211156114df57600080fd5b506114ec8682870161135a565b9497909650939450505050565b6020815281516020820152600060208301516101e08060408501526115226102008501836112f3565b91506040850151601f198086850301606087015261154084836112f3565b9350606087015191508086850301608087015261155d84836112f3565b935060808701519150808685030160a087015261157a84836112f3565b935060a087015160c087015260c087015160e087015260e087015191506101008281880152808801519250506101208281880152808801519250506101408281880152808801519250506101608187860301818801526115da85846112f3565b9450808801519250506101806115f38188018415159052565b808801519250506101a081878603018188015261161085846112f3565b9450808801519250506101c081878603018188015261162f85846112f3565b970151959092019490945250929392505050565b60006020828403121561165557600080fd5b5035919050565b801515811461102657600080fd5b6000806040838503121561167d57600080fd5b82356116888161165c565b946020939093013593505050565b6000602082840312156116a857600080fd5b8135600160a060020a038116811461135357600080fd5b6002810460018216806116d357607f821691505b6020821081036116f75760e060020a634e487b710260009081526022600452602490fd5b50919050565b60006020828403121561170f57600080fd5b81516113538161165c565b60208082526018908201527f537472696e67206d757374206e6f7420626520656d7074790000000000000000604082015260600190565b601f821115611797576000818152602081206020601f860104810160208610156117785750805b6020601f860104820191505b8181101561070557828155600101611784565b505050565b6002808302600893909302900a6000190419161790565b6001604060020a038311156117ca576117ca611405565b6117de836117d883546116bf565b83611751565b6000601f84116001811461180c57600085156117fa5750838201355b611804868261179c565b845550611869565b600083815260209020601f19861690835b8281101561183d578685013582556020948501946001909201910161181d565b508682101561185d57858401356008601f89160260020a60001904191681555b50506001600286020183555b5050505050565b60e060020a634e487b710260009081526011600452602490fd5b60008160001904831182151516156118a4576118a4611870565b500290565b600082198211156118bc576118bc611870565b500190565b6000828210156118d3576118d3611870565b500390565b60e060020a634e487b710260009081526012600452602490fd5b600082611901576119016118d8565b500490565b600082611915576119156118d8565b500690565b81516001604060020a0381111561193357611933611405565b6119478161194184546116bf565b84611751565b602080601f83116001811461197657600084156119645750858301515b61196e858261179c565b865550610705565b600085815260208120601f198616915b828110156119a557888601518255948401946001909101908401611986565b50858210156119c557878501516008601f88160260020a60001904191681555b5050505050600202600101905550565b60e060020a634e487b710260009081526032600452602490fdfea26469706673582212209bb99575a0b0b7c26c8d4578fe50483aeeffc8bdebadf9da47a375469e86f1b564736f6c634300080f003368747470733a2f2f65787465726e616c2d636f6e74656e742e6475636b6475636b676f2e636f6d2f69752f3f753d6874747073253341253246253246692e70696e696d672e636f6d2532466f726967696e616c7325324632302532463065253246663825324632303065663832623331383266663735626630623264653534393665363163662e6a706726663d31266e6f66623d31608060405234801561001057600080fd5b50604051610fb0380380610fb083398101604081905261002f916100e3565b610051610043640100000000610089810204565b64010000000061008d810204565b60018054600160a860020a031916600160a060020a038316179055610083600764010000000061082c6100dd82021704565b50610113565b3390565b60008054600160a060020a03838116600160a060020a0319831681178455604051919092169283917f8be0079c531659141344cd1fd0a4f28419497f9722a3daafe3b4186f6b6457e09190a35050565b60009055565b6000602082840312156100f557600080fd5b8151600160a060020a038116811461010c57600080fd5b9392505050565b610e8e806101226000396000f3fe608060405234801561001057600080fd5b506004361061009c5760e060020a600035046304a4d70481146100a1578063139334af146100c9578063253a219f146100de578063715018a6146100e65780638da5cb5b146100f057806391de1ba314610110578063983c0a5b146101235780639f9f7f8514610136578063b8c3773f14610157578063e3f75d1e1461015f578063f2fde38b14610172575b600080fd5b6100b46100af366004610973565b610185565b60405190151581526020015b60405180910390f35b6100d16101b2565b6040516100c091906109f1565b6100d1610350565b6100ee6104b2565b005b6100f86104c6565b604051600160a060020a0390911681526020016100c0565b6100ee61011e366004610973565b6104d5565b6100ee610131366004610b63565b610544565b610149610144366004610973565b6105b0565b6040519081526020016100c0565b6100d16105d6565b6100ee61016d366004610973565b610738565b6100ee610180366004610973565b6107ab565b600061018f610832565b50600160a060020a03811660009081526004602052604090205460ff165b919050565b60606101bc610832565b60006101c760075490565b90506000816001604060020a038111156101e3576101e3610b8d565b60405190808252806020026020018201604052801561021c57816020015b6102096108e4565b8152602001906001900390816102015790505b50905060005b828110156103495760006002828154811061023f5761023f610ba7565b6000918252602080832090910154600160a060020a031680835260059091526040909120549091508190156103345780600160a060020a031663f22b012760016102af6002878154811061029557610295610ba7565b600091825260209091200154600160a060020a03166105b0565b60405160e060020a63ffffffff851602815291151560048301526024820152604401600060405180830381865afa1580156102ee573d6000803e3d6000fd5b505050506040513d6000823e601f3d908101601f191682016040526103169190810190610c81565b84848151811061032857610328610ba7565b60200260200101819052505b5050808061034190610e2d565b915050610222565b5091505090565b606061035a610832565b6003546000816001604060020a0381111561037757610377610b8d565b6040519080825280602002602001820160405280156103b057816020015b61039d6108e4565b8152602001906001900390816103955790505b50905060005b82811015610349576000600382815481106103d3576103d3610ba7565b9060005260206000200160009054906101000a9004600160a060020a0316905080600160a060020a031663f22b0127600161041a6003868154811061029557610295610ba7565b60405160e060020a63ffffffff851602815291151560048301526024820152604401600060405180830381865afa158015610459573d6000803e3d6000fd5b505050506040513d6000823e601f3d908101601f191682016040526104819190810190610c81565b83838151811061049357610493610ba7565b60200260200101819052505080806104aa90610e2d565b9150506103b6565b6104ba610832565b6104c46000610894565b565b600054600160a060020a031690565b6104dd610832565b6002805460018181019092557f405787fa12a823e0f2b7631cc41b3ba8828b3321ca811111fa75cd3aa3bb5ace018054600160a060020a03909316600160a060020a031990931683179055600091825260046020526040909120805460ff19169091179055565b61054c610832565b6001811015801561055e575060058111155b61056757600080fd5b600160a060020a038216600090815260056020526040812054900361059457610594600780546001019055565b600160a060020a03909116600090815260056020526040902055565b60006105ba610832565b50600160a060020a031660009081526005602052604090205490565b60606105e0610832565b6002546000816001604060020a038111156105fd576105fd610b8d565b60405190808252806020026020018201604052801561063657816020015b6106236108e4565b81526020019060019003908161061b5790505b50905060005b828110156103495760006002828154811061065957610659610ba7565b9060005260206000200160009054906101000a9004600160a060020a0316905080600160a060020a031663f22b012760016106a06002868154811061029557610295610ba7565b60405160e060020a63ffffffff851602815291151560048301526024820152604401600060405180830381865afa1580156106df573d6000803e3d6000fd5b505050506040513d6000823e601f3d908101601f191682016040526107079190810190610c81565b83838151811061071957610719610ba7565b602002602001018190525050808061073090610e2d565b91505061063c565b610740610832565b6001805460a060020a60ff02191660a060020a1781556003805491820181556000527fc2575a0e9e593c00f959f8c92f12db2869c3395a3b0502d05e2516446f71f85b018054600160a060020a038316600160a060020a03199091161790556107a8816104d5565b50565b6107b3610832565b600160a060020a0381166108235760405160e560020a62461bcd02815260206004820152602660248201527f4f776e61626c653a206e6577206f776e657220697320746865207a65726f2061604482015260d060020a656464726573730260648201526084015b60405180910390fd5b6107a881610894565b60009055565b3361083b6104c6565b600160a060020a0316146104c45760405160e560020a62461bcd02815260206004820181905260248201527f4f776e61626c653a2063616c6c6572206973206e6f7420746865206f776e6572604482015260640161081a565b60008054600160a060020a03838116600160a060020a0319831681178455604051919092169283917f8be0079c531659141344cd1fd0a4f28419497f9722a3daafe3b4186f6b6457e09190a35050565b604051806101e0016040528060008152602001606081526020016060815260200160608152602001606081526020016000815260200160008152602001600081526020016000815260200160008152602001606081526020016000151581526020016060815260200160608152602001600081525090565b8035600160a060020a03811681146101ad57600080fd5b60006020828403121561098557600080fd5b61098e8261095c565b9392505050565b60005b838110156109b0578181015183820152602001610998565b838111156109bf576000848401525b50505050565b600081518084526109dd816020860160208601610995565b601f01601f19169290920160200192915050565b60208082528251828201819052600091906040908185019080840286018301878501865b83811015610b5557603f1989840301855281516101e08151855288820151818a870152610a44828701826109c5565b9150508782015185820389870152610a5c82826109c5565b91505060608083015186830382880152610a7683826109c5565b9250505060808083015186830382880152610a9183826109c5565b60a0858101519089015260c0808601519089015260e080860151908901526101008086015190890152610120808601519089015261014080860151898303828b015291945092509050610ae483826109c5565b9250505061016080830151610afc8288018215159052565b50506101808083015186830382880152610b1683826109c5565b925050506101a08083015186830382880152610b3283826109c5565b6101c0948501519790940196909652505094870194925090860190600101610a15565b509098975050505050505050565b60008060408385031215610b7657600080fd5b610b7f8361095c565b946020939093013593505050565b60e060020a634e487b710260009081526041600452602490fd5b60e060020a634e487b710260009081526032600452602490fd5b6040516101e081016001604060020a0381118282101715610be457610be4610b8d565b60405290565b600082601f830112610bfb57600080fd5b81516001604060020a0380821115610c1557610c15610b8d565b604051601f8301601f19908116603f01168101908282118183101715610c3d57610c3d610b8d565b81604052838152866020858801011115610c5657600080fd5b610c67846020830160208901610995565b9695505050505050565b805180151581146101ad57600080fd5b600060208284031215610c9357600080fd5b81516001604060020a0380821115610caa57600080fd5b908301906101e08286031215610cbf57600080fd5b610cc7610bc1565b82518152602083015182811115610cdd57600080fd5b610ce987828601610bea565b602083015250604083015182811115610d0157600080fd5b610d0d87828601610bea565b604083015250606083015182811115610d2557600080fd5b610d3187828601610bea565b606083015250608083015182811115610d4957600080fd5b610d5587828601610bea565b60808301525060a083015160a082015260c083015160c082015260e083015160e08201526101008084015181830152506101208084015181830152506101408084015183811115610da557600080fd5b610db188828701610bea565b828401525050610160610dc5818501610c71565b908201526101808381015183811115610ddd57600080fd5b610de988828701610bea565b8284015250506101a08084015183811115610e0357600080fd5b610e0f88828701610bea565b91830191909152506101c09283015192810192909252509392505050565b600060018201610e515760e060020a634e487b710260009081526011600452602490fd5b506001019056fea264697066735822122047bcd5adb4b5362d6dcf4c262fb8d068d5ce8896b3d7ed7830ead0a08c25467364736f6c634300080f0033a2646970667358221220991f0db71bb343f284519af71d71e886e6febe98bff2a9a40d76ff750e2882e964736f6c634300080f0033",
  "immutableReferences": {},
  "source": "//SPDX-License-Identifier: UNLICENSED\r\npragma solidity ^0.8.15;\r\nimport {User} from '../Users/User.sol';\r\nimport {App} from '../Apps/App.sol';\r\nimport {Constants} from '../Utils/Constants.sol';\r\nimport {StringUtils} from '../Utils/StringUtils.sol';\r\nimport {AddressUtils, AddressPayableUtils} from '../Utils/AddressUtils.sol';\r\nimport {Events} from '../Utils/Events.sol';\r\nimport {AppInfoLibrary} from '../Utils/AppInfoLibrary.sol';\r\nimport {UserManager} from '../Users/UserManager.sol';\r\nimport {AppManager} from '../Apps/AppManager.sol';\r\n\r\nimport \"@openzeppelin/contracts/utils/structs/EnumerableMap.sol\";\r\nimport \"@openzeppelin/contracts/utils/Counters.sol\";\r\nimport \"@openzeppelin/contracts/utils/Strings.sol\";\r\nimport \"@openzeppelin/contracts/utils/Address.sol\";\r\n\r\ncontract dAppstore {\r\n    using StringUtils for string;\r\n    using AddressUtils for address;\r\n    using AddressUtils for address payable;\r\n    \r\n    using Strings for uint;\r\n    // using Address for address payable;\r\n    using EnumerableMap for EnumerableMap.UintToAddressMap;\r\n    using Counters for Counters.Counter;\r\n\r\n    // app_id => app_contract\r\n    EnumerableMap.UintToAddressMap private apps;\r\n    // user_address => user_contract\r\n    mapping(address => address) users;\r\n    Counters.Counter users_num;\r\n\r\n    constructor() {\r\n        users_num.reset();\r\n    }\r\n\r\n    //Validators\r\n    modifier userExists(address _user_address){\r\n        require(!_user_address.isAddressZero(), \"Invalid addr\");\r\n        require(!users[_user_address].isAddressZero(), 'User not found');\r\n        _;\r\n    }\r\n\r\n    modifier userDoesNotExists(address _user_address){\r\n        require(!_user_address.isAddressZero(), \"Invalid addr\");\r\n        require(users[_user_address].isAddressZero(), 'User not found');\r\n        _;\r\n    }\r\n\r\n    modifier appExists(uint _app_id){\r\n        require(apps.contains(_app_id), 'App not found');\r\n        require(!apps.get(_app_id).isAddressZero(), 'App doens\\'t exists');\r\n        _;\r\n    }\r\n\r\n    modifier onlyCreator(uint _app_id, address _app_creator){\r\n        require(!_app_creator.isAddressZero(), 'Invalid addr');\r\n        require(_app_creator == App(apps.get(_app_id)).creator(), 'not creator addr');\r\n        _;\r\n    }\r\n\r\n    modifier validIndex(uint _index, uint _length){\r\n        require(_index >= 0, 'Invalid index');\r\n        require(_length > 0, 'Invalid length');\r\n        require(_index < _length, 'Invalid index');\r\n        _;\r\n    }\r\n\r\n    //\r\n    function createNewUser(address user_address) private {\r\n        users_num.increment();\r\n        users[user_address] = address(new User(payable(user_address)));\r\n        emit Events.UserCreated(payable(user_address), users[user_address]);\r\n    }\r\n\r\n    function createNewApp(\r\n        string memory _name,\r\n        string memory _description,\r\n        string memory _magnetLink,\r\n        string memory _imgUrl,\r\n        string memory _company,\r\n        uint _price,\r\n        string memory _category,\r\n        string memory _fileSha256\r\n    ) public{\r\n        if (users[msg.sender].isAddressZero()){\r\n            createNewUser(msg.sender);\r\n        }\r\n        uint apps_num = apps.length();\r\n        App new_app = new App(\r\n            apps_num, \r\n            msg.sender, \r\n            _name, \r\n            _description, \r\n            _magnetLink, \r\n            _imgUrl, \r\n            _company, \r\n            _price, \r\n            _category,\r\n            _fileSha256\r\n        );\r\n        apps.set(apps_num, address(new_app));\r\n        User(users[msg.sender]).createNewApp(address(new_app));\r\n        // emit Events.AppCreated(\r\n        //     apps_num, \r\n        //     payable(msg.sender),\r\n        //     _name,\r\n        //     _company,\r\n        //     _category,\r\n        //     _price,\r\n        //     _description\r\n        // );\r\n    }\r\n\r\n    // function updateApp(\r\n    //     uint app_id,\r\n    //     string memory _name,\r\n    //     string memory _description,\r\n    //     string memory _magnetLink,\r\n    //     string memory _imgUrl,\r\n    //     uint _price,\r\n    //     string memory _fileSha256\r\n    // ) external userExists(msg.sender) appExists(app_id) onlyCreator(app_id, msg.sender) {\r\n    //     bool success = App(apps.get(app_id)).updateApp(\r\n    //         _name,\r\n    //         _description,\r\n    //         _magnetLink,\r\n    //         _imgUrl,\r\n    //         _price,\r\n    //         _fileSha256\r\n    //     );\r\n    //     if (success){\r\n    //         emit Events.UpdatedApp(app_id);\r\n    //     }\r\n    // }\r\n\r\n    function purchaseApp(uint app_id) external payable appExists(app_id) { //todo: check this validate\r\n        address user = msg.sender;\r\n        if (users[user].isAddressZero()){\r\n            createNewUser(user);\r\n        }\r\n        \r\n        address app_address = apps.get(app_id);\r\n        require(!User(users[user]).isAppOwned(app_address), 'Can\\'t buy app twice');\r\n\r\n        App app = App(app_address);\r\n        (bool sent,) = app.creator().call{value: msg.value}(\"\"); //sends ether to the creator\r\n        require(sent, \"Failed to send Ether\");\r\n        User(users[user]).markAppAsPurchased(app_address);\r\n        emit Events.UserPurchasedApp(payable(user), app_address);\r\n        // require(false, 'DEBUG MESSAGE');\r\n    }\r\n\r\n    // function getAppBatch(uint start, uint len) view external validIndex(start, len) returns( AppInfoLibrary.AppInfo[] memory){\r\n    //     bool registered = !users[msg.sender].isAddressZero();\r\n    //     uint apps_length = apps.length();\r\n    //     uint requested_apps = (len < apps_length? len: apps_length);\r\n    //     AppInfoLibrary.AppInfo[] memory batch = new AppInfoLibrary.AppInfo[](requested_apps);\r\n    //     require (requested_apps <= len && requested_apps <= apps_length, \"minimum failed\");\r\n    //     for (uint i = 0; i < requested_apps; i++){\r\n    //         uint app_id = (start + i) % apps_length;\r\n    //         address app_address = apps.get(app_id);\r\n    //         bool owned = registered && User(users[msg.sender]).isAppOwned(app_address);\r\n    //         batch[i] = App(app_address).getAppInfo(\r\n    //             owned, \r\n    //            getUserRatingForApp(app_id)\r\n    //         );\r\n    //     }\r\n    //     return batch;\r\n    // }\r\n\r\n    // Not registered user is going to see empty list\r\n    function getPurchasedAppsInfo() external view returns(AppInfoLibrary.AppInfo[] memory){\r\n        if (users[msg.sender].isAddressZero()){\r\n            AppInfoLibrary.AppInfo[] memory empty_app_arr;\r\n            return  empty_app_arr;\r\n        }\r\n        AppInfoLibrary.AppInfo[] memory purchased_apps_info = User(users[msg.sender]).getPurchasedApps();\r\n        return purchased_apps_info;\r\n    }\r\n\r\n    // Not registered user is going to see empty list\r\n    function getPublishedAppsInfo() external view returns(AppInfoLibrary.AppInfo[] memory){\r\n        if (users[msg.sender].isAddressZero()){\r\n            AppInfoLibrary.AppInfo[] memory empty_app_arr;\r\n            return  empty_app_arr;\r\n        }\r\n        return User(users[msg.sender]).getPublishedApps();\r\n    }\r\n\r\n    function getRatedAppsInfo() external view returns(AppInfoLibrary.AppInfo[] memory){\r\n        if (users[msg.sender].isAddressZero()){\r\n            AppInfoLibrary.AppInfo[] memory empty_app_arr;\r\n            return  empty_app_arr;\r\n        }\r\n\r\n        return User(users[msg.sender]).getRatedApps();\r\n    }\r\n\r\n    function getAppCount() view external returns(uint){\r\n        return apps.length();\r\n    }\r\n\r\n    // function getAppRating(uint _app_id) view external appExists(_app_id) returns(uint, uint, uint){\r\n    //     App app = App(apps.get(_app_id));\r\n    //     (uint rating_int, uint rating_modulu) = app.getAppRating();\r\n    //     return (rating_int, rating_modulu, app.num_ratings());\r\n    // }\r\n\r\n    function getUserRatingForApp(uint _app_id) view public appExists(_app_id) returns(uint){\r\n        if (users[msg.sender].isAddressZero()){\r\n            return 0;\r\n        }\r\n        return User(users[msg.sender]).getRatingForApp(apps.get(_app_id));\r\n\r\n    }\r\n\r\n    //Rating\r\n    function rateApp(uint _app_id, uint new_rating) external{\r\n        //todo: inc num of ratings on app\r\n        User user = User(users[msg.sender]);\r\n        address app_address = apps.get(_app_id);\r\n        App curr_app = App(app_address);\r\n\r\n        uint old_rating = user.getRatingForApp(app_address);\r\n        user.rateApp(app_address, new_rating);\r\n        (uint rating_int, uint rating_modulu, uint num_ratings) = curr_app.rateApp(new_rating, old_rating);\r\n        emit Events.AppRated(_app_id, rating_int, rating_modulu, num_ratings);\r\n    }\r\n\r\n    // function changeBuckets(App app, uint from, uint to) pure private returns(bool){\r\n    //     // require(true, 'not implements change_buckets');\r\n    //     return false;\r\n    // }\r\n\r\n    // function createXApps(uint num_apps) external{\r\n    //     uint num_existing_apps = apps.length();\r\n    //     for (uint i = num_existing_apps; i < num_existing_apps + num_apps; i++){\r\n    //         string memory  idx = i.toString();\r\n    //         createNewApp(\r\n    //             idx.prepend('GO GO APP #'),\r\n    //             idx.prepend('GO GO DESCRIPTION #'),\r\n    //             Constants.DEFAULT_APP_MAGNET_LINK,\r\n    //             Constants.DEFAULT_APP_IMAGE,\r\n    //             idx,\r\n    //             i + 1,\r\n    //             idx\r\n    //         );\r\n    //     }\r\n    // }\r\n   \r\n}\r\n",
  "sourcePath": "C:\\Users\\User\\Documents\\GitHub\\Backend\\SmartContracts\\contracts\\DAppStore\\dAppstore.sol",
  "compiler": {
    "name": "solc",
    "version": "0.8.15+commit.e14f2714.Emscripten.clang"
  },
  "schemaVersion": "3.4.8",
  "updatedAt": "2022-07-12T12:46:28.743Z",
  "devdoc": {
    "kind": "dev",
    "methods": {},
    "version": 1
  },
  "userdoc": {
    "kind": "user",
    "methods": {},
    "version": 1
  }
}