{
  "contractName": "DAppStore",
  "abi": [
    {
      "inputs": [],
      "stateMutability": "nonpayable",
      "type": "constructor"
    },
    {
      "inputs": [],
      "name": "registerUser",
      "outputs": [],
      "stateMutability": "nonpayable",
      "type": "function"
    },
    {
      "inputs": [
        {
          "internalType": "uint256",
          "name": "_app_id",
          "type": "uint256"
        },
        {
          "internalType": "uint256",
          "name": "new_rating",
          "type": "uint256"
        }
      ],
      "name": "rateApp",
      "outputs": [],
      "stateMutability": "nonpayable",
      "type": "function"
    }
  ],
  "bytecode": "0x6080604052600a60035534801561001557600080fd5b50604051610022906100f6565b604051809103906000f08015801561003e573d6000803e3d6000fd5b5060008054600160a060020a031916600160a060020a039290921691909117905560405161006b90610103565b604051809103906000f080158015610087573d6000803e3d6000fd5b5060018054600160a060020a031916600160a060020a03929092169190911790556040516100b490610110565b604051809103906000f0801580156100d0573d6000803e3d6000fd5b5060028054600160a060020a031916600160a060020a039290921691909117905561011d565b6134028061048e83390190565b6144138061389083390190565b6106af80617ca383390190565b6103628061012c6000396000f3fe608060405234801561001057600080fd5b50600436106100395760e060020a60003504634d3820eb811461003e57806370b8fd9214610048575b600080fd5b61004661005a565b005b6100466100563660046101dd565b5050565b6000610065426100ce565b60005460405160e060020a63507ffba5028152919250600160a060020a03169063507ffba5906100999084906004016101ff565b600060405180830381600087803b1580156100b357600080fd5b505af11580156100c7573d6000803e3d6000fd5b5050505050565b6060816000036100f8575050604080518082019091526001815260fc60020a600302602082015290565b8160005b8115610122578061010c8161026e565b915061011b9050600a836102a1565b91506100fc565b60008167ffffffffffffffff81111561013d5761013d6102b5565b6040519080825280601f01601f191660200182016040528015610167576020820181803683370190505b5090505b84156101d55761017c6001836102cf565b9150610189600a866102e6565b6101949060306102fa565b60f860020a028183815181106101ac576101ac610312565b6020010190600160f860020a031916908160001a9053506101ce600a866102a1565b945061016b565b949350505050565b600080604083850312156101f057600080fd5b50508035926020909101359150565b600060208083528351808285015260005b8181101561022c57858101830151858201604001528201610210565b8181111561023e576000604083870101525b50601f01601f1916929092016040019392505050565b60e060020a634e487b710260009081526011600452602490fd5b60006001820161028057610280610254565b5060010190565b60e060020a634e487b710260009081526012600452602490fd5b6000826102b0576102b0610287565b500490565b60e060020a634e487b710260009081526041600452602490fd5b6000828210156102e1576102e1610254565b500390565b6000826102f5576102f5610287565b500690565b6000821982111561030d5761030d610254565b500190565b60e060020a634e487b710260009081526032600452602490fdfea2646970667358221220cea53f9789351bdceeac028357d6d1b9ada14916ab8129c37b5aab788545900964736f6c634300080f0033608060405234801561001057600080fd5b50610033610025640100000000610038810204565b64010000000061003c810204565b61008c565b3390565b60008054600160a060020a03838116600160a060020a0319831681178455604051919092169283917f8be0079c531659141344cd1fd0a4f28419497f9722a3daafe3b4186f6b6457e09190a35050565b613366806200009c6000396000f3fe60806040523480156200001157600080fd5b5060043610620000cd5760e060020a6000350463139334af8114620000d2578063253a219f14620000f4578063449af0c814620000fe578063460168c31462000126578063507ffba5146200014c578063715018a614620001655780638da5cb5b146200016f5780638f89b46a146200018857806391de1ba31462000192578063bd0d9fac14620001a9578063caba036f14620001c0578063e3f75d1e14620001d7578063eae6d4da14620001ee578063f2fde38b14620001f8575b600080fd5b620000dc6200020f565b604051620000eb9190620018c2565b60405180910390f35b620000dc62000411565b620001156200010f36600462001a62565b620005d9565b6040519015158152602001620000eb565b6200013d6200013736600462001a62565b620007cd565b604051908152602001620000eb565b620001636200015d36600462001a80565b620009cb565b005b6200016362000c8c565b6200017962000ca4565b604051620000eb919062001af6565b620000dc62000cb3565b62000163620001a336600462001a62565b62000e7b565b62000163620001ba36600462001b0a565b62001064565b62000115620001d136600462001a62565b62001250565b62000163620001e836600462001a62565b620013f8565b62000115620015a9565b620001636200020936600462001a62565b620016fa565b60606200021b6200177f565b60405160e060020a6386bd3f91028152339073__AddressUtils__________________________906386bd3f91906200025990849060040162001af6565b602060405180830381865af415801562000277573d6000803e3d6000fd5b505050506040513d601f19601f820116820180604052508101906200029d919062001b48565b15620002c95760405160e560020a62461bcd028152600401620002c09062001b66565b60405180910390fd5b600160a060020a038082166000908152600160205260409081902054905160e060020a6386bd3f9102815273__AddressUtils__________________________926386bd3f9192620003219291169060040162001af6565b602060405180830381865af41580156200033f573d6000803e3d6000fd5b505050506040513d601f19601f8201168201806040525081019062000365919062001b48565b15620003885760405160e560020a62461bcd028152600401620002c09062001b97565b3360009081526001602052604080822054815160e060020a63139334af0281529151600160a060020a039091169163139334af91600480830192869291908290030181865afa158015620003e0573d6000803e3d6000fd5b505050506040513d6000823e601f3d908101601f191682016040526200040a919081019062001ca7565b9250505090565b60606200041d6200177f565b60405160e060020a6386bd3f91028152339073__AddressUtils__________________________906386bd3f91906200045b90849060040162001af6565b602060405180830381865af415801562000479573d6000803e3d6000fd5b505050506040513d601f19601f820116820180604052508101906200049f919062001b48565b15620004c25760405160e560020a62461bcd028152600401620002c09062001b66565b600160a060020a038082166000908152600160205260409081902054905160e060020a6386bd3f9102815273__AddressUtils__________________________926386bd3f91926200051a9291169060040162001af6565b602060405180830381865af415801562000538573d6000803e3d6000fd5b505050506040513d601f19601f820116820180604052508101906200055e919062001b48565b15620005815760405160e560020a62461bcd028152600401620002c09062001b97565b3360009081526001602052604080822054815160e060020a63253a219f0281529151600160a060020a039091169163253a219f91600480830192869291908290030181865afa158015620003e0573d6000803e3d6000fd5b60405160e060020a6386bd3f91028152600090339073__AddressUtils__________________________906386bd3f91906200061a90849060040162001af6565b602060405180830381865af415801562000638573d6000803e3d6000fd5b505050506040513d601f19601f820116820180604052508101906200065e919062001b48565b15620006815760405160e560020a62461bcd028152600401620002c09062001b66565b600160a060020a038082166000908152600160205260409081902054905160e060020a6386bd3f9102815273__AddressUtils__________________________926386bd3f9192620006d99291169060040162001af6565b602060405180830381865af4158015620006f7573d6000803e3d6000fd5b505050506040513d601f19601f820116820180604052508101906200071d919062001b48565b15620007405760405160e560020a62461bcd028152600401620002c09062001b97565b60006200074d33620017e5565b60405160e060020a63efd46065028152909150600160a060020a0382169063efd46065906200078190879060040162001af6565b602060405180830381865afa1580156200079f573d6000803e3d6000fd5b505050506040513d601f19601f82011682018060405250810190620007c5919062001b48565b949350505050565b6000620007d96200177f565b60405160e060020a6386bd3f91028152339073__AddressUtils__________________________906386bd3f91906200081790849060040162001af6565b602060405180830381865af415801562000835573d6000803e3d6000fd5b505050506040513d601f19601f820116820180604052508101906200085b919062001b48565b156200087e5760405160e560020a62461bcd028152600401620002c09062001b66565b600160a060020a038082166000908152600160205260409081902054905160e060020a6386bd3f9102815273__AddressUtils__________________________926386bd3f9192620008d69291169060040162001af6565b602060405180830381865af4158015620008f4573d6000803e3d6000fd5b505050506040513d601f19601f820116820180604052508101906200091a919062001b48565b156200093d5760405160e560020a62461bcd028152600401620002c09062001b97565b336000908152600160205260409081902054905160e060020a639f9f7f85028152600160a060020a0390911690639f9f7f85906200098090869060040162001af6565b602060405180830381865afa1580156200099e573d6000803e3d6000fd5b505050506040513d601f19601f82011682018060405250810190620009c4919062001f0f565b9392505050565b620009d56200177f565b60405160e060020a6386bd3f91028152339073__AddressUtils__________________________906386bd3f919062000a1390849060040162001af6565b602060405180830381865af415801562000a31573d6000803e3d6000fd5b505050506040513d601f19601f8201168201806040525081019062000a57919062001b48565b1562000a7a5760405160e560020a62461bcd028152600401620002c09062001b66565b600160a060020a038082166000908152600160205260409081902054905160e060020a6386bd3f9102815273__AddressUtils__________________________926386bd3f919262000ad29291169060040162001af6565b602060405180830381865af415801562000af0573d6000803e3d6000fd5b505050506040513d601f19601f8201168201806040525081019062000b16919062001b48565b1562000b395760405160e560020a62461bcd028152600401620002c09062001b97565b336000908152600160205260409081902054905160e060020a6386bd3f9102815273__AddressUtils__________________________916386bd3f919162000b8e91600160a060020a03169060040162001af6565b602060405180830381865af415801562000bac573d6000803e3d6000fd5b505050506040513d601f19601f8201168201806040525081019062000bd2919062001b48565b1562000c1d5760405160e560020a62461bcd0281526020600482015260136024820152606860020a725573657220616c726561647920657869737473026044820152606401620002c0565b33838360405162000c2e9062001853565b62000c3c9392919062001f29565b604051809103906000f08015801562000c59573d6000803e3d6000fd5b503360009081526001602052604090208054600160a060020a031916600160a060020a0392909216919091179055505050565b62000c966200177f565b62000ca2600062001803565b565b600054600160a060020a031690565b606062000cbf6200177f565b60405160e060020a6386bd3f91028152339073__AddressUtils__________________________906386bd3f919062000cfd90849060040162001af6565b602060405180830381865af415801562000d1b573d6000803e3d6000fd5b505050506040513d601f19601f8201168201806040525081019062000d41919062001b48565b1562000d645760405160e560020a62461bcd028152600401620002c09062001b66565b600160a060020a038082166000908152600160205260409081902054905160e060020a6386bd3f9102815273__AddressUtils__________________________926386bd3f919262000dbc9291169060040162001af6565b602060405180830381865af415801562000dda573d6000803e3d6000fd5b505050506040513d601f19601f8201168201806040525081019062000e00919062001b48565b1562000e235760405160e560020a62461bcd028152600401620002c09062001b97565b3360009081526001602052604080822054815160e060020a63b8c3773f0281529151600160a060020a039091169163b8c3773f91600480830192869291908290030181865afa158015620003e0573d6000803e3d6000fd5b62000e856200177f565b60405160e060020a6386bd3f91028152339073__AddressUtils__________________________906386bd3f919062000ec390849060040162001af6565b602060405180830381865af415801562000ee1573d6000803e3d6000fd5b505050506040513d601f19601f8201168201806040525081019062000f07919062001b48565b1562000f2a5760405160e560020a62461bcd028152600401620002c09062001b66565b600160a060020a038082166000908152600160205260409081902054905160e060020a6386bd3f9102815273__AddressUtils__________________________926386bd3f919262000f829291169060040162001af6565b602060405180830381865af415801562000fa0573d6000803e3d6000fd5b505050506040513d601f19601f8201168201806040525081019062000fc6919062001b48565b1562000fe95760405160e560020a62461bcd028152600401620002c09062001b97565b336000908152600160205260409081902054905160e060020a6391de1ba3028152600160a060020a03909116906391de1ba3906200102c90859060040162001af6565b600060405180830381600087803b1580156200104757600080fd5b505af11580156200105c573d6000803e3d6000fd5b505050505050565b6200106e6200177f565b60405160e060020a6386bd3f91028152339073__AddressUtils__________________________906386bd3f9190620010ac90849060040162001af6565b602060405180830381865af4158015620010ca573d6000803e3d6000fd5b505050506040513d601f19601f82011682018060405250810190620010f0919062001b48565b15620011135760405160e560020a62461bcd028152600401620002c09062001b66565b600160a060020a038082166000908152600160205260409081902054905160e060020a6386bd3f9102815273__AddressUtils__________________________926386bd3f91926200116b9291169060040162001af6565b602060405180830381865af415801562001189573d6000803e3d6000fd5b505050506040513d601f19601f82011682018060405250810190620011af919062001b48565b15620011d25760405160e560020a62461bcd028152600401620002c09062001b97565b336000908152600160205260409081902054905160e060020a63983c0a5b028152600160a060020a038581166004830152602482018590529091169063983c0a5b90604401600060405180830381600087803b1580156200123257600080fd5b505af115801562001247573d6000803e3d6000fd5b50505050505050565b60405160e060020a6386bd3f91028152600090339073__AddressUtils__________________________906386bd3f91906200129190849060040162001af6565b602060405180830381865af4158015620012af573d6000803e3d6000fd5b505050506040513d601f19601f82011682018060405250810190620012d5919062001b48565b15620012f85760405160e560020a62461bcd028152600401620002c09062001b66565b600160a060020a038082166000908152600160205260409081902054905160e060020a6386bd3f9102815273__AddressUtils__________________________926386bd3f9192620013509291169060040162001af6565b602060405180830381865af41580156200136e573d6000803e3d6000fd5b505050506040513d601f19601f8201168201806040525081019062001394919062001b48565b15620013b75760405160e560020a62461bcd028152600401620002c09062001b97565b6000620013c433620017e5565b60405160e260020a63012935c1028152909150600160a060020a038216906304a4d704906200078190879060040162001af6565b620014026200177f565b60405160e060020a6386bd3f91028152339073__AddressUtils__________________________906386bd3f91906200144090849060040162001af6565b602060405180830381865af41580156200145e573d6000803e3d6000fd5b505050506040513d601f19601f8201168201806040525081019062001484919062001b48565b15620014a75760405160e560020a62461bcd028152600401620002c09062001b66565b600160a060020a038082166000908152600160205260409081902054905160e060020a6386bd3f9102815273__AddressUtils__________________________926386bd3f9192620014ff9291169060040162001af6565b602060405180830381865af41580156200151d573d6000803e3d6000fd5b505050506040513d601f19601f8201168201806040525081019062001543919062001b48565b15620015665760405160e560020a62461bcd028152600401620002c09062001b97565b336000908152600160205260409081902054905160e160020a6371fbae8f028152600160a060020a039091169063e3f75d1e906200102c90859060040162001af6565b6000620015b56200177f565b60405160e060020a6386bd3f91028152339073__AddressUtils__________________________906386bd3f9190620015f390849060040162001af6565b602060405180830381865af415801562001611573d6000803e3d6000fd5b505050506040513d601f19601f8201168201806040525081019062001637919062001b48565b156200165a5760405160e560020a62461bcd028152600401620002c09062001b66565b336000908152600160205260409081902054905160e060020a6386bd3f9102815273__AddressUtils__________________________916386bd3f9191620016af91600160a060020a03169060040162001af6565b602060405180830381865af4158015620016cd573d6000803e3d6000fd5b505050506040513d601f19601f82011682018060405250810190620016f3919062001b48565b1591505090565b620017046200177f565b600160a060020a038116620017715760405160e560020a62461bcd02815260206004820152602660248201527f4f776e61626c653a206e6577206f776e657220697320746865207a65726f2061604482015260d060020a65646472657373026064820152608401620002c0565b6200177c8162001803565b50565b336200178a62000ca4565b600160a060020a03161462000ca25760405160e560020a62461bcd02815260206004820181905260248201527f4f776e61626c653a2063616c6c6572206973206e6f7420746865206f776e65726044820152606401620002c0565b600160a060020a039081166000908152600160205260409020541690565b60008054600160a060020a03838116600160a060020a0319831681178455604051919092169283917f8be0079c531659141344cd1fd0a4f28419497f9722a3daafe3b4186f6b6457e09190a35050565b6113c78062001f6a83390190565b60005b838110156200187e57818101518382015260200162001864565b838111156200188e576000848401525b50505050565b60008151808452620018ae81602086016020860162001861565b601f01601f19169290920160200192915050565b60208082528251828201819052600091906040908185019080840286018301878501865b8381101562001a3757603f1989840301855281516101e08151855288820151818a870152620019188287018262001894565b915050878201518582038987015262001932828262001894565b915050606080830151868303828801526200194e838262001894565b92505050608080830151868303828801526200196b838262001894565b60a0858101519089015260c0808601519089015260e080860151908901526101008086015190890152610120808601519089015261014080860151898303828b015291945092509050620019c0838262001894565b9250505061016080830151620019d98288018215159052565b50506101808083015186830382880152620019f5838262001894565b925050506101a0808301518683038288015262001a13838262001894565b6101c0948501519790940196909652505094870194925090860190600101620018e6565b509098975050505050505050565b8035600160a060020a038116811462001a5d57600080fd5b919050565b60006020828403121562001a7557600080fd5b620009c48262001a45565b6000806020838503121562001a9457600080fd5b82356001604060020a038082111562001aac57600080fd5b818501915085601f83011262001ac157600080fd5b81358181111562001ad157600080fd5b86602082850101111562001ae457600080fd5b60209290920196919550909350505050565b600160a060020a0391909116815260200190565b6000806040838503121562001b1e57600080fd5b62001b298362001a45565b946020939093013593505050565b8051801515811462001a5d57600080fd5b60006020828403121562001b5b57600080fd5b620009c48262001b37565b6020808252601490820152606060020a73496e76616c69642075736572206164647265737302604082015260600190565b6020808252600e90820152609260020a6d155cd95c881b9bdd08199bdd5b9902604082015260600190565b60e060020a634e487b710260009081526041600452602490fd5b6040516101e081016001604060020a038111828210171562001c025762001c0262001bc2565b60405290565b604051601f8201601f191681016001604060020a038111828210171562001c335762001c3362001bc2565b604052919050565b600082601f83011262001c4d57600080fd5b81516001604060020a0381111562001c695762001c6962001bc2565b62001c7e601f8201601f191660200162001c08565b81815284602083860101111562001c9457600080fd5b620007c582602083016020870162001861565b6000602080838503121562001cbb57600080fd5b82516001604060020a038082111562001cd357600080fd5b818501915085601f83011262001ce857600080fd5b81518181111562001cfd5762001cfd62001bc2565b83810262001d0d85820162001c08565b918252838101850191858101908984111562001d2857600080fd5b86860192505b8383101562001f025782518581111562001d4757600080fd5b86016101e0818c03601f1901121562001d5f57600080fd5b62001d6962001bdc565b88820151815260408201518781111562001d8257600080fd5b62001d928d8b8386010162001c3b565b8a8301525060608201518781111562001daa57600080fd5b62001dba8d8b8386010162001c3b565b60408301525060808201518781111562001dd357600080fd5b62001de38d8b8386010162001c3b565b60608301525060a08201518781111562001dfc57600080fd5b62001e0c8d8b8386010162001c3b565b60808301525060c082015160a082015260e082015160c08201526101008083015160e083015261012080840151828401526101409150818401518184015250610160808401518981111562001e6057600080fd5b62001e708f8d8388010162001c3b565b8385015250610180915062001e8782850162001b37565b908301526101a0838101518981111562001ea057600080fd5b62001eb08f8d8388010162001c3b565b83850152506101c09150818401518981111562001ecc57600080fd5b62001edc8f8d8388010162001c3b565b8285015250506101e0830151818301525080845250508682019150868301925062001d2e565b9998505050505050505050565b60006020828403121562001f2257600080fd5b5051919050565b600160a060020a03841681526040602082018190528101829052818360608301376000818301606090810191909152601f909201601f191601019291505056fe60806040523480156200001157600080fd5b50604051620013c7380380620013c7833981016040819052620000349162000139565b6200005a6200004b640100000000620000b0810204565b640100000000620000b4810204565b60018054600160a060020a031916600160a060020a0384161790556002620000838282620002e1565b506003805460ff19169055620000a860096401000000006200092a6200010482021704565b5050620003b3565b3390565b60008054600160a060020a03838116600160a060020a0319831681178455604051919092169283917f8be0079c531659141344cd1fd0a4f28419497f9722a3daafe3b4186f6b6457e09190a35050565b60009055565b7f4e487b7100000000000000000000000000000000000000000000000000000000600052604160045260246000fd5b600080604083850312156200014d57600080fd5b8251600160a060020a03811681146200016557600080fd5b809250506020808401516001604060020a03808211156200018557600080fd5b818601915086601f8301126200019a57600080fd5b815181811115620001af57620001af6200010a565b604051601f8201601f19908116603f01168101908382118183101715620001da57620001da6200010a565b816040528281528986848701011115620001f357600080fd5b600093505b82841015620002175784840186015181850187015292850192620001f8565b82841115620002295760008684830101525b8096505050505050509250929050565b6002810460018216806200024e57607f821691505b60208210810362000288577f4e487b7100000000000000000000000000000000000000000000000000000000600052602260045260246000fd5b50919050565b601f821115620002dc576000818152602081206020601f86010481016020861015620002b75750805b6020601f860104820191505b81811015620002d857828155600101620002c3565b5050505b505050565b81516001604060020a03811115620002fd57620002fd6200010a565b62000315816200030e845462000239565b846200028e565b602080601f831160018114620003515760008415620003345750858301515b60028086026008870290910a6000190419821617865550620002d8565b600085815260208120601f198616915b82811015620003825788860151825594840194600190910190840162000361565b5085821015620003a357878501516008601f88160260020a60001904191681555b5050505050600202600101905550565b61100480620003c36000396000f3fe608060405234801561001057600080fd5b50600436106100a75760e060020a600035046304a4d70481146100ac578063139334af146100d4578063253a219f146100e9578063715018a6146100f15780638da5cb5b146100fb57806391de1ba31461011b578063983c0a5b1461012e5780639f9f7f8514610141578063b8c3773f14610162578063e3f75d1e1461016a578063efd460651461017d578063f2fde38b14610190575b600080fd5b6100bf6100ba366004610a71565b6101a3565b60405190151581526020015b60405180910390f35b6100dc6101d0565b6040516100cb9190610aef565b6100dc61036e565b6100f96104d0565b005b6101036104e4565b604051600160a060020a0390911681526020016100cb565b6100f9610129366004610a71565b6104f3565b6100f961013c366004610c61565b610562565b61015461014f366004610a71565b6105ce565b6040519081526020016100cb565b6100dc6105f4565b6100f9610178366004610a71565b610756565b6100bf61018b366004610a71565b6107c2565b6100f961019e366004610a71565b6108a9565b60006101ad610930565b50600160a060020a03811660009081526006602052604090205460ff165b919050565b60606101da610930565b60006101e560095490565b90506000816001604060020a0381111561020157610201610c8b565b60405190808252806020026020018201604052801561023a57816020015b6102276109e2565b81526020019060019003908161021f5790505b50905060005b828110156103675760006004828154811061025d5761025d610ca5565b6000918252602080832090910154600160a060020a031680835260079091526040909120549091508190156103525780600160a060020a031663f22b012760016102cd600487815481106102b3576102b3610ca5565b600091825260209091200154600160a060020a03166105ce565b60405160e060020a63ffffffff851602815291151560048301526024820152604401600060405180830381865afa15801561030c573d6000803e3d6000fd5b505050506040513d6000823e601f3d908101601f191682016040526103349190810190610d7f565b84848151811061034657610346610ca5565b60200260200101819052505b5050808061035f90610f2b565b915050610240565b5091505090565b6060610378610930565b6005546000816001604060020a0381111561039557610395610c8b565b6040519080825280602002602001820160405280156103ce57816020015b6103bb6109e2565b8152602001906001900390816103b35790505b50905060005b82811015610367576000600582815481106103f1576103f1610ca5565b9060005260206000200160009054906101000a9004600160a060020a0316905080600160a060020a031663f22b01276001610438600586815481106102b3576102b3610ca5565b60405160e060020a63ffffffff851602815291151560048301526024820152604401600060405180830381865afa158015610477573d6000803e3d6000fd5b505050506040513d6000823e601f3d908101601f1916820160405261049f9190810190610d7f565b8383815181106104b1576104b1610ca5565b60200260200101819052505080806104c890610f2b565b9150506103d4565b6104d8610930565b6104e26000610992565b565b600054600160a060020a031690565b6104fb610930565b6004805460018181019092557f8a35acfbc15ff81a39ae7d344fd709f28e8600b4aa8c65c6b64bfe7fe36bd19b018054600160a060020a03909316600160a060020a031990931683179055600091825260066020526040909120805460ff19169091179055565b61056a610930565b6001811015801561057c575060058111155b61058557600080fd5b600160a060020a03821660009081526007602052604081205490036105b2576105b2600980546001019055565b600160a060020a03909116600090815260076020526040902055565b60006105d8610930565b50600160a060020a031660009081526007602052604090205490565b60606105fe610930565b6004546000816001604060020a0381111561061b5761061b610c8b565b60405190808252806020026020018201604052801561065457816020015b6106416109e2565b8152602001906001900390816106395790505b50905060005b828110156103675760006004828154811061067757610677610ca5565b9060005260206000200160009054906101000a9004600160a060020a0316905080600160a060020a031663f22b012760016106be600486815481106102b3576102b3610ca5565b60405160e060020a63ffffffff851602815291151560048301526024820152604401600060405180830381865afa1580156106fd573d6000803e3d6000fd5b505050506040513d6000823e601f3d908101601f191682016040526107259190810190610d7f565b83838151811061073757610737610ca5565b602002602001018190525050808061074e90610f2b565b91505061065a565b61075e610930565b60038054600160ff1990911681179091556005805491820181556000527f036b6384b5eca791c62761152d0c79bb0604c104a5fb6f4eb0703f3154bb3db0018054600160a060020a031916600160a060020a0383161790556107bf816104f3565b50565b60006107cc610930565b600580548060200260200160405190810160405280929190818152602001828054801561082257602002820191906000526020600020905b8154600160a060020a03168152600190910190602001808311610804575b505060405160e160020a631ed406b302815273__AddressArrayUtils_____________________94633da80d669450610862935091508690600401610f56565b602060405180830381865af415801561087f573d6000803e3d6000fd5b505050506040513d601f19601f820116820180604052508101906108a39190610fb3565b92915050565b6108b1610930565b600160a060020a0381166109215760405160e560020a62461bcd02815260206004820152602660248201527f4f776e61626c653a206e6577206f776e657220697320746865207a65726f2061604482015260d060020a656464726573730260648201526084015b60405180910390fd5b6107bf81610992565b60009055565b336109396104e4565b600160a060020a0316146104e25760405160e560020a62461bcd02815260206004820181905260248201527f4f776e61626c653a2063616c6c6572206973206e6f7420746865206f776e65726044820152606401610918565b60008054600160a060020a03838116600160a060020a0319831681178455604051919092169283917f8be0079c531659141344cd1fd0a4f28419497f9722a3daafe3b4186f6b6457e09190a35050565b604051806101e0016040528060008152602001606081526020016060815260200160608152602001606081526020016000815260200160008152602001600081526020016000815260200160008152602001606081526020016000151581526020016060815260200160608152602001600081525090565b8035600160a060020a03811681146101cb57600080fd5b600060208284031215610a8357600080fd5b610a8c82610a5a565b9392505050565b60005b83811015610aae578181015183820152602001610a96565b83811115610abd576000848401525b50505050565b60008151808452610adb816020860160208601610a93565b601f01601f19169290920160200192915050565b60208082528251828201819052600091906040908185019080840286018301878501865b83811015610c5357603f1989840301855281516101e08151855288820151818a870152610b4282870182610ac3565b9150508782015185820389870152610b5a8282610ac3565b91505060608083015186830382880152610b748382610ac3565b9250505060808083015186830382880152610b8f8382610ac3565b60a0858101519089015260c0808601519089015260e080860151908901526101008086015190890152610120808601519089015261014080860151898303828b015291945092509050610be28382610ac3565b9250505061016080830151610bfa8288018215159052565b50506101808083015186830382880152610c148382610ac3565b925050506101a08083015186830382880152610c308382610ac3565b6101c0948501519790940196909652505094870194925090860190600101610b13565b509098975050505050505050565b60008060408385031215610c7457600080fd5b610c7d83610a5a565b946020939093013593505050565b60e060020a634e487b710260009081526041600452602490fd5b60e060020a634e487b710260009081526032600452602490fd5b6040516101e081016001604060020a0381118282101715610ce257610ce2610c8b565b60405290565b600082601f830112610cf957600080fd5b81516001604060020a0380821115610d1357610d13610c8b565b604051601f8301601f19908116603f01168101908282118183101715610d3b57610d3b610c8b565b81604052838152866020858801011115610d5457600080fd5b610d65846020830160208901610a93565b9695505050505050565b805180151581146101cb57600080fd5b600060208284031215610d9157600080fd5b81516001604060020a0380821115610da857600080fd5b908301906101e08286031215610dbd57600080fd5b610dc5610cbf565b82518152602083015182811115610ddb57600080fd5b610de787828601610ce8565b602083015250604083015182811115610dff57600080fd5b610e0b87828601610ce8565b604083015250606083015182811115610e2357600080fd5b610e2f87828601610ce8565b606083015250608083015182811115610e4757600080fd5b610e5387828601610ce8565b60808301525060a083015160a082015260c083015160c082015260e083015160e08201526101008084015181830152506101208084015181830152506101408084015183811115610ea357600080fd5b610eaf88828701610ce8565b828401525050610160610ec3818501610d6f565b908201526101808381015183811115610edb57600080fd5b610ee788828701610ce8565b8284015250506101a08084015183811115610f0157600080fd5b610f0d88828701610ce8565b91830191909152506101c09283015192810192909252509392505050565b600060018201610f4f5760e060020a634e487b710260009081526011600452602490fd5b5060010190565b604080825283519082018190526000906020906060840190828701845b82811015610f98578151600160a060020a031684529284019290840190600101610f73565b505050600160a060020a039490941692019190915250919050565b600060208284031215610fc557600080fd5b610a8c82610d6f56fea2646970667358221220b946d141900fc9bd4f50632994091c2a733d35bb6cc262cc3ed305e00a527d1464736f6c634300080f0033a2646970667358221220627d27e4423fa442c23d3999716876a9f042ff390cd19d59ddd34597686aea4964736f6c634300080f0033608060405234801561001057600080fd5b50610033610025640100000000610038810204565b64010000000061003c810204565b61008c565b3390565b60008054600160a060020a03838116600160a060020a0319831681178455604051919092169283917f8be0079c531659141344cd1fd0a4f28419497f9722a3daafe3b4186f6b6457e09190a35050565b614377806200009c6000396000f3fe60806040523480156200001157600080fd5b5060043610620000915760e060020a60003504632b07ac4c81146200009657806362182b1414620000af578063715018a614620000de5780637d6a24ab14620000e857806380109fea146200010e5780638da5cb5b146200012757806399614c1014620001315780639a9d793c1462000148578063f2fde38b146200015f575b600080fd5b620000ad620000a736600462001316565b62000176565b005b620000c6620000c036600462001450565b6200023c565b604051620000d591906200146a565b60405180910390f35b620000ad62000391565b620000ff620000f93660046200147e565b620003a9565b604051620000d5919062001502565b620001186200067c565b604051908152602001620000d5565b620000c66200068f565b620000ad6200014236600462001685565b6200069e565b620000ad62000159366004620016fd565b62000786565b620000ad620001703660046200182e565b62000f3f565b600062000184600162000fc4565b9050600081338b8b8b8b8b8b8b8b604051620001a09062001209565b620001b59a9998979695949392919062001859565b604051809103906000f080158015620001d2573d6000803e3d6000fd5b509050620001e36001838362000fd7565b5033600160a060020a0316827f28522faef084eaf14884ca4dfb443eec1792a46a067e8af55ada5cd7e1cd03728c89888a8f6040516200022895949392919062001923565b60405180910390a350505050505050505050565b60006200024862000ff7565b81620002566001826200105d565b6200029e5760405160e560020a62461bcd02815260206004820152600d6024820152609a60020a6c105c1c081b9bdd08199bdd5b990260448201526064015b60405180910390fd5b620002ab6001826200106b565b60405160e060020a6386bd3f9102815273__AddressUtils__________________________916386bd3f9191620002ef91600160a060020a0316906004016200146a565b602060405180830381865af41580156200030d573d6000803e3d6000fd5b505050506040513d601f19601f82011682018060405250810190620003339190620019a0565b156200037d5760405160e560020a62461bcd0281526020600482015260126024820152607060020a7141707020646f656e7327742065786973747302604482015260640162000295565b6200038a6001846200106b565b9392505050565b6200039b62000ff7565b620003a7600062001079565b565b6060828260008111620003f65760405160e560020a62461bcd02815260206004820152600e6024820152609360020a6d092dcecc2d8d2c840d8cadccee8d02604482015260640162000295565b62000402600162000fc4565b8210620004485760405160e560020a62461bcd02815260206004820152600d6024820152609b60020a6c092dcecc2d8d2c840d2dcc8caf02604482015260640162000295565b600062000456600162000fc4565b905060008186106200046957816200046b565b855b90506000816001604060020a038111156200048a576200048a62001217565b6040519080825280602002602001820160405280156200053957816020015b62000525604051806101e0016040528060008152602001606081526020016060815260200160608152602001606081526020016000815260200160008152602001600081526020016000815260200160008152602001606081526020016000151581526020016060815260200160608152602001600081525090565b815260200190600190039081620004a95790505b5090508682111580156200054d5750828211155b620005925760405160e560020a62461bcd02815260206004820152600e6024820152609260020a6d1b5a5b9a5b5d5b4819985a5b195902604482015260640162000295565b60005b828110156200067057600084620005ad838c620019d8565b620005b99190620019f3565b90506000620005ca6001836200106b565b905080600160a060020a031663e26799ff6040518163ffffffff1660e060020a028152600401600060405180830381865afa1580156200060e573d6000803e3d6000fd5b505050506040513d6000823e601f3d908101601f1916820160405262000638919081019062001a66565b8484815181106200064d576200064d62001c2e565b602002602001018190525050508080620006679062001c48565b91505062000595565b50979650505050505050565b60006200068a600162000fc4565b905090565b600054600160a060020a031690565b6000620006ad6001856200106b565b60405160e160020a63385c7ec90281526004810185905260248101849052909150819060009081908190600160a060020a038516906370b8fd92906044016060604051808303816000875af11580156200070b573d6000803e3d6000fd5b505050506040513d601f19601f8201168201806040525081019062000731919062001c64565b6040805184815260208101849052908101829052929550909350915088907f4686fd5d77ea9a1984201e56edd878f506e82fdb6401d0bf70543d172ef37a739060600160405180910390a25050505050505050565b6200079062000ff7565b60006200079f60018e6200106b565b905087878080601f0160208091040260200160405190810160405280939291908181526020018383808284376000920191909152505060405160e560020a6303a2cc9502815273__StringUtils___________________________9363745992a093506200081292509060040162001c93565b602060405180830381865af415801562000830573d6000803e3d6000fd5b505050506040513d601f19601f82011682018060405250810190620008569190620019a0565b8062000912575082828080601f0160208091040260200160405190810160405280939291908181526020018383808284376000920191909152505060405160e560020a6303a2cc9502815273__StringUtils___________________________9363745992a09350620008ce92509060040162001c93565b602060405180830381865af4158015620008ec573d6000803e3d6000fd5b505050506040513d601f19601f82011682018060405250810190620009129190620019a0565b1562000b605787878080601f0160208091040260200160405190810160405280939291908181526020018383808284376000920191909152505060405160e560020a6303a2cc9502815273__StringUtils___________________________9363745992a093506200098992509060040162001c93565b602060405180830381865af4158015620009a7573d6000803e3d6000fd5b505050506040513d601f19601f82011682018060405250810190620009cd9190620019a0565b801562000a8a575082828080601f0160208091040260200160405190810160405280939291908181526020018383808284376000920191909152505060405160e560020a6303a2cc9502815273__StringUtils___________________________9363745992a0935062000a4692509060040162001c93565b602060405180830381865af415801562000a64573d6000803e3d6000fd5b505050506040513d601f19601f8201168201806040525081019062000a8a9190620019a0565b62000af45760405160e560020a62461bcd02815260206004820152602d60248201527f4d7573742070726f7669646520626f7468206d61676e6574206c696e6b20616e6044820152609960020a6c32103334b6329039b430991a9b02606482015260840162000295565b60405160e160020a633f7ca45d028152600160a060020a03821690637ef948ba9062000b2b90869086908d908d9060040162001cd1565b600060405180830381600087803b15801562000b4657600080fd5b505af115801562000b5b573d6000803e3d6000fd5b505050505b8b8b8080601f0160208091040260200160405190810160405280939291908181526020018383808284376000920191909152505060405160e560020a6303a2cc9502815273__StringUtils___________________________9363745992a0935062000bd192509060040162001c93565b602060405180830381865af415801562000bef573d6000803e3d6000fd5b505050506040513d601f19601f8201168201806040525081019062000c159190620019a0565b1562000c835760405160e060020a6381ecdf45028152600160a060020a038216906381ecdf459062000c4e908f908f9060040162001d07565b600060405180830381600087803b15801562000c6957600080fd5b505af115801562000c7e573d6000803e3d6000fd5b505050505b89898080601f0160208091040260200160405190810160405280939291908181526020018383808284376000920191909152505060405160e560020a6303a2cc9502815273__StringUtils___________________________9363745992a0935062000cf492509060040162001c93565b602060405180830381865af415801562000d12573d6000803e3d6000fd5b505050506040513d601f19601f8201168201806040525081019062000d389190620019a0565b1562000da65760405160e060020a63fafb1b01028152600160a060020a0382169063fafb1b019062000d71908d908d9060040162001d07565b600060405180830381600087803b15801562000d8c57600080fd5b505af115801562000da1573d6000803e3d6000fd5b505050505b85858080601f0160208091040260200160405190810160405280939291908181526020018383808284376000920191909152505060405160e560020a6303a2cc9502815273__StringUtils___________________________9363745992a0935062000e1792509060040162001c93565b602060405180830381865af415801562000e35573d6000803e3d6000fd5b505050506040513d601f19601f8201168201806040525081019062000e5b9190620019a0565b1562000ec95760405160e060020a634ad3d57d028152600160a060020a03821690634ad3d57d9062000e94908990899060040162001d07565b600060405180830381600087803b15801562000eaf57600080fd5b505af115801562000ec4573d6000803e3d6000fd5b505050505b831562000f305760405160e060020a63e9cd36d302815260048101859052600160a060020a0382169063e9cd36d390602401600060405180830381600087803b15801562000f1657600080fd5b505af115801562000f2b573d6000803e3d6000fd5b505050505b50505050505050505050505050565b62000f4962000ff7565b600160a060020a03811662000fb65760405160e560020a62461bcd02815260206004820152602660248201527f4f776e61626c653a206e6577206f776e657220697320746865207a65726f2061604482015260d060020a6564647265737302606482015260840162000295565b62000fc18162001079565b50565b600062000fd182620010c9565b92915050565b600062000fef8484600160a060020a038516620010d6565b949350505050565b33620010026200068f565b600160a060020a031614620003a75760405160e560020a62461bcd02815260206004820181905260248201527f4f776e61626c653a2063616c6c6572206973206e6f7420746865206f776e6572604482015260640162000295565b60006200038a8383620010f5565b60006200038a838362001103565b60008054600160a060020a03838116600160a060020a0319831681178455604051919092169283917f8be0079c531659141344cd1fd0a4f28419497f9722a3daafe3b4186f6b6457e09190a35050565b600062000fd1826200117b565b6000828152600284016020526040812082905562000fef848462001186565b60006200038a838362001194565b6000818152600283016020526040812054801515806200112a57506200112a8484620010f5565b6200038a5760405160e560020a62461bcd02815260206004820152601e60248201527f456e756d657261626c654d61703a206e6f6e6578697374656e74206b65790000604482015260640162000295565b600062000fd1825490565b60006200038a8383620011a2565b60006200038a8383620011f1565b6000620011b08383620011f1565b620011e85750815460018181018455600084815260208082209093018490558454848252828601909352604090209190915562000fd1565b50600062000fd1565b60009081526001919091016020526040902054151590565b6126248062001d1e83390190565b60e060020a634e487b710260009081526041600452602490fd5b6040516101e081016001604060020a038111828210171562001257576200125762001217565b60405290565b604051601f8201601f191681016001604060020a038111828210171562001288576200128862001217565b604052919050565b60006001604060020a03821115620012ac57620012ac62001217565b50601f01601f191660200190565b600082601f830112620012cc57600080fd5b8135620012e3620012dd8262001290565b6200125d565b818152846020838601011115620012f957600080fd5b816020850160208301376000918101602001919091529392505050565b600080600080600080600080610100898b0312156200133457600080fd5b88356001604060020a03808211156200134c57600080fd5b6200135a8c838d01620012ba565b995060208b01359150808211156200137157600080fd5b6200137f8c838d01620012ba565b985060408b01359150808211156200139657600080fd5b620013a48c838d01620012ba565b975060608b0135915080821115620013bb57600080fd5b620013c98c838d01620012ba565b965060808b0135915080821115620013e057600080fd5b620013ee8c838d01620012ba565b955060a08b0135945060c08b01359150808211156200140c57600080fd5b6200141a8c838d01620012ba565b935060e08b01359150808211156200143157600080fd5b50620014408b828c01620012ba565b9150509295985092959890939650565b6000602082840312156200146357600080fd5b5035919050565b600160a060020a0391909116815260200190565b600080604083850312156200149257600080fd5b50508035926020909101359150565b60005b83811015620014be578181015183820152602001620014a4565b83811115620014ce576000848401525b50505050565b60008151808452620014ee816020860160208601620014a1565b601f01601f19169290920160200192915050565b60208082528251828201819052600091906040908185019080840286018301878501865b838110156200167757603f1989840301855281516101e08151855288820151818a8701526200155882870182620014d4565b9150508782015185820389870152620015728282620014d4565b915050606080830151868303828801526200158e8382620014d4565b9250505060808083015186830382880152620015ab8382620014d4565b60a0858101519089015260c0808601519089015260e080860151908901526101008086015190890152610120808601519089015261014080860151898303828b015291945092509050620016008382620014d4565b9250505061016080830151620016198288018215159052565b50506101808083015186830382880152620016358382620014d4565b925050506101a08083015186830382880152620016538382620014d4565b6101c094850151979094019690965250509487019492509086019060010162001526565b509098975050505050505050565b6000806000606084860312156200169b57600080fd5b505081359360208301359350604090920135919050565b60008083601f840112620016c557600080fd5b5081356001604060020a03811115620016dd57600080fd5b602083019150836020828501011115620016f657600080fd5b9250929050565b60008060008060008060008060008060008060e08d8f0312156200172057600080fd5b8c359b506001604060020a0360208e013511156200173d57600080fd5b6200174f8e60208f01358f01620016b2565b909b5099506001604060020a0360408e013511156200176d57600080fd5b6200177f8e60408f01358f01620016b2565b90995097506001604060020a0360608e013511156200179d57600080fd5b620017af8e60608f01358f01620016b2565b90975095506001604060020a0360808e01351115620017cd57600080fd5b620017df8e60808f01358f01620016b2565b909550935060a08d013592506001604060020a0360c08e013511156200180457600080fd5b620018168e60c08f01358f01620016b2565b81935080925050509295989b509295989b509295989b565b6000602082840312156200184157600080fd5b8135600160a060020a03811681146200038a57600080fd5b8a8152600160a060020a038a16602082015261014060408201819052600090620018868382018c620014d4565b905082810360608401526200189c818b620014d4565b90508281036080840152620018b2818a620014d4565b905082810360a0840152620018c88189620014d4565b905082810360c0840152620018de8188620014d4565b90508560e0840152828103610100840152620018fb8186620014d4565b9050828103610120840152620019128185620014d4565b9d9c50505050505050505050505050565b60a0815260006200193860a0830188620014d4565b82810360208401526200194c8188620014d4565b90508281036040840152620019628187620014d4565b905084606084015282810360808401526200197e8185620014d4565b98975050505050505050565b805180151581146200199b57600080fd5b919050565b600060208284031215620019b357600080fd5b6200038a826200198a565b60e060020a634e487b710260009081526011600452602490fd5b60008219821115620019ee57620019ee620019be565b500190565b60008262001a155760e060020a634e487b710260009081526012600452602490fd5b500690565b600082601f83011262001a2c57600080fd5b815162001a3d620012dd8262001290565b81815284602083860101111562001a5357600080fd5b62000fef826020830160208701620014a1565b60006020828403121562001a7957600080fd5b81516001604060020a038082111562001a9157600080fd5b908301906101e0828603121562001aa757600080fd5b62001ab162001231565b8251815260208301518281111562001ac857600080fd5b62001ad68782860162001a1a565b60208301525060408301518281111562001aef57600080fd5b62001afd8782860162001a1a565b60408301525060608301518281111562001b1657600080fd5b62001b248782860162001a1a565b60608301525060808301518281111562001b3d57600080fd5b62001b4b8782860162001a1a565b60808301525060a083015160a082015260c083015160c082015260e083015160e0820152610100808401518183015250610120808401518183015250610140808401518381111562001b9c57600080fd5b62001baa8882870162001a1a565b82840152505061016062001bc08185016200198a565b90820152610180838101518381111562001bd957600080fd5b62001be78882870162001a1a565b8284015250506101a0808401518381111562001c0257600080fd5b62001c108882870162001a1a565b91830191909152506101c09283015192810192909252509392505050565b60e060020a634e487b710260009081526032600452602490fd5b60006001820162001c5d5762001c5d620019be565b5060010190565b60008060006060848603121562001c7a57600080fd5b8351925060208401519150604084015190509250925092565b6020815260006200038a6020830184620014d4565b81835281816020850137506000828201602090810191909152601f909101601f19169091010190565b60408152600062001ce760408301868862001ca8565b828103602084015262001cfc81858762001ca8565b979650505050505050565b60208152600062000fef60208301848662001ca856fe60806040523480156200001157600080fd5b506040516200262438038062002624833981016040819052620000349162000776565b6200005a6200004b6401000000006200060c810204565b64010000000062000610810204565b896200006a565b60405180910390fd5b8360008111620000d7576040517f08c379a000000000000000000000000000000000000000000000000000000000815260206004820152601c60248201527f5072696365206d7573742062652067726561746572207468616e203000000000604482015260640162000061565b6040517f27341c8a0000000000000000000000000000000000000000000000000000000081528a9073__StringUtils___________________________906327341c8a906200012b908490600401620008ce565b602060405180830381865af415801562000149573d6000803e3d6000fd5b505050506040513d601f19601f820116820180604052508101906200016f919062000903565b15620001a9576040517f08c379a000000000000000000000000000000000000000000000000000000000815260040162000061906200092e565b6040517f27341c8a000000000000000000000000000000000000000000000000000000008152899073__StringUtils___________________________906327341c8a90620001fd908490600401620008ce565b602060405180830381865af41580156200021b573d6000803e3d6000fd5b505050506040513d601f19601f8201168201806040525081019062000241919062000903565b156200027b576040517f08c379a000000000000000000000000000000000000000000000000000000000815260040162000061906200092e565b6040517f27341c8a000000000000000000000000000000000000000000000000000000008152869073__StringUtils___________________________906327341c8a90620002cf908490600401620008ce565b602060405180830381865af4158015620002ed573d6000803e3d6000fd5b505050506040513d601f19601f8201168201806040525081019062000313919062000903565b156200034d576040517f08c379a000000000000000000000000000000000000000000000000000000000815260040162000061906200092e565b6040517f27341c8a000000000000000000000000000000000000000000000000000000008152869073__StringUtils___________________________906327341c8a90620003a1908490600401620008ce565b602060405180830381865af4158015620003bf573d6000803e3d6000fd5b505050506040513d601f19601f82011682018060405250810190620003e5919062000903565b156200041f576040517f08c379a000000000000000000000000000000000000000000000000000000000815260040162000061906200092e565b8e600260006101000a815481600160a060020a030219169083600160a060020a031602179055508f6001819055508d600390816200045e919062000a0d565b5060046200046d8e8262000a0d565b5060066200047c8d8262000a0d565b5060076200048b8c8262000a0d565b506040517f27341c8a00000000000000000000000000000000000000000000000000000000815273__StringUtils___________________________906327341c8a90620004de908e90600401620008ce565b602060405180830381865af4158015620004fc573d6000803e3d6000fd5b505050506040513d601f19601f8201168201806040525081019062000522919062000903565b1562000553576040518060c00160405280609581526020016200258f6095913960079062000551908262000a0d565b505b6008620005618b8262000a0d565b5060006009819055600a819055600b8a90556005805460018101825591527f036b6384b5eca791c62761152d0c79bb0604c104a5fb6f4eb0703f3154bb3db001620005ad888262000a0d565b50620005c8600e6401000000006200123e6200066082021704565b620005e2600f6401000000006200123e6200066082021704565b600c620005f0898262000a0d565b505042600d555062000adf9d5050505050505050505050505050565b3390565b60008054600160a060020a03838116600160a060020a0319831681178455604051919092169283917f8be0079c531659141344cd1fd0a4f28419497f9722a3daafe3b4186f6b6457e09190a35050565b60009055565b8051600160a060020a03811681146200067e57600080fd5b919050565b7f4e487b7100000000000000000000000000000000000000000000000000000000600052604160045260246000fd5b60005b83811015620006cf578181015183820152602001620006b5565b83811115620006df576000848401525b50505050565b600082601f830112620006f757600080fd5b81516001604060020a038082111562000714576200071462000683565b604051601f8301601f19908116603f011681019082821181831017156200073f576200073f62000683565b816040528381528660208588010111156200075957600080fd5b6200076c846020830160208901620006b2565b9695505050505050565b6000806000806000806000806000806101408b8d0312156200079757600080fd5b8a519950620007a960208c0162000666565b985060408b01516001604060020a0380821115620007c657600080fd5b620007d48e838f01620006e5565b995060608d0151915080821115620007eb57600080fd5b620007f98e838f01620006e5565b985060808d01519150808211156200081057600080fd5b6200081e8e838f01620006e5565b975060a08d01519150808211156200083557600080fd5b620008438e838f01620006e5565b965060c08d01519150808211156200085a57600080fd5b620008688e838f01620006e5565b955060e08d015194506101008d01519150808211156200088757600080fd5b620008958e838f01620006e5565b93506101208d0151915080821115620008ad57600080fd5b50620008bc8d828e01620006e5565b9150509295989b9194979a5092959850565b6020815260008251806020840152620008ef816040850160208701620006b2565b601f01601f19169190910160400192915050565b6000602082840312156200091657600080fd5b815180151581146200092757600080fd5b9392505050565b60208082526018908201527f537472696e67206d757374206e6f7420626520656d7074790000000000000000604082015260600190565b6002810460018216806200097a57607f821691505b602082108103620009b4577f4e487b7100000000000000000000000000000000000000000000000000000000600052602260045260246000fd5b50919050565b601f82111562000a08576000818152602081206020601f86010481016020861015620009e35750805b6020601f860104820191505b8181101562000a0457828155600101620009ef565b5050505b505050565b81516001604060020a0381111562000a295762000a2962000683565b62000a418162000a3a845462000965565b84620009ba565b602080601f83116001811462000a7d576000841562000a605750858301515b60028086026008870290910a600019041982161786555062000a04565b600085815260208120601f198616915b8281101562000aae5788860151825594840194600190910190840162000a8d565b508582101562000acf57878501516008601f88160260020a60001904191681555b5050505050600202600101905550565b611aa08062000aef6000396000f3fe608060405234801561001057600080fd5b50600436106101205760e060020a600035046302d05d3f811461012557806306fdde031461015557806334b1a7cc1461016a5780634ad3d57d146101825780636904c94d1461019757806370b8fd921461019f578063715018a6146101cd5780637284e416146101d557806373b8fc80146101dd5780637ef948ba146101fa57806381ecdf451461020d5780638da5cb5b14610220578063a035b1fe14610228578063a512bd7914610231578063af640d0f14610239578063d23fe7c714610242578063d68387c71461024c578063e26799ff14610254578063e9cd36d314610269578063f22b01271461027c578063f2fde38b1461028f578063fabec44a146102a2578063fafb1b01146102aa575b600080fd5b60025461013890600160a060020a031681565b604051600160a060020a0390911681526020015b60405180910390f35b61015d6102bd565b60405161014c91906113bb565b600f546101749081565b60405190815260200161014c565b61019561019036600461141d565b61034b565b005b61015d610438565b6101b26101ad36600461145e565b610445565b6040805193845260208401929092529082015260600161014c565b61019561050a565b61015d61051e565b6101e561052b565b6040805192835260208301919091520161014c565b61019561020836600461149a565b61054d565b61019561021b36600461141d565b61070d565b6101386107eb565b610174600b5481565b61015d6107fa565b61017460015481565b600e546101749081565b61015d610807565b61025c610814565b60405161014c9190611574565b6101956102773660046116be565b610be2565b61025c61028a3660046116e5565b610c3c565b61019561029d366004611711565b611025565b61015d6110a4565b6101956102b836600461141d565b611160565b600380546102ca9061173a565b80601f01602080910402602001604051908101604052809291908181526020018280546102f69061173a565b80156103435780601f1061031857610100808354040283529160200191610343565b820191906000526020600020905b81548152906001019060200180831161032657829003601f168201915b505050505081565b81818080601f0160208091040260200160405190810160405280939291908181526020018383808284376000920191909152505060405160e160020a63139a0e4502815273__StringUtils___________________________92506327341c8a91506103bb9084906004016113bb565b602060405180830381865af41580156103d8573d6000803e3d6000fd5b505050506040513d601f19601f820116820180604052508101906103fc9190611778565b156104255760405160e560020a62461bcd02815260040161041c90611795565b60405180910390fd5b600761043283858361182e565b50505050565b600880546102ca9061173a565b6000806000610452611244565b83600581111561046157600080fd5b85600581111561047057600080fd5b6000600a5461047e600e5490565b60095461048b9190611905565b6104959190611924565b9050866000036104ad576104ad600e80546001019055565b6104b78882611924565b90506104c3878261193c565b90506104ce600e5490565b6104d8908261196d565b600955600e546104e89082611981565b600a819055600954906104fa600e5490565b9550955095505050509250925092565b610512611244565b61051c60006112a6565b565b600480546102ca9061173a565b6000806000600954116105415750600091829150565b5050600954600a549091565b60405160e160020a63139a0e45028152839073__StringUtils___________________________906327341c8a906105899084906004016113bb565b602060405180830381865af41580156105a6573d6000803e3d6000fd5b505050506040513d601f19601f820116820180604052508101906105ca9190611778565b156105ea5760405160e560020a62461bcd02815260040161041c90611795565b82828080601f0160208091040260200160405190810160405280939291908181526020018383808284376000920191909152505060405160e160020a63139a0e4502815273__StringUtils___________________________92506327341c8a915061065a9084906004016113bb565b602060405180830381865af4158015610677573d6000803e3d6000fd5b505050506040513d601f19601f8201168201806040525081019061069b9190611778565b156106bb5760405160e560020a62461bcd02815260040161041c90611795565b60066106c884868361182e565b50600580546001810182556000919091527f036b6384b5eca791c62761152d0c79bb0604c104a5fb6f4eb0703f3154bb3db0016107058682611995565b505050505050565b81818080601f0160208091040260200160405190810160405280939291908181526020018383808284376000920191909152505060405160e160020a63139a0e4502815273__StringUtils___________________________92506327341c8a915061077d9084906004016113bb565b602060405180830381865af415801561079a573d6000803e3d6000fd5b505050506040513d601f19601f820116820180604052508101906107be9190611778565b156107de5760405160e560020a62461bcd02815260040161041c90611795565b600361043283858361182e565b600054600160a060020a031690565b600680546102ca9061173a565b600780546102ca9061173a565b61081c6112f6565b6000604051806101e0016040528060015481526020016003805461083f9061173a565b80601f016020809104026020016040519081016040528092919081815260200182805461086b9061173a565b80156108b85780601f1061088d576101008083540402835291602001916108b8565b820191906000526020600020905b81548152906001019060200180831161089b57829003601f168201915b50505050508152602001600480546108cf9061173a565b80601f01602080910402602001604051908101604052809291908181526020018280546108fb9061173a565b80156109485780601f1061091d57610100808354040283529160200191610948565b820191906000526020600020905b81548152906001019060200180831161092b57829003601f168201915b505050505081526020016007805461095f9061173a565b80601f016020809104026020016040519081016040528092919081815260200182805461098b9061173a565b80156109d85780601f106109ad576101008083540402835291602001916109d8565b820191906000526020600020905b8154815290600101906020018083116109bb57829003601f168201915b50505050508152602001600880546109ef9061173a565b80601f0160208091040260200160405190810160405280929190818152602001828054610a1b9061173a565b8015610a685780601f10610a3d57610100808354040283529160200191610a68565b820191906000526020600020905b815481529060010190602001808311610a4b57829003601f168201915b50505050508152602001600b548152602001610a83600e5490565b81526020016009548152602001600a54815260200160008152602001610aa76110a4565b815260200160011515815260200160068054610ac29061173a565b80601f0160208091040260200160405190810160405280929190818152602001828054610aee9061173a565b8015610b3b5780601f10610b1057610100808354040283529160200191610b3b565b820191906000526020600020905b815481529060010190602001808311610b1e57829003601f168201915b50505050508152602001600c8054610b529061173a565b80601f0160208091040260200160405190810160405280929190818152602001828054610b7e9061173a565b8015610bcb5780601f10610ba057610100808354040283529160200191610bcb565b820191906000526020600020905b815481529060010190602001808311610bae57829003601f168201915b5050509183525050600d5460209091015292915050565b8060008111610c365760405160e560020a62461bcd02815260206004820152601c60248201527f5072696365206d7573742062652067726561746572207468616e203000000000604482015260640161041c565b50600b55565b610c446112f6565b6000604051806101e00160405280600154815260200160038054610c679061173a565b80601f0160208091040260200160405190810160405280929190818152602001828054610c939061173a565b8015610ce05780601f10610cb557610100808354040283529160200191610ce0565b820191906000526020600020905b815481529060010190602001808311610cc357829003601f168201915b5050505050815260200160048054610cf79061173a565b80601f0160208091040260200160405190810160405280929190818152602001828054610d239061173a565b8015610d705780601f10610d4557610100808354040283529160200191610d70565b820191906000526020600020905b815481529060010190602001808311610d5357829003601f168201915b5050505050815260200160078054610d879061173a565b80601f0160208091040260200160405190810160405280929190818152602001828054610db39061173a565b8015610e005780601f10610dd557610100808354040283529160200191610e00565b820191906000526020600020905b815481529060010190602001808311610de357829003601f168201915b5050505050815260200160088054610e179061173a565b80601f0160208091040260200160405190810160405280929190818152602001828054610e439061173a565b8015610e905780601f10610e6557610100808354040283529160200191610e90565b820191906000526020600020905b815481529060010190602001808311610e7357829003601f168201915b50505050508152602001600b548152602001610eab600e5490565b81526020016009548152602001600a548152602001848152602001610ece6110a4565b8152602001851515815260200185610ef55760405180602001604052806000815250610f81565b60068054610f029061173a565b80601f0160208091040260200160405190810160405280929190818152602001828054610f2e9061173a565b8015610f7b5780601f10610f5057610100808354040283529160200191610f7b565b820191906000526020600020905b815481529060010190602001808311610f5e57829003601f168201915b50505050505b8152602001600c8054610f939061173a565b80601f0160208091040260200160405190810160405280929190818152602001828054610fbf9061173a565b801561100c5780601f10610fe15761010080835404028352916020019161100c565b820191906000526020600020905b815481529060010190602001808311610fef57829003601f168201915b5050509183525050600d54602090910152949350505050565b61102d611244565b600160a060020a0381166110985760405160e560020a62461bcd02815260206004820152602660248201527f4f776e61626c653a206e6577206f776e657220697320746865207a65726f2061604482015260d060020a6564647265737302606482015260840161041c565b6110a1816112a6565b50565b60058054606091906110b89060019061193c565b815481106110c8576110c8611a50565b9060005260206000200180546110dd9061173a565b80601f01602080910402602001604051908101604052809291908181526020018280546111099061173a565b80156111565780601f1061112b57610100808354040283529160200191611156565b820191906000526020600020905b81548152906001019060200180831161113957829003601f168201915b5050505050905090565b81818080601f0160208091040260200160405190810160405280939291908181526020018383808284376000920191909152505060405160e160020a63139a0e4502815273__StringUtils___________________________92506327341c8a91506111d09084906004016113bb565b602060405180830381865af41580156111ed573d6000803e3d6000fd5b505050506040513d601f19601f820116820180604052508101906112119190611778565b156112315760405160e560020a62461bcd02815260040161041c90611795565b600461043283858361182e565b60009055565b3361124d6107eb565b600160a060020a03161461051c5760405160e560020a62461bcd02815260206004820181905260248201527f4f776e61626c653a2063616c6c6572206973206e6f7420746865206f776e6572604482015260640161041c565b60008054600160a060020a03838116600160a060020a0319831681178455604051919092169283917f8be0079c531659141344cd1fd0a4f28419497f9722a3daafe3b4186f6b6457e09190a35050565b604051806101e0016040528060008152602001606081526020016060815260200160608152602001606081526020016000815260200160008152602001600081526020016000815260200160008152602001606081526020016000151581526020016060815260200160608152602001600081525090565b6000815180845260005b8181101561139457602081850181015186830182015201611378565b818111156113a6576000602083870101525b50601f01601f19169290920160200192915050565b6020815260006113ce602083018461136e565b9392505050565b60008083601f8401126113e757600080fd5b5081356001604060020a038111156113fe57600080fd5b60208301915083602082850101111561141657600080fd5b9250929050565b6000806020838503121561143057600080fd5b82356001604060020a0381111561144657600080fd5b611452858286016113d5565b90969095509350505050565b6000806040838503121561147157600080fd5b50508035926020909101359150565b60e060020a634e487b710260009081526041600452602490fd5b6000806000604084860312156114af57600080fd5b83356001604060020a03808211156114c657600080fd5b818601915086601f8301126114da57600080fd5b8135818111156114ec576114ec611480565b604051601f8201601f19908116603f0116810190838211818310171561151457611514611480565b8160405282815289602084870101111561152d57600080fd5b82602086016020830137600060208483010152809750505050602086013591508082111561155a57600080fd5b50611567868287016113d5565b9497909650939450505050565b6020815281516020820152600060208301516101e080604085015261159d61020085018361136e565b91506040850151601f19808685030160608701526115bb848361136e565b935060608701519150808685030160808701526115d8848361136e565b935060808701519150808685030160a08701526115f5848361136e565b935060a087015160c087015260c087015160e087015260e08701519150610100828188015280880151925050610120828188015280880151925050610140828188015280880151925050610160818786030181880152611655858461136e565b94508088015192505061018061166e8188018415159052565b808801519250506101a081878603018188015261168b858461136e565b9450808801519250506101c08187860301818801526116aa858461136e565b970151959092019490945250929392505050565b6000602082840312156116d057600080fd5b5035919050565b80151581146110a157600080fd5b600080604083850312156116f857600080fd5b8235611703816116d7565b946020939093013593505050565b60006020828403121561172357600080fd5b8135600160a060020a03811681146113ce57600080fd5b60028104600182168061174e57607f821691505b6020821081036117725760e060020a634e487b710260009081526022600452602490fd5b50919050565b60006020828403121561178a57600080fd5b81516113ce816116d7565b60208082526018908201527f537472696e67206d757374206e6f7420626520656d7074790000000000000000604082015260600190565b601f821115611812576000818152602081206020601f860104810160208610156117f35750805b6020601f860104820191505b81811015610705578281556001016117ff565b505050565b6002808302600893909302900a6000190419161790565b6001604060020a0383111561184557611845611480565b61185983611853835461173a565b836117cc565b6000601f84116001811461188757600085156118755750838201355b61187f8682611817565b8455506118e4565b600083815260209020601f19861690835b828110156118b85786850135825560209485019460019092019101611898565b50868210156118d857858401356008601f89160260020a60001904191681555b50506001600286020183555b5050505050565b60e060020a634e487b710260009081526011600452602490fd5b600081600019048311821515161561191f5761191f6118eb565b500290565b60008219821115611937576119376118eb565b500190565b60008282101561194e5761194e6118eb565b500390565b60e060020a634e487b710260009081526012600452602490fd5b60008261197c5761197c611953565b500490565b60008261199057611990611953565b500690565b81516001604060020a038111156119ae576119ae611480565b6119c2816119bc845461173a565b846117cc565b602080601f8311600181146119f157600084156119df5750858301515b6119e98582611817565b865550610705565b600085815260208120601f198616915b82811015611a2057888601518255948401946001909101908401611a01565b5085821015611a4057878501516008601f88160260020a60001904191681555b5050505050600202600101905550565b60e060020a634e487b710260009081526032600452602490fdfea2646970667358221220144f04d3a8887feef5e6cd279775ef2e4059ad7d8c07dfb66f3f8009582ec98164736f6c634300080f003368747470733a2f2f65787465726e616c2d636f6e74656e742e6475636b6475636b676f2e636f6d2f69752f3f753d6874747073253341253246253246692e70696e696d672e636f6d2532466f726967696e616c7325324632302532463065253246663825324632303065663832623331383266663735626630623264653534393665363163662e6a706726663d31266e6f66623d31a2646970667358221220d3bd3c4f839ddc6b19209c62d4c886680a42595df04811fd06159ef2653d479164736f6c634300080f0033608060405234801561001057600080fd5b50610033610025640100000000610038810204565b64010000000061003c810204565b61008c565b3390565b60008054600160a060020a03838116600160a060020a0319831681178455604051919092169283917f8be0079c531659141344cd1fd0a4f28419497f9722a3daafe3b4186f6b6457e09190a35050565b6106148061009b6000396000f3fe608060405234801561001057600080fd5b506004361061004f5760e060020a6000350463715018a6811461005457806381cd080f1461005e5780638da5cb5b14610086578063f2fde38b146100a6575b600080fd5b61005c6100b9565b005b61007161006c36600461044f565b6100cd565b60405190151581526020015b60405180910390f35b61008e610187565b604051600160a060020a03909116815260200161007d565b61005c6100b436600461052a565b610196565b6100c1610215565b6100cb6000610277565b565b6000806100db8560006102c7565b9050600061011f8286868080601f01602080910402602001604051908101604052809392919081815260200183838082843760009201919091525061033e92505050565b9050600160a060020a038116331461017b5760405160e560020a62461bcd0281526020600482015260146024820152606160020a7339b2b73232b91034b9903737ba1039b4b3b732b90260448201526064015b60405180910390fd5b50600195945050505050565b600054600160a060020a031690565b61019e610215565b600160a060020a0381166102095760405160e560020a62461bcd02815260206004820152602660248201527f4f776e61626c653a206e6577206f776e657220697320746865207a65726f2061604482015260d060020a65646472657373026064820152608401610172565b61021281610277565b50565b3361021e610187565b600160a060020a0316146100cb5760405160e560020a62461bcd02815260206004820181905260248201527f4f776e61626c653a2063616c6c6572206973206e6f7420746865206f776e65726044820152606401610172565b60008054600160a060020a03838116600160a060020a0319831681178455604051919092169283917f8be0079c531659141344cd1fd0a4f28419497f9722a3daafe3b4186f6b6457e09190a35050565b60008060005b6020811015610336576102e1816008610574565b856102ec8387610593565b815181106102fc576102fc6105ab565b60209101015160029190910a60f860020a91829004909102600160f860020a0319160491909117908061032e816105c5565b9150506102cd565b509392505050565b60008060008061034d856103bd565b6040805160008152602081018083528b905260ff8516918101919091526060810183905260808101829052929550909350915060019060a0016020604051602081039080840390855afa1580156103a8573d6000803e3d6000fd5b5050604051601f190151979650505050505050565b600080600083516041146103d057600080fd5b5050506020810151604082015160609092015160001a92909190565b60e060020a634e487b710260009081526041600452602490fd5b60008083601f84011261041857600080fd5b50813567ffffffffffffffff81111561043057600080fd5b60208301915083602082850101111561044857600080fd5b9250929050565b60008060006040848603121561046457600080fd5b833567ffffffffffffffff8082111561047c57600080fd5b818601915086601f83011261049057600080fd5b8135818111156104a2576104a26103ec565b604051601f8201601f19908116603f011681019083821181831017156104ca576104ca6103ec565b816040528281528960208487010111156104e357600080fd5b82602086016020830137600060208483010152809750505050602086013591508082111561051057600080fd5b5061051d86828701610406565b9497909650939450505050565b60006020828403121561053c57600080fd5b8135600160a060020a038116811461055357600080fd5b9392505050565b60e060020a634e487b710260009081526011600452602490fd5b600081600019048311821515161561058e5761058e61055a565b500290565b600082198211156105a6576105a661055a565b500190565b60e060020a634e487b710260009081526032600452602490fd5b6000600182016105d7576105d761055a565b506001019056fea2646970667358221220e3d214a89e85a1a03978033c03aef3d03107329ccc8eea9d379764625a27b6d264736f6c634300080f0033",
  "immutableReferences": {},
  "source": "//SPDX-License-Identifier: UNLICENSED\r\npragma solidity ^0.8.15;\r\nimport {User} from '../Users/User.sol';\r\nimport {App} from '../Apps/App.sol';\r\nimport {Constants} from '../Utils/Constants.sol';\r\nimport {StringUtils} from '../Utils/StringUtils.sol';\r\nimport {AddressUtils, AddressPayableUtils} from '../Utils/AddressUtils.sol';\r\nimport {Events} from '../Utils/Events.sol';\r\nimport {AppInfoLibrary} from '../Utils/AppInfoLibrary.sol';\r\nimport {UserManager} from '../Users/UserManager.sol';\r\nimport {AppManager} from '../Apps/AppManager.sol';\r\nimport {Verify} from '../Utils/SignatureVerifier.sol';\r\n\r\nimport \"@openzeppelin/contracts/utils/structs/EnumerableMap.sol\";\r\nimport \"@openzeppelin/contracts/utils/Counters.sol\";\r\nimport \"@openzeppelin/contracts/utils/Strings.sol\";\r\nimport \"@openzeppelin/contracts/utils/Address.sol\";\r\n\r\n\r\n\r\ncontract DAppStore{\r\n    using StringUtils for string;\r\n    using AddressUtils for address;\r\n    using AddressPayableUtils for address payable;\r\n    using Strings for uint;\r\n\r\n    UserManager private userManager;\r\n    AppManager private appManager;\r\n    Verify private verifier;\r\n    uint private key_length = 10;\r\n    string constant random_string = 'abcdefghijklmnopqrstuvwxyzABCDEFGHIJKLMNOPQRSTUVWXYZ0123456789';\r\n\r\n    // events\r\n\r\n    //modifiers\r\n    modifier userIsRegistered(address _user_address){\r\n        require(!_user_address.isAddressZero(), \"Invalid user address\");\r\n        require(userManager.userExists(), 'User doesn\\'t exists');\r\n        _;\r\n    }\r\n\r\n    modifier isAppOwner(uint _app_id){\r\n        address _app_address = address(appManager.getAppAddress(_app_id));\r\n        require(userManager.isUserAppOwner(_app_address), \"User is not app owner\");\r\n        _;\r\n    }\r\n\r\n    modifier isAppCreator(uint _app_id){\r\n        address _app_address = address(appManager.getAppAddress(_app_id));\r\n        require(userManager.isUserAppCreator(_app_address), \"User is not app creator\");\r\n        _;\r\n    }\r\n\r\n    modifier validateSignature(string memory message, string calldata signature){\r\n        // bytes message_bytes = bytes(message);\r\n        require(message.len() <= 32 && message.len() > 0, \"Message is empty\");\r\n        require(verifier.verifySignature(message, signature), \"Invalid signature\");\r\n        _;\r\n    }\r\n\r\n    constructor(){\r\n        userManager = new UserManager();\r\n        appManager = new AppManager();\r\n        verifier = new Verify();\r\n    }\r\n    \r\n\r\n    function registerUser() external {\r\n        string memory key = block.timestamp.toString();\r\n        userManager.createUser(key);\r\n    }\r\n\r\n\r\n    function rateApp(uint _app_id, uint new_rating) external{\r\n        // //todo: inc num of ratings on app\r\n        // User user = User(users[msg.sender]);\r\n        // address app_address = apps.get(_app_id);\r\n        // App curr_app = App(app_address);\r\n\r\n        // uint old_rating = user.getRatingForApp(app_address);\r\n        // user.rateApp(app_address, new_rating);\r\n        // (uint rating_int, uint rating_modulu, uint num_ratings) = curr_app.rateApp(new_rating, old_rating);\r\n        // emit Events.AppRated(_app_id, rating_int, rating_modulu, num_ratings);\r\n    }\r\n\r\n}",
  "sourcePath": "C:\\Users\\User\\Documents\\GitHub\\Backend\\SmartContracts\\contracts\\DAppStore\\DAppStore2.sol",
  "compiler": {
    "name": "solc",
    "version": "0.8.15+commit.e14f2714.Emscripten.clang"
  },
  "schemaVersion": "3.4.8",
  "updatedAt": "2022-07-21T13:42:59.382Z",
  "devdoc": {
    "kind": "dev",
    "methods": {},
    "version": 1
  },
  "userdoc": {
    "kind": "user",
    "methods": {},
    "version": 1
  }
}