{
  "contractName": "dAppstore",
  "abi": [
    {
      "inputs": [],
      "stateMutability": "nonpayable",
      "type": "constructor"
    },
    {
      "inputs": [
        {
          "internalType": "string",
          "name": "_name",
          "type": "string"
        },
        {
          "internalType": "string",
          "name": "_description",
          "type": "string"
        },
        {
          "internalType": "string",
          "name": "_magnetLink",
          "type": "string"
        },
        {
          "internalType": "string",
          "name": "_imgUrl",
          "type": "string"
        },
        {
          "internalType": "string",
          "name": "_company",
          "type": "string"
        },
        {
          "internalType": "uint256",
          "name": "_price",
          "type": "uint256"
        },
        {
          "internalType": "string",
          "name": "_category",
          "type": "string"
        },
        {
          "internalType": "string",
          "name": "_fileSha256",
          "type": "string"
        }
      ],
      "name": "createNewApp",
      "outputs": [],
      "stateMutability": "nonpayable",
      "type": "function"
    },
    {
      "inputs": [
        {
          "internalType": "uint256",
          "name": "app_id",
          "type": "uint256"
        },
        {
          "internalType": "string",
          "name": "_name",
          "type": "string"
        },
        {
          "internalType": "string",
          "name": "_description",
          "type": "string"
        },
        {
          "internalType": "string",
          "name": "_magnetLink",
          "type": "string"
        },
        {
          "internalType": "string",
          "name": "_imgUrl",
          "type": "string"
        },
        {
          "internalType": "uint256",
          "name": "_price",
          "type": "uint256"
        },
        {
          "internalType": "string",
          "name": "_fileSha256",
          "type": "string"
        }
      ],
      "name": "updateApp",
      "outputs": [],
      "stateMutability": "nonpayable",
      "type": "function"
    },
    {
      "inputs": [
        {
          "internalType": "uint256",
          "name": "app_id",
          "type": "uint256"
        }
      ],
      "name": "purchaseApp",
      "outputs": [],
      "stateMutability": "payable",
      "type": "function"
    },
    {
      "inputs": [
        {
          "internalType": "uint256",
          "name": "start",
          "type": "uint256"
        },
        {
          "internalType": "uint256",
          "name": "len",
          "type": "uint256"
        }
      ],
      "name": "getAppBatch",
      "outputs": [
        {
          "components": [
            {
              "internalType": "uint256",
              "name": "id",
              "type": "uint256"
            },
            {
              "internalType": "string",
              "name": "name",
              "type": "string"
            },
            {
              "internalType": "string",
              "name": "description",
              "type": "string"
            },
            {
              "internalType": "string",
              "name": "imgUrl",
              "type": "string"
            },
            {
              "internalType": "string",
              "name": "company",
              "type": "string"
            },
            {
              "internalType": "uint256",
              "name": "price",
              "type": "uint256"
            },
            {
              "internalType": "uint256",
              "name": "numRatings",
              "type": "uint256"
            },
            {
              "internalType": "uint256",
              "name": "ratingInt",
              "type": "uint256"
            },
            {
              "internalType": "uint256",
              "name": "ratingModulu",
              "type": "uint256"
            },
            {
              "internalType": "uint256",
              "name": "userRating",
              "type": "uint256"
            },
            {
              "internalType": "string",
              "name": "fileSha256",
              "type": "string"
            },
            {
              "internalType": "bool",
              "name": "owned",
              "type": "bool"
            },
            {
              "internalType": "string",
              "name": "magnetLink",
              "type": "string"
            },
            {
              "internalType": "string",
              "name": "category",
              "type": "string"
            },
            {
              "internalType": "uint256",
              "name": "publishTime",
              "type": "uint256"
            }
          ],
          "internalType": "struct AppInfoLibrary.AppInfo[]",
          "name": "",
          "type": "tuple[]"
        }
      ],
      "stateMutability": "view",
      "type": "function"
    },
    {
      "inputs": [],
      "name": "getPurchasedAppsInfo",
      "outputs": [
        {
          "components": [
            {
              "internalType": "uint256",
              "name": "id",
              "type": "uint256"
            },
            {
              "internalType": "string",
              "name": "name",
              "type": "string"
            },
            {
              "internalType": "string",
              "name": "description",
              "type": "string"
            },
            {
              "internalType": "string",
              "name": "imgUrl",
              "type": "string"
            },
            {
              "internalType": "string",
              "name": "company",
              "type": "string"
            },
            {
              "internalType": "uint256",
              "name": "price",
              "type": "uint256"
            },
            {
              "internalType": "uint256",
              "name": "numRatings",
              "type": "uint256"
            },
            {
              "internalType": "uint256",
              "name": "ratingInt",
              "type": "uint256"
            },
            {
              "internalType": "uint256",
              "name": "ratingModulu",
              "type": "uint256"
            },
            {
              "internalType": "uint256",
              "name": "userRating",
              "type": "uint256"
            },
            {
              "internalType": "string",
              "name": "fileSha256",
              "type": "string"
            },
            {
              "internalType": "bool",
              "name": "owned",
              "type": "bool"
            },
            {
              "internalType": "string",
              "name": "magnetLink",
              "type": "string"
            },
            {
              "internalType": "string",
              "name": "category",
              "type": "string"
            },
            {
              "internalType": "uint256",
              "name": "publishTime",
              "type": "uint256"
            }
          ],
          "internalType": "struct AppInfoLibrary.AppInfo[]",
          "name": "",
          "type": "tuple[]"
        }
      ],
      "stateMutability": "view",
      "type": "function"
    },
    {
      "inputs": [],
      "name": "getPublishedAppsInfo",
      "outputs": [
        {
          "components": [
            {
              "internalType": "uint256",
              "name": "id",
              "type": "uint256"
            },
            {
              "internalType": "string",
              "name": "name",
              "type": "string"
            },
            {
              "internalType": "string",
              "name": "description",
              "type": "string"
            },
            {
              "internalType": "string",
              "name": "imgUrl",
              "type": "string"
            },
            {
              "internalType": "string",
              "name": "company",
              "type": "string"
            },
            {
              "internalType": "uint256",
              "name": "price",
              "type": "uint256"
            },
            {
              "internalType": "uint256",
              "name": "numRatings",
              "type": "uint256"
            },
            {
              "internalType": "uint256",
              "name": "ratingInt",
              "type": "uint256"
            },
            {
              "internalType": "uint256",
              "name": "ratingModulu",
              "type": "uint256"
            },
            {
              "internalType": "uint256",
              "name": "userRating",
              "type": "uint256"
            },
            {
              "internalType": "string",
              "name": "fileSha256",
              "type": "string"
            },
            {
              "internalType": "bool",
              "name": "owned",
              "type": "bool"
            },
            {
              "internalType": "string",
              "name": "magnetLink",
              "type": "string"
            },
            {
              "internalType": "string",
              "name": "category",
              "type": "string"
            },
            {
              "internalType": "uint256",
              "name": "publishTime",
              "type": "uint256"
            }
          ],
          "internalType": "struct AppInfoLibrary.AppInfo[]",
          "name": "",
          "type": "tuple[]"
        }
      ],
      "stateMutability": "view",
      "type": "function"
    },
    {
      "inputs": [],
      "name": "getRatedAppsInfo",
      "outputs": [
        {
          "components": [
            {
              "internalType": "uint256",
              "name": "id",
              "type": "uint256"
            },
            {
              "internalType": "string",
              "name": "name",
              "type": "string"
            },
            {
              "internalType": "string",
              "name": "description",
              "type": "string"
            },
            {
              "internalType": "string",
              "name": "imgUrl",
              "type": "string"
            },
            {
              "internalType": "string",
              "name": "company",
              "type": "string"
            },
            {
              "internalType": "uint256",
              "name": "price",
              "type": "uint256"
            },
            {
              "internalType": "uint256",
              "name": "numRatings",
              "type": "uint256"
            },
            {
              "internalType": "uint256",
              "name": "ratingInt",
              "type": "uint256"
            },
            {
              "internalType": "uint256",
              "name": "ratingModulu",
              "type": "uint256"
            },
            {
              "internalType": "uint256",
              "name": "userRating",
              "type": "uint256"
            },
            {
              "internalType": "string",
              "name": "fileSha256",
              "type": "string"
            },
            {
              "internalType": "bool",
              "name": "owned",
              "type": "bool"
            },
            {
              "internalType": "string",
              "name": "magnetLink",
              "type": "string"
            },
            {
              "internalType": "string",
              "name": "category",
              "type": "string"
            },
            {
              "internalType": "uint256",
              "name": "publishTime",
              "type": "uint256"
            }
          ],
          "internalType": "struct AppInfoLibrary.AppInfo[]",
          "name": "",
          "type": "tuple[]"
        }
      ],
      "stateMutability": "view",
      "type": "function"
    },
    {
      "inputs": [],
      "name": "getAppCount",
      "outputs": [
        {
          "internalType": "uint256",
          "name": "",
          "type": "uint256"
        }
      ],
      "stateMutability": "view",
      "type": "function"
    },
    {
      "inputs": [
        {
          "internalType": "uint256",
          "name": "_app_id",
          "type": "uint256"
        }
      ],
      "name": "getAppRating",
      "outputs": [
        {
          "internalType": "uint256",
          "name": "",
          "type": "uint256"
        },
        {
          "internalType": "uint256",
          "name": "",
          "type": "uint256"
        },
        {
          "internalType": "uint256",
          "name": "",
          "type": "uint256"
        }
      ],
      "stateMutability": "view",
      "type": "function"
    },
    {
      "inputs": [
        {
          "internalType": "uint256",
          "name": "_app_id",
          "type": "uint256"
        }
      ],
      "name": "getUserRatingForApp",
      "outputs": [
        {
          "internalType": "uint256",
          "name": "",
          "type": "uint256"
        }
      ],
      "stateMutability": "view",
      "type": "function"
    },
    {
      "inputs": [
        {
          "internalType": "uint256",
          "name": "_app_id",
          "type": "uint256"
        },
        {
          "internalType": "uint256",
          "name": "new_rating",
          "type": "uint256"
        }
      ],
      "name": "rateApp",
      "outputs": [],
      "stateMutability": "nonpayable",
      "type": "function"
    }
  ],
  "bytecode": "0x608060405234801561001057600080fd5b506100286004640100000000611a2461002d82021704565b610033565b60009055565b615cb680620000436000396000f3fe6080604052600436106200009b5760e060020a60003504632b07ac4c8114620000a05780632ce9a25f14620000c757806333e067a6146200010c57806370b8fd9214620001235780637d6a24ab14620001485780637fc442db146200017c57806380109fea14620001b05780638f89b46a14620001c85780639a9d793c14620001e0578063e0b8f2ae1462000205578063e9beca8e146200021d575b600080fd5b348015620000ad57600080fd5b50620000c5620000bf36600462001d77565b62000235565b005b348015620000d457600080fd5b50620000ec620000e636600462001eb1565b6200041c565b604080519384526020840192909252908201526060015b60405180910390f35b620000c56200011d36600462001eb1565b62000609565b3480156200013057600080fd5b50620000c56200014236600462001ecb565b62000a46565b3480156200015557600080fd5b506200016d6200016736600462001ecb565b62000c29565b60405162000103919062001f4f565b3480156200018957600080fd5b50620001a16200019b36600462001eb1565b62000ff3565b60405190815260200162000103565b348015620001bd57600080fd5b50620001a16200121f565b348015620001d557600080fd5b506200016d62001232565b348015620001ed57600080fd5b50620000c5620001ff366004620020d2565b62001364565b3480156200021257600080fd5b506200016d620017fc565b3480156200022a57600080fd5b506200016d62001925565b336000908152600360205260409081902054905160e060020a6386bd3f9102815273__AddressUtils__________________________916386bd3f91916200028a91600160a060020a031690600401620021c6565b602060405180830381865af4158015620002a8573d6000803e3d6000fd5b505050506040513d601f19601f82011682018060405250810190620002ce9190620021f0565b15620002df57620002df3362001a2a565b6000620002ed600062001acc565b9050600081338b8b8b8b8b8b8b8b604051620003099062001c5c565b6200031e9a999897969594939291906200220e565b604051809103906000f0801580156200033b573d6000803e3d6000fd5b5090506200034c6000838362001ad9565b50336000908152600360205260409081902054905160e160020a6371fbae8f028152600160a060020a039091169063e3f75d1e9062000390908490600401620021c6565b600060405180830381600087803b158015620003ab57600080fd5b505af1158015620003c0573d6000803e3d6000fd5b5050505033600160a060020a0316827f28522faef084eaf14884ca4dfb443eec1792a46a067e8af55ada5cd7e1cd03728c89888a8f60405162000408959493929190620022d8565b60405180910390a350505050505050505050565b60008080836200042d828262001af9565b620004585760405160e560020a62461bcd0281526004016200044f906200233f565b60405180910390fd5b6200046560008262001b0e565b60405160e060020a6386bd3f9102815273__AddressUtils__________________________916386bd3f9191620004a991600160a060020a031690600401620021c6565b602060405180830381865af4158015620004c7573d6000803e3d6000fd5b505050506040513d601f19601f82011682018060405250810190620004ed9190620021f0565b15620005105760405160e560020a62461bcd0281526004016200044f9062002369565b60006200051e818762001b0e565b905060008082600160a060020a03166373b8fc806040518163ffffffff1660e060020a0281526004016040805180830381865afa15801562000564573d6000803e3d6000fd5b505050506040513d601f19601f820116820180604052508101906200058a919062002398565b91509150818184600160a060020a031663d23fe7c76040518163ffffffff1660e060020a028152600401602060405180830381865afa158015620005d2573d6000803e3d6000fd5b505050506040513d601f19601f82011682018060405250810190620005f89190620023bd565b965096509650505050509193909250565b806200061760008262001af9565b620006395760405160e560020a62461bcd0281526004016200044f906200233f565b6200064660008262001b0e565b60405160e060020a6386bd3f9102815273__AddressUtils__________________________916386bd3f91916200068a91600160a060020a031690600401620021c6565b602060405180830381865af4158015620006a8573d6000803e3d6000fd5b505050506040513d601f19601f82011682018060405250810190620006ce9190620021f0565b15620006f15760405160e560020a62461bcd0281526004016200044f9062002369565b336000818152600360205260409081902054905160e060020a6386bd3f9102815273__AddressUtils__________________________916386bd3f91916200074691600160a060020a031690600401620021c6565b602060405180830381865af415801562000764573d6000803e3d6000fd5b505050506040513d601f19601f820116820180604052508101906200078a9190620021f0565b156200079b576200079b8162001a2a565b6000620007a9818562001b0e565b600160a060020a038084166000908152600360205260409081902054905160e260020a63012935c102815292935016906304a4d70490620007ef908490600401620021c6565b602060405180830381865afa1580156200080d573d6000803e3d6000fd5b505050506040513d601f19601f82011682018060405250810190620008339190620021f0565b156200087e5760405160e560020a62461bcd0281526020600482015260136024820152606860020a7243616e277420627579206170702074776963650260448201526064016200044f565b6000819050600081600160a060020a03166302d05d3f6040518163ffffffff1660e060020a028152600401602060405180830381865afa158015620008c7573d6000803e3d6000fd5b505050506040513d601f19601f82011682018060405250810190620008ed9190620023d7565b600160a060020a03163460405160006040518083038185875af1925050503d806000811462000939576040519150601f19603f3d011682016040523d82523d6000602084013e6200093e565b606091505b50509050806200098e5760405160e560020a62461bcd0281526020600482015260146024820152606160020a732330b4b632b2103a379039b2b7321022ba3432b90260448201526064016200044f565b600160a060020a038085166000908152600360205260409081902054905160e060020a6391de1ba30281529116906391de1ba390620009d2908690600401620021c6565b600060405180830381600087803b158015620009ed57600080fd5b505af115801562000a02573d6000803e3d6000fd5b5050604051600160a060020a038087169350871691507fba9cb3f403a15fc11cbc07546f998c36867f843fa32a222ee76a41a9e6af7d0790600090a3505050505050565b33600090815260036020526040812054600160a060020a03169062000a6c818562001b0e565b60405160e060020a639f9f7f850281529091508190600090600160a060020a03851690639f9f7f859062000aa5908590600401620021c6565b602060405180830381865afa15801562000ac3573d6000803e3d6000fd5b505050506040513d601f19601f8201168201806040525081019062000ae99190620023bd565b60405160e060020a63983c0a5b028152600160a060020a038581166004830152602482018890529192509085169063983c0a5b90604401600060405180830381600087803b15801562000b3b57600080fd5b505af115801562000b50573d6000803e3d6000fd5b505060405160e160020a63385c7ec90281526004810188905260248101849052600092508291508190600160a060020a038616906370b8fd92906044016060604051808303816000875af115801562000bad573d6000803e3d6000fd5b505050506040513d601f19601f8201168201806040525081019062000bd3919062002402565b6040805184815260208101849052908101829052929550909350915089907f4686fd5d77ea9a1984201e56edd878f506e82fdb6401d0bf70543d172ef37a739060600160405180910390a2505050505050505050565b606082826000811162000c765760405160e560020a62461bcd02815260206004820152600e6024820152609360020a6d092dcecc2d8d2c840d8cadccee8d0260448201526064016200044f565b3360009081526003602052604080822054905160e060020a6386bd3f9102815273__AddressUtils__________________________916386bd3f919162000cca91600160a060020a031690600401620021c6565b602060405180830381865af415801562000ce8573d6000803e3d6000fd5b505050506040513d601f19601f8201168201806040525081019062000d0e9190620021f0565b159050600062000d1f600062001acc565b9050600081871062000d32578162000d34565b865b90506000816001604060020a0381111562000d535762000d5362001c78565b60405190808252806020026020018201604052801562000e0257816020015b62000dee604051806101e0016040528060008152602001606081526020016060815260200160608152602001606081526020016000815260200160008152602001600081526020016000815260200160008152602001606081526020016000151581526020016060815260200160608152602001600081525090565b81526020019060019003908162000d725790505b50905087821115801562000e165750828211155b62000e5b5760405160e560020a62461bcd02815260206004820152600e6024820152609260020a6d1b5a5b9a5b5d5b4819985a5b19590260448201526064016200044f565b60005b8281101562000fe65760008462000e76838d6200244b565b62000e82919062002466565b9050600062000e92818362001b0e565b9050600087801562000f265750336000908152600360205260409081902054905160e260020a63012935c1028152600160a060020a03909116906304a4d7049062000ee2908590600401620021c6565b602060405180830381865afa15801562000f00573d6000803e3d6000fd5b505050506040513d601f19601f8201168201806040525081019062000f269190620021f0565b905081600160a060020a031663f22b01278262000f438662000ff3565b60405160e060020a63ffffffff851602815291151560048301526024820152604401600060405180830381865afa15801562000f83573d6000803e3d6000fd5b505050506040513d6000823e601f3d908101601f1916820160405262000fad919081019062002683565b85858151811062000fc25762000fc2620026bb565b6020026020010181905250505050808062000fdd90620026d5565b91505062000e5e565b5098975050505050505050565b60008162001002828262001af9565b620010245760405160e560020a62461bcd0281526004016200044f906200233f565b6200103160008262001b0e565b60405160e060020a6386bd3f9102815273__AddressUtils__________________________916386bd3f91916200107591600160a060020a031690600401620021c6565b602060405180830381865af415801562001093573d6000803e3d6000fd5b505050506040513d601f19601f82011682018060405250810190620010b99190620021f0565b15620010dc5760405160e560020a62461bcd0281526004016200044f9062002369565b336000908152600360205260409081902054905160e060020a6386bd3f9102815273__AddressUtils__________________________916386bd3f91916200113191600160a060020a031690600401620021c6565b602060405180830381865af41580156200114f573d6000803e3d6000fd5b505050506040513d601f19601f82011682018060405250810190620011759190620021f0565b1562001185576000915062001219565b33600090815260036020526040812054600160a060020a031690639f9f7f8590620011b1908662001b0e565b6040518263ffffffff1660e060020a028152600401620011d29190620021c6565b602060405180830381865afa158015620011f0573d6000803e3d6000fd5b505050506040513d601f19601f82011682018060405250810190620012169190620023bd565b91505b50919050565b60006200122d600062001acc565b905090565b336000908152600360205260409081902054905160e060020a6386bd3f9102815260609173__AddressUtils__________________________916386bd3f91916200128c91600160a060020a0390911690600401620021c6565b602060405180830381865af4158015620012aa573d6000803e3d6000fd5b505050506040513d601f19601f82011682018060405250810190620012d09190620021f0565b15620012dc5750606090565b3360009081526003602052604080822054815160e060020a63b8c3773f0281529151600160a060020a039091169163b8c3773f91600480830192869291908290030181865afa15801562001334573d6000803e3d6000fd5b505050506040513d6000823e601f3d908101601f191682016040526200135e9190810190620026f1565b92915050565b60405160e060020a6386bd3f91028152339073__AddressUtils__________________________906386bd3f9190620013a2908490600401620021c6565b602060405180830381865af4158015620013c0573d6000803e3d6000fd5b505050506040513d601f19601f82011682018060405250810190620013e69190620021f0565b15620014095760405160e560020a62461bcd0281526004016200044f90620027c0565b600160a060020a038082166000908152600360205260409081902054905160e060020a6386bd3f9102815273__AddressUtils__________________________926386bd3f91926200146192911690600401620021c6565b602060405180830381865af41580156200147f573d6000803e3d6000fd5b505050506040513d601f19601f82011682018060405250810190620014a59190620021f0565b15620014eb5760405160e560020a62461bcd02815260206004820152600e6024820152609260020a6d155cd95c881b9bdd08199bdd5b990260448201526064016200044f565b87620014f960008262001af9565b6200151b5760405160e560020a62461bcd0281526004016200044f906200233f565b6200152860008262001b0e565b60405160e060020a6386bd3f9102815273__AddressUtils__________________________916386bd3f91916200156c91600160a060020a031690600401620021c6565b602060405180830381865af41580156200158a573d6000803e3d6000fd5b505050506040513d601f19601f82011682018060405250810190620015b09190620021f0565b15620015d35760405160e560020a62461bcd0281526004016200044f9062002369565b60405160e060020a6386bd3f910281528990339073__AddressUtils__________________________906386bd3f919062001613908490600401620021c6565b602060405180830381865af415801562001631573d6000803e3d6000fd5b505050506040513d601f19601f82011682018060405250810190620016579190620021f0565b156200167a5760405160e560020a62461bcd0281526004016200044f90620027c0565b6200168760008362001b0e565b600160a060020a03166302d05d3f6040518163ffffffff1660e060020a028152600401602060405180830381865afa158015620016c8573d6000803e3d6000fd5b505050506040513d601f19601f82011682018060405250810190620016ee9190620023d7565b600160a060020a031681600160a060020a031614620017495760405160e560020a62461bcd0281526020600482015260106024820152608160020a6f3737ba1031b932b0ba37b91030b232390260448201526064016200044f565b6200175660008c62001b0e565b600160a060020a0316634367d32e8b8b8b8b8b8b6040518763ffffffff1660e060020a0281526004016200179096959493929190620027e9565b600060405180830381600087803b158015620017ab57600080fd5b505af1158015620017c0573d6000803e3d6000fd5b50506040518d92507ff3814c1d792326703a86a099c4d66da2daf90ff42781dabace6b0ecb4510cca39150600090a25050505050505050505050565b336000908152600360205260409081902054905160e060020a6386bd3f9102815260609173__AddressUtils__________________________916386bd3f91916200185691600160a060020a0390911690600401620021c6565b602060405180830381865af415801562001874573d6000803e3d6000fd5b505050506040513d601f19601f820116820180604052508101906200189a9190620021f0565b15620018a65750606090565b3360009081526003602052604080822054815160e060020a63139334af0281529151600160a060020a039091169263139334af92600480820193918290030181865afa158015620018fb573d6000803e3d6000fd5b505050506040513d6000823e601f3d908101601f191682016040526200122d9190810190620026f1565b336000908152600360205260409081902054905160e060020a6386bd3f9102815260609173__AddressUtils__________________________916386bd3f91916200197f91600160a060020a0390911690600401620021c6565b602060405180830381865af41580156200199d573d6000803e3d6000fd5b505050506040513d601f19601f82011682018060405250810190620019c39190620021f0565b15620019cf5750606090565b3360009081526003602052604080822054815160e060020a63253a219f0281529151600160a060020a039091169263253a219f92600480820193918290030181865afa158015620018fb573d6000803e3d6000fd5b60009055565b62001a39600480546001019055565b8060405162001a489062001c6a565b62001a549190620021c6565b604051809103906000f08015801562001a71573d6000803e3d6000fd5b50600160a060020a038281166000818152600360205260408082208054600160a060020a03191695909416948517909355915190917f263d398af3bd0e797da25e9dc29a23286e999826d13a16fca996d1ddd1eb528191a350565b60006200135e8262001b1c565b600062001af18484600160a060020a03851662001b29565b949350505050565b600062001b07838362001b48565b9392505050565b600062001b07838362001b56565b60006200135e8262001bce565b6000828152600284016020526040812082905562001af1848462001bd9565b600062001b07838362001be7565b60008181526002830160205260408120548015158062001b7d575062001b7d848462001b48565b62001b075760405160e560020a62461bcd02815260206004820152601e60248201527f456e756d657261626c654d61703a206e6f6e6578697374656e74206b6579000060448201526064016200044f565b60006200135e825490565b600062001b07838362001bf5565b600062001b07838362001c44565b600062001c03838362001c44565b62001c3b575081546001818101845560008481526020808220909301849055845484825282860190935260409020919091556200135e565b5060006200135e565b60009081526001919091016020526040902054151590565b612476806200285b83390190565b610fb08062004cd183390190565b60e060020a634e487b710260009081526041600452602490fd5b6040516101e081016001604060020a038111828210171562001cb85762001cb862001c78565b60405290565b604051601f8201601f191681016001604060020a038111828210171562001ce95762001ce962001c78565b604052919050565b60006001604060020a0382111562001d0d5762001d0d62001c78565b50601f01601f191660200190565b600082601f83011262001d2d57600080fd5b813562001d4462001d3e8262001cf1565b62001cbe565b81815284602083860101111562001d5a57600080fd5b816020850160208301376000918101602001919091529392505050565b600080600080600080600080610100898b03121562001d9557600080fd5b88356001604060020a038082111562001dad57600080fd5b62001dbb8c838d0162001d1b565b995060208b013591508082111562001dd257600080fd5b62001de08c838d0162001d1b565b985060408b013591508082111562001df757600080fd5b62001e058c838d0162001d1b565b975060608b013591508082111562001e1c57600080fd5b62001e2a8c838d0162001d1b565b965060808b013591508082111562001e4157600080fd5b62001e4f8c838d0162001d1b565b955060a08b0135945060c08b013591508082111562001e6d57600080fd5b62001e7b8c838d0162001d1b565b935060e08b013591508082111562001e9257600080fd5b5062001ea18b828c0162001d1b565b9150509295985092959890939650565b60006020828403121562001ec457600080fd5b5035919050565b6000806040838503121562001edf57600080fd5b50508035926020909101359150565b60005b8381101562001f0b57818101518382015260200162001ef1565b8381111562001f1b576000848401525b50505050565b6000815180845262001f3b81602086016020860162001eee565b601f01601f19169290920160200192915050565b60208082528251828201819052600091906040908185019080840286018301878501865b83811015620020c457603f1989840301855281516101e08151855288820151818a87015262001fa58287018262001f21565b915050878201518582038987015262001fbf828262001f21565b9150506060808301518683038288015262001fdb838262001f21565b925050506080808301518683038288015262001ff8838262001f21565b60a0858101519089015260c0808601519089015260e080860151908901526101008086015190890152610120808601519089015261014080860151898303828b0152919450925090506200204d838262001f21565b9250505061016080830151620020668288018215159052565b5050610180808301518683038288015262002082838262001f21565b925050506101a08083015186830382880152620020a0838262001f21565b6101c094850151979094019690965250509487019492509086019060010162001f73565b509098975050505050505050565b600080600080600080600060e0888a031215620020ee57600080fd5b8735965060208801356001604060020a03808211156200210d57600080fd5b6200211b8b838c0162001d1b565b975060408a01359150808211156200213257600080fd5b620021408b838c0162001d1b565b965060608a01359150808211156200215757600080fd5b620021658b838c0162001d1b565b955060808a01359150808211156200217c57600080fd5b6200218a8b838c0162001d1b565b945060a08a0135935060c08a0135915080821115620021a857600080fd5b50620021b78a828b0162001d1b565b91505092959891949750929550565b600160a060020a0391909116815260200190565b80518015158114620021eb57600080fd5b919050565b6000602082840312156200220357600080fd5b62001b0782620021da565b8a8152600160a060020a038a166020820152610140604082018190526000906200223b8382018c62001f21565b9050828103606084015262002251818b62001f21565b9050828103608084015262002267818a62001f21565b905082810360a08401526200227d818962001f21565b905082810360c084015262002293818862001f21565b90508560e0840152828103610100840152620022b0818662001f21565b9050828103610120840152620022c7818562001f21565b9d9c50505050505050505050505050565b60a081526000620022ed60a083018862001f21565b828103602084015262002301818862001f21565b9050828103604084015262002317818762001f21565b9050846060840152828103608084015262002333818562001f21565b98975050505050505050565b6020808252600d90820152609a60020a6c105c1c081b9bdd08199bdd5b9902604082015260600190565b6020808252601290820152607060020a7141707020646f656e7327742065786973747302604082015260600190565b60008060408385031215620023ac57600080fd5b505080516020909101519092909150565b600060208284031215620023d057600080fd5b5051919050565b600060208284031215620023ea57600080fd5b8151600160a060020a038116811462001b0757600080fd5b6000806000606084860312156200241857600080fd5b8351925060208401519150604084015190509250925092565b60e060020a634e487b710260009081526011600452602490fd5b6000821982111562002461576200246162002431565b500190565b600082620024885760e060020a634e487b710260009081526012600452602490fd5b500690565b600082601f8301126200249f57600080fd5b8151620024b062001d3e8262001cf1565b818152846020838601011115620024c657600080fd5b62001af182602083016020870162001eee565b60006101e08284031215620024ed57600080fd5b620024f762001c92565b90508151815260208201516001604060020a03808211156200251857600080fd5b62002526858386016200248d565b602084015260408401519150808211156200254057600080fd5b6200254e858386016200248d565b604084015260608401519150808211156200256857600080fd5b62002576858386016200248d565b606084015260808401519150808211156200259057600080fd5b6200259e858386016200248d565b608084015260a084015160a084015260c084015160c084015260e084015160e0840152610100915081840151828401526101209150818401518284015261014091508184015181811115620025f257600080fd5b62002600868287016200248d565b8385015250610160915062002617828501620021da565b82840152610180915081840151818111156200263257600080fd5b62002640868287016200248d565b83850152506101a0915081840151818111156200265c57600080fd5b6200266a868287016200248d565b838501525050506101c080830151818301525092915050565b6000602082840312156200269657600080fd5b81516001604060020a03811115620026ad57600080fd5b62001af184828501620024d9565b60e060020a634e487b710260009081526032600452602490fd5b600060018201620026ea57620026ea62002431565b5060010190565b600060208083850312156200270557600080fd5b82516001604060020a03808211156200271d57600080fd5b818501915085601f8301126200273257600080fd5b81518181111562002747576200274762001c78565b8381026200275785820162001cbe565b91825283810185019185810190898411156200277257600080fd5b86860192505b83831015620027b357825185811115620027925760008081fd5b620027a28b89838a0101620024d9565b835250918601919086019062002778565b9998505050505050505050565b6020808252600c9082015260a160020a6b24b73b30b634b21030b2323902604082015260600190565b60c081526000620027fe60c083018962001f21565b828103602084015262002812818962001f21565b9050828103604084015262002828818862001f21565b905082810360608401526200283e818762001f21565b905084608084015282810360a0840152620027b3818562001f2156fe60806040523480156200001157600080fd5b506040516200247638038062002476833981016040819052620000349162000857565b6200005a6200004b64010000000062000647810204565b6401000000006200064b810204565b896200006a565b60405180910390fd5b8360008111620000d7576040517f08c379a000000000000000000000000000000000000000000000000000000000815260206004820152601c60248201527f5072696365206d7573742062652067726561746572207468616e203000000000604482015260640162000061565b6040517f27341c8a0000000000000000000000000000000000000000000000000000000081528a9073__StringUtils___________________________906327341c8a906200012b908490600401620009af565b602060405180830381865af415801562000149573d6000803e3d6000fd5b505050506040513d601f19601f820116820180604052508101906200016f9190620009e4565b15620001a9576040517f08c379a0000000000000000000000000000000000000000000000000000000008152600401620000619062000a0f565b6040517f27341c8a000000000000000000000000000000000000000000000000000000008152899073__StringUtils___________________________906327341c8a90620001fd908490600401620009af565b602060405180830381865af41580156200021b573d6000803e3d6000fd5b505050506040513d601f19601f82011682018060405250810190620002419190620009e4565b156200027b576040517f08c379a0000000000000000000000000000000000000000000000000000000008152600401620000619062000a0f565b6040517f27341c8a000000000000000000000000000000000000000000000000000000008152869073__StringUtils___________________________906327341c8a90620002cf908490600401620009af565b602060405180830381865af4158015620002ed573d6000803e3d6000fd5b505050506040513d601f19601f82011682018060405250810190620003139190620009e4565b156200034d576040517f08c379a0000000000000000000000000000000000000000000000000000000008152600401620000619062000a0f565b6040517f27341c8a000000000000000000000000000000000000000000000000000000008152869073__StringUtils___________________________906327341c8a90620003a1908490600401620009af565b602060405180830381865af4158015620003bf573d6000803e3d6000fd5b505050506040513d601f19601f82011682018060405250810190620003e59190620009e4565b156200041f576040517f08c379a0000000000000000000000000000000000000000000000000000000008152600401620000619062000a0f565b8e600260006101000a815481600160a060020a030219169083600160a060020a031602179055508f6001819055508d6003908051906020019062000465929190620006a1565b508c600490805190602001906200047e929190620006a1565b508b51620004949060069060208f0190620006a1565b508a51620004aa9060079060208e0190620006a1565b506040517f27341c8a00000000000000000000000000000000000000000000000000000000815273__StringUtils___________________________906327341c8a90620004fd908e90600401620009af565b602060405180830381865af41580156200051b573d6000803e3d6000fd5b505050506040513d601f19601f82011682018060405250810190620005419190620009e4565b1562000579576040518060c0016040528060958152602001620023e16095913980516200057791600791602090910190620006a1565b505b89516200058e9060089060208d0190620006a1565b5060006009819055600a819055600b8a90556005805460018101825591528751620005e1917f036b6384b5eca791c62761152d0c79bb0604c104a5fb6f4eb0703f3154bb3db0019060208a0190620006a1565b50620005fc600e64010000000062000db06200069b82021704565b62000616600f64010000000062000db06200069b82021704565b87516200062b90600c9060208b0190620006a1565b505042600d555062000a9b9d5050505050505050505050505050565b3390565b60008054600160a060020a03838116600160a060020a0319831681178455604051919092169283917f8be0079c531659141344cd1fd0a4f28419497f9722a3daafe3b4186f6b6457e09190a35050565b60009055565b828054620006af9062000a46565b90600052602060002090601f016020900481019282620006d357600085556200071e565b82601f10620006ee57805160ff19168380011785556200071e565b828001600101855582156200071e579182015b828111156200071e57825182559160200191906001019062000701565b506200072c92915062000730565b5090565b5b808211156200072c576000815560010162000731565b8051600160a060020a03811681146200075f57600080fd5b919050565b7f4e487b7100000000000000000000000000000000000000000000000000000000600052604160045260246000fd5b60005b83811015620007b057818101518382015260200162000796565b83811115620007c0576000848401525b50505050565b600082601f830112620007d857600080fd5b81516001604060020a0380821115620007f557620007f562000764565b604051601f8301601f19908116603f0116810190828211818310171562000820576200082062000764565b816040528381528660208588010111156200083a57600080fd5b6200084d84602083016020890162000793565b9695505050505050565b6000806000806000806000806000806101408b8d0312156200087857600080fd5b8a5199506200088a60208c0162000747565b985060408b01516001604060020a0380821115620008a757600080fd5b620008b58e838f01620007c6565b995060608d0151915080821115620008cc57600080fd5b620008da8e838f01620007c6565b985060808d0151915080821115620008f157600080fd5b620008ff8e838f01620007c6565b975060a08d01519150808211156200091657600080fd5b620009248e838f01620007c6565b965060c08d01519150808211156200093b57600080fd5b620009498e838f01620007c6565b955060e08d015194506101008d01519150808211156200096857600080fd5b620009768e838f01620007c6565b93506101208d01519150808211156200098e57600080fd5b506200099d8d828e01620007c6565b9150509295989b9194979a5092959850565b6020815260008251806020840152620009d081604085016020870162000793565b601f01601f19169190910160400192915050565b600060208284031215620009f757600080fd5b8151801515811462000a0857600080fd5b9392505050565b60208082526018908201527f537472696e67206d757374206e6f7420626520656d7074790000000000000000604082015260600190565b60028104600182168062000a5b57607f821691505b60208210810362000a95577f4e487b7100000000000000000000000000000000000000000000000000000000600052602260045260246000fd5b50919050565b6119368062000aab6000396000f3fe608060405234801561001057600080fd5b50600436106100e95760e060020a600035046302d05d3f81146100ee57806306fdde031461011e57806334b1a7cc146101335780634367d32e1461014b5780636904c94d1461016057806370b8fd9214610168578063715018a6146101965780637284e4161461019e57806373b8fc80146101a65780638da5cb5b146101c3578063a035b1fe146101cb578063a512bd79146101d4578063af640d0f146101dc578063d23fe7c7146101e5578063d68387c7146101ef578063f22b0127146101f7578063f2fde38b14610217578063fabec44a1461022a575b600080fd5b60025461010190600160a060020a031681565b604051600160a060020a0390911681526020015b60405180910390f35b610126610232565b604051610115919061147b565b600f5461013d9081565b604051908152602001610115565b61015e6101593660046114de565b6102c0565b005b6101266106d6565b61017b6101763660046115db565b6106e3565b60408051938452602084019290925290820152606001610115565b61015e6107a8565b6101266107bc565b6101ae6107c9565b60408051928352602083019190915201610115565b6101016107eb565b61013d600b5481565b6101266107fa565b61013d60015481565b600e5461013d9081565b610126610807565b61020a61020536600461160b565b610814565b6040516101159190611637565b61015e610225366004611781565b610c70565b610126610cf4565b6003805461023f906117aa565b80601f016020809104026020016040519081016040528092919081815260200182805461026b906117aa565b80156102b85780601f1061028d576101008083540402835291602001916102b8565b820191906000526020600020905b81548152906001019060200180831161029b57829003601f168201915b505050505081565b6102c8610db6565b8a8a8080601f0160208091040260200160405190810160405280939291908181526020018383808284376000920191909152505060405160e160020a63139a0e4502815273__StringUtils___________________________936327341c8a935061033792509060040161147b565b602060405180830381865af4158015610354573d6000803e3d6000fd5b505050506040513d601f19601f8201168201806040525081019061037891906117e8565b610386576103868b8b610e18565b88888080601f0160208091040260200160405190810160405280939291908181526020018383808284376000920191909152505060405160e160020a63139a0e4502815273__StringUtils___________________________936327341c8a93506103f592509060040161147b565b602060405180830381865af4158015610412573d6000803e3d6000fd5b505050506040513d601f19601f8201168201806040525081019061043691906117e8565b610444576104448989610efb565b86868080601f0160208091040260200160405190810160405280939291908181526020018383808284376000920191909152505060405160e160020a63139a0e4502815273__StringUtils___________________________936327341c8a93506104b392509060040161147b565b602060405180830381865af41580156104d0573d6000803e3d6000fd5b505050506040513d601f19601f820116820180604052508101906104f491906117e8565b1580156105ae575081818080601f0160208091040260200160405190810160405280939291908181526020018383808284376000920191909152505060405160e160020a63139a0e4502815273__StringUtils___________________________936327341c8a935061056b92509060040161147b565b602060405180830381865af4158015610588573d6000803e3d6000fd5b505050506040513d601f19601f820116820180604052508101906105ac91906117e8565b155b156105fc576105bd8787610fd8565b6105fc82828080601f0160208091040260200160405190810160405280939291908181526020018383808284376000920191909152506110b592505050565b84848080601f0160208091040260200160405190810160405280939291908181526020018383808284376000920191909152505060405160e160020a63139a0e4502815273__StringUtils___________________________936327341c8a935061066b92509060040161147b565b602060405180830381865af4158015610688573d6000803e3d6000fd5b505050506040513d601f19601f820116820180604052508101906106ac91906117e8565b6106ba576106ba858561119a565b82156106c9576106c983611277565b5050505050505050505050565b6008805461023f906117aa565b60008060006106f0610db6565b8360058111156106ff57600080fd5b85600581111561070e57600080fd5b6000600a5461071c600e5490565b600954610729919061181f565b610733919061183e565b90508660000361074b5761074b600e80546001019055565b610755888261183e565b90506107618782611856565b905061076c600e5490565b6107769082611887565b600955600e54610786908261189b565b600a81905560095490610798600e5490565b9550955095505050509250925092565b6107b0610db6565b6107ba60006112d1565b565b6004805461023f906117aa565b6000806000600954116107df5750600091829150565b5050600954600a549091565b600054600160a060020a031690565b6006805461023f906117aa565b6007805461023f906117aa565b61088f604051806101e0016040528060008152602001606081526020016060815260200160608152602001606081526020016000815260200160008152602001600081526020016000815260200160008152602001606081526020016000151581526020016060815260200160608152602001600081525090565b6000604051806101e001604052806001548152602001600380546108b2906117aa565b80601f01602080910402602001604051908101604052809291908181526020018280546108de906117aa565b801561092b5780601f106109005761010080835404028352916020019161092b565b820191906000526020600020905b81548152906001019060200180831161090e57829003601f168201915b5050505050815260200160048054610942906117aa565b80601f016020809104026020016040519081016040528092919081815260200182805461096e906117aa565b80156109bb5780601f10610990576101008083540402835291602001916109bb565b820191906000526020600020905b81548152906001019060200180831161099e57829003601f168201915b50505050508152602001600780546109d2906117aa565b80601f01602080910402602001604051908101604052809291908181526020018280546109fe906117aa565b8015610a4b5780601f10610a2057610100808354040283529160200191610a4b565b820191906000526020600020905b815481529060010190602001808311610a2e57829003601f168201915b5050505050815260200160088054610a62906117aa565b80601f0160208091040260200160405190810160405280929190818152602001828054610a8e906117aa565b8015610adb5780601f10610ab057610100808354040283529160200191610adb565b820191906000526020600020905b815481529060010190602001808311610abe57829003601f168201915b50505050508152602001600b548152602001610af6600e5490565b81526020016009548152602001600a548152602001848152602001610b19610cf4565b8152602001851515815260200185610b405760405180602001604052806000815250610bcc565b60068054610b4d906117aa565b80601f0160208091040260200160405190810160405280929190818152602001828054610b79906117aa565b8015610bc65780601f10610b9b57610100808354040283529160200191610bc6565b820191906000526020600020905b815481529060010190602001808311610ba957829003601f168201915b50505050505b8152602001600c8054610bde906117aa565b80601f0160208091040260200160405190810160405280929190818152602001828054610c0a906117aa565b8015610c575780601f10610c2c57610100808354040283529160200191610c57565b820191906000526020600020905b815481529060010190602001808311610c3a57829003601f168201915b5050509183525050600d54602090910152949350505050565b610c78610db6565b600160a060020a038116610ce85760405160e560020a62461bcd02815260206004820152602660248201527f4f776e61626c653a206e6577206f776e657220697320746865207a65726f2061604482015260d060020a656464726573730260648201526084015b60405180910390fd5b610cf1816112d1565b50565b6005805460609190610d0890600190611856565b81548110610d1857610d186118af565b906000526020600020018054610d2d906117aa565b80601f0160208091040260200160405190810160405280929190818152602001828054610d59906117aa565b8015610da65780601f10610d7b57610100808354040283529160200191610da6565b820191906000526020600020905b815481529060010190602001808311610d8957829003601f168201915b5050505050905090565b60009055565b33610dbf6107eb565b600160a060020a0316146107ba5760405160e560020a62461bcd02815260206004820181905260248201527f4f776e61626c653a2063616c6c6572206973206e6f7420746865206f776e65726044820152606401610cdf565b81818080601f0160208091040260200160405190810160405280939291908181526020018383808284376000920191909152505060405160e160020a63139a0e4502815273__StringUtils___________________________92506327341c8a9150610e8890849060040161147b565b602060405180830381865af4158015610ea5573d6000803e3d6000fd5b505050506040513d601f19601f82011682018060405250810190610ec991906117e8565b15610ee95760405160e560020a62461bcd028152600401610cdf906118c9565b610ef560038484611321565b50505050565b81818080601f0160208091040260200160405190810160405280939291908181526020018383808284376000920191909152505060405160e160020a63139a0e4502815273__StringUtils___________________________92506327341c8a9150610f6b90849060040161147b565b602060405180830381865af4158015610f88573d6000803e3d6000fd5b505050506040513d601f19601f82011682018060405250810190610fac91906117e8565b15610fcc5760405160e560020a62461bcd028152600401610cdf906118c9565b610ef560048484611321565b81818080601f0160208091040260200160405190810160405280939291908181526020018383808284376000920191909152505060405160e160020a63139a0e4502815273__StringUtils___________________________92506327341c8a915061104890849060040161147b565b602060405180830381865af4158015611065573d6000803e3d6000fd5b505050506040513d601f19601f8201168201806040525081019061108991906117e8565b156110a95760405160e560020a62461bcd028152600401610cdf906118c9565b610ef560068484611321565b60405160e160020a63139a0e45028152819073__StringUtils___________________________906327341c8a906110f190849060040161147b565b602060405180830381865af415801561110e573d6000803e3d6000fd5b505050506040513d601f19601f8201168201806040525081019061113291906117e8565b156111525760405160e560020a62461bcd028152600401610cdf906118c9565b600580546001810182556000919091528251611195917f036b6384b5eca791c62761152d0c79bb0604c104a5fb6f4eb0703f3154bb3db0019060208501906113a5565b505050565b81818080601f0160208091040260200160405190810160405280939291908181526020018383808284376000920191909152505060405160e160020a63139a0e4502815273__StringUtils___________________________92506327341c8a915061120a90849060040161147b565b602060405180830381865af4158015611227573d6000803e3d6000fd5b505050506040513d601f19601f8201168201806040525081019061124b91906117e8565b1561126b5760405160e560020a62461bcd028152600401610cdf906118c9565b610ef560078484611321565b80600081116112cb5760405160e560020a62461bcd02815260206004820152601c60248201527f5072696365206d7573742062652067726561746572207468616e2030000000006044820152606401610cdf565b50600b55565b60008054600160a060020a03838116600160a060020a0319831681178455604051919092169283917f8be0079c531659141344cd1fd0a4f28419497f9722a3daafe3b4186f6b6457e09190a35050565b82805461132d906117aa565b90600052602060002090601f01602090048101928261134f5760008555611395565b82601f106113685782800160ff19823516178555611395565b82800160010185558215611395579182015b8281111561139557823582559160200191906001019061137a565b506113a1929150611419565b5090565b8280546113b1906117aa565b90600052602060002090601f0160209004810192826113d35760008555611395565b82601f106113ec57805160ff1916838001178555611395565b82800160010185558215611395579182015b828111156113955782518255916020019190600101906113fe565b5b808211156113a1576000815560010161141a565b6000815180845260005b8181101561145457602081850181015186830182015201611438565b81811115611466576000602083870101525b50601f01601f19169290920160200192915050565b60208152600061148e602083018461142e565b9392505050565b60008083601f8401126114a757600080fd5b50813567ffffffffffffffff8111156114bf57600080fd5b6020830191508360208285010111156114d757600080fd5b9250929050565b600080600080600080600080600080600060c08c8e0312156114ff57600080fd5b67ffffffffffffffff808d35111561151657600080fd5b6115238e8e358f01611495565b909c509a5060208d013581101561153957600080fd5b6115498e60208f01358f01611495565b909a50985060408d013581101561155f57600080fd5b61156f8e60408f01358f01611495565b909850965060608d013581101561158557600080fd5b6115958e60608f01358f01611495565b909650945060808d0135935060a08d01358110156115b257600080fd5b506115c38d60a08e01358e01611495565b81935080925050509295989b509295989b9093969950565b600080604083850312156115ee57600080fd5b50508035926020909101359150565b8015158114610cf157600080fd5b6000806040838503121561161e57600080fd5b8235611629816115fd565b946020939093013593505050565b6020815281516020820152600060208301516101e080604085015261166061020085018361142e565b91506040850151601f198086850301606087015261167e848361142e565b9350606087015191508086850301608087015261169b848361142e565b935060808701519150808685030160a08701526116b8848361142e565b935060a087015160c087015260c087015160e087015260e08701519150610100828188015280880151925050610120828188015280880151925050610140828188015280880151925050610160818786030181880152611718858461142e565b9450808801519250506101806117318188018415159052565b808801519250506101a081878603018188015261174e858461142e565b9450808801519250506101c081878603018188015261176d858461142e565b970151959092019490945250929392505050565b60006020828403121561179357600080fd5b8135600160a060020a038116811461148e57600080fd5b6002810460018216806117be57607f821691505b6020821081036117e25760e060020a634e487b710260009081526022600452602490fd5b50919050565b6000602082840312156117fa57600080fd5b815161148e816115fd565b60e060020a634e487b710260009081526011600452602490fd5b600081600019048311821515161561183957611839611805565b500290565b6000821982111561185157611851611805565b500190565b60008282101561186857611868611805565b500390565b60e060020a634e487b710260009081526012600452602490fd5b6000826118965761189661186d565b500490565b6000826118aa576118aa61186d565b500690565b60e060020a634e487b710260009081526032600452602490fd5b60208082526018908201527f537472696e67206d757374206e6f7420626520656d707479000000000000000060408201526060019056fea2646970667358221220cb34dfd69d4dd6e3689af883918704ee1f907d7e2c6f833240ff8be15864ac8764736f6c634300080e003368747470733a2f2f65787465726e616c2d636f6e74656e742e6475636b6475636b676f2e636f6d2f69752f3f753d6874747073253341253246253246692e70696e696d672e636f6d2532466f726967696e616c7325324632302532463065253246663825324632303065663832623331383266663735626630623264653534393665363163662e6a706726663d31266e6f66623d31608060405234801561001057600080fd5b50604051610fb0380380610fb083398101604081905261002f916100e3565b610051610043640100000000610089810204565b64010000000061008d810204565b60018054600160a860020a031916600160a060020a038316179055610083600764010000000061082c6100dd82021704565b50610113565b3390565b60008054600160a060020a03838116600160a060020a0319831681178455604051919092169283917f8be0079c531659141344cd1fd0a4f28419497f9722a3daafe3b4186f6b6457e09190a35050565b60009055565b6000602082840312156100f557600080fd5b8151600160a060020a038116811461010c57600080fd5b9392505050565b610e8e806101226000396000f3fe608060405234801561001057600080fd5b506004361061009c5760e060020a600035046304a4d70481146100a1578063139334af146100c9578063253a219f146100de578063715018a6146100e65780638da5cb5b146100f057806391de1ba314610110578063983c0a5b146101235780639f9f7f8514610136578063b8c3773f14610157578063e3f75d1e1461015f578063f2fde38b14610172575b600080fd5b6100b46100af366004610973565b610185565b60405190151581526020015b60405180910390f35b6100d16101b2565b6040516100c091906109f1565b6100d1610350565b6100ee6104b2565b005b6100f86104c6565b604051600160a060020a0390911681526020016100c0565b6100ee61011e366004610973565b6104d5565b6100ee610131366004610b63565b610544565b610149610144366004610973565b6105b0565b6040519081526020016100c0565b6100d16105d6565b6100ee61016d366004610973565b610738565b6100ee610180366004610973565b6107ab565b600061018f610832565b50600160a060020a03811660009081526004602052604090205460ff165b919050565b60606101bc610832565b60006101c760075490565b90506000816001604060020a038111156101e3576101e3610b8d565b60405190808252806020026020018201604052801561021c57816020015b6102096108e4565b8152602001906001900390816102015790505b50905060005b828110156103495760006002828154811061023f5761023f610ba7565b6000918252602080832090910154600160a060020a031680835260059091526040909120549091508190156103345780600160a060020a031663f22b012760016102af6002878154811061029557610295610ba7565b600091825260209091200154600160a060020a03166105b0565b60405160e060020a63ffffffff851602815291151560048301526024820152604401600060405180830381865afa1580156102ee573d6000803e3d6000fd5b505050506040513d6000823e601f3d908101601f191682016040526103169190810190610c81565b84848151811061032857610328610ba7565b60200260200101819052505b5050808061034190610e2d565b915050610222565b5091505090565b606061035a610832565b6003546000816001604060020a0381111561037757610377610b8d565b6040519080825280602002602001820160405280156103b057816020015b61039d6108e4565b8152602001906001900390816103955790505b50905060005b82811015610349576000600382815481106103d3576103d3610ba7565b9060005260206000200160009054906101000a9004600160a060020a0316905080600160a060020a031663f22b0127600161041a6003868154811061029557610295610ba7565b60405160e060020a63ffffffff851602815291151560048301526024820152604401600060405180830381865afa158015610459573d6000803e3d6000fd5b505050506040513d6000823e601f3d908101601f191682016040526104819190810190610c81565b83838151811061049357610493610ba7565b60200260200101819052505080806104aa90610e2d565b9150506103b6565b6104ba610832565b6104c46000610894565b565b600054600160a060020a031690565b6104dd610832565b6002805460018181019092557f405787fa12a823e0f2b7631cc41b3ba8828b3321ca811111fa75cd3aa3bb5ace018054600160a060020a03909316600160a060020a031990931683179055600091825260046020526040909120805460ff19169091179055565b61054c610832565b6001811015801561055e575060058111155b61056757600080fd5b600160a060020a038216600090815260056020526040812054900361059457610594600780546001019055565b600160a060020a03909116600090815260056020526040902055565b60006105ba610832565b50600160a060020a031660009081526005602052604090205490565b60606105e0610832565b6002546000816001604060020a038111156105fd576105fd610b8d565b60405190808252806020026020018201604052801561063657816020015b6106236108e4565b81526020019060019003908161061b5790505b50905060005b828110156103495760006002828154811061065957610659610ba7565b9060005260206000200160009054906101000a9004600160a060020a0316905080600160a060020a031663f22b012760016106a06002868154811061029557610295610ba7565b60405160e060020a63ffffffff851602815291151560048301526024820152604401600060405180830381865afa1580156106df573d6000803e3d6000fd5b505050506040513d6000823e601f3d908101601f191682016040526107079190810190610c81565b83838151811061071957610719610ba7565b602002602001018190525050808061073090610e2d565b91505061063c565b610740610832565b6001805460a060020a60ff02191660a060020a1781556003805491820181556000527fc2575a0e9e593c00f959f8c92f12db2869c3395a3b0502d05e2516446f71f85b018054600160a060020a038316600160a060020a03199091161790556107a8816104d5565b50565b6107b3610832565b600160a060020a0381166108235760405160e560020a62461bcd02815260206004820152602660248201527f4f776e61626c653a206e6577206f776e657220697320746865207a65726f2061604482015260d060020a656464726573730260648201526084015b60405180910390fd5b6107a881610894565b60009055565b3361083b6104c6565b600160a060020a0316146104c45760405160e560020a62461bcd02815260206004820181905260248201527f4f776e61626c653a2063616c6c6572206973206e6f7420746865206f776e6572604482015260640161081a565b60008054600160a060020a03838116600160a060020a0319831681178455604051919092169283917f8be0079c531659141344cd1fd0a4f28419497f9722a3daafe3b4186f6b6457e09190a35050565b604051806101e0016040528060008152602001606081526020016060815260200160608152602001606081526020016000815260200160008152602001600081526020016000815260200160008152602001606081526020016000151581526020016060815260200160608152602001600081525090565b8035600160a060020a03811681146101ad57600080fd5b60006020828403121561098557600080fd5b61098e8261095c565b9392505050565b60005b838110156109b0578181015183820152602001610998565b838111156109bf576000848401525b50505050565b600081518084526109dd816020860160208601610995565b601f01601f19169290920160200192915050565b60208082528251828201819052600091906040908185019080840286018301878501865b83811015610b5557603f1989840301855281516101e08151855288820151818a870152610a44828701826109c5565b9150508782015185820389870152610a5c82826109c5565b91505060608083015186830382880152610a7683826109c5565b9250505060808083015186830382880152610a9183826109c5565b60a0858101519089015260c0808601519089015260e080860151908901526101008086015190890152610120808601519089015261014080860151898303828b015291945092509050610ae483826109c5565b9250505061016080830151610afc8288018215159052565b50506101808083015186830382880152610b1683826109c5565b925050506101a08083015186830382880152610b3283826109c5565b6101c0948501519790940196909652505094870194925090860190600101610a15565b509098975050505050505050565b60008060408385031215610b7657600080fd5b610b7f8361095c565b946020939093013593505050565b60e060020a634e487b710260009081526041600452602490fd5b60e060020a634e487b710260009081526032600452602490fd5b6040516101e081016001604060020a0381118282101715610be457610be4610b8d565b60405290565b600082601f830112610bfb57600080fd5b81516001604060020a0380821115610c1557610c15610b8d565b604051601f8301601f19908116603f01168101908282118183101715610c3d57610c3d610b8d565b81604052838152866020858801011115610c5657600080fd5b610c67846020830160208901610995565b9695505050505050565b805180151581146101ad57600080fd5b600060208284031215610c9357600080fd5b81516001604060020a0380821115610caa57600080fd5b908301906101e08286031215610cbf57600080fd5b610cc7610bc1565b82518152602083015182811115610cdd57600080fd5b610ce987828601610bea565b602083015250604083015182811115610d0157600080fd5b610d0d87828601610bea565b604083015250606083015182811115610d2557600080fd5b610d3187828601610bea565b606083015250608083015182811115610d4957600080fd5b610d5587828601610bea565b60808301525060a083015160a082015260c083015160c082015260e083015160e08201526101008084015181830152506101208084015181830152506101408084015183811115610da557600080fd5b610db188828701610bea565b828401525050610160610dc5818501610c71565b908201526101808381015183811115610ddd57600080fd5b610de988828701610bea565b8284015250506101a08084015183811115610e0357600080fd5b610e0f88828701610bea565b91830191909152506101c09283015192810192909252509392505050565b600060018201610e515760e060020a634e487b710260009081526011600452602490fd5b506001019056fea2646970667358221220d41acc6726c18bc64a15da537ee1e6a86f329102fcbf709508f437b6efc3ed6864736f6c634300080e0033a2646970667358221220d84645cffda7d72de780d0fea712a6d2b2e29fae39ab203ce86fbf88d4abc57764736f6c634300080e0033",
  "immutableReferences": {},
  "source": "//SPDX-License-Identifier: UNLICENSED\r\npragma solidity ^0.8.14;\r\nimport {User} from './user.sol';\r\nimport {App} from './app.sol';\r\nimport {Constants, Events, StringUtils, AddressUtils} from './dappstore_utils.sol';\r\nimport {AppInfoLibrary} from './AppInfoLibrary.sol';\r\n\r\nimport \"@openzeppelin/contracts/utils/structs/EnumerableMap.sol\";\r\nimport \"@openzeppelin/contracts/utils/Counters.sol\";\r\nimport \"@openzeppelin/contracts/utils/Strings.sol\";\r\nimport \"@openzeppelin/contracts/utils/Address.sol\";\r\n\r\ncontract dAppstore {\r\n    using StringUtils for string;\r\n    using AddressUtils for address;\r\n    using AddressUtils for address payable;\r\n    \r\n    using Strings for uint;\r\n    // using Address for address payable;\r\n    using EnumerableMap for EnumerableMap.UintToAddressMap;\r\n    using Counters for Counters.Counter;\r\n\r\n    // app_id => app_contract\r\n    EnumerableMap.UintToAddressMap private apps;\r\n    // user_address => user_contract\r\n    mapping(address => address) users;\r\n    Counters.Counter users_num;\r\n\r\n    constructor() {\r\n        users_num.reset();\r\n    }\r\n\r\n    //Validators\r\n    modifier userExists(address _user_address){\r\n        require(!_user_address.isAddressZero(), \"Invalid addr\");\r\n        require(!users[_user_address].isAddressZero(), 'User not found');\r\n        _;\r\n    }\r\n\r\n    modifier userDoesNotExists(address _user_address){\r\n        require(!_user_address.isAddressZero(), \"Invalid addr\");\r\n        require(users[_user_address].isAddressZero(), 'User not found');\r\n        _;\r\n    }\r\n\r\n    modifier appExists(uint _app_id){\r\n        require(apps.contains(_app_id), 'App not found');\r\n        require(!apps.get(_app_id).isAddressZero(), 'App doens\\'t exists');\r\n        _;\r\n    }\r\n\r\n    modifier onlyCreator(uint _app_id, address _app_creator){\r\n        require(!_app_creator.isAddressZero(), 'Invalid addr');\r\n        require(_app_creator == App(apps.get(_app_id)).creator(), 'not creator addr');\r\n        _;\r\n    }\r\n\r\n    modifier validIndex(uint _index, uint _length){\r\n        require(_index >= 0, 'Invalid index');\r\n        require(_length > 0, 'Invalid length');\r\n        _;\r\n    }\r\n\r\n    //\r\n    function createNewUser(address user_address) private {\r\n        users_num.increment();\r\n        users[user_address] = address(new User(payable(user_address)));\r\n        emit Events.UserCreated(payable(user_address), users[user_address]);\r\n    }\r\n\r\n    function createNewApp(\r\n        string memory _name,\r\n        string memory _description,\r\n        string memory _magnetLink,\r\n        string memory _imgUrl,\r\n        string memory _company,\r\n        uint _price,\r\n        string memory _category,\r\n        string memory _fileSha256\r\n    ) public{\r\n        if (users[msg.sender].isAddressZero()){\r\n            createNewUser(msg.sender);\r\n        }\r\n        uint apps_num = apps.length();\r\n        App new_app = new App(\r\n            apps_num, \r\n            msg.sender, \r\n            _name, \r\n            _description, \r\n            _magnetLink, \r\n            _imgUrl, \r\n            _company, \r\n            _price, \r\n            _category,\r\n            _fileSha256\r\n        );\r\n        apps.set(apps_num, address(new_app));\r\n        User(users[msg.sender]).createNewApp(address(new_app));\r\n        emit Events.AppCreated(\r\n            apps_num, \r\n            payable(msg.sender),\r\n            _name,\r\n            _company,\r\n            _category,\r\n            _price,\r\n            _description\r\n        );\r\n    }\r\n\r\n    function updateApp(\r\n        uint app_id,\r\n        string memory _name,\r\n        string memory _description,\r\n        string memory _magnetLink,\r\n        string memory _imgUrl,\r\n        // string memory _company,\r\n        uint _price,\r\n        string memory _fileSha256\r\n    ) external userExists(msg.sender) appExists(app_id) onlyCreator(app_id, msg.sender) {\r\n        App(apps.get(app_id)).updateApp(\r\n            _name,\r\n            _description,\r\n            _magnetLink,\r\n            _imgUrl,\r\n            _price,\r\n            _fileSha256\r\n        );\r\n        emit Events.UpdatedApp(app_id);\r\n    }\r\n\r\n\r\n\r\n    //todo: Add appnotopwned into purchaseApp\r\n    function purchaseApp(uint app_id) external payable appExists(app_id) { //todo: check this validate\r\n        address user = msg.sender;\r\n        if (users[user].isAddressZero()){\r\n            createNewUser(user);\r\n        }\r\n        \r\n        address app_address = apps.get(app_id);\r\n        require(!User(users[user]).isAppOwned(app_address), 'Can\\'t buy app twice');\r\n\r\n        App app = App(app_address);\r\n        (bool sent,) = app.creator().call{value: msg.value}(\"\"); //sends ether to the creator\r\n        require(sent, \"Failed to send Ether\");\r\n        User(users[user]).markAppAsPurchased(app_address);\r\n        emit Events.UserPurchasedApp(payable(user), app_address);\r\n        // require(false, 'DEBUG MESSAGE');\r\n    }\r\n\r\n\r\n    // //todo: return app info via struct instead of addresses\r\n    function getAppBatch(uint start, uint len) view external validIndex(start, len) returns( AppInfoLibrary.AppInfo[] memory){\r\n        bool registered = !users[msg.sender].isAddressZero();\r\n        uint apps_length = apps.length();\r\n        uint requested_apps = (len < apps_length? len: apps_length);\r\n        AppInfoLibrary.AppInfo[] memory batch = new AppInfoLibrary.AppInfo[](requested_apps);\r\n        require (requested_apps <= len && requested_apps <= apps_length, \"minimum failed\");\r\n        for (uint i = 0; i < requested_apps; i++){\r\n            uint app_id = (start + i) % apps_length;\r\n            address app_address = apps.get(app_id);\r\n            bool owned = registered && User(users[msg.sender]).isAppOwned(app_address);\r\n            batch[i] = App(app_address).getAppInfo(\r\n                owned, \r\n               getUserRatingForApp(app_id)\r\n            );\r\n            // emit Events.AppInfo(batch[i]);\r\n        }\r\n        return batch;\r\n    }\r\n\r\n    // Not registered user is going to see empty list\r\n    function getPurchasedAppsInfo() external view returns(AppInfoLibrary.AppInfo[] memory){\r\n        if (users[msg.sender].isAddressZero()){\r\n            AppInfoLibrary.AppInfo[] memory empty_app_arr;\r\n            return  empty_app_arr;\r\n        }\r\n        AppInfoLibrary.AppInfo[] memory purchased_apps_info = User(users[msg.sender]).getPurchasedApps();\r\n        return purchased_apps_info;\r\n    }\r\n\r\n    // Not registered user is going to see empty list\r\n    function getPublishedAppsInfo() external view returns(AppInfoLibrary.AppInfo[] memory){\r\n        if (users[msg.sender].isAddressZero()){\r\n            AppInfoLibrary.AppInfo[] memory empty_app_arr;\r\n            return  empty_app_arr;\r\n        }\r\n        return User(users[msg.sender]).getPublishedApps();\r\n    }\r\n\r\n    function getRatedAppsInfo() external view returns(AppInfoLibrary.AppInfo[] memory){\r\n        if (users[msg.sender].isAddressZero()){\r\n            AppInfoLibrary.AppInfo[] memory empty_app_arr;\r\n            return  empty_app_arr;\r\n        }\r\n        // AppInfoLibrary.AppInfo[] memory rated_apps_info = User(users[msg.sender]).getRatedApps();\r\n        // return rated_apps_info;\r\n        return User(users[msg.sender]).getRatedApps();\r\n    }\r\n\r\n    function getAppCount() view external returns(uint){\r\n        return apps.length();\r\n    }\r\n\r\n    function getAppRating(uint _app_id) view external appExists(_app_id) returns(uint, uint, uint){\r\n        App app = App(apps.get(_app_id));\r\n        (uint rating_int, uint rating_modulu) = app.getAppRating();\r\n        return (rating_int, rating_modulu, app.num_ratings());\r\n    }\r\n\r\n    function getUserRatingForApp(uint _app_id) view public appExists(_app_id) returns(uint){\r\n        if (users[msg.sender].isAddressZero()){\r\n            return 0;\r\n        }\r\n        return User(users[msg.sender]).getRatingForApp(apps.get(_app_id));\r\n\r\n    }\r\n\r\n    //Rating\r\n    function rateApp(uint _app_id, uint new_rating) external{\r\n        //todo: inc num of ratings on app\r\n        User user = User(users[msg.sender]);\r\n        address app_address = apps.get(_app_id);\r\n        App curr_app = App(app_address);\r\n\r\n        uint old_rating = user.getRatingForApp(app_address);\r\n        user.rateApp(app_address, new_rating);\r\n        (uint rating_int, uint rating_modulu, uint num_ratings) = curr_app.rateApp(new_rating, old_rating);\r\n        emit Events.AppRated(_app_id, rating_int, rating_modulu, num_ratings);\r\n\r\n        // uint curr_rating_num = curr_app.num_ratings();\r\n        // if (curr_rating_num == 0){\r\n        //     curr_app.rateApp(0, 0, _rating);\r\n        // }\r\n        // else if (curr_rating_num > Constants.RATING_THRESHHOLD){\r\n        //     (uint curr_rating_int, uint curr_rating_modulu) = curr_app.getAppRating();\r\n        //     curr_app.rateApp(curr_rating_int, curr_rating_modulu, _rating);\r\n        // }\r\n    }\r\n\r\n    // function changeBuckets(App app, uint from, uint to) pure private returns(bool){\r\n    //     // require(true, 'not implements change_buckets');\r\n    //     return false;\r\n    // }\r\n\r\n    // function createXApps(uint num_apps) external{\r\n    //     uint num_existing_apps = apps.length();\r\n    //     for (uint i = num_existing_apps; i < num_existing_apps + num_apps; i++){\r\n    //         string memory  idx = i.toString();\r\n    //         createNewApp(\r\n    //             idx.prepend('GO GO APP #'),\r\n    //             idx.prepend('GO GO DESCRIPTION #'),\r\n    //             Constants.DEFAULT_APP_MAGNET_LINK,\r\n    //             Constants.DEFAULT_APP_IMAGE,\r\n    //             idx,\r\n    //             i + 1,\r\n    //             idx\r\n    //         );\r\n    //     }\r\n    // }\r\n   \r\n}\r\n",
  "sourcePath": "C:\\Users\\User\\Documents\\GitHub\\Backend\\SmartContracts\\contracts\\dAppstore.sol",
  "compiler": {
    "name": "solc",
    "version": "0.8.14+commit.80d49f37.Emscripten.clang"
  },
  "schemaVersion": "3.4.8",
  "updatedAt": "2022-07-25T16:19:05.610Z",
  "devdoc": {
    "kind": "dev",
    "methods": {},
    "version": 1
  },
  "userdoc": {
    "kind": "user",
    "methods": {},
    "version": 1
  }
}