{
  "contractName": "dAppstore",
  "abi": [
    {
      "inputs": [],
      "stateMutability": "nonpayable",
      "type": "constructor"
    },
    {
      "inputs": [],
      "name": "name",
      "outputs": [
        {
          "internalType": "string",
          "name": "",
          "type": "string"
        }
      ],
      "stateMutability": "view",
      "type": "function",
      "constant": true
    },
    {
      "inputs": [
        {
          "internalType": "address",
          "name": "creator",
          "type": "address"
        },
        {
          "internalType": "string",
          "name": "_name",
          "type": "string"
        },
        {
          "internalType": "string",
          "name": "_description",
          "type": "string"
        },
        {
          "internalType": "string",
          "name": "_magnetLink",
          "type": "string"
        },
        {
          "internalType": "string",
          "name": "_imgUrl",
          "type": "string"
        },
        {
          "internalType": "string",
          "name": "_company",
          "type": "string"
        },
        {
          "internalType": "uint256",
          "name": "_price",
          "type": "uint256"
        },
        {
          "internalType": "string",
          "name": "_fileSha256",
          "type": "string"
        }
      ],
      "name": "createNewApp",
      "outputs": [],
      "stateMutability": "nonpayable",
      "type": "function"
    },
    {
      "inputs": [
        {
          "internalType": "uint256",
          "name": "app_id",
          "type": "uint256"
        },
        {
          "internalType": "string",
          "name": "_name",
          "type": "string"
        },
        {
          "internalType": "string",
          "name": "_description",
          "type": "string"
        },
        {
          "internalType": "string",
          "name": "_magnetLink",
          "type": "string"
        },
        {
          "internalType": "string",
          "name": "_imgUrl",
          "type": "string"
        },
        {
          "internalType": "string",
          "name": "_company",
          "type": "string"
        },
        {
          "internalType": "uint256",
          "name": "_price",
          "type": "uint256"
        },
        {
          "internalType": "string",
          "name": "_fileSha256",
          "type": "string"
        }
      ],
      "name": "updateApp",
      "outputs": [],
      "stateMutability": "nonpayable",
      "type": "function"
    },
    {
      "inputs": [
        {
          "internalType": "address",
          "name": "app_address",
          "type": "address"
        }
      ],
      "name": "purchaseApp",
      "outputs": [],
      "stateMutability": "nonpayable",
      "type": "function"
    },
    {
      "inputs": [
        {
          "internalType": "uint256",
          "name": "start",
          "type": "uint256"
        },
        {
          "internalType": "uint256",
          "name": "len",
          "type": "uint256"
        }
      ],
      "name": "getAppBatch",
      "outputs": [
        {
          "components": [
            {
              "internalType": "uint256",
              "name": "id",
              "type": "uint256"
            },
            {
              "internalType": "string",
              "name": "name",
              "type": "string"
            },
            {
              "internalType": "string",
              "name": "description",
              "type": "string"
            },
            {
              "internalType": "string",
              "name": "imgUrl",
              "type": "string"
            },
            {
              "internalType": "string",
              "name": "company",
              "type": "string"
            },
            {
              "internalType": "uint256",
              "name": "price",
              "type": "uint256"
            },
            {
              "internalType": "uint256",
              "name": "num_ratings",
              "type": "uint256"
            },
            {
              "internalType": "uint256",
              "name": "rating",
              "type": "uint256"
            },
            {
              "internalType": "uint256",
              "name": "rating_modulu",
              "type": "uint256"
            },
            {
              "internalType": "string",
              "name": "fileSha256",
              "type": "string"
            },
            {
              "internalType": "bool",
              "name": "owned",
              "type": "bool"
            }
          ],
          "internalType": "struct AppInfoLibrary.AppInfo[]",
          "name": "",
          "type": "tuple[]"
        }
      ],
      "stateMutability": "view",
      "type": "function",
      "constant": true
    },
    {
      "inputs": [],
      "name": "getAppCount",
      "outputs": [
        {
          "internalType": "uint256",
          "name": "",
          "type": "uint256"
        }
      ],
      "stateMutability": "view",
      "type": "function",
      "constant": true
    }
  ],
  "bytecode": "0x608060405234801561001057600080fd5b5061002860046401000000006115a461002d82021704565b610033565b60009055565b615e6180620000436000396000f3fe60806040523480156200001157600080fd5b50600436106200007f5760003560e060020a9004806380109fea116200005a57806380109fea146200011857806384b75a021462000131578063bd0c2845146200014857600080fd5b806306fdde0314620000845780632858594b14620000d95780637d6a24ab14620000f2575b600080fd5b620000c16040518060400160405280600981526020017f6441707073746f7265000000000000000000000000000000000000000000000081525081565b604051620000d091906200195b565b60405180910390f35b620000f0620000ea3660046200199b565b6200015f565b005b6200010962000103366004620019bb565b620006c1565b604051620000d09190620019de565b6200012262000914565b604051908152602001620000d0565b620000f06200014236600462001c26565b62000927565b620000f06200015936600462001d43565b62001486565b60405160e060020a6386bd3f9102815233600482018190529073__AddressUtils__________________________906386bd3f9190602401602060405180830381865af4158015620001b5573d6000803e3d6000fd5b505050506040513d601f19601f82011682018060405250810190620001db919062001d9b565b15620002315760405160e560020a62461bcd02815260206004820152600c60248201527f496e76616c69642061646472000000000000000000000000000000000000000060448201526064015b60405180910390fd5b600160a060020a038181166000908152600360205260409081902054905160e060020a6386bd3f910281529116600482015273__AddressUtils__________________________906386bd3f9190602401602060405180830381865af4158015620002a0573d6000803e3d6000fd5b505050506040513d601f19601f82011682018060405250810190620002c6919062001d9b565b15620003185760405160e560020a62461bcd02815260206004820152600e60248201527f55736572206e6f7420666f756e64000000000000000000000000000000000000604482015260640162000228565b81600081600160a060020a031663af640d0f6040518163ffffffff1660e060020a028152600401602060405180830381865afa1580156200035d573d6000803e3d6000fd5b505050506040513d601f19601f8201168201806040525081019062000383919062001db9565b905062000392600082620015aa565b620003e35760405160e560020a62461bcd02815260206004820152600d60248201527f417070206e6f7420666f756e6400000000000000000000000000000000000000604482015260640162000228565b620003f0600082620015c1565b60405160e060020a6386bd3f91028152600160a060020a03909116600482015273__AddressUtils__________________________906386bd3f9190602401602060405180830381865af41580156200044d573d6000803e3d6000fd5b505050506040513d601f19601f8201168201806040525081019062000473919062001d9b565b15620004c55760405160e560020a62461bcd02815260206004820152600a60248201527f4170702065786973747300000000000000000000000000000000000000000000604482015260640162000228565b336000818152600360205260409081902054905160e060020a6386bd3f91028152600160a060020a03909116600482015273__AddressUtils__________________________906386bd3f9190602401602060405180830381865af415801562000533573d6000803e3d6000fd5b505050506040513d601f19601f8201168201806040525081019062000559919062001d9b565b156200056a576200056a81620015cf565b6200064485600160a060020a03166302d05d3f6040518163ffffffff1660e060020a028152600401602060405180830381865afa158015620005b0573d6000803e3d6000fd5b505050506040513d601f19601f82011682018060405250810190620005d6919062001dd3565b86600160a060020a031663a035b1fe6040518163ffffffff1660e060020a028152600401602060405180830381865afa15801562000618573d6000803e3d6000fd5b505050506040513d601f19601f820116820180604052508101906200063e919062001db9565b62001656565b6040517f2858594b000000000000000000000000000000000000000000000000000000008152600160a060020a038681166004830152821690632858594b90602401600060405180830381600087803b158015620006a157600080fd5b505af1158015620006b6573d6000803e3d6000fd5b505050505050505050565b60608282620006d2600083620015aa565b620007235760405160e560020a62461bcd02815260206004820152600d60248201527f496e76616c696420696e64657800000000000000000000000000000000000000604482015260640162000228565b60008111620007785760405160e560020a62461bcd02815260206004820152600e60248201527f496e76616c6964206c656e677468000000000000000000000000000000000000604482015260640162000228565b60008467ffffffffffffffff81111562000796576200079662001b0f565b6040519080825280602002602001820160405280156200082957816020015b62000815604051806101600160405280600081526020016060815260200160608152602001606081526020016060815260200160008152602001600081526020016000815260200160008152602001606081526020016000151581525090565b815260200190600190039081620007b55790505b50905060005b858110156200090a576200086962000848600062001781565b62000854838a62001e22565b62000860919062001e3d565b600090620015c1565b600160a060020a031663e26799ff6040518163ffffffff1660e060020a028152600401600060405180830381865afa158015620008aa573d6000803e3d6000fd5b505050506040513d6000823e601f3d908101601f19168201604052620008d4919081019062001ec5565b828281518110620008e957620008e962002025565b60200260200101819052508080620009019062002054565b9150506200082f565b5095945050505050565b600062000922600062001781565b905090565b60405160e060020a6386bd3f9102815233600482018190529073__AddressUtils__________________________906386bd3f9190602401602060405180830381865af41580156200097d573d6000803e3d6000fd5b505050506040513d601f19601f82011682018060405250810190620009a3919062001d9b565b15620009f55760405160e560020a62461bcd02815260206004820152600c60248201527f496e76616c696420616464720000000000000000000000000000000000000000604482015260640162000228565b600160a060020a038181166000908152600360205260409081902054905160e060020a6386bd3f910281529116600482015273__AddressUtils__________________________906386bd3f9190602401602060405180830381865af415801562000a64573d6000803e3d6000fd5b505050506040513d601f19601f8201168201806040525081019062000a8a919062001d9b565b1562000adc5760405160e560020a62461bcd02815260206004820152600e60248201527f55736572206e6f7420666f756e64000000000000000000000000000000000000604482015260640162000228565b8862000aea600082620015aa565b62000b3b5760405160e560020a62461bcd02815260206004820152600d60248201527f417070206e6f7420666f756e6400000000000000000000000000000000000000604482015260640162000228565b62000b48600082620015c1565b60405160e060020a6386bd3f91028152600160a060020a03909116600482015273__AddressUtils__________________________906386bd3f9190602401602060405180830381865af415801562000ba5573d6000803e3d6000fd5b505050506040513d601f19601f8201168201806040525081019062000bcb919062001d9b565b1562000c1d5760405160e560020a62461bcd02815260206004820152601260248201527f41707020646f656e732774206578697374730000000000000000000000000000604482015260640162000228565b60405160e060020a6386bd3f9102815233600482018190528b9173__AddressUtils__________________________906386bd3f9190602401602060405180830381865af415801562000c74573d6000803e3d6000fd5b505050506040513d601f19601f8201168201806040525081019062000c9a919062001d9b565b1562000cec5760405160e560020a62461bcd02815260206004820152600c60248201527f496e76616c696420616464720000000000000000000000000000000000000000604482015260640162000228565b62000cf9600083620015c1565b600160a060020a03166302d05d3f6040518163ffffffff1660e060020a028152600401602060405180830381865afa15801562000d3a573d6000803e3d6000fd5b505050506040513d601f19601f8201168201806040525081019062000d60919062001dd3565b600160a060020a031681600160a060020a03161462000dc55760405160e560020a62461bcd02815260206004820152601060248201527f6e6f742063726561746f72206164647200000000000000000000000000000000604482015260640162000228565b600062000dd3818e620015c1565b60405160008051602062005e0c833981519152815290915073__StringUtils___________________________906327341c8a9062000e17908f906004016200195b565b602060405180830381865af415801562000e35573d6000803e3d6000fd5b505050506040513d601f19601f8201168201806040525081019062000e5b919062001d9b565b62000edc576040517f81ecdf45000000000000000000000000000000000000000000000000000000008152600160a060020a038216906381ecdf459062000ea7908f906004016200195b565b600060405180830381600087803b15801562000ec257600080fd5b505af115801562000ed7573d6000803e3d6000fd5b505050505b60405160008051602062005e0c833981519152815273__StringUtils___________________________906327341c8a9062000f1d908e906004016200195b565b602060405180830381865af415801562000f3b573d6000803e3d6000fd5b505050506040513d601f19601f8201168201806040525081019062000f61919062001d9b565b62000fe2576040517ffafb1b01000000000000000000000000000000000000000000000000000000008152600160a060020a0382169063fafb1b019062000fad908e906004016200195b565b600060405180830381600087803b15801562000fc857600080fd5b505af115801562000fdd573d6000803e3d6000fd5b505050505b60405160008051602062005e0c833981519152815273__StringUtils___________________________906327341c8a9062001023908d906004016200195b565b602060405180830381865af415801562001041573d6000803e3d6000fd5b505050506040513d601f19601f8201168201806040525081019062001067919062001d9b565b620010e8576040517f42cbef95000000000000000000000000000000000000000000000000000000008152600160a060020a038216906342cbef9590620010b3908d906004016200195b565b600060405180830381600087803b158015620010ce57600080fd5b505af1158015620010e3573d6000803e3d6000fd5b505050505b60405160008051602062005e0c833981519152815273__StringUtils___________________________906327341c8a9062001129908c906004016200195b565b602060405180830381865af415801562001147573d6000803e3d6000fd5b505050506040513d601f19601f820116820180604052508101906200116d919062001d9b565b620011ee576040517f4ad3d57d000000000000000000000000000000000000000000000000000000008152600160a060020a03821690634ad3d57d90620011b9908c906004016200195b565b600060405180830381600087803b158015620011d457600080fd5b505af1158015620011e9573d6000803e3d6000fd5b505050505b60405160008051602062005e0c833981519152815273__StringUtils___________________________906327341c8a906200122f908b906004016200195b565b602060405180830381865af41580156200124d573d6000803e3d6000fd5b505050506040513d601f19601f8201168201806040525081019062001273919062001d9b565b620012f4576040517f128a8f76000000000000000000000000000000000000000000000000000000008152600160a060020a0382169063128a8f7690620012bf908b906004016200195b565b600060405180830381600087803b158015620012da57600080fd5b505af1158015620012ef573d6000803e3d6000fd5b505050505b861562001371576040517fe9cd36d300000000000000000000000000000000000000000000000000000000815260048101889052600160a060020a0382169063e9cd36d390602401600060405180830381600087803b1580156200135757600080fd5b505af11580156200136c573d6000803e3d6000fd5b505050505b60405160008051602062005e0c833981519152815273__StringUtils___________________________906327341c8a90620013b29089906004016200195b565b602060405180830381865af4158015620013d0573d6000803e3d6000fd5b505050506040513d601f19601f82011682018060405250810190620013f6919062001d9b565b62001477576040517fda0c57e9000000000000000000000000000000000000000000000000000000008152600160a060020a0382169063da0c57e990620014429089906004016200195b565b600060405180830381600087803b1580156200145d57600080fd5b505af115801562001472573d6000803e3d6000fd5b505050505b50505050505050505050505050565b600160a060020a038881166000908152600360205260409081902054905160e060020a6386bd3f910281529116600482015273__AddressUtils__________________________906386bd3f9190602401602060405180830381865af4158015620014f5573d6000803e3d6000fd5b505050506040513d601f19601f820116820180604052508101906200151b919062001d9b565b156200152c576200152c88620015cf565b60006200153a600062001781565b90506000818a8a8a8a8a8a8a8a6040516200155590620018de565b620015699998979695949392919062002070565b604051809103906000f08015801562001586573d6000803e3d6000fd5b50905062001597600083836200178e565b5050505050505050505050565b60009055565b6000620015b88383620017ae565b90505b92915050565b6000620015b88383620017bc565b620015de600480546001019055565b80604051620015ed90620018ec565b600160a060020a039091168152602001604051809103906000f0801580156200161a573d6000803e3d6000fd5b50600160a060020a039182166000908152600360205260409020805473ffffffffffffffffffffffffffffffffffffffff191691909216179055565b3031811115620016ac5760405160e560020a62461bcd02815260206004820152601d60248201527f416464726573733a20696e73756666696369656e742062616c616e6365000000604482015260640162000228565b600082600160a060020a03168260405160006040518083038185875af1925050503d8060008114620016fb576040519150601f19603f3d011682016040523d82523d6000602084013e62001700565b606091505b50509050806200177c5760405160e560020a62461bcd02815260206004820152603a60248201527f416464726573733a20756e61626c6520746f2073656e642076616c75652c207260448201527f6563697069656e74206d61792068617665207265766572746564000000000000606482015260840162000228565b505050565b6000620015bb8262001834565b6000620017a68484600160a060020a03851662001841565b949350505050565b6000620015b8838362001860565b600081815260028301602052604081205480151580620017e35750620017e38484620017ae565b620015b85760405160e560020a62461bcd02815260206004820152601e60248201527f456e756d657261626c654d61703a206e6f6e6578697374656e74206b65790000604482015260640162000228565b6000620015bb8262001879565b60008281526002840160205260408120829055620017a6848462001884565b60008181526001830160205260408120541515620015b8565b6000620015bb825490565b6000620015b883836000818152600183016020526040812054620018d557508154600181810184556000848152602080822090930184905584548482528286019093526040902091909155620015bb565b506000620015bb565b61292f806200212183390190565b6113bc8062004a5083390190565b60005b8381101562001917578181015183820152602001620018fd565b8381111562001927576000848401525b50505050565b6000815180845262001947816020860160208601620018fa565b601f01601f19169290920160200192915050565b602081526000620015b860208301846200192d565b600160a060020a03811681146200198657600080fd5b50565b8035620019968162001970565b919050565b600060208284031215620019ae57600080fd5b8135620015b88162001970565b60008060408385031215620019cf57600080fd5b50508035926020909101359150565b60208082528251828201819052600091906040908185019080840286018301878501865b8381101562001b0157603f1989840301855281516101608151855288820151818a87015262001a34828701826200192d565b915050878201518582038987015262001a4e82826200192d565b9150506060808301518683038288015262001a6a83826200192d565b925050506080808301518683038288015262001a8783826200192d565b60a0858101519089015260c0808601519089015260e08086015190890152610100808601519089015261012080860151898303828b01529194509250905062001ad183826200192d565b9250505061014080830151925062001aec8187018415159052565b50958801959350509086019060010162001a02565b509098975050505050505050565b7f4e487b7100000000000000000000000000000000000000000000000000000000600052604160045260246000fd5b604051610160810167ffffffffffffffff8111828210171562001b655762001b6562001b0f565b60405290565b604051601f8201601f1916810167ffffffffffffffff8111828210171562001b975762001b9762001b0f565b604052919050565b600067ffffffffffffffff82111562001bbc5762001bbc62001b0f565b50601f01601f191660200190565b600082601f83011262001bdc57600080fd5b813562001bf362001bed8262001b9f565b62001b6b565b81815284602083860101111562001c0957600080fd5b816020850160208301376000918101602001919091529392505050565b600080600080600080600080610100898b03121562001c4457600080fd5b88359750602089013567ffffffffffffffff8082111562001c6457600080fd5b62001c728c838d0162001bca565b985060408b013591508082111562001c8957600080fd5b62001c978c838d0162001bca565b975060608b013591508082111562001cae57600080fd5b62001cbc8c838d0162001bca565b965060808b013591508082111562001cd357600080fd5b62001ce18c838d0162001bca565b955060a08b013591508082111562001cf857600080fd5b62001d068c838d0162001bca565b945060c08b0135935060e08b013591508082111562001d2457600080fd5b5062001d338b828c0162001bca565b9150509295985092959890939650565b600080600080600080600080610100898b03121562001d6157600080fd5b62001d6c8962001989565b9750602089013567ffffffffffffffff8082111562001c6457600080fd5b805180151581146200199657600080fd5b60006020828403121562001dae57600080fd5b620015b88262001d8a565b60006020828403121562001dcc57600080fd5b5051919050565b60006020828403121562001de657600080fd5b8151620015b88162001970565b7f4e487b7100000000000000000000000000000000000000000000000000000000600052601160045260246000fd5b6000821982111562001e385762001e3862001df3565b500190565b60008262001e74577f4e487b7100000000000000000000000000000000000000000000000000000000600052601260045260246000fd5b500690565b600082601f83011262001e8b57600080fd5b815162001e9c62001bed8262001b9f565b81815284602083860101111562001eb257600080fd5b620017a6826020830160208701620018fa565b60006020828403121562001ed857600080fd5b815167ffffffffffffffff8082111562001ef157600080fd5b90830190610160828603121562001f0757600080fd5b62001f1162001b3e565b8251815260208301518281111562001f2857600080fd5b62001f368782860162001e79565b60208301525060408301518281111562001f4f57600080fd5b62001f5d8782860162001e79565b60408301525060608301518281111562001f7657600080fd5b62001f848782860162001e79565b60608301525060808301518281111562001f9d57600080fd5b62001fab8782860162001e79565b60808301525060a083015160a082015260c083015160c082015260e083015160e0820152610100808401518183015250610120808401518381111562001ff057600080fd5b62001ffe8882870162001e79565b82840152505061014091506200201682840162001d8a565b91810191909152949350505050565b7f4e487b7100000000000000000000000000000000000000000000000000000000600052603260045260246000fd5b60006001820162002069576200206962001df3565b5060010190565b60006101208b8352600160a060020a038b1660208401528060408401526200209b8184018b6200192d565b90508281036060840152620020b1818a6200192d565b90508281036080840152620020c781896200192d565b905082810360a0840152620020dd81886200192d565b905082810360c0840152620020f381876200192d565b90508460e08401528281036101008401526200211081856200192d565b9c9b50505050505050505050505056fe60806040523480156200001157600080fd5b506040516200292f3803806200292f833981016040819052620000349162000853565b6200005a6200004b64010000000062000634810204565b64010000000062000638810204565b886200006a565b60405180910390fd5b8260008111620000d7576040517f08c379a000000000000000000000000000000000000000000000000000000000815260206004820152601c60248201527f5072696365206d7573742062652067726561746572207468616e203000000000604482015260640162000061565b6040517f27341c8a000000000000000000000000000000000000000000000000000000008152899073__StringUtils___________________________906327341c8a906200012b90849060040162000982565b602060405180830381865af415801562000149573d6000803e3d6000fd5b505050506040513d601f19601f820116820180604052508101906200016f9190620009b7565b15620001c7576040517f08c379a000000000000000000000000000000000000000000000000000000000815260206004820152601860248201526000805160206200290f833981519152604482015260640162000061565b6040517f27341c8a000000000000000000000000000000000000000000000000000000008152889073__StringUtils___________________________906327341c8a906200021b90849060040162000982565b602060405180830381865af415801562000239573d6000803e3d6000fd5b505050506040513d601f19601f820116820180604052508101906200025f9190620009b7565b15620002b7576040517f08c379a000000000000000000000000000000000000000000000000000000000815260206004820152601860248201526000805160206200290f833981519152604482015260640162000061565b6040517f27341c8a000000000000000000000000000000000000000000000000000000008152859073__StringUtils___________________________906327341c8a906200030b90849060040162000982565b602060405180830381865af415801562000329573d6000803e3d6000fd5b505050506040513d601f19601f820116820180604052508101906200034f9190620009b7565b15620003a7576040517f08c379a000000000000000000000000000000000000000000000000000000000815260206004820152601860248201526000805160206200290f833981519152604482015260640162000061565b60028054600160a060020a031916600160a060020a038f1617905560018e90558b51620003dc9060039060208f01906200069d565b508a51620003f29060049060208e01906200069d565b508951620004089060069060208d01906200069d565b5088516200041e9060079060208c01906200069d565b506040517f27341c8a00000000000000000000000000000000000000000000000000000000815273__StringUtils___________________________906327341c8a9062000471908c9060040162000982565b602060405180830381865af41580156200048f573d6000803e3d6000fd5b505050506040513d601f19601f82011682018060405250810190620004b59190620009b7565b15620005035760408051808201909152600d8082527f64656661756c7420696d61676500000000000000000000000000000000000000602090920191825262000501916007916200069d565b505b8751620005189060089060208b01906200069d565b5060006009819055600a819055600b88905560058054600181018255915286516200056b917f036b6384b5eca791c62761152d0c79bb0604c104a5fb6f4eb0703f3154bb3db0019060208901906200069d565b5062000586600c6401000000006200155f6200068882021704565b620005a0600d6401000000006200155f6200068882021704565b600254600154604051600160a060020a0390921691620005c39060039062000a37565b60405180910390207f4ebeeb573ab9892d0c9b8e2b088b43617667b3479dca07176f29ef21ba848bd1620006056200068e640100000000026401000000009004565b604051600160a060020a03909116815260200160405180910390a4505050505050505050505050505062000af3565b3390565b60008054600160a060020a03838116600160a060020a0319831681178455604051919092169283917f8be0079c531659141344cd1fd0a4f28419497f9722a3daafe3b4186f6b6457e09190a35050565b60009055565b600054600160a060020a031690565b828054620006ab90620009e2565b90600052602060002090601f016020900481019282620006cf57600085556200071a565b82601f10620006ea57805160ff19168380011785556200071a565b828001600101855582156200071a579182015b828111156200071a578251825591602001919060010190620006fd565b50620007289291506200072c565b5090565b5b808211156200072857600081556001016200072d565b8051600160a060020a03811681146200075b57600080fd5b919050565b7f4e487b7100000000000000000000000000000000000000000000000000000000600052604160045260246000fd5b60005b83811015620007ac57818101518382015260200162000792565b83811115620007bc576000848401525b50505050565b600082601f830112620007d457600080fd5b81516001604060020a0380821115620007f157620007f162000760565b604051601f8301601f19908116603f011681019082821181831017156200081c576200081c62000760565b816040528381528660208588010111156200083657600080fd5b620008498460208301602089016200078f565b9695505050505050565b60008060008060008060008060006101208a8c0312156200087357600080fd5b895198506200088560208b0162000743565b975060408a01516001604060020a0380821115620008a257600080fd5b620008b08d838e01620007c2565b985060608c0151915080821115620008c757600080fd5b620008d58d838e01620007c2565b975060808c0151915080821115620008ec57600080fd5b620008fa8d838e01620007c2565b965060a08c01519150808211156200091157600080fd5b6200091f8d838e01620007c2565b955060c08c01519150808211156200093657600080fd5b620009448d838e01620007c2565b945060e08c015193506101008c01519150808211156200096357600080fd5b50620009728c828d01620007c2565b9150509295985092959850929598565b6020815260008251806020840152620009a38160408501602087016200078f565b601f01601f19169190910160400192915050565b600060208284031215620009ca57600080fd5b81518015158114620009db57600080fd5b9392505050565b600281046001821680620009f757607f821691505b60208210810362000a31577f4e487b7100000000000000000000000000000000000000000000000000000000600052602260045260246000fd5b50919050565b815460009081906002810460018083168062000a5457607f831692505b6020808410820362000a8d577f4e487b710000000000000000000000000000000000000000000000000000000086526022600452602486fd5b81801562000aa4576001811462000ab65762000ae5565b60ff1986168952848901965062000ae5565b60008a81526020902060005b8681101562000add5781548b82015290850190830162000ac2565b505084890196505b509498975050505050505050565b611e0c8062000b036000396000f3fe608060405234801561001057600080fd5b50600436106101b5576000357c0100000000000000000000000000000000000000000000000000000000900480638da5cb5b11610100578063da0c57e9116100a9578063f2fde38b11610083578063f2fde38b14610325578063fabec44a14610338578063fafb1b011461034057600080fd5b8063da0c57e9146102ea578063e26799ff146102fd578063e9cd36d31461031257600080fd5b8063af640d0f116100da578063af640d0f146102cf578063d23fe7c7146102d8578063d68387c7146102e257600080fd5b80638da5cb5b146102ad578063a035b1fe146102be578063a512bd79146102c757600080fd5b8063554ca36c116101625780637284e4161161013c5780637284e4161461027557806373b8fc801461027d57806381ecdf451461029a57600080fd5b8063554ca36c146102525780636904c94d14610265578063715018a61461026d57600080fd5b806334b1a7cc1161019357806334b1a7cc1461021457806342cbef951461022c5780634ad3d57d1461023f57600080fd5b806302d05d3f146101ba57806306fdde03146101ea578063128a8f76146101ff575b600080fd5b6002546101cd90600160a060020a031681565b604051600160a060020a0390911681526020015b60405180910390f35b6101f2610353565b6040516101e19190611883565b61021261020d36600461189d565b6103e1565b005b600d5461021e9081565b6040519081526020016101e1565b61021261023a36600461189d565b61057d565b61021261024d36600461189d565b61070a565b61021261026036600461189d565b610897565b6101f2610a7e565b610212610a8b565b6101f2610ac4565b610285610ad1565b604080519283526020830191909152016101e1565b6102126102a836600461189d565b610af3565b600054600160a060020a03166101cd565b61021e600b5481565b6101f2610c80565b61021e60015481565b600c5461021e9081565b6101f2610c8d565b6102126102f836600461192c565b610c9a565b610305610e56565b6040516101e191906119dd565b610212610320366004611ad0565b611149565b610212610333366004611ae9565b61125e565b6101f2611316565b61021261034e36600461189d565b6113d2565b6003805461036090611b12565b80601f016020809104026020016040519081016040528092919081815260200182805461038c90611b12565b80156103d95780601f106103ae576101008083540402835291602001916103d9565b820191906000526020600020905b8154815290600101906020018083116103bc57829003601f168201915b505050505081565b600054600160a060020a031633146104175760405160e560020a62461bcd02815260040161040e90611b53565b60405180910390fd5b81818080601f01602080910402602001604051908101604052809392919081815260200183838082843760009201919091525050604051600080516020611d77833981519152815273__StringUtils___________________________92506327341c8a915061048b908490600401611883565b602060405180830381865af41580156104a8573d6000803e3d6000fd5b505050506040513d601f19601f820116820180604052508101906104cc9190611b88565b156104ec5760405160e560020a62461bcd02815260040161040e90611baa565b82826040516104fc929190611be1565b604051809103902060086040516105139190611bf1565b6040519081900381207f7570646174656420636f6d70616e790000000000000000000000000000000000825290600f0160405190819003812033825290600080516020611db78339815191529060200160405180910390a46105776008848461171e565b50505050565b600054600160a060020a031633146105aa5760405160e560020a62461bcd02815260040161040e90611b53565b81818080601f01602080910402602001604051908101604052809392919081815260200183838082843760009201919091525050604051600080516020611d77833981519152815273__StringUtils___________________________92506327341c8a915061061e908490600401611883565b602060405180830381865af415801561063b573d6000803e3d6000fd5b505050506040513d601f19601f8201168201806040525081019061065f9190611b88565b1561067f5760405160e560020a62461bcd02815260040161040e90611baa565b828260405161068f929190611be1565b604051809103902060066040516106a69190611bf1565b6040519081900381207f75706461746564206e65775f6d61676e65744c696e6b0000000000000000000082529060160160405190819003812033825290600080516020611db78339815191529060200160405180910390a46105776006848461171e565b600054600160a060020a031633146107375760405160e560020a62461bcd02815260040161040e90611b53565b81818080601f01602080910402602001604051908101604052809392919081815260200183838082843760009201919091525050604051600080516020611d77833981519152815273__StringUtils___________________________92506327341c8a91506107ab908490600401611883565b602060405180830381865af41580156107c8573d6000803e3d6000fd5b505050506040513d601f19601f820116820180604052508101906107ec9190611b88565b1561080c5760405160e560020a62461bcd02815260040161040e90611baa565b828260405161081c929190611be1565b604051809103902060076040516108339190611bf1565b6040519081900381207f7570646174656420696d6755726c000000000000000000000000000000000000825290600e0160405190819003812033825290600080516020611db78339815191529060200160405180910390a46105776007848461171e565b600054600160a060020a031633146108c45760405160e560020a62461bcd02815260040161040e90611b53565b81818080601f01602080910402602001604051908101604052809392919081815260200183838082843760009201919091525050604051600080516020611d77833981519152815273__StringUtils___________________________92506327341c8a9150610938908490600401611883565b602060405180830381865af4158015610955573d6000803e3d6000fd5b505050506040513d601f19601f820116820180604052508101906109799190611b88565b156109995760405160e560020a62461bcd02815260040161040e90611baa565b82826040516109a9929190611be1565b604051908190039020600580546109c290600190611cb0565b815481106109d2576109d2611cc7565b906000526020600020016040516109e99190611bf1565b6040519081900381207f757064617465642066696c657368610000000000000000000000000000000000825290600f0160405190819003812033825290600080516020611db78339815191529060200160405180910390a460058054600181018255600091909152610577907f036b6384b5eca791c62761152d0c79bb0604c104a5fb6f4eb0703f3154bb3db001848461171e565b6008805461036090611b12565b600054600160a060020a03163314610ab85760405160e560020a62461bcd02815260040161040e90611b53565b610ac26000611565565b565b6004805461036090611b12565b600080600060095411610ae75750600091829150565b5050600954600a549091565b600054600160a060020a03163314610b205760405160e560020a62461bcd02815260040161040e90611b53565b81818080601f01602080910402602001604051908101604052809392919081815260200183838082843760009201919091525050604051600080516020611d77833981519152815273__StringUtils___________________________92506327341c8a9150610b94908490600401611883565b602060405180830381865af4158015610bb1573d6000803e3d6000fd5b505050506040513d601f19601f82011682018060405250810190610bd59190611b88565b15610bf55760405160e560020a62461bcd02815260040161040e90611baa565b8282604051610c05929190611be1565b60405180910390206003604051610c1c9190611bf1565b6040519081900381207f75706461746564206e616d650000000000000000000000000000000000000000825290600c0160405190819003812033825290600080516020611db78339815191529060200160405180910390a46105776003848461171e565b6006805461036090611b12565b6007805461036090611b12565b600054600160a060020a03163314610cc75760405160e560020a62461bcd02815260040161040e90611b53565b604051600080516020611d778339815191528152819073__StringUtils___________________________906327341c8a90610d07908490600401611883565b602060405180830381865af4158015610d24573d6000803e3d6000fd5b505050506040513d601f19601f82011682018060405250810190610d489190611b88565b15610d685760405160e560020a62461bcd02815260040161040e90611baa565b81604051610d769190611ce4565b60405190819003902060058054610d8f90600190611cb0565b81548110610d9f57610d9f611cc7565b90600052602060002001604051610db69190611bf1565b6040519081900381207f7570646174656420736861000000000000000000000000000000000000000000825290600b0160405190819003812033825290600080516020611db78339815191529060200160405180910390a4600580546001810182556000919091528251610e51917f036b6384b5eca791c62761152d0c79bb0604c104a5fb6f4eb0703f3154bb3db0019060208501906117a2565b505050565b610eb5604051806101600160405280600081526020016060815260200160608152602001606081526020016060815260200160008152602001600081526020016000815260200160008152602001606081526020016000151581525090565b6000604051806101600160405280600154815260200160038054610ed890611b12565b80601f0160208091040260200160405190810160405280929190818152602001828054610f0490611b12565b8015610f515780601f10610f2657610100808354040283529160200191610f51565b820191906000526020600020905b815481529060010190602001808311610f3457829003601f168201915b5050505050815260200160048054610f6890611b12565b80601f0160208091040260200160405190810160405280929190818152602001828054610f9490611b12565b8015610fe15780601f10610fb657610100808354040283529160200191610fe1565b820191906000526020600020905b815481529060010190602001808311610fc457829003601f168201915b5050505050815260200160078054610ff890611b12565b80601f016020809104026020016040519081016040528092919081815260200182805461102490611b12565b80156110715780601f1061104657610100808354040283529160200191611071565b820191906000526020600020905b81548152906001019060200180831161105457829003601f168201915b505050505081526020016008805461108890611b12565b80601f01602080910402602001604051908101604052809291908181526020018280546110b490611b12565b80156111015780601f106110d657610100808354040283529160200191611101565b820191906000526020600020905b8154815290600101906020018083116110e457829003601f168201915b50505050508152602001600b54815260200161111c600c5490565b81526020016009548152602001600a548152602001611139611316565b8152600060209091015292915050565b600054600160a060020a031633146111765760405160e560020a62461bcd02815260040161040e90611b53565b80600081116111ca5760405160e560020a62461bcd02815260206004820152601c60248201527f5072696365206d7573742062652067726561746572207468616e203000000000604482015260640161040e565b6111d3826115c2565b6040516111e09190611ce4565b60405180910390206111f3600b546115c2565b6040516112009190611ce4565b6040519081900381207f7570646174656420707269636500000000000000000000000000000000000000825290600d0160405190819003812033825290600080516020611db78339815191529060200160405180910390a450600b55565b600054600160a060020a0316331461128b5760405160e560020a62461bcd02815260040161040e90611b53565b600160a060020a03811661130a5760405160e560020a62461bcd02815260206004820152602660248201527f4f776e61626c653a206e6577206f776e657220697320746865207a65726f206160448201527f6464726573730000000000000000000000000000000000000000000000000000606482015260840161040e565b61131381611565565b50565b600580546060919061132a90600190611cb0565b8154811061133a5761133a611cc7565b90600052602060002001805461134f90611b12565b80601f016020809104026020016040519081016040528092919081815260200182805461137b90611b12565b80156113c85780601f1061139d576101008083540402835291602001916113c8565b820191906000526020600020905b8154815290600101906020018083116113ab57829003601f168201915b5050505050905090565b600054600160a060020a031633146113ff5760405160e560020a62461bcd02815260040161040e90611b53565b81818080601f01602080910402602001604051908101604052809392919081815260200183838082843760009201919091525050604051600080516020611d77833981519152815273__StringUtils___________________________92506327341c8a9150611473908490600401611883565b602060405180830381865af4158015611490573d6000803e3d6000fd5b505050506040513d601f19601f820116820180604052508101906114b49190611b88565b156114d45760405160e560020a62461bcd02815260040161040e90611baa565b82826040516114e4929190611be1565b604051809103902060046040516114fb9190611bf1565b6040519081900381207f75706461746564206465736372697074696f6e0000000000000000000000000082529060130160405190819003812033825290600080516020611db78339815191529060200160405180910390a46105776004848461171e565b60009055565b60008054600160a060020a0383811673ffffffffffffffffffffffffffffffffffffffff19831681178455604051919092169283917f8be0079c531659141344cd1fd0a4f28419497f9722a3daafe3b4186f6b6457e09190a35050565b60608160000361160557505060408051808201909152600181527f3000000000000000000000000000000000000000000000000000000000000000602082015290565b8160005b811561162f578061161981611d00565b91506116289050600a83611d36565b9150611609565b60008167ffffffffffffffff81111561164a5761164a61190f565b6040519080825280601f01601f191660200182016040528015611674576020820181803683370190505b5090505b841561171657611689600183611cb0565b9150611696600a86611d4a565b6116a1906030611d5e565b7f0100000000000000000000000000000000000000000000000000000000000000028183815181106116d5576116d5611cc7565b60200101907effffffffffffffffffffffffffffffffffffffffffffffffffffffffffffff1916908160001a90535061170f600a86611d36565b9450611678565b949350505050565b82805461172a90611b12565b90600052602060002090601f01602090048101928261174c5760008555611792565b82601f106117655782800160ff19823516178555611792565b82800160010185558215611792579182015b82811115611792578235825591602001919060010190611777565b5061179e929150611816565b5090565b8280546117ae90611b12565b90600052602060002090601f0160209004810192826117d05760008555611792565b82601f106117e957805160ff1916838001178555611792565b82800160010185558215611792579182015b828111156117925782518255916020019190600101906117fb565b5b8082111561179e5760008155600101611817565b60005b8381101561184657818101518382015260200161182e565b838111156105775750506000910152565b6000815180845261186f81602086016020860161182b565b601f01601f19169290920160200192915050565b6020815260006118966020830184611857565b9392505050565b600080602083850312156118b057600080fd5b823567ffffffffffffffff808211156118c857600080fd5b818501915085601f8301126118dc57600080fd5b8135818111156118eb57600080fd5b8660208285010111156118fd57600080fd5b60209290920196919550909350505050565b600080516020611d97833981519152600052604160045260246000fd5b60006020828403121561193e57600080fd5b813567ffffffffffffffff8082111561195657600080fd5b818401915084601f83011261196a57600080fd5b81358181111561197c5761197c61190f565b604051601f8201601f19908116603f011681019083821181831017156119a4576119a461190f565b816040528281528760208487010111156119bd57600080fd5b826020860160208301376000928101602001929092525095945050505050565b602081528151602082015260006020830151610160806040850152611a06610180850183611857565b91506040850151601f1980868503016060870152611a248483611857565b93506060870151915080868503016080870152611a418483611857565b935060808701519150808685030160a0870152611a5e8483611857565b935060a087015160c087015260c087015160e087015260e08701519150610100828188015280880151925050610120828188015280880151925050610140818786030181880152611aaf8584611857565b94508088015192505050611ac68286018215159052565b5090949350505050565b600060208284031215611ae257600080fd5b5035919050565b600060208284031215611afb57600080fd5b8135600160a060020a038116811461189657600080fd5b600281046001821680611b2657607f821691505b602082108103611b4d57600080516020611d97833981519152600052602260045260246000fd5b50919050565b6020808252818101527f4f776e61626c653a2063616c6c6572206973206e6f7420746865206f776e6572604082015260600190565b600060208284031215611b9a57600080fd5b8151801515811461189657600080fd5b60208082526018908201527f537472696e67206d757374206e6f7420626520656d7074790000000000000000604082015260600190565b8183823760009101908152919050565b8154600090819060028104600180831680611c0d57607f831692505b60208084108203611c3357600080516020611d9783398151915286526022600452602486fd5b818015611c475760018114611c5857611c85565b60ff19861689528489019650611c85565b60008a81526020902060005b86811015611c7d5781548b820152908501908301611c64565b505084890196505b509498975050505050505050565b600080516020611d97833981519152600052601160045260246000fd5b600082821015611cc257611cc2611c93565b500390565b600080516020611d97833981519152600052603260045260246000fd5b60008251611cf681846020870161182b565b9190910192915050565b600060018201611d1257611d12611c93565b5060010190565b600080516020611d97833981519152600052601260045260246000fd5b600082611d4557611d45611d19565b500490565b600082611d5957611d59611d19565b500690565b60008219821115611d7157611d71611c93565b50019056fe27341c8a000000000000000000000000000000000000000000000000000000004e487b71000000000000000000000000000000000000000000000000000000001f7eeccc90c93b6a65fbe0be0414ed24073262ce0f988484e24f275529193e6fa264697066735822122027bf60850304c2d004c151c4a33632a1aad83f499a28177a08dc6bab79edbc0664736f6c634300080e0033537472696e67206d757374206e6f7420626520656d7074790000000000000000608060405234801561001057600080fd5b506040516113bc3803806113bc83398101604081905261002f91610121565b6100516100436401000000006100cd810204565b6401000000006100d1810204565b6002805460018054600160a060020a031916600160a060020a038516908117909155600160a860020a03199091163360a060020a60ff021981169190911790925560405191825230917fb38dc5c508c5acbc701af21346d9dbc58b631681962a52c08afe86b277eb7e979060200160405180910390a350610151565b3390565b60008054600160a060020a03838116600160a060020a0319831681178455604051919092169283917f8be0079c531659141344cd1fd0a4f28419497f9722a3daafe3b4186f6b6457e09190a35050565b60006020828403121561013357600080fd5b8151600160a060020a038116811461014a57600080fd5b9392505050565b61125c806101606000396000f3fe6080604052600436106100e4576000357c0100000000000000000000000000000000000000000000000000000000900480638da5cb5b11610091578063b8c3773f1161006b578063b8c3773f14610222578063d3c65b9114610237578063f2fde38b1461024a57600080fd5b80638da5cb5b146101ac578063983c0a5b146101d45780639f9f7f85146101f457600080fd5b80632858594b116100c25780632858594b14610162578063715018a6146101825780638cfb33041461019757600080fd5b80630611599d146100e957806307e5d9e51461011e578063139334af14610140575b600080fd5b3480156100f557600080fd5b50610109610104366004610d26565b61026a565b60405190151581526020015b60405180910390f35b34801561012a57600080fd5b5061013e610139366004610d26565b6103a4565b005b34801561014c57600080fd5b50610155610466565b6040516101159190610da6565b34801561016e57600080fd5b5061013e61017d366004610d26565b6105d8565b34801561018e57600080fd5b5061013e61077b565b3480156101a357600080fd5b506101556107b4565b3480156101b857600080fd5b50600054604051600160a060020a039091168152602001610115565b3480156101e057600080fd5b5061013e6101ef366004610eca565b61091f565b34801561020057600080fd5b5061021461020f366004610d26565b610983565b604051908152602001610115565b34801561022e57600080fd5b506101556109cd565b61013e610245366004610eca565b610b38565b34801561025657600080fd5b5061013e610265366004610d26565b610ba0565b60008054600160a060020a031633146102a15760405160e560020a62461bcd02815260040161029890610ef6565b60405180910390fd5b60005b6003548110156103995782600160a060020a031673__AddressUtils__________________________63685658bb9091600384815481106102e7576102e7610f2b565b60009182526020909120015460405163ffffffff84167c0100000000000000000000000000000000000000000000000000000000028152600160a060020a03928316600482015291166024820152604401602060405180830381865af4158015610355573d6000803e3d6000fd5b505050506040513d601f19601f820116820180604052508101906103799190610f6a565b156103875750600192915050565b8061039181610f85565b9150506102a4565b50600090505b919050565b600054600160a060020a031633146103d15760405160e560020a62461bcd02815260040161029890610ef6565b6002805474ff0000000000000000000000000000000000000000191674010000000000000000000000000000000000000000179055600480546001810182556000919091527f8a35acfbc15ff81a39ae7d344fd709f28e8600b4aa8c65c6b64bfe7fe36bd19b018054600160a060020a0390921673ffffffffffffffffffffffffffffffffffffffff19909216919091179055565b600054606090600160a060020a031633146104965760405160e560020a62461bcd02815260040161029890610ef6565b60035460008167ffffffffffffffff8111156104b4576104b4610fc5565b6040519080825280602002602001820160405280156104ed57816020015b6104da610cb5565b8152602001906001900390816104d25790505b50905060005b828110156105d15760006003828154811061051057610510610f2b565b6000918252602082200154604080517fe26799ff0000000000000000000000000000000000000000000000000000000081529051600160a060020a039092169350839263e26799ff926004808401938290030181865afa158015610578573d6000803e3d6000fd5b505050506040513d6000823e601f3d908101601f191682016040526105a091908101906110a6565b8383815181106105b2576105b2610f2b565b60200260200101819052505080806105c990610f85565b9150506104f3565b5091505090565b600054600160a060020a031633146106055760405160e560020a62461bcd02815260040161029890610ef6565b6000819050600081600160a060020a031663a035b1fe6040518163ffffffff167c0100000000000000000000000000000000000000000000000000000000028152600401602060405180830381865afa158015610666573d6000803e3d6000fd5b505050506040513d601f19601f8201168201806040525081019061068a91906111f0565b9050600082600160a060020a03166302d05d3f6040518163ffffffff167c0100000000000000000000000000000000000000000000000000000000028152600401602060405180830381865afa1580156106e8573d6000803e3d6000fd5b505050506040513d601f19601f8201168201806040525081019061070c9190611209565b90506107188183610b38565b5050600380546001810182556000919091527fc2575a0e9e593c00f959f8c92f12db2869c3395a3b0502d05e2516446f71f85b01805473ffffffffffffffffffffffffffffffffffffffff1916600160a060020a03939093169290921790915550565b600054600160a060020a031633146107a85760405160e560020a62461bcd02815260040161029890610ef6565b6107b26000610c58565b565b600054606090600160a060020a031633146107e45760405160e560020a62461bcd02815260040161029890610ef6565b60045460008167ffffffffffffffff81111561080257610802610fc5565b60405190808252806020026020018201604052801561083b57816020015b610828610cb5565b8152602001906001900390816108205790505b50905060005b828110156105d15760006004828154811061085e5761085e610f2b565b6000918252602082200154604080517fe26799ff0000000000000000000000000000000000000000000000000000000081529051600160a060020a039092169350839263e26799ff926004808401938290030181865afa1580156108c6573d6000803e3d6000fd5b505050506040513d6000823e601f3d908101601f191682016040526108ee91908101906110a6565b83838151811061090057610900610f2b565b602002602001018190525050808061091790610f85565b915050610841565b600054600160a060020a0316331461094c5760405160e560020a62461bcd02815260040161029890610ef6565b6001811015801561095e575060058111155b61096757600080fd5b600160a060020a03909116600090815260056020526040902055565b60008054600160a060020a031633146109b15760405160e560020a62461bcd02815260040161029890610ef6565b50600160a060020a031660009081526005602052604090205490565b600054606090600160a060020a031633146109fd5760405160e560020a62461bcd02815260040161029890610ef6565b60035460008167ffffffffffffffff811115610a1b57610a1b610fc5565b604051908082528060200260200182016040528015610a5457816020015b610a41610cb5565b815260200190600190039081610a395790505b50905060005b828110156105d157600060038281548110610a7757610a77610f2b565b6000918252602082200154604080517fe26799ff0000000000000000000000000000000000000000000000000000000081529051600160a060020a039092169350839263e26799ff926004808401938290030181865afa158015610adf573d6000803e3d6000fd5b505050506040513d6000823e601f3d908101601f19168201604052610b0791908101906110a6565b838381518110610b1957610b19610f2b565b6020026020010181905250508080610b3090610f85565b915050610a5a565b600054600160a060020a03163314610b655760405160e560020a62461bcd02815260040161029890610ef6565b604051600160a060020a0383169082156108fc029083906000818181858888f19350505050158015610b9b573d6000803e3d6000fd5b505050565b600054600160a060020a03163314610bcd5760405160e560020a62461bcd02815260040161029890610ef6565b600160a060020a038116610c4c5760405160e560020a62461bcd02815260206004820152602660248201527f4f776e61626c653a206e6577206f776e657220697320746865207a65726f206160448201527f64647265737300000000000000000000000000000000000000000000000000006064820152608401610298565b610c5581610c58565b50565b60008054600160a060020a0383811673ffffffffffffffffffffffffffffffffffffffff19831681178455604051919092169283917f8be0079c531659141344cd1fd0a4f28419497f9722a3daafe3b4186f6b6457e09190a35050565b604051806101600160405280600081526020016060815260200160608152602001606081526020016060815260200160008152602001600081526020016000815260200160008152602001606081526020016000151581525090565b600160a060020a0381168114610c5557600080fd5b600060208284031215610d3857600080fd5b8135610d4381610d11565b9392505050565b60005b83811015610d65578181015183820152602001610d4d565b83811115610d74576000848401525b50505050565b60008151808452610d92816020860160208601610d4a565b601f01601f19169290920160200192915050565b60208082528251828201819052600091906040908185019080840286018301878501865b83811015610ebc57603f1989840301855281516101608151855288820151818a870152610df982870182610d7a565b9150508782015185820389870152610e118282610d7a565b91505060608083015186830382880152610e2b8382610d7a565b9250505060808083015186830382880152610e468382610d7a565b60a0858101519089015260c0808601519089015260e08086015190890152610100808601519089015261012080860151898303828b015291945092509050610e8e8382610d7a565b92505050610140808301519250610ea88187018415159052565b509588019593505090860190600101610dca565b509098975050505050505050565b60008060408385031215610edd57600080fd5b8235610ee881610d11565b946020939093013593505050565b6020808252818101527f4f776e61626c653a2063616c6c6572206973206e6f7420746865206f776e6572604082015260600190565b7f4e487b7100000000000000000000000000000000000000000000000000000000600052603260045260246000fd5b8051801515811461039f57600080fd5b600060208284031215610f7c57600080fd5b610d4382610f5a565b600060018201610fbe577f4e487b7100000000000000000000000000000000000000000000000000000000600052601160045260246000fd5b5060010190565b7f4e487b7100000000000000000000000000000000000000000000000000000000600052604160045260246000fd5b604051610160810167ffffffffffffffff8111828210171561101857611018610fc5565b60405290565b600082601f83011261102f57600080fd5b815167ffffffffffffffff8082111561104a5761104a610fc5565b604051601f8301601f19908116603f0116810190828211818310171561107257611072610fc5565b8160405283815286602085880101111561108b57600080fd5b61109c846020830160208901610d4a565b9695505050505050565b6000602082840312156110b857600080fd5b815167ffffffffffffffff808211156110d057600080fd5b9083019061016082860312156110e557600080fd5b6110ed610ff4565b8251815260208301518281111561110357600080fd5b61110f8782860161101e565b60208301525060408301518281111561112757600080fd5b6111338782860161101e565b60408301525060608301518281111561114b57600080fd5b6111578782860161101e565b60608301525060808301518281111561116f57600080fd5b61117b8782860161101e565b60808301525060a083015160a082015260c083015160c082015260e083015160e082015261010080840151818301525061012080840151838111156111bf57600080fd5b6111cb8882870161101e565b82840152505061014091506111e1828401610f5a565b91810191909152949350505050565b60006020828403121561120257600080fd5b5051919050565b60006020828403121561121b57600080fd5b8151610d4381610d1156fea264697066735822122024fba06fd3dffbe28c3326c047d5e167e351ac530e6039433c8cec0d2b52cac964736f6c634300080e003327341c8a00000000000000000000000000000000000000000000000000000000a26469706673582212204b7fd93d0588bb804076599f2a7f44b648c76ca9f7c3eb27d9dc80a7775b5a1a64736f6c634300080e0033",
  "immutableReferences": {},
  "source": "//SPDX-License-Identifier: UNLICENSED\r\npragma solidity ^0.8.0;\r\nimport {User} from './user.sol';\r\nimport {App} from './app.sol';\r\nimport {Constants, Events, StringUtils, AddressUtils} from './dappstore_utils.sol';\r\nimport {AppInfoLibrary} from './AppInfoLibrary.sol';\r\n\r\nimport \"@openzeppelin/contracts/utils/structs/EnumerableMap.sol\";\r\nimport \"@openzeppelin/contracts/utils/Counters.sol\";\r\nimport \"@openzeppelin/contracts/utils/Strings.sol\";\r\nimport \"@openzeppelin/contracts/utils/Address.sol\"; //todo: Use for payment\r\n\r\ncontract dAppstore {\r\n    using StringUtils for string;\r\n    using AddressUtils for address;\r\n    using AddressUtils for address payable;\r\n    \r\n    using Strings for uint;\r\n    // using Address for address payable;\r\n    using EnumerableMap for EnumerableMap.UintToAddressMap;\r\n    using Counters for Counters.Counter;\r\n    string constant public name = \"dAppstore\";\r\n\r\n    // app_id => app_contract\r\n    EnumerableMap.UintToAddressMap private apps;\r\n    // user_address => user_contract\r\n    mapping(address => address) users;\r\n    Counters.Counter users_num;\r\n\r\n    constructor() {\r\n        users_num.reset();\r\n    }\r\n\r\n    //Validators\r\n    modifier userExists(address _user_address){\r\n        require(!_user_address.isAddressZero(), \"Invalid addr\");\r\n        require(!users[_user_address].isAddressZero(), 'User not found');\r\n        _;\r\n    }\r\n\r\n    modifier userDoesNotExists(address _user_address){\r\n        require(!_user_address.isAddressZero(), \"Invalid addr\");\r\n        require(users[_user_address].isAddressZero(), 'User not found');\r\n        _;\r\n    }\r\n\r\n    modifier appAddressExists(address _app){\r\n        uint _app_id = App(_app).id();\r\n        require(apps.contains(_app_id), 'App not found');\r\n        require(!apps.get(_app_id).isAddressZero(), 'App exists');\r\n        _;\r\n    }\r\n\r\n    modifier appExists(uint _app_id){\r\n        require(apps.contains(_app_id), 'App not found');\r\n        require(!apps.get(_app_id).isAddressZero(), 'App doens\\'t exists');\r\n        _;\r\n    }\r\n\r\n    modifier onlyCreator(uint _app_id, address _app_creator){\r\n        require(!_app_creator.isAddressZero(), 'Invalid addr');\r\n        require(_app_creator == App(apps.get(_app_id)).creator(), 'not creator addr');\r\n        _;\r\n    }\r\n\r\n    modifier validIndex(uint _index, uint _length){\r\n        require(apps.contains(_index), 'Invalid index');\r\n        require(_length > 0, 'Invalid length');\r\n        _;\r\n    }\r\n\r\n    //\r\n    function createNewUser(address user_address) private {\r\n        users_num.increment();\r\n        users[user_address] = address(new User(payable(user_address)));\r\n    }\r\n\r\n    function createNewApp(\r\n        address creator,\r\n        string memory _name,\r\n        string memory _description,\r\n        string memory _magnetLink,\r\n        string memory _imgUrl,\r\n        string memory _company,\r\n        uint _price,\r\n        string memory _fileSha256\r\n    ) public{\r\n        if (users[creator].isAddressZero()){\r\n            createNewUser(creator);\r\n        }\r\n        uint apps_num = apps.length();\r\n        App new_app = new App(\r\n            apps_num, \r\n            creator, \r\n            _name, \r\n            _description, \r\n            _magnetLink, \r\n            _imgUrl, \r\n            _company, \r\n            _price, \r\n            _fileSha256\r\n        );\r\n        apps.set(apps_num, address(new_app));\r\n    }\r\n\r\n    function updateApp(\r\n        uint app_id,\r\n        string memory _name,\r\n        string memory _description,\r\n        string memory _magnetLink,\r\n        string memory _imgUrl,\r\n        string memory _company,\r\n        uint _price,\r\n        string memory _fileSha256\r\n    ) external userExists(msg.sender) appExists(app_id) onlyCreator(app_id, msg.sender) {\r\n        App app = App(apps.get(app_id));\r\n        if (!_name.isEmpty()){\r\n            app.updateAppName(_name);\r\n        }\r\n        if (!_description.isEmpty()){\r\n            app.updateAppDescription(_description);\r\n        }\r\n        if (!_magnetLink.isEmpty()){\r\n            app.updateAppMagnetLink(_magnetLink);\r\n        }\r\n        if (!_imgUrl.isEmpty()){\r\n            app.updateAppImgUrl(_imgUrl);\r\n        }\r\n        if (!_company.isEmpty()){\r\n            app.updateAppCompany(_company);\r\n        }\r\n        if (_price > 0){\r\n            app.updateAppPrice(_price);\r\n        }\r\n        if (!_fileSha256.isEmpty()){\r\n            app.updateAppVersion(_fileSha256);\r\n        }\r\n    }\r\n\r\n    function purchaseApp(address app_address) external userExists(msg.sender) appAddressExists(app_address){ //todo: check this validate\r\n        address user = msg.sender;\r\n        if (users[user].isAddressZero()){\r\n            createNewUser(user);\r\n        }\r\n        Address.sendValue(App(app_address).creator(), App(app_address).price());\r\n        User(user).purchaseApp(app_address);\r\n    }\r\n\r\n    // function rateApp(uint _app_id, uint _rating) external{\r\n    //     //todo: inc num of ratings on app\r\n    //     App curr_app = App(apps.get(_app_id));\r\n    //     uint curr_rating = curr_app.num_ratings;\r\n    //     if (curr_rating == 0){\r\n    //         curr_app.rateApp(0, 0, _rating);\r\n    //     }\r\n    //     else if (curr_rating > Constants.RATING_THRESHHOLD){\r\n    //         (uint curr_rating, uint curr_rating_modulu) = curr_app.getAppRating();\r\n    //         curr_app.rateApp(curr_rating, curr_rating_modulu, _rating);\r\n    //     }\r\n    // }\r\n\r\n    // function changeBuckets(App app, uint from, uint to) pure private returns(bool){\r\n    //     // require(true, 'not implements change_buckets');\r\n    //     return false;\r\n    // }\r\n\r\n    // //todo: return app info via struct instead of addresses\r\n    function getAppBatch(uint start, uint len) view external validIndex(start, len) returns( AppInfoLibrary.AppInfo[] memory){\r\n        AppInfoLibrary.AppInfo[] memory batch = new AppInfoLibrary.AppInfo[](len);\r\n        for (uint i = 0; i < len; i++){\r\n            batch[i] = App(apps.get((start + i) % apps.length())).getAppInfo();\r\n        }\r\n        return batch;\r\n    }\r\n\r\n    // Not registered user is going to see empty list\r\n    function getPurchasedAppsInfo() private returns(AppInfoLibrary.AppInfo[] memory){\r\n        if (users[msg.sender].isAddressZero()){\r\n            createNewUser(msg.sender);\r\n        }\r\n        AppInfoLibrary.AppInfo[] memory purchased_apps_info = User(users[msg.sender]).getPurchasedApps();\r\n        return purchased_apps_info;\r\n    }\r\n\r\n    // Not registered user is going to see empty list\r\n    function getCreatedAppsInfo() private returns(AppInfoLibrary.AppInfo[] memory){\r\n        if (users[msg.sender].isAddressZero()){\r\n            createNewUser(msg.sender);\r\n        }\r\n        AppInfoLibrary.AppInfo[] memory created_apps_info = User(users[msg.sender]).getCreatedApps();\r\n        return created_apps_info;\r\n    }\r\n\r\n    function getRatedAppsInfo() private returns(AppInfoLibrary.AppInfo[] memory){\r\n        if (users[msg.sender].isAddressZero()){\r\n            createNewUser(msg.sender);\r\n        }\r\n        AppInfoLibrary.AppInfo[] memory rated_apps_info = User(users[msg.sender]).getRatedApps();\r\n        return rated_apps_info;\r\n    }\r\n\r\n    function getAppCount() view external returns(uint){\r\n        return apps.length();\r\n    }\r\n   \r\n}\r\n",
  "sourcePath": "C:\\Users\\User\\Documents\\GitHub\\SmartContracts\\contracts\\dAppstore.sol",
  "compiler": {
    "name": "solc",
    "version": "0.8.14+commit.80d49f37.Emscripten.clang"
  },
  "schemaVersion": "3.4.7",
  "updatedAt": "2022-06-11T08:13:31.425Z",
  "networkType": "ethereum",
  "devdoc": {
    "kind": "dev",
    "methods": {},
    "version": 1
  },
  "userdoc": {
    "kind": "user",
    "methods": {},
    "version": 1
  }
}