{
  "contractName": "dAppStore",
  "abi": [
    {
      "inputs": [
        {
          "internalType": "uint256",
          "name": "",
          "type": "uint256"
        }
      ],
      "name": "apps",
      "outputs": [
        {
          "internalType": "uint256",
          "name": "id",
          "type": "uint256"
        },
        {
          "internalType": "string",
          "name": "name",
          "type": "string"
        },
        {
          "internalType": "string",
          "name": "description",
          "type": "string"
        },
        {
          "internalType": "address",
          "name": "creator",
          "type": "address"
        },
        {
          "internalType": "string",
          "name": "magnetLink",
          "type": "string"
        },
        {
          "internalType": "string",
          "name": "imgUrl",
          "type": "string"
        },
        {
          "internalType": "string",
          "name": "company",
          "type": "string"
        },
        {
          "internalType": "int256",
          "name": "rating",
          "type": "int256"
        },
        {
          "internalType": "uint256",
          "name": "price",
          "type": "uint256"
        }
      ],
      "stateMutability": "view",
      "type": "function",
      "constant": true
    },
    {
      "inputs": [
        {
          "internalType": "address",
          "name": "",
          "type": "address"
        },
        {
          "internalType": "uint256",
          "name": "",
          "type": "uint256"
        }
      ],
      "name": "personalRatings",
      "outputs": [
        {
          "internalType": "uint256",
          "name": "",
          "type": "uint256"
        }
      ],
      "stateMutability": "view",
      "type": "function",
      "constant": true
    },
    {
      "inputs": [
        {
          "internalType": "address",
          "name": "",
          "type": "address"
        },
        {
          "internalType": "uint256",
          "name": "",
          "type": "uint256"
        }
      ],
      "name": "publishedListMapping",
      "outputs": [
        {
          "internalType": "uint256",
          "name": "",
          "type": "uint256"
        }
      ],
      "stateMutability": "view",
      "type": "function",
      "constant": true
    },
    {
      "inputs": [
        {
          "internalType": "address",
          "name": "",
          "type": "address"
        },
        {
          "internalType": "uint256",
          "name": "",
          "type": "uint256"
        }
      ],
      "name": "purchasedListMapping",
      "outputs": [
        {
          "internalType": "uint256",
          "name": "",
          "type": "uint256"
        }
      ],
      "stateMutability": "view",
      "type": "function",
      "constant": true
    },
    {
      "inputs": [
        {
          "internalType": "uint256",
          "name": "",
          "type": "uint256"
        }
      ],
      "name": "ratingOrderedApps",
      "outputs": [
        {
          "internalType": "uint256",
          "name": "",
          "type": "uint256"
        }
      ],
      "stateMutability": "view",
      "type": "function",
      "constant": true
    },
    {
      "inputs": [
        {
          "internalType": "string",
          "name": "_name",
          "type": "string"
        },
        {
          "internalType": "string",
          "name": "_description",
          "type": "string"
        },
        {
          "internalType": "string",
          "name": "_fileSha256",
          "type": "string"
        },
        {
          "internalType": "string",
          "name": "_imgUrl",
          "type": "string"
        },
        {
          "internalType": "string",
          "name": "_magnetLink",
          "type": "string"
        },
        {
          "internalType": "string",
          "name": "_company",
          "type": "string"
        },
        {
          "internalType": "uint256",
          "name": "_price",
          "type": "uint256"
        }
      ],
      "name": "upload",
      "outputs": [],
      "stateMutability": "nonpayable",
      "type": "function"
    },
    {
      "inputs": [
        {
          "internalType": "uint256",
          "name": "id",
          "type": "uint256"
        },
        {
          "internalType": "string",
          "name": "description",
          "type": "string"
        },
        {
          "internalType": "string",
          "name": "fileSha256",
          "type": "string"
        },
        {
          "internalType": "string",
          "name": "imgUrl",
          "type": "string"
        },
        {
          "internalType": "string",
          "name": "magnetLink",
          "type": "string"
        },
        {
          "internalType": "uint256",
          "name": "price",
          "type": "uint256"
        }
      ],
      "name": "update",
      "outputs": [],
      "stateMutability": "nonpayable",
      "type": "function"
    },
    {
      "inputs": [
        {
          "internalType": "uint256",
          "name": "from",
          "type": "uint256"
        },
        {
          "internalType": "uint256",
          "name": "to",
          "type": "uint256"
        }
      ],
      "name": "getApps",
      "outputs": [
        {
          "components": [
            {
              "internalType": "uint256",
              "name": "id",
              "type": "uint256"
            },
            {
              "internalType": "string",
              "name": "name",
              "type": "string"
            },
            {
              "internalType": "string",
              "name": "description",
              "type": "string"
            },
            {
              "internalType": "address",
              "name": "creator",
              "type": "address"
            },
            {
              "internalType": "string[]",
              "name": "fileSha256",
              "type": "string[]"
            },
            {
              "internalType": "string",
              "name": "magnetLink",
              "type": "string"
            },
            {
              "internalType": "string",
              "name": "imgUrl",
              "type": "string"
            },
            {
              "internalType": "string",
              "name": "company",
              "type": "string"
            },
            {
              "internalType": "int256",
              "name": "rating",
              "type": "int256"
            },
            {
              "internalType": "uint256",
              "name": "price",
              "type": "uint256"
            }
          ],
          "internalType": "struct dAppStore.App[]",
          "name": "result",
          "type": "tuple[]"
        },
        {
          "internalType": "uint256",
          "name": "totalNumOfApps",
          "type": "uint256"
        }
      ],
      "stateMutability": "view",
      "type": "function",
      "constant": true
    }
  ],
  "bytecode": "0x608060405234801561001057600080fd5b50612259806100206000396000f3fe608060405234801561001057600080fd5b50600436106100885760003560e01c80639513e2701161005b5780639513e2701461012d578063a37e7e441461015d578063a458717e1461018e578063f07d0282146101be57610088565b80634750b8671461008d578063609390d9146100bd57806361acc37e146100d95780637d251cab14610111575b600080fd5b6100a760048036038101906100a29190611548565b6101ee565b6040516100b49190611597565b60405180910390f35b6100d760048036038101906100d291906116f8565b61021f565b005b6100f360048036038101906100ee9190611842565b6105e5565b6040516101089998979695949392919061191f565b60405180910390f35b61012b60048036038101906101269190611a2f565b61090b565b005b61014760048036038101906101429190611548565b610bb9565b6040516101549190611597565b60405180910390f35b61017760048036038101906101729190611b3f565b610bea565b604051610185929190611e77565b60405180910390f35b6101a860048036038101906101a39190611842565b611201565b6040516101b59190611597565b60405180910390f35b6101d860048036038101906101d39190611548565b611225565b6040516101e59190611597565b60405180910390f35b6005602052816000526040600020818154811061020a57600080fd5b90600052602060002001600091509150505481565b61010086511115610265576040517f08c379a000000000000000000000000000000000000000000000000000000000815260040161025c90611f19565b60405180910390fd5b600081116102a8576040517f08c379a000000000000000000000000000000000000000000000000000000000815260040161029f90611f85565b60405180910390fd5b606060008080549050905060006040518061014001604052808381526020018b81526020018a81526020013373ffffffffffffffffffffffffffffffffffffffff1681526020018481526020018781526020018881526020018681526020017fffffffffffffffffffffffffffffffffffffffffffffffffffffffffffffffff8152602001858152509050600560003373ffffffffffffffffffffffffffffffffffffffff1673ffffffffffffffffffffffffffffffffffffffff168152602001908152602001600020816000015190806001815401808255809150506001900390600052602060002001600090919091909150556001600360008360000151815260200190815260200160002060003373ffffffffffffffffffffffffffffffffffffffff1673ffffffffffffffffffffffffffffffffffffffff16815260200190815260200160002060006101000a81548160ff02191690831515021790555060008190806001815401808255809150506001900390600052602060002090600a020160009091909190915060008201518160000155602082015181600101908051906020019061045c92919061124a565b50604082015181600201908051906020019061047992919061124a565b5060608201518160030160006101000a81548173ffffffffffffffffffffffffffffffffffffffff021916908373ffffffffffffffffffffffffffffffffffffffff16021790555060808201518160040190805190602001906104dd9291906112d0565b5060a08201518160050190805190602001906104fa92919061124a565b5060c082015181600601908051906020019061051792919061124a565b5060e082015181600701908051906020019061053492919061124a565b506101008201518160080155610120820151816009015550506000828154811061056157610560611fa5565b5b90600052602060002090600a0201600401889080600181540180825580915050600190039060005260206000200160009091909190915090805190602001906105ab92919061124a565b5060018160000151908060018154018082558091505060019003906000526020600020016000909190919091505550505050505050505050565b600081815481106105f557600080fd5b90600052602060002090600a020160009150905080600001549080600101805461061e90612003565b80601f016020809104026020016040519081016040528092919081815260200182805461064a90612003565b80156106975780601f1061066c57610100808354040283529160200191610697565b820191906000526020600020905b81548152906001019060200180831161067a57829003601f168201915b5050505050908060020180546106ac90612003565b80601f01602080910402602001604051908101604052809291908181526020018280546106d890612003565b80156107255780601f106106fa57610100808354040283529160200191610725565b820191906000526020600020905b81548152906001019060200180831161070857829003601f168201915b5050505050908060030160009054906101000a900473ffffffffffffffffffffffffffffffffffffffff169080600501805461076090612003565b80601f016020809104026020016040519081016040528092919081815260200182805461078c90612003565b80156107d95780601f106107ae576101008083540402835291602001916107d9565b820191906000526020600020905b8154815290600101906020018083116107bc57829003601f168201915b5050505050908060060180546107ee90612003565b80601f016020809104026020016040519081016040528092919081815260200182805461081a90612003565b80156108675780601f1061083c57610100808354040283529160200191610867565b820191906000526020600020905b81548152906001019060200180831161084a57829003601f168201915b50505050509080600701805461087c90612003565b80601f01602080910402602001604051908101604052809291908181526020018280546108a890612003565b80156108f55780601f106108ca576101008083540402835291602001916108f5565b820191906000526020600020905b8154815290600101906020018083116108d857829003601f168201915b5050505050908060080154908060090154905089565b89600115156003600083815260200190815260200160002060003373ffffffffffffffffffffffffffffffffffffffff1673ffffffffffffffffffffffffffffffffffffffff16815260200190815260200160002060009054906101000a900460ff161515146109b0576040517f08c379a00000000000000000000000000000000000000000000000000000000081526004016109a790612080565b60405180910390fd5b6101008a8a905011156109f8576040517f08c379a00000000000000000000000000000000000000000000000000000000081526004016109ef90611f19565b60405180910390fd5b6000805490508b10610a3f576040517f08c379a0000000000000000000000000000000000000000000000000000000008152600401610a36906120ec565b60405180910390fd5b60008211610a82576040517f08c379a0000000000000000000000000000000000000000000000000000000008152600401610a7990611f85565b60405180910390fd5b898960008d81548110610a9857610a97611fa5565b5b90600052602060002090600a02016002019190610ab6929190611330565b5060008b81548110610acb57610aca611fa5565b5b90600052602060002090600a0201600401888890918060018154018082558091505060019003906000526020600020016000909192909192909192909192509190610b17929190611330565b50858560008d81548110610b2e57610b2d611fa5565b5b90600052602060002090600a02016006019190610b4c929190611330565b50838360008d81548110610b6357610b62611fa5565b5b90600052602060002090600a02016005019190610b81929190611330565b508160008c81548110610b9757610b96611fa5565b5b90600052602060002090600a0201600901819055505050505050505050505050565b60046020528160005260406000208181548110610bd557600080fd5b90600052602060002001600091509150505481565b606060008084118015610bfd5750600083115b8015610c0d575060008054905083105b8015610c1857508284105b610c57576040517f08c379a0000000000000000000000000000000000000000000000000000000008152600401610c4e90612158565b60405180910390fd5b8383610c6391906121a7565b67ffffffffffffffff811115610c7c57610c7b6115cd565b5b604051908082528060200260200182016040528015610cb557816020015b610ca26113b6565b815260200190600190039081610c9a5790505b5091506000808590505b848110156111f05760008181548110610cdb57610cda611fa5565b5b90600052602060002090600a02016040518061014001604052908160008201548152602001600182018054610d0f90612003565b80601f0160208091040260200160405190810160405280929190818152602001828054610d3b90612003565b8015610d885780601f10610d5d57610100808354040283529160200191610d88565b820191906000526020600020905b815481529060010190602001808311610d6b57829003601f168201915b50505050508152602001600282018054610da190612003565b80601f0160208091040260200160405190810160405280929190818152602001828054610dcd90612003565b8015610e1a5780601f10610def57610100808354040283529160200191610e1a565b820191906000526020600020905b815481529060010190602001808311610dfd57829003601f168201915b505050505081526020016003820160009054906101000a900473ffffffffffffffffffffffffffffffffffffffff1673ffffffffffffffffffffffffffffffffffffffff1673ffffffffffffffffffffffffffffffffffffffff16815260200160048201805480602002602001604051908101604052809291908181526020016000905b82821015610f4a578382906000526020600020018054610ebd90612003565b80601f0160208091040260200160405190810160405280929190818152602001828054610ee990612003565b8015610f365780601f10610f0b57610100808354040283529160200191610f36565b820191906000526020600020905b815481529060010190602001808311610f1957829003601f168201915b505050505081526020019060010190610e9e565b505050508152602001600582018054610f6290612003565b80601f0160208091040260200160405190810160405280929190818152602001828054610f8e90612003565b8015610fdb5780601f10610fb057610100808354040283529160200191610fdb565b820191906000526020600020905b815481529060010190602001808311610fbe57829003601f168201915b50505050508152602001600682018054610ff490612003565b80601f016020809104026020016040519081016040528092919081815260200182805461102090612003565b801561106d5780601f106110425761010080835404028352916020019161106d565b820191906000526020600020905b81548152906001019060200180831161105057829003601f168201915b5050505050815260200160078201805461108690612003565b80601f01602080910402602001604051908101604052809291908181526020018280546110b290612003565b80156110ff5780601f106110d4576101008083540402835291602001916110ff565b820191906000526020600020905b8154815290600101906020018083116110e257829003601f168201915b505050505081526020016008820154815260200160098201548152505084838151811061112f5761112e611fa5565b5b60200260200101819052506002600082815260200190815260200160002060003373ffffffffffffffffffffffffffffffffffffffff1673ffffffffffffffffffffffffffffffffffffffff16815260200190815260200160002060009054906101000a900460ff166111cf57604051806020016040528060008152508483815181106111bf576111be611fa5565b5b602002602001015160a001819052505b81806111da906121db565b92505080806111e8906121db565b915050610cbf565b506000805490509150509250929050565b6001818154811061121157600080fd5b906000526020600020016000915090505481565b6006602052816000526040600020602052806000526040600020600091509150505481565b82805461125690612003565b90600052602060002090601f01602090048101928261127857600085556112bf565b82601f1061129157805160ff19168380011785556112bf565b828001600101855582156112bf579182015b828111156112be5782518255916020019190600101906112a3565b5b5090506112cc919061141f565b5090565b82805482825590600052602060002090810192821561131f579160200282015b8281111561131e57825182908051906020019061130e92919061124a565b50916020019190600101906112f0565b5b50905061132c919061143c565b5090565b82805461133c90612003565b90600052602060002090601f01602090048101928261135e57600085556113a5565b82601f1061137757803560ff19168380011785556113a5565b828001600101855582156113a5579182015b828111156113a4578235825591602001919060010190611389565b5b5090506113b2919061141f565b5090565b604051806101400160405280600081526020016060815260200160608152602001600073ffffffffffffffffffffffffffffffffffffffff1681526020016060815260200160608152602001606081526020016060815260200160008152602001600081525090565b5b80821115611438576000816000905550600101611420565b5090565b5b8082111561145c57600081816114539190611460565b5060010161143d565b5090565b50805461146c90612003565b6000825580601f1061147e575061149d565b601f01602090049060005260206000209081019061149c919061141f565b5b50565b6000604051905090565b600080fd5b600080fd5b600073ffffffffffffffffffffffffffffffffffffffff82169050919050565b60006114df826114b4565b9050919050565b6114ef816114d4565b81146114fa57600080fd5b50565b60008135905061150c816114e6565b92915050565b6000819050919050565b61152581611512565b811461153057600080fd5b50565b6000813590506115428161151c565b92915050565b6000806040838503121561155f5761155e6114aa565b5b600061156d858286016114fd565b925050602061157e85828601611533565b9150509250929050565b61159181611512565b82525050565b60006020820190506115ac6000830184611588565b92915050565b600080fd5b600080fd5b6000601f19601f8301169050919050565b7f4e487b7100000000000000000000000000000000000000000000000000000000600052604160045260246000fd5b611605826115bc565b810181811067ffffffffffffffff82111715611624576116236115cd565b5b80604052505050565b60006116376114a0565b905061164382826115fc565b919050565b600067ffffffffffffffff821115611663576116626115cd565b5b61166c826115bc565b9050602081019050919050565b82818337600083830152505050565b600061169b61169684611648565b61162d565b9050828152602081018484840111156116b7576116b66115b7565b5b6116c2848285611679565b509392505050565b600082601f8301126116df576116de6115b2565b5b81356116ef848260208601611688565b91505092915050565b600080600080600080600060e0888a031215611717576117166114aa565b5b600088013567ffffffffffffffff811115611735576117346114af565b5b6117418a828b016116ca565b975050602088013567ffffffffffffffff811115611762576117616114af565b5b61176e8a828b016116ca565b965050604088013567ffffffffffffffff81111561178f5761178e6114af565b5b61179b8a828b016116ca565b955050606088013567ffffffffffffffff8111156117bc576117bb6114af565b5b6117c88a828b016116ca565b945050608088013567ffffffffffffffff8111156117e9576117e86114af565b5b6117f58a828b016116ca565b93505060a088013567ffffffffffffffff811115611816576118156114af565b5b6118228a828b016116ca565b92505060c06118338a828b01611533565b91505092959891949750929550565b600060208284031215611858576118576114aa565b5b600061186684828501611533565b91505092915050565b600081519050919050565b600082825260208201905092915050565b60005b838110156118a957808201518184015260208101905061188e565b838111156118b8576000848401525b50505050565b60006118c98261186f565b6118d3818561187a565b93506118e381856020860161188b565b6118ec816115bc565b840191505092915050565b611900816114d4565b82525050565b6000819050919050565b61191981611906565b82525050565b600061012082019050611935600083018c611588565b8181036020830152611947818b6118be565b9050818103604083015261195b818a6118be565b905061196a60608301896118f7565b818103608083015261197c81886118be565b905081810360a083015261199081876118be565b905081810360c08301526119a481866118be565b90506119b360e0830185611910565b6119c1610100830184611588565b9a9950505050505050505050565b600080fd5b600080fd5b60008083601f8401126119ef576119ee6115b2565b5b8235905067ffffffffffffffff811115611a0c57611a0b6119cf565b5b602083019150836001820283011115611a2857611a276119d4565b5b9250929050565b60008060008060008060008060008060c08b8d031215611a5257611a516114aa565b5b6000611a608d828e01611533565b9a505060208b013567ffffffffffffffff811115611a8157611a806114af565b5b611a8d8d828e016119d9565b995099505060408b013567ffffffffffffffff811115611ab057611aaf6114af565b5b611abc8d828e016119d9565b975097505060608b013567ffffffffffffffff811115611adf57611ade6114af565b5b611aeb8d828e016119d9565b955095505060808b013567ffffffffffffffff811115611b0e57611b0d6114af565b5b611b1a8d828e016119d9565b935093505060a0611b2d8d828e01611533565b9150509295989b9194979a5092959850565b60008060408385031215611b5657611b556114aa565b5b6000611b6485828601611533565b9250506020611b7585828601611533565b9150509250929050565b600081519050919050565b600082825260208201905092915050565b6000819050602082019050919050565b611bb481611512565b82525050565b600082825260208201905092915050565b6000611bd68261186f565b611be08185611bba565b9350611bf081856020860161188b565b611bf9816115bc565b840191505092915050565b611c0d816114d4565b82525050565b600081519050919050565b600082825260208201905092915050565b6000819050602082019050919050565b6000611c4b8383611bcb565b905092915050565b6000602082019050919050565b6000611c6b82611c13565b611c758185611c1e565b935083602082028501611c8785611c2f565b8060005b85811015611cc35784840389528151611ca48582611c3f565b9450611caf83611c53565b925060208a01995050600181019050611c8b565b50829750879550505050505092915050565b611cde81611906565b82525050565b600061014083016000830151611cfd6000860182611bab565b5060208301518482036020860152611d158282611bcb565b91505060408301518482036040860152611d2f8282611bcb565b9150506060830151611d446060860182611c04565b5060808301518482036080860152611d5c8282611c60565b91505060a083015184820360a0860152611d768282611bcb565b91505060c083015184820360c0860152611d908282611bcb565b91505060e083015184820360e0860152611daa8282611bcb565b915050610100830151611dc1610100860182611cd5565b50610120830151611dd6610120860182611bab565b508091505092915050565b6000611ded8383611ce4565b905092915050565b6000602082019050919050565b6000611e0d82611b7f565b611e178185611b8a565b935083602082028501611e2985611b9b565b8060005b85811015611e655784840389528151611e468582611de1565b9450611e5183611df5565b925060208a01995050600181019050611e2d565b50829750879550505050505092915050565b60006040820190508181036000830152611e918185611e02565b9050611ea06020830184611588565b9392505050565b7f4465736372697074696f6e206d757374206265206174206d6f7374203235362060008201527f63686172616374657273206c6f6e670000000000000000000000000000000000602082015250565b6000611f03602f8361187a565b9150611f0e82611ea7565b604082019050919050565b60006020820190508181036000830152611f3281611ef6565b9050919050565b7f4e6f2066726565206170707320616c6c6f776564000000000000000000000000600082015250565b6000611f6f60148361187a565b9150611f7a82611f39565b602082019050919050565b60006020820190508181036000830152611f9e81611f62565b9050919050565b7f4e487b7100000000000000000000000000000000000000000000000000000000600052603260045260246000fd5b7f4e487b7100000000000000000000000000000000000000000000000000000000600052602260045260246000fd5b6000600282049050600182168061201b57607f821691505b60208210810361202e5761202d611fd4565b5b50919050565b7f43616c6c6572206973206e6f74207468652061707027732063726561746f722e600082015250565b600061206a60208361187a565b915061207582612034565b602082019050919050565b600060208201905081810360008301526120998161205d565b9050919050565b7f4e6f2061707020776974682074686973204944206578697374732e0000000000600082015250565b60006120d6601b8361187a565b91506120e1826120a0565b602082019050919050565b60006020820190508181036000830152612105816120c9565b9050919050565b7f496e76616c69642052616e676500000000000000000000000000000000000000600082015250565b6000612142600d8361187a565b915061214d8261210c565b602082019050919050565b6000602082019050818103600083015261217181612135565b9050919050565b7f4e487b7100000000000000000000000000000000000000000000000000000000600052601160045260246000fd5b60006121b282611512565b91506121bd83611512565b9250828210156121d0576121cf612178565b5b828203905092915050565b60006121e682611512565b91507fffffffffffffffffffffffffffffffffffffffffffffffffffffffffffffffff820361221857612217612178565b5b60018201905091905056fea2646970667358221220295e86bf65ffe8d853873537405eea286d73f7b94556af532cfe6670e980764964736f6c634300080d0033",
  "immutableReferences": {},
  "source": "pragma solidity ^0.8.13;\r\n// SPDX-License-Identifier: UNLICENSED\r\ncontract dAppStore {\r\n\r\n    struct App {\r\n        uint256  id;\r\n        string  name;\r\n        string  description;\r\n        address  creator;\r\n        string[]  fileSha256; //last is SHA of latest version.\r\n        string magnetLink;\r\n        string imgUrl;\r\n        string company;\r\n        int  rating; //-1 means not rated\r\n        uint price; //in wei\r\n    }\r\n\r\n   modifier onlyCreator(uint id) {\r\n        require(appPublishedMapping[id][msg.sender] == true, \"Caller is not the app's creator.\");\r\n        _; //ensures the rest of the function will continue to execute if passes\r\n    }\r\n\r\n    modifier onlyPurchaser(uint id) {\r\n        require(appBoughtMapping[id][msg.sender] == true, \"Caller has not purchased the app.\");\r\n        _;\r\n    }\r\n\r\n    App[] public apps; //index is the 'id' of the app. Index zero must not be used!\r\n    uint[]public ratingOrderedApps; //app indexes ordered by rating. \r\n\r\n    /* To know if purchased/bought */\r\n    mapping (uint => mapping (address => bool)) appBoughtMapping; // App index => addresses => true iff purchased.\r\n    mapping (uint => mapping (address => bool)) appPublishedMapping; // App index => addresses => true iff published.\r\n\r\n    /* To get list of apps */\r\n    mapping (address => uint[]) public purchasedListMapping;// address of buyer => indexes of purchased apps\r\n    mapping (address => uint[]) public publishedListMapping; //address of seller => indexes of published apps\r\n\r\n    mapping (address => mapping( uint => uint)) public personalRatings; //adress of buyer => id of app => rating.\r\n                                                                  // Not in App struct because structs with nested mapping must use storage.\r\n        function upload(string memory _name, string memory _description, string memory _fileSha256,\r\n            string memory _imgUrl, string memory _magnetLink, string memory _company, uint _price) public { \r\n    \r\n        require(bytes(_description).length <= 256, \"Description must be at most 256 characters long\");\r\n        require(_price > 0, \"No free apps allowed\"); //TODO: Implement as a feature?\r\n\r\n         string[] memory dummyShaArr;\r\n         uint index = apps.length;\r\n         App memory app = App(\r\n             {\r\n                id: index, //Maybe redundant.\r\n                name:_name,\r\n                description: _description,\r\n                fileSha256: dummyShaArr, \r\n                imgUrl: _imgUrl,\r\n                magnetLink: _magnetLink,\r\n                company: _company,\r\n                price: _price,\r\n                rating: -1,\r\n                creator: msg.sender                     \r\n            });\r\n\r\n        publishedListMapping[msg.sender].push(app.id);\r\n        appPublishedMapping[app.id][msg.sender] = true;\r\n\r\n        apps.push(app);\r\n        apps[index].fileSha256.push(_fileSha256);\r\n        ratingOrderedApps.push(app.id);\r\n    }\r\n\r\n    function update(uint id, string calldata description, string calldata fileSha256,\r\n            string calldata imgUrl, string calldata magnetLink, uint price) public onlyCreator(id) {\r\n                \r\n                require(bytes(description).length <= 256, \"Description must be at most 256 characters long\");\r\n                require(id < apps.length, \"No app with this ID exists.\");\r\n                require(price > 0, \"No free apps allowed\"); //TODO: Implement as a feature?\r\n\r\n                apps[id].description = description;\r\n                apps[id].fileSha256.push(fileSha256);\r\n                apps[id].imgUrl = imgUrl;\r\n                apps[id].magnetLink = magnetLink;\r\n                apps[id].price = price;\r\n            }\r\n\r\n    function getApps(uint from, uint to) public view returns (App[] memory result, uint totalNumOfApps){\r\n        require(from > 0 && to > 0 && to < apps.length && from < to, \"Invalid Range\");\r\n\r\n        result =  new App[](to-from);\r\n\r\n        uint counter = 0;\r\n        for(uint i = from; i < to; i++){\r\n            //Populates res, while removing magnet links if not bought\r\n            result[counter] = apps[i];\r\n            if(!appBoughtMapping[i][msg.sender]){\r\n                result[counter].magnetLink = \"\";\r\n            }\r\n            counter++;\r\n        }\r\n        \r\n        totalNumOfApps = apps.length;\r\n    }\r\n\r\n}\r\n",
  "sourcePath": "C:\\Users\\hecht\\ConcurrentProgrammingRepo\\SmartContracts\\contracts\\dAppstore.sol",
  "compiler": {
    "name": "solc",
    "version": "0.8.13+commit.abaa5c0e.Emscripten.clang"
  },
  "schemaVersion": "3.4.6",
  "updatedAt": "2022-04-04T14:57:41.298Z",
  "networkType": "ethereum",
  "devdoc": {
    "kind": "dev",
    "methods": {},
    "version": 1
  },
  "userdoc": {
    "kind": "user",
    "methods": {},
    "version": 1
  }
}