{
  "contractName": "dAppstore",
  "abi": [
    {
      "inputs": [],
      "stateMutability": "nonpayable",
      "type": "constructor"
    },
    {
      "inputs": [],
      "name": "name",
      "outputs": [
        {
          "internalType": "string",
          "name": "",
          "type": "string"
        }
      ],
      "stateMutability": "view",
      "type": "function"
    },
    {
      "inputs": [
        {
          "internalType": "address",
          "name": "creator",
          "type": "address"
        },
        {
          "internalType": "string",
          "name": "_name",
          "type": "string"
        },
        {
          "internalType": "string",
          "name": "_description",
          "type": "string"
        },
        {
          "internalType": "string",
          "name": "_magnetLink",
          "type": "string"
        },
        {
          "internalType": "string",
          "name": "_imgUrl",
          "type": "string"
        },
        {
          "internalType": "string",
          "name": "_company",
          "type": "string"
        },
        {
          "internalType": "uint256",
          "name": "_price",
          "type": "uint256"
        },
        {
          "internalType": "string",
          "name": "_fileSha256",
          "type": "string"
        }
      ],
      "name": "createNewApp",
      "outputs": [],
      "stateMutability": "nonpayable",
      "type": "function"
    },
    {
      "inputs": [
        {
          "internalType": "uint256",
          "name": "app_id",
          "type": "uint256"
        },
        {
          "internalType": "string",
          "name": "_name",
          "type": "string"
        },
        {
          "internalType": "string",
          "name": "_description",
          "type": "string"
        },
        {
          "internalType": "string",
          "name": "_magnetLink",
          "type": "string"
        },
        {
          "internalType": "string",
          "name": "_imgUrl",
          "type": "string"
        },
        {
          "internalType": "string",
          "name": "_company",
          "type": "string"
        },
        {
          "internalType": "uint256",
          "name": "_price",
          "type": "uint256"
        },
        {
          "internalType": "string",
          "name": "_fileSha256",
          "type": "string"
        }
      ],
      "name": "updateApp",
      "outputs": [],
      "stateMutability": "nonpayable",
      "type": "function"
    },
    {
      "inputs": [
        {
          "internalType": "address",
          "name": "app_address",
          "type": "address"
        }
      ],
      "name": "purchaseApp",
      "outputs": [],
      "stateMutability": "nonpayable",
      "type": "function"
    },
    {
      "inputs": [
        {
          "internalType": "uint256",
          "name": "start",
          "type": "uint256"
        },
        {
          "internalType": "uint256",
          "name": "len",
          "type": "uint256"
        }
      ],
      "name": "getAppBatch",
      "outputs": [
        {
          "components": [
            {
              "internalType": "uint256",
              "name": "id",
              "type": "uint256"
            },
            {
              "internalType": "string",
              "name": "name",
              "type": "string"
            },
            {
              "internalType": "string",
              "name": "description",
              "type": "string"
            },
            {
              "internalType": "string",
              "name": "imgUrl",
              "type": "string"
            },
            {
              "internalType": "string",
              "name": "company",
              "type": "string"
            },
            {
              "internalType": "uint256",
              "name": "price",
              "type": "uint256"
            },
            {
              "internalType": "uint256",
              "name": "num_ratings",
              "type": "uint256"
            },
            {
              "internalType": "uint256",
              "name": "rating",
              "type": "uint256"
            },
            {
              "internalType": "uint256",
              "name": "rating_modulu",
              "type": "uint256"
            },
            {
              "internalType": "string",
              "name": "fileSha256",
              "type": "string"
            },
            {
              "internalType": "bool",
              "name": "owned",
              "type": "bool"
            }
          ],
          "internalType": "struct AppInfoLibrary.AppInfo[]",
          "name": "",
          "type": "tuple[]"
        }
      ],
      "stateMutability": "view",
      "type": "function"
    },
    {
      "inputs": [
        {
          "internalType": "uint256",
          "name": "number_of_apps",
          "type": "uint256"
        }
      ],
      "name": "generateDemoApps",
      "outputs": [],
      "stateMutability": "nonpayable",
      "type": "function"
    }
  ],
  "bytecode": "0x60806040523480156200001157600080fd5b506200002960046200002f60201b62001a431760201c565b6200003c565b6000816000018190555050565b619981806200004c6000396000f3fe60806040523480156200001157600080fd5b50600436106200006a5760003560e01c806306fdde03146200006f5780631e73a2ea14620000915780632858594b14620000b15780637d6a24ab14620000d157806384b75a021462000107578063bd0c28451462000127575b600080fd5b6200007962000147565b60405162000088919062002130565b60405180910390f35b620000af6004803603810190620000a99190620021a3565b62000180565b005b620000cf6004803603810190620000c991906200223a565b620004fc565b005b620000ef6004803603810190620000e991906200226c565b62000b37565b604051620000fe919062002524565b60405180910390f35b6200012560048036038101906200011f919062002699565b62000d39565b005b6200014560048036038101906200013f91906200281c565b620018bb565b005b6040518060400160405280600981526020017f6441707073746f7265000000000000000000000000000000000000000000000081525081565b60006200018e600062001a50565b905060008190505b8282620001a49190620029ce565b811015620004f7576000620001b98262001a67565b9050620004e0338273__StringUtils___________________________63605b5c5f90916040518263ffffffff1660e01b8152600401620001fb919062002acd565b600060405180830381865af415801562000219573d6000803e3d6000fd5b505050506040513d6000823e3d601f19601f8201168201806040525081019062000244919062002b84565b8373__StringUtils___________________________63605b5c5f90916040518263ffffffff1660e01b81526004016200027f919062002c25565b600060405180830381865af41580156200029d573d6000803e3d6000fd5b505050506040513d6000823e3d601f19601f82011682018060405250810190620002c8919062002b84565b8473__StringUtils___________________________63605b5c5f90916040518263ffffffff1660e01b815260040162000303919062002cae565b600060405180830381865af415801562000321573d6000803e3d6000fd5b505050506040513d6000823e3d601f19601f820116820180604052508101906200034c919062002b84565b8573__StringUtils___________________________63605b5c5f90916040518263ffffffff1660e01b815260040162000387919062002d37565b600060405180830381865af4158015620003a5573d6000803e3d6000fd5b505050506040513d6000823e3d601f19601f82011682018060405250810190620003d0919062002b84565b8673__StringUtils___________________________63605b5c5f90916040518263ffffffff1660e01b81526004016200040b919062002dc0565b600060405180830381865af415801562000429573d6000803e3d6000fd5b505050506040513d6000823e3d601f19601f8201168201806040525081019062000454919062002b84565b60088873__StringUtils___________________________63605b5c5f90916040518263ffffffff1660e01b815260040162000491919062002e49565b600060405180830381865af4158015620004af573d6000803e3d6000fd5b505050506040513d6000823e3d601f19601f82011682018060405250810190620004da919062002b84565b620018bb565b508080620004ee9062002e82565b91505062000196565b505050565b338073ffffffffffffffffffffffffffffffffffffffff1673__AddressUtils__________________________6386bd3f9190916040518263ffffffff1660e01b81526004016200054e919062002ee0565b602060405180830381865af41580156200056c573d6000803e3d6000fd5b505050506040513d601f19601f8201168201806040525081019062000592919062002f2e565b15620005d5576040517f08c379a0000000000000000000000000000000000000000000000000000000008152600401620005cc9062002fb0565b60405180910390fd5b600360008273ffffffffffffffffffffffffffffffffffffffff1673ffffffffffffffffffffffffffffffffffffffff16815260200190815260200160002060009054906101000a900473ffffffffffffffffffffffffffffffffffffffff1673ffffffffffffffffffffffffffffffffffffffff1673__AddressUtils__________________________6386bd3f9190916040518263ffffffff1660e01b815260040162000685919062002ee0565b602060405180830381865af4158015620006a3573d6000803e3d6000fd5b505050506040513d601f19601f82011682018060405250810190620006c9919062002f2e565b156200070c576040517f08c379a0000000000000000000000000000000000000000000000000000000008152600401620007039062003022565b60405180910390fd5b8160008173ffffffffffffffffffffffffffffffffffffffff1663af640d0f6040518163ffffffff1660e01b8152600401602060405180830381865afa1580156200075b573d6000803e3d6000fd5b505050506040513d601f19601f820116820180604052508101906200078191906200305b565b90506200079981600062001be090919063ffffffff16565b620007db576040517f08c379a0000000000000000000000000000000000000000000000000000000008152600401620007d290620030dd565b60405180910390fd5b620007f181600062001bfc90919063ffffffff16565b73ffffffffffffffffffffffffffffffffffffffff1673__AddressUtils__________________________6386bd3f9190916040518263ffffffff1660e01b815260040162000841919062002ee0565b602060405180830381865af41580156200085f573d6000803e3d6000fd5b505050506040513d601f19601f8201168201806040525081019062000885919062002f2e565b15620008c8576040517f08c379a0000000000000000000000000000000000000000000000000000000008152600401620008bf906200314f565b60405180910390fd5b6000339050600360008273ffffffffffffffffffffffffffffffffffffffff1673ffffffffffffffffffffffffffffffffffffffff16815260200190815260200160002060009054906101000a900473ffffffffffffffffffffffffffffffffffffffff1673ffffffffffffffffffffffffffffffffffffffff1673__AddressUtils__________________________6386bd3f9190916040518263ffffffff1660e01b81526004016200097d919062002ee0565b602060405180830381865af41580156200099b573d6000803e3d6000fd5b505050506040513d601f19601f82011682018060405250810190620009c1919062002f2e565b15620009d357620009d28162001c1b565b5b62000ac18573ffffffffffffffffffffffffffffffffffffffff166302d05d3f6040518163ffffffff1660e01b8152600401602060405180830381865afa15801562000a23573d6000803e3d6000fd5b505050506040513d601f19601f8201168201806040525081019062000a499190620031b6565b8673ffffffffffffffffffffffffffffffffffffffff1663a035b1fe6040518163ffffffff1660e01b8152600401602060405180830381865afa15801562000a95573d6000803e3d6000fd5b505050506040513d601f19601f8201168201806040525081019062000abb91906200305b565b62001ce0565b8073ffffffffffffffffffffffffffffffffffffffff16632858594b866040518263ffffffff1660e01b815260040162000afc9190620031f9565b600060405180830381600087803b15801562000b1757600080fd5b505af115801562000b2c573d6000803e3d6000fd5b505050505050505050565b6060828262000b5182600062001be090919063ffffffff16565b62000b93576040517f08c379a000000000000000000000000000000000000000000000000000000000815260040162000b8a9062003266565b60405180910390fd5b6000811162000bd9576040517f08c379a000000000000000000000000000000000000000000000000000000000815260040162000bd090620032d8565b60405180910390fd5b60008467ffffffffffffffff81111562000bf85762000bf762002552565b5b60405190808252806020026020018201604052801562000c3557816020015b62000c2162002014565b81526020019060019003908162000c175790505b50905060005b8581101562000d2c5762000c7f62000c54600062001a50565b828962000c629190620029ce565b62000c6e919062003329565b600062001bfc90919063ffffffff16565b73ffffffffffffffffffffffffffffffffffffffff1663e26799ff6040518163ffffffff1660e01b8152600401600060405180830381865afa15801562000cca573d6000803e3d6000fd5b505050506040513d6000823e3d601f19601f8201168201806040525081019062000cf591906200352d565b82828151811062000d0b5762000d0a6200357e565b5b6020026020010181905250808062000d239062002e82565b91505062000c3b565b5080935050505092915050565b338073ffffffffffffffffffffffffffffffffffffffff1673__AddressUtils__________________________6386bd3f9190916040518263ffffffff1660e01b815260040162000d8b919062002ee0565b602060405180830381865af415801562000da9573d6000803e3d6000fd5b505050506040513d601f19601f8201168201806040525081019062000dcf919062002f2e565b1562000e12576040517f08c379a000000000000000000000000000000000000000000000000000000000815260040162000e099062002fb0565b60405180910390fd5b600360008273ffffffffffffffffffffffffffffffffffffffff1673ffffffffffffffffffffffffffffffffffffffff16815260200190815260200160002060009054906101000a900473ffffffffffffffffffffffffffffffffffffffff1673ffffffffffffffffffffffffffffffffffffffff1673__AddressUtils__________________________6386bd3f9190916040518263ffffffff1660e01b815260040162000ec2919062002ee0565b602060405180830381865af415801562000ee0573d6000803e3d6000fd5b505050506040513d601f19601f8201168201806040525081019062000f06919062002f2e565b1562000f49576040517f08c379a000000000000000000000000000000000000000000000000000000000815260040162000f409062003022565b60405180910390fd5b8862000f6081600062001be090919063ffffffff16565b62000fa2576040517f08c379a000000000000000000000000000000000000000000000000000000000815260040162000f9990620030dd565b60405180910390fd5b62000fb881600062001bfc90919063ffffffff16565b73ffffffffffffffffffffffffffffffffffffffff1673__AddressUtils__________________________6386bd3f9190916040518263ffffffff1660e01b815260040162001008919062002ee0565b602060405180830381865af415801562001026573d6000803e3d6000fd5b505050506040513d601f19601f820116820180604052508101906200104c919062002f2e565b156200108f576040517f08c379a00000000000000000000000000000000000000000000000000000000081526004016200108690620035fd565b60405180910390fd5b89338073ffffffffffffffffffffffffffffffffffffffff1673__AddressUtils__________________________6386bd3f9190916040518263ffffffff1660e01b8152600401620010e2919062002ee0565b602060405180830381865af415801562001100573d6000803e3d6000fd5b505050506040513d601f19601f8201168201806040525081019062001126919062002f2e565b1562001169576040517f08c379a0000000000000000000000000000000000000000000000000000000008152600401620011609062002fb0565b60405180910390fd5b6200117f82600062001bfc90919063ffffffff16565b73ffffffffffffffffffffffffffffffffffffffff166302d05d3f6040518163ffffffff1660e01b8152600401602060405180830381865afa158015620011ca573d6000803e3d6000fd5b505050506040513d601f19601f82011682018060405250810190620011f09190620031b6565b73ffffffffffffffffffffffffffffffffffffffff168173ffffffffffffffffffffffffffffffffffffffff161462001260576040517f08c379a000000000000000000000000000000000000000000000000000000000815260040162001257906200366f565b60405180910390fd5b6000620012788d600062001bfc90919063ffffffff16565b90508b73__StringUtils___________________________6327341c8a90916040518263ffffffff1660e01b8152600401620012b5919062003691565b602060405180830381865af4158015620012d3573d6000803e3d6000fd5b505050506040513d601f19601f82011682018060405250810190620012f9919062002f2e565b6200136e578073ffffffffffffffffffffffffffffffffffffffff166381ecdf458d6040518263ffffffff1660e01b815260040162001339919062002130565b600060405180830381600087803b1580156200135457600080fd5b505af115801562001369573d6000803e3d6000fd5b505050505b8a73__StringUtils___________________________6327341c8a90916040518263ffffffff1660e01b8152600401620013a9919062003691565b602060405180830381865af4158015620013c7573d6000803e3d6000fd5b505050506040513d601f19601f82011682018060405250810190620013ed919062002f2e565b62001462578073ffffffffffffffffffffffffffffffffffffffff1663fafb1b018c6040518263ffffffff1660e01b81526004016200142d919062002130565b600060405180830381600087803b1580156200144857600080fd5b505af11580156200145d573d6000803e3d6000fd5b505050505b8973__StringUtils___________________________6327341c8a90916040518263ffffffff1660e01b81526004016200149d919062003691565b602060405180830381865af4158015620014bb573d6000803e3d6000fd5b505050506040513d601f19601f82011682018060405250810190620014e1919062002f2e565b62001556578073ffffffffffffffffffffffffffffffffffffffff166342cbef958b6040518263ffffffff1660e01b815260040162001521919062002130565b600060405180830381600087803b1580156200153c57600080fd5b505af115801562001551573d6000803e3d6000fd5b505050505b8873__StringUtils___________________________6327341c8a90916040518263ffffffff1660e01b815260040162001591919062003691565b602060405180830381865af4158015620015af573d6000803e3d6000fd5b505050506040513d601f19601f82011682018060405250810190620015d5919062002f2e565b6200164a578073ffffffffffffffffffffffffffffffffffffffff16634ad3d57d8a6040518263ffffffff1660e01b815260040162001615919062002130565b600060405180830381600087803b1580156200163057600080fd5b505af115801562001645573d6000803e3d6000fd5b505050505b8773__StringUtils___________________________6327341c8a90916040518263ffffffff1660e01b815260040162001685919062003691565b602060405180830381865af4158015620016a3573d6000803e3d6000fd5b505050506040513d601f19601f82011682018060405250810190620016c9919062002f2e565b6200173e578073ffffffffffffffffffffffffffffffffffffffff1663128a8f76896040518263ffffffff1660e01b815260040162001709919062002130565b600060405180830381600087803b1580156200172457600080fd5b505af115801562001739573d6000803e3d6000fd5b505050505b6000871115620017b8578073ffffffffffffffffffffffffffffffffffffffff1663e9cd36d3886040518263ffffffff1660e01b8152600401620017839190620036c6565b600060405180830381600087803b1580156200179e57600080fd5b505af1158015620017b3573d6000803e3d6000fd5b505050505b8573__StringUtils___________________________6327341c8a90916040518263ffffffff1660e01b8152600401620017f3919062003691565b602060405180830381865af415801562001811573d6000803e3d6000fd5b505050506040513d601f19601f8201168201806040525081019062001837919062002f2e565b620018ac578073ffffffffffffffffffffffffffffffffffffffff1663da0c57e9876040518263ffffffff1660e01b815260040162001877919062002130565b600060405180830381600087803b1580156200189257600080fd5b505af1158015620018a7573d6000803e3d6000fd5b505050505b50505050505050505050505050565b600360008973ffffffffffffffffffffffffffffffffffffffff1673ffffffffffffffffffffffffffffffffffffffff16815260200190815260200160002060009054906101000a900473ffffffffffffffffffffffffffffffffffffffff1673ffffffffffffffffffffffffffffffffffffffff1673__AddressUtils__________________________6386bd3f9190916040518263ffffffff1660e01b81526004016200196b919062002ee0565b602060405180830381865af415801562001989573d6000803e3d6000fd5b505050506040513d601f19601f82011682018060405250810190620019af919062002f2e565b15620019c157620019c08862001c1b565b5b6000620019cf600062001a50565b90506000818a8a8a8a8a8a8a8a604051620019ea9062002070565b620019fe99989796959493929190620036e3565b604051809103906000f08015801562001a1b573d6000803e3d6000fd5b50905062001a368282600062001dde9092919063ffffffff16565b5050505050505050505050565b6000816000018190555050565b600062001a608260000162001e15565b9050919050565b60606000820362001ab0576040518060400160405280600181526020017f3000000000000000000000000000000000000000000000000000000000000000815250905062001bdb565b600082905060005b6000821462001ae857808062001ace9062002e82565b915050600a8262001ae09190620037ac565b915062001ab8565b60008167ffffffffffffffff81111562001b075762001b0662002552565b5b6040519080825280601f01601f19166020018201604052801562001b3a5781602001600182028036833780820191505090505b5090505b6000851462001bd45760018262001b569190620037e4565b9150600a8562001b67919062003329565b603062001b759190620029ce565b60f81b81838151811062001b8e5762001b8d6200357e565b5b60200101907effffffffffffffffffffffffffffffffffffffffffffffffffffffffffffff1916908160001a905350600a8562001bcc9190620037ac565b945062001b3e565b8093505050505b919050565b600062001bf4836000018360001b62001e2c565b905092915050565b600062001c10836000018360001b62001e4e565b60001c905092915050565b62001c27600462001ed0565b8060405162001c36906200207e565b62001c4291906200388a565b604051809103906000f08015801562001c5f573d6000803e3d6000fd5b50600360008373ffffffffffffffffffffffffffffffffffffffff1673ffffffffffffffffffffffffffffffffffffffff16815260200190815260200160002060006101000a81548173ffffffffffffffffffffffffffffffffffffffff021916908373ffffffffffffffffffffffffffffffffffffffff16021790555050565b8047101562001d26576040517f08c379a000000000000000000000000000000000000000000000000000000000815260040162001d1d90620038f7565b60405180910390fd5b60008273ffffffffffffffffffffffffffffffffffffffff168260405162001d4e906200394e565b60006040518083038185875af1925050503d806000811462001d8d576040519150601f19603f3d011682016040523d82523d6000602084013e62001d92565b606091505b505090508062001dd9576040517f08c379a000000000000000000000000000000000000000000000000000000000815260040162001dd090620039db565b60405180910390fd5b505050565b600062001e0c846000018460001b8473ffffffffffffffffffffffffffffffffffffffff1660001b62001ee6565b90509392505050565b600062001e258260000162001f23565b9050919050565b600062001e46828460000162001f3a90919063ffffffff16565b905092915050565b6000808360020160008481526020019081526020016000205490506000801b8114158062001e84575062001e83848462001e2c565b5b62001ec6576040517f08c379a000000000000000000000000000000000000000000000000000000000815260040162001ebd9062003a4d565b60405180910390fd5b8091505092915050565b6001816000016000828254019250508190555050565b6000818460020160008581526020019081526020016000208190555062001f1a838560000162001f5390919063ffffffff16565b90509392505050565b600062001f338260000162001f6c565b9050919050565b600062001f4b836000018362001f7d565b905092915050565b600062001f64836000018362001fa0565b905092915050565b600081600001805490509050919050565b600080836001016000848152602001908152602001600020541415905092915050565b600062001fae838362001f7d565b620020095782600001829080600181540180825580915050600190039060005260206000200160009091909190915055826000018054905083600101600084815260200190815260200160002081905550600190506200200e565b600090505b92915050565b604051806101600160405280600081526020016060815260200160608152602001606081526020016060815260200160008152602001600081526020016000815260200160008152602001606081526020016000151581525090565b613edf8062003a7083390190565b611ffd806200794f83390190565b600081519050919050565b600082825260208201905092915050565b60005b83811015620020c8578082015181840152602081019050620020ab565b83811115620020d8576000848401525b50505050565b6000601f19601f8301169050919050565b6000620020fc826200208c565b62002108818562002097565b93506200211a818560208601620020a8565b6200212581620020de565b840191505092915050565b600060208201905081810360008301526200214c8184620020ef565b905092915050565b6000604051905090565b600080fd5b600080fd5b6000819050919050565b6200217d8162002168565b81146200218957600080fd5b50565b6000813590506200219d8162002172565b92915050565b600060208284031215620021bc57620021bb6200215e565b5b6000620021cc848285016200218c565b91505092915050565b600073ffffffffffffffffffffffffffffffffffffffff82169050919050565b60006200220282620021d5565b9050919050565b6200221481620021f5565b81146200222057600080fd5b50565b600081359050620022348162002209565b92915050565b6000602082840312156200225357620022526200215e565b5b6000620022638482850162002223565b91505092915050565b600080604083850312156200228657620022856200215e565b5b600062002296858286016200218c565b9250506020620022a9858286016200218c565b9150509250929050565b600081519050919050565b600082825260208201905092915050565b6000819050602082019050919050565b620022ea8162002168565b82525050565b600082825260208201905092915050565b60006200230e826200208c565b6200231a8185620022f0565b93506200232c818560208601620020a8565b6200233781620020de565b840191505092915050565b60008115159050919050565b620023598162002342565b82525050565b6000610160830160008301516200237a6000860182620022df565b506020830151848203602086015262002394828262002301565b91505060408301518482036040860152620023b0828262002301565b91505060608301518482036060860152620023cc828262002301565b91505060808301518482036080860152620023e8828262002301565b91505060a0830151620023ff60a0860182620022df565b5060c08301516200241460c0860182620022df565b5060e08301516200242960e0860182620022df565b5061010083015162002440610100860182620022df565b506101208301518482036101208601526200245c828262002301565b915050610140830151620024756101408601826200234e565b508091505092915050565b60006200248e83836200235f565b905092915050565b6000602082019050919050565b6000620024b082620022b3565b620024bc8185620022be565b935083602082028501620024d085620022cf565b8060005b85811015620025125784840389528151620024f0858262002480565b9450620024fd8362002496565b925060208a01995050600181019050620024d4565b50829750879550505050505092915050565b60006020820190508181036000830152620025408184620024a3565b905092915050565b600080fd5b600080fd5b7f4e487b7100000000000000000000000000000000000000000000000000000000600052604160045260246000fd5b6200258c82620020de565b810181811067ffffffffffffffff82111715620025ae57620025ad62002552565b5b80604052505050565b6000620025c362002154565b9050620025d1828262002581565b919050565b600067ffffffffffffffff821115620025f457620025f362002552565b5b620025ff82620020de565b9050602081019050919050565b82818337600083830152505050565b6000620026326200262c84620025d6565b620025b7565b9050828152602081018484840111156200265157620026506200254d565b5b6200265e8482856200260c565b509392505050565b600082601f8301126200267e576200267d62002548565b5b8135620026908482602086016200261b565b91505092915050565b600080600080600080600080610100898b031215620026bd57620026bc6200215e565b5b6000620026cd8b828c016200218c565b985050602089013567ffffffffffffffff811115620026f157620026f062002163565b5b620026ff8b828c0162002666565b975050604089013567ffffffffffffffff81111562002723576200272262002163565b5b620027318b828c0162002666565b965050606089013567ffffffffffffffff81111562002755576200275462002163565b5b620027638b828c0162002666565b955050608089013567ffffffffffffffff81111562002787576200278662002163565b5b620027958b828c0162002666565b94505060a089013567ffffffffffffffff811115620027b957620027b862002163565b5b620027c78b828c0162002666565b93505060c0620027da8b828c016200218c565b92505060e089013567ffffffffffffffff811115620027fe57620027fd62002163565b5b6200280c8b828c0162002666565b9150509295985092959890939650565b600080600080600080600080610100898b03121562002840576200283f6200215e565b5b6000620028508b828c0162002223565b985050602089013567ffffffffffffffff81111562002874576200287362002163565b5b620028828b828c0162002666565b975050604089013567ffffffffffffffff811115620028a657620028a562002163565b5b620028b48b828c0162002666565b965050606089013567ffffffffffffffff811115620028d857620028d762002163565b5b620028e68b828c0162002666565b955050608089013567ffffffffffffffff8111156200290a576200290962002163565b5b620029188b828c0162002666565b94505060a089013567ffffffffffffffff8111156200293c576200293b62002163565b5b6200294a8b828c0162002666565b93505060c06200295d8b828c016200218c565b92505060e089013567ffffffffffffffff81111562002981576200298062002163565b5b6200298f8b828c0162002666565b9150509295985092959890939650565b7f4e487b7100000000000000000000000000000000000000000000000000000000600052601160045260246000fd5b6000620029db8262002168565b9150620029e88362002168565b9250827fffffffffffffffffffffffffffffffffffffffffffffffffffffffffffffffff0382111562002a205762002a1f6200299f565b5b828201905092915050565b600082825260208201905092915050565b600062002a49826200208c565b62002a55818562002a2b565b935062002a67818560208601620020a8565b62002a7281620020de565b840191505092915050565b7f6e616d6500000000000000000000000000000000000000000000000000000000600082015250565b600062002ab560048362002a2b565b915062002ac28262002a7d565b602082019050919050565b6000604082019050818103600083015262002ae9818462002a3c565b9050818103602083015262002afe8162002aa6565b905092915050565b600062002b1d62002b1784620025d6565b620025b7565b90508281526020810184848401111562002b3c5762002b3b6200254d565b5b62002b49848285620020a8565b509392505050565b600082601f83011262002b695762002b6862002548565b5b815162002b7b84826020860162002b06565b91505092915050565b60006020828403121562002b9d5762002b9c6200215e565b5b600082015167ffffffffffffffff81111562002bbe5762002bbd62002163565b5b62002bcc8482850162002b51565b91505092915050565b7f6465736372697074696f6e000000000000000000000000000000000000000000600082015250565b600062002c0d600b8362002a2b565b915062002c1a8262002bd5565b602082019050919050565b6000604082019050818103600083015262002c41818462002a3c565b9050818103602083015262002c568162002bfe565b905092915050565b7f6c696e6b00000000000000000000000000000000000000000000000000000000600082015250565b600062002c9660048362002a2b565b915062002ca38262002c5e565b602082019050919050565b6000604082019050818103600083015262002cca818462002a3c565b9050818103602083015262002cdf8162002c87565b905092915050565b7f696d670000000000000000000000000000000000000000000000000000000000600082015250565b600062002d1f60038362002a2b565b915062002d2c8262002ce7565b602082019050919050565b6000604082019050818103600083015262002d53818462002a3c565b9050818103602083015262002d688162002d10565b905092915050565b7f636f6d70616e7900000000000000000000000000000000000000000000000000600082015250565b600062002da860078362002a2b565b915062002db58262002d70565b602082019050919050565b6000604082019050818103600083015262002ddc818462002a3c565b9050818103602083015262002df18162002d99565b905092915050565b7f66696c6553686100000000000000000000000000000000000000000000000000600082015250565b600062002e3160078362002a2b565b915062002e3e8262002df9565b602082019050919050565b6000604082019050818103600083015262002e65818462002a3c565b9050818103602083015262002e7a8162002e22565b905092915050565b600062002e8f8262002168565b91507fffffffffffffffffffffffffffffffffffffffffffffffffffffffffffffffff820362002ec45762002ec36200299f565b5b600182019050919050565b62002eda81620021f5565b82525050565b600060208201905062002ef7600083018462002ecf565b92915050565b62002f088162002342565b811462002f1457600080fd5b50565b60008151905062002f288162002efd565b92915050565b60006020828403121562002f475762002f466200215e565b5b600062002f578482850162002f17565b91505092915050565b7f496e76616c696420616464720000000000000000000000000000000000000000600082015250565b600062002f98600c8362002097565b915062002fa58262002f60565b602082019050919050565b6000602082019050818103600083015262002fcb8162002f89565b9050919050565b7f55736572206e6f7420666f756e64000000000000000000000000000000000000600082015250565b60006200300a600e8362002097565b9150620030178262002fd2565b602082019050919050565b600060208201905081810360008301526200303d8162002ffb565b9050919050565b600081519050620030558162002172565b92915050565b6000602082840312156200307457620030736200215e565b5b6000620030848482850162003044565b91505092915050565b7f417070206e6f7420666f756e6400000000000000000000000000000000000000600082015250565b6000620030c5600d8362002097565b9150620030d2826200308d565b602082019050919050565b60006020820190508181036000830152620030f881620030b6565b9050919050565b7f4170702065786973747300000000000000000000000000000000000000000000600082015250565b600062003137600a8362002097565b91506200314482620030ff565b602082019050919050565b600060208201905081810360008301526200316a8162003128565b9050919050565b60006200317e82620021d5565b9050919050565b620031908162003171565b81146200319c57600080fd5b50565b600081519050620031b08162003185565b92915050565b600060208284031215620031cf57620031ce6200215e565b5b6000620031df848285016200319f565b91505092915050565b620031f381620021f5565b82525050565b6000602082019050620032106000830184620031e8565b92915050565b7f496e76616c696420696e64657800000000000000000000000000000000000000600082015250565b60006200324e600d8362002097565b91506200325b8262003216565b602082019050919050565b6000602082019050818103600083015262003281816200323f565b9050919050565b7f496e76616c6964206c656e677468000000000000000000000000000000000000600082015250565b6000620032c0600e8362002097565b9150620032cd8262003288565b602082019050919050565b60006020820190508181036000830152620032f381620032b1565b9050919050565b7f4e487b7100000000000000000000000000000000000000000000000000000000600052601260045260246000fd5b6000620033368262002168565b9150620033438362002168565b925082620033565762003355620032fa565b5b828206905092915050565b600080fd5b600080fd5b6000610160828403121562003385576200338462003361565b5b62003392610160620025b7565b90506000620033a48482850162003044565b600083015250602082015167ffffffffffffffff811115620033cb57620033ca62003366565b5b620033d98482850162002b51565b602083015250604082015167ffffffffffffffff8111156200340057620033ff62003366565b5b6200340e8482850162002b51565b604083015250606082015167ffffffffffffffff81111562003435576200343462003366565b5b620034438482850162002b51565b606083015250608082015167ffffffffffffffff8111156200346a576200346962003366565b5b620034788482850162002b51565b60808301525060a06200348e8482850162003044565b60a08301525060c0620034a48482850162003044565b60c08301525060e0620034ba8482850162003044565b60e083015250610100620034d18482850162003044565b6101008301525061012082015167ffffffffffffffff811115620034fa57620034f962003366565b5b620035088482850162002b51565b61012083015250610140620035208482850162002f17565b6101408301525092915050565b6000602082840312156200354657620035456200215e565b5b600082015167ffffffffffffffff81111562003567576200356662002163565b5b62003575848285016200336b565b91505092915050565b7f4e487b7100000000000000000000000000000000000000000000000000000000600052603260045260246000fd5b7f41707020646f656e732774206578697374730000000000000000000000000000600082015250565b6000620035e560128362002097565b9150620035f282620035ad565b602082019050919050565b600060208201905081810360008301526200361881620035d6565b9050919050565b7f6e6f742063726561746f72206164647200000000000000000000000000000000600082015250565b60006200365760108362002097565b915062003664826200361f565b602082019050919050565b600060208201905081810360008301526200368a8162003648565b9050919050565b60006020820190508181036000830152620036ad818462002a3c565b905092915050565b620036c08162002168565b82525050565b6000602082019050620036dd6000830184620036b5565b92915050565b600061012082019050620036fb600083018c620036b5565b6200370a602083018b620031e8565b81810360408301526200371e818a620020ef565b90508181036060830152620037348189620020ef565b905081810360808301526200374a8188620020ef565b905081810360a0830152620037608187620020ef565b905081810360c0830152620037768186620020ef565b90506200378760e0830185620036b5565b8181036101008301526200379c8184620020ef565b90509a9950505050505050505050565b6000620037b98262002168565b9150620037c68362002168565b925082620037d957620037d8620032fa565b5b828204905092915050565b6000620037f18262002168565b9150620037fe8362002168565b9250828210156200381457620038136200299f565b5b828203905092915050565b6000819050919050565b60006200384a620038446200383e84620021d5565b6200381f565b620021d5565b9050919050565b60006200385e8262003829565b9050919050565b6000620038728262003851565b9050919050565b620038848162003865565b82525050565b6000602082019050620038a1600083018462003879565b92915050565b7f416464726573733a20696e73756666696369656e742062616c616e6365000000600082015250565b6000620038df601d8362002097565b9150620038ec82620038a7565b602082019050919050565b600060208201905081810360008301526200391281620038d0565b9050919050565b600081905092915050565b50565b60006200393660008362003919565b9150620039438262003924565b600082019050919050565b60006200395b8262003927565b9150819050919050565b7f416464726573733a20756e61626c6520746f2073656e642076616c75652c207260008201527f6563697069656e74206d61792068617665207265766572746564000000000000602082015250565b6000620039c3603a8362002097565b9150620039d08262003965565b604082019050919050565b60006020820190508181036000830152620039f681620039b4565b9050919050565b7f456e756d657261626c654d61703a206e6f6e6578697374656e74206b65790000600082015250565b600062003a35601e8362002097565b915062003a4282620039fd565b602082019050919050565b6000602082019050818103600083015262003a688162003a26565b905091905056fe60806040523480156200001157600080fd5b5060405162003edf38038062003edf8339818101604052810190620000379190620009eb565b620000576200004b620005fc60201b60201c565b6200060460201b60201c565b8860008110156200009f576040517f08c379a0000000000000000000000000000000000000000000000000000000008152600401620000969062000be5565b60405180910390fd5b8260008111620000e6576040517f08c379a0000000000000000000000000000000000000000000000000000000008152600401620000dd9062000c57565b60405180910390fd5b888073__StringUtils___________________________6327341c8a90916040518263ffffffff1660e01b815260040162000122919062000cd6565b602060405180830381865af415801562000140573d6000803e3d6000fd5b505050506040513d601f19601f8201168201806040525081019062000166919062000d37565b15620001a9576040517f08c379a0000000000000000000000000000000000000000000000000000000008152600401620001a09062000db9565b60405180910390fd5b878073__StringUtils___________________________6327341c8a90916040518263ffffffff1660e01b8152600401620001e5919062000cd6565b602060405180830381865af415801562000203573d6000803e3d6000fd5b505050506040513d601f19601f8201168201806040525081019062000229919062000d37565b156200026c576040517f08c379a0000000000000000000000000000000000000000000000000000000008152600401620002639062000db9565b60405180910390fd5b848073__StringUtils___________________________6327341c8a90916040518263ffffffff1660e01b8152600401620002a8919062000cd6565b602060405180830381865af4158015620002c6573d6000803e3d6000fd5b505050506040513d601f19601f82011682018060405250810190620002ec919062000d37565b156200032f576040517f08c379a0000000000000000000000000000000000000000000000000000000008152600401620003269062000db9565b60405180910390fd5b8c600260006101000a81548173ffffffffffffffffffffffffffffffffffffffff021916908373ffffffffffffffffffffffffffffffffffffffff1602179055508d6001819055508b600390805190602001906200038f929190620006fe565b508a60049080519060200190620003a8929190620006fe565b508960069080519060200190620003c1929190620006fe565b508860079080519060200190620003da929190620006fe565b508873__StringUtils___________________________6327341c8a90916040518263ffffffff1660e01b815260040162000416919062000cd6565b602060405180830381865af415801562000434573d6000803e3d6000fd5b505050506040513d601f19601f820116820180604052508101906200045a919062000d37565b15620004af576040518060400160405280600d81526020017f64656661756c7420696d6167650000000000000000000000000000000000000081525060079080519060200190620004ad929190620006fe565b505b8760089080519060200190620004c7929190620006fe565b5060006009819055506000600a8190555086600b819055506005869080600181540180825580915050600190039060005260206000200160009091909190915090805190602001906200051c929190620006fe565b5062000534600c620006c860201b62001c5a1760201c565b6200054b600d620006c860201b62001c5a1760201c565b600260009054906101000a900473ffffffffffffffffffffffffffffffffffffffff1673ffffffffffffffffffffffffffffffffffffffff16600154600360405162000598919062000eea565b60405180910390207f4ebeeb573ab9892d0c9b8e2b088b43617667b3479dca07176f29ef21ba848bd1620005d1620006d560201b60201c565b604051620005e0919062000f14565b60405180910390a4505050505050505050505050505062000f31565b600033905090565b60008060009054906101000a900473ffffffffffffffffffffffffffffffffffffffff169050816000806101000a81548173ffffffffffffffffffffffffffffffffffffffff021916908373ffffffffffffffffffffffffffffffffffffffff1602179055508173ffffffffffffffffffffffffffffffffffffffff168173ffffffffffffffffffffffffffffffffffffffff167f8be0079c531659141344cd1fd0a4f28419497f9722a3daafe3b4186f6b6457e060405160405180910390a35050565b6000816000018190555050565b60008060009054906101000a900473ffffffffffffffffffffffffffffffffffffffff16905090565b8280546200070c9062000e0a565b90600052602060002090601f0160209004810192826200073057600085556200077c565b82601f106200074b57805160ff19168380011785556200077c565b828001600101855582156200077c579182015b828111156200077b5782518255916020019190600101906200075e565b5b5090506200078b91906200078f565b5090565b5b80821115620007aa57600081600090555060010162000790565b5090565b6000604051905090565b600080fd5b600080fd5b6000819050919050565b620007d781620007c2565b8114620007e357600080fd5b50565b600081519050620007f781620007cc565b92915050565b600073ffffffffffffffffffffffffffffffffffffffff82169050919050565b60006200082a82620007fd565b9050919050565b6200083c816200081d565b81146200084857600080fd5b50565b6000815190506200085c8162000831565b92915050565b600080fd5b600080fd5b6000601f19601f8301169050919050565b7f4e487b7100000000000000000000000000000000000000000000000000000000600052604160045260246000fd5b620008b7826200086c565b810181811067ffffffffffffffff82111715620008d957620008d86200087d565b5b80604052505050565b6000620008ee620007ae565b9050620008fc8282620008ac565b919050565b600067ffffffffffffffff8211156200091f576200091e6200087d565b5b6200092a826200086c565b9050602081019050919050565b60005b83811015620009575780820151818401526020810190506200093a565b8381111562000967576000848401525b50505050565b6000620009846200097e8462000901565b620008e2565b905082815260208101848484011115620009a357620009a262000867565b5b620009b084828562000937565b509392505050565b600082601f830112620009d057620009cf62000862565b5b8151620009e28482602086016200096d565b91505092915050565b60008060008060008060008060006101208a8c03121562000a115762000a10620007b8565b5b600062000a218c828d01620007e6565b995050602062000a348c828d016200084b565b98505060408a015167ffffffffffffffff81111562000a585762000a57620007bd565b5b62000a668c828d01620009b8565b97505060608a015167ffffffffffffffff81111562000a8a5762000a89620007bd565b5b62000a988c828d01620009b8565b96505060808a015167ffffffffffffffff81111562000abc5762000abb620007bd565b5b62000aca8c828d01620009b8565b95505060a08a015167ffffffffffffffff81111562000aee5762000aed620007bd565b5b62000afc8c828d01620009b8565b94505060c08a015167ffffffffffffffff81111562000b205762000b1f620007bd565b5b62000b2e8c828d01620009b8565b93505060e062000b418c828d01620007e6565b9250506101008a015167ffffffffffffffff81111562000b665762000b65620007bd565b5b62000b748c828d01620009b8565b9150509295985092959850929598565b600082825260208201905092915050565b7f496c6c6567616c20617070206964000000000000000000000000000000000000600082015250565b600062000bcd600e8362000b84565b915062000bda8262000b95565b602082019050919050565b6000602082019050818103600083015262000c008162000bbe565b9050919050565b7f5072696365206d7573742062652067726561746572207468616e203000000000600082015250565b600062000c3f601c8362000b84565b915062000c4c8262000c07565b602082019050919050565b6000602082019050818103600083015262000c728162000c30565b9050919050565b600081519050919050565b600082825260208201905092915050565b600062000ca28262000c79565b62000cae818562000c84565b935062000cc081856020860162000937565b62000ccb816200086c565b840191505092915050565b6000602082019050818103600083015262000cf2818462000c95565b905092915050565b60008115159050919050565b62000d118162000cfa565b811462000d1d57600080fd5b50565b60008151905062000d318162000d06565b92915050565b60006020828403121562000d505762000d4f620007b8565b5b600062000d608482850162000d20565b91505092915050565b7f537472696e67206d757374206e6f7420626520656d7074790000000000000000600082015250565b600062000da160188362000b84565b915062000dae8262000d69565b602082019050919050565b6000602082019050818103600083015262000dd48162000d92565b9050919050565b7f4e487b7100000000000000000000000000000000000000000000000000000000600052602260045260246000fd5b6000600282049050600182168062000e2357607f821691505b60208210810362000e395762000e3862000ddb565b5b50919050565b600081905092915050565b60008190508160005260206000209050919050565b6000815462000e6e8162000e0a565b62000e7a818662000e3f565b9450600182166000811462000e98576001811462000eaa5762000ee1565b60ff1983168652818601935062000ee1565b62000eb58562000e4a565b60005b8381101562000ed95781548189015260018201915060208101905062000eb8565b838801955050505b50505092915050565b600062000ef8828462000e5f565b915081905092915050565b62000f0e816200081d565b82525050565b600060208201905062000f2b600083018462000f03565b92915050565b612f9e8062000f416000396000f3fe608060405234801561001057600080fd5b50600436106101585760003560e01c80638da5cb5b116100c3578063da0c57e91161007c578063da0c57e91461035c578063e26799ff14610378578063e9cd36d314610396578063f2fde38b146103b2578063fabec44a146103ce578063fafb1b01146103ec57610158565b80638da5cb5b146102a8578063a035b1fe146102c6578063a512bd79146102e4578063af640d0f14610302578063d23fe7c714610320578063d68387c71461033e57610158565b8063554ca36c11610115578063554ca36c1461020b5780636904c94d14610227578063715018a6146102455780637284e4161461024f57806373b8fc801461026d57806381ecdf451461028c57610158565b806302d05d3f1461015d57806306fdde031461017b578063128a8f761461019957806334b1a7cc146101b557806342cbef95146101d35780634ad3d57d146101ef575b600080fd5b610165610408565b6040516101729190612067565b60405180910390f35b61018361042e565b604051610190919061211b565b60405180910390f35b6101b360048036038101906101ae91906121b6565b6104bc565b005b6101bd6106c8565b6040516101ca919061221c565b60405180910390f35b6101ed60048036038101906101e891906121b6565b6106d4565b005b610209600480360381019061020491906121b6565b6108e0565b005b610225600480360381019061022091906121b6565b610aec565b005b61022f610d51565b60405161023c919061211b565b60405180910390f35b61024d610ddf565b005b610257610e67565b604051610264919061211b565b60405180910390f35b610275610ef5565b604051610283929190612237565b60405180910390f35b6102a660048036038101906102a191906121b6565b610f1d565b005b6102b0611129565b6040516102bd9190612281565b60405180910390f35b6102ce611152565b6040516102db919061221c565b60405180910390f35b6102ec611158565b6040516102f9919061211b565b60405180910390f35b61030a6111e6565b604051610317919061221c565b60405180910390f35b6103286111ec565b604051610335919061221c565b60405180910390f35b6103466111f8565b604051610353919061211b565b60405180910390f35b610376600480360381019061037191906123cc565b611286565b005b6103806114a2565b60405161038d9190612594565b60405180910390f35b6103b060048036038101906103ab91906125e2565b611744565b005b6103cc60048036038101906103c7919061263b565b611898565b005b6103d661198f565b6040516103e3919061211b565b60405180910390f35b610406600480360381019061040191906121b6565b611a4e565b005b600260009054906101000a900473ffffffffffffffffffffffffffffffffffffffff1681565b6003805461043b90612697565b80601f016020809104026020016040519081016040528092919081815260200182805461046790612697565b80156104b45780601f10610489576101008083540402835291602001916104b4565b820191906000526020600020905b81548152906001019060200180831161049757829003601f168201915b505050505081565b6104c4611c67565b73ffffffffffffffffffffffffffffffffffffffff166104e2611129565b73ffffffffffffffffffffffffffffffffffffffff1614610538576040517f08c379a000000000000000000000000000000000000000000000000000000000815260040161052f90612714565b60405180910390fd5b81818080601f016020809104026020016040519081016040528093929190818152602001838380828437600081840152601f19601f820116905080830192505050505050508073__StringUtils___________________________6327341c8a90916040518263ffffffff1660e01b81526004016105b6919061277e565b602060405180830381865af41580156105d3573d6000803e3d6000fd5b505050506040513d601f19601f820116820180604052508101906105f791906127cc565b15610637576040517f08c379a000000000000000000000000000000000000000000000000000000000815260040161062e90612845565b60405180910390fd5b8282604051610647929190612895565b6040518091039020600860405161065e9190612942565b6040518091039020604051610672906129a5565b60405180910390207f1f7eeccc90c93b6a65fbe0be0414ed24073262ce0f988484e24f275529193e6f336040516106a99190612281565b60405180910390a48282600891906106c2929190611ea1565b50505050565b600d8060000154905081565b6106dc611c67565b73ffffffffffffffffffffffffffffffffffffffff166106fa611129565b73ffffffffffffffffffffffffffffffffffffffff1614610750576040517f08c379a000000000000000000000000000000000000000000000000000000000815260040161074790612714565b60405180910390fd5b81818080601f016020809104026020016040519081016040528093929190818152602001838380828437600081840152601f19601f820116905080830192505050505050508073__StringUtils___________________________6327341c8a90916040518263ffffffff1660e01b81526004016107ce919061277e565b602060405180830381865af41580156107eb573d6000803e3d6000fd5b505050506040513d601f19601f8201168201806040525081019061080f91906127cc565b1561084f576040517f08c379a000000000000000000000000000000000000000000000000000000000815260040161084690612845565b60405180910390fd5b828260405161085f929190612895565b604051809103902060066040516108769190612942565b604051809103902060405161088a90612a06565b60405180910390207f1f7eeccc90c93b6a65fbe0be0414ed24073262ce0f988484e24f275529193e6f336040516108c19190612281565b60405180910390a48282600691906108da929190611ea1565b50505050565b6108e8611c67565b73ffffffffffffffffffffffffffffffffffffffff16610906611129565b73ffffffffffffffffffffffffffffffffffffffff161461095c576040517f08c379a000000000000000000000000000000000000000000000000000000000815260040161095390612714565b60405180910390fd5b81818080601f016020809104026020016040519081016040528093929190818152602001838380828437600081840152601f19601f820116905080830192505050505050508073__StringUtils___________________________6327341c8a90916040518263ffffffff1660e01b81526004016109da919061277e565b602060405180830381865af41580156109f7573d6000803e3d6000fd5b505050506040513d601f19601f82011682018060405250810190610a1b91906127cc565b15610a5b576040517f08c379a0000000000000000000000000000000000000000000000000000000008152600401610a5290612845565b60405180910390fd5b8282604051610a6b929190612895565b60405180910390206007604051610a829190612942565b6040518091039020604051610a9690612a67565b60405180910390207f1f7eeccc90c93b6a65fbe0be0414ed24073262ce0f988484e24f275529193e6f33604051610acd9190612281565b60405180910390a4828260079190610ae6929190611ea1565b50505050565b610af4611c67565b73ffffffffffffffffffffffffffffffffffffffff16610b12611129565b73ffffffffffffffffffffffffffffffffffffffff1614610b68576040517f08c379a0000000000000000000000000000000000000000000000000000000008152600401610b5f90612714565b60405180910390fd5b81818080601f016020809104026020016040519081016040528093929190818152602001838380828437600081840152601f19601f820116905080830192505050505050508073__StringUtils___________________________6327341c8a90916040518263ffffffff1660e01b8152600401610be6919061277e565b602060405180830381865af4158015610c03573d6000803e3d6000fd5b505050506040513d601f19601f82011682018060405250810190610c2791906127cc565b15610c67576040517f08c379a0000000000000000000000000000000000000000000000000000000008152600401610c5e90612845565b60405180910390fd5b8282604051610c77929190612895565b604051809103902060056001600580549050610c939190612aab565b81548110610ca457610ca3612adf565b5b90600052602060002001604051610cbb9190612942565b6040518091039020604051610ccf90612b5a565b60405180910390207f1f7eeccc90c93b6a65fbe0be0414ed24073262ce0f988484e24f275529193e6f33604051610d069190612281565b60405180910390a46005838390918060018154018082558091505060019003906000526020600020016000909192909192909192909192509190610d4b929190611ea1565b50505050565b60088054610d5e90612697565b80601f0160208091040260200160405190810160405280929190818152602001828054610d8a90612697565b8015610dd75780601f10610dac57610100808354040283529160200191610dd7565b820191906000526020600020905b815481529060010190602001808311610dba57829003601f168201915b505050505081565b610de7611c67565b73ffffffffffffffffffffffffffffffffffffffff16610e05611129565b73ffffffffffffffffffffffffffffffffffffffff1614610e5b576040517f08c379a0000000000000000000000000000000000000000000000000000000008152600401610e5290612714565b60405180910390fd5b610e656000611c6f565b565b60048054610e7490612697565b80601f0160208091040260200160405190810160405280929190818152602001828054610ea090612697565b8015610eed5780601f10610ec257610100808354040283529160200191610eed565b820191906000526020600020905b815481529060010190602001808311610ed057829003601f168201915b505050505081565b600080600060095411610f0e5760008091509150610f19565b600954600a54915091505b9091565b610f25611c67565b73ffffffffffffffffffffffffffffffffffffffff16610f43611129565b73ffffffffffffffffffffffffffffffffffffffff1614610f99576040517f08c379a0000000000000000000000000000000000000000000000000000000008152600401610f9090612714565b60405180910390fd5b81818080601f016020809104026020016040519081016040528093929190818152602001838380828437600081840152601f19601f820116905080830192505050505050508073__StringUtils___________________________6327341c8a90916040518263ffffffff1660e01b8152600401611017919061277e565b602060405180830381865af4158015611034573d6000803e3d6000fd5b505050506040513d601f19601f8201168201806040525081019061105891906127cc565b15611098576040517f08c379a000000000000000000000000000000000000000000000000000000000815260040161108f90612845565b60405180910390fd5b82826040516110a8929190612895565b604051809103902060036040516110bf9190612942565b60405180910390206040516110d390612bbb565b60405180910390207f1f7eeccc90c93b6a65fbe0be0414ed24073262ce0f988484e24f275529193e6f3360405161110a9190612281565b60405180910390a4828260039190611123929190611ea1565b50505050565b60008060009054906101000a900473ffffffffffffffffffffffffffffffffffffffff16905090565b600b5481565b6006805461116590612697565b80601f016020809104026020016040519081016040528092919081815260200182805461119190612697565b80156111de5780601f106111b3576101008083540402835291602001916111de565b820191906000526020600020905b8154815290600101906020018083116111c157829003601f168201915b505050505081565b60015481565b600c8060000154905081565b6007805461120590612697565b80601f016020809104026020016040519081016040528092919081815260200182805461123190612697565b801561127e5780601f106112535761010080835404028352916020019161127e565b820191906000526020600020905b81548152906001019060200180831161126157829003601f168201915b505050505081565b61128e611c67565b73ffffffffffffffffffffffffffffffffffffffff166112ac611129565b73ffffffffffffffffffffffffffffffffffffffff1614611302576040517f08c379a00000000000000000000000000000000000000000000000000000000081526004016112f990612714565b60405180910390fd5b808073__StringUtils___________________________6327341c8a90916040518263ffffffff1660e01b815260040161133c919061277e565b602060405180830381865af4158015611359573d6000803e3d6000fd5b505050506040513d601f19601f8201168201806040525081019061137d91906127cc565b156113bd576040517f08c379a00000000000000000000000000000000000000000000000000000000081526004016113b490612845565b60405180910390fd5b816040516113cb9190612c01565b6040518091039020600560016005805490506113e79190612aab565b815481106113f8576113f7612adf565b5b9060005260206000200160405161140f9190612942565b604051809103902060405161142390612c64565b60405180910390207f1f7eeccc90c93b6a65fbe0be0414ed24073262ce0f988484e24f275529193e6f3360405161145a9190612281565b60405180910390a460058290806001815401808255809150506001900390600052602060002001600090919091909150908051906020019061149d929190611f27565b505050565b6114aa611fad565b60006040518061016001604052806001548152602001600380546114cd90612697565b80601f01602080910402602001604051908101604052809291908181526020018280546114f990612697565b80156115465780601f1061151b57610100808354040283529160200191611546565b820191906000526020600020905b81548152906001019060200180831161152957829003601f168201915b505050505081526020016004805461155d90612697565b80601f016020809104026020016040519081016040528092919081815260200182805461158990612697565b80156115d65780601f106115ab576101008083540402835291602001916115d6565b820191906000526020600020905b8154815290600101906020018083116115b957829003601f168201915b50505050508152602001600780546115ed90612697565b80601f016020809104026020016040519081016040528092919081815260200182805461161990612697565b80156116665780601f1061163b57610100808354040283529160200191611666565b820191906000526020600020905b81548152906001019060200180831161164957829003601f168201915b505050505081526020016008805461167d90612697565b80601f01602080910402602001604051908101604052809291908181526020018280546116a990612697565b80156116f65780601f106116cb576101008083540402835291602001916116f6565b820191906000526020600020905b8154815290600101906020018083116116d957829003601f168201915b50505050508152602001600b548152602001611712600c611d33565b81526020016009548152602001600a54815260200161172f61198f565b81526020016000151581525090508091505090565b61174c611c67565b73ffffffffffffffffffffffffffffffffffffffff1661176a611129565b73ffffffffffffffffffffffffffffffffffffffff16146117c0576040517f08c379a00000000000000000000000000000000000000000000000000000000081526004016117b790612714565b60405180910390fd5b8060008111611804576040517f08c379a00000000000000000000000000000000000000000000000000000000081526004016117fb90612cc5565b60405180910390fd5b61180d82611d41565b60405161181a9190612c01565b604051809103902061182d600b54611d41565b60405161183a9190612c01565b604051809103902060405161184e90612d31565b60405180910390207f1f7eeccc90c93b6a65fbe0be0414ed24073262ce0f988484e24f275529193e6f336040516118859190612281565b60405180910390a481600b819055505050565b6118a0611c67565b73ffffffffffffffffffffffffffffffffffffffff166118be611129565b73ffffffffffffffffffffffffffffffffffffffff1614611914576040517f08c379a000000000000000000000000000000000000000000000000000000000815260040161190b90612714565b60405180910390fd5b600073ffffffffffffffffffffffffffffffffffffffff168173ffffffffffffffffffffffffffffffffffffffff1603611983576040517f08c379a000000000000000000000000000000000000000000000000000000000815260040161197a90612db8565b60405180910390fd5b61198c81611c6f565b50565b6060600560016005805490506119a59190612aab565b815481106119b6576119b5612adf565b5b9060005260206000200180546119cb90612697565b80601f01602080910402602001604051908101604052809291908181526020018280546119f790612697565b8015611a445780601f10611a1957610100808354040283529160200191611a44565b820191906000526020600020905b815481529060010190602001808311611a2757829003601f168201915b5050505050905090565b611a56611c67565b73ffffffffffffffffffffffffffffffffffffffff16611a74611129565b73ffffffffffffffffffffffffffffffffffffffff1614611aca576040517f08c379a0000000000000000000000000000000000000000000000000000000008152600401611ac190612714565b60405180910390fd5b81818080601f016020809104026020016040519081016040528093929190818152602001838380828437600081840152601f19601f820116905080830192505050505050508073__StringUtils___________________________6327341c8a90916040518263ffffffff1660e01b8152600401611b48919061277e565b602060405180830381865af4158015611b65573d6000803e3d6000fd5b505050506040513d601f19601f82011682018060405250810190611b8991906127cc565b15611bc9576040517f08c379a0000000000000000000000000000000000000000000000000000000008152600401611bc090612845565b60405180910390fd5b8282604051611bd9929190612895565b60405180910390206004604051611bf09190612942565b6040518091039020604051611c0490612e24565b60405180910390207f1f7eeccc90c93b6a65fbe0be0414ed24073262ce0f988484e24f275529193e6f33604051611c3b9190612281565b60405180910390a4828260049190611c54929190611ea1565b50505050565b6000816000018190555050565b600033905090565b60008060009054906101000a900473ffffffffffffffffffffffffffffffffffffffff169050816000806101000a81548173ffffffffffffffffffffffffffffffffffffffff021916908373ffffffffffffffffffffffffffffffffffffffff1602179055508173ffffffffffffffffffffffffffffffffffffffff168173ffffffffffffffffffffffffffffffffffffffff167f8be0079c531659141344cd1fd0a4f28419497f9722a3daafe3b4186f6b6457e060405160405180910390a35050565b600081600001549050919050565b606060008203611d88576040518060400160405280600181526020017f30000000000000000000000000000000000000000000000000000000000000008152509050611e9c565b600082905060005b60008214611dba578080611da390612e39565b915050600a82611db39190612eb0565b9150611d90565b60008167ffffffffffffffff811115611dd657611dd56122a1565b5b6040519080825280601f01601f191660200182016040528015611e085781602001600182028036833780820191505090505b5090505b60008514611e9557600182611e219190612aab565b9150600a85611e309190612ee1565b6030611e3c9190612f12565b60f81b818381518110611e5257611e51612adf565b5b60200101907effffffffffffffffffffffffffffffffffffffffffffffffffffffffffffff1916908160001a905350600a85611e8e9190612eb0565b9450611e0c565b8093505050505b919050565b828054611ead90612697565b90600052602060002090601f016020900481019282611ecf5760008555611f16565b82601f10611ee857803560ff1916838001178555611f16565b82800160010185558215611f16579182015b82811115611f15578235825591602001919060010190611efa565b5b509050611f239190612009565b5090565b828054611f3390612697565b90600052602060002090601f016020900481019282611f555760008555611f9c565b82601f10611f6e57805160ff1916838001178555611f9c565b82800160010185558215611f9c579182015b82811115611f9b578251825591602001919060010190611f80565b5b509050611fa99190612009565b5090565b604051806101600160405280600081526020016060815260200160608152602001606081526020016060815260200160008152602001600081526020016000815260200160008152602001606081526020016000151581525090565b5b8082111561202257600081600090555060010161200a565b5090565b600073ffffffffffffffffffffffffffffffffffffffff82169050919050565b600061205182612026565b9050919050565b61206181612046565b82525050565b600060208201905061207c6000830184612058565b92915050565b600081519050919050565b600082825260208201905092915050565b60005b838110156120bc5780820151818401526020810190506120a1565b838111156120cb576000848401525b50505050565b6000601f19601f8301169050919050565b60006120ed82612082565b6120f7818561208d565b935061210781856020860161209e565b612110816120d1565b840191505092915050565b6000602082019050818103600083015261213581846120e2565b905092915050565b6000604051905090565b600080fd5b600080fd5b600080fd5b600080fd5b600080fd5b60008083601f84011261217657612175612151565b5b8235905067ffffffffffffffff81111561219357612192612156565b5b6020830191508360018202830111156121af576121ae61215b565b5b9250929050565b600080602083850312156121cd576121cc612147565b5b600083013567ffffffffffffffff8111156121eb576121ea61214c565b5b6121f785828601612160565b92509250509250929050565b6000819050919050565b61221681612203565b82525050565b6000602082019050612231600083018461220d565b92915050565b600060408201905061224c600083018561220d565b612259602083018461220d565b9392505050565b600061226b82612026565b9050919050565b61227b81612260565b82525050565b60006020820190506122966000830184612272565b92915050565b600080fd5b7f4e487b7100000000000000000000000000000000000000000000000000000000600052604160045260246000fd5b6122d9826120d1565b810181811067ffffffffffffffff821117156122f8576122f76122a1565b5b80604052505050565b600061230b61213d565b905061231782826122d0565b919050565b600067ffffffffffffffff821115612337576123366122a1565b5b612340826120d1565b9050602081019050919050565b82818337600083830152505050565b600061236f61236a8461231c565b612301565b90508281526020810184848401111561238b5761238a61229c565b5b61239684828561234d565b509392505050565b600082601f8301126123b3576123b2612151565b5b81356123c384826020860161235c565b91505092915050565b6000602082840312156123e2576123e1612147565b5b600082013567ffffffffffffffff811115612400576123ff61214c565b5b61240c8482850161239e565b91505092915050565b61241e81612203565b82525050565b600082825260208201905092915050565b600061244082612082565b61244a8185612424565b935061245a81856020860161209e565b612463816120d1565b840191505092915050565b60008115159050919050565b6124838161246e565b82525050565b6000610160830160008301516124a26000860182612415565b50602083015184820360208601526124ba8282612435565b915050604083015184820360408601526124d48282612435565b915050606083015184820360608601526124ee8282612435565b915050608083015184820360808601526125088282612435565b91505060a083015161251d60a0860182612415565b5060c083015161253060c0860182612415565b5060e083015161254360e0860182612415565b50610100830151612558610100860182612415565b506101208301518482036101208601526125728282612435565b91505061014083015161258961014086018261247a565b508091505092915050565b600060208201905081810360008301526125ae8184612489565b905092915050565b6125bf81612203565b81146125ca57600080fd5b50565b6000813590506125dc816125b6565b92915050565b6000602082840312156125f8576125f7612147565b5b6000612606848285016125cd565b91505092915050565b61261881612260565b811461262357600080fd5b50565b6000813590506126358161260f565b92915050565b60006020828403121561265157612650612147565b5b600061265f84828501612626565b91505092915050565b7f4e487b7100000000000000000000000000000000000000000000000000000000600052602260045260246000fd5b600060028204905060018216806126af57607f821691505b6020821081036126c2576126c1612668565b5b50919050565b7f4f776e61626c653a2063616c6c6572206973206e6f7420746865206f776e6572600082015250565b60006126fe60208361208d565b9150612709826126c8565b602082019050919050565b6000602082019050818103600083015261272d816126f1565b9050919050565b600082825260208201905092915050565b600061275082612082565b61275a8185612734565b935061276a81856020860161209e565b612773816120d1565b840191505092915050565b600060208201905081810360008301526127988184612745565b905092915050565b6127a98161246e565b81146127b457600080fd5b50565b6000815190506127c6816127a0565b92915050565b6000602082840312156127e2576127e1612147565b5b60006127f0848285016127b7565b91505092915050565b7f537472696e67206d757374206e6f7420626520656d7074790000000000000000600082015250565b600061282f60188361208d565b915061283a826127f9565b602082019050919050565b6000602082019050818103600083015261285e81612822565b9050919050565b600081905092915050565b600061287c8385612865565b935061288983858461234d565b82840190509392505050565b60006128a2828486612870565b91508190509392505050565b60008190508160005260206000209050919050565b600081546128d081612697565b6128da8186612865565b945060018216600081146128f5576001811461290657612939565b60ff19831686528186019350612939565b61290f856128ae565b60005b8381101561293157815481890152600182019150602081019050612912565b838801955050505b50505092915050565b600061294e82846128c3565b915081905092915050565b7f7570646174656420636f6d70616e790000000000000000000000000000000000600082015250565b600061298f600f83612865565b915061299a82612959565b600f82019050919050565b60006129b082612982565b9150819050919050565b7f75706461746564206e65775f6d61676e65744c696e6b00000000000000000000600082015250565b60006129f0601683612865565b91506129fb826129ba565b601682019050919050565b6000612a11826129e3565b9150819050919050565b7f7570646174656420696d6755726c000000000000000000000000000000000000600082015250565b6000612a51600e83612865565b9150612a5c82612a1b565b600e82019050919050565b6000612a7282612a44565b9150819050919050565b7f4e487b7100000000000000000000000000000000000000000000000000000000600052601160045260246000fd5b6000612ab682612203565b9150612ac183612203565b925082821015612ad457612ad3612a7c565b5b828203905092915050565b7f4e487b7100000000000000000000000000000000000000000000000000000000600052603260045260246000fd5b7f757064617465642066696c657368610000000000000000000000000000000000600082015250565b6000612b44600f83612865565b9150612b4f82612b0e565b600f82019050919050565b6000612b6582612b37565b9150819050919050565b7f75706461746564206e616d650000000000000000000000000000000000000000600082015250565b6000612ba5600c83612865565b9150612bb082612b6f565b600c82019050919050565b6000612bc682612b98565b9150819050919050565b6000612bdb82612082565b612be58185612865565b9350612bf581856020860161209e565b80840191505092915050565b6000612c0d8284612bd0565b915081905092915050565b7f7570646174656420736861000000000000000000000000000000000000000000600082015250565b6000612c4e600b83612865565b9150612c5982612c18565b600b82019050919050565b6000612c6f82612c41565b9150819050919050565b7f5072696365206d7573742062652067726561746572207468616e203000000000600082015250565b6000612caf601c8361208d565b9150612cba82612c79565b602082019050919050565b60006020820190508181036000830152612cde81612ca2565b9050919050565b7f7570646174656420707269636500000000000000000000000000000000000000600082015250565b6000612d1b600d83612865565b9150612d2682612ce5565b600d82019050919050565b6000612d3c82612d0e565b9150819050919050565b7f4f776e61626c653a206e6577206f776e657220697320746865207a65726f206160008201527f6464726573730000000000000000000000000000000000000000000000000000602082015250565b6000612da260268361208d565b9150612dad82612d46565b604082019050919050565b60006020820190508181036000830152612dd181612d95565b9050919050565b7f75706461746564206465736372697074696f6e00000000000000000000000000600082015250565b6000612e0e601383612865565b9150612e1982612dd8565b601382019050919050565b6000612e2f82612e01565b9150819050919050565b6000612e4482612203565b91507fffffffffffffffffffffffffffffffffffffffffffffffffffffffffffffffff8203612e7657612e75612a7c565b5b600182019050919050565b7f4e487b7100000000000000000000000000000000000000000000000000000000600052601260045260246000fd5b6000612ebb82612203565b9150612ec683612203565b925082612ed657612ed5612e81565b5b828204905092915050565b6000612eec82612203565b9150612ef783612203565b925082612f0757612f06612e81565b5b828206905092915050565b6000612f1d82612203565b9150612f2883612203565b9250827fffffffffffffffffffffffffffffffffffffffffffffffffffffffffffffffff03821115612f5d57612f5c612a7c565b5b82820190509291505056fea264697066735822122021fa790f29fa46e71398653c90a752045b291e1aedc87c96ae6a3e5aaf29da5f64736f6c634300080e003360806040523480156200001157600080fd5b5060405162001ffd38038062001ffd8339818101604052810190620000379190620002dc565b620000576200004b620001a660201b60201c565b620001ae60201b60201c565b33600260006101000a81548173ffffffffffffffffffffffffffffffffffffffff021916908373ffffffffffffffffffffffffffffffffffffffff16021790555080600160006101000a81548173ffffffffffffffffffffffffffffffffffffffff021916908373ffffffffffffffffffffffffffffffffffffffff1602179055506000600260146101000a81548160ff0219169083151502179055503073ffffffffffffffffffffffffffffffffffffffff16600160009054906101000a900473ffffffffffffffffffffffffffffffffffffffff1673ffffffffffffffffffffffffffffffffffffffff167fb38dc5c508c5acbc701af21346d9dbc58b631681962a52c08afe86b277eb7e97600260009054906101000a900473ffffffffffffffffffffffffffffffffffffffff166040516200019791906200031f565b60405180910390a3506200033c565b600033905090565b60008060009054906101000a900473ffffffffffffffffffffffffffffffffffffffff169050816000806101000a81548173ffffffffffffffffffffffffffffffffffffffff021916908373ffffffffffffffffffffffffffffffffffffffff1602179055508173ffffffffffffffffffffffffffffffffffffffff168173ffffffffffffffffffffffffffffffffffffffff167f8be0079c531659141344cd1fd0a4f28419497f9722a3daafe3b4186f6b6457e060405160405180910390a35050565b600080fd5b600073ffffffffffffffffffffffffffffffffffffffff82169050919050565b6000620002a48262000277565b9050919050565b620002b68162000297565b8114620002c257600080fd5b50565b600081519050620002d681620002ab565b92915050565b600060208284031215620002f557620002f462000272565b5b60006200030584828501620002c5565b91505092915050565b620003198162000297565b82525050565b60006020820190506200033660008301846200030e565b92915050565b611cb1806200034c6000396000f3fe6080604052600436106100a75760003560e01c80638da5cb5b116100645780638da5cb5b146101a8578063983c0a5b146101d35780639f9f7f85146101fc578063b8c3773f14610239578063d3c65b9114610264578063f2fde38b14610280576100a7565b80630611599d146100ac57806307e5d9e5146100e9578063139334af146101125780632858594b1461013d578063715018a6146101665780638cfb33041461017d575b600080fd5b3480156100b857600080fd5b506100d360048036038101906100ce919061124f565b6102a9565b6040516100e09190611297565b60405180910390f35b3480156100f557600080fd5b50610110600480360381019061010b919061124f565b610434565b005b34801561011e57600080fd5b50610127610531565b6040516101349190611540565b60405180910390f35b34801561014957600080fd5b50610164600480360381019061015f919061124f565b61070e565b005b34801561017257600080fd5b5061017b6108e8565b005b34801561018957600080fd5b50610192610970565b60405161019f9190611540565b60405180910390f35b3480156101b457600080fd5b506101bd610b4d565b6040516101ca9190611571565b60405180910390f35b3480156101df57600080fd5b506101fa60048036038101906101f591906115b8565b610b76565b005b34801561020857600080fd5b50610223600480360381019061021e919061124f565b610c55565b6040516102309190611607565b60405180910390f35b34801561024557600080fd5b5061024e610d1a565b60405161025b9190611540565b60405180910390f35b61027e60048036038101906102799190611660565b610ef7565b005b34801561028c57600080fd5b506102a760048036038101906102a2919061124f565b610fbe565b005b60006102b36110b5565b73ffffffffffffffffffffffffffffffffffffffff166102d1610b4d565b73ffffffffffffffffffffffffffffffffffffffff1614610327576040517f08c379a000000000000000000000000000000000000000000000000000000000815260040161031e906116fd565b60405180910390fd5b60005b600380549050811015610429578273ffffffffffffffffffffffffffffffffffffffff1673__AddressUtils__________________________63685658bb90916003848154811061037e5761037d61171d565b5b9060005260206000200160009054906101000a900473ffffffffffffffffffffffffffffffffffffffff166040518363ffffffff1660e01b81526004016103c692919061175b565b602060405180830381865af41580156103e3573d6000803e3d6000fd5b505050506040513d601f19601f8201168201806040525081019061040791906117b0565b1561041657600191505061042f565b80806104219061180c565b91505061032a565b50600090505b919050565b61043c6110b5565b73ffffffffffffffffffffffffffffffffffffffff1661045a610b4d565b73ffffffffffffffffffffffffffffffffffffffff16146104b0576040517f08c379a00000000000000000000000000000000000000000000000000000000081526004016104a7906116fd565b60405180910390fd5b6001600260146101000a81548160ff0219169083151502179055506004819080600181540180825580915050600190039060005260206000200160009091909190916101000a81548173ffffffffffffffffffffffffffffffffffffffff021916908373ffffffffffffffffffffffffffffffffffffffff16021790555050565b606061053b6110b5565b73ffffffffffffffffffffffffffffffffffffffff16610559610b4d565b73ffffffffffffffffffffffffffffffffffffffff16146105af576040517f08c379a00000000000000000000000000000000000000000000000000000000081526004016105a6906116fd565b60405180910390fd5b6000600380549050905060008167ffffffffffffffff8111156105d5576105d4611854565b5b60405190808252806020026020018201604052801561060e57816020015b6105fb611181565b8152602001906001900390816105f35790505b50905060005b82811015610705576000600382815481106106325761063161171d565b5b9060005260206000200160009054906101000a900473ffffffffffffffffffffffffffffffffffffffff1690508073ffffffffffffffffffffffffffffffffffffffff1663e26799ff6040518163ffffffff1660e01b8152600401600060405180830381865afa1580156106aa573d6000803e3d6000fd5b505050506040513d6000823e3d601f19601f820116820180604052508101906106d39190611b31565b8383815181106106e6576106e561171d565b5b60200260200101819052505080806106fd9061180c565b915050610614565b50809250505090565b6107166110b5565b73ffffffffffffffffffffffffffffffffffffffff16610734610b4d565b73ffffffffffffffffffffffffffffffffffffffff161461078a576040517f08c379a0000000000000000000000000000000000000000000000000000000008152600401610781906116fd565b60405180910390fd5b600081905060008173ffffffffffffffffffffffffffffffffffffffff1663a035b1fe6040518163ffffffff1660e01b8152600401602060405180830381865afa1580156107dc573d6000803e3d6000fd5b505050506040513d601f19601f820116820180604052508101906108009190611b7a565b905060008273ffffffffffffffffffffffffffffffffffffffff166302d05d3f6040518163ffffffff1660e01b8152600401602060405180830381865afa15801561084f573d6000803e3d6000fd5b505050506040513d601f19601f820116820180604052508101906108739190611bbc565b905061087f8183610ef7565b6003849080600181540180825580915050600190039060005260206000200160009091909190916101000a81548173ffffffffffffffffffffffffffffffffffffffff021916908373ffffffffffffffffffffffffffffffffffffffff16021790555050505050565b6108f06110b5565b73ffffffffffffffffffffffffffffffffffffffff1661090e610b4d565b73ffffffffffffffffffffffffffffffffffffffff1614610964576040517f08c379a000000000000000000000000000000000000000000000000000000000815260040161095b906116fd565b60405180910390fd5b61096e60006110bd565b565b606061097a6110b5565b73ffffffffffffffffffffffffffffffffffffffff16610998610b4d565b73ffffffffffffffffffffffffffffffffffffffff16146109ee576040517f08c379a00000000000000000000000000000000000000000000000000000000081526004016109e5906116fd565b60405180910390fd5b6000600480549050905060008167ffffffffffffffff811115610a1457610a13611854565b5b604051908082528060200260200182016040528015610a4d57816020015b610a3a611181565b815260200190600190039081610a325790505b50905060005b82811015610b4457600060048281548110610a7157610a7061171d565b5b9060005260206000200160009054906101000a900473ffffffffffffffffffffffffffffffffffffffff1690508073ffffffffffffffffffffffffffffffffffffffff1663e26799ff6040518163ffffffff1660e01b8152600401600060405180830381865afa158015610ae9573d6000803e3d6000fd5b505050506040513d6000823e3d601f19601f82011682018060405250810190610b129190611b31565b838381518110610b2557610b2461171d565b5b6020026020010181905250508080610b3c9061180c565b915050610a53565b50809250505090565b60008060009054906101000a900473ffffffffffffffffffffffffffffffffffffffff16905090565b610b7e6110b5565b73ffffffffffffffffffffffffffffffffffffffff16610b9c610b4d565b73ffffffffffffffffffffffffffffffffffffffff1614610bf2576040517f08c379a0000000000000000000000000000000000000000000000000000000008152600401610be9906116fd565b60405180910390fd5b60018110158015610c04575060058111155b610c0d57600080fd5b80600560008473ffffffffffffffffffffffffffffffffffffffff1673ffffffffffffffffffffffffffffffffffffffff168152602001908152602001600020819055505050565b6000610c5f6110b5565b73ffffffffffffffffffffffffffffffffffffffff16610c7d610b4d565b73ffffffffffffffffffffffffffffffffffffffff1614610cd3576040517f08c379a0000000000000000000000000000000000000000000000000000000008152600401610cca906116fd565b60405180910390fd5b600560008373ffffffffffffffffffffffffffffffffffffffff1673ffffffffffffffffffffffffffffffffffffffff168152602001908152602001600020549050919050565b6060610d246110b5565b73ffffffffffffffffffffffffffffffffffffffff16610d42610b4d565b73ffffffffffffffffffffffffffffffffffffffff1614610d98576040517f08c379a0000000000000000000000000000000000000000000000000000000008152600401610d8f906116fd565b60405180910390fd5b6000600380549050905060008167ffffffffffffffff811115610dbe57610dbd611854565b5b604051908082528060200260200182016040528015610df757816020015b610de4611181565b815260200190600190039081610ddc5790505b50905060005b82811015610eee57600060038281548110610e1b57610e1a61171d565b5b9060005260206000200160009054906101000a900473ffffffffffffffffffffffffffffffffffffffff1690508073ffffffffffffffffffffffffffffffffffffffff1663e26799ff6040518163ffffffff1660e01b8152600401600060405180830381865afa158015610e93573d6000803e3d6000fd5b505050506040513d6000823e3d601f19601f82011682018060405250810190610ebc9190611b31565b838381518110610ecf57610ece61171d565b5b6020026020010181905250508080610ee69061180c565b915050610dfd565b50809250505090565b610eff6110b5565b73ffffffffffffffffffffffffffffffffffffffff16610f1d610b4d565b73ffffffffffffffffffffffffffffffffffffffff1614610f73576040517f08c379a0000000000000000000000000000000000000000000000000000000008152600401610f6a906116fd565b60405180910390fd5b8173ffffffffffffffffffffffffffffffffffffffff166108fc829081150290604051600060405180830381858888f19350505050158015610fb9573d6000803e3d6000fd5b505050565b610fc66110b5565b73ffffffffffffffffffffffffffffffffffffffff16610fe4610b4d565b73ffffffffffffffffffffffffffffffffffffffff161461103a576040517f08c379a0000000000000000000000000000000000000000000000000000000008152600401611031906116fd565b60405180910390fd5b600073ffffffffffffffffffffffffffffffffffffffff168173ffffffffffffffffffffffffffffffffffffffff16036110a9576040517f08c379a00000000000000000000000000000000000000000000000000000000081526004016110a090611c5b565b60405180910390fd5b6110b2816110bd565b50565b600033905090565b60008060009054906101000a900473ffffffffffffffffffffffffffffffffffffffff169050816000806101000a81548173ffffffffffffffffffffffffffffffffffffffff021916908373ffffffffffffffffffffffffffffffffffffffff1602179055508173ffffffffffffffffffffffffffffffffffffffff168173ffffffffffffffffffffffffffffffffffffffff167f8be0079c531659141344cd1fd0a4f28419497f9722a3daafe3b4186f6b6457e060405160405180910390a35050565b604051806101600160405280600081526020016060815260200160608152602001606081526020016060815260200160008152602001600081526020016000815260200160008152602001606081526020016000151581525090565b6000604051905090565b600080fd5b600080fd5b600073ffffffffffffffffffffffffffffffffffffffff82169050919050565b600061121c826111f1565b9050919050565b61122c81611211565b811461123757600080fd5b50565b60008135905061124981611223565b92915050565b600060208284031215611265576112646111e7565b5b60006112738482850161123a565b91505092915050565b60008115159050919050565b6112918161127c565b82525050565b60006020820190506112ac6000830184611288565b92915050565b600081519050919050565b600082825260208201905092915050565b6000819050602082019050919050565b6000819050919050565b6112f1816112de565b82525050565b600081519050919050565b600082825260208201905092915050565b60005b83811015611331578082015181840152602081019050611316565b83811115611340576000848401525b50505050565b6000601f19601f8301169050919050565b6000611362826112f7565b61136c8185611302565b935061137c818560208601611313565b61138581611346565b840191505092915050565b6113998161127c565b82525050565b6000610160830160008301516113b860008601826112e8565b50602083015184820360208601526113d08282611357565b915050604083015184820360408601526113ea8282611357565b915050606083015184820360608601526114048282611357565b9150506080830151848203608086015261141e8282611357565b91505060a083015161143360a08601826112e8565b5060c083015161144660c08601826112e8565b5060e083015161145960e08601826112e8565b5061010083015161146e6101008601826112e8565b506101208301518482036101208601526114888282611357565b91505061014083015161149f610140860182611390565b508091505092915050565b60006114b6838361139f565b905092915050565b6000602082019050919050565b60006114d6826112b2565b6114e081856112bd565b9350836020820285016114f2856112ce565b8060005b8581101561152e578484038952815161150f85826114aa565b945061151a836114be565b925060208a019950506001810190506114f6565b50829750879550505050505092915050565b6000602082019050818103600083015261155a81846114cb565b905092915050565b61156b81611211565b82525050565b60006020820190506115866000830184611562565b92915050565b611595816112de565b81146115a057600080fd5b50565b6000813590506115b28161158c565b92915050565b600080604083850312156115cf576115ce6111e7565b5b60006115dd8582860161123a565b92505060206115ee858286016115a3565b9150509250929050565b611601816112de565b82525050565b600060208201905061161c60008301846115f8565b92915050565b600061162d826111f1565b9050919050565b61163d81611622565b811461164857600080fd5b50565b60008135905061165a81611634565b92915050565b60008060408385031215611677576116766111e7565b5b60006116858582860161164b565b9250506020611696858286016115a3565b9150509250929050565b600082825260208201905092915050565b7f4f776e61626c653a2063616c6c6572206973206e6f7420746865206f776e6572600082015250565b60006116e76020836116a0565b91506116f2826116b1565b602082019050919050565b60006020820190508181036000830152611716816116da565b9050919050565b7f4e487b7100000000000000000000000000000000000000000000000000000000600052603260045260246000fd5b61175581611211565b82525050565b6000604082019050611770600083018561174c565b61177d602083018461174c565b9392505050565b61178d8161127c565b811461179857600080fd5b50565b6000815190506117aa81611784565b92915050565b6000602082840312156117c6576117c56111e7565b5b60006117d48482850161179b565b91505092915050565b7f4e487b7100000000000000000000000000000000000000000000000000000000600052601160045260246000fd5b6000611817826112de565b91507fffffffffffffffffffffffffffffffffffffffffffffffffffffffffffffffff8203611849576118486117dd565b5b600182019050919050565b7f4e487b7100000000000000000000000000000000000000000000000000000000600052604160045260246000fd5b600080fd5b61189182611346565b810181811067ffffffffffffffff821117156118b0576118af611854565b5b80604052505050565b60006118c36111dd565b90506118cf8282611888565b919050565b600080fd5b6000815190506118e88161158c565b92915050565b600080fd5b600080fd5b600067ffffffffffffffff82111561191357611912611854565b5b61191c82611346565b9050602081019050919050565b600061193c611937846118f8565b6118b9565b905082815260208101848484011115611958576119576118f3565b5b611963848285611313565b509392505050565b600082601f8301126119805761197f6118ee565b5b8151611990848260208601611929565b91505092915050565b600061016082840312156119b0576119af611883565b5b6119bb6101606118b9565b905060006119cb848285016118d9565b600083015250602082015167ffffffffffffffff8111156119ef576119ee6118d4565b5b6119fb8482850161196b565b602083015250604082015167ffffffffffffffff811115611a1f57611a1e6118d4565b5b611a2b8482850161196b565b604083015250606082015167ffffffffffffffff811115611a4f57611a4e6118d4565b5b611a5b8482850161196b565b606083015250608082015167ffffffffffffffff811115611a7f57611a7e6118d4565b5b611a8b8482850161196b565b60808301525060a0611a9f848285016118d9565b60a08301525060c0611ab3848285016118d9565b60c08301525060e0611ac7848285016118d9565b60e083015250610100611adc848285016118d9565b6101008301525061012082015167ffffffffffffffff811115611b0257611b016118d4565b5b611b0e8482850161196b565b61012083015250610140611b248482850161179b565b6101408301525092915050565b600060208284031215611b4757611b466111e7565b5b600082015167ffffffffffffffff811115611b6557611b646111ec565b5b611b7184828501611999565b91505092915050565b600060208284031215611b9057611b8f6111e7565b5b6000611b9e848285016118d9565b91505092915050565b600081519050611bb681611634565b92915050565b600060208284031215611bd257611bd16111e7565b5b6000611be084828501611ba7565b91505092915050565b7f4f776e61626c653a206e6577206f776e657220697320746865207a65726f206160008201527f6464726573730000000000000000000000000000000000000000000000000000602082015250565b6000611c456026836116a0565b9150611c5082611be9565b604082019050919050565b60006020820190508181036000830152611c7481611c38565b905091905056fea264697066735822122031a8307e088c529a5a4b44c627df0c43c1c8b45828027a7cf2825705ca93128464736f6c634300080e0033a2646970667358221220943ce9365cd84ec7415dbe13a9eb69e2d9e81d4198318fb0b8e11277e0f55a4464736f6c634300080e0033",
  "immutableReferences": {},
  "source": "//SPDX-License-Identifier: UNLICENSED\r\npragma solidity ^0.8.0;\r\nimport {User} from './user.sol';\r\nimport {App} from './app.sol';\r\nimport {Constants, Events, StringUtils, AddressUtils} from './dappstore_utils.sol';\r\nimport {AppInfoLibrary} from './AppInfoLibrary.sol';\r\n\r\nimport \"@openzeppelin/contracts/utils/structs/EnumerableMap.sol\";\r\nimport \"@openzeppelin/contracts/utils/Counters.sol\";\r\nimport \"@openzeppelin/contracts/utils/Strings.sol\";\r\nimport \"@openzeppelin/contracts/utils/Address.sol\"; //todo: Use for payment\r\n\r\ncontract dAppstore {\r\n    using StringUtils for string;\r\n    using AddressUtils for address;\r\n    using AddressUtils for address payable;\r\n    \r\n    using Strings for uint;\r\n    // using Address for address payable;\r\n    using EnumerableMap for EnumerableMap.UintToAddressMap;\r\n    using Counters for Counters.Counter;\r\n    string constant public name = \"dAppstore\";\r\n\r\n    // app_id => app_contract\r\n    EnumerableMap.UintToAddressMap private apps;\r\n    // user_address => user_contract\r\n    mapping(address => address) users;\r\n    Counters.Counter users_num;\r\n\r\n    constructor() {\r\n        users_num.reset();\r\n    }\r\n\r\n    //Validators\r\n    modifier userExists(address _user_address){\r\n        require(!_user_address.isAddressZero(), \"Invalid addr\");\r\n        require(!users[_user_address].isAddressZero(), 'User not found');\r\n        _;\r\n    }\r\n\r\n    modifier userDoesNotExists(address _user_address){\r\n        require(!_user_address.isAddressZero(), \"Invalid addr\");\r\n        require(users[_user_address].isAddressZero(), 'User not found');\r\n        _;\r\n    }\r\n\r\n    modifier appAddressExists(address _app){\r\n        uint _app_id = App(_app).id();\r\n        require(apps.contains(_app_id), 'App not found');\r\n        require(!apps.get(_app_id).isAddressZero(), 'App exists');\r\n        _;\r\n    }\r\n\r\n    modifier appExists(uint _app_id){\r\n        require(apps.contains(_app_id), 'App not found');\r\n        require(!apps.get(_app_id).isAddressZero(), 'App doens\\'t exists');\r\n        _;\r\n    }\r\n\r\n    modifier onlyCreator(uint _app_id, address _app_creator){\r\n        require(!_app_creator.isAddressZero(), 'Invalid addr');\r\n        require(_app_creator == App(apps.get(_app_id)).creator(), 'not creator addr');\r\n        _;\r\n    }\r\n\r\n    modifier validIndex(uint _index, uint _length){\r\n        require(apps.contains(_index), 'Invalid index');\r\n        require(_length > 0, 'Invalid length');\r\n        _;\r\n    }\r\n\r\n    function createNewUser(address user_address) private {\r\n        users_num.increment();\r\n        users[user_address] = address(new User(payable(user_address)));\r\n    }\r\n\r\n    function createNewApp(\r\n        address creator,\r\n        string memory _name,\r\n        string memory _description,\r\n        string memory _magnetLink,\r\n        string memory _imgUrl,\r\n        string memory _company,\r\n        uint _price,\r\n        string memory _fileSha256\r\n    ) public{\r\n        if (users[creator].isAddressZero()){\r\n            createNewUser(creator);\r\n        }\r\n        uint apps_num = apps.length();\r\n        App new_app = new App(\r\n            apps_num, \r\n            creator, \r\n            _name, \r\n            _description, \r\n            _magnetLink, \r\n            _imgUrl, \r\n            _company, \r\n            _price, \r\n            _fileSha256\r\n        );\r\n        apps.set(apps_num, address(new_app));\r\n    }\r\n\r\n    function updateApp(\r\n        uint app_id,\r\n        string memory _name,\r\n        string memory _description,\r\n        string memory _magnetLink,\r\n        string memory _imgUrl,\r\n        string memory _company,\r\n        uint _price,\r\n        string memory _fileSha256\r\n    ) external userExists(msg.sender) appExists(app_id) onlyCreator(app_id, msg.sender) {\r\n        App app = App(apps.get(app_id));\r\n        if (!_name.isEmpty()){\r\n            app.updateAppName(_name);\r\n        }\r\n        if (!_description.isEmpty()){\r\n            app.updateAppDescription(_description);\r\n        }\r\n        if (!_magnetLink.isEmpty()){\r\n            app.updateAppMagnetLink(_magnetLink);\r\n        }\r\n        if (!_imgUrl.isEmpty()){\r\n            app.updateAppImgUrl(_imgUrl);\r\n        }\r\n        if (!_company.isEmpty()){\r\n            app.updateAppCompany(_company);\r\n        }\r\n        if (_price > 0){\r\n            app.updateAppPrice(_price);\r\n        }\r\n        if (!_fileSha256.isEmpty()){\r\n            app.updateAppVersion(_fileSha256);\r\n        }\r\n    }\r\n\r\n    function purchaseApp(address app_address) external userExists(msg.sender) appAddressExists(app_address){ //todo: check this validate\r\n        address user = msg.sender;\r\n        if (users[user].isAddressZero()){\r\n            createNewUser(user);\r\n        }\r\n        Address.sendValue(App(app_address).creator(), App(app_address).price());\r\n        User(user).purchaseApp(app_address);\r\n    }\r\n\r\n    // function rateApp(uint _app_id, uint _rating) external{\r\n    //     //todo: inc num of ratings on app\r\n    //     App curr_app = App(apps.get(_app_id));\r\n    //     uint curr_rating = curr_app.num_ratings;\r\n    //     if (curr_rating == 0){\r\n    //         curr_app.rateApp(0, 0, _rating);\r\n    //     }\r\n    //     else if (curr_rating > Constants.RATING_THRESHHOLD){\r\n    //         (uint curr_rating, uint curr_rating_modulu) = curr_app.getAppRating();\r\n    //         curr_app.rateApp(curr_rating, curr_rating_modulu, _rating);\r\n    //     }\r\n    // }\r\n\r\n    // function changeBuckets(App app, uint from, uint to) pure private returns(bool){\r\n    //     // require(true, 'not implements change_buckets');\r\n    //     return false;\r\n    // }\r\n\r\n    // //todo: return app info via struct instead of addresses\r\n    function getAppBatch(uint start, uint len) view external validIndex(start, len) returns( AppInfoLibrary.AppInfo[] memory){\r\n        AppInfoLibrary.AppInfo[] memory batch = new AppInfoLibrary.AppInfo[](len);\r\n        for (uint i = 0; i < len; i++){\r\n            batch[i] = App(apps.get((start + i) % apps.length())).getAppInfo();\r\n        }\r\n        return batch;\r\n    }\r\n\r\n    // Not registered user is going to see empty list\r\n    function getPurchasedAppsInfo() private returns(AppInfoLibrary.AppInfo[] memory){\r\n        if (users[msg.sender].isAddressZero()){\r\n            createNewUser(msg.sender);\r\n        }\r\n        AppInfoLibrary.AppInfo[] memory purchased_apps_info = User(users[msg.sender]).getPurchasedApps();\r\n        return purchased_apps_info;\r\n    }\r\n\r\n    // Not registered user is going to see empty list\r\n    function getCreatedAppsInfo() private returns(AppInfoLibrary.AppInfo[] memory){\r\n        if (users[msg.sender].isAddressZero()){\r\n            createNewUser(msg.sender);\r\n        }\r\n        AppInfoLibrary.AppInfo[] memory created_apps_info = User(users[msg.sender]).getCreatedApps();\r\n        return created_apps_info;\r\n    }\r\n\r\n    function getRatedAppsInfo() private returns(AppInfoLibrary.AppInfo[] memory){\r\n        if (users[msg.sender].isAddressZero()){\r\n            createNewUser(msg.sender);\r\n        }\r\n        AppInfoLibrary.AppInfo[] memory rated_apps_info = User(users[msg.sender]).getRatedApps();\r\n        return rated_apps_info;\r\n    }\r\n\r\n    //todo: remove from here to test file\r\n    function generateDemoApps(uint number_of_apps) public{\r\n        uint existing_apps = apps.length();\r\n        for (uint i = existing_apps; i < existing_apps + number_of_apps; i++){\r\n            string memory app_idx = i.toString();\r\n                createNewApp(\r\n                msg.sender,\r\n                app_idx.prepend('name'),\r\n                app_idx.prepend('description'),\r\n                app_idx.prepend('link'),\r\n                app_idx.prepend('img'),\r\n                app_idx.prepend('company'),\r\n                8,\r\n                app_idx.prepend('fileSha')\r\n            );\r\n        }       \r\n    }\r\n}\r\n",
  "sourcePath": "C:\\Users\\User\\Documents\\GitHub\\SmartContracts\\contracts\\dAppstore.sol",
  "compiler": {
    "name": "solc",
    "version": "0.8.14+commit.80d49f37.Emscripten.clang"
  },
  "schemaVersion": "3.4.7",
  "updatedAt": "2022-06-10T12:53:49.101Z",
  "devdoc": {
    "kind": "dev",
    "methods": {},
    "version": 1
  },
  "userdoc": {
    "kind": "user",
    "methods": {},
    "version": 1
  }
}