{
  "contractName": "Migrations",
  "abi": [
    {
      "inputs": [],
      "name": "last_completed_migration",
      "outputs": [
        {
          "internalType": "uint256",
          "name": "",
          "type": "uint256"
        }
      ],
      "stateMutability": "view",
      "type": "function"
    },
    {
      "inputs": [],
      "name": "owner",
      "outputs": [
        {
          "internalType": "address",
          "name": "",
          "type": "address"
        }
      ],
      "stateMutability": "view",
      "type": "function"
    },
    {
      "inputs": [],
      "name": "Constructor",
      "outputs": [],
      "stateMutability": "nonpayable",
      "type": "function"
    },
    {
      "inputs": [
        {
          "internalType": "uint256",
          "name": "completed",
          "type": "uint256"
        }
      ],
      "name": "setCompleted",
      "outputs": [],
      "stateMutability": "nonpayable",
      "type": "function"
    },
    {
      "inputs": [
        {
          "internalType": "address",
          "name": "new_address",
          "type": "address"
        }
      ],
      "name": "upgrade",
      "outputs": [],
      "stateMutability": "nonpayable",
      "type": "function"
    }
  ],
  "bytecode": "0x608060405234801561001057600080fd5b506101fa806100206000396000f3fe608060405234801561001057600080fd5b506004361061005a5760e060020a60003504630900f010811461005f578063445df0ac146100745780638a3c44a5146100905780638da5cb5b146100a7578063fdacd576146100d2575b600080fd5b61007261006d36600461017b565b6100e5565b005b61007d60015481565b6040519081526020015b60405180910390f35b61007260008054600160a060020a03191633179055565b6000546100ba90600160a060020a031681565b604051600160a060020a039091168152602001610087565b6100726100e03660046101ab565b610164565b600054600160a060020a031633036101615760015460405160e160020a637ed66abb0281528291600160a060020a0383169163fdacd5769161012d9160040190815260200190565b600060405180830381600087803b15801561014757600080fd5b505af115801561015b573d6000803e3d6000fd5b50505050505b50565b600054600160a060020a0316330361016157600155565b60006020828403121561018d57600080fd5b8135600160a060020a03811681146101a457600080fd5b9392505050565b6000602082840312156101bd57600080fd5b503591905056fea2646970667358221220ee2f401b085d38043da9b1f3c83949893612c24f42a1c577dcbdbd139c3e21ed64736f6c634300080f0033",
  "immutableReferences": {},
  "source": "// SPDX-License-Identifier: MIT\r\npragma solidity ^0.8.15;\r\n\r\ncontract Migrations {\r\n  address public owner;\r\n\r\n  // A function with the signature `last_completed_migration()`, returning a uint, is required.\r\n  uint public last_completed_migration;\r\n\r\n  modifier restricted() {\r\n    if (msg.sender == owner) _;\r\n  }\r\n\r\n  function Constructor() public {\r\n    owner = msg.sender;\r\n  }\r\n\r\n  // A function with the signature `setCompleted(uint)` is required.\r\n  function setCompleted(uint completed) public restricted {\r\n    last_completed_migration = completed;\r\n  }\r\n\r\n  function upgrade(address new_address) public restricted {\r\n    Migrations upgraded = Migrations(new_address);\r\n    upgraded.setCompleted(last_completed_migration);\r\n  }\r\n}",
  "sourcePath": "C:\\Users\\User\\Documents\\GitHub\\SmartContracts\\contracts\\Migrations.sol",
  "compiler": {
    "name": "solc",
    "version": "0.8.15+commit.e14f2714.Emscripten.clang"
  },
  "schemaVersion": "3.4.7",
  "updatedAt": "2022-06-22T09:48:36.552Z",
  "devdoc": {
    "kind": "dev",
    "methods": {},
    "version": 1
  },
  "userdoc": {
    "kind": "user",
    "methods": {},
    "version": 1
  }
}