{
  "contractName": "StringUtils",
  "abi": [
    {
      "inputs": [
        {
          "internalType": "string",
          "name": "_string",
          "type": "string"
        }
      ],
      "name": "isEmpty",
      "outputs": [
        {
          "internalType": "bool",
          "name": "",
          "type": "bool"
        }
      ],
      "stateMutability": "pure",
      "type": "function"
    },
    {
      "inputs": [
        {
          "internalType": "string",
          "name": "s1",
          "type": "string"
        },
        {
          "internalType": "string",
          "name": "s2",
          "type": "string"
        }
      ],
      "name": "isEqual",
      "outputs": [
        {
          "internalType": "bool",
          "name": "",
          "type": "bool"
        }
      ],
      "stateMutability": "pure",
      "type": "function"
    },
    {
      "inputs": [
        {
          "internalType": "string",
          "name": "s1",
          "type": "string"
        },
        {
          "internalType": "string",
          "name": "s2",
          "type": "string"
        }
      ],
      "name": "append",
      "outputs": [
        {
          "internalType": "string",
          "name": "",
          "type": "string"
        }
      ],
      "stateMutability": "pure",
      "type": "function"
    },
    {
      "inputs": [
        {
          "internalType": "string",
          "name": "s1",
          "type": "string"
        },
        {
          "internalType": "string",
          "name": "s2",
          "type": "string"
        }
      ],
      "name": "prepend",
      "outputs": [
        {
          "internalType": "string",
          "name": "",
          "type": "string"
        }
      ],
      "stateMutability": "pure",
      "type": "function"
    }
  ],
  "bytecode": "0x6103b3610053600b82828239805160001a607314610046577f4e487b7100000000000000000000000000000000000000000000000000000000600052600060045260246000fd5b30600052607381538281f3fe73000000000000000000000000000000000000000030146080604052600436106100595760e060020a600035046327341c8a811461005e578063465c410514610086578063591c515f14610099578063605b5c5f146100b9575b600080fd5b61007161006c366004610190565b511590565b60405190151581526020015b60405180910390f35b61007161009436600461028a565b6100cc565b6100ac6100a736600461028a565b61012b565b60405161007d91906102f6565b6100ac6100c736600461028a565b61015d565b600082826040516020016100e192919061034b565b60405160208183030381529060405280519060200120858560405160200161010a92919061034b565b60405160208183030381529060405280519060200120149050949350505050565b606084848484604051602001610144949392919061035b565b6040516020818303038152906040529050949350505050565b606082828686604051602001610144949392919061035b565b60e060020a634e487b710260009081526041600452602490fd5b6000602082840312156101a257600080fd5b813567ffffffffffffffff808211156101ba57600080fd5b818401915084601f8301126101ce57600080fd5b8135818111156101e0576101e0610176565b604051601f8201601f19908116603f0116810190838211818310171561020857610208610176565b8160405282815287602084870101111561022157600080fd5b826020860160208301376000928101602001929092525095945050505050565b60008083601f84011261025357600080fd5b50813567ffffffffffffffff81111561026b57600080fd5b60208301915083602082850101111561028357600080fd5b9250929050565b600080600080604085870312156102a057600080fd5b843567ffffffffffffffff808211156102b857600080fd5b6102c488838901610241565b909650945060208701359150808211156102dd57600080fd5b506102ea87828801610241565b95989497509550505050565b600060208083528351808285015260005b8181101561032357858101830151858201604001528201610307565b81811115610335576000604083870101525b50601f01601f1916929092016040019392505050565b8183823760009101908152919050565b838582376000848201600081528385823760009301928352509094935050505056fea2646970667358221220bdf436b06d2c1339db54cdc61669cc09a0badd15c6d004868d31b91008d9e07a64736f6c634300080e0033",
  "immutableReferences": {},
  "source": "//SPDX-License-Identifier: UNLICENSED\r\npragma solidity ^0.8.14;\r\n\r\nimport {AppInfoLibrary} from './AppInfoLibrary.sol';\r\n\r\nlibrary Constants {\r\n    string constant DEFAULT_EMPTY = '';\r\n    uint constant UNRATED = 0;\r\n    string constant DEFAULT_APP_IMAGE = 'https://external-content.duckduckgo.com/iu/?u=https%3A%2F%2Fi.pinimg.com%2Foriginals%2F20%2F0e%2Ff8%2F200ef82b3182ff75bf0b2de5496e61cf.jpg&f=1&nofb=1';\r\n    string constant DEFAULT_APP_MAGNET_LINK = 'magnet:?xt=urn:btih:08ada5a7a6183aae1e09d831df6748d566095a10&dn=Sintel&tr=udp%3A%2F%2Fexplodie.org%3A6969&tr=udp%3A%2F%2Ftracker.coppersurfer.tk%3A6969&tr=udp%3A%2F%2Ftracker.empire-js.us%3A1337&tr=udp%3A%2F%2Ftracker.leechers-paradise.org%3A6969&tr=udp%3A%2F%2Ftracker.opentrackr.org%3A1337&tr=wss%3A%2F%2Ftracker.btorrent.xyz&tr=wss%3A%2F%2Ftracker.fastcast.nz&tr=wss%3A%2F%2Ftracker.openwebtorrent.com&ws=https%3A%2F%2Fwebtorrent.io%2Ftorrents%2F&xs=https%3A%2F%2Fwebtorrent.io%2Ftorrents%2Fsintel.torrent';\r\n    uint constant RATING_THRESHHOLD = 0;\r\n}\r\n\r\nlibrary Events {\r\n    event AppCreated(\r\n        uint indexed id,\r\n        address payable indexed creator,\r\n        string name,\r\n        string company,\r\n        string category,\r\n        uint price, \r\n        string description\r\n        //maybe more fields\r\n    );\r\n\r\n    event UserCreated(\r\n        address payable indexed user_address,\r\n        address indexed user_contract\r\n    );\r\n\r\n    event UserPurchasedApp(\r\n        address payable indexed buyer,\r\n        address indexed app_id\r\n    );\r\n\r\n    event UpdatedContent(\r\n        uint indexed app_id,\r\n        string indexed content_type,\r\n        string indexed new_content,\r\n        string previous_content,\r\n        address sender\r\n    );\r\n\r\n    event AppRated(\r\n        uint indexed app_id,\r\n        uint rating_int,\r\n        uint rating_modulu,\r\n        uint num_ratings\r\n    );\r\n\r\n    event UpdatedApp(\r\n        uint indexed app_id\r\n    );\r\n\r\n    event AppInfo(\r\n        AppInfoLibrary.AppInfo\r\n    );\r\n\r\n}\r\n\r\nlibrary StringUtils {\r\n    function isEmpty(string memory _string) pure external returns(bool){\r\n        return bytes(_string).length == 0;\r\n    }\r\n\r\n    function isEqual (string calldata s1, string calldata s2) pure external returns(bool){\r\n        return keccak256(abi.encodePacked(s1)) == keccak256(abi.encodePacked(s2));\r\n    }\r\n\r\n    function append(string calldata s1, string calldata s2) pure external returns(string memory){\r\n        return string.concat(s1, s2);\r\n    }\r\n\r\n    function prepend(string calldata s1, string calldata s2) pure external returns(string memory){\r\n        return string.concat(s2, s1);\r\n    }\r\n}\r\n\r\nlibrary AddressUtils{\r\n    function isAddressZero(address _address) pure external returns(bool){\r\n        return _address == address(0);\r\n    }\r\n    function isEqual(address _address1, address _address2) pure external returns(bool){\r\n        return _address1 == _address2;\r\n    }\r\n}\r\n\r\nlibrary AddressPayableUtils{\r\n    function isAddressZero(address payable _address) pure external returns(bool){\r\n        return _address == payable(address(0));\r\n    }\r\n    function isEqual(address payable _address1, address payable _address2) pure external returns(bool){\r\n        return _address1 == _address2;\r\n    }\r\n}\r\n\r\n\r\n\r\n",
  "sourcePath": "C:\\Users\\User\\Documents\\GitHub\\Backend\\SmartContracts\\contracts\\dappstore_utils.sol",
  "compiler": {
    "name": "solc",
    "version": "0.8.14+commit.80d49f37.Emscripten.clang"
  },
  "schemaVersion": "3.4.8",
  "updatedAt": "2022-07-25T17:48:13.967Z",
  "devdoc": {
    "kind": "dev",
    "methods": {},
    "version": 1
  },
  "userdoc": {
    "kind": "user",
    "methods": {},
    "version": 1
  }
}