{
  "contractName": "StringUtils",
  "abi": [
    {
      "inputs": [
        {
          "internalType": "string",
          "name": "_string",
          "type": "string"
        }
      ],
      "name": "isEmpty",
      "outputs": [
        {
          "internalType": "bool",
          "name": "",
          "type": "bool"
        }
      ],
      "stateMutability": "pure",
      "type": "function"
    },
    {
      "inputs": [
        {
          "internalType": "string",
          "name": "s1",
          "type": "string"
        },
        {
          "internalType": "string",
          "name": "s2",
          "type": "string"
        }
      ],
      "name": "isEqual",
      "outputs": [
        {
          "internalType": "bool",
          "name": "",
          "type": "bool"
        }
      ],
      "stateMutability": "pure",
      "type": "function"
    },
    {
      "inputs": [
        {
          "internalType": "string",
          "name": "s1",
          "type": "string"
        },
        {
          "internalType": "string",
          "name": "s2",
          "type": "string"
        }
      ],
      "name": "append",
      "outputs": [
        {
          "internalType": "string",
          "name": "",
          "type": "string"
        }
      ],
      "stateMutability": "pure",
      "type": "function"
    },
    {
      "inputs": [
        {
          "internalType": "string",
          "name": "s1",
          "type": "string"
        },
        {
          "internalType": "string",
          "name": "s2",
          "type": "string"
        }
      ],
      "name": "prepend",
      "outputs": [
        {
          "internalType": "string",
          "name": "",
          "type": "string"
        }
      ],
      "stateMutability": "pure",
      "type": "function"
    }
  ],
  "bytecode": "0x6103b3610053600b82828239805160001a607314610046577f4e487b7100000000000000000000000000000000000000000000000000000000600052600060045260246000fd5b30600052607381538281f3fe73000000000000000000000000000000000000000030146080604052600436106100595760e060020a600035046327341c8a811461005e578063465c410514610086578063591c515f14610099578063605b5c5f146100b9575b600080fd5b61007161006c366004610190565b511590565b60405190151581526020015b60405180910390f35b61007161009436600461028a565b6100cc565b6100ac6100a736600461028a565b61012b565b60405161007d91906102f6565b6100ac6100c736600461028a565b61015d565b600082826040516020016100e192919061034b565b60405160208183030381529060405280519060200120858560405160200161010a92919061034b565b60405160208183030381529060405280519060200120149050949350505050565b606084848484604051602001610144949392919061035b565b6040516020818303038152906040529050949350505050565b606082828686604051602001610144949392919061035b565b60e060020a634e487b710260009081526041600452602490fd5b6000602082840312156101a257600080fd5b813567ffffffffffffffff808211156101ba57600080fd5b818401915084601f8301126101ce57600080fd5b8135818111156101e0576101e0610176565b604051601f8201601f19908116603f0116810190838211818310171561020857610208610176565b8160405282815287602084870101111561022157600080fd5b826020860160208301376000928101602001929092525095945050505050565b60008083601f84011261025357600080fd5b50813567ffffffffffffffff81111561026b57600080fd5b60208301915083602082850101111561028357600080fd5b9250929050565b600080600080604085870312156102a057600080fd5b843567ffffffffffffffff808211156102b857600080fd5b6102c488838901610241565b909650945060208701359150808211156102dd57600080fd5b506102ea87828801610241565b95989497509550505050565b600060208083528351808285015260005b8181101561032357858101830151858201604001528201610307565b81811115610335576000604083870101525b50601f01601f1916929092016040019392505050565b8183823760009101908152919050565b838582376000848201600081528385823760009301928352509094935050505056fea2646970667358221220056a2ff0c1bf6ec4b6d72fbb36bd9835b6fc21663eef5d476b4e202babdf98aa64736f6c634300080f0033",
  "immutableReferences": {},
  "source": "\r\n\r\n//SPDX-License-Identifier: UNLICENSED\r\npragma solidity ^0.8.15;\r\n\r\nlibrary StringUtils {\r\n    function isEmpty(string memory _string) pure external returns(bool){\r\n        return bytes(_string).length == 0;\r\n    }\r\n\r\n    function isEqual (string calldata s1, string calldata s2) pure external returns(bool){\r\n        return keccak256(abi.encodePacked(s1)) == keccak256(abi.encodePacked(s2));\r\n    }\r\n\r\n    function append(string calldata s1, string calldata s2) pure external returns(string memory){\r\n        return string.concat(s1, s2);\r\n    }\r\n\r\n    function prepend(string calldata s1, string calldata s2) pure external returns(string memory){\r\n        return string.concat(s2, s1);\r\n    }\r\n}",
  "sourcePath": "C:\\Users\\User\\Documents\\GitHub\\Backend\\SmartContracts\\contracts\\Utils\\StringUtils.sol",
  "compiler": {
    "name": "solc",
    "version": "0.8.15+commit.e14f2714.Emscripten.clang"
  },
  "schemaVersion": "3.4.8",
  "updatedAt": "2022-07-08T16:55:59.422Z",
  "devdoc": {
    "kind": "dev",
    "methods": {},
    "version": 1
  },
  "userdoc": {
    "kind": "user",
    "methods": {},
    "version": 1
  }
}