{
  "contractName": "StringUtils",
  "abi": [
    {
      "inputs": [
        {
          "internalType": "string",
          "name": "_str",
          "type": "string"
        }
      ],
      "name": "len",
      "outputs": [
        {
          "internalType": "uint256",
          "name": "",
          "type": "uint256"
        }
      ],
      "stateMutability": "pure",
      "type": "function"
    },
    {
      "inputs": [
        {
          "internalType": "string",
          "name": "_string",
          "type": "string"
        }
      ],
      "name": "isEmpty",
      "outputs": [
        {
          "internalType": "bool",
          "name": "",
          "type": "bool"
        }
      ],
      "stateMutability": "pure",
      "type": "function"
    },
    {
      "inputs": [
        {
          "internalType": "string",
          "name": "_string",
          "type": "string"
        }
      ],
      "name": "isNotEmpty",
      "outputs": [
        {
          "internalType": "bool",
          "name": "",
          "type": "bool"
        }
      ],
      "stateMutability": "pure",
      "type": "function"
    },
    {
      "inputs": [
        {
          "internalType": "string",
          "name": "s1",
          "type": "string"
        },
        {
          "internalType": "string",
          "name": "s2",
          "type": "string"
        }
      ],
      "name": "isEqual",
      "outputs": [
        {
          "internalType": "bool",
          "name": "",
          "type": "bool"
        }
      ],
      "stateMutability": "pure",
      "type": "function"
    },
    {
      "inputs": [
        {
          "internalType": "string",
          "name": "s1",
          "type": "string"
        },
        {
          "internalType": "string",
          "name": "s2",
          "type": "string"
        }
      ],
      "name": "append",
      "outputs": [
        {
          "internalType": "string",
          "name": "",
          "type": "string"
        }
      ],
      "stateMutability": "pure",
      "type": "function"
    },
    {
      "inputs": [
        {
          "internalType": "string",
          "name": "s1",
          "type": "string"
        },
        {
          "internalType": "string",
          "name": "s2",
          "type": "string"
        }
      ],
      "name": "prepend",
      "outputs": [
        {
          "internalType": "string",
          "name": "",
          "type": "string"
        }
      ],
      "stateMutability": "pure",
      "type": "function"
    },
    {
      "inputs": [
        {
          "internalType": "string",
          "name": "var_value",
          "type": "string"
        },
        {
          "internalType": "string",
          "name": "var_name",
          "type": "string"
        }
      ],
      "name": "getVariableMessage",
      "outputs": [
        {
          "internalType": "string",
          "name": "",
          "type": "string"
        }
      ],
      "stateMutability": "pure",
      "type": "function"
    }
  ],
  "bytecode": "0x610530610053600b82828239805160001a607314610046577f4e487b7100000000000000000000000000000000000000000000000000000000600052600060045260246000fd5b30600052607381538281f3fe730000000000000000000000000000000000000000301460806040526004361061007a5760e060020a6000350463026294a7811461007f57806327341c8a146100a5578063465c4105146100c8578063591c515f146100db578063605b5c5f146100fb578063734815021461010e578063745992a014610121575b600080fd5b61009261008d366004610267565b919050565b6040519081526020015b60405180910390f35b6100b86100b336600461034e565b511590565b604051901515815260200161009c565b6100b86100d636600461038a565b610134565b6100ee6100e93660046103f5565b610193565b60405161009c9190610488565b6100ee6101093660046103f5565b6101bf565b6100ee61011c3660046103f5565b6101d4565b6100b861012f36600461034e565b61020d565b600082826040516020016101499291906104bb565b6040516020818303038152906040528051906020012085856040516020016101729291906104bb565b60405160208183030381529060405280519060200120149050949350505050565b606082826040516020016101a89291906104cb565b604051602081830303815290604052905092915050565b606081836040516020016101a89291906104cb565b60606102066102008360405180604001604052806002815260200160f560020a6101d102815250610193565b84610193565b9392505050565b600061021882511590565b1592915050565b60008083601f84011261023157600080fd5b5081356001604060020a0381111561024857600080fd5b60208301915083602082850101111561026057600080fd5b9250929050565b6000806020838503121561027a57600080fd5b82356001604060020a0381111561029057600080fd5b61029c8582860161021f565b90969095509350505050565b60e060020a634e487b710260009081526041600452602490fd5b600082601f8301126102d357600080fd5b81356001604060020a03808211156102ed576102ed6102a8565b604051601f8301601f19908116603f01168101908282118183101715610315576103156102a8565b8160405283815286602085880101111561032e57600080fd5b836020870160208301376000602085830101528094505050505092915050565b60006020828403121561036057600080fd5b81356001604060020a0381111561037657600080fd5b610382848285016102c2565b949350505050565b600080600080604085870312156103a057600080fd5b84356001604060020a03808211156103b757600080fd5b6103c38883890161021f565b909650945060208701359150808211156103dc57600080fd5b506103e98782880161021f565b95989497509550505050565b6000806040838503121561040857600080fd5b82356001604060020a038082111561041f57600080fd5b61042b868387016102c2565b9350602085013591508082111561044157600080fd5b5061044e858286016102c2565b9150509250929050565b60005b8381101561047357818101518382015260200161045b565b83811115610482576000848401525b50505050565b60208152600082518060208401526104a7816040850160208701610458565b601f01601f19169190910160400192915050565b8183823760009101908152919050565b600083516104dd818460208801610458565b8351908301906104f1818360208801610458565b0194935050505056fea2646970667358221220f775dfc6a9d0fdc02ccb7bb83b3f1911b457d892196256f96f72685345af9b2d64736f6c634300080f0033",
  "immutableReferences": {},
  "source": "\r\n\r\n//SPDX-License-Identifier: UNLICENSED\r\npragma solidity ^0.8.15;\r\n\r\nlibrary StringUtils {\r\n    function len(string calldata _str) public pure returns (uint) {\r\n        return bytes(_str).length;\r\n    }\r\n\r\n    function isEmpty(string memory _string) pure public returns(bool){\r\n        return bytes(_string).length == 0;\r\n    }\r\n\r\n    function isNotEmpty(string memory _string) pure external returns(bool){\r\n        return !isEmpty(_string);\r\n    }\r\n\r\n    function isEqual (string calldata s1, string calldata s2) pure external returns(bool){\r\n        return keccak256(abi.encodePacked(s1)) == keccak256(abi.encodePacked(s2));\r\n    }\r\n\r\n    function append(string memory s1, string memory s2) pure public returns(string memory){\r\n        return string.concat(s1, s2);\r\n    }\r\n\r\n    function prepend(string memory s1, string memory s2) pure public returns(string memory){\r\n        return string.concat(s2, s1);\r\n    }\r\n\r\n    function getVariableMessage(string memory var_value, string memory var_name) pure external returns(string memory){\r\n        return append(append(var_name, \": \"), var_value);\r\n    }\r\n}",
  "sourcePath": "C:\\Users\\User\\Documents\\GitHub\\Backend\\SmartContracts\\contracts\\Utils\\StringUtils.sol",
  "compiler": {
    "name": "solc",
    "version": "0.8.15+commit.e14f2714.Emscripten.clang"
  },
  "schemaVersion": "3.4.8",
  "updatedAt": "2022-07-21T13:42:59.447Z",
  "devdoc": {
    "kind": "dev",
    "methods": {},
    "version": 1
  },
  "userdoc": {
    "kind": "user",
    "methods": {},
    "version": 1
  }
}