{
  "contractName": "User",
  "abi": [
    {
      "inputs": [
        {
          "internalType": "address",
          "name": "new_user_address",
          "type": "address"
        }
      ],
      "stateMutability": "nonpayable",
      "type": "constructor"
    },
    {
      "anonymous": false,
      "inputs": [
        {
          "indexed": true,
          "internalType": "address",
          "name": "previousOwner",
          "type": "address"
        },
        {
          "indexed": true,
          "internalType": "address",
          "name": "newOwner",
          "type": "address"
        }
      ],
      "name": "OwnershipTransferred",
      "type": "event"
    },
    {
      "inputs": [],
      "name": "owner",
      "outputs": [
        {
          "internalType": "address",
          "name": "",
          "type": "address"
        }
      ],
      "stateMutability": "view",
      "type": "function"
    },
    {
      "inputs": [],
      "name": "renounceOwnership",
      "outputs": [],
      "stateMutability": "nonpayable",
      "type": "function"
    },
    {
      "inputs": [
        {
          "internalType": "address",
          "name": "newOwner",
          "type": "address"
        }
      ],
      "name": "transferOwnership",
      "outputs": [],
      "stateMutability": "nonpayable",
      "type": "function"
    },
    {
      "inputs": [
        {
          "internalType": "address",
          "name": "app_address",
          "type": "address"
        }
      ],
      "name": "isAppOwned",
      "outputs": [
        {
          "internalType": "bool",
          "name": "",
          "type": "bool"
        }
      ],
      "stateMutability": "view",
      "type": "function"
    },
    {
      "inputs": [
        {
          "internalType": "address",
          "name": "app",
          "type": "address"
        }
      ],
      "name": "getRatingForApp",
      "outputs": [
        {
          "internalType": "uint256",
          "name": "",
          "type": "uint256"
        }
      ],
      "stateMutability": "view",
      "type": "function"
    },
    {
      "inputs": [],
      "name": "getPurchasedApps",
      "outputs": [
        {
          "components": [
            {
              "internalType": "uint256",
              "name": "id",
              "type": "uint256"
            },
            {
              "internalType": "string",
              "name": "name",
              "type": "string"
            },
            {
              "internalType": "string",
              "name": "description",
              "type": "string"
            },
            {
              "internalType": "string",
              "name": "imgUrl",
              "type": "string"
            },
            {
              "internalType": "string",
              "name": "company",
              "type": "string"
            },
            {
              "internalType": "uint256",
              "name": "price",
              "type": "uint256"
            },
            {
              "internalType": "uint256",
              "name": "numRatings",
              "type": "uint256"
            },
            {
              "internalType": "uint256",
              "name": "ratingInt",
              "type": "uint256"
            },
            {
              "internalType": "uint256",
              "name": "ratingModulu",
              "type": "uint256"
            },
            {
              "internalType": "uint256",
              "name": "userRating",
              "type": "uint256"
            },
            {
              "internalType": "string",
              "name": "fileSha256",
              "type": "string"
            },
            {
              "internalType": "bool",
              "name": "owned",
              "type": "bool"
            },
            {
              "internalType": "string",
              "name": "magnetLink",
              "type": "string"
            },
            {
              "internalType": "string",
              "name": "category",
              "type": "string"
            },
            {
              "internalType": "uint256",
              "name": "publishTime",
              "type": "uint256"
            }
          ],
          "internalType": "struct AppInfoLibrary.AppInfo[]",
          "name": "",
          "type": "tuple[]"
        }
      ],
      "stateMutability": "view",
      "type": "function"
    },
    {
      "inputs": [],
      "name": "getPublishedApps",
      "outputs": [
        {
          "components": [
            {
              "internalType": "uint256",
              "name": "id",
              "type": "uint256"
            },
            {
              "internalType": "string",
              "name": "name",
              "type": "string"
            },
            {
              "internalType": "string",
              "name": "description",
              "type": "string"
            },
            {
              "internalType": "string",
              "name": "imgUrl",
              "type": "string"
            },
            {
              "internalType": "string",
              "name": "company",
              "type": "string"
            },
            {
              "internalType": "uint256",
              "name": "price",
              "type": "uint256"
            },
            {
              "internalType": "uint256",
              "name": "numRatings",
              "type": "uint256"
            },
            {
              "internalType": "uint256",
              "name": "ratingInt",
              "type": "uint256"
            },
            {
              "internalType": "uint256",
              "name": "ratingModulu",
              "type": "uint256"
            },
            {
              "internalType": "uint256",
              "name": "userRating",
              "type": "uint256"
            },
            {
              "internalType": "string",
              "name": "fileSha256",
              "type": "string"
            },
            {
              "internalType": "bool",
              "name": "owned",
              "type": "bool"
            },
            {
              "internalType": "string",
              "name": "magnetLink",
              "type": "string"
            },
            {
              "internalType": "string",
              "name": "category",
              "type": "string"
            },
            {
              "internalType": "uint256",
              "name": "publishTime",
              "type": "uint256"
            }
          ],
          "internalType": "struct AppInfoLibrary.AppInfo[]",
          "name": "",
          "type": "tuple[]"
        }
      ],
      "stateMutability": "view",
      "type": "function"
    },
    {
      "inputs": [],
      "name": "getRatedApps",
      "outputs": [
        {
          "components": [
            {
              "internalType": "uint256",
              "name": "id",
              "type": "uint256"
            },
            {
              "internalType": "string",
              "name": "name",
              "type": "string"
            },
            {
              "internalType": "string",
              "name": "description",
              "type": "string"
            },
            {
              "internalType": "string",
              "name": "imgUrl",
              "type": "string"
            },
            {
              "internalType": "string",
              "name": "company",
              "type": "string"
            },
            {
              "internalType": "uint256",
              "name": "price",
              "type": "uint256"
            },
            {
              "internalType": "uint256",
              "name": "numRatings",
              "type": "uint256"
            },
            {
              "internalType": "uint256",
              "name": "ratingInt",
              "type": "uint256"
            },
            {
              "internalType": "uint256",
              "name": "ratingModulu",
              "type": "uint256"
            },
            {
              "internalType": "uint256",
              "name": "userRating",
              "type": "uint256"
            },
            {
              "internalType": "string",
              "name": "fileSha256",
              "type": "string"
            },
            {
              "internalType": "bool",
              "name": "owned",
              "type": "bool"
            },
            {
              "internalType": "string",
              "name": "magnetLink",
              "type": "string"
            },
            {
              "internalType": "string",
              "name": "category",
              "type": "string"
            },
            {
              "internalType": "uint256",
              "name": "publishTime",
              "type": "uint256"
            }
          ],
          "internalType": "struct AppInfoLibrary.AppInfo[]",
          "name": "",
          "type": "tuple[]"
        }
      ],
      "stateMutability": "view",
      "type": "function"
    },
    {
      "inputs": [
        {
          "internalType": "address",
          "name": "app",
          "type": "address"
        }
      ],
      "name": "createNewApp",
      "outputs": [],
      "stateMutability": "nonpayable",
      "type": "function"
    },
    {
      "inputs": [
        {
          "internalType": "address",
          "name": "app",
          "type": "address"
        },
        {
          "internalType": "uint256",
          "name": "app_rating",
          "type": "uint256"
        }
      ],
      "name": "rateApp",
      "outputs": [],
      "stateMutability": "nonpayable",
      "type": "function"
    },
    {
      "inputs": [
        {
          "internalType": "address",
          "name": "app_address",
          "type": "address"
        }
      ],
      "name": "markAppAsPurchased",
      "outputs": [],
      "stateMutability": "nonpayable",
      "type": "function"
    }
  ],
  "bytecode": "0x608060405234801561001057600080fd5b50604051610fb0380380610fb083398101604081905261002f916100e3565b610051610043640100000000610089810204565b64010000000061008d810204565b60018054600160a860020a031916600160a060020a038316179055610083600764010000000061082c6100dd82021704565b50610113565b3390565b60008054600160a060020a03838116600160a060020a0319831681178455604051919092169283917f8be0079c531659141344cd1fd0a4f28419497f9722a3daafe3b4186f6b6457e09190a35050565b60009055565b6000602082840312156100f557600080fd5b8151600160a060020a038116811461010c57600080fd5b9392505050565b610e8e806101226000396000f3fe608060405234801561001057600080fd5b506004361061009c5760e060020a600035046304a4d70481146100a1578063139334af146100c9578063253a219f146100de578063715018a6146100e65780638da5cb5b146100f057806391de1ba314610110578063983c0a5b146101235780639f9f7f8514610136578063b8c3773f14610157578063e3f75d1e1461015f578063f2fde38b14610172575b600080fd5b6100b46100af366004610973565b610185565b60405190151581526020015b60405180910390f35b6100d16101b2565b6040516100c091906109f1565b6100d1610350565b6100ee6104b2565b005b6100f86104c6565b604051600160a060020a0390911681526020016100c0565b6100ee61011e366004610973565b6104d5565b6100ee610131366004610b63565b610544565b610149610144366004610973565b6105b0565b6040519081526020016100c0565b6100d16105d6565b6100ee61016d366004610973565b610738565b6100ee610180366004610973565b6107ab565b600061018f610832565b50600160a060020a03811660009081526004602052604090205460ff165b919050565b60606101bc610832565b60006101c760075490565b90506000816001604060020a038111156101e3576101e3610b8d565b60405190808252806020026020018201604052801561021c57816020015b6102096108e4565b8152602001906001900390816102015790505b50905060005b828110156103495760006002828154811061023f5761023f610ba7565b6000918252602080832090910154600160a060020a031680835260059091526040909120549091508190156103345780600160a060020a031663f22b012760016102af6002878154811061029557610295610ba7565b600091825260209091200154600160a060020a03166105b0565b60405160e060020a63ffffffff851602815291151560048301526024820152604401600060405180830381865afa1580156102ee573d6000803e3d6000fd5b505050506040513d6000823e601f3d908101601f191682016040526103169190810190610c81565b84848151811061032857610328610ba7565b60200260200101819052505b5050808061034190610e2d565b915050610222565b5091505090565b606061035a610832565b6003546000816001604060020a0381111561037757610377610b8d565b6040519080825280602002602001820160405280156103b057816020015b61039d6108e4565b8152602001906001900390816103955790505b50905060005b82811015610349576000600382815481106103d3576103d3610ba7565b9060005260206000200160009054906101000a9004600160a060020a0316905080600160a060020a031663f22b0127600161041a6003868154811061029557610295610ba7565b60405160e060020a63ffffffff851602815291151560048301526024820152604401600060405180830381865afa158015610459573d6000803e3d6000fd5b505050506040513d6000823e601f3d908101601f191682016040526104819190810190610c81565b83838151811061049357610493610ba7565b60200260200101819052505080806104aa90610e2d565b9150506103b6565b6104ba610832565b6104c46000610894565b565b600054600160a060020a031690565b6104dd610832565b6002805460018181019092557f405787fa12a823e0f2b7631cc41b3ba8828b3321ca811111fa75cd3aa3bb5ace018054600160a060020a03909316600160a060020a031990931683179055600091825260046020526040909120805460ff19169091179055565b61054c610832565b6001811015801561055e575060058111155b61056757600080fd5b600160a060020a038216600090815260056020526040812054900361059457610594600780546001019055565b600160a060020a03909116600090815260056020526040902055565b60006105ba610832565b50600160a060020a031660009081526005602052604090205490565b60606105e0610832565b6002546000816001604060020a038111156105fd576105fd610b8d565b60405190808252806020026020018201604052801561063657816020015b6106236108e4565b81526020019060019003908161061b5790505b50905060005b828110156103495760006002828154811061065957610659610ba7565b9060005260206000200160009054906101000a9004600160a060020a0316905080600160a060020a031663f22b012760016106a06002868154811061029557610295610ba7565b60405160e060020a63ffffffff851602815291151560048301526024820152604401600060405180830381865afa1580156106df573d6000803e3d6000fd5b505050506040513d6000823e601f3d908101601f191682016040526107079190810190610c81565b83838151811061071957610719610ba7565b602002602001018190525050808061073090610e2d565b91505061063c565b610740610832565b6001805460a060020a60ff02191660a060020a1781556003805491820181556000527fc2575a0e9e593c00f959f8c92f12db2869c3395a3b0502d05e2516446f71f85b018054600160a060020a038316600160a060020a03199091161790556107a8816104d5565b50565b6107b3610832565b600160a060020a0381166108235760405160e560020a62461bcd02815260206004820152602660248201527f4f776e61626c653a206e6577206f776e657220697320746865207a65726f2061604482015260d060020a656464726573730260648201526084015b60405180910390fd5b6107a881610894565b60009055565b3361083b6104c6565b600160a060020a0316146104c45760405160e560020a62461bcd02815260206004820181905260248201527f4f776e61626c653a2063616c6c6572206973206e6f7420746865206f776e6572604482015260640161081a565b60008054600160a060020a03838116600160a060020a0319831681178455604051919092169283917f8be0079c531659141344cd1fd0a4f28419497f9722a3daafe3b4186f6b6457e09190a35050565b604051806101e0016040528060008152602001606081526020016060815260200160608152602001606081526020016000815260200160008152602001600081526020016000815260200160008152602001606081526020016000151581526020016060815260200160608152602001600081525090565b8035600160a060020a03811681146101ad57600080fd5b60006020828403121561098557600080fd5b61098e8261095c565b9392505050565b60005b838110156109b0578181015183820152602001610998565b838111156109bf576000848401525b50505050565b600081518084526109dd816020860160208601610995565b601f01601f19169290920160200192915050565b60208082528251828201819052600091906040908185019080840286018301878501865b83811015610b5557603f1989840301855281516101e08151855288820151818a870152610a44828701826109c5565b9150508782015185820389870152610a5c82826109c5565b91505060608083015186830382880152610a7683826109c5565b9250505060808083015186830382880152610a9183826109c5565b60a0858101519089015260c0808601519089015260e080860151908901526101008086015190890152610120808601519089015261014080860151898303828b015291945092509050610ae483826109c5565b9250505061016080830151610afc8288018215159052565b50506101808083015186830382880152610b1683826109c5565b925050506101a08083015186830382880152610b3283826109c5565b6101c0948501519790940196909652505094870194925090860190600101610a15565b509098975050505050505050565b60008060408385031215610b7657600080fd5b610b7f8361095c565b946020939093013593505050565b60e060020a634e487b710260009081526041600452602490fd5b60e060020a634e487b710260009081526032600452602490fd5b6040516101e081016001604060020a0381118282101715610be457610be4610b8d565b60405290565b600082601f830112610bfb57600080fd5b81516001604060020a0380821115610c1557610c15610b8d565b604051601f8301601f19908116603f01168101908282118183101715610c3d57610c3d610b8d565b81604052838152866020858801011115610c5657600080fd5b610c67846020830160208901610995565b9695505050505050565b805180151581146101ad57600080fd5b600060208284031215610c9357600080fd5b81516001604060020a0380821115610caa57600080fd5b908301906101e08286031215610cbf57600080fd5b610cc7610bc1565b82518152602083015182811115610cdd57600080fd5b610ce987828601610bea565b602083015250604083015182811115610d0157600080fd5b610d0d87828601610bea565b604083015250606083015182811115610d2557600080fd5b610d3187828601610bea565b606083015250608083015182811115610d4957600080fd5b610d5587828601610bea565b60808301525060a083015160a082015260c083015160c082015260e083015160e08201526101008084015181830152506101208084015181830152506101408084015183811115610da557600080fd5b610db188828701610bea565b828401525050610160610dc5818501610c71565b908201526101808381015183811115610ddd57600080fd5b610de988828701610bea565b8284015250506101a08084015183811115610e0357600080fd5b610e0f88828701610bea565b91830191909152506101c09283015192810192909252509392505050565b600060018201610e515760e060020a634e487b710260009081526011600452602490fd5b506001019056fea2646970667358221220a0b88ccd361dfd984f2df546f18f59f1b624445f020c611e14474b3573dc17ea64736f6c634300080f0033",
  "immutableReferences": {},
  "source": "//SPDX-License-Identifier: UNLICENSED\r\npragma solidity ^0.8.15;\r\nimport {App} from '../Apps/App.sol';\r\nimport {Constants} from '../Utils/Constants.sol';\r\nimport {StringUtils} from '../Utils/StringUtils.sol';\r\nimport {AddressUtils, AddressPayableUtils} from '../Utils/AddressUtils.sol';\r\nimport {AppInfoLibrary} from '../Utils/AppInfoLibrary.sol';\r\n\r\nimport \"@openzeppelin/contracts/access/Ownable.sol\";\r\nimport \"@openzeppelin/contracts/utils/Counters.sol\";\r\nimport \"@openzeppelin/contracts/utils/structs/EnumerableMap.sol\";\r\n\r\ncontract User is Ownable{\r\n    using AddressUtils for address;\r\n    using Counters for Counters.Counter;\r\n\r\n    address payable private user_address;\r\n    bool isPublisher;\r\n    address[] private purchasedApps;\r\n    address[] private createdApps;\r\n    mapping (address => bool) private ownedApps;\r\n    mapping (address => uint) private appRatings;\r\n    mapping (address => uint) private downloaded_apps;\r\n    Counters.Counter appsRated;\r\n    constructor(address new_user_address){\r\n        user_address = payable(new_user_address);\r\n        isPublisher = false;\r\n        appsRated.reset();\r\n    }\r\n\r\n    //Validation\r\n    modifier validateRating(uint _rating){\r\n        require(_rating > 0);\r\n        _;\r\n    }\r\n\r\n    //Getters\r\n    function isAppOwned(address app_address) external view  onlyOwner returns(bool){\r\n        return ownedApps[app_address];\r\n    }\r\n        \r\n    function getRatingForApp(address app) view public onlyOwner returns(uint){\r\n        return appRatings[app];\r\n    }\r\n\r\n    function getPurchasedApps() view external onlyOwner returns(AppInfoLibrary.AppInfo[] memory){\r\n        uint len = purchasedApps.length;\r\n        AppInfoLibrary.AppInfo[] memory purchasedApps_info = new AppInfoLibrary.AppInfo[](len);\r\n        for (uint i = 0; i < len; i++){\r\n            App _app = App(purchasedApps[i]);\r\n            purchasedApps_info[i] = _app.getAppInfo(true, getRatingForApp(purchasedApps[i]));\r\n        }\r\n        return purchasedApps_info;\r\n    }\r\n\r\n    function getPublishedApps() view external onlyOwner returns(AppInfoLibrary.AppInfo[] memory){\r\n        uint len = createdApps.length;\r\n        AppInfoLibrary.AppInfo[] memory publishedAppsInfo = new AppInfoLibrary.AppInfo[](len);\r\n        for (uint i = 0; i < len; i++){\r\n            App _app = App(createdApps[i]);\r\n            publishedAppsInfo[i] = _app.getAppInfo(true, getRatingForApp(createdApps[i]));\r\n        }\r\n        return publishedAppsInfo;\r\n    }\r\n\r\n    function getRatedApps() view external onlyOwner returns(AppInfoLibrary.AppInfo[] memory){\r\n        uint len = appsRated.current();\r\n        AppInfoLibrary.AppInfo[] memory rated_apps_info = new AppInfoLibrary.AppInfo[](len);\r\n        for (uint i = 0; i < len; i++){\r\n            address app_address = purchasedApps[i];\r\n            App _app = App(app_address);\r\n            if (appRatings[app_address] > 0){\r\n                rated_apps_info[i] = _app.getAppInfo(true, getRatingForApp(purchasedApps[i]));\r\n            }\r\n        }\r\n        return rated_apps_info;\r\n    }\r\n\r\n    //Updaters\r\n    function createNewApp(address app) external onlyOwner{\r\n        isPublisher = true;\r\n        createdApps.push(app);\r\n        markAppAsPurchased(app);\r\n    }\r\n\r\n    function rateApp(address app, uint app_rating) external onlyOwner{\r\n        require(app_rating >=1 && app_rating <=5);\r\n        if (appRatings[app] == 0){\r\n            appsRated.increment();\r\n        }\r\n        appRatings[app] = app_rating;\r\n    }\r\n\r\n    function markAppAsPurchased(address app_address) public onlyOwner{\r\n        purchasedApps.push(app_address);\r\n        ownedApps[app_address] = true;\r\n    }\r\n\r\n\r\n}",
  "sourcePath": "C:\\Users\\User\\Documents\\GitHub\\Backend\\SmartContracts\\contracts\\Users\\User.sol",
  "compiler": {
    "name": "solc",
    "version": "0.8.15+commit.e14f2714.Emscripten.clang"
  },
  "schemaVersion": "3.4.8",
  "updatedAt": "2022-07-08T16:55:59.384Z",
  "devdoc": {
    "kind": "dev",
    "methods": {
      "owner()": {
        "details": "Returns the address of the current owner."
      },
      "renounceOwnership()": {
        "details": "Leaves the contract without owner. It will not be possible to call `onlyOwner` functions anymore. Can only be called by the current owner. NOTE: Renouncing ownership will leave the contract without an owner, thereby removing any functionality that is only available to the owner."
      },
      "transferOwnership(address)": {
        "details": "Transfers ownership of the contract to a new account (`newOwner`). Can only be called by the current owner."
      }
    },
    "version": 1
  },
  "userdoc": {
    "kind": "user",
    "methods": {},
    "version": 1
  }
}