{
  "contractName": "UserManager",
  "abi": [
    {
      "inputs": [],
      "stateMutability": "nonpayable",
      "type": "constructor"
    },
    {
      "anonymous": false,
      "inputs": [
        {
          "indexed": true,
          "internalType": "address",
          "name": "previousOwner",
          "type": "address"
        },
        {
          "indexed": true,
          "internalType": "address",
          "name": "newOwner",
          "type": "address"
        }
      ],
      "name": "OwnershipTransferred",
      "type": "event"
    },
    {
      "inputs": [],
      "name": "owner",
      "outputs": [
        {
          "internalType": "address",
          "name": "",
          "type": "address"
        }
      ],
      "stateMutability": "view",
      "type": "function"
    },
    {
      "inputs": [],
      "name": "renounceOwnership",
      "outputs": [],
      "stateMutability": "nonpayable",
      "type": "function"
    },
    {
      "inputs": [
        {
          "internalType": "address",
          "name": "newOwner",
          "type": "address"
        }
      ],
      "name": "transferOwnership",
      "outputs": [],
      "stateMutability": "nonpayable",
      "type": "function"
    },
    {
      "inputs": [],
      "name": "userExists",
      "outputs": [
        {
          "internalType": "bool",
          "name": "",
          "type": "bool"
        }
      ],
      "stateMutability": "view",
      "type": "function"
    },
    {
      "inputs": [],
      "name": "getPublishedApps",
      "outputs": [
        {
          "components": [
            {
              "internalType": "uint256",
              "name": "id",
              "type": "uint256"
            },
            {
              "internalType": "string",
              "name": "name",
              "type": "string"
            },
            {
              "internalType": "string",
              "name": "description",
              "type": "string"
            },
            {
              "internalType": "string",
              "name": "imgUrl",
              "type": "string"
            },
            {
              "internalType": "string",
              "name": "company",
              "type": "string"
            },
            {
              "internalType": "uint256",
              "name": "price",
              "type": "uint256"
            },
            {
              "internalType": "uint256",
              "name": "numRatings",
              "type": "uint256"
            },
            {
              "internalType": "uint256",
              "name": "ratingInt",
              "type": "uint256"
            },
            {
              "internalType": "uint256",
              "name": "ratingModulu",
              "type": "uint256"
            },
            {
              "internalType": "uint256",
              "name": "userRating",
              "type": "uint256"
            },
            {
              "internalType": "string",
              "name": "fileSha256",
              "type": "string"
            },
            {
              "internalType": "bool",
              "name": "owned",
              "type": "bool"
            },
            {
              "internalType": "string",
              "name": "magnetLink",
              "type": "string"
            },
            {
              "internalType": "string",
              "name": "category",
              "type": "string"
            },
            {
              "internalType": "uint256",
              "name": "publishTime",
              "type": "uint256"
            }
          ],
          "internalType": "struct AppInfoLibrary.AppInfo[]",
          "name": "",
          "type": "tuple[]"
        }
      ],
      "stateMutability": "view",
      "type": "function"
    },
    {
      "inputs": [],
      "name": "getPurchasedAppsInfo",
      "outputs": [
        {
          "components": [
            {
              "internalType": "uint256",
              "name": "id",
              "type": "uint256"
            },
            {
              "internalType": "string",
              "name": "name",
              "type": "string"
            },
            {
              "internalType": "string",
              "name": "description",
              "type": "string"
            },
            {
              "internalType": "string",
              "name": "imgUrl",
              "type": "string"
            },
            {
              "internalType": "string",
              "name": "company",
              "type": "string"
            },
            {
              "internalType": "uint256",
              "name": "price",
              "type": "uint256"
            },
            {
              "internalType": "uint256",
              "name": "numRatings",
              "type": "uint256"
            },
            {
              "internalType": "uint256",
              "name": "ratingInt",
              "type": "uint256"
            },
            {
              "internalType": "uint256",
              "name": "ratingModulu",
              "type": "uint256"
            },
            {
              "internalType": "uint256",
              "name": "userRating",
              "type": "uint256"
            },
            {
              "internalType": "string",
              "name": "fileSha256",
              "type": "string"
            },
            {
              "internalType": "bool",
              "name": "owned",
              "type": "bool"
            },
            {
              "internalType": "string",
              "name": "magnetLink",
              "type": "string"
            },
            {
              "internalType": "string",
              "name": "category",
              "type": "string"
            },
            {
              "internalType": "uint256",
              "name": "publishTime",
              "type": "uint256"
            }
          ],
          "internalType": "struct AppInfoLibrary.AppInfo[]",
          "name": "",
          "type": "tuple[]"
        }
      ],
      "stateMutability": "view",
      "type": "function"
    },
    {
      "inputs": [],
      "name": "getRatedApps",
      "outputs": [
        {
          "components": [
            {
              "internalType": "uint256",
              "name": "id",
              "type": "uint256"
            },
            {
              "internalType": "string",
              "name": "name",
              "type": "string"
            },
            {
              "internalType": "string",
              "name": "description",
              "type": "string"
            },
            {
              "internalType": "string",
              "name": "imgUrl",
              "type": "string"
            },
            {
              "internalType": "string",
              "name": "company",
              "type": "string"
            },
            {
              "internalType": "uint256",
              "name": "price",
              "type": "uint256"
            },
            {
              "internalType": "uint256",
              "name": "numRatings",
              "type": "uint256"
            },
            {
              "internalType": "uint256",
              "name": "ratingInt",
              "type": "uint256"
            },
            {
              "internalType": "uint256",
              "name": "ratingModulu",
              "type": "uint256"
            },
            {
              "internalType": "uint256",
              "name": "userRating",
              "type": "uint256"
            },
            {
              "internalType": "string",
              "name": "fileSha256",
              "type": "string"
            },
            {
              "internalType": "bool",
              "name": "owned",
              "type": "bool"
            },
            {
              "internalType": "string",
              "name": "magnetLink",
              "type": "string"
            },
            {
              "internalType": "string",
              "name": "category",
              "type": "string"
            },
            {
              "internalType": "uint256",
              "name": "publishTime",
              "type": "uint256"
            }
          ],
          "internalType": "struct AppInfoLibrary.AppInfo[]",
          "name": "",
          "type": "tuple[]"
        }
      ],
      "stateMutability": "view",
      "type": "function"
    },
    {
      "inputs": [
        {
          "internalType": "address",
          "name": "_appAddrress",
          "type": "address"
        }
      ],
      "name": "getUserRating",
      "outputs": [
        {
          "internalType": "uint256",
          "name": "_rating",
          "type": "uint256"
        }
      ],
      "stateMutability": "view",
      "type": "function"
    },
    {
      "inputs": [
        {
          "internalType": "string",
          "name": "key",
          "type": "string"
        }
      ],
      "name": "createUser",
      "outputs": [],
      "stateMutability": "nonpayable",
      "type": "function"
    },
    {
      "inputs": [
        {
          "internalType": "address",
          "name": "_appAddress",
          "type": "address"
        }
      ],
      "name": "createNewApp",
      "outputs": [
        {
          "internalType": "bool",
          "name": "_success",
          "type": "bool"
        }
      ],
      "stateMutability": "nonpayable",
      "type": "function"
    },
    {
      "inputs": [
        {
          "internalType": "address",
          "name": "_appAddress",
          "type": "address"
        }
      ],
      "name": "markAppAsPurchased",
      "outputs": [
        {
          "internalType": "bool",
          "name": "_success",
          "type": "bool"
        }
      ],
      "stateMutability": "nonpayable",
      "type": "function"
    },
    {
      "inputs": [
        {
          "internalType": "address",
          "name": "_appAddress",
          "type": "address"
        },
        {
          "internalType": "uint256",
          "name": "_rating",
          "type": "uint256"
        }
      ],
      "name": "markAppAsRated",
      "outputs": [
        {
          "internalType": "bool",
          "name": "_success",
          "type": "bool"
        }
      ],
      "stateMutability": "nonpayable",
      "type": "function"
    }
  ],
  "bytecode": "0x608060405234801561001057600080fd5b50610033610025640100000000610038810204565b64010000000061003c810204565b61008c565b3390565b60008054600160a060020a03838116600160a060020a0319831681178455604051919092169283917f8be0079c531659141344cd1fd0a4f28419497f9722a3daafe3b4186f6b6457e09190a35050565b612dfb8061009b6000396000f3fe60806040523480156200001157600080fd5b5060043610620000b55760e060020a6000350463139334af8114620000ba578063253a219f14620000dc578063460168c314620000e6578063507ffba5146200010c578063715018a614620001255780638da5cb5b146200012f5780638f89b46a146200014857806391de1ba31462000152578063bd0d9fac146200017a578063e3f75d1e1462000191578063eae6d4da14620001a8578063f2fde38b14620001b2575b600080fd5b620000c4620001c9565b604051620000d39190620014cc565b60405180910390f35b620000c4620003cb565b620000fd620000f73660046200166c565b62000593565b604051908152602001620000d3565b620001236200011d3660046200168a565b62000791565b005b6200012362000a52565b6200013962000a6a565b604051620000d3919062001700565b620000c462000a79565b62000169620001633660046200166c565b62000c41565b6040519015158152602001620000d3565b620001696200018b36600462001714565b62000e2e565b62000169620001a23660046200166c565b6200101e565b62000169620011d1565b62000123620001c33660046200166c565b62001322565b6060620001d5620013a7565b60405160e060020a6386bd3f91028152339073__AddressUtils__________________________906386bd3f91906200021390849060040162001700565b602060405180830381865af415801562000231573d6000803e3d6000fd5b505050506040513d601f19601f8201168201806040525081019062000257919062001752565b15620002835760405160e560020a62461bcd0281526004016200027a9062001770565b60405180910390fd5b600160a060020a038082166000908152600160205260409081902054905160e060020a6386bd3f9102815273__AddressUtils__________________________926386bd3f9192620002db9291169060040162001700565b602060405180830381865af4158015620002f9573d6000803e3d6000fd5b505050506040513d601f19601f820116820180604052508101906200031f919062001752565b15620003425760405160e560020a62461bcd0281526004016200027a90620017a1565b3360009081526001602052604080822054815160e060020a63139334af0281529151600160a060020a039091169163139334af91600480830192869291908290030181865afa1580156200039a573d6000803e3d6000fd5b505050506040513d6000823e601f3d908101601f19168201604052620003c49190810190620018b9565b9250505090565b6060620003d7620013a7565b60405160e060020a6386bd3f91028152339073__AddressUtils__________________________906386bd3f91906200041590849060040162001700565b602060405180830381865af415801562000433573d6000803e3d6000fd5b505050506040513d601f19601f8201168201806040525081019062000459919062001752565b156200047c5760405160e560020a62461bcd0281526004016200027a9062001770565b600160a060020a038082166000908152600160205260409081902054905160e060020a6386bd3f9102815273__AddressUtils__________________________926386bd3f9192620004d49291169060040162001700565b602060405180830381865af4158015620004f2573d6000803e3d6000fd5b505050506040513d601f19601f8201168201806040525081019062000518919062001752565b156200053b5760405160e560020a62461bcd0281526004016200027a90620017a1565b3360009081526001602052604080822054815160e060020a63253a219f0281529151600160a060020a039091169163253a219f91600480830192869291908290030181865afa1580156200039a573d6000803e3d6000fd5b60006200059f620013a7565b60405160e060020a6386bd3f91028152339073__AddressUtils__________________________906386bd3f9190620005dd90849060040162001700565b602060405180830381865af4158015620005fb573d6000803e3d6000fd5b505050506040513d601f19601f8201168201806040525081019062000621919062001752565b15620006445760405160e560020a62461bcd0281526004016200027a9062001770565b600160a060020a038082166000908152600160205260409081902054905160e060020a6386bd3f9102815273__AddressUtils__________________________926386bd3f91926200069c9291169060040162001700565b602060405180830381865af4158015620006ba573d6000803e3d6000fd5b505050506040513d601f19601f82011682018060405250810190620006e0919062001752565b15620007035760405160e560020a62461bcd0281526004016200027a90620017a1565b336000908152600160205260409081902054905160e060020a639f9f7f85028152600160a060020a0390911690639f9f7f85906200074690869060040162001700565b602060405180830381865afa15801562000764573d6000803e3d6000fd5b505050506040513d601f19601f820116820180604052508101906200078a919062001b21565b9392505050565b6200079b620013a7565b60405160e060020a6386bd3f91028152339073__AddressUtils__________________________906386bd3f9190620007d990849060040162001700565b602060405180830381865af4158015620007f7573d6000803e3d6000fd5b505050506040513d601f19601f820116820180604052508101906200081d919062001752565b15620008405760405160e560020a62461bcd0281526004016200027a9062001770565b600160a060020a038082166000908152600160205260409081902054905160e060020a6386bd3f9102815273__AddressUtils__________________________926386bd3f9192620008989291169060040162001700565b602060405180830381865af4158015620008b6573d6000803e3d6000fd5b505050506040513d601f19601f82011682018060405250810190620008dc919062001752565b15620008ff5760405160e560020a62461bcd0281526004016200027a90620017a1565b336000908152600160205260409081902054905160e060020a6386bd3f9102815273__AddressUtils__________________________916386bd3f91916200095491600160a060020a03169060040162001700565b602060405180830381865af415801562000972573d6000803e3d6000fd5b505050506040513d601f19601f8201168201806040525081019062000998919062001752565b15620009e35760405160e560020a62461bcd0281526020600482015260136024820152606860020a725573657220616c7265616479206578697374730260448201526064016200027a565b338383604051620009f4906200145d565b62000a029392919062001b3b565b604051809103906000f08015801562000a1f573d6000803e3d6000fd5b503360009081526001602052604090208054600160a060020a031916600160a060020a0392909216919091179055505050565b62000a5c620013a7565b62000a6860006200140d565b565b600054600160a060020a031690565b606062000a85620013a7565b60405160e060020a6386bd3f91028152339073__AddressUtils__________________________906386bd3f919062000ac390849060040162001700565b602060405180830381865af415801562000ae1573d6000803e3d6000fd5b505050506040513d601f19601f8201168201806040525081019062000b07919062001752565b1562000b2a5760405160e560020a62461bcd0281526004016200027a9062001770565b600160a060020a038082166000908152600160205260409081902054905160e060020a6386bd3f9102815273__AddressUtils__________________________926386bd3f919262000b829291169060040162001700565b602060405180830381865af415801562000ba0573d6000803e3d6000fd5b505050506040513d601f19601f8201168201806040525081019062000bc6919062001752565b1562000be95760405160e560020a62461bcd0281526004016200027a90620017a1565b3360009081526001602052604080822054815160e060020a63b8c3773f0281529151600160a060020a039091169163b8c3773f91600480830192869291908290030181865afa1580156200039a573d6000803e3d6000fd5b600062000c4d620013a7565b60405160e060020a6386bd3f91028152339073__AddressUtils__________________________906386bd3f919062000c8b90849060040162001700565b602060405180830381865af415801562000ca9573d6000803e3d6000fd5b505050506040513d601f19601f8201168201806040525081019062000ccf919062001752565b1562000cf25760405160e560020a62461bcd0281526004016200027a9062001770565b600160a060020a038082166000908152600160205260409081902054905160e060020a6386bd3f9102815273__AddressUtils__________________________926386bd3f919262000d4a9291169060040162001700565b602060405180830381865af415801562000d68573d6000803e3d6000fd5b505050506040513d601f19601f8201168201806040525081019062000d8e919062001752565b1562000db15760405160e560020a62461bcd0281526004016200027a90620017a1565b336000908152600160205260409081902054905160e060020a6391de1ba3028152600160a060020a03909116906391de1ba39062000df490869060040162001700565b600060405180830381600087803b15801562000e0f57600080fd5b505af115801562000e24573d6000803e3d6000fd5b5050505050919050565b600062000e3a620013a7565b60405160e060020a6386bd3f91028152339073__AddressUtils__________________________906386bd3f919062000e7890849060040162001700565b602060405180830381865af415801562000e96573d6000803e3d6000fd5b505050506040513d601f19601f8201168201806040525081019062000ebc919062001752565b1562000edf5760405160e560020a62461bcd0281526004016200027a9062001770565b600160a060020a038082166000908152600160205260409081902054905160e060020a6386bd3f9102815273__AddressUtils__________________________926386bd3f919262000f379291169060040162001700565b602060405180830381865af415801562000f55573d6000803e3d6000fd5b505050506040513d601f19601f8201168201806040525081019062000f7b919062001752565b1562000f9e5760405160e560020a62461bcd0281526004016200027a90620017a1565b336000908152600160205260409081902054905160e060020a63983c0a5b028152600160a060020a038681166004830152602482018690529091169063983c0a5b90604401600060405180830381600087803b15801562000ffe57600080fd5b505af115801562001013573d6000803e3d6000fd5b505050505092915050565b60006200102a620013a7565b60405160e060020a6386bd3f91028152339073__AddressUtils__________________________906386bd3f91906200106890849060040162001700565b602060405180830381865af415801562001086573d6000803e3d6000fd5b505050506040513d601f19601f82011682018060405250810190620010ac919062001752565b15620010cf5760405160e560020a62461bcd0281526004016200027a9062001770565b600160a060020a038082166000908152600160205260409081902054905160e060020a6386bd3f9102815273__AddressUtils__________________________926386bd3f9192620011279291169060040162001700565b602060405180830381865af415801562001145573d6000803e3d6000fd5b505050506040513d601f19601f820116820180604052508101906200116b919062001752565b156200118e5760405160e560020a62461bcd0281526004016200027a90620017a1565b336000908152600160205260409081902054905160e160020a6371fbae8f028152600160a060020a039091169063e3f75d1e9062000df490869060040162001700565b6000620011dd620013a7565b60405160e060020a6386bd3f91028152339073__AddressUtils__________________________906386bd3f91906200121b90849060040162001700565b602060405180830381865af415801562001239573d6000803e3d6000fd5b505050506040513d601f19601f820116820180604052508101906200125f919062001752565b15620012825760405160e560020a62461bcd0281526004016200027a9062001770565b336000908152600160205260409081902054905160e060020a6386bd3f9102815273__AddressUtils__________________________916386bd3f9191620012d791600160a060020a03169060040162001700565b602060405180830381865af4158015620012f5573d6000803e3d6000fd5b505050506040513d601f19601f820116820180604052508101906200131b919062001752565b1591505090565b6200132c620013a7565b600160a060020a038116620013995760405160e560020a62461bcd02815260206004820152602660248201527f4f776e61626c653a206e6577206f776e657220697320746865207a65726f2061604482015260d060020a656464726573730260648201526084016200027a565b620013a4816200140d565b50565b33620013b262000a6a565b600160a060020a03161462000a685760405160e560020a62461bcd02815260206004820181905260248201527f4f776e61626c653a2063616c6c6572206973206e6f7420746865206f776e657260448201526064016200027a565b60008054600160a060020a03838116600160a060020a0319831681178455604051919092169283917f8be0079c531659141344cd1fd0a4f28419497f9722a3daafe3b4186f6b6457e09190a35050565b61124a8062001b7c83390190565b60005b83811015620014885781810151838201526020016200146e565b8381111562001498576000848401525b50505050565b60008151808452620014b88160208601602086016200146b565b601f01601f19169290920160200192915050565b60208082528251828201819052600091906040908185019080840286018301878501865b838110156200164157603f1989840301855281516101e08151855288820151818a87015262001522828701826200149e565b91505087820151858203898701526200153c82826200149e565b915050606080830151868303828801526200155883826200149e565b92505050608080830151868303828801526200157583826200149e565b60a0858101519089015260c0808601519089015260e080860151908901526101008086015190890152610120808601519089015261014080860151898303828b015291945092509050620015ca83826200149e565b9250505061016080830151620015e38288018215159052565b50506101808083015186830382880152620015ff83826200149e565b925050506101a080830151868303828801526200161d83826200149e565b6101c0948501519790940196909652505094870194925090860190600101620014f0565b509098975050505050505050565b8035600160a060020a03811681146200166757600080fd5b919050565b6000602082840312156200167f57600080fd5b6200078a826200164f565b600080602083850312156200169e57600080fd5b82356001604060020a0380821115620016b657600080fd5b818501915085601f830112620016cb57600080fd5b813581811115620016db57600080fd5b866020828501011115620016ee57600080fd5b60209290920196919550909350505050565b600160a060020a0391909116815260200190565b600080604083850312156200172857600080fd5b62001733836200164f565b946020939093013593505050565b805180151581146200166757600080fd5b6000602082840312156200176557600080fd5b6200078a8262001741565b6020808252601490820152606060020a73496e76616c69642075736572206164647265737302604082015260600190565b6020808252600e90820152609260020a6d155cd95c881b9bdd08199bdd5b9902604082015260600190565b60e060020a634e487b710260009081526041600452602490fd5b6040516101e081016001604060020a03811182821017156200180c576200180c620017cc565b60405290565b604051601f8201601f191681016001604060020a03811182821017156200183d576200183d620017cc565b604052919050565b600082601f8301126200185757600080fd5b81516001604060020a03811115620018735762001873620017cc565b62001888601f8201601f191660200162001812565b8181528460208386010111156200189e57600080fd5b620018b18260208301602087016200146b565b949350505050565b60006020808385031215620018cd57600080fd5b82516001604060020a0380821115620018e557600080fd5b818501915085601f830112620018fa57600080fd5b8151818111156200190f576200190f620017cc565b8381026200191f85820162001812565b91825283810185019185810190898411156200193a57600080fd5b86860192505b8383101562001b14578251858111156200195957600080fd5b86016101e0818c03601f190112156200197157600080fd5b6200197b620017e6565b8882015181526040820151878111156200199457600080fd5b620019a48d8b8386010162001845565b8a83015250606082015187811115620019bc57600080fd5b620019cc8d8b8386010162001845565b604083015250608082015187811115620019e557600080fd5b620019f58d8b8386010162001845565b60608301525060a08201518781111562001a0e57600080fd5b62001a1e8d8b8386010162001845565b60808301525060c082015160a082015260e082015160c08201526101008083015160e083015261012080840151828401526101409150818401518184015250610160808401518981111562001a7257600080fd5b62001a828f8d8388010162001845565b8385015250610180915062001a9982850162001741565b908301526101a0838101518981111562001ab257600080fd5b62001ac28f8d8388010162001845565b83850152506101c09150818401518981111562001ade57600080fd5b62001aee8f8d8388010162001845565b8285015250506101e0830151818301525080845250508682019150868301925062001940565b9998505050505050505050565b60006020828403121562001b3457600080fd5b5051919050565b600160a060020a03841681526040602082018190528101829052818360608301376000818301606090810191909152601f909201601f191601019291505056fe60806040523480156200001157600080fd5b506040516200124a3803806200124a833981016040819052620000349162000139565b6200005a6200004b640100000000620000b0810204565b640100000000620000b4810204565b60018054600160a060020a031916600160a060020a0384161790556002620000838282620002e1565b506003805460ff19169055620000a86009640100000000620008256200010482021704565b5050620003b3565b3390565b60008054600160a060020a03838116600160a060020a0319831681178455604051919092169283917f8be0079c531659141344cd1fd0a4f28419497f9722a3daafe3b4186f6b6457e09190a35050565b60009055565b7f4e487b7100000000000000000000000000000000000000000000000000000000600052604160045260246000fd5b600080604083850312156200014d57600080fd5b8251600160a060020a03811681146200016557600080fd5b809250506020808401516001604060020a03808211156200018557600080fd5b818601915086601f8301126200019a57600080fd5b815181811115620001af57620001af6200010a565b604051601f8201601f19908116603f01168101908382118183101715620001da57620001da6200010a565b816040528281528986848701011115620001f357600080fd5b600093505b82841015620002175784840186015181850187015292850192620001f8565b82841115620002295760008684830101525b8096505050505050509250929050565b6002810460018216806200024e57607f821691505b60208210810362000288577f4e487b7100000000000000000000000000000000000000000000000000000000600052602260045260246000fd5b50919050565b601f821115620002dc576000818152602081206020601f86010481016020861015620002b75750805b6020601f860104820191505b81811015620002d857828155600101620002c3565b5050505b505050565b81516001604060020a03811115620002fd57620002fd6200010a565b62000315816200030e845462000239565b846200028e565b602080601f831160018114620003515760008415620003345750858301515b60028086026008870290910a6000190419821617865550620002d8565b600085815260208120601f198616915b82811015620003825788860151825594840194600190910190840162000361565b5085821015620003a357878501516008601f88160260020a60001904191681555b5050505050600202600101905550565b610e8780620003c36000396000f3fe608060405234801561001057600080fd5b506004361061009c5760e060020a600035046304a4d70481146100a1578063139334af146100c9578063253a219f146100de578063715018a6146100e65780638da5cb5b146100f057806391de1ba314610110578063983c0a5b146101235780639f9f7f8514610136578063b8c3773f14610157578063e3f75d1e1461015f578063f2fde38b14610172575b600080fd5b6100b46100af36600461096c565b610185565b60405190151581526020015b60405180910390f35b6100d16101b2565b6040516100c091906109ea565b6100d1610350565b6100ee6104b2565b005b6100f86104c6565b604051600160a060020a0390911681526020016100c0565b6100ee61011e36600461096c565b6104d5565b6100ee610131366004610b5c565b610544565b61014961014436600461096c565b6105b0565b6040519081526020016100c0565b6100d16105d6565b6100ee61016d36600461096c565b610738565b6100ee61018036600461096c565b6107a4565b600061018f61082b565b50600160a060020a03811660009081526006602052604090205460ff165b919050565b60606101bc61082b565b60006101c760095490565b90506000816001604060020a038111156101e3576101e3610b86565b60405190808252806020026020018201604052801561021c57816020015b6102096108dd565b8152602001906001900390816102015790505b50905060005b828110156103495760006004828154811061023f5761023f610ba0565b6000918252602080832090910154600160a060020a031680835260079091526040909120549091508190156103345780600160a060020a031663f22b012760016102af6004878154811061029557610295610ba0565b600091825260209091200154600160a060020a03166105b0565b60405160e060020a63ffffffff851602815291151560048301526024820152604401600060405180830381865afa1580156102ee573d6000803e3d6000fd5b505050506040513d6000823e601f3d908101601f191682016040526103169190810190610c7a565b84848151811061032857610328610ba0565b60200260200101819052505b5050808061034190610e26565b915050610222565b5091505090565b606061035a61082b565b6005546000816001604060020a0381111561037757610377610b86565b6040519080825280602002602001820160405280156103b057816020015b61039d6108dd565b8152602001906001900390816103955790505b50905060005b82811015610349576000600582815481106103d3576103d3610ba0565b9060005260206000200160009054906101000a9004600160a060020a0316905080600160a060020a031663f22b0127600161041a6005868154811061029557610295610ba0565b60405160e060020a63ffffffff851602815291151560048301526024820152604401600060405180830381865afa158015610459573d6000803e3d6000fd5b505050506040513d6000823e601f3d908101601f191682016040526104819190810190610c7a565b83838151811061049357610493610ba0565b60200260200101819052505080806104aa90610e26565b9150506103b6565b6104ba61082b565b6104c4600061088d565b565b600054600160a060020a031690565b6104dd61082b565b6004805460018181019092557f8a35acfbc15ff81a39ae7d344fd709f28e8600b4aa8c65c6b64bfe7fe36bd19b018054600160a060020a03909316600160a060020a031990931683179055600091825260066020526040909120805460ff19169091179055565b61054c61082b565b6001811015801561055e575060058111155b61056757600080fd5b600160a060020a038216600090815260076020526040812054900361059457610594600980546001019055565b600160a060020a03909116600090815260076020526040902055565b60006105ba61082b565b50600160a060020a031660009081526007602052604090205490565b60606105e061082b565b6004546000816001604060020a038111156105fd576105fd610b86565b60405190808252806020026020018201604052801561063657816020015b6106236108dd565b81526020019060019003908161061b5790505b50905060005b828110156103495760006004828154811061065957610659610ba0565b9060005260206000200160009054906101000a9004600160a060020a0316905080600160a060020a031663f22b012760016106a06004868154811061029557610295610ba0565b60405160e060020a63ffffffff851602815291151560048301526024820152604401600060405180830381865afa1580156106df573d6000803e3d6000fd5b505050506040513d6000823e601f3d908101601f191682016040526107079190810190610c7a565b83838151811061071957610719610ba0565b602002602001018190525050808061073090610e26565b91505061063c565b61074061082b565b60038054600160ff1990911681179091556005805491820181556000527f036b6384b5eca791c62761152d0c79bb0604c104a5fb6f4eb0703f3154bb3db0018054600160a060020a031916600160a060020a0383161790556107a1816104d5565b50565b6107ac61082b565b600160a060020a03811661081c5760405160e560020a62461bcd02815260206004820152602660248201527f4f776e61626c653a206e6577206f776e657220697320746865207a65726f2061604482015260d060020a656464726573730260648201526084015b60405180910390fd5b6107a18161088d565b60009055565b336108346104c6565b600160a060020a0316146104c45760405160e560020a62461bcd02815260206004820181905260248201527f4f776e61626c653a2063616c6c6572206973206e6f7420746865206f776e65726044820152606401610813565b60008054600160a060020a03838116600160a060020a0319831681178455604051919092169283917f8be0079c531659141344cd1fd0a4f28419497f9722a3daafe3b4186f6b6457e09190a35050565b604051806101e0016040528060008152602001606081526020016060815260200160608152602001606081526020016000815260200160008152602001600081526020016000815260200160008152602001606081526020016000151581526020016060815260200160608152602001600081525090565b8035600160a060020a03811681146101ad57600080fd5b60006020828403121561097e57600080fd5b61098782610955565b9392505050565b60005b838110156109a9578181015183820152602001610991565b838111156109b8576000848401525b50505050565b600081518084526109d681602086016020860161098e565b601f01601f19169290920160200192915050565b60208082528251828201819052600091906040908185019080840286018301878501865b83811015610b4e57603f1989840301855281516101e08151855288820151818a870152610a3d828701826109be565b9150508782015185820389870152610a5582826109be565b91505060608083015186830382880152610a6f83826109be565b9250505060808083015186830382880152610a8a83826109be565b60a0858101519089015260c0808601519089015260e080860151908901526101008086015190890152610120808601519089015261014080860151898303828b015291945092509050610add83826109be565b9250505061016080830151610af58288018215159052565b50506101808083015186830382880152610b0f83826109be565b925050506101a08083015186830382880152610b2b83826109be565b6101c0948501519790940196909652505094870194925090860190600101610a0e565b509098975050505050505050565b60008060408385031215610b6f57600080fd5b610b7883610955565b946020939093013593505050565b60e060020a634e487b710260009081526041600452602490fd5b60e060020a634e487b710260009081526032600452602490fd5b6040516101e081016001604060020a0381118282101715610bdd57610bdd610b86565b60405290565b600082601f830112610bf457600080fd5b81516001604060020a0380821115610c0e57610c0e610b86565b604051601f8301601f19908116603f01168101908282118183101715610c3657610c36610b86565b81604052838152866020858801011115610c4f57600080fd5b610c6084602083016020890161098e565b9695505050505050565b805180151581146101ad57600080fd5b600060208284031215610c8c57600080fd5b81516001604060020a0380821115610ca357600080fd5b908301906101e08286031215610cb857600080fd5b610cc0610bba565b82518152602083015182811115610cd657600080fd5b610ce287828601610be3565b602083015250604083015182811115610cfa57600080fd5b610d0687828601610be3565b604083015250606083015182811115610d1e57600080fd5b610d2a87828601610be3565b606083015250608083015182811115610d4257600080fd5b610d4e87828601610be3565b60808301525060a083015160a082015260c083015160c082015260e083015160e08201526101008084015181830152506101208084015181830152506101408084015183811115610d9e57600080fd5b610daa88828701610be3565b828401525050610160610dbe818501610c6a565b908201526101808381015183811115610dd657600080fd5b610de288828701610be3565b8284015250506101a08084015183811115610dfc57600080fd5b610e0888828701610be3565b91830191909152506101c09283015192810192909252509392505050565b600060018201610e4a5760e060020a634e487b710260009081526011600452602490fd5b506001019056fea26469706673582212204aadeb0858a104e3b4bbcf6b29b4dc0f68d73372baaa3b0a221f42d29ce303fb64736f6c634300080f0033a264697066735822122069b66c58a4c8e858c2f7d1b4ffb4d7ebd68956466e8a62014400bc06666cdc3364736f6c634300080f0033",
  "immutableReferences": {},
  "source": "//SPDX-License-Identifier: UNLICENSED\r\npragma solidity ^0.8.15;\r\n\r\nimport {App} from '../Apps/App.sol';\r\nimport {User} from './User.sol';\r\nimport {Constants} from '../Utils/Constants.sol';\r\nimport {StringUtils} from '../Utils/StringUtils.sol';\r\nimport {AddressUtils, AddressPayableUtils} from '../Utils/AddressUtils.sol';\r\nimport {AppInfoLibrary} from '../Utils/AppInfoLibrary.sol';\r\n\r\n\r\nimport \"@openzeppelin/contracts/access/Ownable.sol\";\r\nimport \"@openzeppelin/contracts/utils/Counters.sol\";\r\nimport \"@openzeppelin/contracts/utils/structs/EnumerableMap.sol\";\r\n\r\ncontract UserManager is Ownable{\r\n    using AddressUtils for address;\r\n    using AddressPayableUtils for address payable;\r\n    using Counters for Counters.Counter;\r\n\r\n    //user_address => user_contract\r\n    mapping(address => address) users;\r\n\r\n    constructor(){}\r\n\r\n    // Modifiers:\r\n    modifier validAddress(address _user_address){\r\n        require(!_user_address.isAddressZero(), \"Invalid user address\");\r\n        _;\r\n    }\r\n\r\n    modifier validateUserExists(address _user_address){\r\n        require(!_user_address.isAddressZero(), \"Invalid user address\");\r\n        require(!users[_user_address].isAddressZero(), 'User not found');\r\n        _;\r\n    }\r\n\r\n    // Getters:\r\n    function userExists() public view\r\n    onlyOwner\r\n    validAddress(msg.sender)\r\n    returns (bool){\r\n        return !users[msg.sender].isAddressZero();\r\n    }\r\n\r\n    function getUser(address _userAddress) private view returns(address){\r\n        return users[_userAddress];\r\n    }\r\n\r\n    function getPublishedApps() external view \r\n    onlyOwner\r\n    validateUserExists(msg.sender)\r\n    returns (AppInfoLibrary.AppInfo[] memory){\r\n        AppInfoLibrary.AppInfo[] memory publishedAppsInfo = User(users[msg.sender]).getPublishedApps();\r\n        return publishedAppsInfo;\r\n    }\r\n\r\n    function getPurchasedAppsInfo() external view\r\n    onlyOwner\r\n    validateUserExists(msg.sender)\r\n    returns(AppInfoLibrary.AppInfo[] memory){\r\n        AppInfoLibrary.AppInfo[] memory purchasedApps_info = User(users[msg.sender]).getPurchasedApps();\r\n        return purchasedApps_info;\r\n    }\r\n\r\n    function getRatedApps() external view\r\n    onlyOwner\r\n    validateUserExists(msg.sender)\r\n    returns (AppInfoLibrary.AppInfo[] memory){\r\n        AppInfoLibrary.AppInfo[] memory rated_apps_info = User(users[msg.sender]).getRatedApps();\r\n        return rated_apps_info;\r\n    }\r\n\r\n    function getUserRating(address _appAddrress) external view \r\n    onlyOwner\r\n    validateUserExists(msg.sender)\r\n    returns (uint _rating){\r\n        return User(users[msg.sender]).getRatingForApp(_appAddrress);\r\n    }\r\n\r\n    // Create and modify users:\r\n    // creates new user, returns a string that is used as a user id/password\r\n    function createUser(string calldata key) external \r\n    onlyOwner\r\n    validateUserExists(msg.sender){\r\n        require (!users[msg.sender].isAddressZero(), \"User already exists\");\r\n        users[msg.sender] = address(new User(payable(msg.sender), key));\r\n    }\r\n\r\n    function createNewApp(address _appAddress) external \r\n    onlyOwner\r\n    validateUserExists(msg.sender)\r\n    returns(bool _success){\r\n        User(users[msg.sender]).createNewApp(_appAddress);\r\n    }\r\n\r\n    function markAppAsPurchased(address _appAddress) \r\n    onlyOwner\r\n    validateUserExists(msg.sender)\r\n    external returns(bool _success){\r\n        User(users[msg.sender]).markAppAsPurchased(_appAddress);\r\n    }\r\n\r\n    function markAppAsRated(address _appAddress, uint _rating)\r\n    onlyOwner\r\n    validateUserExists(msg.sender)\r\n    external returns(bool _success){\r\n        User(users[msg.sender]).rateApp(_appAddress, _rating);\r\n    }\r\n}",
  "sourcePath": "C:\\Users\\User\\Documents\\GitHub\\Backend\\SmartContracts\\contracts\\Users\\UserManager.sol",
  "compiler": {
    "name": "solc",
    "version": "0.8.15+commit.e14f2714.Emscripten.clang"
  },
  "schemaVersion": "3.4.8",
  "updatedAt": "2022-07-13T14:30:13.161Z",
  "devdoc": {
    "kind": "dev",
    "methods": {
      "owner()": {
        "details": "Returns the address of the current owner."
      },
      "renounceOwnership()": {
        "details": "Leaves the contract without owner. It will not be possible to call `onlyOwner` functions anymore. Can only be called by the current owner. NOTE: Renouncing ownership will leave the contract without an owner, thereby removing any functionality that is only available to the owner."
      },
      "transferOwnership(address)": {
        "details": "Transfers ownership of the contract to a new account (`newOwner`). Can only be called by the current owner."
      }
    },
    "version": 1
  },
  "userdoc": {
    "kind": "user",
    "methods": {},
    "version": 1
  }
}