{
  "contractName": "User",
  "abi": [
    {
      "inputs": [
        {
          "internalType": "address",
          "name": "new_user_address",
          "type": "address"
        },
        {
          "internalType": "string",
          "name": "_key",
          "type": "string"
        }
      ],
      "stateMutability": "nonpayable",
      "type": "constructor"
    },
    {
      "anonymous": false,
      "inputs": [
        {
          "indexed": true,
          "internalType": "address",
          "name": "previousOwner",
          "type": "address"
        },
        {
          "indexed": true,
          "internalType": "address",
          "name": "newOwner",
          "type": "address"
        }
      ],
      "name": "OwnershipTransferred",
      "type": "event"
    },
    {
      "inputs": [],
      "name": "owner",
      "outputs": [
        {
          "internalType": "address",
          "name": "",
          "type": "address"
        }
      ],
      "stateMutability": "view",
      "type": "function"
    },
    {
      "inputs": [],
      "name": "renounceOwnership",
      "outputs": [],
      "stateMutability": "nonpayable",
      "type": "function"
    },
    {
      "inputs": [
        {
          "internalType": "address",
          "name": "newOwner",
          "type": "address"
        }
      ],
      "name": "transferOwnership",
      "outputs": [],
      "stateMutability": "nonpayable",
      "type": "function"
    },
    {
      "inputs": [
        {
          "internalType": "address",
          "name": "_app_address",
          "type": "address"
        }
      ],
      "name": "isAppOwned",
      "outputs": [
        {
          "internalType": "bool",
          "name": "",
          "type": "bool"
        }
      ],
      "stateMutability": "view",
      "type": "function"
    },
    {
      "inputs": [
        {
          "internalType": "address",
          "name": "_app_address",
          "type": "address"
        }
      ],
      "name": "isCreator",
      "outputs": [
        {
          "internalType": "bool",
          "name": "",
          "type": "bool"
        }
      ],
      "stateMutability": "view",
      "type": "function"
    },
    {
      "inputs": [
        {
          "internalType": "address",
          "name": "app",
          "type": "address"
        }
      ],
      "name": "getRatingForApp",
      "outputs": [
        {
          "internalType": "uint256",
          "name": "",
          "type": "uint256"
        }
      ],
      "stateMutability": "view",
      "type": "function"
    },
    {
      "inputs": [],
      "name": "getPurchasedApps",
      "outputs": [
        {
          "components": [
            {
              "internalType": "uint256",
              "name": "id",
              "type": "uint256"
            },
            {
              "internalType": "string",
              "name": "name",
              "type": "string"
            },
            {
              "internalType": "string",
              "name": "description",
              "type": "string"
            },
            {
              "internalType": "string",
              "name": "imgUrl",
              "type": "string"
            },
            {
              "internalType": "string",
              "name": "company",
              "type": "string"
            },
            {
              "internalType": "uint256",
              "name": "price",
              "type": "uint256"
            },
            {
              "internalType": "uint256",
              "name": "numRatings",
              "type": "uint256"
            },
            {
              "internalType": "uint256",
              "name": "ratingInt",
              "type": "uint256"
            },
            {
              "internalType": "uint256",
              "name": "ratingModulu",
              "type": "uint256"
            },
            {
              "internalType": "uint256",
              "name": "userRating",
              "type": "uint256"
            },
            {
              "internalType": "string",
              "name": "fileSha256",
              "type": "string"
            },
            {
              "internalType": "bool",
              "name": "owned",
              "type": "bool"
            },
            {
              "internalType": "string",
              "name": "magnetLink",
              "type": "string"
            },
            {
              "internalType": "string",
              "name": "category",
              "type": "string"
            },
            {
              "internalType": "uint256",
              "name": "publishTime",
              "type": "uint256"
            }
          ],
          "internalType": "struct AppInfoLibrary.AppInfo[]",
          "name": "",
          "type": "tuple[]"
        }
      ],
      "stateMutability": "view",
      "type": "function"
    },
    {
      "inputs": [],
      "name": "getPublishedApps",
      "outputs": [
        {
          "components": [
            {
              "internalType": "uint256",
              "name": "id",
              "type": "uint256"
            },
            {
              "internalType": "string",
              "name": "name",
              "type": "string"
            },
            {
              "internalType": "string",
              "name": "description",
              "type": "string"
            },
            {
              "internalType": "string",
              "name": "imgUrl",
              "type": "string"
            },
            {
              "internalType": "string",
              "name": "company",
              "type": "string"
            },
            {
              "internalType": "uint256",
              "name": "price",
              "type": "uint256"
            },
            {
              "internalType": "uint256",
              "name": "numRatings",
              "type": "uint256"
            },
            {
              "internalType": "uint256",
              "name": "ratingInt",
              "type": "uint256"
            },
            {
              "internalType": "uint256",
              "name": "ratingModulu",
              "type": "uint256"
            },
            {
              "internalType": "uint256",
              "name": "userRating",
              "type": "uint256"
            },
            {
              "internalType": "string",
              "name": "fileSha256",
              "type": "string"
            },
            {
              "internalType": "bool",
              "name": "owned",
              "type": "bool"
            },
            {
              "internalType": "string",
              "name": "magnetLink",
              "type": "string"
            },
            {
              "internalType": "string",
              "name": "category",
              "type": "string"
            },
            {
              "internalType": "uint256",
              "name": "publishTime",
              "type": "uint256"
            }
          ],
          "internalType": "struct AppInfoLibrary.AppInfo[]",
          "name": "",
          "type": "tuple[]"
        }
      ],
      "stateMutability": "view",
      "type": "function"
    },
    {
      "inputs": [],
      "name": "getRatedApps",
      "outputs": [
        {
          "components": [
            {
              "internalType": "uint256",
              "name": "id",
              "type": "uint256"
            },
            {
              "internalType": "string",
              "name": "name",
              "type": "string"
            },
            {
              "internalType": "string",
              "name": "description",
              "type": "string"
            },
            {
              "internalType": "string",
              "name": "imgUrl",
              "type": "string"
            },
            {
              "internalType": "string",
              "name": "company",
              "type": "string"
            },
            {
              "internalType": "uint256",
              "name": "price",
              "type": "uint256"
            },
            {
              "internalType": "uint256",
              "name": "numRatings",
              "type": "uint256"
            },
            {
              "internalType": "uint256",
              "name": "ratingInt",
              "type": "uint256"
            },
            {
              "internalType": "uint256",
              "name": "ratingModulu",
              "type": "uint256"
            },
            {
              "internalType": "uint256",
              "name": "userRating",
              "type": "uint256"
            },
            {
              "internalType": "string",
              "name": "fileSha256",
              "type": "string"
            },
            {
              "internalType": "bool",
              "name": "owned",
              "type": "bool"
            },
            {
              "internalType": "string",
              "name": "magnetLink",
              "type": "string"
            },
            {
              "internalType": "string",
              "name": "category",
              "type": "string"
            },
            {
              "internalType": "uint256",
              "name": "publishTime",
              "type": "uint256"
            }
          ],
          "internalType": "struct AppInfoLibrary.AppInfo[]",
          "name": "",
          "type": "tuple[]"
        }
      ],
      "stateMutability": "view",
      "type": "function"
    },
    {
      "inputs": [
        {
          "internalType": "address",
          "name": "app",
          "type": "address"
        }
      ],
      "name": "createNewApp",
      "outputs": [],
      "stateMutability": "nonpayable",
      "type": "function"
    },
    {
      "inputs": [
        {
          "internalType": "address",
          "name": "app",
          "type": "address"
        },
        {
          "internalType": "uint256",
          "name": "app_rating",
          "type": "uint256"
        }
      ],
      "name": "rateApp",
      "outputs": [],
      "stateMutability": "nonpayable",
      "type": "function"
    },
    {
      "inputs": [
        {
          "internalType": "address",
          "name": "_app_address",
          "type": "address"
        }
      ],
      "name": "markAppAsPurchased",
      "outputs": [],
      "stateMutability": "nonpayable",
      "type": "function"
    }
  ],
  "bytecode": "0x60806040523480156200001157600080fd5b50604051620013c7380380620013c7833981016040819052620000349162000139565b6200005a6200004b640100000000620000b0810204565b640100000000620000b4810204565b60018054600160a060020a031916600160a060020a0384161790556002620000838282620002e1565b506003805460ff19169055620000a860096401000000006200092a6200010482021704565b5050620003b3565b3390565b60008054600160a060020a03838116600160a060020a0319831681178455604051919092169283917f8be0079c531659141344cd1fd0a4f28419497f9722a3daafe3b4186f6b6457e09190a35050565b60009055565b7f4e487b7100000000000000000000000000000000000000000000000000000000600052604160045260246000fd5b600080604083850312156200014d57600080fd5b8251600160a060020a03811681146200016557600080fd5b809250506020808401516001604060020a03808211156200018557600080fd5b818601915086601f8301126200019a57600080fd5b815181811115620001af57620001af6200010a565b604051601f8201601f19908116603f01168101908382118183101715620001da57620001da6200010a565b816040528281528986848701011115620001f357600080fd5b600093505b82841015620002175784840186015181850187015292850192620001f8565b82841115620002295760008684830101525b8096505050505050509250929050565b6002810460018216806200024e57607f821691505b60208210810362000288577f4e487b7100000000000000000000000000000000000000000000000000000000600052602260045260246000fd5b50919050565b601f821115620002dc576000818152602081206020601f86010481016020861015620002b75750805b6020601f860104820191505b81811015620002d857828155600101620002c3565b5050505b505050565b81516001604060020a03811115620002fd57620002fd6200010a565b62000315816200030e845462000239565b846200028e565b602080601f831160018114620003515760008415620003345750858301515b60028086026008870290910a6000190419821617865550620002d8565b600085815260208120601f198616915b82811015620003825788860151825594840194600190910190840162000361565b5085821015620003a357878501516008601f88160260020a60001904191681555b5050505050600202600101905550565b61100480620003c36000396000f3fe608060405234801561001057600080fd5b50600436106100a75760e060020a600035046304a4d70481146100ac578063139334af146100d4578063253a219f146100e9578063715018a6146100f15780638da5cb5b146100fb57806391de1ba31461011b578063983c0a5b1461012e5780639f9f7f8514610141578063b8c3773f14610162578063e3f75d1e1461016a578063efd460651461017d578063f2fde38b14610190575b600080fd5b6100bf6100ba366004610a71565b6101a3565b60405190151581526020015b60405180910390f35b6100dc6101d0565b6040516100cb9190610aef565b6100dc61036e565b6100f96104d0565b005b6101036104e4565b604051600160a060020a0390911681526020016100cb565b6100f9610129366004610a71565b6104f3565b6100f961013c366004610c61565b610562565b61015461014f366004610a71565b6105ce565b6040519081526020016100cb565b6100dc6105f4565b6100f9610178366004610a71565b610756565b6100bf61018b366004610a71565b6107c2565b6100f961019e366004610a71565b6108a9565b60006101ad610930565b50600160a060020a03811660009081526006602052604090205460ff165b919050565b60606101da610930565b60006101e560095490565b90506000816001604060020a0381111561020157610201610c8b565b60405190808252806020026020018201604052801561023a57816020015b6102276109e2565b81526020019060019003908161021f5790505b50905060005b828110156103675760006004828154811061025d5761025d610ca5565b6000918252602080832090910154600160a060020a031680835260079091526040909120549091508190156103525780600160a060020a031663f22b012760016102cd600487815481106102b3576102b3610ca5565b600091825260209091200154600160a060020a03166105ce565b60405160e060020a63ffffffff851602815291151560048301526024820152604401600060405180830381865afa15801561030c573d6000803e3d6000fd5b505050506040513d6000823e601f3d908101601f191682016040526103349190810190610d7f565b84848151811061034657610346610ca5565b60200260200101819052505b5050808061035f90610f2b565b915050610240565b5091505090565b6060610378610930565b6005546000816001604060020a0381111561039557610395610c8b565b6040519080825280602002602001820160405280156103ce57816020015b6103bb6109e2565b8152602001906001900390816103b35790505b50905060005b82811015610367576000600582815481106103f1576103f1610ca5565b9060005260206000200160009054906101000a9004600160a060020a0316905080600160a060020a031663f22b01276001610438600586815481106102b3576102b3610ca5565b60405160e060020a63ffffffff851602815291151560048301526024820152604401600060405180830381865afa158015610477573d6000803e3d6000fd5b505050506040513d6000823e601f3d908101601f1916820160405261049f9190810190610d7f565b8383815181106104b1576104b1610ca5565b60200260200101819052505080806104c890610f2b565b9150506103d4565b6104d8610930565b6104e26000610992565b565b600054600160a060020a031690565b6104fb610930565b6004805460018181019092557f8a35acfbc15ff81a39ae7d344fd709f28e8600b4aa8c65c6b64bfe7fe36bd19b018054600160a060020a03909316600160a060020a031990931683179055600091825260066020526040909120805460ff19169091179055565b61056a610930565b6001811015801561057c575060058111155b61058557600080fd5b600160a060020a03821660009081526007602052604081205490036105b2576105b2600980546001019055565b600160a060020a03909116600090815260076020526040902055565b60006105d8610930565b50600160a060020a031660009081526007602052604090205490565b60606105fe610930565b6004546000816001604060020a0381111561061b5761061b610c8b565b60405190808252806020026020018201604052801561065457816020015b6106416109e2565b8152602001906001900390816106395790505b50905060005b828110156103675760006004828154811061067757610677610ca5565b9060005260206000200160009054906101000a9004600160a060020a0316905080600160a060020a031663f22b012760016106be600486815481106102b3576102b3610ca5565b60405160e060020a63ffffffff851602815291151560048301526024820152604401600060405180830381865afa1580156106fd573d6000803e3d6000fd5b505050506040513d6000823e601f3d908101601f191682016040526107259190810190610d7f565b83838151811061073757610737610ca5565b602002602001018190525050808061074e90610f2b565b91505061065a565b61075e610930565b60038054600160ff1990911681179091556005805491820181556000527f036b6384b5eca791c62761152d0c79bb0604c104a5fb6f4eb0703f3154bb3db0018054600160a060020a031916600160a060020a0383161790556107bf816104f3565b50565b60006107cc610930565b600580548060200260200160405190810160405280929190818152602001828054801561082257602002820191906000526020600020905b8154600160a060020a03168152600190910190602001808311610804575b505060405160e160020a631ed406b302815273__AddressArrayUtils_____________________94633da80d669450610862935091508690600401610f56565b602060405180830381865af415801561087f573d6000803e3d6000fd5b505050506040513d601f19601f820116820180604052508101906108a39190610fb3565b92915050565b6108b1610930565b600160a060020a0381166109215760405160e560020a62461bcd02815260206004820152602660248201527f4f776e61626c653a206e6577206f776e657220697320746865207a65726f2061604482015260d060020a656464726573730260648201526084015b60405180910390fd5b6107bf81610992565b60009055565b336109396104e4565b600160a060020a0316146104e25760405160e560020a62461bcd02815260206004820181905260248201527f4f776e61626c653a2063616c6c6572206973206e6f7420746865206f776e65726044820152606401610918565b60008054600160a060020a03838116600160a060020a0319831681178455604051919092169283917f8be0079c531659141344cd1fd0a4f28419497f9722a3daafe3b4186f6b6457e09190a35050565b604051806101e0016040528060008152602001606081526020016060815260200160608152602001606081526020016000815260200160008152602001600081526020016000815260200160008152602001606081526020016000151581526020016060815260200160608152602001600081525090565b8035600160a060020a03811681146101cb57600080fd5b600060208284031215610a8357600080fd5b610a8c82610a5a565b9392505050565b60005b83811015610aae578181015183820152602001610a96565b83811115610abd576000848401525b50505050565b60008151808452610adb816020860160208601610a93565b601f01601f19169290920160200192915050565b60208082528251828201819052600091906040908185019080840286018301878501865b83811015610c5357603f1989840301855281516101e08151855288820151818a870152610b4282870182610ac3565b9150508782015185820389870152610b5a8282610ac3565b91505060608083015186830382880152610b748382610ac3565b9250505060808083015186830382880152610b8f8382610ac3565b60a0858101519089015260c0808601519089015260e080860151908901526101008086015190890152610120808601519089015261014080860151898303828b015291945092509050610be28382610ac3565b9250505061016080830151610bfa8288018215159052565b50506101808083015186830382880152610c148382610ac3565b925050506101a08083015186830382880152610c308382610ac3565b6101c0948501519790940196909652505094870194925090860190600101610b13565b509098975050505050505050565b60008060408385031215610c7457600080fd5b610c7d83610a5a565b946020939093013593505050565b60e060020a634e487b710260009081526041600452602490fd5b60e060020a634e487b710260009081526032600452602490fd5b6040516101e081016001604060020a0381118282101715610ce257610ce2610c8b565b60405290565b600082601f830112610cf957600080fd5b81516001604060020a0380821115610d1357610d13610c8b565b604051601f8301601f19908116603f01168101908282118183101715610d3b57610d3b610c8b565b81604052838152866020858801011115610d5457600080fd5b610d65846020830160208901610a93565b9695505050505050565b805180151581146101cb57600080fd5b600060208284031215610d9157600080fd5b81516001604060020a0380821115610da857600080fd5b908301906101e08286031215610dbd57600080fd5b610dc5610cbf565b82518152602083015182811115610ddb57600080fd5b610de787828601610ce8565b602083015250604083015182811115610dff57600080fd5b610e0b87828601610ce8565b604083015250606083015182811115610e2357600080fd5b610e2f87828601610ce8565b606083015250608083015182811115610e4757600080fd5b610e5387828601610ce8565b60808301525060a083015160a082015260c083015160c082015260e083015160e08201526101008084015181830152506101208084015181830152506101408084015183811115610ea357600080fd5b610eaf88828701610ce8565b828401525050610160610ec3818501610d6f565b908201526101808381015183811115610edb57600080fd5b610ee788828701610ce8565b8284015250506101a08084015183811115610f0157600080fd5b610f0d88828701610ce8565b91830191909152506101c09283015192810192909252509392505050565b600060018201610f4f5760e060020a634e487b710260009081526011600452602490fd5b5060010190565b604080825283519082018190526000906020906060840190828701845b82811015610f98578151600160a060020a031684529284019290840190600101610f73565b505050600160a060020a039490941692019190915250919050565b600060208284031215610fc557600080fd5b610a8c82610d6f56fea2646970667358221220b946d141900fc9bd4f50632994091c2a733d35bb6cc262cc3ed305e00a527d1464736f6c634300080f0033",
  "immutableReferences": {},
  "source": "//SPDX-License-Identifier: UNLICENSED\r\npragma solidity ^0.8.15;\r\nimport {App} from '../Apps/App.sol';\r\nimport {Constants} from '../Utils/Constants.sol';\r\nimport {StringUtils} from '../Utils/StringUtils.sol';\r\nimport {AddressUtils, AddressPayableUtils} from '../Utils/AddressUtils.sol';\r\nimport {AppInfoLibrary} from '../Utils/AppInfoLibrary.sol';\r\nimport {AddressArrayUtils} from '../Utils/ArrayUtils.sol';\r\n\r\nimport \"@openzeppelin/contracts/access/Ownable.sol\";\r\nimport \"@openzeppelin/contracts/utils/Counters.sol\";\r\nimport \"@openzeppelin/contracts/utils/structs/EnumerableMap.sol\";\r\n\r\ncontract User is Ownable{\r\n    using AddressUtils for address;\r\n    using Counters for Counters.Counter;\r\n    using AddressArrayUtils for address[];\r\n\r\n    address payable private user_address;\r\n    string key;\r\n    bool isPublisher;\r\n    address[] private purchasedApps;\r\n    address[] private createdApps;\r\n    mapping (address => bool) private ownedApps;\r\n    mapping (address => uint) private appRatings;\r\n    mapping (address => uint) private downloaded_apps;\r\n    Counters.Counter appsRated;\r\n    constructor(address new_user_address, string memory _key){\r\n        user_address = payable(new_user_address);\r\n        key = _key;\r\n        isPublisher = false;\r\n        appsRated.reset();\r\n    }\r\n\r\n    //Validation\r\n    modifier validateRating(uint _rating){\r\n        require(_rating > 0);\r\n        _;\r\n    }\r\n\r\n    //Getters\r\n    function isAppOwned(address _app_address) external view  onlyOwner returns(bool){\r\n        return ownedApps[_app_address];\r\n    }\r\n\r\n    function isCreator(address _app_address) external view onlyOwner returns(bool){\r\n        return createdApps.contains(_app_address);\r\n    }\r\n        \r\n    function getRatingForApp(address app) view public onlyOwner returns(uint){\r\n        return appRatings[app];\r\n    }\r\n\r\n    function getPurchasedApps() view external onlyOwner returns(AppInfoLibrary.AppInfo[] memory){\r\n        uint len = purchasedApps.length;\r\n        AppInfoLibrary.AppInfo[] memory purchasedApps_info = new AppInfoLibrary.AppInfo[](len);\r\n        for (uint i = 0; i < len; i++){\r\n            App _app = App(purchasedApps[i]);\r\n            purchasedApps_info[i] = _app.getAppInfo(true, getRatingForApp(purchasedApps[i]));\r\n        }\r\n        return purchasedApps_info;\r\n    }\r\n\r\n    function getPublishedApps() view external onlyOwner returns(AppInfoLibrary.AppInfo[] memory){\r\n        uint len = createdApps.length;\r\n        AppInfoLibrary.AppInfo[] memory publishedAppsInfo = new AppInfoLibrary.AppInfo[](len);\r\n        for (uint i = 0; i < len; i++){\r\n            App _app = App(createdApps[i]);\r\n            publishedAppsInfo[i] = _app.getAppInfo(true, getRatingForApp(createdApps[i]));\r\n        }\r\n        return publishedAppsInfo;\r\n    }\r\n\r\n    function getRatedApps() view external onlyOwner returns(AppInfoLibrary.AppInfo[] memory){\r\n        uint len = appsRated.current();\r\n        AppInfoLibrary.AppInfo[] memory rated_apps_info = new AppInfoLibrary.AppInfo[](len);\r\n        for (uint i = 0; i < len; i++){\r\n            address _app_address = purchasedApps[i];\r\n            App _app = App(_app_address);\r\n            if (appRatings[_app_address] > 0){\r\n                rated_apps_info[i] = _app.getAppInfo(true, getRatingForApp(purchasedApps[i]));\r\n            }\r\n        }\r\n        return rated_apps_info;\r\n    }\r\n\r\n    //Updaters\r\n    function createNewApp(address app) external onlyOwner{\r\n        isPublisher = true;\r\n        createdApps.push(app);\r\n        markAppAsPurchased(app);\r\n    }\r\n\r\n    function rateApp(address app, uint app_rating) external onlyOwner{\r\n        require(app_rating >=1 && app_rating <=5);\r\n        if (appRatings[app] == 0){\r\n            appsRated.increment();\r\n        }\r\n        appRatings[app] = app_rating;\r\n    }\r\n\r\n    function markAppAsPurchased(address _app_address) public onlyOwner{\r\n        purchasedApps.push(_app_address);\r\n        ownedApps[_app_address] = true;\r\n    }\r\n}",
  "sourcePath": "C:\\Users\\User\\Documents\\GitHub\\Backend\\SmartContracts\\contracts\\Users\\User.sol",
  "compiler": {
    "name": "solc",
    "version": "0.8.15+commit.e14f2714.Emscripten.clang"
  },
  "schemaVersion": "3.4.8",
  "updatedAt": "2022-07-21T13:42:59.397Z",
  "devdoc": {
    "kind": "dev",
    "methods": {
      "owner()": {
        "details": "Returns the address of the current owner."
      },
      "renounceOwnership()": {
        "details": "Leaves the contract without owner. It will not be possible to call `onlyOwner` functions anymore. Can only be called by the current owner. NOTE: Renouncing ownership will leave the contract without an owner, thereby removing any functionality that is only available to the owner."
      },
      "transferOwnership(address)": {
        "details": "Transfers ownership of the contract to a new account (`newOwner`). Can only be called by the current owner."
      }
    },
    "version": 1
  },
  "userdoc": {
    "kind": "user",
    "methods": {},
    "version": 1
  }
}