{
  "contractName": "User",
  "abi": [
    {
      "inputs": [
        {
          "internalType": "address",
          "name": "new_user_address",
          "type": "address"
        }
      ],
      "stateMutability": "nonpayable",
      "type": "constructor"
    },
    {
      "anonymous": false,
      "inputs": [
        {
          "indexed": true,
          "internalType": "address",
          "name": "previousOwner",
          "type": "address"
        },
        {
          "indexed": true,
          "internalType": "address",
          "name": "newOwner",
          "type": "address"
        }
      ],
      "name": "OwnershipTransferred",
      "type": "event"
    },
    {
      "inputs": [],
      "name": "owner",
      "outputs": [
        {
          "internalType": "address",
          "name": "",
          "type": "address"
        }
      ],
      "stateMutability": "view",
      "type": "function"
    },
    {
      "inputs": [],
      "name": "renounceOwnership",
      "outputs": [],
      "stateMutability": "nonpayable",
      "type": "function"
    },
    {
      "inputs": [
        {
          "internalType": "address",
          "name": "newOwner",
          "type": "address"
        }
      ],
      "name": "transferOwnership",
      "outputs": [],
      "stateMutability": "nonpayable",
      "type": "function"
    },
    {
      "inputs": [],
      "name": "getPurchasedApps",
      "outputs": [
        {
          "components": [
            {
              "internalType": "uint256",
              "name": "id",
              "type": "uint256"
            },
            {
              "internalType": "string",
              "name": "name",
              "type": "string"
            },
            {
              "internalType": "string",
              "name": "description",
              "type": "string"
            },
            {
              "internalType": "string",
              "name": "imgUrl",
              "type": "string"
            },
            {
              "internalType": "string",
              "name": "company",
              "type": "string"
            },
            {
              "internalType": "uint256",
              "name": "price",
              "type": "uint256"
            },
            {
              "internalType": "uint256",
              "name": "num_ratings",
              "type": "uint256"
            },
            {
              "internalType": "uint256",
              "name": "rating",
              "type": "uint256"
            },
            {
              "internalType": "uint256",
              "name": "rating_modulu",
              "type": "uint256"
            },
            {
              "internalType": "string",
              "name": "fileSha256",
              "type": "string"
            },
            {
              "internalType": "bool",
              "name": "owned",
              "type": "bool"
            }
          ],
          "internalType": "struct AppInfoLibrary.AppInfo[]",
          "name": "",
          "type": "tuple[]"
        }
      ],
      "stateMutability": "view",
      "type": "function"
    },
    {
      "inputs": [],
      "name": "getCreatedApps",
      "outputs": [
        {
          "components": [
            {
              "internalType": "uint256",
              "name": "id",
              "type": "uint256"
            },
            {
              "internalType": "string",
              "name": "name",
              "type": "string"
            },
            {
              "internalType": "string",
              "name": "description",
              "type": "string"
            },
            {
              "internalType": "string",
              "name": "imgUrl",
              "type": "string"
            },
            {
              "internalType": "string",
              "name": "company",
              "type": "string"
            },
            {
              "internalType": "uint256",
              "name": "price",
              "type": "uint256"
            },
            {
              "internalType": "uint256",
              "name": "num_ratings",
              "type": "uint256"
            },
            {
              "internalType": "uint256",
              "name": "rating",
              "type": "uint256"
            },
            {
              "internalType": "uint256",
              "name": "rating_modulu",
              "type": "uint256"
            },
            {
              "internalType": "string",
              "name": "fileSha256",
              "type": "string"
            },
            {
              "internalType": "bool",
              "name": "owned",
              "type": "bool"
            }
          ],
          "internalType": "struct AppInfoLibrary.AppInfo[]",
          "name": "",
          "type": "tuple[]"
        }
      ],
      "stateMutability": "view",
      "type": "function"
    },
    {
      "inputs": [],
      "name": "getRatedApps",
      "outputs": [
        {
          "components": [
            {
              "internalType": "uint256",
              "name": "id",
              "type": "uint256"
            },
            {
              "internalType": "string",
              "name": "name",
              "type": "string"
            },
            {
              "internalType": "string",
              "name": "description",
              "type": "string"
            },
            {
              "internalType": "string",
              "name": "imgUrl",
              "type": "string"
            },
            {
              "internalType": "string",
              "name": "company",
              "type": "string"
            },
            {
              "internalType": "uint256",
              "name": "price",
              "type": "uint256"
            },
            {
              "internalType": "uint256",
              "name": "num_ratings",
              "type": "uint256"
            },
            {
              "internalType": "uint256",
              "name": "rating",
              "type": "uint256"
            },
            {
              "internalType": "uint256",
              "name": "rating_modulu",
              "type": "uint256"
            },
            {
              "internalType": "string",
              "name": "fileSha256",
              "type": "string"
            },
            {
              "internalType": "bool",
              "name": "owned",
              "type": "bool"
            }
          ],
          "internalType": "struct AppInfoLibrary.AppInfo[]",
          "name": "",
          "type": "tuple[]"
        }
      ],
      "stateMutability": "view",
      "type": "function"
    },
    {
      "inputs": [
        {
          "internalType": "address",
          "name": "app",
          "type": "address"
        }
      ],
      "name": "getRatingForApp",
      "outputs": [
        {
          "internalType": "uint256",
          "name": "",
          "type": "uint256"
        }
      ],
      "stateMutability": "view",
      "type": "function"
    },
    {
      "inputs": [
        {
          "internalType": "address",
          "name": "_app",
          "type": "address"
        }
      ],
      "name": "isAppPurchased",
      "outputs": [
        {
          "internalType": "bool",
          "name": "",
          "type": "bool"
        }
      ],
      "stateMutability": "view",
      "type": "function"
    },
    {
      "inputs": [
        {
          "internalType": "address",
          "name": "app",
          "type": "address"
        }
      ],
      "name": "creatApp",
      "outputs": [],
      "stateMutability": "nonpayable",
      "type": "function"
    },
    {
      "inputs": [
        {
          "internalType": "address",
          "name": "app",
          "type": "address"
        },
        {
          "internalType": "uint256",
          "name": "app_rating",
          "type": "uint256"
        }
      ],
      "name": "rateApp",
      "outputs": [],
      "stateMutability": "nonpayable",
      "type": "function"
    },
    {
      "inputs": [
        {
          "internalType": "address",
          "name": "app_address",
          "type": "address"
        }
      ],
      "name": "purchaseApp",
      "outputs": [],
      "stateMutability": "nonpayable",
      "type": "function"
    },
    {
      "inputs": [
        {
          "internalType": "address payable",
          "name": "creator",
          "type": "address"
        },
        {
          "internalType": "uint256",
          "name": "price",
          "type": "uint256"
        }
      ],
      "name": "payCreator",
      "outputs": [],
      "stateMutability": "payable",
      "type": "function"
    }
  ],
  "bytecode": "0x60806040523480156200001157600080fd5b5060405162001ffd38038062001ffd8339818101604052810190620000379190620002dc565b620000576200004b620001a660201b60201c565b620001ae60201b60201c565b33600260006101000a81548173ffffffffffffffffffffffffffffffffffffffff021916908373ffffffffffffffffffffffffffffffffffffffff16021790555080600160006101000a81548173ffffffffffffffffffffffffffffffffffffffff021916908373ffffffffffffffffffffffffffffffffffffffff1602179055506000600260146101000a81548160ff0219169083151502179055503073ffffffffffffffffffffffffffffffffffffffff16600160009054906101000a900473ffffffffffffffffffffffffffffffffffffffff1673ffffffffffffffffffffffffffffffffffffffff167fb38dc5c508c5acbc701af21346d9dbc58b631681962a52c08afe86b277eb7e97600260009054906101000a900473ffffffffffffffffffffffffffffffffffffffff166040516200019791906200031f565b60405180910390a3506200033c565b600033905090565b60008060009054906101000a900473ffffffffffffffffffffffffffffffffffffffff169050816000806101000a81548173ffffffffffffffffffffffffffffffffffffffff021916908373ffffffffffffffffffffffffffffffffffffffff1602179055508173ffffffffffffffffffffffffffffffffffffffff168173ffffffffffffffffffffffffffffffffffffffff167f8be0079c531659141344cd1fd0a4f28419497f9722a3daafe3b4186f6b6457e060405160405180910390a35050565b600080fd5b600073ffffffffffffffffffffffffffffffffffffffff82169050919050565b6000620002a48262000277565b9050919050565b620002b68162000297565b8114620002c257600080fd5b50565b600081519050620002d681620002ab565b92915050565b600060208284031215620002f557620002f462000272565b5b60006200030584828501620002c5565b91505092915050565b620003198162000297565b82525050565b60006020820190506200033660008301846200030e565b92915050565b611cb1806200034c6000396000f3fe6080604052600436106100a75760003560e01c80638da5cb5b116100645780638da5cb5b146101a8578063983c0a5b146101d35780639f9f7f85146101fc578063b8c3773f14610239578063d3c65b9114610264578063f2fde38b14610280576100a7565b80630611599d146100ac57806307e5d9e5146100e9578063139334af146101125780632858594b1461013d578063715018a6146101665780638cfb33041461017d575b600080fd5b3480156100b857600080fd5b506100d360048036038101906100ce919061124f565b6102a9565b6040516100e09190611297565b60405180910390f35b3480156100f557600080fd5b50610110600480360381019061010b919061124f565b610434565b005b34801561011e57600080fd5b50610127610531565b6040516101349190611540565b60405180910390f35b34801561014957600080fd5b50610164600480360381019061015f919061124f565b61070e565b005b34801561017257600080fd5b5061017b6108e8565b005b34801561018957600080fd5b50610192610970565b60405161019f9190611540565b60405180910390f35b3480156101b457600080fd5b506101bd610b4d565b6040516101ca9190611571565b60405180910390f35b3480156101df57600080fd5b506101fa60048036038101906101f591906115b8565b610b76565b005b34801561020857600080fd5b50610223600480360381019061021e919061124f565b610c55565b6040516102309190611607565b60405180910390f35b34801561024557600080fd5b5061024e610d1a565b60405161025b9190611540565b60405180910390f35b61027e60048036038101906102799190611660565b610ef7565b005b34801561028c57600080fd5b506102a760048036038101906102a2919061124f565b610fbe565b005b60006102b36110b5565b73ffffffffffffffffffffffffffffffffffffffff166102d1610b4d565b73ffffffffffffffffffffffffffffffffffffffff1614610327576040517f08c379a000000000000000000000000000000000000000000000000000000000815260040161031e906116fd565b60405180910390fd5b60005b600380549050811015610429578273ffffffffffffffffffffffffffffffffffffffff1673__AddressUtils__________________________63685658bb90916003848154811061037e5761037d61171d565b5b9060005260206000200160009054906101000a900473ffffffffffffffffffffffffffffffffffffffff166040518363ffffffff1660e01b81526004016103c692919061175b565b602060405180830381865af41580156103e3573d6000803e3d6000fd5b505050506040513d601f19601f8201168201806040525081019061040791906117b0565b1561041657600191505061042f565b80806104219061180c565b91505061032a565b50600090505b919050565b61043c6110b5565b73ffffffffffffffffffffffffffffffffffffffff1661045a610b4d565b73ffffffffffffffffffffffffffffffffffffffff16146104b0576040517f08c379a00000000000000000000000000000000000000000000000000000000081526004016104a7906116fd565b60405180910390fd5b6001600260146101000a81548160ff0219169083151502179055506004819080600181540180825580915050600190039060005260206000200160009091909190916101000a81548173ffffffffffffffffffffffffffffffffffffffff021916908373ffffffffffffffffffffffffffffffffffffffff16021790555050565b606061053b6110b5565b73ffffffffffffffffffffffffffffffffffffffff16610559610b4d565b73ffffffffffffffffffffffffffffffffffffffff16146105af576040517f08c379a00000000000000000000000000000000000000000000000000000000081526004016105a6906116fd565b60405180910390fd5b6000600380549050905060008167ffffffffffffffff8111156105d5576105d4611854565b5b60405190808252806020026020018201604052801561060e57816020015b6105fb611181565b8152602001906001900390816105f35790505b50905060005b82811015610705576000600382815481106106325761063161171d565b5b9060005260206000200160009054906101000a900473ffffffffffffffffffffffffffffffffffffffff1690508073ffffffffffffffffffffffffffffffffffffffff1663e26799ff6040518163ffffffff1660e01b8152600401600060405180830381865afa1580156106aa573d6000803e3d6000fd5b505050506040513d6000823e3d601f19601f820116820180604052508101906106d39190611b31565b8383815181106106e6576106e561171d565b5b60200260200101819052505080806106fd9061180c565b915050610614565b50809250505090565b6107166110b5565b73ffffffffffffffffffffffffffffffffffffffff16610734610b4d565b73ffffffffffffffffffffffffffffffffffffffff161461078a576040517f08c379a0000000000000000000000000000000000000000000000000000000008152600401610781906116fd565b60405180910390fd5b600081905060008173ffffffffffffffffffffffffffffffffffffffff1663a035b1fe6040518163ffffffff1660e01b8152600401602060405180830381865afa1580156107dc573d6000803e3d6000fd5b505050506040513d601f19601f820116820180604052508101906108009190611b7a565b905060008273ffffffffffffffffffffffffffffffffffffffff166302d05d3f6040518163ffffffff1660e01b8152600401602060405180830381865afa15801561084f573d6000803e3d6000fd5b505050506040513d601f19601f820116820180604052508101906108739190611bbc565b905061087f8183610ef7565b6003849080600181540180825580915050600190039060005260206000200160009091909190916101000a81548173ffffffffffffffffffffffffffffffffffffffff021916908373ffffffffffffffffffffffffffffffffffffffff16021790555050505050565b6108f06110b5565b73ffffffffffffffffffffffffffffffffffffffff1661090e610b4d565b73ffffffffffffffffffffffffffffffffffffffff1614610964576040517f08c379a000000000000000000000000000000000000000000000000000000000815260040161095b906116fd565b60405180910390fd5b61096e60006110bd565b565b606061097a6110b5565b73ffffffffffffffffffffffffffffffffffffffff16610998610b4d565b73ffffffffffffffffffffffffffffffffffffffff16146109ee576040517f08c379a00000000000000000000000000000000000000000000000000000000081526004016109e5906116fd565b60405180910390fd5b6000600480549050905060008167ffffffffffffffff811115610a1457610a13611854565b5b604051908082528060200260200182016040528015610a4d57816020015b610a3a611181565b815260200190600190039081610a325790505b50905060005b82811015610b4457600060048281548110610a7157610a7061171d565b5b9060005260206000200160009054906101000a900473ffffffffffffffffffffffffffffffffffffffff1690508073ffffffffffffffffffffffffffffffffffffffff1663e26799ff6040518163ffffffff1660e01b8152600401600060405180830381865afa158015610ae9573d6000803e3d6000fd5b505050506040513d6000823e3d601f19601f82011682018060405250810190610b129190611b31565b838381518110610b2557610b2461171d565b5b6020026020010181905250508080610b3c9061180c565b915050610a53565b50809250505090565b60008060009054906101000a900473ffffffffffffffffffffffffffffffffffffffff16905090565b610b7e6110b5565b73ffffffffffffffffffffffffffffffffffffffff16610b9c610b4d565b73ffffffffffffffffffffffffffffffffffffffff1614610bf2576040517f08c379a0000000000000000000000000000000000000000000000000000000008152600401610be9906116fd565b60405180910390fd5b60018110158015610c04575060058111155b610c0d57600080fd5b80600560008473ffffffffffffffffffffffffffffffffffffffff1673ffffffffffffffffffffffffffffffffffffffff168152602001908152602001600020819055505050565b6000610c5f6110b5565b73ffffffffffffffffffffffffffffffffffffffff16610c7d610b4d565b73ffffffffffffffffffffffffffffffffffffffff1614610cd3576040517f08c379a0000000000000000000000000000000000000000000000000000000008152600401610cca906116fd565b60405180910390fd5b600560008373ffffffffffffffffffffffffffffffffffffffff1673ffffffffffffffffffffffffffffffffffffffff168152602001908152602001600020549050919050565b6060610d246110b5565b73ffffffffffffffffffffffffffffffffffffffff16610d42610b4d565b73ffffffffffffffffffffffffffffffffffffffff1614610d98576040517f08c379a0000000000000000000000000000000000000000000000000000000008152600401610d8f906116fd565b60405180910390fd5b6000600380549050905060008167ffffffffffffffff811115610dbe57610dbd611854565b5b604051908082528060200260200182016040528015610df757816020015b610de4611181565b815260200190600190039081610ddc5790505b50905060005b82811015610eee57600060038281548110610e1b57610e1a61171d565b5b9060005260206000200160009054906101000a900473ffffffffffffffffffffffffffffffffffffffff1690508073ffffffffffffffffffffffffffffffffffffffff1663e26799ff6040518163ffffffff1660e01b8152600401600060405180830381865afa158015610e93573d6000803e3d6000fd5b505050506040513d6000823e3d601f19601f82011682018060405250810190610ebc9190611b31565b838381518110610ecf57610ece61171d565b5b6020026020010181905250508080610ee69061180c565b915050610dfd565b50809250505090565b610eff6110b5565b73ffffffffffffffffffffffffffffffffffffffff16610f1d610b4d565b73ffffffffffffffffffffffffffffffffffffffff1614610f73576040517f08c379a0000000000000000000000000000000000000000000000000000000008152600401610f6a906116fd565b60405180910390fd5b8173ffffffffffffffffffffffffffffffffffffffff166108fc829081150290604051600060405180830381858888f19350505050158015610fb9573d6000803e3d6000fd5b505050565b610fc66110b5565b73ffffffffffffffffffffffffffffffffffffffff16610fe4610b4d565b73ffffffffffffffffffffffffffffffffffffffff161461103a576040517f08c379a0000000000000000000000000000000000000000000000000000000008152600401611031906116fd565b60405180910390fd5b600073ffffffffffffffffffffffffffffffffffffffff168173ffffffffffffffffffffffffffffffffffffffff16036110a9576040517f08c379a00000000000000000000000000000000000000000000000000000000081526004016110a090611c5b565b60405180910390fd5b6110b2816110bd565b50565b600033905090565b60008060009054906101000a900473ffffffffffffffffffffffffffffffffffffffff169050816000806101000a81548173ffffffffffffffffffffffffffffffffffffffff021916908373ffffffffffffffffffffffffffffffffffffffff1602179055508173ffffffffffffffffffffffffffffffffffffffff168173ffffffffffffffffffffffffffffffffffffffff167f8be0079c531659141344cd1fd0a4f28419497f9722a3daafe3b4186f6b6457e060405160405180910390a35050565b604051806101600160405280600081526020016060815260200160608152602001606081526020016060815260200160008152602001600081526020016000815260200160008152602001606081526020016000151581525090565b6000604051905090565b600080fd5b600080fd5b600073ffffffffffffffffffffffffffffffffffffffff82169050919050565b600061121c826111f1565b9050919050565b61122c81611211565b811461123757600080fd5b50565b60008135905061124981611223565b92915050565b600060208284031215611265576112646111e7565b5b60006112738482850161123a565b91505092915050565b60008115159050919050565b6112918161127c565b82525050565b60006020820190506112ac6000830184611288565b92915050565b600081519050919050565b600082825260208201905092915050565b6000819050602082019050919050565b6000819050919050565b6112f1816112de565b82525050565b600081519050919050565b600082825260208201905092915050565b60005b83811015611331578082015181840152602081019050611316565b83811115611340576000848401525b50505050565b6000601f19601f8301169050919050565b6000611362826112f7565b61136c8185611302565b935061137c818560208601611313565b61138581611346565b840191505092915050565b6113998161127c565b82525050565b6000610160830160008301516113b860008601826112e8565b50602083015184820360208601526113d08282611357565b915050604083015184820360408601526113ea8282611357565b915050606083015184820360608601526114048282611357565b9150506080830151848203608086015261141e8282611357565b91505060a083015161143360a08601826112e8565b5060c083015161144660c08601826112e8565b5060e083015161145960e08601826112e8565b5061010083015161146e6101008601826112e8565b506101208301518482036101208601526114888282611357565b91505061014083015161149f610140860182611390565b508091505092915050565b60006114b6838361139f565b905092915050565b6000602082019050919050565b60006114d6826112b2565b6114e081856112bd565b9350836020820285016114f2856112ce565b8060005b8581101561152e578484038952815161150f85826114aa565b945061151a836114be565b925060208a019950506001810190506114f6565b50829750879550505050505092915050565b6000602082019050818103600083015261155a81846114cb565b905092915050565b61156b81611211565b82525050565b60006020820190506115866000830184611562565b92915050565b611595816112de565b81146115a057600080fd5b50565b6000813590506115b28161158c565b92915050565b600080604083850312156115cf576115ce6111e7565b5b60006115dd8582860161123a565b92505060206115ee858286016115a3565b9150509250929050565b611601816112de565b82525050565b600060208201905061161c60008301846115f8565b92915050565b600061162d826111f1565b9050919050565b61163d81611622565b811461164857600080fd5b50565b60008135905061165a81611634565b92915050565b60008060408385031215611677576116766111e7565b5b60006116858582860161164b565b9250506020611696858286016115a3565b9150509250929050565b600082825260208201905092915050565b7f4f776e61626c653a2063616c6c6572206973206e6f7420746865206f776e6572600082015250565b60006116e76020836116a0565b91506116f2826116b1565b602082019050919050565b60006020820190508181036000830152611716816116da565b9050919050565b7f4e487b7100000000000000000000000000000000000000000000000000000000600052603260045260246000fd5b61175581611211565b82525050565b6000604082019050611770600083018561174c565b61177d602083018461174c565b9392505050565b61178d8161127c565b811461179857600080fd5b50565b6000815190506117aa81611784565b92915050565b6000602082840312156117c6576117c56111e7565b5b60006117d48482850161179b565b91505092915050565b7f4e487b7100000000000000000000000000000000000000000000000000000000600052601160045260246000fd5b6000611817826112de565b91507fffffffffffffffffffffffffffffffffffffffffffffffffffffffffffffffff8203611849576118486117dd565b5b600182019050919050565b7f4e487b7100000000000000000000000000000000000000000000000000000000600052604160045260246000fd5b600080fd5b61189182611346565b810181811067ffffffffffffffff821117156118b0576118af611854565b5b80604052505050565b60006118c36111dd565b90506118cf8282611888565b919050565b600080fd5b6000815190506118e88161158c565b92915050565b600080fd5b600080fd5b600067ffffffffffffffff82111561191357611912611854565b5b61191c82611346565b9050602081019050919050565b600061193c611937846118f8565b6118b9565b905082815260208101848484011115611958576119576118f3565b5b611963848285611313565b509392505050565b600082601f8301126119805761197f6118ee565b5b8151611990848260208601611929565b91505092915050565b600061016082840312156119b0576119af611883565b5b6119bb6101606118b9565b905060006119cb848285016118d9565b600083015250602082015167ffffffffffffffff8111156119ef576119ee6118d4565b5b6119fb8482850161196b565b602083015250604082015167ffffffffffffffff811115611a1f57611a1e6118d4565b5b611a2b8482850161196b565b604083015250606082015167ffffffffffffffff811115611a4f57611a4e6118d4565b5b611a5b8482850161196b565b606083015250608082015167ffffffffffffffff811115611a7f57611a7e6118d4565b5b611a8b8482850161196b565b60808301525060a0611a9f848285016118d9565b60a08301525060c0611ab3848285016118d9565b60c08301525060e0611ac7848285016118d9565b60e083015250610100611adc848285016118d9565b6101008301525061012082015167ffffffffffffffff811115611b0257611b016118d4565b5b611b0e8482850161196b565b61012083015250610140611b248482850161179b565b6101408301525092915050565b600060208284031215611b4757611b466111e7565b5b600082015167ffffffffffffffff811115611b6557611b646111ec565b5b611b7184828501611999565b91505092915050565b600060208284031215611b9057611b8f6111e7565b5b6000611b9e848285016118d9565b91505092915050565b600081519050611bb681611634565b92915050565b600060208284031215611bd257611bd16111e7565b5b6000611be084828501611ba7565b91505092915050565b7f4f776e61626c653a206e6577206f776e657220697320746865207a65726f206160008201527f6464726573730000000000000000000000000000000000000000000000000000602082015250565b6000611c456026836116a0565b9150611c5082611be9565b604082019050919050565b60006020820190508181036000830152611c7481611c38565b905091905056fea264697066735822122031a8307e088c529a5a4b44c627df0c43c1c8b45828027a7cf2825705ca93128464736f6c634300080e0033",
  "immutableReferences": {},
  "source": "//SPDX-License-Identifier: UNLICENSED\r\npragma solidity ^0.8.0;\r\nimport {App} from './app.sol';\r\nimport {Constants, Events, StringUtils, AddressUtils} from './dappstore_utils.sol';\r\nimport {AppInfoLibrary} from './AppInfoLibrary.sol';\r\n\r\nimport \"@openzeppelin/contracts/access/Ownable.sol\";\r\n\r\ncontract User is Ownable{\r\n    using AddressUtils for address;\r\n\r\n    address payable user_address;\r\n    address dapp_store;\r\n    bool is_publisher;\r\n    address[] purchased_apps;\r\n    address[] created_apps;\r\n    mapping (address => uint) app_ratings;\r\n    mapping (address => uint) downloaded_apps;\r\n\r\n    constructor(address new_user_address){\r\n        dapp_store = msg.sender;\r\n        user_address = payable(new_user_address);\r\n        is_publisher = false;\r\n        emit Events.UserCreated(user_address, address(this), dapp_store);\r\n    }\r\n\r\n    //Validation\r\n    modifier validateDappStore() {\r\n        require(dapp_store == msg.sender);\r\n        _;\r\n    }\r\n\r\n    modifier validateID(uint _id){\r\n        require(_id > 0);\r\n        _;\r\n    }\r\n\r\n    modifier validateRating(uint _rating){\r\n        require(_rating > 0);\r\n        _;\r\n    }\r\n\r\n    //Getters\r\n    function getPurchasedApps() view external onlyOwner returns(AppInfoLibrary.AppInfo[] memory){\r\n        uint len = purchased_apps.length;\r\n        AppInfoLibrary.AppInfo[] memory purchased_apps_info = new AppInfoLibrary.AppInfo[](len);\r\n        for (uint i = 0; i < len; i++){\r\n            App _app = App(purchased_apps[i]);\r\n            purchased_apps_info[i] = _app.getAppInfo();\r\n        }\r\n        return purchased_apps_info;\r\n    }\r\n\r\n    function getCreatedApps() view external onlyOwner returns(AppInfoLibrary.AppInfo[] memory){\r\n        uint len = created_apps.length;\r\n        AppInfoLibrary.AppInfo[] memory created_apps_info = new AppInfoLibrary.AppInfo[](len);\r\n        for (uint i = 0; i < len; i++){\r\n            App _app = App(created_apps[i]);\r\n            created_apps_info[i] = _app.getAppInfo();\r\n        }\r\n        return created_apps_info;\r\n    }\r\n\r\n    function getRatedApps() view external onlyOwner returns(AppInfoLibrary.AppInfo[] memory){\r\n        uint len = purchased_apps.length;\r\n        AppInfoLibrary.AppInfo[] memory rated_apps_info = new AppInfoLibrary.AppInfo[](len);\r\n        for (uint i = 0; i < len; i++){\r\n            App _app = App(purchased_apps[i]);\r\n            rated_apps_info[i] = _app.getAppInfo();\r\n        }\r\n        return rated_apps_info;\r\n    }\r\n\r\n    function getRatingForApp(address app) view external onlyOwner returns(uint){\r\n        return app_ratings[app];\r\n    }\r\n\r\n    function isAppPurchased(address _app) view external onlyOwner returns(bool){\r\n        for (uint i = 0; i < purchased_apps.length; i++){\r\n            if (_app.isEqual(purchased_apps[i])){\r\n                return true;\r\n            }\r\n        }\r\n        return false;\r\n    }\r\n\r\n    //Updaters\r\n    function creatApp(address app) external onlyOwner{\r\n        is_publisher = true;\r\n        created_apps.push(app);\r\n    }\r\n\r\n    function rateApp(address app, uint app_rating) external onlyOwner{\r\n        require(app_rating >=1 && app_rating <=5);\r\n        app_ratings[app] = app_rating;\r\n    }\r\n\r\n    function purchaseApp(address app_address) external onlyOwner{\r\n        App app = App(app_address);\r\n        uint price = app.price();\r\n        address payable user = app.creator();\r\n        payCreator(user, price);\r\n        purchased_apps.push(app_address);\r\n    }\r\n\r\n    function payCreator(address payable creator, uint price) public payable onlyOwner{\r\n        creator.transfer(price);\r\n    }\r\n}",
  "sourcePath": "C:\\Users\\User\\Documents\\GitHub\\SmartContracts\\contracts\\user.sol",
  "compiler": {
    "name": "solc",
    "version": "0.8.14+commit.80d49f37.Emscripten.clang"
  },
  "schemaVersion": "3.4.7",
  "updatedAt": "2022-06-10T12:53:49.179Z",
  "devdoc": {
    "kind": "dev",
    "methods": {
      "owner()": {
        "details": "Returns the address of the current owner."
      },
      "renounceOwnership()": {
        "details": "Leaves the contract without owner. It will not be possible to call `onlyOwner` functions anymore. Can only be called by the current owner. NOTE: Renouncing ownership will leave the contract without an owner, thereby removing any functionality that is only available to the owner."
      },
      "transferOwnership(address)": {
        "details": "Transfers ownership of the contract to a new account (`newOwner`). Can only be called by the current owner."
      }
    },
    "version": 1
  },
  "userdoc": {
    "kind": "user",
    "methods": {},
    "version": 1
  }
}