{
  "contractName": "Verify",
  "abi": [
    {
      "anonymous": false,
      "inputs": [
        {
          "indexed": true,
          "internalType": "address",
          "name": "previousOwner",
          "type": "address"
        },
        {
          "indexed": true,
          "internalType": "address",
          "name": "newOwner",
          "type": "address"
        }
      ],
      "name": "OwnershipTransferred",
      "type": "event"
    },
    {
      "inputs": [],
      "name": "owner",
      "outputs": [
        {
          "internalType": "address",
          "name": "",
          "type": "address"
        }
      ],
      "stateMutability": "view",
      "type": "function"
    },
    {
      "inputs": [],
      "name": "renounceOwnership",
      "outputs": [],
      "stateMutability": "nonpayable",
      "type": "function"
    },
    {
      "inputs": [
        {
          "internalType": "address",
          "name": "newOwner",
          "type": "address"
        }
      ],
      "name": "transferOwnership",
      "outputs": [],
      "stateMutability": "nonpayable",
      "type": "function"
    },
    {
      "inputs": [
        {
          "internalType": "string",
          "name": "message",
          "type": "string"
        },
        {
          "internalType": "string",
          "name": "sig",
          "type": "string"
        }
      ],
      "name": "verifySignature",
      "outputs": [
        {
          "internalType": "bool",
          "name": "",
          "type": "bool"
        }
      ],
      "stateMutability": "view",
      "type": "function"
    }
  ],
  "bytecode": "0x608060405234801561001057600080fd5b50610033610025640100000000610038810204565b64010000000061003c810204565b61008c565b3390565b60008054600160a060020a03838116600160a060020a0319831681178455604051919092169283917f8be0079c531659141344cd1fd0a4f28419497f9722a3daafe3b4186f6b6457e09190a35050565b6106148061009b6000396000f3fe608060405234801561001057600080fd5b506004361061004f5760e060020a6000350463715018a6811461005457806381cd080f1461005e5780638da5cb5b14610086578063f2fde38b146100a6575b600080fd5b61005c6100b9565b005b61007161006c36600461044f565b6100cd565b60405190151581526020015b60405180910390f35b61008e610187565b604051600160a060020a03909116815260200161007d565b61005c6100b436600461052a565b610196565b6100c1610215565b6100cb6000610277565b565b6000806100db8560006102c7565b9050600061011f8286868080601f01602080910402602001604051908101604052809392919081815260200183838082843760009201919091525061033e92505050565b9050600160a060020a038116331461017b5760405160e560020a62461bcd0281526020600482015260146024820152606160020a7339b2b73232b91034b9903737ba1039b4b3b732b90260448201526064015b60405180910390fd5b50600195945050505050565b600054600160a060020a031690565b61019e610215565b600160a060020a0381166102095760405160e560020a62461bcd02815260206004820152602660248201527f4f776e61626c653a206e6577206f776e657220697320746865207a65726f2061604482015260d060020a65646472657373026064820152608401610172565b61021281610277565b50565b3361021e610187565b600160a060020a0316146100cb5760405160e560020a62461bcd02815260206004820181905260248201527f4f776e61626c653a2063616c6c6572206973206e6f7420746865206f776e65726044820152606401610172565b60008054600160a060020a03838116600160a060020a0319831681178455604051919092169283917f8be0079c531659141344cd1fd0a4f28419497f9722a3daafe3b4186f6b6457e09190a35050565b60008060005b6020811015610336576102e1816008610574565b856102ec8387610593565b815181106102fc576102fc6105ab565b60209101015160029190910a60f860020a91829004909102600160f860020a0319160491909117908061032e816105c5565b9150506102cd565b509392505050565b60008060008061034d856103bd565b6040805160008152602081018083528b905260ff8516918101919091526060810183905260808101829052929550909350915060019060a0016020604051602081039080840390855afa1580156103a8573d6000803e3d6000fd5b5050604051601f190151979650505050505050565b600080600083516041146103d057600080fd5b5050506020810151604082015160609092015160001a92909190565b60e060020a634e487b710260009081526041600452602490fd5b60008083601f84011261041857600080fd5b50813567ffffffffffffffff81111561043057600080fd5b60208301915083602082850101111561044857600080fd5b9250929050565b60008060006040848603121561046457600080fd5b833567ffffffffffffffff8082111561047c57600080fd5b818601915086601f83011261049057600080fd5b8135818111156104a2576104a26103ec565b604051601f8201601f19908116603f011681019083821181831017156104ca576104ca6103ec565b816040528281528960208487010111156104e357600080fd5b82602086016020830137600060208483010152809750505050602086013591508082111561051057600080fd5b5061051d86828701610406565b9497909650939450505050565b60006020828403121561053c57600080fd5b8135600160a060020a038116811461055357600080fd5b9392505050565b60e060020a634e487b710260009081526011600452602490fd5b600081600019048311821515161561058e5761058e61055a565b500290565b600082198211156105a6576105a661055a565b500190565b60e060020a634e487b710260009081526032600452602490fd5b6000600182016105d7576105d761055a565b506001019056fea2646970667358221220e3d214a89e85a1a03978033c03aef3d03107329ccc8eea9d379764625a27b6d264736f6c634300080f0033",
  "immutableReferences": {},
  "source": "//SPDX-License-Identifier: UNLICENSED\r\npragma solidity ^0.8.15;\r\n\r\nimport \"@openzeppelin/contracts/access/Ownable.sol\";\r\n\r\ncontract Verify is Ownable{\r\n\r\n    function verifySignature (string memory message, string calldata sig) external view returns(bool){\r\n        bytes32 message_bytes32 = bytesToBytes32(bytes(message), 0);\r\n        address signer = recoverSigner(message_bytes32, bytes(sig));\r\n        require(signer == msg.sender, \"sender is not signer\");\r\n        return true;\r\n    }\r\n\r\n    function bytesToBytes32(bytes memory b, uint offset) private pure returns (bytes32) {\r\n        bytes32 out;\r\n\r\n        for (uint i = 0; i < 32; i++) {\r\n            out |= bytes32(b[offset + i] & 0xFF) >> (i * 8);\r\n        }\r\n        return out;\r\n    }\r\n\r\n    function recoverSigner(bytes32 message, bytes memory sig) private pure returns (address){\r\n        uint8 v;\r\n        bytes32 r;\r\n        bytes32 s;\r\n        (v, r, s) = splitSignature(sig);\r\n        return ecrecover(message, v, r, s);\r\n    }\r\n\r\n    function splitSignature(bytes memory sig) private pure returns (uint8, bytes32, bytes32){\r\n        require(sig.length == 65);\r\n        bytes32 r;\r\n        bytes32 s;\r\n        uint8 v;\r\n        assembly {\r\n            // first 32 bytes, after the length prefix\r\n            r := mload(add(sig, 32))\r\n            // second 32 bytes\r\n            s := mload(add(sig, 64))\r\n            // final byte (first byte of the next 32 bytes)\r\n            v := byte(0, mload(add(sig, 96)))\r\n        }\r\n\r\n        return (v, r, s);\r\n    }\r\n}",
  "sourcePath": "C:\\Users\\User\\Documents\\GitHub\\Backend\\SmartContracts\\contracts\\Utils\\SignatureVerifier.sol",
  "compiler": {
    "name": "solc",
    "version": "0.8.15+commit.e14f2714.Emscripten.clang"
  },
  "schemaVersion": "3.4.8",
  "updatedAt": "2022-07-21T13:42:59.442Z",
  "devdoc": {
    "kind": "dev",
    "methods": {
      "owner()": {
        "details": "Returns the address of the current owner."
      },
      "renounceOwnership()": {
        "details": "Leaves the contract without owner. It will not be possible to call `onlyOwner` functions anymore. Can only be called by the current owner. NOTE: Renouncing ownership will leave the contract without an owner, thereby removing any functionality that is only available to the owner."
      },
      "transferOwnership(address)": {
        "details": "Transfers ownership of the contract to a new account (`newOwner`). Can only be called by the current owner."
      }
    },
    "version": 1
  },
  "userdoc": {
    "kind": "user",
    "methods": {},
    "version": 1
  }
}