{
  "contractName": "Verify",
  "abi": [
    {
      "anonymous": false,
      "inputs": [
        {
          "indexed": true,
          "internalType": "address",
          "name": "previousOwner",
          "type": "address"
        },
        {
          "indexed": true,
          "internalType": "address",
          "name": "newOwner",
          "type": "address"
        }
      ],
      "name": "OwnershipTransferred",
      "type": "event"
    },
    {
      "inputs": [],
      "name": "owner",
      "outputs": [
        {
          "internalType": "address",
          "name": "",
          "type": "address"
        }
      ],
      "stateMutability": "view",
      "type": "function"
    },
    {
      "inputs": [],
      "name": "renounceOwnership",
      "outputs": [],
      "stateMutability": "nonpayable",
      "type": "function"
    },
    {
      "inputs": [
        {
          "internalType": "address",
          "name": "newOwner",
          "type": "address"
        }
      ],
      "name": "transferOwnership",
      "outputs": [],
      "stateMutability": "nonpayable",
      "type": "function"
    },
    {
      "inputs": [
        {
          "internalType": "bytes32",
          "name": "message",
          "type": "bytes32"
        },
        {
          "internalType": "bytes",
          "name": "sig",
          "type": "bytes"
        }
      ],
      "name": "verifySignature",
      "outputs": [
        {
          "internalType": "bool",
          "name": "",
          "type": "bool"
        }
      ],
      "stateMutability": "view",
      "type": "function"
    }
  ],
  "bytecode": "0x608060405234801561001057600080fd5b50610033610025640100000000610038810204565b64010000000061003c810204565b61008c565b3390565b60008054600160a060020a03838116600160a060020a0319831681178455604051919092169283917f8be0079c531659141344cd1fd0a4f28419497f9722a3daafe3b4186f6b6457e09190a35050565b6104698061009b6000396000f3fe608060405234801561001057600080fd5b506004361061004f5760e060020a6000350463715018a681146100545780638da5cb5b1461005e578063daca6f7814610083578063f2fde38b146100a6575b600080fd5b61005c6100b9565b005b6100666100cd565b604051600160a060020a0390911681526020015b60405180910390f35b610096610091366004610348565b6100dc565b604051901515815260200161007a565b61005c6100b4366004610403565b61014f565b6100c16101ce565b6100cb6000610230565b565b600054600160a060020a031690565b6000806100e98484610280565b9050600160a060020a03811633146101455760405160e560020a62461bcd0281526020600482015260146024820152606160020a7339b2b73232b91034b9903737ba1039b4b3b732b90260448201526064015b60405180910390fd5b5060019392505050565b6101576101ce565b600160a060020a0381166101c25760405160e560020a62461bcd02815260206004820152602660248201527f4f776e61626c653a206e6577206f776e657220697320746865207a65726f2061604482015260d060020a6564647265737302606482015260840161013c565b6101cb81610230565b50565b336101d76100cd565b600160a060020a0316146100cb5760405160e560020a62461bcd02815260206004820181905260248201527f4f776e61626c653a2063616c6c6572206973206e6f7420746865206f776e6572604482015260640161013c565b60008054600160a060020a03838116600160a060020a0319831681178455604051919092169283917f8be0079c531659141344cd1fd0a4f28419497f9722a3daafe3b4186f6b6457e09190a35050565b60008060008061028f856102ff565b6040805160008152602081018083528b905260ff8516918101919091526060810183905260808101829052929550909350915060019060a0016020604051602081039080840390855afa1580156102ea573d6000803e3d6000fd5b5050604051601f190151979650505050505050565b6000806000835160411461031257600080fd5b5050506020810151604082015160609092015160001a92909190565b60e060020a634e487b710260009081526041600452602490fd5b6000806040838503121561035b57600080fd5b82359150602083013567ffffffffffffffff8082111561037a57600080fd5b818501915085601f83011261038e57600080fd5b8135818111156103a0576103a061032e565b604051601f8201601f19908116603f011681019083821181831017156103c8576103c861032e565b816040528281528860208487010111156103e157600080fd5b8260208601602083013760006020848301015280955050505050509250929050565b60006020828403121561041557600080fd5b8135600160a060020a038116811461042c57600080fd5b939250505056fea2646970667358221220b0d16582127ef8c4996a7c52e294356b13e761dc9cf8bc2a42a090bb9424b26564736f6c634300080f0033",
  "immutableReferences": {},
  "source": "//SPDX-License-Identifier: UNLICENSED\r\npragma solidity ^0.8.15;\r\n\r\nimport \"@openzeppelin/contracts/access/Ownable.sol\";\r\ncontract Verify is Ownable{\r\n\r\n    function verifySignature (bytes32 message, bytes memory sig) external view returns(bool){\r\n        address signer = recoverSigner(message, sig);\r\n        require(signer == msg.sender, \"sender is not signer\");\r\n        return true;\r\n    }\r\n\r\n    function recoverSigner(bytes32 message, bytes memory sig) private pure returns (address){\r\n        uint8 v;\r\n        bytes32 r;\r\n        bytes32 s;\r\n        (v, r, s) = splitSignature(sig);\r\n        return ecrecover(message, v, r, s);\r\n    }\r\n\r\n    function splitSignature(bytes memory sig) private pure returns (uint8, bytes32, bytes32){\r\n        require(sig.length == 65);\r\n        bytes32 r;\r\n        bytes32 s;\r\n        uint8 v;\r\n        assembly {\r\n            // first 32 bytes, after the length prefix\r\n            r := mload(add(sig, 32))\r\n            // second 32 bytes\r\n            s := mload(add(sig, 64))\r\n            // final byte (first byte of the next 32 bytes)\r\n            v := byte(0, mload(add(sig, 96)))\r\n        }\r\n\r\n        return (v, r, s);\r\n    }\r\n}",
  "sourcePath": "C:\\Users\\User\\Documents\\GitHub\\Backend\\SmartContracts\\contracts\\Utils\\SignatureVerifier.sol",
  "compiler": {
    "name": "solc",
    "version": "0.8.15+commit.e14f2714.Emscripten.clang"
  },
  "schemaVersion": "3.4.8",
  "updatedAt": "2022-07-13T14:30:13.185Z",
  "devdoc": {
    "kind": "dev",
    "methods": {
      "owner()": {
        "details": "Returns the address of the current owner."
      },
      "renounceOwnership()": {
        "details": "Leaves the contract without owner. It will not be possible to call `onlyOwner` functions anymore. Can only be called by the current owner. NOTE: Renouncing ownership will leave the contract without an owner, thereby removing any functionality that is only available to the owner."
      },
      "transferOwnership(address)": {
        "details": "Transfers ownership of the contract to a new account (`newOwner`). Can only be called by the current owner."
      }
    },
    "version": 1
  },
  "userdoc": {
    "kind": "user",
    "methods": {},
    "version": 1
  }
}